{
    "abi": [
        {
            "constant": false,
            "inputs": [
                {
                    "name": "_charityIndex",
                    "type": "uint256"
                },
                {
                    "name": "_score",
                    "type": "uint256"
                }
            ],
            "name": "voteIndex",
            "outputs": [],
            "payable": false,
            "stateMutability": "nonpayable",
            "type": "function"
        },
        {
            "constant": true,
            "inputs": [],
            "name": "status",
            "outputs": [
                {
                    "name": "_maxScore",
                    "type": "uint256"
                },
                {
                    "name": "_hasRight",
                    "type": "bool"
                },
                {
                    "name": "_hasVoted",
                    "type": "bool"
                }
            ],
            "payable": false,
            "stateMutability": "view",
            "type": "function"
        },
        {
            "constant": false,
            "inputs": [
                {
                    "name": "_charityName",
                    "type": "bytes32"
                },
                {
                    "name": "_score",
                    "type": "uint256"
                }
            ],
            "name": "voteName",
            "outputs": [],
            "payable": false,
            "stateMutability": "nonpayable",
            "type": "function"
        },
        {
            "constant": false,
            "inputs": [],
            "name": "destroy",
            "outputs": [],
            "payable": false,
            "stateMutability": "nonpayable",
            "type": "function"
        },
        {
            "constant": true,
            "inputs": [],
            "name": "charities",
            "outputs": [
                {
                    "name": "_names",
                    "type": "bytes32[]"
                },
                {
                    "name": "_casters",
                    "type": "address[]"
                },
                {
                    "name": "_totalScores",
                    "type": "uint256[]"
                },
                {
                    "name": "_totalVotes",
                    "type": "uint256[]"
                }
            ],
            "payable": false,
            "stateMutability": "view",
            "type": "function"
        },
        {
            "constant": true,
            "inputs": [],
            "name": "votes",
            "outputs": [
                {
                    "name": "_charityIndexes",
                    "type": "uint256[]"
                },
                {
                    "name": "_scores",
                    "type": "uint256[]"
                }
            ],
            "payable": false,
            "stateMutability": "view",
            "type": "function"
        },
        {
            "constant": true,
            "inputs": [],
            "name": "hasRight",
            "outputs": [
                {
                    "name": "",
                    "type": "bool"
                }
            ],
            "payable": false,
            "stateMutability": "view",
            "type": "function"
        },
        {
            "inputs": [
                {
                    "name": "_maxScore",
                    "type": "uint256"
                },
                {
                    "name": "_seedomAddress",
                    "type": "address"
                }
            ],
            "payable": false,
            "stateMutability": "nonpayable",
            "type": "constructor"
        },
        {
            "anonymous": false,
            "inputs": [
                {
                    "indexed": true,
                    "name": "_caster",
                    "type": "address"
                },
                {
                    "indexed": true,
                    "name": "_charityIndex",
                    "type": "uint256"
                },
                {
                    "indexed": false,
                    "name": "_charityName",
                    "type": "bytes32"
                },
                {
                    "indexed": false,
                    "name": "_score",
                    "type": "uint256"
                }
            ],
            "name": "CastName",
            "type": "event"
        },
        {
            "anonymous": false,
            "inputs": [
                {
                    "indexed": true,
                    "name": "_caster",
                    "type": "address"
                },
                {
                    "indexed": true,
                    "name": "_charityIndex",
                    "type": "uint256"
                },
                {
                    "indexed": false,
                    "name": "_score",
                    "type": "uint256"
                },
                {
                    "indexed": false,
                    "name": "_totalScores",
                    "type": "uint256"
                },
                {
                    "indexed": false,
                    "name": "_totalVotes",
                    "type": "uint256"
                }
            ],
            "name": "CastIndex",
            "type": "event"
        }
    ],
    "evm": {
        "bytecode": {
            "linkReferences": {},
            "object": "6060604052341561000f57600080fd5b604051604080610f688339810160405280805191906020018051600093845560018054600160a060020a031916600160a060020a0390921691909117905550610f099182915061005f90396000f3006060604052600436106100825763ffffffff7c010000000000000000000000000000000000000000000000000000000060003504166318c90c678114610087578063200d2ed2146100a257806350be1034146100db57806383197ef0146100f45780638e163b1314610107578063e168c3ec1461023d578063ff75307e146102e9575b600080fd5b341561009257600080fd5b6100a0600435602435610310565b005b34156100ad57600080fd5b6100b56105c4565b604051928352901515602083015215156040808301919091526060909101905180910390f35b34156100e657600080fd5b6100a06004356024356105f6565b34156100ff57600080fd5b6100a06107fa565b341561011257600080fd5b61011a610906565b6040518080602001806020018060200180602001858103855289818151815260200191508051906020019060200280838360005b8381101561016657808201518382015260200161014e565b50505050905001858103845288818151815260200191508051906020019060200280838360005b838110156101a557808201518382015260200161018d565b50505050905001858103835287818151815260200191508051906020019060200280838360005b838110156101e45780820151838201526020016101cc565b50505050905001858103825286818151815260200191508051906020019060200280838360005b8381101561022357808201518382015260200161020b565b505050509050019850505050505050505060405180910390f35b341561024857600080fd5b610250610a71565b604051808060200180602001838103835285818151815260200191508051906020019060200280838360005b8381101561029457808201518382015260200161027c565b50505050905001838103825284818151815260200191508051906020019060200280838360005b838110156102d35780820151838201526020016102bb565b5050505090500194505050505060405180910390f35b34156102f457600080fd5b6102fc610b57565b604051901515815260200160405180910390f35b60008060008061031e610dc3565b60005486111561032d57600080fd5b610335610b57565b151561034057600080fd5b600160a060020a033316600090815260036020526040902060028054919650908890811061036a57fe5b90600052602060002090600402019350600092505b84548310156103bf5786858481548110151561039757fe5b90600052602060002090600202016000015414156103b4576103bf565b60019092019161037f565b8454831461040a5784838154811015156103d557fe5b9060005260206000209060020201600101549150600082111561040a5760028401805483900390556003840180546000190190555b8515156104c357600184015433600160a060020a0390811691161415610454576000858481548110151561043a57fe5b9060005260206000209060020201600101819055506104be565b845460019011156104ac5784548590600019810190811061047157fe5b9060005260206000209060020201858481548110151561048d57fe5b6000918252602090912082546002909202019081556001918201549101555b84546104bc866000198301610dda565b505b610561565b845483146104f4578585848154811015156104da57fe5b90600052602060002090600202016001018190555061054b565b84541561050057600080fd5b604080519081016040528781526020810187905285549091508590600181016105298382610dda565b6000928352602090922083916002020181518155602082015181600101555050505b6002840180548701905560038401805460010190555b8633600160a060020a03167f82a487396ee43a1f116cbcc04d87bc5d2a591d0681bb1bd70ac90248437be2db888760020154886003015460405180848152602001838152602001828152602001935050505060405180910390a350505050505050565b6000805490806105d2610b57565b600160a060020a033316600090815260036020526040812054949591941192509050565b6000806000610603610e0b565b61060b610dc3565b86151561061757600080fd5b60005486111561062657600080fd5b600160a060020a0333166000908152600360205260409020541561064957600080fd5b610651610b57565b151561065c57600080fd5b600094505b6002548510156106a557600280548690811061067957fe5b60009182526020909120600490910201805490945087141561069a57600080fd5b600190940193610661565b600254925060806040519081016040908152888252600160a060020a0333166020830152810187905260016060820181905260028054929450919081016106ec8382610e32565b6000928352602090922084916004020181518155602082015160018201805473ffffffffffffffffffffffffffffffffffffffff1916600160a060020a039290921691909117905560408201518160020155606082015181600301555050506040805190810160409081528482526020808301899052600160a060020a03331660009081526003909152208054919250906001810161078b8382610dda565b6000928352602090922083916002020181518155602082015181600101555050508233600160a060020a03167f0ed5f243b8af488bd238b7ad4c53502afe8eeab5aca9cd8968a24071bd516186898960405191825260208201526040908101905180910390a350505050505050565b6001546000908190600160a060020a031663be4f3b0b8260405161018001526040518163ffffffff167c010000000000000000000000000000000000000000000000000000000002815260040161018060405180830381600087803b151561086157600080fd5b6102c65a03f1151561087257600080fd5b50505060405180519060200180519060200180519060200180519060200180519060200180519060200180519060200180519060200180519060200180519060200180519060200180519050509a50505050505050945050505033600160a060020a031682600160a060020a03161415156108ec57600080fd5b42819010156108fa57600080fd5b33600160a060020a0316ff5b61090e610e5e565b610916610e5e565b61091e610e5e565b610926610e5e565b6002546000808260405180591061093a5750595b908082528060200260200182016040525096508260405180591061095b5750595b908082528060200260200182016040525095508260405180591061097c5750595b908082528060200260200182016040525094508260405180591061099d5750595b90808252806020026020018201604052509350600091505b82821015610a685760028054839081106109cb57fe5b9060005260206000209060040201905080600001548783815181106109ec57fe5b602090810290910101526001810154600160a060020a0316868381518110610a1057fe5b600160a060020a039092166020928302909101909101526002810154858381518110610a3857fe5b602090810290910101526003810154848381518110610a5357fe5b602090810290910101526001909101906109b5565b50505090919293565b610a79610e5e565b610a81610e5e565b600160a060020a0333166000908152600360205260408082208054909290918190839051805910610aaf5750595b9080825280602002602001820160405250955082604051805910610ad05750595b90808252806020026020018201604052509450600091505b82821015610b4f578382815481101515610afe57fe5b906000526020600020906002020190508060000154868381518110610b1f57fe5b602090810290910101526001810154858381518110610b3a57fe5b60209081029091010152600190910190610ae8565b505050509091565b600154600090819081908190600160a060020a031663be4f3b0b8260405161018001526040518163ffffffff167c010000000000000000000000000000000000000000000000000000000002815260040161018060405180830381600087803b1515610bc257600080fd5b6102c65a03f11515610bd357600080fd5b505050604051805190602001805190602001805190602001805190602001805190602001805190602001805190602001805190602001805190602001805190602001805190602001805190505050509a5050505050505050508242101515610c3e5760009350610dbd565b600154600160a060020a031663c19d93fb600060405161016001526040518163ffffffff167c010000000000000000000000000000000000000000000000000000000002815260040161016060405180830381600087803b1515610ca157600080fd5b6102c65a03f11515610cb257600080fd5b505050604051805190602001805190602001805190602001805190602001805190602001805190602001805190602001805190602001805190602001805190602001805190505050995050505050505050508115610d135760009350610dbd565b600154600160a060020a03166309e69ede336000604051604001526040517c010000000000000000000000000000000000000000000000000000000063ffffffff8416028152600160a060020a0390911660048201526024016040805180830381600087803b1515610d8457600080fd5b6102c65a03f11515610d9557600080fd5b50505060405180519060200180515090915050801515610db85760009350610dbd565b600193505b50505090565b604080519081016040526000808252602082015290565b815481835581811511610e0657600202816002028360005260206000209182019101610e069190610e70565b505050565b60806040519081016040908152600080835260208301819052908201819052606082015290565b815481835581811511610e0657600402816004028360005260206000209182019101610e069190610e97565b60206040519081016040526000815290565b610e9491905b80821115610e905760008082556001820155600201610e76565b5090565b90565b610e9491905b80821115610e9057600080825560018201805473ffffffffffffffffffffffffffffffffffffffff19169055600282018190556003820155600401610e9d5600a165627a7a72305820e7e7221e7852500d1956ad07bacf25e866308e4ec5c11085ce09042fe83433d40029",
            "opcodes": "PUSH1 0x60 PUSH1 0x40 MSTORE CALLVALUE ISZERO PUSH2 0xF JUMPI PUSH1 0x0 DUP1 REVERT JUMPDEST PUSH1 0x40 MLOAD PUSH1 0x40 DUP1 PUSH2 0xF68 DUP4 CODECOPY DUP2 ADD PUSH1 0x40 MSTORE DUP1 DUP1 MLOAD SWAP2 SWAP1 PUSH1 0x20 ADD DUP1 MLOAD PUSH1 0x0 SWAP4 DUP5 SSTORE PUSH1 0x1 DUP1 SLOAD PUSH1 0x1 PUSH1 0xA0 PUSH1 0x2 EXP SUB NOT AND PUSH1 0x1 PUSH1 0xA0 PUSH1 0x2 EXP SUB SWAP1 SWAP3 AND SWAP2 SWAP1 SWAP2 OR SWAP1 SSTORE POP PUSH2 0xF09 SWAP2 DUP3 SWAP2 POP PUSH2 0x5F SWAP1 CODECOPY PUSH1 0x0 RETURN STOP PUSH1 0x60 PUSH1 0x40 MSTORE PUSH1 0x4 CALLDATASIZE LT PUSH2 0x82 JUMPI PUSH4 0xFFFFFFFF PUSH29 0x100000000000000000000000000000000000000000000000000000000 PUSH1 0x0 CALLDATALOAD DIV AND PUSH4 0x18C90C67 DUP2 EQ PUSH2 0x87 JUMPI DUP1 PUSH4 0x200D2ED2 EQ PUSH2 0xA2 JUMPI DUP1 PUSH4 0x50BE1034 EQ PUSH2 0xDB JUMPI DUP1 PUSH4 0x83197EF0 EQ PUSH2 0xF4 JUMPI DUP1 PUSH4 0x8E163B13 EQ PUSH2 0x107 JUMPI DUP1 PUSH4 0xE168C3EC EQ PUSH2 0x23D JUMPI DUP1 PUSH4 0xFF75307E EQ PUSH2 0x2E9 JUMPI JUMPDEST PUSH1 0x0 DUP1 REVERT JUMPDEST CALLVALUE ISZERO PUSH2 0x92 JUMPI PUSH1 0x0 DUP1 REVERT JUMPDEST PUSH2 0xA0 PUSH1 0x4 CALLDATALOAD PUSH1 0x24 CALLDATALOAD PUSH2 0x310 JUMP JUMPDEST STOP JUMPDEST CALLVALUE ISZERO PUSH2 0xAD JUMPI PUSH1 0x0 DUP1 REVERT JUMPDEST PUSH2 0xB5 PUSH2 0x5C4 JUMP JUMPDEST PUSH1 0x40 MLOAD SWAP3 DUP4 MSTORE SWAP1 ISZERO ISZERO PUSH1 0x20 DUP4 ADD MSTORE ISZERO ISZERO PUSH1 0x40 DUP1 DUP4 ADD SWAP2 SWAP1 SWAP2 MSTORE PUSH1 0x60 SWAP1 SWAP2 ADD SWAP1 MLOAD DUP1 SWAP2 SUB SWAP1 RETURN JUMPDEST CALLVALUE ISZERO PUSH2 0xE6 JUMPI PUSH1 0x0 DUP1 REVERT JUMPDEST PUSH2 0xA0 PUSH1 0x4 CALLDATALOAD PUSH1 0x24 CALLDATALOAD PUSH2 0x5F6 JUMP JUMPDEST CALLVALUE ISZERO PUSH2 0xFF JUMPI PUSH1 0x0 DUP1 REVERT JUMPDEST PUSH2 0xA0 PUSH2 0x7FA JUMP JUMPDEST CALLVALUE ISZERO PUSH2 0x112 JUMPI PUSH1 0x0 DUP1 REVERT JUMPDEST PUSH2 0x11A PUSH2 0x906 JUMP JUMPDEST PUSH1 0x40 MLOAD DUP1 DUP1 PUSH1 0x20 ADD DUP1 PUSH1 0x20 ADD DUP1 PUSH1 0x20 ADD DUP1 PUSH1 0x20 ADD DUP6 DUP2 SUB DUP6 MSTORE DUP10 DUP2 DUP2 MLOAD DUP2 MSTORE PUSH1 0x20 ADD SWAP2 POP DUP1 MLOAD SWAP1 PUSH1 0x20 ADD SWAP1 PUSH1 0x20 MUL DUP1 DUP4 DUP4 PUSH1 0x0 JUMPDEST DUP4 DUP2 LT ISZERO PUSH2 0x166 JUMPI DUP1 DUP3 ADD MLOAD DUP4 DUP3 ADD MSTORE PUSH1 0x20 ADD PUSH2 0x14E JUMP JUMPDEST POP POP POP POP SWAP1 POP ADD DUP6 DUP2 SUB DUP5 MSTORE DUP9 DUP2 DUP2 MLOAD DUP2 MSTORE PUSH1 0x20 ADD SWAP2 POP DUP1 MLOAD SWAP1 PUSH1 0x20 ADD SWAP1 PUSH1 0x20 MUL DUP1 DUP4 DUP4 PUSH1 0x0 JUMPDEST DUP4 DUP2 LT ISZERO PUSH2 0x1A5 JUMPI DUP1 DUP3 ADD MLOAD DUP4 DUP3 ADD MSTORE PUSH1 0x20 ADD PUSH2 0x18D JUMP JUMPDEST POP POP POP POP SWAP1 POP ADD DUP6 DUP2 SUB DUP4 MSTORE DUP8 DUP2 DUP2 MLOAD DUP2 MSTORE PUSH1 0x20 ADD SWAP2 POP DUP1 MLOAD SWAP1 PUSH1 0x20 ADD SWAP1 PUSH1 0x20 MUL DUP1 DUP4 DUP4 PUSH1 0x0 JUMPDEST DUP4 DUP2 LT ISZERO PUSH2 0x1E4 JUMPI DUP1 DUP3 ADD MLOAD DUP4 DUP3 ADD MSTORE PUSH1 0x20 ADD PUSH2 0x1CC JUMP JUMPDEST POP POP POP POP SWAP1 POP ADD DUP6 DUP2 SUB DUP3 MSTORE DUP7 DUP2 DUP2 MLOAD DUP2 MSTORE PUSH1 0x20 ADD SWAP2 POP DUP1 MLOAD SWAP1 PUSH1 0x20 ADD SWAP1 PUSH1 0x20 MUL DUP1 DUP4 DUP4 PUSH1 0x0 JUMPDEST DUP4 DUP2 LT ISZERO PUSH2 0x223 JUMPI DUP1 DUP3 ADD MLOAD DUP4 DUP3 ADD MSTORE PUSH1 0x20 ADD PUSH2 0x20B JUMP JUMPDEST POP POP POP POP SWAP1 POP ADD SWAP9 POP POP POP POP POP POP POP POP POP PUSH1 0x40 MLOAD DUP1 SWAP2 SUB SWAP1 RETURN JUMPDEST CALLVALUE ISZERO PUSH2 0x248 JUMPI PUSH1 0x0 DUP1 REVERT JUMPDEST PUSH2 0x250 PUSH2 0xA71 JUMP JUMPDEST PUSH1 0x40 MLOAD DUP1 DUP1 PUSH1 0x20 ADD DUP1 PUSH1 0x20 ADD DUP4 DUP2 SUB DUP4 MSTORE DUP6 DUP2 DUP2 MLOAD DUP2 MSTORE PUSH1 0x20 ADD SWAP2 POP DUP1 MLOAD SWAP1 PUSH1 0x20 ADD SWAP1 PUSH1 0x20 MUL DUP1 DUP4 DUP4 PUSH1 0x0 JUMPDEST DUP4 DUP2 LT ISZERO PUSH2 0x294 JUMPI DUP1 DUP3 ADD MLOAD DUP4 DUP3 ADD MSTORE PUSH1 0x20 ADD PUSH2 0x27C JUMP JUMPDEST POP POP POP POP SWAP1 POP ADD DUP4 DUP2 SUB DUP3 MSTORE DUP5 DUP2 DUP2 MLOAD DUP2 MSTORE PUSH1 0x20 ADD SWAP2 POP DUP1 MLOAD SWAP1 PUSH1 0x20 ADD SWAP1 PUSH1 0x20 MUL DUP1 DUP4 DUP4 PUSH1 0x0 JUMPDEST DUP4 DUP2 LT ISZERO PUSH2 0x2D3 JUMPI DUP1 DUP3 ADD MLOAD DUP4 DUP3 ADD MSTORE PUSH1 0x20 ADD PUSH2 0x2BB JUMP JUMPDEST POP POP POP POP SWAP1 POP ADD SWAP5 POP POP POP POP POP PUSH1 0x40 MLOAD DUP1 SWAP2 SUB SWAP1 RETURN JUMPDEST CALLVALUE ISZERO PUSH2 0x2F4 JUMPI PUSH1 0x0 DUP1 REVERT JUMPDEST PUSH2 0x2FC PUSH2 0xB57 JUMP JUMPDEST PUSH1 0x40 MLOAD SWAP1 ISZERO ISZERO DUP2 MSTORE PUSH1 0x20 ADD PUSH1 0x40 MLOAD DUP1 SWAP2 SUB SWAP1 RETURN JUMPDEST PUSH1 0x0 DUP1 PUSH1 0x0 DUP1 PUSH2 0x31E PUSH2 0xDC3 JUMP JUMPDEST PUSH1 0x0 SLOAD DUP7 GT ISZERO PUSH2 0x32D JUMPI PUSH1 0x0 DUP1 REVERT JUMPDEST PUSH2 0x335 PUSH2 0xB57 JUMP JUMPDEST ISZERO ISZERO PUSH2 0x340 JUMPI PUSH1 0x0 DUP1 REVERT JUMPDEST PUSH1 0x1 PUSH1 0xA0 PUSH1 0x2 EXP SUB CALLER AND PUSH1 0x0 SWAP1 DUP2 MSTORE PUSH1 0x3 PUSH1 0x20 MSTORE PUSH1 0x40 SWAP1 KECCAK256 PUSH1 0x2 DUP1 SLOAD SWAP2 SWAP7 POP SWAP1 DUP9 SWAP1 DUP2 LT PUSH2 0x36A JUMPI INVALID JUMPDEST SWAP1 PUSH1 0x0 MSTORE PUSH1 0x20 PUSH1 0x0 KECCAK256 SWAP1 PUSH1 0x4 MUL ADD SWAP4 POP PUSH1 0x0 SWAP3 POP JUMPDEST DUP5 SLOAD DUP4 LT ISZERO PUSH2 0x3BF JUMPI DUP7 DUP6 DUP5 DUP2 SLOAD DUP2 LT ISZERO ISZERO PUSH2 0x397 JUMPI INVALID JUMPDEST SWAP1 PUSH1 0x0 MSTORE PUSH1 0x20 PUSH1 0x0 KECCAK256 SWAP1 PUSH1 0x2 MUL ADD PUSH1 0x0 ADD SLOAD EQ ISZERO PUSH2 0x3B4 JUMPI PUSH2 0x3BF JUMP JUMPDEST PUSH1 0x1 SWAP1 SWAP3 ADD SWAP2 PUSH2 0x37F JUMP JUMPDEST DUP5 SLOAD DUP4 EQ PUSH2 0x40A JUMPI DUP5 DUP4 DUP2 SLOAD DUP2 LT ISZERO ISZERO PUSH2 0x3D5 JUMPI INVALID JUMPDEST SWAP1 PUSH1 0x0 MSTORE PUSH1 0x20 PUSH1 0x0 KECCAK256 SWAP1 PUSH1 0x2 MUL ADD PUSH1 0x1 ADD SLOAD SWAP2 POP PUSH1 0x0 DUP3 GT ISZERO PUSH2 0x40A JUMPI PUSH1 0x2 DUP5 ADD DUP1 SLOAD DUP4 SWAP1 SUB SWAP1 SSTORE PUSH1 0x3 DUP5 ADD DUP1 SLOAD PUSH1 0x0 NOT ADD SWAP1 SSTORE JUMPDEST DUP6 ISZERO ISZERO PUSH2 0x4C3 JUMPI PUSH1 0x1 DUP5 ADD SLOAD CALLER PUSH1 0x1 PUSH1 0xA0 PUSH1 0x2 EXP SUB SWAP1 DUP2 AND SWAP2 AND EQ ISZERO PUSH2 0x454 JUMPI PUSH1 0x0 DUP6 DUP5 DUP2 SLOAD DUP2 LT ISZERO ISZERO PUSH2 0x43A JUMPI INVALID JUMPDEST SWAP1 PUSH1 0x0 MSTORE PUSH1 0x20 PUSH1 0x0 KECCAK256 SWAP1 PUSH1 0x2 MUL ADD PUSH1 0x1 ADD DUP2 SWAP1 SSTORE POP PUSH2 0x4BE JUMP JUMPDEST DUP5 SLOAD PUSH1 0x1 SWAP1 GT ISZERO PUSH2 0x4AC JUMPI DUP5 SLOAD DUP6 SWAP1 PUSH1 0x0 NOT DUP2 ADD SWAP1 DUP2 LT PUSH2 0x471 JUMPI INVALID JUMPDEST SWAP1 PUSH1 0x0 MSTORE PUSH1 0x20 PUSH1 0x0 KECCAK256 SWAP1 PUSH1 0x2 MUL ADD DUP6 DUP5 DUP2 SLOAD DUP2 LT ISZERO ISZERO PUSH2 0x48D JUMPI INVALID JUMPDEST PUSH1 0x0 SWAP2 DUP3 MSTORE PUSH1 0x20 SWAP1 SWAP2 KECCAK256 DUP3 SLOAD PUSH1 0x2 SWAP1 SWAP3 MUL ADD SWAP1 DUP2 SSTORE PUSH1 0x1 SWAP2 DUP3 ADD SLOAD SWAP2 ADD SSTORE JUMPDEST DUP5 SLOAD PUSH2 0x4BC DUP7 PUSH1 0x0 NOT DUP4 ADD PUSH2 0xDDA JUMP JUMPDEST POP JUMPDEST PUSH2 0x561 JUMP JUMPDEST DUP5 SLOAD DUP4 EQ PUSH2 0x4F4 JUMPI DUP6 DUP6 DUP5 DUP2 SLOAD DUP2 LT ISZERO ISZERO PUSH2 0x4DA JUMPI INVALID JUMPDEST SWAP1 PUSH1 0x0 MSTORE PUSH1 0x20 PUSH1 0x0 KECCAK256 SWAP1 PUSH1 0x2 MUL ADD PUSH1 0x1 ADD DUP2 SWAP1 SSTORE POP PUSH2 0x54B JUMP JUMPDEST DUP5 SLOAD ISZERO PUSH2 0x500 JUMPI PUSH1 0x0 DUP1 REVERT JUMPDEST PUSH1 0x40 DUP1 MLOAD SWAP1 DUP2 ADD PUSH1 0x40 MSTORE DUP8 DUP2 MSTORE PUSH1 0x20 DUP2 ADD DUP8 SWAP1 MSTORE DUP6 SLOAD SWAP1 SWAP2 POP DUP6 SWAP1 PUSH1 0x1 DUP2 ADD PUSH2 0x529 DUP4 DUP3 PUSH2 0xDDA JUMP JUMPDEST PUSH1 0x0 SWAP3 DUP4 MSTORE PUSH1 0x20 SWAP1 SWAP3 KECCAK256 DUP4 SWAP2 PUSH1 0x2 MUL ADD DUP2 MLOAD DUP2 SSTORE PUSH1 0x20 DUP3 ADD MLOAD DUP2 PUSH1 0x1 ADD SSTORE POP POP POP JUMPDEST PUSH1 0x2 DUP5 ADD DUP1 SLOAD DUP8 ADD SWAP1 SSTORE PUSH1 0x3 DUP5 ADD DUP1 SLOAD PUSH1 0x1 ADD SWAP1 SSTORE JUMPDEST DUP7 CALLER PUSH1 0x1 PUSH1 0xA0 PUSH1 0x2 EXP SUB AND PUSH32 0x82A487396EE43A1F116CBCC04D87BC5D2A591D0681BB1BD70AC90248437BE2DB DUP9 DUP8 PUSH1 0x2 ADD SLOAD DUP9 PUSH1 0x3 ADD SLOAD PUSH1 0x40 MLOAD DUP1 DUP5 DUP2 MSTORE PUSH1 0x20 ADD DUP4 DUP2 MSTORE PUSH1 0x20 ADD DUP3 DUP2 MSTORE PUSH1 0x20 ADD SWAP4 POP POP POP POP PUSH1 0x40 MLOAD DUP1 SWAP2 SUB SWAP1 LOG3 POP POP POP POP POP POP POP JUMP JUMPDEST PUSH1 0x0 DUP1 SLOAD SWAP1 DUP1 PUSH2 0x5D2 PUSH2 0xB57 JUMP JUMPDEST PUSH1 0x1 PUSH1 0xA0 PUSH1 0x2 EXP SUB CALLER AND PUSH1 0x0 SWAP1 DUP2 MSTORE PUSH1 0x3 PUSH1 0x20 MSTORE PUSH1 0x40 DUP2 KECCAK256 SLOAD SWAP5 SWAP6 SWAP2 SWAP5 GT SWAP3 POP SWAP1 POP JUMP JUMPDEST PUSH1 0x0 DUP1 PUSH1 0x0 PUSH2 0x603 PUSH2 0xE0B JUMP JUMPDEST PUSH2 0x60B PUSH2 0xDC3 JUMP JUMPDEST DUP7 ISZERO ISZERO PUSH2 0x617 JUMPI PUSH1 0x0 DUP1 REVERT JUMPDEST PUSH1 0x0 SLOAD DUP7 GT ISZERO PUSH2 0x626 JUMPI PUSH1 0x0 DUP1 REVERT JUMPDEST PUSH1 0x1 PUSH1 0xA0 PUSH1 0x2 EXP SUB CALLER AND PUSH1 0x0 SWAP1 DUP2 MSTORE PUSH1 0x3 PUSH1 0x20 MSTORE PUSH1 0x40 SWAP1 KECCAK256 SLOAD ISZERO PUSH2 0x649 JUMPI PUSH1 0x0 DUP1 REVERT JUMPDEST PUSH2 0x651 PUSH2 0xB57 JUMP JUMPDEST ISZERO ISZERO PUSH2 0x65C JUMPI PUSH1 0x0 DUP1 REVERT JUMPDEST PUSH1 0x0 SWAP5 POP JUMPDEST PUSH1 0x2 SLOAD DUP6 LT ISZERO PUSH2 0x6A5 JUMPI PUSH1 0x2 DUP1 SLOAD DUP7 SWAP1 DUP2 LT PUSH2 0x679 JUMPI INVALID JUMPDEST PUSH1 0x0 SWAP2 DUP3 MSTORE PUSH1 0x20 SWAP1 SWAP2 KECCAK256 PUSH1 0x4 SWAP1 SWAP2 MUL ADD DUP1 SLOAD SWAP1 SWAP5 POP DUP8 EQ ISZERO PUSH2 0x69A JUMPI PUSH1 0x0 DUP1 REVERT JUMPDEST PUSH1 0x1 SWAP1 SWAP5 ADD SWAP4 PUSH2 0x661 JUMP JUMPDEST PUSH1 0x2 SLOAD SWAP3 POP PUSH1 0x80 PUSH1 0x40 MLOAD SWAP1 DUP2 ADD PUSH1 0x40 SWAP1 DUP2 MSTORE DUP9 DUP3 MSTORE PUSH1 0x1 PUSH1 0xA0 PUSH1 0x2 EXP SUB CALLER AND PUSH1 0x20 DUP4 ADD MSTORE DUP2 ADD DUP8 SWAP1 MSTORE PUSH1 0x1 PUSH1 0x60 DUP3 ADD DUP2 SWAP1 MSTORE PUSH1 0x2 DUP1 SLOAD SWAP3 SWAP5 POP SWAP2 SWAP1 DUP2 ADD PUSH2 0x6EC DUP4 DUP3 PUSH2 0xE32 JUMP JUMPDEST PUSH1 0x0 SWAP3 DUP4 MSTORE PUSH1 0x20 SWAP1 SWAP3 KECCAK256 DUP5 SWAP2 PUSH1 0x4 MUL ADD DUP2 MLOAD DUP2 SSTORE PUSH1 0x20 DUP3 ADD MLOAD PUSH1 0x1 DUP3 ADD DUP1 SLOAD PUSH20 0xFFFFFFFFFFFFFFFFFFFFFFFFFFFFFFFFFFFFFFFF NOT AND PUSH1 0x1 PUSH1 0xA0 PUSH1 0x2 EXP SUB SWAP3 SWAP1 SWAP3 AND SWAP2 SWAP1 SWAP2 OR SWAP1 SSTORE PUSH1 0x40 DUP3 ADD MLOAD DUP2 PUSH1 0x2 ADD SSTORE PUSH1 0x60 DUP3 ADD MLOAD DUP2 PUSH1 0x3 ADD SSTORE POP POP POP PUSH1 0x40 DUP1 MLOAD SWAP1 DUP2 ADD PUSH1 0x40 SWAP1 DUP2 MSTORE DUP5 DUP3 MSTORE PUSH1 0x20 DUP1 DUP4 ADD DUP10 SWAP1 MSTORE PUSH1 0x1 PUSH1 0xA0 PUSH1 0x2 EXP SUB CALLER AND PUSH1 0x0 SWAP1 DUP2 MSTORE PUSH1 0x3 SWAP1 SWAP2 MSTORE KECCAK256 DUP1 SLOAD SWAP2 SWAP3 POP SWAP1 PUSH1 0x1 DUP2 ADD PUSH2 0x78B DUP4 DUP3 PUSH2 0xDDA JUMP JUMPDEST PUSH1 0x0 SWAP3 DUP4 MSTORE PUSH1 0x20 SWAP1 SWAP3 KECCAK256 DUP4 SWAP2 PUSH1 0x2 MUL ADD DUP2 MLOAD DUP2 SSTORE PUSH1 0x20 DUP3 ADD MLOAD DUP2 PUSH1 0x1 ADD SSTORE POP POP POP DUP3 CALLER PUSH1 0x1 PUSH1 0xA0 PUSH1 0x2 EXP SUB AND PUSH32 0xED5F243B8AF488BD238B7AD4C53502AFE8EEAB5ACA9CD8968A24071BD516186 DUP10 DUP10 PUSH1 0x40 MLOAD SWAP2 DUP3 MSTORE PUSH1 0x20 DUP3 ADD MSTORE PUSH1 0x40 SWAP1 DUP2 ADD SWAP1 MLOAD DUP1 SWAP2 SUB SWAP1 LOG3 POP POP POP POP POP POP POP JUMP JUMPDEST PUSH1 0x1 SLOAD PUSH1 0x0 SWAP1 DUP2 SWAP1 PUSH1 0x1 PUSH1 0xA0 PUSH1 0x2 EXP SUB AND PUSH4 0xBE4F3B0B DUP3 PUSH1 0x40 MLOAD PUSH2 0x180 ADD MSTORE PUSH1 0x40 MLOAD DUP2 PUSH4 0xFFFFFFFF AND PUSH29 0x100000000000000000000000000000000000000000000000000000000 MUL DUP2 MSTORE PUSH1 0x4 ADD PUSH2 0x180 PUSH1 0x40 MLOAD DUP1 DUP4 SUB DUP2 PUSH1 0x0 DUP8 DUP1 EXTCODESIZE ISZERO ISZERO PUSH2 0x861 JUMPI PUSH1 0x0 DUP1 REVERT JUMPDEST PUSH2 0x2C6 GAS SUB CALL ISZERO ISZERO PUSH2 0x872 JUMPI PUSH1 0x0 DUP1 REVERT JUMPDEST POP POP POP PUSH1 0x40 MLOAD DUP1 MLOAD SWAP1 PUSH1 0x20 ADD DUP1 MLOAD SWAP1 PUSH1 0x20 ADD DUP1 MLOAD SWAP1 PUSH1 0x20 ADD DUP1 MLOAD SWAP1 PUSH1 0x20 ADD DUP1 MLOAD SWAP1 PUSH1 0x20 ADD DUP1 MLOAD SWAP1 PUSH1 0x20 ADD DUP1 MLOAD SWAP1 PUSH1 0x20 ADD DUP1 MLOAD SWAP1 PUSH1 0x20 ADD DUP1 MLOAD SWAP1 PUSH1 0x20 ADD DUP1 MLOAD SWAP1 PUSH1 0x20 ADD DUP1 MLOAD SWAP1 PUSH1 0x20 ADD DUP1 MLOAD SWAP1 POP POP SWAP11 POP POP POP POP POP POP POP SWAP5 POP POP POP POP CALLER PUSH1 0x1 PUSH1 0xA0 PUSH1 0x2 EXP SUB AND DUP3 PUSH1 0x1 PUSH1 0xA0 PUSH1 0x2 EXP SUB AND EQ ISZERO ISZERO PUSH2 0x8EC JUMPI PUSH1 0x0 DUP1 REVERT JUMPDEST TIMESTAMP DUP2 SWAP1 LT ISZERO PUSH2 0x8FA JUMPI PUSH1 0x0 DUP1 REVERT JUMPDEST CALLER PUSH1 0x1 PUSH1 0xA0 PUSH1 0x2 EXP SUB AND SELFDESTRUCT JUMPDEST PUSH2 0x90E PUSH2 0xE5E JUMP JUMPDEST PUSH2 0x916 PUSH2 0xE5E JUMP JUMPDEST PUSH2 0x91E PUSH2 0xE5E JUMP JUMPDEST PUSH2 0x926 PUSH2 0xE5E JUMP JUMPDEST PUSH1 0x2 SLOAD PUSH1 0x0 DUP1 DUP3 PUSH1 0x40 MLOAD DUP1 MSIZE LT PUSH2 0x93A JUMPI POP MSIZE JUMPDEST SWAP1 DUP1 DUP3 MSTORE DUP1 PUSH1 0x20 MUL PUSH1 0x20 ADD DUP3 ADD PUSH1 0x40 MSTORE POP SWAP7 POP DUP3 PUSH1 0x40 MLOAD DUP1 MSIZE LT PUSH2 0x95B JUMPI POP MSIZE JUMPDEST SWAP1 DUP1 DUP3 MSTORE DUP1 PUSH1 0x20 MUL PUSH1 0x20 ADD DUP3 ADD PUSH1 0x40 MSTORE POP SWAP6 POP DUP3 PUSH1 0x40 MLOAD DUP1 MSIZE LT PUSH2 0x97C JUMPI POP MSIZE JUMPDEST SWAP1 DUP1 DUP3 MSTORE DUP1 PUSH1 0x20 MUL PUSH1 0x20 ADD DUP3 ADD PUSH1 0x40 MSTORE POP SWAP5 POP DUP3 PUSH1 0x40 MLOAD DUP1 MSIZE LT PUSH2 0x99D JUMPI POP MSIZE JUMPDEST SWAP1 DUP1 DUP3 MSTORE DUP1 PUSH1 0x20 MUL PUSH1 0x20 ADD DUP3 ADD PUSH1 0x40 MSTORE POP SWAP4 POP PUSH1 0x0 SWAP2 POP JUMPDEST DUP3 DUP3 LT ISZERO PUSH2 0xA68 JUMPI PUSH1 0x2 DUP1 SLOAD DUP4 SWAP1 DUP2 LT PUSH2 0x9CB JUMPI INVALID JUMPDEST SWAP1 PUSH1 0x0 MSTORE PUSH1 0x20 PUSH1 0x0 KECCAK256 SWAP1 PUSH1 0x4 MUL ADD SWAP1 POP DUP1 PUSH1 0x0 ADD SLOAD DUP8 DUP4 DUP2 MLOAD DUP2 LT PUSH2 0x9EC JUMPI INVALID JUMPDEST PUSH1 0x20 SWAP1 DUP2 MUL SWAP1 SWAP2 ADD ADD MSTORE PUSH1 0x1 DUP2 ADD SLOAD PUSH1 0x1 PUSH1 0xA0 PUSH1 0x2 EXP SUB AND DUP7 DUP4 DUP2 MLOAD DUP2 LT PUSH2 0xA10 JUMPI INVALID JUMPDEST PUSH1 0x1 PUSH1 0xA0 PUSH1 0x2 EXP SUB SWAP1 SWAP3 AND PUSH1 0x20 SWAP3 DUP4 MUL SWAP1 SWAP2 ADD SWAP1 SWAP2 ADD MSTORE PUSH1 0x2 DUP2 ADD SLOAD DUP6 DUP4 DUP2 MLOAD DUP2 LT PUSH2 0xA38 JUMPI INVALID JUMPDEST PUSH1 0x20 SWAP1 DUP2 MUL SWAP1 SWAP2 ADD ADD MSTORE PUSH1 0x3 DUP2 ADD SLOAD DUP5 DUP4 DUP2 MLOAD DUP2 LT PUSH2 0xA53 JUMPI INVALID JUMPDEST PUSH1 0x20 SWAP1 DUP2 MUL SWAP1 SWAP2 ADD ADD MSTORE PUSH1 0x1 SWAP1 SWAP2 ADD SWAP1 PUSH2 0x9B5 JUMP JUMPDEST POP POP POP SWAP1 SWAP2 SWAP3 SWAP4 JUMP JUMPDEST PUSH2 0xA79 PUSH2 0xE5E JUMP JUMPDEST PUSH2 0xA81 PUSH2 0xE5E JUMP JUMPDEST PUSH1 0x1 PUSH1 0xA0 PUSH1 0x2 EXP SUB CALLER AND PUSH1 0x0 SWAP1 DUP2 MSTORE PUSH1 0x3 PUSH1 0x20 MSTORE PUSH1 0x40 DUP1 DUP3 KECCAK256 DUP1 SLOAD SWAP1 SWAP3 SWAP1 SWAP2 DUP2 SWAP1 DUP4 SWAP1 MLOAD DUP1 MSIZE LT PUSH2 0xAAF JUMPI POP MSIZE JUMPDEST SWAP1 DUP1 DUP3 MSTORE DUP1 PUSH1 0x20 MUL PUSH1 0x20 ADD DUP3 ADD PUSH1 0x40 MSTORE POP SWAP6 POP DUP3 PUSH1 0x40 MLOAD DUP1 MSIZE LT PUSH2 0xAD0 JUMPI POP MSIZE JUMPDEST SWAP1 DUP1 DUP3 MSTORE DUP1 PUSH1 0x20 MUL PUSH1 0x20 ADD DUP3 ADD PUSH1 0x40 MSTORE POP SWAP5 POP PUSH1 0x0 SWAP2 POP JUMPDEST DUP3 DUP3 LT ISZERO PUSH2 0xB4F JUMPI DUP4 DUP3 DUP2 SLOAD DUP2 LT ISZERO ISZERO PUSH2 0xAFE JUMPI INVALID JUMPDEST SWAP1 PUSH1 0x0 MSTORE PUSH1 0x20 PUSH1 0x0 KECCAK256 SWAP1 PUSH1 0x2 MUL ADD SWAP1 POP DUP1 PUSH1 0x0 ADD SLOAD DUP7 DUP4 DUP2 MLOAD DUP2 LT PUSH2 0xB1F JUMPI INVALID JUMPDEST PUSH1 0x20 SWAP1 DUP2 MUL SWAP1 SWAP2 ADD ADD MSTORE PUSH1 0x1 DUP2 ADD SLOAD DUP6 DUP4 DUP2 MLOAD DUP2 LT PUSH2 0xB3A JUMPI INVALID JUMPDEST PUSH1 0x20 SWAP1 DUP2 MUL SWAP1 SWAP2 ADD ADD MSTORE PUSH1 0x1 SWAP1 SWAP2 ADD SWAP1 PUSH2 0xAE8 JUMP JUMPDEST POP POP POP POP SWAP1 SWAP2 JUMP JUMPDEST PUSH1 0x1 SLOAD PUSH1 0x0 SWAP1 DUP2 SWAP1 DUP2 SWAP1 DUP2 SWAP1 PUSH1 0x1 PUSH1 0xA0 PUSH1 0x2 EXP SUB AND PUSH4 0xBE4F3B0B DUP3 PUSH1 0x40 MLOAD PUSH2 0x180 ADD MSTORE PUSH1 0x40 MLOAD DUP2 PUSH4 0xFFFFFFFF AND PUSH29 0x100000000000000000000000000000000000000000000000000000000 MUL DUP2 MSTORE PUSH1 0x4 ADD PUSH2 0x180 PUSH1 0x40 MLOAD DUP1 DUP4 SUB DUP2 PUSH1 0x0 DUP8 DUP1 EXTCODESIZE ISZERO ISZERO PUSH2 0xBC2 JUMPI PUSH1 0x0 DUP1 REVERT JUMPDEST PUSH2 0x2C6 GAS SUB CALL ISZERO ISZERO PUSH2 0xBD3 JUMPI PUSH1 0x0 DUP1 REVERT JUMPDEST POP POP POP PUSH1 0x40 MLOAD DUP1 MLOAD SWAP1 PUSH1 0x20 ADD DUP1 MLOAD SWAP1 PUSH1 0x20 ADD DUP1 MLOAD SWAP1 PUSH1 0x20 ADD DUP1 MLOAD SWAP1 PUSH1 0x20 ADD DUP1 MLOAD SWAP1 PUSH1 0x20 ADD DUP1 MLOAD SWAP1 PUSH1 0x20 ADD DUP1 MLOAD SWAP1 PUSH1 0x20 ADD DUP1 MLOAD SWAP1 PUSH1 0x20 ADD DUP1 MLOAD SWAP1 PUSH1 0x20 ADD DUP1 MLOAD SWAP1 PUSH1 0x20 ADD DUP1 MLOAD SWAP1 PUSH1 0x20 ADD DUP1 MLOAD SWAP1 POP POP POP POP SWAP11 POP POP POP POP POP POP POP POP POP DUP3 TIMESTAMP LT ISZERO ISZERO PUSH2 0xC3E JUMPI PUSH1 0x0 SWAP4 POP PUSH2 0xDBD JUMP JUMPDEST PUSH1 0x1 SLOAD PUSH1 0x1 PUSH1 0xA0 PUSH1 0x2 EXP SUB AND PUSH4 0xC19D93FB PUSH1 0x0 PUSH1 0x40 MLOAD PUSH2 0x160 ADD MSTORE PUSH1 0x40 MLOAD DUP2 PUSH4 0xFFFFFFFF AND PUSH29 0x100000000000000000000000000000000000000000000000000000000 MUL DUP2 MSTORE PUSH1 0x4 ADD PUSH2 0x160 PUSH1 0x40 MLOAD DUP1 DUP4 SUB DUP2 PUSH1 0x0 DUP8 DUP1 EXTCODESIZE ISZERO ISZERO PUSH2 0xCA1 JUMPI PUSH1 0x0 DUP1 REVERT JUMPDEST PUSH2 0x2C6 GAS SUB CALL ISZERO ISZERO PUSH2 0xCB2 JUMPI PUSH1 0x0 DUP1 REVERT JUMPDEST POP POP POP PUSH1 0x40 MLOAD DUP1 MLOAD SWAP1 PUSH1 0x20 ADD DUP1 MLOAD SWAP1 PUSH1 0x20 ADD DUP1 MLOAD SWAP1 PUSH1 0x20 ADD DUP1 MLOAD SWAP1 PUSH1 0x20 ADD DUP1 MLOAD SWAP1 PUSH1 0x20 ADD DUP1 MLOAD SWAP1 PUSH1 0x20 ADD DUP1 MLOAD SWAP1 PUSH1 0x20 ADD DUP1 MLOAD SWAP1 PUSH1 0x20 ADD DUP1 MLOAD SWAP1 PUSH1 0x20 ADD DUP1 MLOAD SWAP1 PUSH1 0x20 ADD DUP1 MLOAD SWAP1 POP POP POP SWAP10 POP POP POP POP POP POP POP POP POP DUP2 ISZERO PUSH2 0xD13 JUMPI PUSH1 0x0 SWAP4 POP PUSH2 0xDBD JUMP JUMPDEST PUSH1 0x1 SLOAD PUSH1 0x1 PUSH1 0xA0 PUSH1 0x2 EXP SUB AND PUSH4 0x9E69EDE CALLER PUSH1 0x0 PUSH1 0x40 MLOAD PUSH1 0x40 ADD MSTORE PUSH1 0x40 MLOAD PUSH29 0x100000000000000000000000000000000000000000000000000000000 PUSH4 0xFFFFFFFF DUP5 AND MUL DUP2 MSTORE PUSH1 0x1 PUSH1 0xA0 PUSH1 0x2 EXP SUB SWAP1 SWAP2 AND PUSH1 0x4 DUP3 ADD MSTORE PUSH1 0x24 ADD PUSH1 0x40 DUP1 MLOAD DUP1 DUP4 SUB DUP2 PUSH1 0x0 DUP8 DUP1 EXTCODESIZE ISZERO ISZERO PUSH2 0xD84 JUMPI PUSH1 0x0 DUP1 REVERT JUMPDEST PUSH2 0x2C6 GAS SUB CALL ISZERO ISZERO PUSH2 0xD95 JUMPI PUSH1 0x0 DUP1 REVERT JUMPDEST POP POP POP PUSH1 0x40 MLOAD DUP1 MLOAD SWAP1 PUSH1 0x20 ADD DUP1 MLOAD POP SWAP1 SWAP2 POP POP DUP1 ISZERO ISZERO PUSH2 0xDB8 JUMPI PUSH1 0x0 SWAP4 POP PUSH2 0xDBD JUMP JUMPDEST PUSH1 0x1 SWAP4 POP JUMPDEST POP POP POP SWAP1 JUMP JUMPDEST PUSH1 0x40 DUP1 MLOAD SWAP1 DUP2 ADD PUSH1 0x40 MSTORE PUSH1 0x0 DUP1 DUP3 MSTORE PUSH1 0x20 DUP3 ADD MSTORE SWAP1 JUMP JUMPDEST DUP2 SLOAD DUP2 DUP4 SSTORE DUP2 DUP2 ISZERO GT PUSH2 0xE06 JUMPI PUSH1 0x2 MUL DUP2 PUSH1 0x2 MUL DUP4 PUSH1 0x0 MSTORE PUSH1 0x20 PUSH1 0x0 KECCAK256 SWAP2 DUP3 ADD SWAP2 ADD PUSH2 0xE06 SWAP2 SWAP1 PUSH2 0xE70 JUMP JUMPDEST POP POP POP JUMP JUMPDEST PUSH1 0x80 PUSH1 0x40 MLOAD SWAP1 DUP2 ADD PUSH1 0x40 SWAP1 DUP2 MSTORE PUSH1 0x0 DUP1 DUP4 MSTORE PUSH1 0x20 DUP4 ADD DUP2 SWAP1 MSTORE SWAP1 DUP3 ADD DUP2 SWAP1 MSTORE PUSH1 0x60 DUP3 ADD MSTORE SWAP1 JUMP JUMPDEST DUP2 SLOAD DUP2 DUP4 SSTORE DUP2 DUP2 ISZERO GT PUSH2 0xE06 JUMPI PUSH1 0x4 MUL DUP2 PUSH1 0x4 MUL DUP4 PUSH1 0x0 MSTORE PUSH1 0x20 PUSH1 0x0 KECCAK256 SWAP2 DUP3 ADD SWAP2 ADD PUSH2 0xE06 SWAP2 SWAP1 PUSH2 0xE97 JUMP JUMPDEST PUSH1 0x20 PUSH1 0x40 MLOAD SWAP1 DUP2 ADD PUSH1 0x40 MSTORE PUSH1 0x0 DUP2 MSTORE SWAP1 JUMP JUMPDEST PUSH2 0xE94 SWAP2 SWAP1 JUMPDEST DUP1 DUP3 GT ISZERO PUSH2 0xE90 JUMPI PUSH1 0x0 DUP1 DUP3 SSTORE PUSH1 0x1 DUP3 ADD SSTORE PUSH1 0x2 ADD PUSH2 0xE76 JUMP JUMPDEST POP SWAP1 JUMP JUMPDEST SWAP1 JUMP JUMPDEST PUSH2 0xE94 SWAP2 SWAP1 JUMPDEST DUP1 DUP3 GT ISZERO PUSH2 0xE90 JUMPI PUSH1 0x0 DUP1 DUP3 SSTORE PUSH1 0x1 DUP3 ADD DUP1 SLOAD PUSH20 0xFFFFFFFFFFFFFFFFFFFFFFFFFFFFFFFFFFFFFFFF NOT AND SWAP1 SSTORE PUSH1 0x2 DUP3 ADD DUP2 SWAP1 SSTORE PUSH1 0x3 DUP3 ADD SSTORE PUSH1 0x4 ADD PUSH2 0xE9D JUMP STOP LOG1 PUSH6 0x627A7A723058 KECCAK256 0xe7 0xe7 0x22 0x1e PUSH25 0x52500D1956AD07BACF25E866308E4EC5C11085CE09042FE834 CALLER 0xd4 STOP 0x29 "
        }
    },
    "methods": {
        "voteIndex": [
            "_charityIndex",
            "_score"
        ],
        "status": [],
        "voteName": [
            "_charityName",
            "_score"
        ],
        "destroy": [],
        "charities": [],
        "votes": [],
        "hasRight": []
    }
}