{
    "abi": [
        {
            "constant": true,
            "inputs": [
                {
                    "name": "",
                    "type": "address"
                }
            ],
            "name": "participants",
            "outputs": [
                {
                    "name": "_message",
                    "type": "bytes32"
                },
                {
                    "name": "_entries",
                    "type": "uint256"
                }
            ],
            "payable": false,
            "stateMutability": "view",
            "type": "function"
        },
        {
            "constant": false,
            "inputs": [
                {
                    "name": "_message",
                    "type": "bytes32"
                }
            ],
            "name": "participate",
            "outputs": [],
            "payable": true,
            "stateMutability": "payable",
            "type": "function"
        },
        {
            "constant": true,
            "inputs": [],
            "name": "deployment",
            "outputs": [
                {
                    "name": "_cause",
                    "type": "address"
                },
                {
                    "name": "_causeSplit",
                    "type": "uint256"
                },
                {
                    "name": "_participantSplit",
                    "type": "uint256"
                },
                {
                    "name": "_owner",
                    "type": "address"
                },
                {
                    "name": "_ownerSplit",
                    "type": "uint256"
                },
                {
                    "name": "_ownerSecret",
                    "type": "bytes32"
                },
                {
                    "name": "_valuePerEntry",
                    "type": "uint256"
                },
                {
                    "name": "_deployTime",
                    "type": "uint256"
                },
                {
                    "name": "_endTime",
                    "type": "uint256"
                },
                {
                    "name": "_expireTime",
                    "type": "uint256"
                },
                {
                    "name": "_destructTime",
                    "type": "uint256"
                }
            ],
            "payable": false,
            "stateMutability": "view",
            "type": "function"
        },
        {
            "constant": false,
            "inputs": [],
            "name": "withdraw",
            "outputs": [],
            "payable": false,
            "stateMutability": "nonpayable",
            "type": "function"
        },
        {
            "constant": false,
            "inputs": [
                {
                    "name": "_message",
                    "type": "bytes32"
                }
            ],
            "name": "end",
            "outputs": [],
            "payable": false,
            "stateMutability": "nonpayable",
            "type": "function"
        },
        {
            "constant": false,
            "inputs": [
                {
                    "name": "_message",
                    "type": "bytes32"
                }
            ],
            "name": "reveal",
            "outputs": [],
            "payable": false,
            "stateMutability": "nonpayable",
            "type": "function"
        },
        {
            "constant": false,
            "inputs": [
                {
                    "name": "_secret",
                    "type": "bytes32"
                }
            ],
            "name": "begin",
            "outputs": [],
            "payable": false,
            "stateMutability": "nonpayable",
            "type": "function"
        },
        {
            "constant": true,
            "inputs": [
                {
                    "name": "",
                    "type": "uint256"
                }
            ],
            "name": "funds",
            "outputs": [
                {
                    "name": "_participant",
                    "type": "address"
                },
                {
                    "name": "_entries",
                    "type": "uint256"
                }
            ],
            "payable": false,
            "stateMutability": "view",
            "type": "function"
        },
        {
            "constant": false,
            "inputs": [],
            "name": "destroy",
            "outputs": [],
            "payable": false,
            "stateMutability": "nonpayable",
            "type": "function"
        },
        {
            "constant": true,
            "inputs": [],
            "name": "balance",
            "outputs": [
                {
                    "name": "",
                    "type": "uint256"
                }
            ],
            "payable": false,
            "stateMutability": "view",
            "type": "function"
        },
        {
            "constant": true,
            "inputs": [],
            "name": "state",
            "outputs": [
                {
                    "name": "_causeSecret",
                    "type": "bytes32"
                },
                {
                    "name": "_causeMessage",
                    "type": "bytes32"
                },
                {
                    "name": "_causeWithdrawn",
                    "type": "bool"
                },
                {
                    "name": "_participant",
                    "type": "address"
                },
                {
                    "name": "_participantMessage",
                    "type": "bytes32"
                },
                {
                    "name": "_participantWithdrawn",
                    "type": "bool"
                },
                {
                    "name": "_ownerMessage",
                    "type": "bytes32"
                },
                {
                    "name": "_ownerWithdrawn",
                    "type": "bool"
                },
                {
                    "name": "_cancelled",
                    "type": "bool"
                },
                {
                    "name": "_participants",
                    "type": "uint256"
                },
                {
                    "name": "_entries",
                    "type": "uint256"
                }
            ],
            "payable": false,
            "stateMutability": "view",
            "type": "function"
        },
        {
            "constant": false,
            "inputs": [],
            "name": "cancel",
            "outputs": [],
            "payable": false,
            "stateMutability": "nonpayable",
            "type": "function"
        },
        {
            "inputs": [
                {
                    "name": "_cause",
                    "type": "address"
                },
                {
                    "name": "_causeSplit",
                    "type": "uint256"
                },
                {
                    "name": "_participantSplit",
                    "type": "uint256"
                },
                {
                    "name": "_ownerSplit",
                    "type": "uint256"
                },
                {
                    "name": "_ownerSecret",
                    "type": "bytes32"
                },
                {
                    "name": "_valuePerEntry",
                    "type": "uint256"
                },
                {
                    "name": "_endTime",
                    "type": "uint256"
                },
                {
                    "name": "_expireTime",
                    "type": "uint256"
                },
                {
                    "name": "_destructTime",
                    "type": "uint256"
                }
            ],
            "payable": false,
            "stateMutability": "nonpayable",
            "type": "constructor"
        },
        {
            "payable": true,
            "stateMutability": "payable",
            "type": "fallback"
        },
        {
            "anonymous": false,
            "inputs": [
                {
                    "indexed": false,
                    "name": "_causeSecret",
                    "type": "bytes32"
                }
            ],
            "name": "Beginning",
            "type": "event"
        },
        {
            "anonymous": false,
            "inputs": [
                {
                    "indexed": false,
                    "name": "_participant",
                    "type": "address"
                },
                {
                    "indexed": false,
                    "name": "_message",
                    "type": "bytes32"
                },
                {
                    "indexed": false,
                    "name": "_entries",
                    "type": "uint256"
                },
                {
                    "indexed": false,
                    "name": "_refund",
                    "type": "uint256"
                }
            ],
            "name": "Participation",
            "type": "event"
        },
        {
            "anonymous": false,
            "inputs": [
                {
                    "indexed": false,
                    "name": "_participant",
                    "type": "address"
                },
                {
                    "indexed": false,
                    "name": "_entries",
                    "type": "uint256"
                },
                {
                    "indexed": false,
                    "name": "_refund",
                    "type": "uint256"
                }
            ],
            "name": "Raise",
            "type": "event"
        },
        {
            "anonymous": false,
            "inputs": [
                {
                    "indexed": false,
                    "name": "_causeMessage",
                    "type": "bytes32"
                }
            ],
            "name": "Revelation",
            "type": "event"
        },
        {
            "anonymous": false,
            "inputs": [
                {
                    "indexed": false,
                    "name": "_participant",
                    "type": "address"
                },
                {
                    "indexed": false,
                    "name": "_participantMessage",
                    "type": "bytes32"
                },
                {
                    "indexed": false,
                    "name": "_causeMessage",
                    "type": "bytes32"
                },
                {
                    "indexed": false,
                    "name": "_ownerMessage",
                    "type": "bytes32"
                }
            ],
            "name": "Selection",
            "type": "event"
        },
        {
            "anonymous": false,
            "inputs": [],
            "name": "Cancellation",
            "type": "event"
        },
        {
            "anonymous": false,
            "inputs": [
                {
                    "indexed": false,
                    "name": "_address",
                    "type": "address"
                }
            ],
            "name": "Withdrawal",
            "type": "event"
        }
    ],
    "evm": {
        "bytecode": {
            "linkReferences": {},
            "object": "6060604052341561000f57600080fd5b60405161012080611270833981016040528080519190602001805191906020018051919060200180519190602001805191906020018051919060200180519190602001805191906020018051915050600160a060020a038916151561007357600080fd5b87151561007f57600080fd5b86151561008b57600080fd5b6103e888880187011461009d57600080fd5b8415156100a957600080fd5b8315156100b557600080fd5b4283116100c157600080fd5b8282116100cd57600080fd5b8181116100d957600080fd5b610160604051908101604052808a600160a060020a0316815260200189815260200188815260200133600160a060020a0316815260200187815260200186600019168152602001858152602001428152602001848152602001838152602001828152506000808201518154600160a060020a031916600160a060020a039190911617815560208201518160010155604082015181600201556060820151600382018054600160a060020a031916600160a060020a03929092169190911790556080820151816004015560a0820151600582015560c0820151816006015560e0820151816007015561010082015181600801556101208201518160090155610140820151600a9091015550505050505050505050611075806101fb6000396000f3006060604052600436106100b95763ffffffff7c010000000000000000000000000000000000000000000000000000000060003504166309e69ede81146101bc5780630a14504c146101f35780632dde9aca146102005780633ccfd60b1461027b5780637015913c1461028e578063701fd0f1146102a457806375aa8705146102ba5780637b8e8895146102d057806383197ef014610308578063b69ef8a81461031b578063c19d93fb14610340578063ea8a1af0146103c1575b6008546000908190819042106100ce57600080fd5b60005433600160a060020a03908116911614156100ea57600080fd5b60035433600160a060020a039081169116141561010657600080fd5b601154610100900460ff161561011b57600080fd5b600d54151561012957600080fd5b600160a060020a0333166000908152600b602052604090208054909350151561015157600080fd5b61015a836103d4565b915091507f11df61431069ecb6bffb62f185491e4adc966b75b0648630ea30f60cfff8a9e53383836040518084600160a060020a0316600160a060020a03168152602001838152602001828152602001935050505060405180910390a1505050005b34156101c757600080fd5b6101db600160a060020a0360043516610558565b60405191825260208201526040908101905180910390f35b6101fe600435610571565b005b341561020b57600080fd5b61021361069d565b604051600160a060020a039b8c168152602081019a909a526040808b0199909952969099166060890152608088019490945260a087019290925260c086015260e085015261010084015261012083019390935261014082019290925261016001905180910390f35b341561028657600080fd5b6101fe6106d1565b341561029957600080fd5b6101fe600435610859565b34156102af57600080fd5b6101fe600435610a48565b34156102c557600080fd5b6101fe600435610af6565b34156102db57600080fd5b6102e6600435610b88565b604051600160a060020a03909216825260208201526040908101905180910390f35b341561031357600080fd5b6101fe610bbe565b341561032657600080fd5b61032e610bf4565b60405190815260200160405180910390f35b341561034b57600080fd5b610353610d2f565b6040519a8b5260208b01999099529615156040808b0191909152600160a060020a0390961660608a0152608089019490945291151560a088015260c0870152151560e08601521515610100850152610120840191909152610140830191909152610160909101905180910390f35b34156103cc57600080fd5b6101fe610d99565b6000806103df610fc2565b6103e7610fc2565b600654348115156103f457fe5b049350600184101561040557600080fd5b600185018054850190556013805485019055600c5415156104445760408051908101604052600160a060020a03331681526000602082015291506104ae565b600c8054600019810190811061045657fe5b90600052602060002090600202016040805190810160409081528254600160a060020a031682526001909201546020820152915080519081016040528033600160a060020a0316815260200185836020015101905291505b600c8054600181016104c08382610fd9565b600092835260209092208491600202018151815473ffffffffffffffffffffffffffffffffffffffff1916600160a060020a0391909116178155602082015160019091015550506006543481151561051457fe5b069250600083111561055157600160a060020a03331683156108fc0284604051600060405180830381858888f19350505050151561055157600080fd5b5050915091565b600b602052600090815260409020805460019091015482565b60085460009081908190421061058657600080fd5b60005433600160a060020a03908116911614156105a257600080fd5b60035433600160a060020a03908116911614156105be57600080fd5b601154610100900460ff16156105d357600080fd5b600d5415156105e157600080fd5b8315156105ed57600080fd5b600160a060020a0333166000908152600b6020526040902080549093501561061457600080fd5b60018301541561062357600080fd5b61062c836103d4565b85855560128054600101905590925090507f6f75810cfd16e411e8e12bc62c9265a590ce60215e3ccd143073b4e70213594533858484604051600160a060020a039094168452602084019290925260408084019190915260608301919091526080909101905180910390a150505050565b600054600154600254600354600454600554600654600754600854600954600a54600160a060020a039a8b169a909716968b565b6000806106dc610bf4565b9150600082116106eb57600080fd5b600f546101009004600160a060020a0316156107b55760005433600160a060020a039081169116141561072a57600f805460ff191660011790556107b0565b600f5433600160a060020a0390811661010090920416141561078257600f805475ff000000000000000000000000000000000000000000191675010000000000000000000000000000000000000000001790556107b0565b60035433600160a060020a03908116911614156107ab576011805460ff191660011790556107b0565b600080fd5b6107e7565b601154610100900460ff16156107ab5750600160a060020a0333166000908152600b6020526040812060018101919091555b600160a060020a03331682156108fc0283604051600060405180830381858888f19350505050151561081857600080fd5b7fe19ed71156e31b3c9e18ac7ad8d1b79f0a0feb3be18d23dae612e52040aada4b33604051600160a060020a03909116815260200160405180910390a15050565b6000806000610866610fc2565b600080610871610fc2565b6008544210801590610884575060095442105b151561088f57600080fd5b60035433600160a060020a039081169116146108aa57600080fd5b601154610100900460ff16156108bf57600080fd5b600e5415156108cd57600080fd5b601054156108da57600080fd5b6005546108e79089610e57565b15156108f257600080fd5b6010889055600e5460135490891897508781151561090c57fe5b06955061091886610e94565b600160a060020a0381166000908152600b60205260409081902091965080519081016040528154815260019091015460208201529350835160135490881893508381151561096257fe5b06915061096e82610e94565b600f805474ffffffffffffffffffffffffffffffffffffffff001916610100600160a060020a03938416810291909117918290559004166000908152600b602052604090819020908051908101604052815481526001909101546020820152600f549091507f7c195d9d8ca6f7aedfce85403a18bad6de0c1b5864a97fa635ae120b4eb4f8c3906101009004600160a060020a03168251600e548b604051600160a060020a039094168452602084019290925260408084019190915260608301919091526080909101905180910390a15050505050505050565b6008544210801590610a5b575060095442105b1515610a6657600080fd5b60005433600160a060020a03908116911614610a8157600080fd5b601154610100900460ff1615610a9657600080fd5b600e5415610aa357600080fd5b600d54610ab09082610e57565b1515610abb57600080fd5b600e8190557f83985f84fec43f6c4b0b122be29b8625fc89e54a2fb6ba2b76a2751c1c7874d98160405190815260200160405180910390a150565b6008544210610b0457600080fd5b60005433600160a060020a03908116911614610b1f57600080fd5b601154610100900460ff1615610b3457600080fd5b600d5415610b4157600080fd5b801515610b4d57600080fd5b600d8190557f451914e591226064706dfee5bbea9f69833323aa4ef98870f5ec98f5e3fdde968160405190815260200160405180910390a150565b600c805482908110610b9657fe5b600091825260209091206002909102018054600190910154600160a060020a03909116915082565b600a54421015610bcd57600080fd5b60035433600160a060020a03908116911614610be857600080fd5b33600160a060020a0316ff5b600f54600090819081906101009004600160a060020a031615610cec5760005433600160a060020a0390811691161415610c4657600f5460ff1615610c3c5760009250610d2a565b6001549150610cd7565b600f5433600160a060020a03908116610100909204161415610c9957600f547501000000000000000000000000000000000000000000900460ff1615610c8f5760009250610d2a565b6002549150610cd7565b60035433600160a060020a0390811691161415610cce5760115460ff1615610cc45760009250610d2a565b6004549150610cd7565b60009250610d2a565b6006546013546103e891028302049250610d2a565b601154610100900460ff1615610d255750600160a060020a0333166000908152600b602052604090206006546001820154029250610d2a565b600092505b505090565b600d54600e54600f54610100808204600160a060020a03166000818152600b60205260409020546010546011546012546013549899979860ff8089169996989597750100000000000000000000000000000000000000000090960481169694958185169594041692565b601154610100900460ff1615610dae57600080fd5b600f546101009004600160a060020a031615610dc957600080fd5b60035433600160a060020a03908116911614801590610df7575060005433600160a060020a03908116911614155b15610e1a576009544210801590610e0f5750600a5442105b1515610e1a57600080fd5b6011805461ff0019166101001790557f4a19036f5b4d75256c1c24150a8254bd3c2bdb1eaeeec4523e927f0ab1cdd05460405160405180910390a1565b60008133604051918252600160a060020a03166c010000000000000000000000000260208201526034016040519081900390208314905092915050565b6000806000806000610ea4610fc2565b610eac610fc2565b600c54600094506000190192505b82841415610ef157600c805485908110610ed057fe5b6000918252602090912060029091020154600160a060020a03169650610fb7565b600c80546002868603048601975060018801965087908110610f0f57fe5b9060005260206000209060020201604080519081016040528154600160a060020a031681526001909101546020820152600c80549193509086908110610f5157fe5b9060005260206000209060020201604080519081016040528154600160a060020a031681526001909101546020808301919091529091508201518810610fae578060200151881015610fa65781519650610fb7565b849350610fb2565b8592505b610eba565b505050505050919050565b604080519081016040526000808252602082015290565b81548183558181151161100557600202816002028360005260206000209182019101611005919061100a565b505050565b61104691905b8082111561104257805473ffffffffffffffffffffffffffffffffffffffff1916815560006001820155600201611010565b5090565b905600a165627a7a72305820d7d687ee5fcc6282ca3ad275a58a202978bd32db51065baf3d22cd485922fc460029",
            "opcodes": "PUSH1 0x60 PUSH1 0x40 MSTORE CALLVALUE ISZERO PUSH2 0xF JUMPI PUSH1 0x0 DUP1 REVERT JUMPDEST PUSH1 0x40 MLOAD PUSH2 0x120 DUP1 PUSH2 0x1270 DUP4 CODECOPY DUP2 ADD PUSH1 0x40 MSTORE DUP1 DUP1 MLOAD SWAP2 SWAP1 PUSH1 0x20 ADD DUP1 MLOAD SWAP2 SWAP1 PUSH1 0x20 ADD DUP1 MLOAD SWAP2 SWAP1 PUSH1 0x20 ADD DUP1 MLOAD SWAP2 SWAP1 PUSH1 0x20 ADD DUP1 MLOAD SWAP2 SWAP1 PUSH1 0x20 ADD DUP1 MLOAD SWAP2 SWAP1 PUSH1 0x20 ADD DUP1 MLOAD SWAP2 SWAP1 PUSH1 0x20 ADD DUP1 MLOAD SWAP2 SWAP1 PUSH1 0x20 ADD DUP1 MLOAD SWAP2 POP POP PUSH1 0x1 PUSH1 0xA0 PUSH1 0x2 EXP SUB DUP10 AND ISZERO ISZERO PUSH2 0x73 JUMPI PUSH1 0x0 DUP1 REVERT JUMPDEST DUP8 ISZERO ISZERO PUSH2 0x7F JUMPI PUSH1 0x0 DUP1 REVERT JUMPDEST DUP7 ISZERO ISZERO PUSH2 0x8B JUMPI PUSH1 0x0 DUP1 REVERT JUMPDEST PUSH2 0x3E8 DUP9 DUP9 ADD DUP8 ADD EQ PUSH2 0x9D JUMPI PUSH1 0x0 DUP1 REVERT JUMPDEST DUP5 ISZERO ISZERO PUSH2 0xA9 JUMPI PUSH1 0x0 DUP1 REVERT JUMPDEST DUP4 ISZERO ISZERO PUSH2 0xB5 JUMPI PUSH1 0x0 DUP1 REVERT JUMPDEST TIMESTAMP DUP4 GT PUSH2 0xC1 JUMPI PUSH1 0x0 DUP1 REVERT JUMPDEST DUP3 DUP3 GT PUSH2 0xCD JUMPI PUSH1 0x0 DUP1 REVERT JUMPDEST DUP2 DUP2 GT PUSH2 0xD9 JUMPI PUSH1 0x0 DUP1 REVERT JUMPDEST PUSH2 0x160 PUSH1 0x40 MLOAD SWAP1 DUP2 ADD PUSH1 0x40 MSTORE DUP1 DUP11 PUSH1 0x1 PUSH1 0xA0 PUSH1 0x2 EXP SUB AND DUP2 MSTORE PUSH1 0x20 ADD DUP10 DUP2 MSTORE PUSH1 0x20 ADD DUP9 DUP2 MSTORE PUSH1 0x20 ADD CALLER PUSH1 0x1 PUSH1 0xA0 PUSH1 0x2 EXP SUB AND DUP2 MSTORE PUSH1 0x20 ADD DUP8 DUP2 MSTORE PUSH1 0x20 ADD DUP7 PUSH1 0x0 NOT AND DUP2 MSTORE PUSH1 0x20 ADD DUP6 DUP2 MSTORE PUSH1 0x20 ADD TIMESTAMP DUP2 MSTORE PUSH1 0x20 ADD DUP5 DUP2 MSTORE PUSH1 0x20 ADD DUP4 DUP2 MSTORE PUSH1 0x20 ADD DUP3 DUP2 MSTORE POP PUSH1 0x0 DUP1 DUP3 ADD MLOAD DUP2 SLOAD PUSH1 0x1 PUSH1 0xA0 PUSH1 0x2 EXP SUB NOT AND PUSH1 0x1 PUSH1 0xA0 PUSH1 0x2 EXP SUB SWAP2 SWAP1 SWAP2 AND OR DUP2 SSTORE PUSH1 0x20 DUP3 ADD MLOAD DUP2 PUSH1 0x1 ADD SSTORE PUSH1 0x40 DUP3 ADD MLOAD DUP2 PUSH1 0x2 ADD SSTORE PUSH1 0x60 DUP3 ADD MLOAD PUSH1 0x3 DUP3 ADD DUP1 SLOAD PUSH1 0x1 PUSH1 0xA0 PUSH1 0x2 EXP SUB NOT AND PUSH1 0x1 PUSH1 0xA0 PUSH1 0x2 EXP SUB SWAP3 SWAP1 SWAP3 AND SWAP2 SWAP1 SWAP2 OR SWAP1 SSTORE PUSH1 0x80 DUP3 ADD MLOAD DUP2 PUSH1 0x4 ADD SSTORE PUSH1 0xA0 DUP3 ADD MLOAD PUSH1 0x5 DUP3 ADD SSTORE PUSH1 0xC0 DUP3 ADD MLOAD DUP2 PUSH1 0x6 ADD SSTORE PUSH1 0xE0 DUP3 ADD MLOAD DUP2 PUSH1 0x7 ADD SSTORE PUSH2 0x100 DUP3 ADD MLOAD DUP2 PUSH1 0x8 ADD SSTORE PUSH2 0x120 DUP3 ADD MLOAD DUP2 PUSH1 0x9 ADD SSTORE PUSH2 0x140 DUP3 ADD MLOAD PUSH1 0xA SWAP1 SWAP2 ADD SSTORE POP POP POP POP POP POP POP POP POP POP PUSH2 0x1075 DUP1 PUSH2 0x1FB PUSH1 0x0 CODECOPY PUSH1 0x0 RETURN STOP PUSH1 0x60 PUSH1 0x40 MSTORE PUSH1 0x4 CALLDATASIZE LT PUSH2 0xB9 JUMPI PUSH4 0xFFFFFFFF PUSH29 0x100000000000000000000000000000000000000000000000000000000 PUSH1 0x0 CALLDATALOAD DIV AND PUSH4 0x9E69EDE DUP2 EQ PUSH2 0x1BC JUMPI DUP1 PUSH4 0xA14504C EQ PUSH2 0x1F3 JUMPI DUP1 PUSH4 0x2DDE9ACA EQ PUSH2 0x200 JUMPI DUP1 PUSH4 0x3CCFD60B EQ PUSH2 0x27B JUMPI DUP1 PUSH4 0x7015913C EQ PUSH2 0x28E JUMPI DUP1 PUSH4 0x701FD0F1 EQ PUSH2 0x2A4 JUMPI DUP1 PUSH4 0x75AA8705 EQ PUSH2 0x2BA JUMPI DUP1 PUSH4 0x7B8E8895 EQ PUSH2 0x2D0 JUMPI DUP1 PUSH4 0x83197EF0 EQ PUSH2 0x308 JUMPI DUP1 PUSH4 0xB69EF8A8 EQ PUSH2 0x31B JUMPI DUP1 PUSH4 0xC19D93FB EQ PUSH2 0x340 JUMPI DUP1 PUSH4 0xEA8A1AF0 EQ PUSH2 0x3C1 JUMPI JUMPDEST PUSH1 0x8 SLOAD PUSH1 0x0 SWAP1 DUP2 SWAP1 DUP2 SWAP1 TIMESTAMP LT PUSH2 0xCE JUMPI PUSH1 0x0 DUP1 REVERT JUMPDEST PUSH1 0x0 SLOAD CALLER PUSH1 0x1 PUSH1 0xA0 PUSH1 0x2 EXP SUB SWAP1 DUP2 AND SWAP2 AND EQ ISZERO PUSH2 0xEA JUMPI PUSH1 0x0 DUP1 REVERT JUMPDEST PUSH1 0x3 SLOAD CALLER PUSH1 0x1 PUSH1 0xA0 PUSH1 0x2 EXP SUB SWAP1 DUP2 AND SWAP2 AND EQ ISZERO PUSH2 0x106 JUMPI PUSH1 0x0 DUP1 REVERT JUMPDEST PUSH1 0x11 SLOAD PUSH2 0x100 SWAP1 DIV PUSH1 0xFF AND ISZERO PUSH2 0x11B JUMPI PUSH1 0x0 DUP1 REVERT JUMPDEST PUSH1 0xD SLOAD ISZERO ISZERO PUSH2 0x129 JUMPI PUSH1 0x0 DUP1 REVERT JUMPDEST PUSH1 0x1 PUSH1 0xA0 PUSH1 0x2 EXP SUB CALLER AND PUSH1 0x0 SWAP1 DUP2 MSTORE PUSH1 0xB PUSH1 0x20 MSTORE PUSH1 0x40 SWAP1 KECCAK256 DUP1 SLOAD SWAP1 SWAP4 POP ISZERO ISZERO PUSH2 0x151 JUMPI PUSH1 0x0 DUP1 REVERT JUMPDEST PUSH2 0x15A DUP4 PUSH2 0x3D4 JUMP JUMPDEST SWAP2 POP SWAP2 POP PUSH32 0x11DF61431069ECB6BFFB62F185491E4ADC966B75B0648630EA30F60CFFF8A9E5 CALLER DUP4 DUP4 PUSH1 0x40 MLOAD DUP1 DUP5 PUSH1 0x1 PUSH1 0xA0 PUSH1 0x2 EXP SUB AND PUSH1 0x1 PUSH1 0xA0 PUSH1 0x2 EXP SUB AND DUP2 MSTORE PUSH1 0x20 ADD DUP4 DUP2 MSTORE PUSH1 0x20 ADD DUP3 DUP2 MSTORE PUSH1 0x20 ADD SWAP4 POP POP POP POP PUSH1 0x40 MLOAD DUP1 SWAP2 SUB SWAP1 LOG1 POP POP POP STOP JUMPDEST CALLVALUE ISZERO PUSH2 0x1C7 JUMPI PUSH1 0x0 DUP1 REVERT JUMPDEST PUSH2 0x1DB PUSH1 0x1 PUSH1 0xA0 PUSH1 0x2 EXP SUB PUSH1 0x4 CALLDATALOAD AND PUSH2 0x558 JUMP JUMPDEST PUSH1 0x40 MLOAD SWAP2 DUP3 MSTORE PUSH1 0x20 DUP3 ADD MSTORE PUSH1 0x40 SWAP1 DUP2 ADD SWAP1 MLOAD DUP1 SWAP2 SUB SWAP1 RETURN JUMPDEST PUSH2 0x1FE PUSH1 0x4 CALLDATALOAD PUSH2 0x571 JUMP JUMPDEST STOP JUMPDEST CALLVALUE ISZERO PUSH2 0x20B JUMPI PUSH1 0x0 DUP1 REVERT JUMPDEST PUSH2 0x213 PUSH2 0x69D JUMP JUMPDEST PUSH1 0x40 MLOAD PUSH1 0x1 PUSH1 0xA0 PUSH1 0x2 EXP SUB SWAP12 DUP13 AND DUP2 MSTORE PUSH1 0x20 DUP2 ADD SWAP11 SWAP1 SWAP11 MSTORE PUSH1 0x40 DUP1 DUP12 ADD SWAP10 SWAP1 SWAP10 MSTORE SWAP7 SWAP1 SWAP10 AND PUSH1 0x60 DUP10 ADD MSTORE PUSH1 0x80 DUP9 ADD SWAP5 SWAP1 SWAP5 MSTORE PUSH1 0xA0 DUP8 ADD SWAP3 SWAP1 SWAP3 MSTORE PUSH1 0xC0 DUP7 ADD MSTORE PUSH1 0xE0 DUP6 ADD MSTORE PUSH2 0x100 DUP5 ADD MSTORE PUSH2 0x120 DUP4 ADD SWAP4 SWAP1 SWAP4 MSTORE PUSH2 0x140 DUP3 ADD SWAP3 SWAP1 SWAP3 MSTORE PUSH2 0x160 ADD SWAP1 MLOAD DUP1 SWAP2 SUB SWAP1 RETURN JUMPDEST CALLVALUE ISZERO PUSH2 0x286 JUMPI PUSH1 0x0 DUP1 REVERT JUMPDEST PUSH2 0x1FE PUSH2 0x6D1 JUMP JUMPDEST CALLVALUE ISZERO PUSH2 0x299 JUMPI PUSH1 0x0 DUP1 REVERT JUMPDEST PUSH2 0x1FE PUSH1 0x4 CALLDATALOAD PUSH2 0x859 JUMP JUMPDEST CALLVALUE ISZERO PUSH2 0x2AF JUMPI PUSH1 0x0 DUP1 REVERT JUMPDEST PUSH2 0x1FE PUSH1 0x4 CALLDATALOAD PUSH2 0xA48 JUMP JUMPDEST CALLVALUE ISZERO PUSH2 0x2C5 JUMPI PUSH1 0x0 DUP1 REVERT JUMPDEST PUSH2 0x1FE PUSH1 0x4 CALLDATALOAD PUSH2 0xAF6 JUMP JUMPDEST CALLVALUE ISZERO PUSH2 0x2DB JUMPI PUSH1 0x0 DUP1 REVERT JUMPDEST PUSH2 0x2E6 PUSH1 0x4 CALLDATALOAD PUSH2 0xB88 JUMP JUMPDEST PUSH1 0x40 MLOAD PUSH1 0x1 PUSH1 0xA0 PUSH1 0x2 EXP SUB SWAP1 SWAP3 AND DUP3 MSTORE PUSH1 0x20 DUP3 ADD MSTORE PUSH1 0x40 SWAP1 DUP2 ADD SWAP1 MLOAD DUP1 SWAP2 SUB SWAP1 RETURN JUMPDEST CALLVALUE ISZERO PUSH2 0x313 JUMPI PUSH1 0x0 DUP1 REVERT JUMPDEST PUSH2 0x1FE PUSH2 0xBBE JUMP JUMPDEST CALLVALUE ISZERO PUSH2 0x326 JUMPI PUSH1 0x0 DUP1 REVERT JUMPDEST PUSH2 0x32E PUSH2 0xBF4 JUMP JUMPDEST PUSH1 0x40 MLOAD SWAP1 DUP2 MSTORE PUSH1 0x20 ADD PUSH1 0x40 MLOAD DUP1 SWAP2 SUB SWAP1 RETURN JUMPDEST CALLVALUE ISZERO PUSH2 0x34B JUMPI PUSH1 0x0 DUP1 REVERT JUMPDEST PUSH2 0x353 PUSH2 0xD2F JUMP JUMPDEST PUSH1 0x40 MLOAD SWAP11 DUP12 MSTORE PUSH1 0x20 DUP12 ADD SWAP10 SWAP1 SWAP10 MSTORE SWAP7 ISZERO ISZERO PUSH1 0x40 DUP1 DUP12 ADD SWAP2 SWAP1 SWAP2 MSTORE PUSH1 0x1 PUSH1 0xA0 PUSH1 0x2 EXP SUB SWAP1 SWAP7 AND PUSH1 0x60 DUP11 ADD MSTORE PUSH1 0x80 DUP10 ADD SWAP5 SWAP1 SWAP5 MSTORE SWAP2 ISZERO ISZERO PUSH1 0xA0 DUP9 ADD MSTORE PUSH1 0xC0 DUP8 ADD MSTORE ISZERO ISZERO PUSH1 0xE0 DUP7 ADD MSTORE ISZERO ISZERO PUSH2 0x100 DUP6 ADD MSTORE PUSH2 0x120 DUP5 ADD SWAP2 SWAP1 SWAP2 MSTORE PUSH2 0x140 DUP4 ADD SWAP2 SWAP1 SWAP2 MSTORE PUSH2 0x160 SWAP1 SWAP2 ADD SWAP1 MLOAD DUP1 SWAP2 SUB SWAP1 RETURN JUMPDEST CALLVALUE ISZERO PUSH2 0x3CC JUMPI PUSH1 0x0 DUP1 REVERT JUMPDEST PUSH2 0x1FE PUSH2 0xD99 JUMP JUMPDEST PUSH1 0x0 DUP1 PUSH2 0x3DF PUSH2 0xFC2 JUMP JUMPDEST PUSH2 0x3E7 PUSH2 0xFC2 JUMP JUMPDEST PUSH1 0x6 SLOAD CALLVALUE DUP2 ISZERO ISZERO PUSH2 0x3F4 JUMPI INVALID JUMPDEST DIV SWAP4 POP PUSH1 0x1 DUP5 LT ISZERO PUSH2 0x405 JUMPI PUSH1 0x0 DUP1 REVERT JUMPDEST PUSH1 0x1 DUP6 ADD DUP1 SLOAD DUP6 ADD SWAP1 SSTORE PUSH1 0x13 DUP1 SLOAD DUP6 ADD SWAP1 SSTORE PUSH1 0xC SLOAD ISZERO ISZERO PUSH2 0x444 JUMPI PUSH1 0x40 DUP1 MLOAD SWAP1 DUP2 ADD PUSH1 0x40 MSTORE PUSH1 0x1 PUSH1 0xA0 PUSH1 0x2 EXP SUB CALLER AND DUP2 MSTORE PUSH1 0x0 PUSH1 0x20 DUP3 ADD MSTORE SWAP2 POP PUSH2 0x4AE JUMP JUMPDEST PUSH1 0xC DUP1 SLOAD PUSH1 0x0 NOT DUP2 ADD SWAP1 DUP2 LT PUSH2 0x456 JUMPI INVALID JUMPDEST SWAP1 PUSH1 0x0 MSTORE PUSH1 0x20 PUSH1 0x0 KECCAK256 SWAP1 PUSH1 0x2 MUL ADD PUSH1 0x40 DUP1 MLOAD SWAP1 DUP2 ADD PUSH1 0x40 SWAP1 DUP2 MSTORE DUP3 SLOAD PUSH1 0x1 PUSH1 0xA0 PUSH1 0x2 EXP SUB AND DUP3 MSTORE PUSH1 0x1 SWAP1 SWAP3 ADD SLOAD PUSH1 0x20 DUP3 ADD MSTORE SWAP2 POP DUP1 MLOAD SWAP1 DUP2 ADD PUSH1 0x40 MSTORE DUP1 CALLER PUSH1 0x1 PUSH1 0xA0 PUSH1 0x2 EXP SUB AND DUP2 MSTORE PUSH1 0x20 ADD DUP6 DUP4 PUSH1 0x20 ADD MLOAD ADD SWAP1 MSTORE SWAP2 POP JUMPDEST PUSH1 0xC DUP1 SLOAD PUSH1 0x1 DUP2 ADD PUSH2 0x4C0 DUP4 DUP3 PUSH2 0xFD9 JUMP JUMPDEST PUSH1 0x0 SWAP3 DUP4 MSTORE PUSH1 0x20 SWAP1 SWAP3 KECCAK256 DUP5 SWAP2 PUSH1 0x2 MUL ADD DUP2 MLOAD DUP2 SLOAD PUSH20 0xFFFFFFFFFFFFFFFFFFFFFFFFFFFFFFFFFFFFFFFF NOT AND PUSH1 0x1 PUSH1 0xA0 PUSH1 0x2 EXP SUB SWAP2 SWAP1 SWAP2 AND OR DUP2 SSTORE PUSH1 0x20 DUP3 ADD MLOAD PUSH1 0x1 SWAP1 SWAP2 ADD SSTORE POP POP PUSH1 0x6 SLOAD CALLVALUE DUP2 ISZERO ISZERO PUSH2 0x514 JUMPI INVALID JUMPDEST MOD SWAP3 POP PUSH1 0x0 DUP4 GT ISZERO PUSH2 0x551 JUMPI PUSH1 0x1 PUSH1 0xA0 PUSH1 0x2 EXP SUB CALLER AND DUP4 ISZERO PUSH2 0x8FC MUL DUP5 PUSH1 0x40 MLOAD PUSH1 0x0 PUSH1 0x40 MLOAD DUP1 DUP4 SUB DUP2 DUP6 DUP9 DUP9 CALL SWAP4 POP POP POP POP ISZERO ISZERO PUSH2 0x551 JUMPI PUSH1 0x0 DUP1 REVERT JUMPDEST POP POP SWAP2 POP SWAP2 JUMP JUMPDEST PUSH1 0xB PUSH1 0x20 MSTORE PUSH1 0x0 SWAP1 DUP2 MSTORE PUSH1 0x40 SWAP1 KECCAK256 DUP1 SLOAD PUSH1 0x1 SWAP1 SWAP2 ADD SLOAD DUP3 JUMP JUMPDEST PUSH1 0x8 SLOAD PUSH1 0x0 SWAP1 DUP2 SWAP1 DUP2 SWAP1 TIMESTAMP LT PUSH2 0x586 JUMPI PUSH1 0x0 DUP1 REVERT JUMPDEST PUSH1 0x0 SLOAD CALLER PUSH1 0x1 PUSH1 0xA0 PUSH1 0x2 EXP SUB SWAP1 DUP2 AND SWAP2 AND EQ ISZERO PUSH2 0x5A2 JUMPI PUSH1 0x0 DUP1 REVERT JUMPDEST PUSH1 0x3 SLOAD CALLER PUSH1 0x1 PUSH1 0xA0 PUSH1 0x2 EXP SUB SWAP1 DUP2 AND SWAP2 AND EQ ISZERO PUSH2 0x5BE JUMPI PUSH1 0x0 DUP1 REVERT JUMPDEST PUSH1 0x11 SLOAD PUSH2 0x100 SWAP1 DIV PUSH1 0xFF AND ISZERO PUSH2 0x5D3 JUMPI PUSH1 0x0 DUP1 REVERT JUMPDEST PUSH1 0xD SLOAD ISZERO ISZERO PUSH2 0x5E1 JUMPI PUSH1 0x0 DUP1 REVERT JUMPDEST DUP4 ISZERO ISZERO PUSH2 0x5ED JUMPI PUSH1 0x0 DUP1 REVERT JUMPDEST PUSH1 0x1 PUSH1 0xA0 PUSH1 0x2 EXP SUB CALLER AND PUSH1 0x0 SWAP1 DUP2 MSTORE PUSH1 0xB PUSH1 0x20 MSTORE PUSH1 0x40 SWAP1 KECCAK256 DUP1 SLOAD SWAP1 SWAP4 POP ISZERO PUSH2 0x614 JUMPI PUSH1 0x0 DUP1 REVERT JUMPDEST PUSH1 0x1 DUP4 ADD SLOAD ISZERO PUSH2 0x623 JUMPI PUSH1 0x0 DUP1 REVERT JUMPDEST PUSH2 0x62C DUP4 PUSH2 0x3D4 JUMP JUMPDEST DUP6 DUP6 SSTORE PUSH1 0x12 DUP1 SLOAD PUSH1 0x1 ADD SWAP1 SSTORE SWAP1 SWAP3 POP SWAP1 POP PUSH32 0x6F75810CFD16E411E8E12BC62C9265A590CE60215E3CCD143073B4E702135945 CALLER DUP6 DUP5 DUP5 PUSH1 0x40 MLOAD PUSH1 0x1 PUSH1 0xA0 PUSH1 0x2 EXP SUB SWAP1 SWAP5 AND DUP5 MSTORE PUSH1 0x20 DUP5 ADD SWAP3 SWAP1 SWAP3 MSTORE PUSH1 0x40 DUP1 DUP5 ADD SWAP2 SWAP1 SWAP2 MSTORE PUSH1 0x60 DUP4 ADD SWAP2 SWAP1 SWAP2 MSTORE PUSH1 0x80 SWAP1 SWAP2 ADD SWAP1 MLOAD DUP1 SWAP2 SUB SWAP1 LOG1 POP POP POP POP JUMP JUMPDEST PUSH1 0x0 SLOAD PUSH1 0x1 SLOAD PUSH1 0x2 SLOAD PUSH1 0x3 SLOAD PUSH1 0x4 SLOAD PUSH1 0x5 SLOAD PUSH1 0x6 SLOAD PUSH1 0x7 SLOAD PUSH1 0x8 SLOAD PUSH1 0x9 SLOAD PUSH1 0xA SLOAD PUSH1 0x1 PUSH1 0xA0 PUSH1 0x2 EXP SUB SWAP11 DUP12 AND SWAP11 SWAP1 SWAP8 AND SWAP7 DUP12 JUMP JUMPDEST PUSH1 0x0 DUP1 PUSH2 0x6DC PUSH2 0xBF4 JUMP JUMPDEST SWAP2 POP PUSH1 0x0 DUP3 GT PUSH2 0x6EB JUMPI PUSH1 0x0 DUP1 REVERT JUMPDEST PUSH1 0xF SLOAD PUSH2 0x100 SWAP1 DIV PUSH1 0x1 PUSH1 0xA0 PUSH1 0x2 EXP SUB AND ISZERO PUSH2 0x7B5 JUMPI PUSH1 0x0 SLOAD CALLER PUSH1 0x1 PUSH1 0xA0 PUSH1 0x2 EXP SUB SWAP1 DUP2 AND SWAP2 AND EQ ISZERO PUSH2 0x72A JUMPI PUSH1 0xF DUP1 SLOAD PUSH1 0xFF NOT AND PUSH1 0x1 OR SWAP1 SSTORE PUSH2 0x7B0 JUMP JUMPDEST PUSH1 0xF SLOAD CALLER PUSH1 0x1 PUSH1 0xA0 PUSH1 0x2 EXP SUB SWAP1 DUP2 AND PUSH2 0x100 SWAP1 SWAP3 DIV AND EQ ISZERO PUSH2 0x782 JUMPI PUSH1 0xF DUP1 SLOAD PUSH22 0xFF000000000000000000000000000000000000000000 NOT AND PUSH22 0x1000000000000000000000000000000000000000000 OR SWAP1 SSTORE PUSH2 0x7B0 JUMP JUMPDEST PUSH1 0x3 SLOAD CALLER PUSH1 0x1 PUSH1 0xA0 PUSH1 0x2 EXP SUB SWAP1 DUP2 AND SWAP2 AND EQ ISZERO PUSH2 0x7AB JUMPI PUSH1 0x11 DUP1 SLOAD PUSH1 0xFF NOT AND PUSH1 0x1 OR SWAP1 SSTORE PUSH2 0x7B0 JUMP JUMPDEST PUSH1 0x0 DUP1 REVERT JUMPDEST PUSH2 0x7E7 JUMP JUMPDEST PUSH1 0x11 SLOAD PUSH2 0x100 SWAP1 DIV PUSH1 0xFF AND ISZERO PUSH2 0x7AB JUMPI POP PUSH1 0x1 PUSH1 0xA0 PUSH1 0x2 EXP SUB CALLER AND PUSH1 0x0 SWAP1 DUP2 MSTORE PUSH1 0xB PUSH1 0x20 MSTORE PUSH1 0x40 DUP2 KECCAK256 PUSH1 0x1 DUP2 ADD SWAP2 SWAP1 SWAP2 SSTORE JUMPDEST PUSH1 0x1 PUSH1 0xA0 PUSH1 0x2 EXP SUB CALLER AND DUP3 ISZERO PUSH2 0x8FC MUL DUP4 PUSH1 0x40 MLOAD PUSH1 0x0 PUSH1 0x40 MLOAD DUP1 DUP4 SUB DUP2 DUP6 DUP9 DUP9 CALL SWAP4 POP POP POP POP ISZERO ISZERO PUSH2 0x818 JUMPI PUSH1 0x0 DUP1 REVERT JUMPDEST PUSH32 0xE19ED71156E31B3C9E18AC7AD8D1B79F0A0FEB3BE18D23DAE612E52040AADA4B CALLER PUSH1 0x40 MLOAD PUSH1 0x1 PUSH1 0xA0 PUSH1 0x2 EXP SUB SWAP1 SWAP2 AND DUP2 MSTORE PUSH1 0x20 ADD PUSH1 0x40 MLOAD DUP1 SWAP2 SUB SWAP1 LOG1 POP POP JUMP JUMPDEST PUSH1 0x0 DUP1 PUSH1 0x0 PUSH2 0x866 PUSH2 0xFC2 JUMP JUMPDEST PUSH1 0x0 DUP1 PUSH2 0x871 PUSH2 0xFC2 JUMP JUMPDEST PUSH1 0x8 SLOAD TIMESTAMP LT DUP1 ISZERO SWAP1 PUSH2 0x884 JUMPI POP PUSH1 0x9 SLOAD TIMESTAMP LT JUMPDEST ISZERO ISZERO PUSH2 0x88F JUMPI PUSH1 0x0 DUP1 REVERT JUMPDEST PUSH1 0x3 SLOAD CALLER PUSH1 0x1 PUSH1 0xA0 PUSH1 0x2 EXP SUB SWAP1 DUP2 AND SWAP2 AND EQ PUSH2 0x8AA JUMPI PUSH1 0x0 DUP1 REVERT JUMPDEST PUSH1 0x11 SLOAD PUSH2 0x100 SWAP1 DIV PUSH1 0xFF AND ISZERO PUSH2 0x8BF JUMPI PUSH1 0x0 DUP1 REVERT JUMPDEST PUSH1 0xE SLOAD ISZERO ISZERO PUSH2 0x8CD JUMPI PUSH1 0x0 DUP1 REVERT JUMPDEST PUSH1 0x10 SLOAD ISZERO PUSH2 0x8DA JUMPI PUSH1 0x0 DUP1 REVERT JUMPDEST PUSH1 0x5 SLOAD PUSH2 0x8E7 SWAP1 DUP10 PUSH2 0xE57 JUMP JUMPDEST ISZERO ISZERO PUSH2 0x8F2 JUMPI PUSH1 0x0 DUP1 REVERT JUMPDEST PUSH1 0x10 DUP9 SWAP1 SSTORE PUSH1 0xE SLOAD PUSH1 0x13 SLOAD SWAP1 DUP10 XOR SWAP8 POP DUP8 DUP2 ISZERO ISZERO PUSH2 0x90C JUMPI INVALID JUMPDEST MOD SWAP6 POP PUSH2 0x918 DUP7 PUSH2 0xE94 JUMP JUMPDEST PUSH1 0x1 PUSH1 0xA0 PUSH1 0x2 EXP SUB DUP2 AND PUSH1 0x0 SWAP1 DUP2 MSTORE PUSH1 0xB PUSH1 0x20 MSTORE PUSH1 0x40 SWAP1 DUP2 SWAP1 KECCAK256 SWAP2 SWAP7 POP DUP1 MLOAD SWAP1 DUP2 ADD PUSH1 0x40 MSTORE DUP2 SLOAD DUP2 MSTORE PUSH1 0x1 SWAP1 SWAP2 ADD SLOAD PUSH1 0x20 DUP3 ADD MSTORE SWAP4 POP DUP4 MLOAD PUSH1 0x13 SLOAD SWAP1 DUP9 XOR SWAP4 POP DUP4 DUP2 ISZERO ISZERO PUSH2 0x962 JUMPI INVALID JUMPDEST MOD SWAP2 POP PUSH2 0x96E DUP3 PUSH2 0xE94 JUMP JUMPDEST PUSH1 0xF DUP1 SLOAD PUSH21 0xFFFFFFFFFFFFFFFFFFFFFFFFFFFFFFFFFFFFFFFF00 NOT AND PUSH2 0x100 PUSH1 0x1 PUSH1 0xA0 PUSH1 0x2 EXP SUB SWAP4 DUP5 AND DUP2 MUL SWAP2 SWAP1 SWAP2 OR SWAP2 DUP3 SWAP1 SSTORE SWAP1 DIV AND PUSH1 0x0 SWAP1 DUP2 MSTORE PUSH1 0xB PUSH1 0x20 MSTORE PUSH1 0x40 SWAP1 DUP2 SWAP1 KECCAK256 SWAP1 DUP1 MLOAD SWAP1 DUP2 ADD PUSH1 0x40 MSTORE DUP2 SLOAD DUP2 MSTORE PUSH1 0x1 SWAP1 SWAP2 ADD SLOAD PUSH1 0x20 DUP3 ADD MSTORE PUSH1 0xF SLOAD SWAP1 SWAP2 POP PUSH32 0x7C195D9D8CA6F7AEDFCE85403A18BAD6DE0C1B5864A97FA635AE120B4EB4F8C3 SWAP1 PUSH2 0x100 SWAP1 DIV PUSH1 0x1 PUSH1 0xA0 PUSH1 0x2 EXP SUB AND DUP3 MLOAD PUSH1 0xE SLOAD DUP12 PUSH1 0x40 MLOAD PUSH1 0x1 PUSH1 0xA0 PUSH1 0x2 EXP SUB SWAP1 SWAP5 AND DUP5 MSTORE PUSH1 0x20 DUP5 ADD SWAP3 SWAP1 SWAP3 MSTORE PUSH1 0x40 DUP1 DUP5 ADD SWAP2 SWAP1 SWAP2 MSTORE PUSH1 0x60 DUP4 ADD SWAP2 SWAP1 SWAP2 MSTORE PUSH1 0x80 SWAP1 SWAP2 ADD SWAP1 MLOAD DUP1 SWAP2 SUB SWAP1 LOG1 POP POP POP POP POP POP POP POP JUMP JUMPDEST PUSH1 0x8 SLOAD TIMESTAMP LT DUP1 ISZERO SWAP1 PUSH2 0xA5B JUMPI POP PUSH1 0x9 SLOAD TIMESTAMP LT JUMPDEST ISZERO ISZERO PUSH2 0xA66 JUMPI PUSH1 0x0 DUP1 REVERT JUMPDEST PUSH1 0x0 SLOAD CALLER PUSH1 0x1 PUSH1 0xA0 PUSH1 0x2 EXP SUB SWAP1 DUP2 AND SWAP2 AND EQ PUSH2 0xA81 JUMPI PUSH1 0x0 DUP1 REVERT JUMPDEST PUSH1 0x11 SLOAD PUSH2 0x100 SWAP1 DIV PUSH1 0xFF AND ISZERO PUSH2 0xA96 JUMPI PUSH1 0x0 DUP1 REVERT JUMPDEST PUSH1 0xE SLOAD ISZERO PUSH2 0xAA3 JUMPI PUSH1 0x0 DUP1 REVERT JUMPDEST PUSH1 0xD SLOAD PUSH2 0xAB0 SWAP1 DUP3 PUSH2 0xE57 JUMP JUMPDEST ISZERO ISZERO PUSH2 0xABB JUMPI PUSH1 0x0 DUP1 REVERT JUMPDEST PUSH1 0xE DUP2 SWAP1 SSTORE PUSH32 0x83985F84FEC43F6C4B0B122BE29B8625FC89E54A2FB6BA2B76A2751C1C7874D9 DUP2 PUSH1 0x40 MLOAD SWAP1 DUP2 MSTORE PUSH1 0x20 ADD PUSH1 0x40 MLOAD DUP1 SWAP2 SUB SWAP1 LOG1 POP JUMP JUMPDEST PUSH1 0x8 SLOAD TIMESTAMP LT PUSH2 0xB04 JUMPI PUSH1 0x0 DUP1 REVERT JUMPDEST PUSH1 0x0 SLOAD CALLER PUSH1 0x1 PUSH1 0xA0 PUSH1 0x2 EXP SUB SWAP1 DUP2 AND SWAP2 AND EQ PUSH2 0xB1F JUMPI PUSH1 0x0 DUP1 REVERT JUMPDEST PUSH1 0x11 SLOAD PUSH2 0x100 SWAP1 DIV PUSH1 0xFF AND ISZERO PUSH2 0xB34 JUMPI PUSH1 0x0 DUP1 REVERT JUMPDEST PUSH1 0xD SLOAD ISZERO PUSH2 0xB41 JUMPI PUSH1 0x0 DUP1 REVERT JUMPDEST DUP1 ISZERO ISZERO PUSH2 0xB4D JUMPI PUSH1 0x0 DUP1 REVERT JUMPDEST PUSH1 0xD DUP2 SWAP1 SSTORE PUSH32 0x451914E591226064706DFEE5BBEA9F69833323AA4EF98870F5EC98F5E3FDDE96 DUP2 PUSH1 0x40 MLOAD SWAP1 DUP2 MSTORE PUSH1 0x20 ADD PUSH1 0x40 MLOAD DUP1 SWAP2 SUB SWAP1 LOG1 POP JUMP JUMPDEST PUSH1 0xC DUP1 SLOAD DUP3 SWAP1 DUP2 LT PUSH2 0xB96 JUMPI INVALID JUMPDEST PUSH1 0x0 SWAP2 DUP3 MSTORE PUSH1 0x20 SWAP1 SWAP2 KECCAK256 PUSH1 0x2 SWAP1 SWAP2 MUL ADD DUP1 SLOAD PUSH1 0x1 SWAP1 SWAP2 ADD SLOAD PUSH1 0x1 PUSH1 0xA0 PUSH1 0x2 EXP SUB SWAP1 SWAP2 AND SWAP2 POP DUP3 JUMP JUMPDEST PUSH1 0xA SLOAD TIMESTAMP LT ISZERO PUSH2 0xBCD JUMPI PUSH1 0x0 DUP1 REVERT JUMPDEST PUSH1 0x3 SLOAD CALLER PUSH1 0x1 PUSH1 0xA0 PUSH1 0x2 EXP SUB SWAP1 DUP2 AND SWAP2 AND EQ PUSH2 0xBE8 JUMPI PUSH1 0x0 DUP1 REVERT JUMPDEST CALLER PUSH1 0x1 PUSH1 0xA0 PUSH1 0x2 EXP SUB AND SELFDESTRUCT JUMPDEST PUSH1 0xF SLOAD PUSH1 0x0 SWAP1 DUP2 SWAP1 DUP2 SWAP1 PUSH2 0x100 SWAP1 DIV PUSH1 0x1 PUSH1 0xA0 PUSH1 0x2 EXP SUB AND ISZERO PUSH2 0xCEC JUMPI PUSH1 0x0 SLOAD CALLER PUSH1 0x1 PUSH1 0xA0 PUSH1 0x2 EXP SUB SWAP1 DUP2 AND SWAP2 AND EQ ISZERO PUSH2 0xC46 JUMPI PUSH1 0xF SLOAD PUSH1 0xFF AND ISZERO PUSH2 0xC3C JUMPI PUSH1 0x0 SWAP3 POP PUSH2 0xD2A JUMP JUMPDEST PUSH1 0x1 SLOAD SWAP2 POP PUSH2 0xCD7 JUMP JUMPDEST PUSH1 0xF SLOAD CALLER PUSH1 0x1 PUSH1 0xA0 PUSH1 0x2 EXP SUB SWAP1 DUP2 AND PUSH2 0x100 SWAP1 SWAP3 DIV AND EQ ISZERO PUSH2 0xC99 JUMPI PUSH1 0xF SLOAD PUSH22 0x1000000000000000000000000000000000000000000 SWAP1 DIV PUSH1 0xFF AND ISZERO PUSH2 0xC8F JUMPI PUSH1 0x0 SWAP3 POP PUSH2 0xD2A JUMP JUMPDEST PUSH1 0x2 SLOAD SWAP2 POP PUSH2 0xCD7 JUMP JUMPDEST PUSH1 0x3 SLOAD CALLER PUSH1 0x1 PUSH1 0xA0 PUSH1 0x2 EXP SUB SWAP1 DUP2 AND SWAP2 AND EQ ISZERO PUSH2 0xCCE JUMPI PUSH1 0x11 SLOAD PUSH1 0xFF AND ISZERO PUSH2 0xCC4 JUMPI PUSH1 0x0 SWAP3 POP PUSH2 0xD2A JUMP JUMPDEST PUSH1 0x4 SLOAD SWAP2 POP PUSH2 0xCD7 JUMP JUMPDEST PUSH1 0x0 SWAP3 POP PUSH2 0xD2A JUMP JUMPDEST PUSH1 0x6 SLOAD PUSH1 0x13 SLOAD PUSH2 0x3E8 SWAP2 MUL DUP4 MUL DIV SWAP3 POP PUSH2 0xD2A JUMP JUMPDEST PUSH1 0x11 SLOAD PUSH2 0x100 SWAP1 DIV PUSH1 0xFF AND ISZERO PUSH2 0xD25 JUMPI POP PUSH1 0x1 PUSH1 0xA0 PUSH1 0x2 EXP SUB CALLER AND PUSH1 0x0 SWAP1 DUP2 MSTORE PUSH1 0xB PUSH1 0x20 MSTORE PUSH1 0x40 SWAP1 KECCAK256 PUSH1 0x6 SLOAD PUSH1 0x1 DUP3 ADD SLOAD MUL SWAP3 POP PUSH2 0xD2A JUMP JUMPDEST PUSH1 0x0 SWAP3 POP JUMPDEST POP POP SWAP1 JUMP JUMPDEST PUSH1 0xD SLOAD PUSH1 0xE SLOAD PUSH1 0xF SLOAD PUSH2 0x100 DUP1 DUP3 DIV PUSH1 0x1 PUSH1 0xA0 PUSH1 0x2 EXP SUB AND PUSH1 0x0 DUP2 DUP2 MSTORE PUSH1 0xB PUSH1 0x20 MSTORE PUSH1 0x40 SWAP1 KECCAK256 SLOAD PUSH1 0x10 SLOAD PUSH1 0x11 SLOAD PUSH1 0x12 SLOAD PUSH1 0x13 SLOAD SWAP9 SWAP10 SWAP8 SWAP9 PUSH1 0xFF DUP1 DUP10 AND SWAP10 SWAP7 SWAP9 SWAP6 SWAP8 PUSH22 0x1000000000000000000000000000000000000000000 SWAP1 SWAP7 DIV DUP2 AND SWAP7 SWAP5 SWAP6 DUP2 DUP6 AND SWAP6 SWAP5 DIV AND SWAP3 JUMP JUMPDEST PUSH1 0x11 SLOAD PUSH2 0x100 SWAP1 DIV PUSH1 0xFF AND ISZERO PUSH2 0xDAE JUMPI PUSH1 0x0 DUP1 REVERT JUMPDEST PUSH1 0xF SLOAD PUSH2 0x100 SWAP1 DIV PUSH1 0x1 PUSH1 0xA0 PUSH1 0x2 EXP SUB AND ISZERO PUSH2 0xDC9 JUMPI PUSH1 0x0 DUP1 REVERT JUMPDEST PUSH1 0x3 SLOAD CALLER PUSH1 0x1 PUSH1 0xA0 PUSH1 0x2 EXP SUB SWAP1 DUP2 AND SWAP2 AND EQ DUP1 ISZERO SWAP1 PUSH2 0xDF7 JUMPI POP PUSH1 0x0 SLOAD CALLER PUSH1 0x1 PUSH1 0xA0 PUSH1 0x2 EXP SUB SWAP1 DUP2 AND SWAP2 AND EQ ISZERO JUMPDEST ISZERO PUSH2 0xE1A JUMPI PUSH1 0x9 SLOAD TIMESTAMP LT DUP1 ISZERO SWAP1 PUSH2 0xE0F JUMPI POP PUSH1 0xA SLOAD TIMESTAMP LT JUMPDEST ISZERO ISZERO PUSH2 0xE1A JUMPI PUSH1 0x0 DUP1 REVERT JUMPDEST PUSH1 0x11 DUP1 SLOAD PUSH2 0xFF00 NOT AND PUSH2 0x100 OR SWAP1 SSTORE PUSH32 0x4A19036F5B4D75256C1C24150A8254BD3C2BDB1EAEEEC4523E927F0AB1CDD054 PUSH1 0x40 MLOAD PUSH1 0x40 MLOAD DUP1 SWAP2 SUB SWAP1 LOG1 JUMP JUMPDEST PUSH1 0x0 DUP2 CALLER PUSH1 0x40 MLOAD SWAP2 DUP3 MSTORE PUSH1 0x1 PUSH1 0xA0 PUSH1 0x2 EXP SUB AND PUSH13 0x1000000000000000000000000 MUL PUSH1 0x20 DUP3 ADD MSTORE PUSH1 0x34 ADD PUSH1 0x40 MLOAD SWAP1 DUP2 SWAP1 SUB SWAP1 KECCAK256 DUP4 EQ SWAP1 POP SWAP3 SWAP2 POP POP JUMP JUMPDEST PUSH1 0x0 DUP1 PUSH1 0x0 DUP1 PUSH1 0x0 PUSH2 0xEA4 PUSH2 0xFC2 JUMP JUMPDEST PUSH2 0xEAC PUSH2 0xFC2 JUMP JUMPDEST PUSH1 0xC SLOAD PUSH1 0x0 SWAP5 POP PUSH1 0x0 NOT ADD SWAP3 POP JUMPDEST DUP3 DUP5 EQ ISZERO PUSH2 0xEF1 JUMPI PUSH1 0xC DUP1 SLOAD DUP6 SWAP1 DUP2 LT PUSH2 0xED0 JUMPI INVALID JUMPDEST PUSH1 0x0 SWAP2 DUP3 MSTORE PUSH1 0x20 SWAP1 SWAP2 KECCAK256 PUSH1 0x2 SWAP1 SWAP2 MUL ADD SLOAD PUSH1 0x1 PUSH1 0xA0 PUSH1 0x2 EXP SUB AND SWAP7 POP PUSH2 0xFB7 JUMP JUMPDEST PUSH1 0xC DUP1 SLOAD PUSH1 0x2 DUP7 DUP7 SUB DIV DUP7 ADD SWAP8 POP PUSH1 0x1 DUP9 ADD SWAP7 POP DUP8 SWAP1 DUP2 LT PUSH2 0xF0F JUMPI INVALID JUMPDEST SWAP1 PUSH1 0x0 MSTORE PUSH1 0x20 PUSH1 0x0 KECCAK256 SWAP1 PUSH1 0x2 MUL ADD PUSH1 0x40 DUP1 MLOAD SWAP1 DUP2 ADD PUSH1 0x40 MSTORE DUP2 SLOAD PUSH1 0x1 PUSH1 0xA0 PUSH1 0x2 EXP SUB AND DUP2 MSTORE PUSH1 0x1 SWAP1 SWAP2 ADD SLOAD PUSH1 0x20 DUP3 ADD MSTORE PUSH1 0xC DUP1 SLOAD SWAP2 SWAP4 POP SWAP1 DUP7 SWAP1 DUP2 LT PUSH2 0xF51 JUMPI INVALID JUMPDEST SWAP1 PUSH1 0x0 MSTORE PUSH1 0x20 PUSH1 0x0 KECCAK256 SWAP1 PUSH1 0x2 MUL ADD PUSH1 0x40 DUP1 MLOAD SWAP1 DUP2 ADD PUSH1 0x40 MSTORE DUP2 SLOAD PUSH1 0x1 PUSH1 0xA0 PUSH1 0x2 EXP SUB AND DUP2 MSTORE PUSH1 0x1 SWAP1 SWAP2 ADD SLOAD PUSH1 0x20 DUP1 DUP4 ADD SWAP2 SWAP1 SWAP2 MSTORE SWAP1 SWAP2 POP DUP3 ADD MLOAD DUP9 LT PUSH2 0xFAE JUMPI DUP1 PUSH1 0x20 ADD MLOAD DUP9 LT ISZERO PUSH2 0xFA6 JUMPI DUP2 MLOAD SWAP7 POP PUSH2 0xFB7 JUMP JUMPDEST DUP5 SWAP4 POP PUSH2 0xFB2 JUMP JUMPDEST DUP6 SWAP3 POP JUMPDEST PUSH2 0xEBA JUMP JUMPDEST POP POP POP POP POP POP SWAP2 SWAP1 POP JUMP JUMPDEST PUSH1 0x40 DUP1 MLOAD SWAP1 DUP2 ADD PUSH1 0x40 MSTORE PUSH1 0x0 DUP1 DUP3 MSTORE PUSH1 0x20 DUP3 ADD MSTORE SWAP1 JUMP JUMPDEST DUP2 SLOAD DUP2 DUP4 SSTORE DUP2 DUP2 ISZERO GT PUSH2 0x1005 JUMPI PUSH1 0x2 MUL DUP2 PUSH1 0x2 MUL DUP4 PUSH1 0x0 MSTORE PUSH1 0x20 PUSH1 0x0 KECCAK256 SWAP2 DUP3 ADD SWAP2 ADD PUSH2 0x1005 SWAP2 SWAP1 PUSH2 0x100A JUMP JUMPDEST POP POP POP JUMP JUMPDEST PUSH2 0x1046 SWAP2 SWAP1 JUMPDEST DUP1 DUP3 GT ISZERO PUSH2 0x1042 JUMPI DUP1 SLOAD PUSH20 0xFFFFFFFFFFFFFFFFFFFFFFFFFFFFFFFFFFFFFFFF NOT AND DUP2 SSTORE PUSH1 0x0 PUSH1 0x1 DUP3 ADD SSTORE PUSH1 0x2 ADD PUSH2 0x1010 JUMP JUMPDEST POP SWAP1 JUMP JUMPDEST SWAP1 JUMP STOP LOG1 PUSH6 0x627A7A723058 KECCAK256 0xd7 0xd6 DUP8 0xee 0x5f 0xcc PUSH3 0x82CA3A 0xd2 PUSH22 0xA58A202978BD32DB51065BAF3D22CD485922FC460029 "
        }
    },
    "methods": {
        "participants": [
            "_0"
        ],
        "participate": [
            "_message"
        ],
        "deployment": [],
        "withdraw": [],
        "end": [
            "_message"
        ],
        "reveal": [
            "_message"
        ],
        "begin": [
            "_secret"
        ],
        "funds": [
            "_0"
        ],
        "destroy": [],
        "balance": [],
        "state": [],
        "cancel": [],
        "fallback": []
    }
}