{
    "abi": [
        {
            "constant": true,
            "inputs": [],
            "name": "endTime",
            "outputs": [
                {
                    "name": "",
                    "type": "uint256"
                }
            ],
            "payable": false,
            "stateMutability": "view",
            "type": "function"
        },
        {
            "constant": true,
            "inputs": [],
            "name": "getCharities",
            "outputs": [
                {
                    "name": "",
                    "type": "bytes32[]"
                },
                {
                    "name": "",
                    "type": "address[]"
                },
                {
                    "name": "",
                    "type": "bool[]"
                }
            ],
            "payable": false,
            "stateMutability": "view",
            "type": "function"
        },
        {
            "constant": true,
            "inputs": [],
            "name": "passedCharityId",
            "outputs": [
                {
                    "name": "",
                    "type": "uint256"
                }
            ],
            "payable": false,
            "stateMutability": "view",
            "type": "function"
        },
        {
            "constant": false,
            "inputs": [],
            "name": "pass",
            "outputs": [],
            "payable": false,
            "stateMutability": "nonpayable",
            "type": "function"
        },
        {
            "constant": false,
            "inputs": [
                {
                    "name": "_charityId",
                    "type": "uint256"
                },
                {
                    "name": "_score",
                    "type": "uint256"
                }
            ],
            "name": "vote",
            "outputs": [],
            "payable": false,
            "stateMutability": "nonpayable",
            "type": "function"
        },
        {
            "constant": false,
            "inputs": [
                {
                    "name": "_name",
                    "type": "bytes32"
                },
                {
                    "name": "_address",
                    "type": "address"
                }
            ],
            "name": "addCharity",
            "outputs": [],
            "payable": false,
            "stateMutability": "nonpayable",
            "type": "function"
        },
        {
            "inputs": [
                {
                    "name": "_endTime",
                    "type": "uint256"
                }
            ],
            "payable": false,
            "stateMutability": "nonpayable",
            "type": "constructor"
        },
        {
            "anonymous": false,
            "inputs": [
                {
                    "indexed": true,
                    "name": "_charityId",
                    "type": "uint256"
                }
            ],
            "name": "CharityAdd",
            "type": "event"
        },
        {
            "anonymous": false,
            "inputs": [
                {
                    "indexed": true,
                    "name": "_address",
                    "type": "address"
                },
                {
                    "indexed": true,
                    "name": "_charityId",
                    "type": "uint256"
                },
                {
                    "indexed": false,
                    "name": "_score",
                    "type": "uint256"
                }
            ],
            "name": "VoterCast",
            "type": "event"
        },
        {
            "anonymous": false,
            "inputs": [
                {
                    "indexed": true,
                    "name": "_charityId",
                    "type": "uint256"
                }
            ],
            "name": "CharityPass",
            "type": "event"
        }
    ],
    "evm": {
        "bytecode": {
            "linkReferences": {},
            "object": "6060604052341561000f57600080fd5b6040516020806107568339810160405280805160008054600160a060020a033316600160a060020a03199091161790556001555050610703806100536000396000f3006060604052600436106100775763ffffffff7c01000000000000000000000000000000000000000000000000000000006000350416633197cbb6811461007c57806348112c6f146100a15780637a6be5cb14610192578063a7a1ed72146101a5578063b384abef146101ba578063ca84fdcc146101d3575b600080fd5b341561008757600080fd5b61008f610202565b60405190815260200160405180910390f35b34156100ac57600080fd5b6100b4610208565b60405180806020018060200180602001848103845287818151815260200191508051906020019060200280838360005b838110156100fc5780820151838201526020016100e4565b50505050905001848103835286818151815260200191508051906020019060200280838360005b8381101561013b578082015183820152602001610123565b50505050905001848103825285818151815260200191508051906020019060200280838360005b8381101561017a578082015183820152602001610162565b50505050905001965050505050505060405180910390f35b341561019d57600080fd5b61008f610382565b34156101b057600080fd5b6101b8610388565b005b34156101c557600080fd5b6101b8600435602435610444565b34156101de57600080fd5b6101b860043573ffffffffffffffffffffffffffffffffffffffff60243516610539565b60015481565b610210610647565b610218610647565b610220610647565b600061022a610647565b610232610647565b61023a610647565b6003549350600080856040518059106102505750595b90808252806020026020018201604052509450856040518059106102715750595b90808252806020026020018201604052509350856040518059106102925750595b90808252806020026020018201604052509250600091505b858210156103745760038054839081106102c057fe5b9060005260206000209060050201905080600001548583815181106102e157fe5b60209081029091010152600181015473ffffffffffffffffffffffffffffffffffffffff1684838151811061031257fe5b73ffffffffffffffffffffffffffffffffffffffff92831660209182029092018101919091523390911660009081526004830190915260408120541183838151811061035a57fe5b9115156020928302909101909101526001909101906102aa565b509297919650945092505050565b60025481565b600080600080600042600154111515156103a157600080fd5b600092505b60035483101561040b5760038054849081106103be57fe5b90600052602060002090600502019150816003015482600201548115156103e157fe5b049050838114156103f157600080fd5b83811115610400578093508294505b6001909201916103a6565b6002859055847f48ef71dca64c6c7ee87ee199b96d23045d8d5b7475f1051320cd869cd0562d8860405160405180910390a25050505050565b60008060015442111580156104595750600254155b151561046457600080fd5b600380548590811061047257fe5b6000918252602080832073ffffffffffffffffffffffffffffffffffffffff3316845260046005909302019182019052604082205490935091508311156104c557600282018054829003840190556104d1565b60028201805482900390555b73ffffffffffffffffffffffffffffffffffffffff33166000818152600484016020526040908190208590558591907f91669d47966be3c297fd50c28765b16e7d18429ae1955a65975cd2fbe05caf859086905190815260200160405180910390a350505050565b600154421115801561054b5750600254155b151561055657600080fd5b60038054600181016105688382610659565b916000526020600020906005020160006080604051908101604090815286825273ffffffffffffffffffffffffffffffffffffffff861660208301526000908201819052606082015291905081518155602082015160018201805473ffffffffffffffffffffffffffffffffffffffff191673ffffffffffffffffffffffffffffffffffffffff92909216919091179055604082015181600201556060820151600391820155546000190191507f50608d226080e5756e76baa3b6150d060c58aa074432a7d1a5dc1533d9e0e2a9905060405160405180910390a25050565b60206040519081016040526000815290565b81548183558181151161068557600502816005028360005260206000209182019101610685919061068a565b505050565b6106d491905b808211156106d057600080825560018201805473ffffffffffffffffffffffffffffffffffffffff19169055600282018190556003820155600501610690565b5090565b905600a165627a7a723058203c460f7da4296ddcda3b85d0475cac935eafd4799c9246aeb741db2b943790490029",
            "opcodes": "PUSH1 0x60 PUSH1 0x40 MSTORE CALLVALUE ISZERO PUSH2 0xF JUMPI PUSH1 0x0 DUP1 REVERT JUMPDEST PUSH1 0x40 MLOAD PUSH1 0x20 DUP1 PUSH2 0x756 DUP4 CODECOPY DUP2 ADD PUSH1 0x40 MSTORE DUP1 DUP1 MLOAD PUSH1 0x0 DUP1 SLOAD PUSH1 0x1 PUSH1 0xA0 PUSH1 0x2 EXP SUB CALLER AND PUSH1 0x1 PUSH1 0xA0 PUSH1 0x2 EXP SUB NOT SWAP1 SWAP2 AND OR SWAP1 SSTORE PUSH1 0x1 SSTORE POP POP PUSH2 0x703 DUP1 PUSH2 0x53 PUSH1 0x0 CODECOPY PUSH1 0x0 RETURN STOP PUSH1 0x60 PUSH1 0x40 MSTORE PUSH1 0x4 CALLDATASIZE LT PUSH2 0x77 JUMPI PUSH4 0xFFFFFFFF PUSH29 0x100000000000000000000000000000000000000000000000000000000 PUSH1 0x0 CALLDATALOAD DIV AND PUSH4 0x3197CBB6 DUP2 EQ PUSH2 0x7C JUMPI DUP1 PUSH4 0x48112C6F EQ PUSH2 0xA1 JUMPI DUP1 PUSH4 0x7A6BE5CB EQ PUSH2 0x192 JUMPI DUP1 PUSH4 0xA7A1ED72 EQ PUSH2 0x1A5 JUMPI DUP1 PUSH4 0xB384ABEF EQ PUSH2 0x1BA JUMPI DUP1 PUSH4 0xCA84FDCC EQ PUSH2 0x1D3 JUMPI JUMPDEST PUSH1 0x0 DUP1 REVERT JUMPDEST CALLVALUE ISZERO PUSH2 0x87 JUMPI PUSH1 0x0 DUP1 REVERT JUMPDEST PUSH2 0x8F PUSH2 0x202 JUMP JUMPDEST PUSH1 0x40 MLOAD SWAP1 DUP2 MSTORE PUSH1 0x20 ADD PUSH1 0x40 MLOAD DUP1 SWAP2 SUB SWAP1 RETURN JUMPDEST CALLVALUE ISZERO PUSH2 0xAC JUMPI PUSH1 0x0 DUP1 REVERT JUMPDEST PUSH2 0xB4 PUSH2 0x208 JUMP JUMPDEST PUSH1 0x40 MLOAD DUP1 DUP1 PUSH1 0x20 ADD DUP1 PUSH1 0x20 ADD DUP1 PUSH1 0x20 ADD DUP5 DUP2 SUB DUP5 MSTORE DUP8 DUP2 DUP2 MLOAD DUP2 MSTORE PUSH1 0x20 ADD SWAP2 POP DUP1 MLOAD SWAP1 PUSH1 0x20 ADD SWAP1 PUSH1 0x20 MUL DUP1 DUP4 DUP4 PUSH1 0x0 JUMPDEST DUP4 DUP2 LT ISZERO PUSH2 0xFC JUMPI DUP1 DUP3 ADD MLOAD DUP4 DUP3 ADD MSTORE PUSH1 0x20 ADD PUSH2 0xE4 JUMP JUMPDEST POP POP POP POP SWAP1 POP ADD DUP5 DUP2 SUB DUP4 MSTORE DUP7 DUP2 DUP2 MLOAD DUP2 MSTORE PUSH1 0x20 ADD SWAP2 POP DUP1 MLOAD SWAP1 PUSH1 0x20 ADD SWAP1 PUSH1 0x20 MUL DUP1 DUP4 DUP4 PUSH1 0x0 JUMPDEST DUP4 DUP2 LT ISZERO PUSH2 0x13B JUMPI DUP1 DUP3 ADD MLOAD DUP4 DUP3 ADD MSTORE PUSH1 0x20 ADD PUSH2 0x123 JUMP JUMPDEST POP POP POP POP SWAP1 POP ADD DUP5 DUP2 SUB DUP3 MSTORE DUP6 DUP2 DUP2 MLOAD DUP2 MSTORE PUSH1 0x20 ADD SWAP2 POP DUP1 MLOAD SWAP1 PUSH1 0x20 ADD SWAP1 PUSH1 0x20 MUL DUP1 DUP4 DUP4 PUSH1 0x0 JUMPDEST DUP4 DUP2 LT ISZERO PUSH2 0x17A JUMPI DUP1 DUP3 ADD MLOAD DUP4 DUP3 ADD MSTORE PUSH1 0x20 ADD PUSH2 0x162 JUMP JUMPDEST POP POP POP POP SWAP1 POP ADD SWAP7 POP POP POP POP POP POP POP PUSH1 0x40 MLOAD DUP1 SWAP2 SUB SWAP1 RETURN JUMPDEST CALLVALUE ISZERO PUSH2 0x19D JUMPI PUSH1 0x0 DUP1 REVERT JUMPDEST PUSH2 0x8F PUSH2 0x382 JUMP JUMPDEST CALLVALUE ISZERO PUSH2 0x1B0 JUMPI PUSH1 0x0 DUP1 REVERT JUMPDEST PUSH2 0x1B8 PUSH2 0x388 JUMP JUMPDEST STOP JUMPDEST CALLVALUE ISZERO PUSH2 0x1C5 JUMPI PUSH1 0x0 DUP1 REVERT JUMPDEST PUSH2 0x1B8 PUSH1 0x4 CALLDATALOAD PUSH1 0x24 CALLDATALOAD PUSH2 0x444 JUMP JUMPDEST CALLVALUE ISZERO PUSH2 0x1DE JUMPI PUSH1 0x0 DUP1 REVERT JUMPDEST PUSH2 0x1B8 PUSH1 0x4 CALLDATALOAD PUSH20 0xFFFFFFFFFFFFFFFFFFFFFFFFFFFFFFFFFFFFFFFF PUSH1 0x24 CALLDATALOAD AND PUSH2 0x539 JUMP JUMPDEST PUSH1 0x1 SLOAD DUP2 JUMP JUMPDEST PUSH2 0x210 PUSH2 0x647 JUMP JUMPDEST PUSH2 0x218 PUSH2 0x647 JUMP JUMPDEST PUSH2 0x220 PUSH2 0x647 JUMP JUMPDEST PUSH1 0x0 PUSH2 0x22A PUSH2 0x647 JUMP JUMPDEST PUSH2 0x232 PUSH2 0x647 JUMP JUMPDEST PUSH2 0x23A PUSH2 0x647 JUMP JUMPDEST PUSH1 0x3 SLOAD SWAP4 POP PUSH1 0x0 DUP1 DUP6 PUSH1 0x40 MLOAD DUP1 MSIZE LT PUSH2 0x250 JUMPI POP MSIZE JUMPDEST SWAP1 DUP1 DUP3 MSTORE DUP1 PUSH1 0x20 MUL PUSH1 0x20 ADD DUP3 ADD PUSH1 0x40 MSTORE POP SWAP5 POP DUP6 PUSH1 0x40 MLOAD DUP1 MSIZE LT PUSH2 0x271 JUMPI POP MSIZE JUMPDEST SWAP1 DUP1 DUP3 MSTORE DUP1 PUSH1 0x20 MUL PUSH1 0x20 ADD DUP3 ADD PUSH1 0x40 MSTORE POP SWAP4 POP DUP6 PUSH1 0x40 MLOAD DUP1 MSIZE LT PUSH2 0x292 JUMPI POP MSIZE JUMPDEST SWAP1 DUP1 DUP3 MSTORE DUP1 PUSH1 0x20 MUL PUSH1 0x20 ADD DUP3 ADD PUSH1 0x40 MSTORE POP SWAP3 POP PUSH1 0x0 SWAP2 POP JUMPDEST DUP6 DUP3 LT ISZERO PUSH2 0x374 JUMPI PUSH1 0x3 DUP1 SLOAD DUP4 SWAP1 DUP2 LT PUSH2 0x2C0 JUMPI INVALID JUMPDEST SWAP1 PUSH1 0x0 MSTORE PUSH1 0x20 PUSH1 0x0 KECCAK256 SWAP1 PUSH1 0x5 MUL ADD SWAP1 POP DUP1 PUSH1 0x0 ADD SLOAD DUP6 DUP4 DUP2 MLOAD DUP2 LT PUSH2 0x2E1 JUMPI INVALID JUMPDEST PUSH1 0x20 SWAP1 DUP2 MUL SWAP1 SWAP2 ADD ADD MSTORE PUSH1 0x1 DUP2 ADD SLOAD PUSH20 0xFFFFFFFFFFFFFFFFFFFFFFFFFFFFFFFFFFFFFFFF AND DUP5 DUP4 DUP2 MLOAD DUP2 LT PUSH2 0x312 JUMPI INVALID JUMPDEST PUSH20 0xFFFFFFFFFFFFFFFFFFFFFFFFFFFFFFFFFFFFFFFF SWAP3 DUP4 AND PUSH1 0x20 SWAP2 DUP3 MUL SWAP1 SWAP3 ADD DUP2 ADD SWAP2 SWAP1 SWAP2 MSTORE CALLER SWAP1 SWAP2 AND PUSH1 0x0 SWAP1 DUP2 MSTORE PUSH1 0x4 DUP4 ADD SWAP1 SWAP2 MSTORE PUSH1 0x40 DUP2 KECCAK256 SLOAD GT DUP4 DUP4 DUP2 MLOAD DUP2 LT PUSH2 0x35A JUMPI INVALID JUMPDEST SWAP2 ISZERO ISZERO PUSH1 0x20 SWAP3 DUP4 MUL SWAP1 SWAP2 ADD SWAP1 SWAP2 ADD MSTORE PUSH1 0x1 SWAP1 SWAP2 ADD SWAP1 PUSH2 0x2AA JUMP JUMPDEST POP SWAP3 SWAP8 SWAP2 SWAP7 POP SWAP5 POP SWAP3 POP POP POP JUMP JUMPDEST PUSH1 0x2 SLOAD DUP2 JUMP JUMPDEST PUSH1 0x0 DUP1 PUSH1 0x0 DUP1 PUSH1 0x0 TIMESTAMP PUSH1 0x1 SLOAD GT ISZERO ISZERO ISZERO PUSH2 0x3A1 JUMPI PUSH1 0x0 DUP1 REVERT JUMPDEST PUSH1 0x0 SWAP3 POP JUMPDEST PUSH1 0x3 SLOAD DUP4 LT ISZERO PUSH2 0x40B JUMPI PUSH1 0x3 DUP1 SLOAD DUP5 SWAP1 DUP2 LT PUSH2 0x3BE JUMPI INVALID JUMPDEST SWAP1 PUSH1 0x0 MSTORE PUSH1 0x20 PUSH1 0x0 KECCAK256 SWAP1 PUSH1 0x5 MUL ADD SWAP2 POP DUP2 PUSH1 0x3 ADD SLOAD DUP3 PUSH1 0x2 ADD SLOAD DUP2 ISZERO ISZERO PUSH2 0x3E1 JUMPI INVALID JUMPDEST DIV SWAP1 POP DUP4 DUP2 EQ ISZERO PUSH2 0x3F1 JUMPI PUSH1 0x0 DUP1 REVERT JUMPDEST DUP4 DUP2 GT ISZERO PUSH2 0x400 JUMPI DUP1 SWAP4 POP DUP3 SWAP5 POP JUMPDEST PUSH1 0x1 SWAP1 SWAP3 ADD SWAP2 PUSH2 0x3A6 JUMP JUMPDEST PUSH1 0x2 DUP6 SWAP1 SSTORE DUP5 PUSH32 0x48EF71DCA64C6C7EE87EE199B96D23045D8D5B7475F1051320CD869CD0562D88 PUSH1 0x40 MLOAD PUSH1 0x40 MLOAD DUP1 SWAP2 SUB SWAP1 LOG2 POP POP POP POP POP JUMP JUMPDEST PUSH1 0x0 DUP1 PUSH1 0x1 SLOAD TIMESTAMP GT ISZERO DUP1 ISZERO PUSH2 0x459 JUMPI POP PUSH1 0x2 SLOAD ISZERO JUMPDEST ISZERO ISZERO PUSH2 0x464 JUMPI PUSH1 0x0 DUP1 REVERT JUMPDEST PUSH1 0x3 DUP1 SLOAD DUP6 SWAP1 DUP2 LT PUSH2 0x472 JUMPI INVALID JUMPDEST PUSH1 0x0 SWAP2 DUP3 MSTORE PUSH1 0x20 DUP1 DUP4 KECCAK256 PUSH20 0xFFFFFFFFFFFFFFFFFFFFFFFFFFFFFFFFFFFFFFFF CALLER AND DUP5 MSTORE PUSH1 0x4 PUSH1 0x5 SWAP1 SWAP4 MUL ADD SWAP2 DUP3 ADD SWAP1 MSTORE PUSH1 0x40 DUP3 KECCAK256 SLOAD SWAP1 SWAP4 POP SWAP2 POP DUP4 GT ISZERO PUSH2 0x4C5 JUMPI PUSH1 0x2 DUP3 ADD DUP1 SLOAD DUP3 SWAP1 SUB DUP5 ADD SWAP1 SSTORE PUSH2 0x4D1 JUMP JUMPDEST PUSH1 0x2 DUP3 ADD DUP1 SLOAD DUP3 SWAP1 SUB SWAP1 SSTORE JUMPDEST PUSH20 0xFFFFFFFFFFFFFFFFFFFFFFFFFFFFFFFFFFFFFFFF CALLER AND PUSH1 0x0 DUP2 DUP2 MSTORE PUSH1 0x4 DUP5 ADD PUSH1 0x20 MSTORE PUSH1 0x40 SWAP1 DUP2 SWAP1 KECCAK256 DUP6 SWAP1 SSTORE DUP6 SWAP2 SWAP1 PUSH32 0x91669D47966BE3C297FD50C28765B16E7D18429AE1955A65975CD2FBE05CAF85 SWAP1 DUP7 SWAP1 MLOAD SWAP1 DUP2 MSTORE PUSH1 0x20 ADD PUSH1 0x40 MLOAD DUP1 SWAP2 SUB SWAP1 LOG3 POP POP POP POP JUMP JUMPDEST PUSH1 0x1 SLOAD TIMESTAMP GT ISZERO DUP1 ISZERO PUSH2 0x54B JUMPI POP PUSH1 0x2 SLOAD ISZERO JUMPDEST ISZERO ISZERO PUSH2 0x556 JUMPI PUSH1 0x0 DUP1 REVERT JUMPDEST PUSH1 0x3 DUP1 SLOAD PUSH1 0x1 DUP2 ADD PUSH2 0x568 DUP4 DUP3 PUSH2 0x659 JUMP JUMPDEST SWAP2 PUSH1 0x0 MSTORE PUSH1 0x20 PUSH1 0x0 KECCAK256 SWAP1 PUSH1 0x5 MUL ADD PUSH1 0x0 PUSH1 0x80 PUSH1 0x40 MLOAD SWAP1 DUP2 ADD PUSH1 0x40 SWAP1 DUP2 MSTORE DUP7 DUP3 MSTORE PUSH20 0xFFFFFFFFFFFFFFFFFFFFFFFFFFFFFFFFFFFFFFFF DUP7 AND PUSH1 0x20 DUP4 ADD MSTORE PUSH1 0x0 SWAP1 DUP3 ADD DUP2 SWAP1 MSTORE PUSH1 0x60 DUP3 ADD MSTORE SWAP2 SWAP1 POP DUP2 MLOAD DUP2 SSTORE PUSH1 0x20 DUP3 ADD MLOAD PUSH1 0x1 DUP3 ADD DUP1 SLOAD PUSH20 0xFFFFFFFFFFFFFFFFFFFFFFFFFFFFFFFFFFFFFFFF NOT AND PUSH20 0xFFFFFFFFFFFFFFFFFFFFFFFFFFFFFFFFFFFFFFFF SWAP3 SWAP1 SWAP3 AND SWAP2 SWAP1 SWAP2 OR SWAP1 SSTORE PUSH1 0x40 DUP3 ADD MLOAD DUP2 PUSH1 0x2 ADD SSTORE PUSH1 0x60 DUP3 ADD MLOAD PUSH1 0x3 SWAP2 DUP3 ADD SSTORE SLOAD PUSH1 0x0 NOT ADD SWAP2 POP PUSH32 0x50608D226080E5756E76BAA3B6150D060C58AA074432A7D1A5DC1533D9E0E2A9 SWAP1 POP PUSH1 0x40 MLOAD PUSH1 0x40 MLOAD DUP1 SWAP2 SUB SWAP1 LOG2 POP POP JUMP JUMPDEST PUSH1 0x20 PUSH1 0x40 MLOAD SWAP1 DUP2 ADD PUSH1 0x40 MSTORE PUSH1 0x0 DUP2 MSTORE SWAP1 JUMP JUMPDEST DUP2 SLOAD DUP2 DUP4 SSTORE DUP2 DUP2 ISZERO GT PUSH2 0x685 JUMPI PUSH1 0x5 MUL DUP2 PUSH1 0x5 MUL DUP4 PUSH1 0x0 MSTORE PUSH1 0x20 PUSH1 0x0 KECCAK256 SWAP2 DUP3 ADD SWAP2 ADD PUSH2 0x685 SWAP2 SWAP1 PUSH2 0x68A JUMP JUMPDEST POP POP POP JUMP JUMPDEST PUSH2 0x6D4 SWAP2 SWAP1 JUMPDEST DUP1 DUP3 GT ISZERO PUSH2 0x6D0 JUMPI PUSH1 0x0 DUP1 DUP3 SSTORE PUSH1 0x1 DUP3 ADD DUP1 SLOAD PUSH20 0xFFFFFFFFFFFFFFFFFFFFFFFFFFFFFFFFFFFFFFFF NOT AND SWAP1 SSTORE PUSH1 0x2 DUP3 ADD DUP2 SWAP1 SSTORE PUSH1 0x3 DUP3 ADD SSTORE PUSH1 0x5 ADD PUSH2 0x690 JUMP JUMPDEST POP SWAP1 JUMP JUMPDEST SWAP1 JUMP STOP LOG1 PUSH6 0x627A7A723058 KECCAK256 EXTCODECOPY 0x46 0xf PUSH30 0xA4296DDCDA3B85D0475CAC935EAFD4799C9246AEB741DB2B943790490029 "
        }
    },
    "methods": {
        "endTime": [],
        "getCharities": [],
        "passedCharityId": [],
        "pass": [],
        "vote": [
            "_charityId",
            "_score"
        ],
        "addCharity": [
            "_name",
            "_address"
        ]
    }
}