{
    "abi": [
        {
            "constant": true,
            "inputs": [],
            "name": "getVotes",
            "outputs": [
                {
                    "name": "",
                    "type": "uint256[]"
                }
            ],
            "payable": false,
            "stateMutability": "view",
            "type": "function"
        },
        {
            "constant": true,
            "inputs": [],
            "name": "destructTime",
            "outputs": [
                {
                    "name": "",
                    "type": "uint256"
                }
            ],
            "payable": false,
            "stateMutability": "view",
            "type": "function"
        },
        {
            "constant": true,
            "inputs": [],
            "name": "endTime",
            "outputs": [
                {
                    "name": "",
                    "type": "uint256"
                }
            ],
            "payable": false,
            "stateMutability": "view",
            "type": "function"
        },
        {
            "constant": true,
            "inputs": [],
            "name": "getCharities",
            "outputs": [
                {
                    "name": "",
                    "type": "bytes32[]"
                },
                {
                    "name": "",
                    "type": "uint256[]"
                },
                {
                    "name": "",
                    "type": "uint256[]"
                }
            ],
            "payable": false,
            "stateMutability": "view",
            "type": "function"
        },
        {
            "constant": false,
            "inputs": [],
            "name": "destroy",
            "outputs": [],
            "payable": false,
            "stateMutability": "nonpayable",
            "type": "function"
        },
        {
            "constant": true,
            "inputs": [
                {
                    "name": "_forCharityIndex",
                    "type": "uint256"
                },
                {
                    "name": "_forCharityName",
                    "type": "bytes32"
                }
            ],
            "name": "hasRight",
            "outputs": [
                {
                    "name": "",
                    "type": "bool"
                }
            ],
            "payable": false,
            "stateMutability": "view",
            "type": "function"
        },
        {
            "constant": false,
            "inputs": [
                {
                    "name": "_charityIndex",
                    "type": "uint256"
                },
                {
                    "name": "_score",
                    "type": "uint256"
                }
            ],
            "name": "vote",
            "outputs": [],
            "payable": false,
            "stateMutability": "nonpayable",
            "type": "function"
        },
        {
            "constant": false,
            "inputs": [
                {
                    "name": "_charityName",
                    "type": "bytes32"
                },
                {
                    "name": "_score",
                    "type": "uint256"
                }
            ],
            "name": "addCharity",
            "outputs": [],
            "payable": false,
            "stateMutability": "nonpayable",
            "type": "function"
        },
        {
            "inputs": [
                {
                    "name": "_maxScore",
                    "type": "uint256"
                },
                {
                    "name": "_seedomAddress",
                    "type": "address"
                }
            ],
            "payable": false,
            "stateMutability": "nonpayable",
            "type": "constructor"
        },
        {
            "anonymous": false,
            "inputs": [
                {
                    "indexed": true,
                    "name": "_address",
                    "type": "address"
                },
                {
                    "indexed": true,
                    "name": "_charityIndex",
                    "type": "uint256"
                },
                {
                    "indexed": false,
                    "name": "_score",
                    "type": "uint256"
                }
            ],
            "name": "Vote",
            "type": "event"
        }
    ],
    "evm": {
        "bytecode": {
            "linkReferences": {},
            "object": "6060604052341561000f57600080fd5b604051604080610b5e833981016040528080519190602001805160008054600160a060020a03338116600160a060020a031992831617835560018790556005805482861693169290921791829055929450909116915063be4f3b0b9060405161018001526040518163ffffffff167c010000000000000000000000000000000000000000000000000000000002815260040161018060405180830381600087803b15156100bb57600080fd5b6102c65a03f115156100cc57600080fd5b505050604051805190602001805190602001805190602001805190602001805190602001805190602001805190602001805190602001805190602001805190602001805190602001805150506003555060025550505050505050505050610a26806101386000396000f30060606040526004361061008d5763ffffffff7c01000000000000000000000000000000000000000000000000000000006000350416630dc960158114610092578063195104b2146100f85780633197cbb61461011d57806348112c6f1461013057806383197ef0146102215780639446a06214610236578063b384abef14610263578063b7aa88371461027c575b600080fd5b341561009d57600080fd5b6100a5610295565b60405160208082528190810183818151815260200191508051906020019060200280838360005b838110156100e45780820151838201526020016100cc565b505050509050019250505060405180910390f35b341561010357600080fd5b61010b61034e565b60405190815260200160405180910390f35b341561012857600080fd5b61010b610354565b341561013b57600080fd5b61014361035a565b60405180806020018060200180602001848103845287818151815260200191508051906020019060200280838360005b8381101561018b578082015183820152602001610173565b50505050905001848103835286818151815260200191508051906020019060200280838360005b838110156101ca5780820151838201526020016101b2565b50505050905001848103825285818151815260200191508051906020019060200280838360005b838110156102095780820151838201526020016101f1565b50505050905001965050505050505060405180910390f35b341561022c57600080fd5b61023461048c565b005b341561024157600080fd5b61024f6004356024356104dc565b604051901515815260200160405180910390f35b341561026e57600080fd5b610234600435602435610685565b341561028757600080fd5b6102346004356024356107ab565b61029d610943565b60006102a7610943565b6004549150600080836040518059106102bd5750595b90808252806020026020018201604052509250600091505b838210156103455760048054839081106102eb57fe5b6000918252602080832073ffffffffffffffffffffffffffffffffffffffff331684526004600590930201918201905260409091205490915083838151811061033057fe5b602090810290910101526001909101906102d5565b50909392505050565b60035481565b60025481565b610362610943565b61036a610943565b610372610943565b600061037c610943565b610384610943565b61038c610943565b6004549350600080856040518059106103a25750595b90808252806020026020018201604052509450856040518059106103c35750595b90808252806020026020018201604052509350856040518059106103e45750595b90808252806020026020018201604052509250600091505b8582101561047e57600480548390811061041257fe5b90600052602060002090600502019050806000015485838151811061043357fe5b60209081029091010152600281015484838151811061044e57fe5b60209081029091010152600381015483838151811061046957fe5b602090810290910101526001909101906103fc565b509297919650945092505050565b60035442101561049b57600080fd5b6000543373ffffffffffffffffffffffffffffffffffffffff9081169116146104c357600080fd5b3373ffffffffffffffffffffffffffffffffffffffff16ff5b6000806000806000600254421015156104f457600080fd5b60055473ffffffffffffffffffffffffffffffffffffffff166309e69ede336000604051604001526040517c010000000000000000000000000000000000000000000000000000000063ffffffff841602815273ffffffffffffffffffffffffffffffffffffffff90911660048201526024016040805180830381600087803b151561057f57600080fd5b6102c65a03f1151561059057600080fd5b505050604051805190602001805150909450508315156105b3576000945061067b565b600092505b6004548310156106765760048054849081106105d057fe5b6000918252602090912060059091020180549092508614156105f5576000945061067b565b868314156106025761066b565b60018201543373ffffffffffffffffffffffffffffffffffffffff90811691161415610631576000945061067b565b5073ffffffffffffffffffffffffffffffffffffffff331660009081526004820160205260408120549081111561066b576000945061067b565b6001909201916105b8565b600194505b5050505092915050565b6000806002544210151561069857600080fd5b6001548311156106a757600080fd5b6106b28460006104dc565b15156106bd57600080fd5b60048054859081106106cb57fe5b6000918252602080832073ffffffffffffffffffffffffffffffffffffffff3316845260046005909302019182019052604082205490935091508111156107245760028201805482900390556003820180546000190190555b6000831115610743576002820180548401905560038201805460010190555b73ffffffffffffffffffffffffffffffffffffffff33166000818152600484016020526040908190208590558591907fafd3f234c1f8e944129b26b206d98e5752ad3336a4059938b4a3e990e95885309086905190815260200160405180910390a350505050565b6107b3610955565b60025460009042106107c457600080fd5b8315156107d057600080fd5b6001548311156107df57600080fd5b6004546107ec90856104dc565b15156107f757600080fd5b6080604051908101604090815285825273ffffffffffffffffffffffffffffffffffffffff3316602083015281018490526001606082018190526004805492945091908101610846838261097c565b6000928352602090922084916005020181518155602082015160018201805473ffffffffffffffffffffffffffffffffffffffff191673ffffffffffffffffffffffffffffffffffffffff9290921691909117905560408201518160020155606082015160039091015550506004805460001981019081106108c457fe5b600091825260208083203373ffffffffffffffffffffffffffffffffffffffff16808552600593909302016004818101909252604093849020879055905490935060001901917fafd3f234c1f8e944129b26b206d98e5752ad3336a4059938b4a3e990e95885309086905190815260200160405180910390a350505050565b60206040519081016040526000815290565b60806040519081016040908152600080835260208301819052908201819052606082015290565b8154818355818115116109a8576005028160050283600052602060002091820191016109a891906109ad565b505050565b6109f791905b808211156109f357600080825560018201805473ffffffffffffffffffffffffffffffffffffffff191690556002820181905560038201556005016109b3565b5090565b905600a165627a7a723058204ef8dc75aa6030d5a75601aa9d1fa070c189f86d521b3d1402a7b9e2a164d00f0029",
            "opcodes": "PUSH1 0x60 PUSH1 0x40 MSTORE CALLVALUE ISZERO PUSH2 0xF JUMPI PUSH1 0x0 DUP1 REVERT JUMPDEST PUSH1 0x40 MLOAD PUSH1 0x40 DUP1 PUSH2 0xB5E DUP4 CODECOPY DUP2 ADD PUSH1 0x40 MSTORE DUP1 DUP1 MLOAD SWAP2 SWAP1 PUSH1 0x20 ADD DUP1 MLOAD PUSH1 0x0 DUP1 SLOAD PUSH1 0x1 PUSH1 0xA0 PUSH1 0x2 EXP SUB CALLER DUP2 AND PUSH1 0x1 PUSH1 0xA0 PUSH1 0x2 EXP SUB NOT SWAP3 DUP4 AND OR DUP4 SSTORE PUSH1 0x1 DUP8 SWAP1 SSTORE PUSH1 0x5 DUP1 SLOAD DUP3 DUP7 AND SWAP4 AND SWAP3 SWAP1 SWAP3 OR SWAP2 DUP3 SWAP1 SSTORE SWAP3 SWAP5 POP SWAP1 SWAP2 AND SWAP2 POP PUSH4 0xBE4F3B0B SWAP1 PUSH1 0x40 MLOAD PUSH2 0x180 ADD MSTORE PUSH1 0x40 MLOAD DUP2 PUSH4 0xFFFFFFFF AND PUSH29 0x100000000000000000000000000000000000000000000000000000000 MUL DUP2 MSTORE PUSH1 0x4 ADD PUSH2 0x180 PUSH1 0x40 MLOAD DUP1 DUP4 SUB DUP2 PUSH1 0x0 DUP8 DUP1 EXTCODESIZE ISZERO ISZERO PUSH2 0xBB JUMPI PUSH1 0x0 DUP1 REVERT JUMPDEST PUSH2 0x2C6 GAS SUB CALL ISZERO ISZERO PUSH2 0xCC JUMPI PUSH1 0x0 DUP1 REVERT JUMPDEST POP POP POP PUSH1 0x40 MLOAD DUP1 MLOAD SWAP1 PUSH1 0x20 ADD DUP1 MLOAD SWAP1 PUSH1 0x20 ADD DUP1 MLOAD SWAP1 PUSH1 0x20 ADD DUP1 MLOAD SWAP1 PUSH1 0x20 ADD DUP1 MLOAD SWAP1 PUSH1 0x20 ADD DUP1 MLOAD SWAP1 PUSH1 0x20 ADD DUP1 MLOAD SWAP1 PUSH1 0x20 ADD DUP1 MLOAD SWAP1 PUSH1 0x20 ADD DUP1 MLOAD SWAP1 PUSH1 0x20 ADD DUP1 MLOAD SWAP1 PUSH1 0x20 ADD DUP1 MLOAD SWAP1 PUSH1 0x20 ADD DUP1 MLOAD POP POP PUSH1 0x3 SSTORE POP PUSH1 0x2 SSTORE POP POP POP POP POP POP POP POP POP POP PUSH2 0xA26 DUP1 PUSH2 0x138 PUSH1 0x0 CODECOPY PUSH1 0x0 RETURN STOP PUSH1 0x60 PUSH1 0x40 MSTORE PUSH1 0x4 CALLDATASIZE LT PUSH2 0x8D JUMPI PUSH4 0xFFFFFFFF PUSH29 0x100000000000000000000000000000000000000000000000000000000 PUSH1 0x0 CALLDATALOAD DIV AND PUSH4 0xDC96015 DUP2 EQ PUSH2 0x92 JUMPI DUP1 PUSH4 0x195104B2 EQ PUSH2 0xF8 JUMPI DUP1 PUSH4 0x3197CBB6 EQ PUSH2 0x11D JUMPI DUP1 PUSH4 0x48112C6F EQ PUSH2 0x130 JUMPI DUP1 PUSH4 0x83197EF0 EQ PUSH2 0x221 JUMPI DUP1 PUSH4 0x9446A062 EQ PUSH2 0x236 JUMPI DUP1 PUSH4 0xB384ABEF EQ PUSH2 0x263 JUMPI DUP1 PUSH4 0xB7AA8837 EQ PUSH2 0x27C JUMPI JUMPDEST PUSH1 0x0 DUP1 REVERT JUMPDEST CALLVALUE ISZERO PUSH2 0x9D JUMPI PUSH1 0x0 DUP1 REVERT JUMPDEST PUSH2 0xA5 PUSH2 0x295 JUMP JUMPDEST PUSH1 0x40 MLOAD PUSH1 0x20 DUP1 DUP3 MSTORE DUP2 SWAP1 DUP2 ADD DUP4 DUP2 DUP2 MLOAD DUP2 MSTORE PUSH1 0x20 ADD SWAP2 POP DUP1 MLOAD SWAP1 PUSH1 0x20 ADD SWAP1 PUSH1 0x20 MUL DUP1 DUP4 DUP4 PUSH1 0x0 JUMPDEST DUP4 DUP2 LT ISZERO PUSH2 0xE4 JUMPI DUP1 DUP3 ADD MLOAD DUP4 DUP3 ADD MSTORE PUSH1 0x20 ADD PUSH2 0xCC JUMP JUMPDEST POP POP POP POP SWAP1 POP ADD SWAP3 POP POP POP PUSH1 0x40 MLOAD DUP1 SWAP2 SUB SWAP1 RETURN JUMPDEST CALLVALUE ISZERO PUSH2 0x103 JUMPI PUSH1 0x0 DUP1 REVERT JUMPDEST PUSH2 0x10B PUSH2 0x34E JUMP JUMPDEST PUSH1 0x40 MLOAD SWAP1 DUP2 MSTORE PUSH1 0x20 ADD PUSH1 0x40 MLOAD DUP1 SWAP2 SUB SWAP1 RETURN JUMPDEST CALLVALUE ISZERO PUSH2 0x128 JUMPI PUSH1 0x0 DUP1 REVERT JUMPDEST PUSH2 0x10B PUSH2 0x354 JUMP JUMPDEST CALLVALUE ISZERO PUSH2 0x13B JUMPI PUSH1 0x0 DUP1 REVERT JUMPDEST PUSH2 0x143 PUSH2 0x35A JUMP JUMPDEST PUSH1 0x40 MLOAD DUP1 DUP1 PUSH1 0x20 ADD DUP1 PUSH1 0x20 ADD DUP1 PUSH1 0x20 ADD DUP5 DUP2 SUB DUP5 MSTORE DUP8 DUP2 DUP2 MLOAD DUP2 MSTORE PUSH1 0x20 ADD SWAP2 POP DUP1 MLOAD SWAP1 PUSH1 0x20 ADD SWAP1 PUSH1 0x20 MUL DUP1 DUP4 DUP4 PUSH1 0x0 JUMPDEST DUP4 DUP2 LT ISZERO PUSH2 0x18B JUMPI DUP1 DUP3 ADD MLOAD DUP4 DUP3 ADD MSTORE PUSH1 0x20 ADD PUSH2 0x173 JUMP JUMPDEST POP POP POP POP SWAP1 POP ADD DUP5 DUP2 SUB DUP4 MSTORE DUP7 DUP2 DUP2 MLOAD DUP2 MSTORE PUSH1 0x20 ADD SWAP2 POP DUP1 MLOAD SWAP1 PUSH1 0x20 ADD SWAP1 PUSH1 0x20 MUL DUP1 DUP4 DUP4 PUSH1 0x0 JUMPDEST DUP4 DUP2 LT ISZERO PUSH2 0x1CA JUMPI DUP1 DUP3 ADD MLOAD DUP4 DUP3 ADD MSTORE PUSH1 0x20 ADD PUSH2 0x1B2 JUMP JUMPDEST POP POP POP POP SWAP1 POP ADD DUP5 DUP2 SUB DUP3 MSTORE DUP6 DUP2 DUP2 MLOAD DUP2 MSTORE PUSH1 0x20 ADD SWAP2 POP DUP1 MLOAD SWAP1 PUSH1 0x20 ADD SWAP1 PUSH1 0x20 MUL DUP1 DUP4 DUP4 PUSH1 0x0 JUMPDEST DUP4 DUP2 LT ISZERO PUSH2 0x209 JUMPI DUP1 DUP3 ADD MLOAD DUP4 DUP3 ADD MSTORE PUSH1 0x20 ADD PUSH2 0x1F1 JUMP JUMPDEST POP POP POP POP SWAP1 POP ADD SWAP7 POP POP POP POP POP POP POP PUSH1 0x40 MLOAD DUP1 SWAP2 SUB SWAP1 RETURN JUMPDEST CALLVALUE ISZERO PUSH2 0x22C JUMPI PUSH1 0x0 DUP1 REVERT JUMPDEST PUSH2 0x234 PUSH2 0x48C JUMP JUMPDEST STOP JUMPDEST CALLVALUE ISZERO PUSH2 0x241 JUMPI PUSH1 0x0 DUP1 REVERT JUMPDEST PUSH2 0x24F PUSH1 0x4 CALLDATALOAD PUSH1 0x24 CALLDATALOAD PUSH2 0x4DC JUMP JUMPDEST PUSH1 0x40 MLOAD SWAP1 ISZERO ISZERO DUP2 MSTORE PUSH1 0x20 ADD PUSH1 0x40 MLOAD DUP1 SWAP2 SUB SWAP1 RETURN JUMPDEST CALLVALUE ISZERO PUSH2 0x26E JUMPI PUSH1 0x0 DUP1 REVERT JUMPDEST PUSH2 0x234 PUSH1 0x4 CALLDATALOAD PUSH1 0x24 CALLDATALOAD PUSH2 0x685 JUMP JUMPDEST CALLVALUE ISZERO PUSH2 0x287 JUMPI PUSH1 0x0 DUP1 REVERT JUMPDEST PUSH2 0x234 PUSH1 0x4 CALLDATALOAD PUSH1 0x24 CALLDATALOAD PUSH2 0x7AB JUMP JUMPDEST PUSH2 0x29D PUSH2 0x943 JUMP JUMPDEST PUSH1 0x0 PUSH2 0x2A7 PUSH2 0x943 JUMP JUMPDEST PUSH1 0x4 SLOAD SWAP2 POP PUSH1 0x0 DUP1 DUP4 PUSH1 0x40 MLOAD DUP1 MSIZE LT PUSH2 0x2BD JUMPI POP MSIZE JUMPDEST SWAP1 DUP1 DUP3 MSTORE DUP1 PUSH1 0x20 MUL PUSH1 0x20 ADD DUP3 ADD PUSH1 0x40 MSTORE POP SWAP3 POP PUSH1 0x0 SWAP2 POP JUMPDEST DUP4 DUP3 LT ISZERO PUSH2 0x345 JUMPI PUSH1 0x4 DUP1 SLOAD DUP4 SWAP1 DUP2 LT PUSH2 0x2EB JUMPI INVALID JUMPDEST PUSH1 0x0 SWAP2 DUP3 MSTORE PUSH1 0x20 DUP1 DUP4 KECCAK256 PUSH20 0xFFFFFFFFFFFFFFFFFFFFFFFFFFFFFFFFFFFFFFFF CALLER AND DUP5 MSTORE PUSH1 0x4 PUSH1 0x5 SWAP1 SWAP4 MUL ADD SWAP2 DUP3 ADD SWAP1 MSTORE PUSH1 0x40 SWAP1 SWAP2 KECCAK256 SLOAD SWAP1 SWAP2 POP DUP4 DUP4 DUP2 MLOAD DUP2 LT PUSH2 0x330 JUMPI INVALID JUMPDEST PUSH1 0x20 SWAP1 DUP2 MUL SWAP1 SWAP2 ADD ADD MSTORE PUSH1 0x1 SWAP1 SWAP2 ADD SWAP1 PUSH2 0x2D5 JUMP JUMPDEST POP SWAP1 SWAP4 SWAP3 POP POP POP JUMP JUMPDEST PUSH1 0x3 SLOAD DUP2 JUMP JUMPDEST PUSH1 0x2 SLOAD DUP2 JUMP JUMPDEST PUSH2 0x362 PUSH2 0x943 JUMP JUMPDEST PUSH2 0x36A PUSH2 0x943 JUMP JUMPDEST PUSH2 0x372 PUSH2 0x943 JUMP JUMPDEST PUSH1 0x0 PUSH2 0x37C PUSH2 0x943 JUMP JUMPDEST PUSH2 0x384 PUSH2 0x943 JUMP JUMPDEST PUSH2 0x38C PUSH2 0x943 JUMP JUMPDEST PUSH1 0x4 SLOAD SWAP4 POP PUSH1 0x0 DUP1 DUP6 PUSH1 0x40 MLOAD DUP1 MSIZE LT PUSH2 0x3A2 JUMPI POP MSIZE JUMPDEST SWAP1 DUP1 DUP3 MSTORE DUP1 PUSH1 0x20 MUL PUSH1 0x20 ADD DUP3 ADD PUSH1 0x40 MSTORE POP SWAP5 POP DUP6 PUSH1 0x40 MLOAD DUP1 MSIZE LT PUSH2 0x3C3 JUMPI POP MSIZE JUMPDEST SWAP1 DUP1 DUP3 MSTORE DUP1 PUSH1 0x20 MUL PUSH1 0x20 ADD DUP3 ADD PUSH1 0x40 MSTORE POP SWAP4 POP DUP6 PUSH1 0x40 MLOAD DUP1 MSIZE LT PUSH2 0x3E4 JUMPI POP MSIZE JUMPDEST SWAP1 DUP1 DUP3 MSTORE DUP1 PUSH1 0x20 MUL PUSH1 0x20 ADD DUP3 ADD PUSH1 0x40 MSTORE POP SWAP3 POP PUSH1 0x0 SWAP2 POP JUMPDEST DUP6 DUP3 LT ISZERO PUSH2 0x47E JUMPI PUSH1 0x4 DUP1 SLOAD DUP4 SWAP1 DUP2 LT PUSH2 0x412 JUMPI INVALID JUMPDEST SWAP1 PUSH1 0x0 MSTORE PUSH1 0x20 PUSH1 0x0 KECCAK256 SWAP1 PUSH1 0x5 MUL ADD SWAP1 POP DUP1 PUSH1 0x0 ADD SLOAD DUP6 DUP4 DUP2 MLOAD DUP2 LT PUSH2 0x433 JUMPI INVALID JUMPDEST PUSH1 0x20 SWAP1 DUP2 MUL SWAP1 SWAP2 ADD ADD MSTORE PUSH1 0x2 DUP2 ADD SLOAD DUP5 DUP4 DUP2 MLOAD DUP2 LT PUSH2 0x44E JUMPI INVALID JUMPDEST PUSH1 0x20 SWAP1 DUP2 MUL SWAP1 SWAP2 ADD ADD MSTORE PUSH1 0x3 DUP2 ADD SLOAD DUP4 DUP4 DUP2 MLOAD DUP2 LT PUSH2 0x469 JUMPI INVALID JUMPDEST PUSH1 0x20 SWAP1 DUP2 MUL SWAP1 SWAP2 ADD ADD MSTORE PUSH1 0x1 SWAP1 SWAP2 ADD SWAP1 PUSH2 0x3FC JUMP JUMPDEST POP SWAP3 SWAP8 SWAP2 SWAP7 POP SWAP5 POP SWAP3 POP POP POP JUMP JUMPDEST PUSH1 0x3 SLOAD TIMESTAMP LT ISZERO PUSH2 0x49B JUMPI PUSH1 0x0 DUP1 REVERT JUMPDEST PUSH1 0x0 SLOAD CALLER PUSH20 0xFFFFFFFFFFFFFFFFFFFFFFFFFFFFFFFFFFFFFFFF SWAP1 DUP2 AND SWAP2 AND EQ PUSH2 0x4C3 JUMPI PUSH1 0x0 DUP1 REVERT JUMPDEST CALLER PUSH20 0xFFFFFFFFFFFFFFFFFFFFFFFFFFFFFFFFFFFFFFFF AND SELFDESTRUCT JUMPDEST PUSH1 0x0 DUP1 PUSH1 0x0 DUP1 PUSH1 0x0 PUSH1 0x2 SLOAD TIMESTAMP LT ISZERO ISZERO PUSH2 0x4F4 JUMPI PUSH1 0x0 DUP1 REVERT JUMPDEST PUSH1 0x5 SLOAD PUSH20 0xFFFFFFFFFFFFFFFFFFFFFFFFFFFFFFFFFFFFFFFF AND PUSH4 0x9E69EDE CALLER PUSH1 0x0 PUSH1 0x40 MLOAD PUSH1 0x40 ADD MSTORE PUSH1 0x40 MLOAD PUSH29 0x100000000000000000000000000000000000000000000000000000000 PUSH4 0xFFFFFFFF DUP5 AND MUL DUP2 MSTORE PUSH20 0xFFFFFFFFFFFFFFFFFFFFFFFFFFFFFFFFFFFFFFFF SWAP1 SWAP2 AND PUSH1 0x4 DUP3 ADD MSTORE PUSH1 0x24 ADD PUSH1 0x40 DUP1 MLOAD DUP1 DUP4 SUB DUP2 PUSH1 0x0 DUP8 DUP1 EXTCODESIZE ISZERO ISZERO PUSH2 0x57F JUMPI PUSH1 0x0 DUP1 REVERT JUMPDEST PUSH2 0x2C6 GAS SUB CALL ISZERO ISZERO PUSH2 0x590 JUMPI PUSH1 0x0 DUP1 REVERT JUMPDEST POP POP POP PUSH1 0x40 MLOAD DUP1 MLOAD SWAP1 PUSH1 0x20 ADD DUP1 MLOAD POP SWAP1 SWAP5 POP POP DUP4 ISZERO ISZERO PUSH2 0x5B3 JUMPI PUSH1 0x0 SWAP5 POP PUSH2 0x67B JUMP JUMPDEST PUSH1 0x0 SWAP3 POP JUMPDEST PUSH1 0x4 SLOAD DUP4 LT ISZERO PUSH2 0x676 JUMPI PUSH1 0x4 DUP1 SLOAD DUP5 SWAP1 DUP2 LT PUSH2 0x5D0 JUMPI INVALID JUMPDEST PUSH1 0x0 SWAP2 DUP3 MSTORE PUSH1 0x20 SWAP1 SWAP2 KECCAK256 PUSH1 0x5 SWAP1 SWAP2 MUL ADD DUP1 SLOAD SWAP1 SWAP3 POP DUP7 EQ ISZERO PUSH2 0x5F5 JUMPI PUSH1 0x0 SWAP5 POP PUSH2 0x67B JUMP JUMPDEST DUP7 DUP4 EQ ISZERO PUSH2 0x602 JUMPI PUSH2 0x66B JUMP JUMPDEST PUSH1 0x1 DUP3 ADD SLOAD CALLER PUSH20 0xFFFFFFFFFFFFFFFFFFFFFFFFFFFFFFFFFFFFFFFF SWAP1 DUP2 AND SWAP2 AND EQ ISZERO PUSH2 0x631 JUMPI PUSH1 0x0 SWAP5 POP PUSH2 0x67B JUMP JUMPDEST POP PUSH20 0xFFFFFFFFFFFFFFFFFFFFFFFFFFFFFFFFFFFFFFFF CALLER AND PUSH1 0x0 SWAP1 DUP2 MSTORE PUSH1 0x4 DUP3 ADD PUSH1 0x20 MSTORE PUSH1 0x40 DUP2 KECCAK256 SLOAD SWAP1 DUP2 GT ISZERO PUSH2 0x66B JUMPI PUSH1 0x0 SWAP5 POP PUSH2 0x67B JUMP JUMPDEST PUSH1 0x1 SWAP1 SWAP3 ADD SWAP2 PUSH2 0x5B8 JUMP JUMPDEST PUSH1 0x1 SWAP5 POP JUMPDEST POP POP POP POP SWAP3 SWAP2 POP POP JUMP JUMPDEST PUSH1 0x0 DUP1 PUSH1 0x2 SLOAD TIMESTAMP LT ISZERO ISZERO PUSH2 0x698 JUMPI PUSH1 0x0 DUP1 REVERT JUMPDEST PUSH1 0x1 SLOAD DUP4 GT ISZERO PUSH2 0x6A7 JUMPI PUSH1 0x0 DUP1 REVERT JUMPDEST PUSH2 0x6B2 DUP5 PUSH1 0x0 PUSH2 0x4DC JUMP JUMPDEST ISZERO ISZERO PUSH2 0x6BD JUMPI PUSH1 0x0 DUP1 REVERT JUMPDEST PUSH1 0x4 DUP1 SLOAD DUP6 SWAP1 DUP2 LT PUSH2 0x6CB JUMPI INVALID JUMPDEST PUSH1 0x0 SWAP2 DUP3 MSTORE PUSH1 0x20 DUP1 DUP4 KECCAK256 PUSH20 0xFFFFFFFFFFFFFFFFFFFFFFFFFFFFFFFFFFFFFFFF CALLER AND DUP5 MSTORE PUSH1 0x4 PUSH1 0x5 SWAP1 SWAP4 MUL ADD SWAP2 DUP3 ADD SWAP1 MSTORE PUSH1 0x40 DUP3 KECCAK256 SLOAD SWAP1 SWAP4 POP SWAP2 POP DUP2 GT ISZERO PUSH2 0x724 JUMPI PUSH1 0x2 DUP3 ADD DUP1 SLOAD DUP3 SWAP1 SUB SWAP1 SSTORE PUSH1 0x3 DUP3 ADD DUP1 SLOAD PUSH1 0x0 NOT ADD SWAP1 SSTORE JUMPDEST PUSH1 0x0 DUP4 GT ISZERO PUSH2 0x743 JUMPI PUSH1 0x2 DUP3 ADD DUP1 SLOAD DUP5 ADD SWAP1 SSTORE PUSH1 0x3 DUP3 ADD DUP1 SLOAD PUSH1 0x1 ADD SWAP1 SSTORE JUMPDEST PUSH20 0xFFFFFFFFFFFFFFFFFFFFFFFFFFFFFFFFFFFFFFFF CALLER AND PUSH1 0x0 DUP2 DUP2 MSTORE PUSH1 0x4 DUP5 ADD PUSH1 0x20 MSTORE PUSH1 0x40 SWAP1 DUP2 SWAP1 KECCAK256 DUP6 SWAP1 SSTORE DUP6 SWAP2 SWAP1 PUSH32 0xAFD3F234C1F8E944129B26B206D98E5752AD3336A4059938B4A3E990E9588530 SWAP1 DUP7 SWAP1 MLOAD SWAP1 DUP2 MSTORE PUSH1 0x20 ADD PUSH1 0x40 MLOAD DUP1 SWAP2 SUB SWAP1 LOG3 POP POP POP POP JUMP JUMPDEST PUSH2 0x7B3 PUSH2 0x955 JUMP JUMPDEST PUSH1 0x2 SLOAD PUSH1 0x0 SWAP1 TIMESTAMP LT PUSH2 0x7C4 JUMPI PUSH1 0x0 DUP1 REVERT JUMPDEST DUP4 ISZERO ISZERO PUSH2 0x7D0 JUMPI PUSH1 0x0 DUP1 REVERT JUMPDEST PUSH1 0x1 SLOAD DUP4 GT ISZERO PUSH2 0x7DF JUMPI PUSH1 0x0 DUP1 REVERT JUMPDEST PUSH1 0x4 SLOAD PUSH2 0x7EC SWAP1 DUP6 PUSH2 0x4DC JUMP JUMPDEST ISZERO ISZERO PUSH2 0x7F7 JUMPI PUSH1 0x0 DUP1 REVERT JUMPDEST PUSH1 0x80 PUSH1 0x40 MLOAD SWAP1 DUP2 ADD PUSH1 0x40 SWAP1 DUP2 MSTORE DUP6 DUP3 MSTORE PUSH20 0xFFFFFFFFFFFFFFFFFFFFFFFFFFFFFFFFFFFFFFFF CALLER AND PUSH1 0x20 DUP4 ADD MSTORE DUP2 ADD DUP5 SWAP1 MSTORE PUSH1 0x1 PUSH1 0x60 DUP3 ADD DUP2 SWAP1 MSTORE PUSH1 0x4 DUP1 SLOAD SWAP3 SWAP5 POP SWAP2 SWAP1 DUP2 ADD PUSH2 0x846 DUP4 DUP3 PUSH2 0x97C JUMP JUMPDEST PUSH1 0x0 SWAP3 DUP4 MSTORE PUSH1 0x20 SWAP1 SWAP3 KECCAK256 DUP5 SWAP2 PUSH1 0x5 MUL ADD DUP2 MLOAD DUP2 SSTORE PUSH1 0x20 DUP3 ADD MLOAD PUSH1 0x1 DUP3 ADD DUP1 SLOAD PUSH20 0xFFFFFFFFFFFFFFFFFFFFFFFFFFFFFFFFFFFFFFFF NOT AND PUSH20 0xFFFFFFFFFFFFFFFFFFFFFFFFFFFFFFFFFFFFFFFF SWAP3 SWAP1 SWAP3 AND SWAP2 SWAP1 SWAP2 OR SWAP1 SSTORE PUSH1 0x40 DUP3 ADD MLOAD DUP2 PUSH1 0x2 ADD SSTORE PUSH1 0x60 DUP3 ADD MLOAD PUSH1 0x3 SWAP1 SWAP2 ADD SSTORE POP POP PUSH1 0x4 DUP1 SLOAD PUSH1 0x0 NOT DUP2 ADD SWAP1 DUP2 LT PUSH2 0x8C4 JUMPI INVALID JUMPDEST PUSH1 0x0 SWAP2 DUP3 MSTORE PUSH1 0x20 DUP1 DUP4 KECCAK256 CALLER PUSH20 0xFFFFFFFFFFFFFFFFFFFFFFFFFFFFFFFFFFFFFFFF AND DUP1 DUP6 MSTORE PUSH1 0x5 SWAP4 SWAP1 SWAP4 MUL ADD PUSH1 0x4 DUP2 DUP2 ADD SWAP1 SWAP3 MSTORE PUSH1 0x40 SWAP4 DUP5 SWAP1 KECCAK256 DUP8 SWAP1 SSTORE SWAP1 SLOAD SWAP1 SWAP4 POP PUSH1 0x0 NOT ADD SWAP2 PUSH32 0xAFD3F234C1F8E944129B26B206D98E5752AD3336A4059938B4A3E990E9588530 SWAP1 DUP7 SWAP1 MLOAD SWAP1 DUP2 MSTORE PUSH1 0x20 ADD PUSH1 0x40 MLOAD DUP1 SWAP2 SUB SWAP1 LOG3 POP POP POP POP JUMP JUMPDEST PUSH1 0x20 PUSH1 0x40 MLOAD SWAP1 DUP2 ADD PUSH1 0x40 MSTORE PUSH1 0x0 DUP2 MSTORE SWAP1 JUMP JUMPDEST PUSH1 0x80 PUSH1 0x40 MLOAD SWAP1 DUP2 ADD PUSH1 0x40 SWAP1 DUP2 MSTORE PUSH1 0x0 DUP1 DUP4 MSTORE PUSH1 0x20 DUP4 ADD DUP2 SWAP1 MSTORE SWAP1 DUP3 ADD DUP2 SWAP1 MSTORE PUSH1 0x60 DUP3 ADD MSTORE SWAP1 JUMP JUMPDEST DUP2 SLOAD DUP2 DUP4 SSTORE DUP2 DUP2 ISZERO GT PUSH2 0x9A8 JUMPI PUSH1 0x5 MUL DUP2 PUSH1 0x5 MUL DUP4 PUSH1 0x0 MSTORE PUSH1 0x20 PUSH1 0x0 KECCAK256 SWAP2 DUP3 ADD SWAP2 ADD PUSH2 0x9A8 SWAP2 SWAP1 PUSH2 0x9AD JUMP JUMPDEST POP POP POP JUMP JUMPDEST PUSH2 0x9F7 SWAP2 SWAP1 JUMPDEST DUP1 DUP3 GT ISZERO PUSH2 0x9F3 JUMPI PUSH1 0x0 DUP1 DUP3 SSTORE PUSH1 0x1 DUP3 ADD DUP1 SLOAD PUSH20 0xFFFFFFFFFFFFFFFFFFFFFFFFFFFFFFFFFFFFFFFF NOT AND SWAP1 SSTORE PUSH1 0x2 DUP3 ADD DUP2 SWAP1 SSTORE PUSH1 0x3 DUP3 ADD SSTORE PUSH1 0x5 ADD PUSH2 0x9B3 JUMP JUMPDEST POP SWAP1 JUMP JUMPDEST SWAP1 JUMP STOP LOG1 PUSH6 0x627A7A723058 KECCAK256 0x4e 0xf8 0xdc PUSH22 0xAA6030D5A75601AA9D1FA070C189F86D521B3D1402A7 0xb9 0xe2 LOG1 PUSH5 0xD00F002900 "
        }
    },
    "methods": {
        "getVotes": [],
        "destructTime": [],
        "endTime": [],
        "getCharities": [],
        "destroy": [],
        "hasRight": [
            "_forCharityIndex",
            "_forCharityName"
        ],
        "vote": [
            "_charityIndex",
            "_score"
        ],
        "addCharity": [
            "_charityName",
            "_score"
        ]
    }
}