{
    "abi": [
        {
            "constant": false,
            "inputs": [
                {
                    "name": "_hashedRandom",
                    "type": "bytes32"
                }
            ],
            "name": "participate",
            "outputs": [],
            "payable": true,
            "stateMutability": "payable",
            "type": "function"
        },
        {
            "constant": true,
            "inputs": [
                {
                    "name": "",
                    "type": "uint256"
                }
            ],
            "name": "participants",
            "outputs": [
                {
                    "name": "",
                    "type": "address"
                }
            ],
            "payable": false,
            "stateMutability": "view",
            "type": "function"
        },
        {
            "constant": false,
            "inputs": [],
            "name": "withdraw",
            "outputs": [],
            "payable": false,
            "stateMutability": "nonpayable",
            "type": "function"
        },
        {
            "constant": false,
            "inputs": [
                {
                    "name": "_charityHashedRandom",
                    "type": "bytes32"
                }
            ],
            "name": "seed",
            "outputs": [],
            "payable": false,
            "stateMutability": "nonpayable",
            "type": "function"
        },
        {
            "constant": false,
            "inputs": [
                {
                    "name": "_charityRandom",
                    "type": "bytes32"
                }
            ],
            "name": "end",
            "outputs": [],
            "payable": false,
            "stateMutability": "nonpayable",
            "type": "function"
        },
        {
            "constant": false,
            "inputs": [
                {
                    "name": "_random",
                    "type": "bytes32"
                }
            ],
            "name": "reveal",
            "outputs": [],
            "payable": false,
            "stateMutability": "nonpayable",
            "type": "function"
        },
        {
            "constant": true,
            "inputs": [
                {
                    "name": "",
                    "type": "uint256"
                }
            ],
            "name": "revealers",
            "outputs": [
                {
                    "name": "",
                    "type": "address"
                }
            ],
            "payable": false,
            "stateMutability": "view",
            "type": "function"
        },
        {
            "constant": false,
            "inputs": [],
            "name": "destroy",
            "outputs": [],
            "payable": false,
            "stateMutability": "nonpayable",
            "type": "function"
        },
        {
            "constant": true,
            "inputs": [],
            "name": "balance",
            "outputs": [
                {
                    "name": "",
                    "type": "uint256"
                }
            ],
            "payable": false,
            "stateMutability": "view",
            "type": "function"
        },
        {
            "constant": true,
            "inputs": [],
            "name": "raiser",
            "outputs": [
                {
                    "name": "_owner",
                    "type": "address"
                },
                {
                    "name": "_charity",
                    "type": "address"
                },
                {
                    "name": "_charitySplit",
                    "type": "uint256"
                },
                {
                    "name": "_winnerSplit",
                    "type": "uint256"
                },
                {
                    "name": "_ownerSplit",
                    "type": "uint256"
                },
                {
                    "name": "_valuePerEntry",
                    "type": "uint256"
                },
                {
                    "name": "_deployTime",
                    "type": "uint256"
                },
                {
                    "name": "_revealTime",
                    "type": "uint256"
                },
                {
                    "name": "_endTime",
                    "type": "uint256"
                },
                {
                    "name": "_expireTime",
                    "type": "uint256"
                },
                {
                    "name": "_destructTime",
                    "type": "uint256"
                },
                {
                    "name": "_maxParticipants",
                    "type": "uint256"
                }
            ],
            "payable": false,
            "stateMutability": "view",
            "type": "function"
        },
        {
            "constant": true,
            "inputs": [],
            "name": "state",
            "outputs": [
                {
                    "name": "_charityHashedRandom",
                    "type": "bytes32"
                },
                {
                    "name": "_winner",
                    "type": "address"
                },
                {
                    "name": "_winnerRandom",
                    "type": "bytes32"
                },
                {
                    "name": "_cancelled",
                    "type": "bool"
                },
                {
                    "name": "_totalParticipants",
                    "type": "uint256"
                },
                {
                    "name": "_totalEntries",
                    "type": "uint256"
                },
                {
                    "name": "_totalRevealers",
                    "type": "uint256"
                },
                {
                    "name": "_totalRevealed",
                    "type": "uint256"
                }
            ],
            "payable": false,
            "stateMutability": "view",
            "type": "function"
        },
        {
            "constant": false,
            "inputs": [],
            "name": "cancel",
            "outputs": [],
            "payable": false,
            "stateMutability": "nonpayable",
            "type": "function"
        },
        {
            "constant": true,
            "inputs": [
                {
                    "name": "",
                    "type": "address"
                }
            ],
            "name": "participantsMapping",
            "outputs": [
                {
                    "name": "_entries",
                    "type": "uint256"
                },
                {
                    "name": "_hashedRandom",
                    "type": "bytes32"
                },
                {
                    "name": "_random",
                    "type": "bytes32"
                }
            ],
            "payable": false,
            "stateMutability": "view",
            "type": "function"
        },
        {
            "inputs": [
                {
                    "name": "_charity",
                    "type": "address"
                },
                {
                    "name": "_charitySplit",
                    "type": "uint256"
                },
                {
                    "name": "_winnerSplit",
                    "type": "uint256"
                },
                {
                    "name": "_ownerSplit",
                    "type": "uint256"
                },
                {
                    "name": "_valuePerEntry",
                    "type": "uint256"
                },
                {
                    "name": "_revealTime",
                    "type": "uint256"
                },
                {
                    "name": "_endTime",
                    "type": "uint256"
                },
                {
                    "name": "_expireTime",
                    "type": "uint256"
                },
                {
                    "name": "_destructTime",
                    "type": "uint256"
                },
                {
                    "name": "_maxParticipants",
                    "type": "uint256"
                }
            ],
            "payable": false,
            "stateMutability": "nonpayable",
            "type": "constructor"
        },
        {
            "payable": true,
            "stateMutability": "payable",
            "type": "fallback"
        },
        {
            "anonymous": false,
            "inputs": [
                {
                    "indexed": false,
                    "name": "_charityHashedRandom",
                    "type": "bytes32"
                }
            ],
            "name": "Seed",
            "type": "event"
        },
        {
            "anonymous": false,
            "inputs": [
                {
                    "indexed": false,
                    "name": "_participant",
                    "type": "address"
                },
                {
                    "indexed": false,
                    "name": "_entries",
                    "type": "uint256"
                },
                {
                    "indexed": false,
                    "name": "_hashedRandom",
                    "type": "bytes32"
                }
            ],
            "name": "Participation",
            "type": "event"
        },
        {
            "anonymous": false,
            "inputs": [
                {
                    "indexed": false,
                    "name": "_participant",
                    "type": "address"
                },
                {
                    "indexed": false,
                    "name": "_entries",
                    "type": "uint256"
                },
                {
                    "indexed": false,
                    "name": "_refund",
                    "type": "uint256"
                }
            ],
            "name": "Raise",
            "type": "event"
        },
        {
            "anonymous": false,
            "inputs": [
                {
                    "indexed": false,
                    "name": "_participant",
                    "type": "address"
                },
                {
                    "indexed": false,
                    "name": "_random",
                    "type": "bytes32"
                },
                {
                    "indexed": false,
                    "name": "_entries",
                    "type": "uint256"
                }
            ],
            "name": "Revelation",
            "type": "event"
        },
        {
            "anonymous": false,
            "inputs": [
                {
                    "indexed": false,
                    "name": "_participant",
                    "type": "address"
                },
                {
                    "indexed": false,
                    "name": "_random",
                    "type": "bytes32"
                }
            ],
            "name": "Win",
            "type": "event"
        },
        {
            "anonymous": false,
            "inputs": [],
            "name": "Cancellation",
            "type": "event"
        },
        {
            "anonymous": false,
            "inputs": [
                {
                    "indexed": false,
                    "name": "_address",
                    "type": "address"
                }
            ],
            "name": "Withdrawal",
            "type": "event"
        }
    ],
    "evm": {
        "bytecode": {
            "linkReferences": {},
            "object": "6060604052341561000f57600080fd5b6040516101408061129383398101604052808051919060200180519190602001805191906020018051919060200180519190602001805191906020018051919060200180519190602001805191906020018051915050600160a060020a038a16151561007a57600080fd5b88151561008657600080fd5b87151561009257600080fd5b6103e88989018801146100a457600080fd5b8515156100b057600080fd5b428510156100bd57600080fd5b8484116100c957600080fd5b8383116100d557600080fd5b8282116100e157600080fd5b6101806040519081016040528033600160a060020a031681526020018b600160a060020a031681526020018a8152602001898152602001888152602001878152602001428152602001868152602001858152602001848152602001838152602001828152506000808201518154600160a060020a031916600160a060020a03919091161781556020820151600182018054600160a060020a031916600160a060020a039290921691909117905560408201518160020155606082015181600301556080820151816004015560a0820151816005015560c0820151816006015560e082015181600701556101008201518160080155610120820151816009015561014082015181600a0155610160820151600b909101555050505050505050505050611082806102116000396000f3006060604052600436106100c45763ffffffff7c01000000000000000000000000000000000000000000000000000000006000350416630a14504c81146101cd57806335c1d349146101da5780633ccfd60b1461020c57806365bf50351461021f5780637015913c14610235578063701fd0f11461024b5780637988dfa01461026157806383197ef014610277578063b69ef8a81461028a578063be4f3b0b146102af578063c19d93fb14610330578063ea8a1af014610392578063ef2f0588146103a5575b600f546000908190819015156100d957600080fd5b601054600160a060020a0316156100ef57600080fd5b60135460ff16156100ff57600080fd5b60005433600160a060020a039081169116141561011b57600080fd5b600754421061012957600080fd5b6000341161013657600080fd5b600160a060020a0333166000908152600c602052604090206001810154909350151561016157600080fd5b61016a836103e8565b90925090507f11df61431069ecb6bffb62f185491e4adc966b75b0648630ea30f60cfff8a9e53383836040518084600160a060020a0316600160a060020a03168152602001838152602001828152602001935050505060405180910390a1505050005b6101d8600435610469565b005b34156101e557600080fd5b6101f06004356105ed565b604051600160a060020a03909116815260200160405180910390f35b341561021757600080fd5b6101d8610615565b341561022a57600080fd5b6101d860043561076b565b341561024057600080fd5b6101d860043561080e565b341561025657600080fd5b6101d86004356109c7565b341561026c57600080fd5b6101f0600435610b6d565b341561028257600080fd5b6101d8610b7b565b341561029557600080fd5b61029d610bb1565b60405190815260200160405180910390f35b34156102ba57600080fd5b6102c2610cd3565b604051600160a060020a039c8d1681529a909b1660208b01526040808b019990995260608a0197909752608089019590955260a088019390935260c087019190915260e086015261010085015261012084015261014083015261016082019290925261018001905180910390f35b341561033b57600080fd5b610343610d0a565b604051978852600160a060020a0390961660208801526040808801959095529215156060870152608086019190915260a085015260c084015260e0830191909152610100909101905180910390f35b341561039d57600080fd5b6101d8610d4e565b34156103b057600080fd5b6103c4600160a060020a0360043516610df1565b60405192835260208301919091526040808301919091526060909101905180910390f35b600080600060050154348115156103fb57fe5b049150600182101561040c57600080fd5b82548201835560118054830190556005543481151561042757fe5b069050600081111561046457600160a060020a03331681156108fc0282604051600060405180830381858888f19350505050151561046457600080fd5b915091565b600f54600090151561047a57600080fd5b601054600160a060020a03161561049057600080fd5b60135460ff16156104a057600080fd5b60005433600160a060020a03908116911614156104bc57600080fd5b60075442106104ca57600080fd5b8115156104d657600080fd5b600b5415806104e85750600b54600d54105b15156104f357600080fd5b50600160a060020a0333166000908152600c6020526040902080541561051857600080fd5b60018101541561052757600080fd5b60028101541561053657600080fd5b6001808201839055600d8054909181016105508382610fda565b5060009182526020822001805473ffffffffffffffffffffffffffffffffffffffff191633600160a060020a031617905534111561059457610591816103e8565b50505b7f09025cef529ef45a11096309bf75556358c7ca4d54085a170af6a8bcf4e5d35633826000015484604051600160a060020a03909316835260208301919091526040808301919091526060909101905180910390a15050565b600d8054829081106105fb57fe5b600091825260209091200154600160a060020a0316905081565b600080610620610bb1565b91506000821161062f57600080fd5b601054600160a060020a0316156106d15760015433600160a060020a039081169116141561066b576013805461ff0019166101001790556106cc565b60105433600160a060020a0390811691161415610698576013805462ff00001916620100001790556106cc565b60005433600160a060020a03908116911614156106c7576013805463ff000000191663010000001790556106cc565b600080fd5b6106f9565b60135460ff16156106c75750600160a060020a0333166000908152600c602052604081209081555b600160a060020a03331682156108fc0283604051600060405180830381858888f19350505050151561072a57600080fd5b7fe19ed71156e31b3c9e18ac7ad8d1b79f0a0feb3be18d23dae612e52040aada4b33604051600160a060020a03909116815260200160405180910390a15050565b60015433600160a060020a0390811691161461078657600080fd5b600754421061079457600080fd5b601054600160a060020a0316156107aa57600080fd5b60135460ff16156107ba57600080fd5b600f54156107c757600080fd5b8015156107d357600080fd5b600f8190557fda4d6ec5231d2c0c6df0363ca304c820da85c4c675c7b68df26970cef46c6b2b8160405190815260200160405180910390a150565b610816611003565b600080610821611015565b600f54151561082f57600080fd5b601054600160a060020a03161561084557600080fd5b60135460ff161561085557600080fd5b60015433600160a060020a0390811691161461087057600080fd5b60085442101561087f57600080fd5b8433604051918252600160a060020a03166c01000000000000000000000000026020820152603401604051908190039020600f54146108bd57600080fd5b600e546040518059106108cd5750595b908082528060200260200182016040525093506108ea8585610e12565b601254909350838115156108fa57fe5b0691506109078285610efc565b6010805473ffffffffffffffffffffffffffffffffffffffff1916600160a060020a039283161790819055166000908152600c6020526040908190209060609051908101604090815282548252600183015460208301526002909201549181019182526010549092507f4ffbdcf517732785fcd60acabbb1d6060e0a0fd2f27baacd33e0d381f022402691600160a060020a039091169051604051600160a060020a03909216825260208201526040908101905180910390a15050505050565b600f5460009015156109d857600080fd5b601054600160a060020a0316156109ee57600080fd5b60135460ff16156109fe57600080fd5b60005433600160a060020a0390811691161415610a1a57600080fd5b600754421015610a2957600080fd5b6008544210610a3757600080fd5b811515610a4357600080fd5b50600160a060020a0333166000908152600c60205260408120805490919011610a6b57600080fd5b8133604051918252600160a060020a03166c01000000000000000000000000026020820152603401604051908190039020600182015414610aab57600080fd5b600281015415610aba57600080fd5b60028101829055600e805460018101610ad38382610fda565b506000918252602090912001805473ffffffffffffffffffffffffffffffffffffffff191633600160a060020a03811691909117909155815460128054909101905581547f93150b6788f4fee0dcbdb42e1c63ef677f551061dc1bd4f2db82dbb27297daa191908490604051600160a060020a03909316835260208301919091526040808301919091526060909101905180910390a15050565b600e8054829081106105fb57fe5b60005433600160a060020a03908116911614610b9657600080fd5b600a54421015610ba557600080fd5b33600160a060020a0316ff5b60105460009081908190600160a060020a031615610c985760015433600160a060020a0390811691161415610c0357601354610100900460ff1615610bf95760009250610cce565b6002549150610c83565b60105433600160a060020a0390811691161415610c3e5760135462010000900460ff1615610c345760009250610cce565b6003549150610c83565b60005433600160a060020a0390811691161415610c7a576013546301000000900460ff1615610c705760009250610cce565b6004549150610c83565b60009250610cce565b6005546011546103e891028302049250610cce565b60135460ff1615610cc95750600160a060020a0333166000908152600c602052604090206005548154029250610cce565b600092505b505090565b600054600154600254600354600454600554600654600754600854600954600a54600b54600160a060020a039b8c169b909a16998c565b600f54601054600160a060020a03166000818152600c6020526040902060020154601354600d54601154600e5460125496979596949560ff90941694929391929091565b601054600160a060020a031615610d6457600080fd5b60135460ff1615610d7457600080fd5b60005433600160a060020a03908116911614801590610da2575060015433600160a060020a03908116911614155b15610db657600954421015610db657600080fd5b6013805460ff191660011790557f4a19036f5b4d75256c1c24150a8254bd3c2bdb1eaeeec4523e927f0ab1cdd05460405160405180910390a1565b600c6020526000908152604090208054600182015460029092015490919083565b600080600080610e20611015565b60009350839250825b600e54811015610eef57600e805482908110610e4157fe5b6000918252602080832090910154600160a060020a0316808352600c9091526040918290209094509060609051908101604090815282548252600183015460208301526002909201549181019190915291506000825111610ea157600080fd5b81602001511515610eb157600080fd5b81604001511515610ec157600080fd5b84878281518110610ece57fe5b60209081029091010152815185019450816040015190931892600101610e29565b5050509093189392505050565b600e5460009081906000190181808080805b85871415610f4057600e805488908110610f2457fe5b600091825260209091200154600160a060020a03169750610fcd565b600e80546002898903048901965086908110610f5857fe5b600091825260209091200154600186019450600160a060020a03169250888581518110610f8157fe5b906020019060200201519150888481518110610f9957fe5b906020019060200201519050818a10610fc457808a1015610fbc57829750610fcd565b839650610fc8565b8495505b610f0e565b5050505050505092915050565b815481835581811511610ffe57600083815260209020610ffe918101908301611035565b505050565b60206040519081016040526000815290565b606060405190810160409081526000808352602083018190529082015290565b61105391905b8082111561104f576000815560010161103b565b5090565b905600a165627a7a72305820e4f652b6317742feca3cab061d45126b780f93b3f5df4683ba4324942cb544f70029",
            "opcodes": "PUSH1 0x60 PUSH1 0x40 MSTORE CALLVALUE ISZERO PUSH2 0xF JUMPI PUSH1 0x0 DUP1 REVERT JUMPDEST PUSH1 0x40 MLOAD PUSH2 0x140 DUP1 PUSH2 0x1293 DUP4 CODECOPY DUP2 ADD PUSH1 0x40 MSTORE DUP1 DUP1 MLOAD SWAP2 SWAP1 PUSH1 0x20 ADD DUP1 MLOAD SWAP2 SWAP1 PUSH1 0x20 ADD DUP1 MLOAD SWAP2 SWAP1 PUSH1 0x20 ADD DUP1 MLOAD SWAP2 SWAP1 PUSH1 0x20 ADD DUP1 MLOAD SWAP2 SWAP1 PUSH1 0x20 ADD DUP1 MLOAD SWAP2 SWAP1 PUSH1 0x20 ADD DUP1 MLOAD SWAP2 SWAP1 PUSH1 0x20 ADD DUP1 MLOAD SWAP2 SWAP1 PUSH1 0x20 ADD DUP1 MLOAD SWAP2 SWAP1 PUSH1 0x20 ADD DUP1 MLOAD SWAP2 POP POP PUSH1 0x1 PUSH1 0xA0 PUSH1 0x2 EXP SUB DUP11 AND ISZERO ISZERO PUSH2 0x7A JUMPI PUSH1 0x0 DUP1 REVERT JUMPDEST DUP9 ISZERO ISZERO PUSH2 0x86 JUMPI PUSH1 0x0 DUP1 REVERT JUMPDEST DUP8 ISZERO ISZERO PUSH2 0x92 JUMPI PUSH1 0x0 DUP1 REVERT JUMPDEST PUSH2 0x3E8 DUP10 DUP10 ADD DUP9 ADD EQ PUSH2 0xA4 JUMPI PUSH1 0x0 DUP1 REVERT JUMPDEST DUP6 ISZERO ISZERO PUSH2 0xB0 JUMPI PUSH1 0x0 DUP1 REVERT JUMPDEST TIMESTAMP DUP6 LT ISZERO PUSH2 0xBD JUMPI PUSH1 0x0 DUP1 REVERT JUMPDEST DUP5 DUP5 GT PUSH2 0xC9 JUMPI PUSH1 0x0 DUP1 REVERT JUMPDEST DUP4 DUP4 GT PUSH2 0xD5 JUMPI PUSH1 0x0 DUP1 REVERT JUMPDEST DUP3 DUP3 GT PUSH2 0xE1 JUMPI PUSH1 0x0 DUP1 REVERT JUMPDEST PUSH2 0x180 PUSH1 0x40 MLOAD SWAP1 DUP2 ADD PUSH1 0x40 MSTORE DUP1 CALLER PUSH1 0x1 PUSH1 0xA0 PUSH1 0x2 EXP SUB AND DUP2 MSTORE PUSH1 0x20 ADD DUP12 PUSH1 0x1 PUSH1 0xA0 PUSH1 0x2 EXP SUB AND DUP2 MSTORE PUSH1 0x20 ADD DUP11 DUP2 MSTORE PUSH1 0x20 ADD DUP10 DUP2 MSTORE PUSH1 0x20 ADD DUP9 DUP2 MSTORE PUSH1 0x20 ADD DUP8 DUP2 MSTORE PUSH1 0x20 ADD TIMESTAMP DUP2 MSTORE PUSH1 0x20 ADD DUP7 DUP2 MSTORE PUSH1 0x20 ADD DUP6 DUP2 MSTORE PUSH1 0x20 ADD DUP5 DUP2 MSTORE PUSH1 0x20 ADD DUP4 DUP2 MSTORE PUSH1 0x20 ADD DUP3 DUP2 MSTORE POP PUSH1 0x0 DUP1 DUP3 ADD MLOAD DUP2 SLOAD PUSH1 0x1 PUSH1 0xA0 PUSH1 0x2 EXP SUB NOT AND PUSH1 0x1 PUSH1 0xA0 PUSH1 0x2 EXP SUB SWAP2 SWAP1 SWAP2 AND OR DUP2 SSTORE PUSH1 0x20 DUP3 ADD MLOAD PUSH1 0x1 DUP3 ADD DUP1 SLOAD PUSH1 0x1 PUSH1 0xA0 PUSH1 0x2 EXP SUB NOT AND PUSH1 0x1 PUSH1 0xA0 PUSH1 0x2 EXP SUB SWAP3 SWAP1 SWAP3 AND SWAP2 SWAP1 SWAP2 OR SWAP1 SSTORE PUSH1 0x40 DUP3 ADD MLOAD DUP2 PUSH1 0x2 ADD SSTORE PUSH1 0x60 DUP3 ADD MLOAD DUP2 PUSH1 0x3 ADD SSTORE PUSH1 0x80 DUP3 ADD MLOAD DUP2 PUSH1 0x4 ADD SSTORE PUSH1 0xA0 DUP3 ADD MLOAD DUP2 PUSH1 0x5 ADD SSTORE PUSH1 0xC0 DUP3 ADD MLOAD DUP2 PUSH1 0x6 ADD SSTORE PUSH1 0xE0 DUP3 ADD MLOAD DUP2 PUSH1 0x7 ADD SSTORE PUSH2 0x100 DUP3 ADD MLOAD DUP2 PUSH1 0x8 ADD SSTORE PUSH2 0x120 DUP3 ADD MLOAD DUP2 PUSH1 0x9 ADD SSTORE PUSH2 0x140 DUP3 ADD MLOAD DUP2 PUSH1 0xA ADD SSTORE PUSH2 0x160 DUP3 ADD MLOAD PUSH1 0xB SWAP1 SWAP2 ADD SSTORE POP POP POP POP POP POP POP POP POP POP POP PUSH2 0x1082 DUP1 PUSH2 0x211 PUSH1 0x0 CODECOPY PUSH1 0x0 RETURN STOP PUSH1 0x60 PUSH1 0x40 MSTORE PUSH1 0x4 CALLDATASIZE LT PUSH2 0xC4 JUMPI PUSH4 0xFFFFFFFF PUSH29 0x100000000000000000000000000000000000000000000000000000000 PUSH1 0x0 CALLDATALOAD DIV AND PUSH4 0xA14504C DUP2 EQ PUSH2 0x1CD JUMPI DUP1 PUSH4 0x35C1D349 EQ PUSH2 0x1DA JUMPI DUP1 PUSH4 0x3CCFD60B EQ PUSH2 0x20C JUMPI DUP1 PUSH4 0x65BF5035 EQ PUSH2 0x21F JUMPI DUP1 PUSH4 0x7015913C EQ PUSH2 0x235 JUMPI DUP1 PUSH4 0x701FD0F1 EQ PUSH2 0x24B JUMPI DUP1 PUSH4 0x7988DFA0 EQ PUSH2 0x261 JUMPI DUP1 PUSH4 0x83197EF0 EQ PUSH2 0x277 JUMPI DUP1 PUSH4 0xB69EF8A8 EQ PUSH2 0x28A JUMPI DUP1 PUSH4 0xBE4F3B0B EQ PUSH2 0x2AF JUMPI DUP1 PUSH4 0xC19D93FB EQ PUSH2 0x330 JUMPI DUP1 PUSH4 0xEA8A1AF0 EQ PUSH2 0x392 JUMPI DUP1 PUSH4 0xEF2F0588 EQ PUSH2 0x3A5 JUMPI JUMPDEST PUSH1 0xF SLOAD PUSH1 0x0 SWAP1 DUP2 SWAP1 DUP2 SWAP1 ISZERO ISZERO PUSH2 0xD9 JUMPI PUSH1 0x0 DUP1 REVERT JUMPDEST PUSH1 0x10 SLOAD PUSH1 0x1 PUSH1 0xA0 PUSH1 0x2 EXP SUB AND ISZERO PUSH2 0xEF JUMPI PUSH1 0x0 DUP1 REVERT JUMPDEST PUSH1 0x13 SLOAD PUSH1 0xFF AND ISZERO PUSH2 0xFF JUMPI PUSH1 0x0 DUP1 REVERT JUMPDEST PUSH1 0x0 SLOAD CALLER PUSH1 0x1 PUSH1 0xA0 PUSH1 0x2 EXP SUB SWAP1 DUP2 AND SWAP2 AND EQ ISZERO PUSH2 0x11B JUMPI PUSH1 0x0 DUP1 REVERT JUMPDEST PUSH1 0x7 SLOAD TIMESTAMP LT PUSH2 0x129 JUMPI PUSH1 0x0 DUP1 REVERT JUMPDEST PUSH1 0x0 CALLVALUE GT PUSH2 0x136 JUMPI PUSH1 0x0 DUP1 REVERT JUMPDEST PUSH1 0x1 PUSH1 0xA0 PUSH1 0x2 EXP SUB CALLER AND PUSH1 0x0 SWAP1 DUP2 MSTORE PUSH1 0xC PUSH1 0x20 MSTORE PUSH1 0x40 SWAP1 KECCAK256 PUSH1 0x1 DUP2 ADD SLOAD SWAP1 SWAP4 POP ISZERO ISZERO PUSH2 0x161 JUMPI PUSH1 0x0 DUP1 REVERT JUMPDEST PUSH2 0x16A DUP4 PUSH2 0x3E8 JUMP JUMPDEST SWAP1 SWAP3 POP SWAP1 POP PUSH32 0x11DF61431069ECB6BFFB62F185491E4ADC966B75B0648630EA30F60CFFF8A9E5 CALLER DUP4 DUP4 PUSH1 0x40 MLOAD DUP1 DUP5 PUSH1 0x1 PUSH1 0xA0 PUSH1 0x2 EXP SUB AND PUSH1 0x1 PUSH1 0xA0 PUSH1 0x2 EXP SUB AND DUP2 MSTORE PUSH1 0x20 ADD DUP4 DUP2 MSTORE PUSH1 0x20 ADD DUP3 DUP2 MSTORE PUSH1 0x20 ADD SWAP4 POP POP POP POP PUSH1 0x40 MLOAD DUP1 SWAP2 SUB SWAP1 LOG1 POP POP POP STOP JUMPDEST PUSH2 0x1D8 PUSH1 0x4 CALLDATALOAD PUSH2 0x469 JUMP JUMPDEST STOP JUMPDEST CALLVALUE ISZERO PUSH2 0x1E5 JUMPI PUSH1 0x0 DUP1 REVERT JUMPDEST PUSH2 0x1F0 PUSH1 0x4 CALLDATALOAD PUSH2 0x5ED JUMP JUMPDEST PUSH1 0x40 MLOAD PUSH1 0x1 PUSH1 0xA0 PUSH1 0x2 EXP SUB SWAP1 SWAP2 AND DUP2 MSTORE PUSH1 0x20 ADD PUSH1 0x40 MLOAD DUP1 SWAP2 SUB SWAP1 RETURN JUMPDEST CALLVALUE ISZERO PUSH2 0x217 JUMPI PUSH1 0x0 DUP1 REVERT JUMPDEST PUSH2 0x1D8 PUSH2 0x615 JUMP JUMPDEST CALLVALUE ISZERO PUSH2 0x22A JUMPI PUSH1 0x0 DUP1 REVERT JUMPDEST PUSH2 0x1D8 PUSH1 0x4 CALLDATALOAD PUSH2 0x76B JUMP JUMPDEST CALLVALUE ISZERO PUSH2 0x240 JUMPI PUSH1 0x0 DUP1 REVERT JUMPDEST PUSH2 0x1D8 PUSH1 0x4 CALLDATALOAD PUSH2 0x80E JUMP JUMPDEST CALLVALUE ISZERO PUSH2 0x256 JUMPI PUSH1 0x0 DUP1 REVERT JUMPDEST PUSH2 0x1D8 PUSH1 0x4 CALLDATALOAD PUSH2 0x9C7 JUMP JUMPDEST CALLVALUE ISZERO PUSH2 0x26C JUMPI PUSH1 0x0 DUP1 REVERT JUMPDEST PUSH2 0x1F0 PUSH1 0x4 CALLDATALOAD PUSH2 0xB6D JUMP JUMPDEST CALLVALUE ISZERO PUSH2 0x282 JUMPI PUSH1 0x0 DUP1 REVERT JUMPDEST PUSH2 0x1D8 PUSH2 0xB7B JUMP JUMPDEST CALLVALUE ISZERO PUSH2 0x295 JUMPI PUSH1 0x0 DUP1 REVERT JUMPDEST PUSH2 0x29D PUSH2 0xBB1 JUMP JUMPDEST PUSH1 0x40 MLOAD SWAP1 DUP2 MSTORE PUSH1 0x20 ADD PUSH1 0x40 MLOAD DUP1 SWAP2 SUB SWAP1 RETURN JUMPDEST CALLVALUE ISZERO PUSH2 0x2BA JUMPI PUSH1 0x0 DUP1 REVERT JUMPDEST PUSH2 0x2C2 PUSH2 0xCD3 JUMP JUMPDEST PUSH1 0x40 MLOAD PUSH1 0x1 PUSH1 0xA0 PUSH1 0x2 EXP SUB SWAP13 DUP14 AND DUP2 MSTORE SWAP11 SWAP1 SWAP12 AND PUSH1 0x20 DUP12 ADD MSTORE PUSH1 0x40 DUP1 DUP12 ADD SWAP10 SWAP1 SWAP10 MSTORE PUSH1 0x60 DUP11 ADD SWAP8 SWAP1 SWAP8 MSTORE PUSH1 0x80 DUP10 ADD SWAP6 SWAP1 SWAP6 MSTORE PUSH1 0xA0 DUP9 ADD SWAP4 SWAP1 SWAP4 MSTORE PUSH1 0xC0 DUP8 ADD SWAP2 SWAP1 SWAP2 MSTORE PUSH1 0xE0 DUP7 ADD MSTORE PUSH2 0x100 DUP6 ADD MSTORE PUSH2 0x120 DUP5 ADD MSTORE PUSH2 0x140 DUP4 ADD MSTORE PUSH2 0x160 DUP3 ADD SWAP3 SWAP1 SWAP3 MSTORE PUSH2 0x180 ADD SWAP1 MLOAD DUP1 SWAP2 SUB SWAP1 RETURN JUMPDEST CALLVALUE ISZERO PUSH2 0x33B JUMPI PUSH1 0x0 DUP1 REVERT JUMPDEST PUSH2 0x343 PUSH2 0xD0A JUMP JUMPDEST PUSH1 0x40 MLOAD SWAP8 DUP9 MSTORE PUSH1 0x1 PUSH1 0xA0 PUSH1 0x2 EXP SUB SWAP1 SWAP7 AND PUSH1 0x20 DUP9 ADD MSTORE PUSH1 0x40 DUP1 DUP9 ADD SWAP6 SWAP1 SWAP6 MSTORE SWAP3 ISZERO ISZERO PUSH1 0x60 DUP8 ADD MSTORE PUSH1 0x80 DUP7 ADD SWAP2 SWAP1 SWAP2 MSTORE PUSH1 0xA0 DUP6 ADD MSTORE PUSH1 0xC0 DUP5 ADD MSTORE PUSH1 0xE0 DUP4 ADD SWAP2 SWAP1 SWAP2 MSTORE PUSH2 0x100 SWAP1 SWAP2 ADD SWAP1 MLOAD DUP1 SWAP2 SUB SWAP1 RETURN JUMPDEST CALLVALUE ISZERO PUSH2 0x39D JUMPI PUSH1 0x0 DUP1 REVERT JUMPDEST PUSH2 0x1D8 PUSH2 0xD4E JUMP JUMPDEST CALLVALUE ISZERO PUSH2 0x3B0 JUMPI PUSH1 0x0 DUP1 REVERT JUMPDEST PUSH2 0x3C4 PUSH1 0x1 PUSH1 0xA0 PUSH1 0x2 EXP SUB PUSH1 0x4 CALLDATALOAD AND PUSH2 0xDF1 JUMP JUMPDEST PUSH1 0x40 MLOAD SWAP3 DUP4 MSTORE PUSH1 0x20 DUP4 ADD SWAP2 SWAP1 SWAP2 MSTORE PUSH1 0x40 DUP1 DUP4 ADD SWAP2 SWAP1 SWAP2 MSTORE PUSH1 0x60 SWAP1 SWAP2 ADD SWAP1 MLOAD DUP1 SWAP2 SUB SWAP1 RETURN JUMPDEST PUSH1 0x0 DUP1 PUSH1 0x0 PUSH1 0x5 ADD SLOAD CALLVALUE DUP2 ISZERO ISZERO PUSH2 0x3FB JUMPI INVALID JUMPDEST DIV SWAP2 POP PUSH1 0x1 DUP3 LT ISZERO PUSH2 0x40C JUMPI PUSH1 0x0 DUP1 REVERT JUMPDEST DUP3 SLOAD DUP3 ADD DUP4 SSTORE PUSH1 0x11 DUP1 SLOAD DUP4 ADD SWAP1 SSTORE PUSH1 0x5 SLOAD CALLVALUE DUP2 ISZERO ISZERO PUSH2 0x427 JUMPI INVALID JUMPDEST MOD SWAP1 POP PUSH1 0x0 DUP2 GT ISZERO PUSH2 0x464 JUMPI PUSH1 0x1 PUSH1 0xA0 PUSH1 0x2 EXP SUB CALLER AND DUP2 ISZERO PUSH2 0x8FC MUL DUP3 PUSH1 0x40 MLOAD PUSH1 0x0 PUSH1 0x40 MLOAD DUP1 DUP4 SUB DUP2 DUP6 DUP9 DUP9 CALL SWAP4 POP POP POP POP ISZERO ISZERO PUSH2 0x464 JUMPI PUSH1 0x0 DUP1 REVERT JUMPDEST SWAP2 POP SWAP2 JUMP JUMPDEST PUSH1 0xF SLOAD PUSH1 0x0 SWAP1 ISZERO ISZERO PUSH2 0x47A JUMPI PUSH1 0x0 DUP1 REVERT JUMPDEST PUSH1 0x10 SLOAD PUSH1 0x1 PUSH1 0xA0 PUSH1 0x2 EXP SUB AND ISZERO PUSH2 0x490 JUMPI PUSH1 0x0 DUP1 REVERT JUMPDEST PUSH1 0x13 SLOAD PUSH1 0xFF AND ISZERO PUSH2 0x4A0 JUMPI PUSH1 0x0 DUP1 REVERT JUMPDEST PUSH1 0x0 SLOAD CALLER PUSH1 0x1 PUSH1 0xA0 PUSH1 0x2 EXP SUB SWAP1 DUP2 AND SWAP2 AND EQ ISZERO PUSH2 0x4BC JUMPI PUSH1 0x0 DUP1 REVERT JUMPDEST PUSH1 0x7 SLOAD TIMESTAMP LT PUSH2 0x4CA JUMPI PUSH1 0x0 DUP1 REVERT JUMPDEST DUP2 ISZERO ISZERO PUSH2 0x4D6 JUMPI PUSH1 0x0 DUP1 REVERT JUMPDEST PUSH1 0xB SLOAD ISZERO DUP1 PUSH2 0x4E8 JUMPI POP PUSH1 0xB SLOAD PUSH1 0xD SLOAD LT JUMPDEST ISZERO ISZERO PUSH2 0x4F3 JUMPI PUSH1 0x0 DUP1 REVERT JUMPDEST POP PUSH1 0x1 PUSH1 0xA0 PUSH1 0x2 EXP SUB CALLER AND PUSH1 0x0 SWAP1 DUP2 MSTORE PUSH1 0xC PUSH1 0x20 MSTORE PUSH1 0x40 SWAP1 KECCAK256 DUP1 SLOAD ISZERO PUSH2 0x518 JUMPI PUSH1 0x0 DUP1 REVERT JUMPDEST PUSH1 0x1 DUP2 ADD SLOAD ISZERO PUSH2 0x527 JUMPI PUSH1 0x0 DUP1 REVERT JUMPDEST PUSH1 0x2 DUP2 ADD SLOAD ISZERO PUSH2 0x536 JUMPI PUSH1 0x0 DUP1 REVERT JUMPDEST PUSH1 0x1 DUP1 DUP3 ADD DUP4 SWAP1 SSTORE PUSH1 0xD DUP1 SLOAD SWAP1 SWAP2 DUP2 ADD PUSH2 0x550 DUP4 DUP3 PUSH2 0xFDA JUMP JUMPDEST POP PUSH1 0x0 SWAP2 DUP3 MSTORE PUSH1 0x20 DUP3 KECCAK256 ADD DUP1 SLOAD PUSH20 0xFFFFFFFFFFFFFFFFFFFFFFFFFFFFFFFFFFFFFFFF NOT AND CALLER PUSH1 0x1 PUSH1 0xA0 PUSH1 0x2 EXP SUB AND OR SWAP1 SSTORE CALLVALUE GT ISZERO PUSH2 0x594 JUMPI PUSH2 0x591 DUP2 PUSH2 0x3E8 JUMP JUMPDEST POP POP JUMPDEST PUSH32 0x9025CEF529EF45A11096309BF75556358C7CA4D54085A170AF6A8BCF4E5D356 CALLER DUP3 PUSH1 0x0 ADD SLOAD DUP5 PUSH1 0x40 MLOAD PUSH1 0x1 PUSH1 0xA0 PUSH1 0x2 EXP SUB SWAP1 SWAP4 AND DUP4 MSTORE PUSH1 0x20 DUP4 ADD SWAP2 SWAP1 SWAP2 MSTORE PUSH1 0x40 DUP1 DUP4 ADD SWAP2 SWAP1 SWAP2 MSTORE PUSH1 0x60 SWAP1 SWAP2 ADD SWAP1 MLOAD DUP1 SWAP2 SUB SWAP1 LOG1 POP POP JUMP JUMPDEST PUSH1 0xD DUP1 SLOAD DUP3 SWAP1 DUP2 LT PUSH2 0x5FB JUMPI INVALID JUMPDEST PUSH1 0x0 SWAP2 DUP3 MSTORE PUSH1 0x20 SWAP1 SWAP2 KECCAK256 ADD SLOAD PUSH1 0x1 PUSH1 0xA0 PUSH1 0x2 EXP SUB AND SWAP1 POP DUP2 JUMP JUMPDEST PUSH1 0x0 DUP1 PUSH2 0x620 PUSH2 0xBB1 JUMP JUMPDEST SWAP2 POP PUSH1 0x0 DUP3 GT PUSH2 0x62F JUMPI PUSH1 0x0 DUP1 REVERT JUMPDEST PUSH1 0x10 SLOAD PUSH1 0x1 PUSH1 0xA0 PUSH1 0x2 EXP SUB AND ISZERO PUSH2 0x6D1 JUMPI PUSH1 0x1 SLOAD CALLER PUSH1 0x1 PUSH1 0xA0 PUSH1 0x2 EXP SUB SWAP1 DUP2 AND SWAP2 AND EQ ISZERO PUSH2 0x66B JUMPI PUSH1 0x13 DUP1 SLOAD PUSH2 0xFF00 NOT AND PUSH2 0x100 OR SWAP1 SSTORE PUSH2 0x6CC JUMP JUMPDEST PUSH1 0x10 SLOAD CALLER PUSH1 0x1 PUSH1 0xA0 PUSH1 0x2 EXP SUB SWAP1 DUP2 AND SWAP2 AND EQ ISZERO PUSH2 0x698 JUMPI PUSH1 0x13 DUP1 SLOAD PUSH3 0xFF0000 NOT AND PUSH3 0x10000 OR SWAP1 SSTORE PUSH2 0x6CC JUMP JUMPDEST PUSH1 0x0 SLOAD CALLER PUSH1 0x1 PUSH1 0xA0 PUSH1 0x2 EXP SUB SWAP1 DUP2 AND SWAP2 AND EQ ISZERO PUSH2 0x6C7 JUMPI PUSH1 0x13 DUP1 SLOAD PUSH4 0xFF000000 NOT AND PUSH4 0x1000000 OR SWAP1 SSTORE PUSH2 0x6CC JUMP JUMPDEST PUSH1 0x0 DUP1 REVERT JUMPDEST PUSH2 0x6F9 JUMP JUMPDEST PUSH1 0x13 SLOAD PUSH1 0xFF AND ISZERO PUSH2 0x6C7 JUMPI POP PUSH1 0x1 PUSH1 0xA0 PUSH1 0x2 EXP SUB CALLER AND PUSH1 0x0 SWAP1 DUP2 MSTORE PUSH1 0xC PUSH1 0x20 MSTORE PUSH1 0x40 DUP2 KECCAK256 SWAP1 DUP2 SSTORE JUMPDEST PUSH1 0x1 PUSH1 0xA0 PUSH1 0x2 EXP SUB CALLER AND DUP3 ISZERO PUSH2 0x8FC MUL DUP4 PUSH1 0x40 MLOAD PUSH1 0x0 PUSH1 0x40 MLOAD DUP1 DUP4 SUB DUP2 DUP6 DUP9 DUP9 CALL SWAP4 POP POP POP POP ISZERO ISZERO PUSH2 0x72A JUMPI PUSH1 0x0 DUP1 REVERT JUMPDEST PUSH32 0xE19ED71156E31B3C9E18AC7AD8D1B79F0A0FEB3BE18D23DAE612E52040AADA4B CALLER PUSH1 0x40 MLOAD PUSH1 0x1 PUSH1 0xA0 PUSH1 0x2 EXP SUB SWAP1 SWAP2 AND DUP2 MSTORE PUSH1 0x20 ADD PUSH1 0x40 MLOAD DUP1 SWAP2 SUB SWAP1 LOG1 POP POP JUMP JUMPDEST PUSH1 0x1 SLOAD CALLER PUSH1 0x1 PUSH1 0xA0 PUSH1 0x2 EXP SUB SWAP1 DUP2 AND SWAP2 AND EQ PUSH2 0x786 JUMPI PUSH1 0x0 DUP1 REVERT JUMPDEST PUSH1 0x7 SLOAD TIMESTAMP LT PUSH2 0x794 JUMPI PUSH1 0x0 DUP1 REVERT JUMPDEST PUSH1 0x10 SLOAD PUSH1 0x1 PUSH1 0xA0 PUSH1 0x2 EXP SUB AND ISZERO PUSH2 0x7AA JUMPI PUSH1 0x0 DUP1 REVERT JUMPDEST PUSH1 0x13 SLOAD PUSH1 0xFF AND ISZERO PUSH2 0x7BA JUMPI PUSH1 0x0 DUP1 REVERT JUMPDEST PUSH1 0xF SLOAD ISZERO PUSH2 0x7C7 JUMPI PUSH1 0x0 DUP1 REVERT JUMPDEST DUP1 ISZERO ISZERO PUSH2 0x7D3 JUMPI PUSH1 0x0 DUP1 REVERT JUMPDEST PUSH1 0xF DUP2 SWAP1 SSTORE PUSH32 0xDA4D6EC5231D2C0C6DF0363CA304C820DA85C4C675C7B68DF26970CEF46C6B2B DUP2 PUSH1 0x40 MLOAD SWAP1 DUP2 MSTORE PUSH1 0x20 ADD PUSH1 0x40 MLOAD DUP1 SWAP2 SUB SWAP1 LOG1 POP JUMP JUMPDEST PUSH2 0x816 PUSH2 0x1003 JUMP JUMPDEST PUSH1 0x0 DUP1 PUSH2 0x821 PUSH2 0x1015 JUMP JUMPDEST PUSH1 0xF SLOAD ISZERO ISZERO PUSH2 0x82F JUMPI PUSH1 0x0 DUP1 REVERT JUMPDEST PUSH1 0x10 SLOAD PUSH1 0x1 PUSH1 0xA0 PUSH1 0x2 EXP SUB AND ISZERO PUSH2 0x845 JUMPI PUSH1 0x0 DUP1 REVERT JUMPDEST PUSH1 0x13 SLOAD PUSH1 0xFF AND ISZERO PUSH2 0x855 JUMPI PUSH1 0x0 DUP1 REVERT JUMPDEST PUSH1 0x1 SLOAD CALLER PUSH1 0x1 PUSH1 0xA0 PUSH1 0x2 EXP SUB SWAP1 DUP2 AND SWAP2 AND EQ PUSH2 0x870 JUMPI PUSH1 0x0 DUP1 REVERT JUMPDEST PUSH1 0x8 SLOAD TIMESTAMP LT ISZERO PUSH2 0x87F JUMPI PUSH1 0x0 DUP1 REVERT JUMPDEST DUP5 CALLER PUSH1 0x40 MLOAD SWAP2 DUP3 MSTORE PUSH1 0x1 PUSH1 0xA0 PUSH1 0x2 EXP SUB AND PUSH13 0x1000000000000000000000000 MUL PUSH1 0x20 DUP3 ADD MSTORE PUSH1 0x34 ADD PUSH1 0x40 MLOAD SWAP1 DUP2 SWAP1 SUB SWAP1 KECCAK256 PUSH1 0xF SLOAD EQ PUSH2 0x8BD JUMPI PUSH1 0x0 DUP1 REVERT JUMPDEST PUSH1 0xE SLOAD PUSH1 0x40 MLOAD DUP1 MSIZE LT PUSH2 0x8CD JUMPI POP MSIZE JUMPDEST SWAP1 DUP1 DUP3 MSTORE DUP1 PUSH1 0x20 MUL PUSH1 0x20 ADD DUP3 ADD PUSH1 0x40 MSTORE POP SWAP4 POP PUSH2 0x8EA DUP6 DUP6 PUSH2 0xE12 JUMP JUMPDEST PUSH1 0x12 SLOAD SWAP1 SWAP4 POP DUP4 DUP2 ISZERO ISZERO PUSH2 0x8FA JUMPI INVALID JUMPDEST MOD SWAP2 POP PUSH2 0x907 DUP3 DUP6 PUSH2 0xEFC JUMP JUMPDEST PUSH1 0x10 DUP1 SLOAD PUSH20 0xFFFFFFFFFFFFFFFFFFFFFFFFFFFFFFFFFFFFFFFF NOT AND PUSH1 0x1 PUSH1 0xA0 PUSH1 0x2 EXP SUB SWAP3 DUP4 AND OR SWAP1 DUP2 SWAP1 SSTORE AND PUSH1 0x0 SWAP1 DUP2 MSTORE PUSH1 0xC PUSH1 0x20 MSTORE PUSH1 0x40 SWAP1 DUP2 SWAP1 KECCAK256 SWAP1 PUSH1 0x60 SWAP1 MLOAD SWAP1 DUP2 ADD PUSH1 0x40 SWAP1 DUP2 MSTORE DUP3 SLOAD DUP3 MSTORE PUSH1 0x1 DUP4 ADD SLOAD PUSH1 0x20 DUP4 ADD MSTORE PUSH1 0x2 SWAP1 SWAP3 ADD SLOAD SWAP2 DUP2 ADD SWAP2 DUP3 MSTORE PUSH1 0x10 SLOAD SWAP1 SWAP3 POP PUSH32 0x4FFBDCF517732785FCD60ACABBB1D6060E0A0FD2F27BAACD33E0D381F0224026 SWAP2 PUSH1 0x1 PUSH1 0xA0 PUSH1 0x2 EXP SUB SWAP1 SWAP2 AND SWAP1 MLOAD PUSH1 0x40 MLOAD PUSH1 0x1 PUSH1 0xA0 PUSH1 0x2 EXP SUB SWAP1 SWAP3 AND DUP3 MSTORE PUSH1 0x20 DUP3 ADD MSTORE PUSH1 0x40 SWAP1 DUP2 ADD SWAP1 MLOAD DUP1 SWAP2 SUB SWAP1 LOG1 POP POP POP POP POP JUMP JUMPDEST PUSH1 0xF SLOAD PUSH1 0x0 SWAP1 ISZERO ISZERO PUSH2 0x9D8 JUMPI PUSH1 0x0 DUP1 REVERT JUMPDEST PUSH1 0x10 SLOAD PUSH1 0x1 PUSH1 0xA0 PUSH1 0x2 EXP SUB AND ISZERO PUSH2 0x9EE JUMPI PUSH1 0x0 DUP1 REVERT JUMPDEST PUSH1 0x13 SLOAD PUSH1 0xFF AND ISZERO PUSH2 0x9FE JUMPI PUSH1 0x0 DUP1 REVERT JUMPDEST PUSH1 0x0 SLOAD CALLER PUSH1 0x1 PUSH1 0xA0 PUSH1 0x2 EXP SUB SWAP1 DUP2 AND SWAP2 AND EQ ISZERO PUSH2 0xA1A JUMPI PUSH1 0x0 DUP1 REVERT JUMPDEST PUSH1 0x7 SLOAD TIMESTAMP LT ISZERO PUSH2 0xA29 JUMPI PUSH1 0x0 DUP1 REVERT JUMPDEST PUSH1 0x8 SLOAD TIMESTAMP LT PUSH2 0xA37 JUMPI PUSH1 0x0 DUP1 REVERT JUMPDEST DUP2 ISZERO ISZERO PUSH2 0xA43 JUMPI PUSH1 0x0 DUP1 REVERT JUMPDEST POP PUSH1 0x1 PUSH1 0xA0 PUSH1 0x2 EXP SUB CALLER AND PUSH1 0x0 SWAP1 DUP2 MSTORE PUSH1 0xC PUSH1 0x20 MSTORE PUSH1 0x40 DUP2 KECCAK256 DUP1 SLOAD SWAP1 SWAP2 SWAP1 GT PUSH2 0xA6B JUMPI PUSH1 0x0 DUP1 REVERT JUMPDEST DUP2 CALLER PUSH1 0x40 MLOAD SWAP2 DUP3 MSTORE PUSH1 0x1 PUSH1 0xA0 PUSH1 0x2 EXP SUB AND PUSH13 0x1000000000000000000000000 MUL PUSH1 0x20 DUP3 ADD MSTORE PUSH1 0x34 ADD PUSH1 0x40 MLOAD SWAP1 DUP2 SWAP1 SUB SWAP1 KECCAK256 PUSH1 0x1 DUP3 ADD SLOAD EQ PUSH2 0xAAB JUMPI PUSH1 0x0 DUP1 REVERT JUMPDEST PUSH1 0x2 DUP2 ADD SLOAD ISZERO PUSH2 0xABA JUMPI PUSH1 0x0 DUP1 REVERT JUMPDEST PUSH1 0x2 DUP2 ADD DUP3 SWAP1 SSTORE PUSH1 0xE DUP1 SLOAD PUSH1 0x1 DUP2 ADD PUSH2 0xAD3 DUP4 DUP3 PUSH2 0xFDA JUMP JUMPDEST POP PUSH1 0x0 SWAP2 DUP3 MSTORE PUSH1 0x20 SWAP1 SWAP2 KECCAK256 ADD DUP1 SLOAD PUSH20 0xFFFFFFFFFFFFFFFFFFFFFFFFFFFFFFFFFFFFFFFF NOT AND CALLER PUSH1 0x1 PUSH1 0xA0 PUSH1 0x2 EXP SUB DUP2 AND SWAP2 SWAP1 SWAP2 OR SWAP1 SWAP2 SSTORE DUP2 SLOAD PUSH1 0x12 DUP1 SLOAD SWAP1 SWAP2 ADD SWAP1 SSTORE DUP2 SLOAD PUSH32 0x93150B6788F4FEE0DCBDB42E1C63EF677F551061DC1BD4F2DB82DBB27297DAA1 SWAP2 SWAP1 DUP5 SWAP1 PUSH1 0x40 MLOAD PUSH1 0x1 PUSH1 0xA0 PUSH1 0x2 EXP SUB SWAP1 SWAP4 AND DUP4 MSTORE PUSH1 0x20 DUP4 ADD SWAP2 SWAP1 SWAP2 MSTORE PUSH1 0x40 DUP1 DUP4 ADD SWAP2 SWAP1 SWAP2 MSTORE PUSH1 0x60 SWAP1 SWAP2 ADD SWAP1 MLOAD DUP1 SWAP2 SUB SWAP1 LOG1 POP POP JUMP JUMPDEST PUSH1 0xE DUP1 SLOAD DUP3 SWAP1 DUP2 LT PUSH2 0x5FB JUMPI INVALID JUMPDEST PUSH1 0x0 SLOAD CALLER PUSH1 0x1 PUSH1 0xA0 PUSH1 0x2 EXP SUB SWAP1 DUP2 AND SWAP2 AND EQ PUSH2 0xB96 JUMPI PUSH1 0x0 DUP1 REVERT JUMPDEST PUSH1 0xA SLOAD TIMESTAMP LT ISZERO PUSH2 0xBA5 JUMPI PUSH1 0x0 DUP1 REVERT JUMPDEST CALLER PUSH1 0x1 PUSH1 0xA0 PUSH1 0x2 EXP SUB AND SELFDESTRUCT JUMPDEST PUSH1 0x10 SLOAD PUSH1 0x0 SWAP1 DUP2 SWAP1 DUP2 SWAP1 PUSH1 0x1 PUSH1 0xA0 PUSH1 0x2 EXP SUB AND ISZERO PUSH2 0xC98 JUMPI PUSH1 0x1 SLOAD CALLER PUSH1 0x1 PUSH1 0xA0 PUSH1 0x2 EXP SUB SWAP1 DUP2 AND SWAP2 AND EQ ISZERO PUSH2 0xC03 JUMPI PUSH1 0x13 SLOAD PUSH2 0x100 SWAP1 DIV PUSH1 0xFF AND ISZERO PUSH2 0xBF9 JUMPI PUSH1 0x0 SWAP3 POP PUSH2 0xCCE JUMP JUMPDEST PUSH1 0x2 SLOAD SWAP2 POP PUSH2 0xC83 JUMP JUMPDEST PUSH1 0x10 SLOAD CALLER PUSH1 0x1 PUSH1 0xA0 PUSH1 0x2 EXP SUB SWAP1 DUP2 AND SWAP2 AND EQ ISZERO PUSH2 0xC3E JUMPI PUSH1 0x13 SLOAD PUSH3 0x10000 SWAP1 DIV PUSH1 0xFF AND ISZERO PUSH2 0xC34 JUMPI PUSH1 0x0 SWAP3 POP PUSH2 0xCCE JUMP JUMPDEST PUSH1 0x3 SLOAD SWAP2 POP PUSH2 0xC83 JUMP JUMPDEST PUSH1 0x0 SLOAD CALLER PUSH1 0x1 PUSH1 0xA0 PUSH1 0x2 EXP SUB SWAP1 DUP2 AND SWAP2 AND EQ ISZERO PUSH2 0xC7A JUMPI PUSH1 0x13 SLOAD PUSH4 0x1000000 SWAP1 DIV PUSH1 0xFF AND ISZERO PUSH2 0xC70 JUMPI PUSH1 0x0 SWAP3 POP PUSH2 0xCCE JUMP JUMPDEST PUSH1 0x4 SLOAD SWAP2 POP PUSH2 0xC83 JUMP JUMPDEST PUSH1 0x0 SWAP3 POP PUSH2 0xCCE JUMP JUMPDEST PUSH1 0x5 SLOAD PUSH1 0x11 SLOAD PUSH2 0x3E8 SWAP2 MUL DUP4 MUL DIV SWAP3 POP PUSH2 0xCCE JUMP JUMPDEST PUSH1 0x13 SLOAD PUSH1 0xFF AND ISZERO PUSH2 0xCC9 JUMPI POP PUSH1 0x1 PUSH1 0xA0 PUSH1 0x2 EXP SUB CALLER AND PUSH1 0x0 SWAP1 DUP2 MSTORE PUSH1 0xC PUSH1 0x20 MSTORE PUSH1 0x40 SWAP1 KECCAK256 PUSH1 0x5 SLOAD DUP2 SLOAD MUL SWAP3 POP PUSH2 0xCCE JUMP JUMPDEST PUSH1 0x0 SWAP3 POP JUMPDEST POP POP SWAP1 JUMP JUMPDEST PUSH1 0x0 SLOAD PUSH1 0x1 SLOAD PUSH1 0x2 SLOAD PUSH1 0x3 SLOAD PUSH1 0x4 SLOAD PUSH1 0x5 SLOAD PUSH1 0x6 SLOAD PUSH1 0x7 SLOAD PUSH1 0x8 SLOAD PUSH1 0x9 SLOAD PUSH1 0xA SLOAD PUSH1 0xB SLOAD PUSH1 0x1 PUSH1 0xA0 PUSH1 0x2 EXP SUB SWAP12 DUP13 AND SWAP12 SWAP1 SWAP11 AND SWAP10 DUP13 JUMP JUMPDEST PUSH1 0xF SLOAD PUSH1 0x10 SLOAD PUSH1 0x1 PUSH1 0xA0 PUSH1 0x2 EXP SUB AND PUSH1 0x0 DUP2 DUP2 MSTORE PUSH1 0xC PUSH1 0x20 MSTORE PUSH1 0x40 SWAP1 KECCAK256 PUSH1 0x2 ADD SLOAD PUSH1 0x13 SLOAD PUSH1 0xD SLOAD PUSH1 0x11 SLOAD PUSH1 0xE SLOAD PUSH1 0x12 SLOAD SWAP7 SWAP8 SWAP6 SWAP7 SWAP5 SWAP6 PUSH1 0xFF SWAP1 SWAP5 AND SWAP5 SWAP3 SWAP4 SWAP2 SWAP3 SWAP1 SWAP2 JUMP JUMPDEST PUSH1 0x10 SLOAD PUSH1 0x1 PUSH1 0xA0 PUSH1 0x2 EXP SUB AND ISZERO PUSH2 0xD64 JUMPI PUSH1 0x0 DUP1 REVERT JUMPDEST PUSH1 0x13 SLOAD PUSH1 0xFF AND ISZERO PUSH2 0xD74 JUMPI PUSH1 0x0 DUP1 REVERT JUMPDEST PUSH1 0x0 SLOAD CALLER PUSH1 0x1 PUSH1 0xA0 PUSH1 0x2 EXP SUB SWAP1 DUP2 AND SWAP2 AND EQ DUP1 ISZERO SWAP1 PUSH2 0xDA2 JUMPI POP PUSH1 0x1 SLOAD CALLER PUSH1 0x1 PUSH1 0xA0 PUSH1 0x2 EXP SUB SWAP1 DUP2 AND SWAP2 AND EQ ISZERO JUMPDEST ISZERO PUSH2 0xDB6 JUMPI PUSH1 0x9 SLOAD TIMESTAMP LT ISZERO PUSH2 0xDB6 JUMPI PUSH1 0x0 DUP1 REVERT JUMPDEST PUSH1 0x13 DUP1 SLOAD PUSH1 0xFF NOT AND PUSH1 0x1 OR SWAP1 SSTORE PUSH32 0x4A19036F5B4D75256C1C24150A8254BD3C2BDB1EAEEEC4523E927F0AB1CDD054 PUSH1 0x40 MLOAD PUSH1 0x40 MLOAD DUP1 SWAP2 SUB SWAP1 LOG1 JUMP JUMPDEST PUSH1 0xC PUSH1 0x20 MSTORE PUSH1 0x0 SWAP1 DUP2 MSTORE PUSH1 0x40 SWAP1 KECCAK256 DUP1 SLOAD PUSH1 0x1 DUP3 ADD SLOAD PUSH1 0x2 SWAP1 SWAP3 ADD SLOAD SWAP1 SWAP2 SWAP1 DUP4 JUMP JUMPDEST PUSH1 0x0 DUP1 PUSH1 0x0 DUP1 PUSH2 0xE20 PUSH2 0x1015 JUMP JUMPDEST PUSH1 0x0 SWAP4 POP DUP4 SWAP3 POP DUP3 JUMPDEST PUSH1 0xE SLOAD DUP2 LT ISZERO PUSH2 0xEEF JUMPI PUSH1 0xE DUP1 SLOAD DUP3 SWAP1 DUP2 LT PUSH2 0xE41 JUMPI INVALID JUMPDEST PUSH1 0x0 SWAP2 DUP3 MSTORE PUSH1 0x20 DUP1 DUP4 KECCAK256 SWAP1 SWAP2 ADD SLOAD PUSH1 0x1 PUSH1 0xA0 PUSH1 0x2 EXP SUB AND DUP1 DUP4 MSTORE PUSH1 0xC SWAP1 SWAP2 MSTORE PUSH1 0x40 SWAP2 DUP3 SWAP1 KECCAK256 SWAP1 SWAP5 POP SWAP1 PUSH1 0x60 SWAP1 MLOAD SWAP1 DUP2 ADD PUSH1 0x40 SWAP1 DUP2 MSTORE DUP3 SLOAD DUP3 MSTORE PUSH1 0x1 DUP4 ADD SLOAD PUSH1 0x20 DUP4 ADD MSTORE PUSH1 0x2 SWAP1 SWAP3 ADD SLOAD SWAP2 DUP2 ADD SWAP2 SWAP1 SWAP2 MSTORE SWAP2 POP PUSH1 0x0 DUP3 MLOAD GT PUSH2 0xEA1 JUMPI PUSH1 0x0 DUP1 REVERT JUMPDEST DUP2 PUSH1 0x20 ADD MLOAD ISZERO ISZERO PUSH2 0xEB1 JUMPI PUSH1 0x0 DUP1 REVERT JUMPDEST DUP2 PUSH1 0x40 ADD MLOAD ISZERO ISZERO PUSH2 0xEC1 JUMPI PUSH1 0x0 DUP1 REVERT JUMPDEST DUP5 DUP8 DUP3 DUP2 MLOAD DUP2 LT PUSH2 0xECE JUMPI INVALID JUMPDEST PUSH1 0x20 SWAP1 DUP2 MUL SWAP1 SWAP2 ADD ADD MSTORE DUP2 MLOAD DUP6 ADD SWAP5 POP DUP2 PUSH1 0x40 ADD MLOAD SWAP1 SWAP4 XOR SWAP3 PUSH1 0x1 ADD PUSH2 0xE29 JUMP JUMPDEST POP POP POP SWAP1 SWAP4 XOR SWAP4 SWAP3 POP POP POP JUMP JUMPDEST PUSH1 0xE SLOAD PUSH1 0x0 SWAP1 DUP2 SWAP1 PUSH1 0x0 NOT ADD DUP2 DUP1 DUP1 DUP1 DUP1 JUMPDEST DUP6 DUP8 EQ ISZERO PUSH2 0xF40 JUMPI PUSH1 0xE DUP1 SLOAD DUP9 SWAP1 DUP2 LT PUSH2 0xF24 JUMPI INVALID JUMPDEST PUSH1 0x0 SWAP2 DUP3 MSTORE PUSH1 0x20 SWAP1 SWAP2 KECCAK256 ADD SLOAD PUSH1 0x1 PUSH1 0xA0 PUSH1 0x2 EXP SUB AND SWAP8 POP PUSH2 0xFCD JUMP JUMPDEST PUSH1 0xE DUP1 SLOAD PUSH1 0x2 DUP10 DUP10 SUB DIV DUP10 ADD SWAP7 POP DUP7 SWAP1 DUP2 LT PUSH2 0xF58 JUMPI INVALID JUMPDEST PUSH1 0x0 SWAP2 DUP3 MSTORE PUSH1 0x20 SWAP1 SWAP2 KECCAK256 ADD SLOAD PUSH1 0x1 DUP7 ADD SWAP5 POP PUSH1 0x1 PUSH1 0xA0 PUSH1 0x2 EXP SUB AND SWAP3 POP DUP9 DUP6 DUP2 MLOAD DUP2 LT PUSH2 0xF81 JUMPI INVALID JUMPDEST SWAP1 PUSH1 0x20 ADD SWAP1 PUSH1 0x20 MUL ADD MLOAD SWAP2 POP DUP9 DUP5 DUP2 MLOAD DUP2 LT PUSH2 0xF99 JUMPI INVALID JUMPDEST SWAP1 PUSH1 0x20 ADD SWAP1 PUSH1 0x20 MUL ADD MLOAD SWAP1 POP DUP2 DUP11 LT PUSH2 0xFC4 JUMPI DUP1 DUP11 LT ISZERO PUSH2 0xFBC JUMPI DUP3 SWAP8 POP PUSH2 0xFCD JUMP JUMPDEST DUP4 SWAP7 POP PUSH2 0xFC8 JUMP JUMPDEST DUP5 SWAP6 POP JUMPDEST PUSH2 0xF0E JUMP JUMPDEST POP POP POP POP POP POP POP SWAP3 SWAP2 POP POP JUMP JUMPDEST DUP2 SLOAD DUP2 DUP4 SSTORE DUP2 DUP2 ISZERO GT PUSH2 0xFFE JUMPI PUSH1 0x0 DUP4 DUP2 MSTORE PUSH1 0x20 SWAP1 KECCAK256 PUSH2 0xFFE SWAP2 DUP2 ADD SWAP1 DUP4 ADD PUSH2 0x1035 JUMP JUMPDEST POP POP POP JUMP JUMPDEST PUSH1 0x20 PUSH1 0x40 MLOAD SWAP1 DUP2 ADD PUSH1 0x40 MSTORE PUSH1 0x0 DUP2 MSTORE SWAP1 JUMP JUMPDEST PUSH1 0x60 PUSH1 0x40 MLOAD SWAP1 DUP2 ADD PUSH1 0x40 SWAP1 DUP2 MSTORE PUSH1 0x0 DUP1 DUP4 MSTORE PUSH1 0x20 DUP4 ADD DUP2 SWAP1 MSTORE SWAP1 DUP3 ADD MSTORE SWAP1 JUMP JUMPDEST PUSH2 0x1053 SWAP2 SWAP1 JUMPDEST DUP1 DUP3 GT ISZERO PUSH2 0x104F JUMPI PUSH1 0x0 DUP2 SSTORE PUSH1 0x1 ADD PUSH2 0x103B JUMP JUMPDEST POP SWAP1 JUMP JUMPDEST SWAP1 JUMP STOP LOG1 PUSH6 0x627A7A723058 KECCAK256 0xe4 0xf6 MSTORE 0xb6 BALANCE PUSH24 0x42FECA3CAB061D45126B780F93B3F5DF4683BA4324942CB5 DIFFICULTY 0xf7 STOP 0x29 "
        }
    },
    "methods": {
        "participate": [
            "_hashedRandom"
        ],
        "participants": [
            "_0"
        ],
        "withdraw": [],
        "seed": [
            "_charityHashedRandom"
        ],
        "end": [
            "_charityRandom"
        ],
        "reveal": [
            "_random"
        ],
        "revealers": [
            "_0"
        ],
        "destroy": [],
        "balance": [],
        "raiser": [],
        "state": [],
        "cancel": [],
        "participantsMapping": [
            "_0"
        ],
        "fallback": []
    }
}