{
    "abi": [
        {
            "constant": true,
            "inputs": [
                {
                    "name": "",
                    "type": "address"
                }
            ],
            "name": "participants",
            "outputs": [
                {
                    "name": "_entries",
                    "type": "uint256"
                },
                {
                    "name": "_message",
                    "type": "bytes32"
                }
            ],
            "payable": false,
            "stateMutability": "view",
            "type": "function"
        },
        {
            "constant": false,
            "inputs": [
                {
                    "name": "_message",
                    "type": "bytes32"
                }
            ],
            "name": "participate",
            "outputs": [],
            "payable": true,
            "stateMutability": "payable",
            "type": "function"
        },
        {
            "constant": false,
            "inputs": [],
            "name": "withdraw",
            "outputs": [],
            "payable": false,
            "stateMutability": "nonpayable",
            "type": "function"
        },
        {
            "constant": true,
            "inputs": [
                {
                    "name": "",
                    "type": "uint256"
                }
            ],
            "name": "participantAddresses",
            "outputs": [
                {
                    "name": "",
                    "type": "address"
                }
            ],
            "payable": false,
            "stateMutability": "view",
            "type": "function"
        },
        {
            "constant": false,
            "inputs": [
                {
                    "name": "_secret",
                    "type": "bytes32"
                }
            ],
            "name": "seed",
            "outputs": [],
            "payable": false,
            "stateMutability": "nonpayable",
            "type": "function"
        },
        {
            "constant": false,
            "inputs": [
                {
                    "name": "_message",
                    "type": "bytes32"
                }
            ],
            "name": "reveal",
            "outputs": [],
            "payable": false,
            "stateMutability": "nonpayable",
            "type": "function"
        },
        {
            "constant": false,
            "inputs": [],
            "name": "destroy",
            "outputs": [],
            "payable": false,
            "stateMutability": "nonpayable",
            "type": "function"
        },
        {
            "constant": true,
            "inputs": [],
            "name": "balance",
            "outputs": [
                {
                    "name": "",
                    "type": "uint256"
                }
            ],
            "payable": false,
            "stateMutability": "view",
            "type": "function"
        },
        {
            "constant": false,
            "inputs": [
                {
                    "name": "_message",
                    "type": "bytes32"
                }
            ],
            "name": "select",
            "outputs": [],
            "payable": false,
            "stateMutability": "nonpayable",
            "type": "function"
        },
        {
            "constant": true,
            "inputs": [],
            "name": "raiser",
            "outputs": [
                {
                    "name": "_charity",
                    "type": "address"
                },
                {
                    "name": "_charitySplit",
                    "type": "uint256"
                },
                {
                    "name": "_selectedSplit",
                    "type": "uint256"
                },
                {
                    "name": "_owner",
                    "type": "address"
                },
                {
                    "name": "_ownerSplit",
                    "type": "uint256"
                },
                {
                    "name": "_ownerSecret",
                    "type": "bytes32"
                },
                {
                    "name": "_valuePerEntry",
                    "type": "uint256"
                },
                {
                    "name": "_deployTime",
                    "type": "uint256"
                },
                {
                    "name": "_endTime",
                    "type": "uint256"
                },
                {
                    "name": "_expireTime",
                    "type": "uint256"
                },
                {
                    "name": "_destructTime",
                    "type": "uint256"
                },
                {
                    "name": "_maxParticipants",
                    "type": "uint256"
                }
            ],
            "payable": false,
            "stateMutability": "view",
            "type": "function"
        },
        {
            "constant": true,
            "inputs": [],
            "name": "state",
            "outputs": [
                {
                    "name": "_charitySecret",
                    "type": "bytes32"
                },
                {
                    "name": "_charityMessage",
                    "type": "bytes32"
                },
                {
                    "name": "_charityWithdrawn",
                    "type": "bool"
                },
                {
                    "name": "_selected",
                    "type": "address"
                },
                {
                    "name": "_selectedMessage",
                    "type": "bytes32"
                },
                {
                    "name": "_selectedWithdrawn",
                    "type": "bool"
                },
                {
                    "name": "_ownerMessage",
                    "type": "bytes32"
                },
                {
                    "name": "_ownerWithdrawn",
                    "type": "bool"
                },
                {
                    "name": "_cancelled",
                    "type": "bool"
                },
                {
                    "name": "_totalParticipants",
                    "type": "uint256"
                },
                {
                    "name": "_totalEntries",
                    "type": "uint256"
                }
            ],
            "payable": false,
            "stateMutability": "view",
            "type": "function"
        },
        {
            "constant": false,
            "inputs": [],
            "name": "cancel",
            "outputs": [],
            "payable": false,
            "stateMutability": "nonpayable",
            "type": "function"
        },
        {
            "inputs": [
                {
                    "name": "_charity",
                    "type": "address"
                },
                {
                    "name": "_charitySplit",
                    "type": "uint256"
                },
                {
                    "name": "_selectedSplit",
                    "type": "uint256"
                },
                {
                    "name": "_ownerSplit",
                    "type": "uint256"
                },
                {
                    "name": "_ownerSecret",
                    "type": "bytes32"
                },
                {
                    "name": "_valuePerEntry",
                    "type": "uint256"
                },
                {
                    "name": "_endTime",
                    "type": "uint256"
                },
                {
                    "name": "_expireTime",
                    "type": "uint256"
                },
                {
                    "name": "_destructTime",
                    "type": "uint256"
                },
                {
                    "name": "_maxParticipants",
                    "type": "uint256"
                }
            ],
            "payable": false,
            "stateMutability": "nonpayable",
            "type": "constructor"
        },
        {
            "payable": true,
            "stateMutability": "payable",
            "type": "fallback"
        },
        {
            "anonymous": false,
            "inputs": [
                {
                    "indexed": false,
                    "name": "_charitySecret",
                    "type": "bytes32"
                }
            ],
            "name": "Seed",
            "type": "event"
        },
        {
            "anonymous": false,
            "inputs": [
                {
                    "indexed": false,
                    "name": "_participant",
                    "type": "address"
                },
                {
                    "indexed": false,
                    "name": "_message",
                    "type": "bytes32"
                },
                {
                    "indexed": false,
                    "name": "_entries",
                    "type": "uint256"
                },
                {
                    "indexed": false,
                    "name": "_refund",
                    "type": "uint256"
                }
            ],
            "name": "Participation",
            "type": "event"
        },
        {
            "anonymous": false,
            "inputs": [
                {
                    "indexed": false,
                    "name": "_participant",
                    "type": "address"
                },
                {
                    "indexed": false,
                    "name": "_entries",
                    "type": "uint256"
                },
                {
                    "indexed": false,
                    "name": "_refund",
                    "type": "uint256"
                }
            ],
            "name": "Raise",
            "type": "event"
        },
        {
            "anonymous": false,
            "inputs": [
                {
                    "indexed": false,
                    "name": "_message",
                    "type": "bytes32"
                }
            ],
            "name": "Revelation",
            "type": "event"
        },
        {
            "anonymous": false,
            "inputs": [
                {
                    "indexed": false,
                    "name": "_selected",
                    "type": "address"
                },
                {
                    "indexed": false,
                    "name": "_selectedMessage",
                    "type": "bytes32"
                },
                {
                    "indexed": false,
                    "name": "_charityMessage",
                    "type": "bytes32"
                },
                {
                    "indexed": false,
                    "name": "_ownerMessage",
                    "type": "bytes32"
                }
            ],
            "name": "Selection",
            "type": "event"
        },
        {
            "anonymous": false,
            "inputs": [],
            "name": "Cancellation",
            "type": "event"
        },
        {
            "anonymous": false,
            "inputs": [
                {
                    "indexed": false,
                    "name": "_address",
                    "type": "address"
                }
            ],
            "name": "Withdrawal",
            "type": "event"
        }
    ],
    "evm": {
        "bytecode": {
            "linkReferences": {},
            "object": "6060604052341561000f57600080fd5b604051610140806111f383398101604052808051919060200180519190602001805191906020018051919060200180519190602001805191906020018051919060200180519190602001805191906020018051915050600160a060020a038a16151561007a57600080fd5b88151561008657600080fd5b87151561009257600080fd5b6103e88989018801146100a457600080fd5b8515156100b057600080fd5b8415156100bc57600080fd5b4284116100c857600080fd5b8383116100d457600080fd5b8282116100e057600080fd5b610180604051908101604052808b600160a060020a031681526020018a815260200189815260200133600160a060020a0316815260200188815260200187600019168152602001868152602001428152602001858152602001848152602001838152602001828152506000808201518154600160a060020a031916600160a060020a039190911617815560208201518160010155604082015181600201556060820151600382018054600160a060020a031916600160a060020a03929092169190911790556080820151816004015560a0820151600582015560c0820151816006015560e082015181600701556101008201518160080155610120820151816009015561014082015181600a0155610160820151600b909101555050505050505050505050610fdf806102146000396000f3006060604052600436106100b95763ffffffff7c010000000000000000000000000000000000000000000000000000000060003504166309e69ede81146101bf5780630a14504c146101f65780633ccfd60b1461020357806354ffbddb1461021657806365bf503514610248578063701fd0f11461025e57806383197ef014610274578063b69ef8a814610287578063b971ad62146102ac578063be4f3b0b146102c2578063c19d93fb14610346578063ea8a1af0146103c7575b6008546000908190819042106100ce57600080fd5b60005433600160a060020a03908116911614156100ea57600080fd5b60035433600160a060020a039081169116141561010657600080fd5b601254610100900460ff161561011b57600080fd5b600e54151561012957600080fd5b600160a060020a0333166000908152600c602052604090206001810154909350151561015457600080fd5b61015d836103da565b915091507f11df61431069ecb6bffb62f185491e4adc966b75b0648630ea30f60cfff8a9e53383836040518084600160a060020a0316600160a060020a03168152602001838152602001828152602001935050505060405180910390a1505050005b34156101ca57600080fd5b6101de600160a060020a036004351661045b565b60405191825260208201526040908101905180910390f35b610201600435610474565b005b341561020e57600080fd5b610201610604565b341561022157600080fd5b61022c600435610787565b604051600160a060020a03909116815260200160405180910390f35b341561025357600080fd5b6102016004356107af565b341561026957600080fd5b610201600435610841565b341561027f57600080fd5b6102016108ef565b341561029257600080fd5b61029a610925565b60405190815260200160405180910390f35b34156102b757600080fd5b610201600435610a5d565b34156102cd57600080fd5b6102d5610c42565b604051600160a060020a039c8d168152602081019b909b526040808c019a909a5297909a1660608a0152608089019590955260a088019390935260c087019190915260e086015261010085015261012084015261014083019390935261016082019290925261018001905180910390f35b341561035157600080fd5b610359610c79565b6040519a8b5260208b01999099529615156040808b0191909152600160a060020a0390961660608a0152608089019490945291151560a088015260c0870152151560e08601521515610100850152610120840191909152610140830191909152610160909101905180910390f35b34156103d257600080fd5b610201610ce6565b600080600060060154348115156103ed57fe5b04915060018210156103fe57600080fd5b82548201835560138054830190556006543481151561041957fe5b069050600081111561045657600160a060020a03331681156108fc0282604051600060405180830381858888f19350505050151561045657600080fd5b915091565b600c602052600090815260409020805460019091015482565b60085460009081908190421061048957600080fd5b60005433600160a060020a03908116911614156104a557600080fd5b60035433600160a060020a03908116911614156104c157600080fd5b601254610100900460ff16156104d657600080fd5b600e5415156104e457600080fd5b8315156104f057600080fd5b600b5415806105025750600b54600d54105b151561050d57600080fd5b600160a060020a0333166000908152600c6020526040902080549093501561053457600080fd5b60018301541561054357600080fd5b61054c836103da565b6001808601879055600d8054939550919350909190810161056d8382610f40565b506000918252602090912001805473ffffffffffffffffffffffffffffffffffffffff191633600160a060020a038116919091179091557f6f75810cfd16e411e8e12bc62c9265a590ce60215e3ccd143073b4e70213594590858484604051600160a060020a039094168452602084019290925260408084019190915260608301919091526080909101905180910390a150505050565b60008061060f610925565b91506000821161061e57600080fd5b6010546101009004600160a060020a0316156106e85760005433600160a060020a039081169116141561065d576010805460ff191660011790556106e3565b60105433600160a060020a039081166101009092041614156106b5576010805475ff000000000000000000000000000000000000000000191675010000000000000000000000000000000000000000001790556106e3565b60035433600160a060020a03908116911614156106de576012805460ff191660011790556106e3565b600080fd5b610715565b601254610100900460ff16156106de5750600160a060020a0333166000908152600c602052604081209081555b600160a060020a03331682156108fc0283604051600060405180830381858888f19350505050151561074657600080fd5b7fe19ed71156e31b3c9e18ac7ad8d1b79f0a0feb3be18d23dae612e52040aada4b33604051600160a060020a03909116815260200160405180910390a15050565b600d80548290811061079557fe5b600091825260209091200154600160a060020a0316905081565b60085442106107bd57600080fd5b60005433600160a060020a039081169116146107d857600080fd5b601254610100900460ff16156107ed57600080fd5b600e54156107fa57600080fd5b80151561080657600080fd5b600e8190557fda4d6ec5231d2c0c6df0363ca304c820da85c4c675c7b68df26970cef46c6b2b8160405190815260200160405180910390a150565b6008544210801590610854575060095442105b151561085f57600080fd5b60005433600160a060020a0390811691161461087a57600080fd5b601254610100900460ff161561088f57600080fd5b600f541561089c57600080fd5b600e546108a99082610da4565b15156108b457600080fd5b600f8190557f83985f84fec43f6c4b0b122be29b8625fc89e54a2fb6ba2b76a2751c1c7874d98160405190815260200160405180910390a150565b600a544210156108fe57600080fd5b60035433600160a060020a0390811691161461091957600080fd5b33600160a060020a0316ff5b601054600090819081906101009004600160a060020a031615610a1d5760005433600160a060020a03908116911614156109775760105460ff161561096d5760009250610a58565b6001549150610a08565b60105433600160a060020a039081166101009092041614156109ca576010547501000000000000000000000000000000000000000000900460ff16156109c05760009250610a58565b6002549150610a08565b60035433600160a060020a03908116911614156109ff5760125460ff16156109f55760009250610a58565b6004549150610a08565b60009250610a58565b6006546013546103e891028302049250610a58565b601254610100900460ff1615610a535750600160a060020a0333166000908152600c602052604090206006548154029250610a58565b600092505b505090565b610a65610f69565b600080600080610a73610f7b565b6008544210801590610a86575060095442105b1515610a9157600080fd5b60035433600160a060020a03908116911614610aac57600080fd5b601254610100900460ff1615610ac157600080fd5b600f541515610acf57600080fd5b60115415610adc57600080fd5b600554610ae99088610da4565b1515610af457600080fd5b6011879055600d54604051805910610b095750595b90808252806020026020018201604052509550610b2586610de1565b600f5460135491965086188818945084811515610b3e57fe5b069250610b4b8387610ea8565b9150600d82815481101515610b5c57fe5b6000918252602080832091909101546010805474ffffffffffffffffffffffffffffffffffffffff001916610100600160a060020a03938416810291909117918290559004168252600c905260409081902090805190810160405281548152600190910154602082019081526010549192507f7c195d9d8ca6f7aedfce85403a18bad6de0c1b5864a97fa635ae120b4eb4f8c3916101009004600160a060020a03169051600f548a604051600160a060020a039094168452602084019290925260408084019190915260608301919091526080909101905180910390a150505050505050565b600054600154600254600354600454600554600654600754600854600954600a54600b54600160a060020a039b8c169b909816978c565b600e54600f54601054610100808204600160a060020a03166000818152600c6020526040902060010154601154601254600d546013549899979860ff8089169996989597750100000000000000000000000000000000000000000090960481169694958185169594041692565b601254610100900460ff1615610cfb57600080fd5b6010546101009004600160a060020a031615610d1657600080fd5b60035433600160a060020a03908116911614801590610d44575060005433600160a060020a03908116911614155b15610d67576009544210801590610d5c5750600a5442105b1515610d6757600080fd5b6012805461ff0019166101001790557f4a19036f5b4d75256c1c24150a8254bd3c2bdb1eaeeec4523e927f0ab1cdd05460405160405180910390a1565b60008133604051918252600160a060020a03166c010000000000000000000000000260208201526034016040519081900390208314905092915050565b600080600080610def610f7b565b60009250829150815b600d54811015610e9d57600d805482908110610e1057fe5b6000918252602080832090910154600160a060020a0316808352600c909152604091829020909650908051908101604052815481526001918201546020820152925082511015610e5f57600080fd5b81602001511515610e6f57600080fd5b83878281518110610e7c57fe5b60209081029091010152815184019350816020015190921891600101610df8565b509095945050505050565b600d5460009081908190819081908190600019015b80821415610ecd57819650610f34565b60028282030482019350836001019250878481518110610ee957fe5b906020019060200201519550878381518110610f0157fe5b906020019060200201519450858910610f2c5784891015610f2457839650610f34565b829150610f2f565b50825b610ebd565b50505050505092915050565b815481835581811511610f6457600083815260209020610f64918101908301610f92565b505050565b60206040519081016040526000815290565b604080519081016040526000808252602082015290565b610fb091905b80821115610fac5760008155600101610f98565b5090565b905600a165627a7a7230582095ae3256cde72156cffb20d5217b9ad6b1c03c1e0ee64185086ff1fa573873940029",
            "opcodes": "PUSH1 0x60 PUSH1 0x40 MSTORE CALLVALUE ISZERO PUSH2 0xF JUMPI PUSH1 0x0 DUP1 REVERT JUMPDEST PUSH1 0x40 MLOAD PUSH2 0x140 DUP1 PUSH2 0x11F3 DUP4 CODECOPY DUP2 ADD PUSH1 0x40 MSTORE DUP1 DUP1 MLOAD SWAP2 SWAP1 PUSH1 0x20 ADD DUP1 MLOAD SWAP2 SWAP1 PUSH1 0x20 ADD DUP1 MLOAD SWAP2 SWAP1 PUSH1 0x20 ADD DUP1 MLOAD SWAP2 SWAP1 PUSH1 0x20 ADD DUP1 MLOAD SWAP2 SWAP1 PUSH1 0x20 ADD DUP1 MLOAD SWAP2 SWAP1 PUSH1 0x20 ADD DUP1 MLOAD SWAP2 SWAP1 PUSH1 0x20 ADD DUP1 MLOAD SWAP2 SWAP1 PUSH1 0x20 ADD DUP1 MLOAD SWAP2 SWAP1 PUSH1 0x20 ADD DUP1 MLOAD SWAP2 POP POP PUSH1 0x1 PUSH1 0xA0 PUSH1 0x2 EXP SUB DUP11 AND ISZERO ISZERO PUSH2 0x7A JUMPI PUSH1 0x0 DUP1 REVERT JUMPDEST DUP9 ISZERO ISZERO PUSH2 0x86 JUMPI PUSH1 0x0 DUP1 REVERT JUMPDEST DUP8 ISZERO ISZERO PUSH2 0x92 JUMPI PUSH1 0x0 DUP1 REVERT JUMPDEST PUSH2 0x3E8 DUP10 DUP10 ADD DUP9 ADD EQ PUSH2 0xA4 JUMPI PUSH1 0x0 DUP1 REVERT JUMPDEST DUP6 ISZERO ISZERO PUSH2 0xB0 JUMPI PUSH1 0x0 DUP1 REVERT JUMPDEST DUP5 ISZERO ISZERO PUSH2 0xBC JUMPI PUSH1 0x0 DUP1 REVERT JUMPDEST TIMESTAMP DUP5 GT PUSH2 0xC8 JUMPI PUSH1 0x0 DUP1 REVERT JUMPDEST DUP4 DUP4 GT PUSH2 0xD4 JUMPI PUSH1 0x0 DUP1 REVERT JUMPDEST DUP3 DUP3 GT PUSH2 0xE0 JUMPI PUSH1 0x0 DUP1 REVERT JUMPDEST PUSH2 0x180 PUSH1 0x40 MLOAD SWAP1 DUP2 ADD PUSH1 0x40 MSTORE DUP1 DUP12 PUSH1 0x1 PUSH1 0xA0 PUSH1 0x2 EXP SUB AND DUP2 MSTORE PUSH1 0x20 ADD DUP11 DUP2 MSTORE PUSH1 0x20 ADD DUP10 DUP2 MSTORE PUSH1 0x20 ADD CALLER PUSH1 0x1 PUSH1 0xA0 PUSH1 0x2 EXP SUB AND DUP2 MSTORE PUSH1 0x20 ADD DUP9 DUP2 MSTORE PUSH1 0x20 ADD DUP8 PUSH1 0x0 NOT AND DUP2 MSTORE PUSH1 0x20 ADD DUP7 DUP2 MSTORE PUSH1 0x20 ADD TIMESTAMP DUP2 MSTORE PUSH1 0x20 ADD DUP6 DUP2 MSTORE PUSH1 0x20 ADD DUP5 DUP2 MSTORE PUSH1 0x20 ADD DUP4 DUP2 MSTORE PUSH1 0x20 ADD DUP3 DUP2 MSTORE POP PUSH1 0x0 DUP1 DUP3 ADD MLOAD DUP2 SLOAD PUSH1 0x1 PUSH1 0xA0 PUSH1 0x2 EXP SUB NOT AND PUSH1 0x1 PUSH1 0xA0 PUSH1 0x2 EXP SUB SWAP2 SWAP1 SWAP2 AND OR DUP2 SSTORE PUSH1 0x20 DUP3 ADD MLOAD DUP2 PUSH1 0x1 ADD SSTORE PUSH1 0x40 DUP3 ADD MLOAD DUP2 PUSH1 0x2 ADD SSTORE PUSH1 0x60 DUP3 ADD MLOAD PUSH1 0x3 DUP3 ADD DUP1 SLOAD PUSH1 0x1 PUSH1 0xA0 PUSH1 0x2 EXP SUB NOT AND PUSH1 0x1 PUSH1 0xA0 PUSH1 0x2 EXP SUB SWAP3 SWAP1 SWAP3 AND SWAP2 SWAP1 SWAP2 OR SWAP1 SSTORE PUSH1 0x80 DUP3 ADD MLOAD DUP2 PUSH1 0x4 ADD SSTORE PUSH1 0xA0 DUP3 ADD MLOAD PUSH1 0x5 DUP3 ADD SSTORE PUSH1 0xC0 DUP3 ADD MLOAD DUP2 PUSH1 0x6 ADD SSTORE PUSH1 0xE0 DUP3 ADD MLOAD DUP2 PUSH1 0x7 ADD SSTORE PUSH2 0x100 DUP3 ADD MLOAD DUP2 PUSH1 0x8 ADD SSTORE PUSH2 0x120 DUP3 ADD MLOAD DUP2 PUSH1 0x9 ADD SSTORE PUSH2 0x140 DUP3 ADD MLOAD DUP2 PUSH1 0xA ADD SSTORE PUSH2 0x160 DUP3 ADD MLOAD PUSH1 0xB SWAP1 SWAP2 ADD SSTORE POP POP POP POP POP POP POP POP POP POP POP PUSH2 0xFDF DUP1 PUSH2 0x214 PUSH1 0x0 CODECOPY PUSH1 0x0 RETURN STOP PUSH1 0x60 PUSH1 0x40 MSTORE PUSH1 0x4 CALLDATASIZE LT PUSH2 0xB9 JUMPI PUSH4 0xFFFFFFFF PUSH29 0x100000000000000000000000000000000000000000000000000000000 PUSH1 0x0 CALLDATALOAD DIV AND PUSH4 0x9E69EDE DUP2 EQ PUSH2 0x1BF JUMPI DUP1 PUSH4 0xA14504C EQ PUSH2 0x1F6 JUMPI DUP1 PUSH4 0x3CCFD60B EQ PUSH2 0x203 JUMPI DUP1 PUSH4 0x54FFBDDB EQ PUSH2 0x216 JUMPI DUP1 PUSH4 0x65BF5035 EQ PUSH2 0x248 JUMPI DUP1 PUSH4 0x701FD0F1 EQ PUSH2 0x25E JUMPI DUP1 PUSH4 0x83197EF0 EQ PUSH2 0x274 JUMPI DUP1 PUSH4 0xB69EF8A8 EQ PUSH2 0x287 JUMPI DUP1 PUSH4 0xB971AD62 EQ PUSH2 0x2AC JUMPI DUP1 PUSH4 0xBE4F3B0B EQ PUSH2 0x2C2 JUMPI DUP1 PUSH4 0xC19D93FB EQ PUSH2 0x346 JUMPI DUP1 PUSH4 0xEA8A1AF0 EQ PUSH2 0x3C7 JUMPI JUMPDEST PUSH1 0x8 SLOAD PUSH1 0x0 SWAP1 DUP2 SWAP1 DUP2 SWAP1 TIMESTAMP LT PUSH2 0xCE JUMPI PUSH1 0x0 DUP1 REVERT JUMPDEST PUSH1 0x0 SLOAD CALLER PUSH1 0x1 PUSH1 0xA0 PUSH1 0x2 EXP SUB SWAP1 DUP2 AND SWAP2 AND EQ ISZERO PUSH2 0xEA JUMPI PUSH1 0x0 DUP1 REVERT JUMPDEST PUSH1 0x3 SLOAD CALLER PUSH1 0x1 PUSH1 0xA0 PUSH1 0x2 EXP SUB SWAP1 DUP2 AND SWAP2 AND EQ ISZERO PUSH2 0x106 JUMPI PUSH1 0x0 DUP1 REVERT JUMPDEST PUSH1 0x12 SLOAD PUSH2 0x100 SWAP1 DIV PUSH1 0xFF AND ISZERO PUSH2 0x11B JUMPI PUSH1 0x0 DUP1 REVERT JUMPDEST PUSH1 0xE SLOAD ISZERO ISZERO PUSH2 0x129 JUMPI PUSH1 0x0 DUP1 REVERT JUMPDEST PUSH1 0x1 PUSH1 0xA0 PUSH1 0x2 EXP SUB CALLER AND PUSH1 0x0 SWAP1 DUP2 MSTORE PUSH1 0xC PUSH1 0x20 MSTORE PUSH1 0x40 SWAP1 KECCAK256 PUSH1 0x1 DUP2 ADD SLOAD SWAP1 SWAP4 POP ISZERO ISZERO PUSH2 0x154 JUMPI PUSH1 0x0 DUP1 REVERT JUMPDEST PUSH2 0x15D DUP4 PUSH2 0x3DA JUMP JUMPDEST SWAP2 POP SWAP2 POP PUSH32 0x11DF61431069ECB6BFFB62F185491E4ADC966B75B0648630EA30F60CFFF8A9E5 CALLER DUP4 DUP4 PUSH1 0x40 MLOAD DUP1 DUP5 PUSH1 0x1 PUSH1 0xA0 PUSH1 0x2 EXP SUB AND PUSH1 0x1 PUSH1 0xA0 PUSH1 0x2 EXP SUB AND DUP2 MSTORE PUSH1 0x20 ADD DUP4 DUP2 MSTORE PUSH1 0x20 ADD DUP3 DUP2 MSTORE PUSH1 0x20 ADD SWAP4 POP POP POP POP PUSH1 0x40 MLOAD DUP1 SWAP2 SUB SWAP1 LOG1 POP POP POP STOP JUMPDEST CALLVALUE ISZERO PUSH2 0x1CA JUMPI PUSH1 0x0 DUP1 REVERT JUMPDEST PUSH2 0x1DE PUSH1 0x1 PUSH1 0xA0 PUSH1 0x2 EXP SUB PUSH1 0x4 CALLDATALOAD AND PUSH2 0x45B JUMP JUMPDEST PUSH1 0x40 MLOAD SWAP2 DUP3 MSTORE PUSH1 0x20 DUP3 ADD MSTORE PUSH1 0x40 SWAP1 DUP2 ADD SWAP1 MLOAD DUP1 SWAP2 SUB SWAP1 RETURN JUMPDEST PUSH2 0x201 PUSH1 0x4 CALLDATALOAD PUSH2 0x474 JUMP JUMPDEST STOP JUMPDEST CALLVALUE ISZERO PUSH2 0x20E JUMPI PUSH1 0x0 DUP1 REVERT JUMPDEST PUSH2 0x201 PUSH2 0x604 JUMP JUMPDEST CALLVALUE ISZERO PUSH2 0x221 JUMPI PUSH1 0x0 DUP1 REVERT JUMPDEST PUSH2 0x22C PUSH1 0x4 CALLDATALOAD PUSH2 0x787 JUMP JUMPDEST PUSH1 0x40 MLOAD PUSH1 0x1 PUSH1 0xA0 PUSH1 0x2 EXP SUB SWAP1 SWAP2 AND DUP2 MSTORE PUSH1 0x20 ADD PUSH1 0x40 MLOAD DUP1 SWAP2 SUB SWAP1 RETURN JUMPDEST CALLVALUE ISZERO PUSH2 0x253 JUMPI PUSH1 0x0 DUP1 REVERT JUMPDEST PUSH2 0x201 PUSH1 0x4 CALLDATALOAD PUSH2 0x7AF JUMP JUMPDEST CALLVALUE ISZERO PUSH2 0x269 JUMPI PUSH1 0x0 DUP1 REVERT JUMPDEST PUSH2 0x201 PUSH1 0x4 CALLDATALOAD PUSH2 0x841 JUMP JUMPDEST CALLVALUE ISZERO PUSH2 0x27F JUMPI PUSH1 0x0 DUP1 REVERT JUMPDEST PUSH2 0x201 PUSH2 0x8EF JUMP JUMPDEST CALLVALUE ISZERO PUSH2 0x292 JUMPI PUSH1 0x0 DUP1 REVERT JUMPDEST PUSH2 0x29A PUSH2 0x925 JUMP JUMPDEST PUSH1 0x40 MLOAD SWAP1 DUP2 MSTORE PUSH1 0x20 ADD PUSH1 0x40 MLOAD DUP1 SWAP2 SUB SWAP1 RETURN JUMPDEST CALLVALUE ISZERO PUSH2 0x2B7 JUMPI PUSH1 0x0 DUP1 REVERT JUMPDEST PUSH2 0x201 PUSH1 0x4 CALLDATALOAD PUSH2 0xA5D JUMP JUMPDEST CALLVALUE ISZERO PUSH2 0x2CD JUMPI PUSH1 0x0 DUP1 REVERT JUMPDEST PUSH2 0x2D5 PUSH2 0xC42 JUMP JUMPDEST PUSH1 0x40 MLOAD PUSH1 0x1 PUSH1 0xA0 PUSH1 0x2 EXP SUB SWAP13 DUP14 AND DUP2 MSTORE PUSH1 0x20 DUP2 ADD SWAP12 SWAP1 SWAP12 MSTORE PUSH1 0x40 DUP1 DUP13 ADD SWAP11 SWAP1 SWAP11 MSTORE SWAP8 SWAP1 SWAP11 AND PUSH1 0x60 DUP11 ADD MSTORE PUSH1 0x80 DUP10 ADD SWAP6 SWAP1 SWAP6 MSTORE PUSH1 0xA0 DUP9 ADD SWAP4 SWAP1 SWAP4 MSTORE PUSH1 0xC0 DUP8 ADD SWAP2 SWAP1 SWAP2 MSTORE PUSH1 0xE0 DUP7 ADD MSTORE PUSH2 0x100 DUP6 ADD MSTORE PUSH2 0x120 DUP5 ADD MSTORE PUSH2 0x140 DUP4 ADD SWAP4 SWAP1 SWAP4 MSTORE PUSH2 0x160 DUP3 ADD SWAP3 SWAP1 SWAP3 MSTORE PUSH2 0x180 ADD SWAP1 MLOAD DUP1 SWAP2 SUB SWAP1 RETURN JUMPDEST CALLVALUE ISZERO PUSH2 0x351 JUMPI PUSH1 0x0 DUP1 REVERT JUMPDEST PUSH2 0x359 PUSH2 0xC79 JUMP JUMPDEST PUSH1 0x40 MLOAD SWAP11 DUP12 MSTORE PUSH1 0x20 DUP12 ADD SWAP10 SWAP1 SWAP10 MSTORE SWAP7 ISZERO ISZERO PUSH1 0x40 DUP1 DUP12 ADD SWAP2 SWAP1 SWAP2 MSTORE PUSH1 0x1 PUSH1 0xA0 PUSH1 0x2 EXP SUB SWAP1 SWAP7 AND PUSH1 0x60 DUP11 ADD MSTORE PUSH1 0x80 DUP10 ADD SWAP5 SWAP1 SWAP5 MSTORE SWAP2 ISZERO ISZERO PUSH1 0xA0 DUP9 ADD MSTORE PUSH1 0xC0 DUP8 ADD MSTORE ISZERO ISZERO PUSH1 0xE0 DUP7 ADD MSTORE ISZERO ISZERO PUSH2 0x100 DUP6 ADD MSTORE PUSH2 0x120 DUP5 ADD SWAP2 SWAP1 SWAP2 MSTORE PUSH2 0x140 DUP4 ADD SWAP2 SWAP1 SWAP2 MSTORE PUSH2 0x160 SWAP1 SWAP2 ADD SWAP1 MLOAD DUP1 SWAP2 SUB SWAP1 RETURN JUMPDEST CALLVALUE ISZERO PUSH2 0x3D2 JUMPI PUSH1 0x0 DUP1 REVERT JUMPDEST PUSH2 0x201 PUSH2 0xCE6 JUMP JUMPDEST PUSH1 0x0 DUP1 PUSH1 0x0 PUSH1 0x6 ADD SLOAD CALLVALUE DUP2 ISZERO ISZERO PUSH2 0x3ED JUMPI INVALID JUMPDEST DIV SWAP2 POP PUSH1 0x1 DUP3 LT ISZERO PUSH2 0x3FE JUMPI PUSH1 0x0 DUP1 REVERT JUMPDEST DUP3 SLOAD DUP3 ADD DUP4 SSTORE PUSH1 0x13 DUP1 SLOAD DUP4 ADD SWAP1 SSTORE PUSH1 0x6 SLOAD CALLVALUE DUP2 ISZERO ISZERO PUSH2 0x419 JUMPI INVALID JUMPDEST MOD SWAP1 POP PUSH1 0x0 DUP2 GT ISZERO PUSH2 0x456 JUMPI PUSH1 0x1 PUSH1 0xA0 PUSH1 0x2 EXP SUB CALLER AND DUP2 ISZERO PUSH2 0x8FC MUL DUP3 PUSH1 0x40 MLOAD PUSH1 0x0 PUSH1 0x40 MLOAD DUP1 DUP4 SUB DUP2 DUP6 DUP9 DUP9 CALL SWAP4 POP POP POP POP ISZERO ISZERO PUSH2 0x456 JUMPI PUSH1 0x0 DUP1 REVERT JUMPDEST SWAP2 POP SWAP2 JUMP JUMPDEST PUSH1 0xC PUSH1 0x20 MSTORE PUSH1 0x0 SWAP1 DUP2 MSTORE PUSH1 0x40 SWAP1 KECCAK256 DUP1 SLOAD PUSH1 0x1 SWAP1 SWAP2 ADD SLOAD DUP3 JUMP JUMPDEST PUSH1 0x8 SLOAD PUSH1 0x0 SWAP1 DUP2 SWAP1 DUP2 SWAP1 TIMESTAMP LT PUSH2 0x489 JUMPI PUSH1 0x0 DUP1 REVERT JUMPDEST PUSH1 0x0 SLOAD CALLER PUSH1 0x1 PUSH1 0xA0 PUSH1 0x2 EXP SUB SWAP1 DUP2 AND SWAP2 AND EQ ISZERO PUSH2 0x4A5 JUMPI PUSH1 0x0 DUP1 REVERT JUMPDEST PUSH1 0x3 SLOAD CALLER PUSH1 0x1 PUSH1 0xA0 PUSH1 0x2 EXP SUB SWAP1 DUP2 AND SWAP2 AND EQ ISZERO PUSH2 0x4C1 JUMPI PUSH1 0x0 DUP1 REVERT JUMPDEST PUSH1 0x12 SLOAD PUSH2 0x100 SWAP1 DIV PUSH1 0xFF AND ISZERO PUSH2 0x4D6 JUMPI PUSH1 0x0 DUP1 REVERT JUMPDEST PUSH1 0xE SLOAD ISZERO ISZERO PUSH2 0x4E4 JUMPI PUSH1 0x0 DUP1 REVERT JUMPDEST DUP4 ISZERO ISZERO PUSH2 0x4F0 JUMPI PUSH1 0x0 DUP1 REVERT JUMPDEST PUSH1 0xB SLOAD ISZERO DUP1 PUSH2 0x502 JUMPI POP PUSH1 0xB SLOAD PUSH1 0xD SLOAD LT JUMPDEST ISZERO ISZERO PUSH2 0x50D JUMPI PUSH1 0x0 DUP1 REVERT JUMPDEST PUSH1 0x1 PUSH1 0xA0 PUSH1 0x2 EXP SUB CALLER AND PUSH1 0x0 SWAP1 DUP2 MSTORE PUSH1 0xC PUSH1 0x20 MSTORE PUSH1 0x40 SWAP1 KECCAK256 DUP1 SLOAD SWAP1 SWAP4 POP ISZERO PUSH2 0x534 JUMPI PUSH1 0x0 DUP1 REVERT JUMPDEST PUSH1 0x1 DUP4 ADD SLOAD ISZERO PUSH2 0x543 JUMPI PUSH1 0x0 DUP1 REVERT JUMPDEST PUSH2 0x54C DUP4 PUSH2 0x3DA JUMP JUMPDEST PUSH1 0x1 DUP1 DUP7 ADD DUP8 SWAP1 SSTORE PUSH1 0xD DUP1 SLOAD SWAP4 SWAP6 POP SWAP2 SWAP4 POP SWAP1 SWAP2 SWAP1 DUP2 ADD PUSH2 0x56D DUP4 DUP3 PUSH2 0xF40 JUMP JUMPDEST POP PUSH1 0x0 SWAP2 DUP3 MSTORE PUSH1 0x20 SWAP1 SWAP2 KECCAK256 ADD DUP1 SLOAD PUSH20 0xFFFFFFFFFFFFFFFFFFFFFFFFFFFFFFFFFFFFFFFF NOT AND CALLER PUSH1 0x1 PUSH1 0xA0 PUSH1 0x2 EXP SUB DUP2 AND SWAP2 SWAP1 SWAP2 OR SWAP1 SWAP2 SSTORE PUSH32 0x6F75810CFD16E411E8E12BC62C9265A590CE60215E3CCD143073B4E702135945 SWAP1 DUP6 DUP5 DUP5 PUSH1 0x40 MLOAD PUSH1 0x1 PUSH1 0xA0 PUSH1 0x2 EXP SUB SWAP1 SWAP5 AND DUP5 MSTORE PUSH1 0x20 DUP5 ADD SWAP3 SWAP1 SWAP3 MSTORE PUSH1 0x40 DUP1 DUP5 ADD SWAP2 SWAP1 SWAP2 MSTORE PUSH1 0x60 DUP4 ADD SWAP2 SWAP1 SWAP2 MSTORE PUSH1 0x80 SWAP1 SWAP2 ADD SWAP1 MLOAD DUP1 SWAP2 SUB SWAP1 LOG1 POP POP POP POP JUMP JUMPDEST PUSH1 0x0 DUP1 PUSH2 0x60F PUSH2 0x925 JUMP JUMPDEST SWAP2 POP PUSH1 0x0 DUP3 GT PUSH2 0x61E JUMPI PUSH1 0x0 DUP1 REVERT JUMPDEST PUSH1 0x10 SLOAD PUSH2 0x100 SWAP1 DIV PUSH1 0x1 PUSH1 0xA0 PUSH1 0x2 EXP SUB AND ISZERO PUSH2 0x6E8 JUMPI PUSH1 0x0 SLOAD CALLER PUSH1 0x1 PUSH1 0xA0 PUSH1 0x2 EXP SUB SWAP1 DUP2 AND SWAP2 AND EQ ISZERO PUSH2 0x65D JUMPI PUSH1 0x10 DUP1 SLOAD PUSH1 0xFF NOT AND PUSH1 0x1 OR SWAP1 SSTORE PUSH2 0x6E3 JUMP JUMPDEST PUSH1 0x10 SLOAD CALLER PUSH1 0x1 PUSH1 0xA0 PUSH1 0x2 EXP SUB SWAP1 DUP2 AND PUSH2 0x100 SWAP1 SWAP3 DIV AND EQ ISZERO PUSH2 0x6B5 JUMPI PUSH1 0x10 DUP1 SLOAD PUSH22 0xFF000000000000000000000000000000000000000000 NOT AND PUSH22 0x1000000000000000000000000000000000000000000 OR SWAP1 SSTORE PUSH2 0x6E3 JUMP JUMPDEST PUSH1 0x3 SLOAD CALLER PUSH1 0x1 PUSH1 0xA0 PUSH1 0x2 EXP SUB SWAP1 DUP2 AND SWAP2 AND EQ ISZERO PUSH2 0x6DE JUMPI PUSH1 0x12 DUP1 SLOAD PUSH1 0xFF NOT AND PUSH1 0x1 OR SWAP1 SSTORE PUSH2 0x6E3 JUMP JUMPDEST PUSH1 0x0 DUP1 REVERT JUMPDEST PUSH2 0x715 JUMP JUMPDEST PUSH1 0x12 SLOAD PUSH2 0x100 SWAP1 DIV PUSH1 0xFF AND ISZERO PUSH2 0x6DE JUMPI POP PUSH1 0x1 PUSH1 0xA0 PUSH1 0x2 EXP SUB CALLER AND PUSH1 0x0 SWAP1 DUP2 MSTORE PUSH1 0xC PUSH1 0x20 MSTORE PUSH1 0x40 DUP2 KECCAK256 SWAP1 DUP2 SSTORE JUMPDEST PUSH1 0x1 PUSH1 0xA0 PUSH1 0x2 EXP SUB CALLER AND DUP3 ISZERO PUSH2 0x8FC MUL DUP4 PUSH1 0x40 MLOAD PUSH1 0x0 PUSH1 0x40 MLOAD DUP1 DUP4 SUB DUP2 DUP6 DUP9 DUP9 CALL SWAP4 POP POP POP POP ISZERO ISZERO PUSH2 0x746 JUMPI PUSH1 0x0 DUP1 REVERT JUMPDEST PUSH32 0xE19ED71156E31B3C9E18AC7AD8D1B79F0A0FEB3BE18D23DAE612E52040AADA4B CALLER PUSH1 0x40 MLOAD PUSH1 0x1 PUSH1 0xA0 PUSH1 0x2 EXP SUB SWAP1 SWAP2 AND DUP2 MSTORE PUSH1 0x20 ADD PUSH1 0x40 MLOAD DUP1 SWAP2 SUB SWAP1 LOG1 POP POP JUMP JUMPDEST PUSH1 0xD DUP1 SLOAD DUP3 SWAP1 DUP2 LT PUSH2 0x795 JUMPI INVALID JUMPDEST PUSH1 0x0 SWAP2 DUP3 MSTORE PUSH1 0x20 SWAP1 SWAP2 KECCAK256 ADD SLOAD PUSH1 0x1 PUSH1 0xA0 PUSH1 0x2 EXP SUB AND SWAP1 POP DUP2 JUMP JUMPDEST PUSH1 0x8 SLOAD TIMESTAMP LT PUSH2 0x7BD JUMPI PUSH1 0x0 DUP1 REVERT JUMPDEST PUSH1 0x0 SLOAD CALLER PUSH1 0x1 PUSH1 0xA0 PUSH1 0x2 EXP SUB SWAP1 DUP2 AND SWAP2 AND EQ PUSH2 0x7D8 JUMPI PUSH1 0x0 DUP1 REVERT JUMPDEST PUSH1 0x12 SLOAD PUSH2 0x100 SWAP1 DIV PUSH1 0xFF AND ISZERO PUSH2 0x7ED JUMPI PUSH1 0x0 DUP1 REVERT JUMPDEST PUSH1 0xE SLOAD ISZERO PUSH2 0x7FA JUMPI PUSH1 0x0 DUP1 REVERT JUMPDEST DUP1 ISZERO ISZERO PUSH2 0x806 JUMPI PUSH1 0x0 DUP1 REVERT JUMPDEST PUSH1 0xE DUP2 SWAP1 SSTORE PUSH32 0xDA4D6EC5231D2C0C6DF0363CA304C820DA85C4C675C7B68DF26970CEF46C6B2B DUP2 PUSH1 0x40 MLOAD SWAP1 DUP2 MSTORE PUSH1 0x20 ADD PUSH1 0x40 MLOAD DUP1 SWAP2 SUB SWAP1 LOG1 POP JUMP JUMPDEST PUSH1 0x8 SLOAD TIMESTAMP LT DUP1 ISZERO SWAP1 PUSH2 0x854 JUMPI POP PUSH1 0x9 SLOAD TIMESTAMP LT JUMPDEST ISZERO ISZERO PUSH2 0x85F JUMPI PUSH1 0x0 DUP1 REVERT JUMPDEST PUSH1 0x0 SLOAD CALLER PUSH1 0x1 PUSH1 0xA0 PUSH1 0x2 EXP SUB SWAP1 DUP2 AND SWAP2 AND EQ PUSH2 0x87A JUMPI PUSH1 0x0 DUP1 REVERT JUMPDEST PUSH1 0x12 SLOAD PUSH2 0x100 SWAP1 DIV PUSH1 0xFF AND ISZERO PUSH2 0x88F JUMPI PUSH1 0x0 DUP1 REVERT JUMPDEST PUSH1 0xF SLOAD ISZERO PUSH2 0x89C JUMPI PUSH1 0x0 DUP1 REVERT JUMPDEST PUSH1 0xE SLOAD PUSH2 0x8A9 SWAP1 DUP3 PUSH2 0xDA4 JUMP JUMPDEST ISZERO ISZERO PUSH2 0x8B4 JUMPI PUSH1 0x0 DUP1 REVERT JUMPDEST PUSH1 0xF DUP2 SWAP1 SSTORE PUSH32 0x83985F84FEC43F6C4B0B122BE29B8625FC89E54A2FB6BA2B76A2751C1C7874D9 DUP2 PUSH1 0x40 MLOAD SWAP1 DUP2 MSTORE PUSH1 0x20 ADD PUSH1 0x40 MLOAD DUP1 SWAP2 SUB SWAP1 LOG1 POP JUMP JUMPDEST PUSH1 0xA SLOAD TIMESTAMP LT ISZERO PUSH2 0x8FE JUMPI PUSH1 0x0 DUP1 REVERT JUMPDEST PUSH1 0x3 SLOAD CALLER PUSH1 0x1 PUSH1 0xA0 PUSH1 0x2 EXP SUB SWAP1 DUP2 AND SWAP2 AND EQ PUSH2 0x919 JUMPI PUSH1 0x0 DUP1 REVERT JUMPDEST CALLER PUSH1 0x1 PUSH1 0xA0 PUSH1 0x2 EXP SUB AND SELFDESTRUCT JUMPDEST PUSH1 0x10 SLOAD PUSH1 0x0 SWAP1 DUP2 SWAP1 DUP2 SWAP1 PUSH2 0x100 SWAP1 DIV PUSH1 0x1 PUSH1 0xA0 PUSH1 0x2 EXP SUB AND ISZERO PUSH2 0xA1D JUMPI PUSH1 0x0 SLOAD CALLER PUSH1 0x1 PUSH1 0xA0 PUSH1 0x2 EXP SUB SWAP1 DUP2 AND SWAP2 AND EQ ISZERO PUSH2 0x977 JUMPI PUSH1 0x10 SLOAD PUSH1 0xFF AND ISZERO PUSH2 0x96D JUMPI PUSH1 0x0 SWAP3 POP PUSH2 0xA58 JUMP JUMPDEST PUSH1 0x1 SLOAD SWAP2 POP PUSH2 0xA08 JUMP JUMPDEST PUSH1 0x10 SLOAD CALLER PUSH1 0x1 PUSH1 0xA0 PUSH1 0x2 EXP SUB SWAP1 DUP2 AND PUSH2 0x100 SWAP1 SWAP3 DIV AND EQ ISZERO PUSH2 0x9CA JUMPI PUSH1 0x10 SLOAD PUSH22 0x1000000000000000000000000000000000000000000 SWAP1 DIV PUSH1 0xFF AND ISZERO PUSH2 0x9C0 JUMPI PUSH1 0x0 SWAP3 POP PUSH2 0xA58 JUMP JUMPDEST PUSH1 0x2 SLOAD SWAP2 POP PUSH2 0xA08 JUMP JUMPDEST PUSH1 0x3 SLOAD CALLER PUSH1 0x1 PUSH1 0xA0 PUSH1 0x2 EXP SUB SWAP1 DUP2 AND SWAP2 AND EQ ISZERO PUSH2 0x9FF JUMPI PUSH1 0x12 SLOAD PUSH1 0xFF AND ISZERO PUSH2 0x9F5 JUMPI PUSH1 0x0 SWAP3 POP PUSH2 0xA58 JUMP JUMPDEST PUSH1 0x4 SLOAD SWAP2 POP PUSH2 0xA08 JUMP JUMPDEST PUSH1 0x0 SWAP3 POP PUSH2 0xA58 JUMP JUMPDEST PUSH1 0x6 SLOAD PUSH1 0x13 SLOAD PUSH2 0x3E8 SWAP2 MUL DUP4 MUL DIV SWAP3 POP PUSH2 0xA58 JUMP JUMPDEST PUSH1 0x12 SLOAD PUSH2 0x100 SWAP1 DIV PUSH1 0xFF AND ISZERO PUSH2 0xA53 JUMPI POP PUSH1 0x1 PUSH1 0xA0 PUSH1 0x2 EXP SUB CALLER AND PUSH1 0x0 SWAP1 DUP2 MSTORE PUSH1 0xC PUSH1 0x20 MSTORE PUSH1 0x40 SWAP1 KECCAK256 PUSH1 0x6 SLOAD DUP2 SLOAD MUL SWAP3 POP PUSH2 0xA58 JUMP JUMPDEST PUSH1 0x0 SWAP3 POP JUMPDEST POP POP SWAP1 JUMP JUMPDEST PUSH2 0xA65 PUSH2 0xF69 JUMP JUMPDEST PUSH1 0x0 DUP1 PUSH1 0x0 DUP1 PUSH2 0xA73 PUSH2 0xF7B JUMP JUMPDEST PUSH1 0x8 SLOAD TIMESTAMP LT DUP1 ISZERO SWAP1 PUSH2 0xA86 JUMPI POP PUSH1 0x9 SLOAD TIMESTAMP LT JUMPDEST ISZERO ISZERO PUSH2 0xA91 JUMPI PUSH1 0x0 DUP1 REVERT JUMPDEST PUSH1 0x3 SLOAD CALLER PUSH1 0x1 PUSH1 0xA0 PUSH1 0x2 EXP SUB SWAP1 DUP2 AND SWAP2 AND EQ PUSH2 0xAAC JUMPI PUSH1 0x0 DUP1 REVERT JUMPDEST PUSH1 0x12 SLOAD PUSH2 0x100 SWAP1 DIV PUSH1 0xFF AND ISZERO PUSH2 0xAC1 JUMPI PUSH1 0x0 DUP1 REVERT JUMPDEST PUSH1 0xF SLOAD ISZERO ISZERO PUSH2 0xACF JUMPI PUSH1 0x0 DUP1 REVERT JUMPDEST PUSH1 0x11 SLOAD ISZERO PUSH2 0xADC JUMPI PUSH1 0x0 DUP1 REVERT JUMPDEST PUSH1 0x5 SLOAD PUSH2 0xAE9 SWAP1 DUP9 PUSH2 0xDA4 JUMP JUMPDEST ISZERO ISZERO PUSH2 0xAF4 JUMPI PUSH1 0x0 DUP1 REVERT JUMPDEST PUSH1 0x11 DUP8 SWAP1 SSTORE PUSH1 0xD SLOAD PUSH1 0x40 MLOAD DUP1 MSIZE LT PUSH2 0xB09 JUMPI POP MSIZE JUMPDEST SWAP1 DUP1 DUP3 MSTORE DUP1 PUSH1 0x20 MUL PUSH1 0x20 ADD DUP3 ADD PUSH1 0x40 MSTORE POP SWAP6 POP PUSH2 0xB25 DUP7 PUSH2 0xDE1 JUMP JUMPDEST PUSH1 0xF SLOAD PUSH1 0x13 SLOAD SWAP2 SWAP7 POP DUP7 XOR DUP9 XOR SWAP5 POP DUP5 DUP2 ISZERO ISZERO PUSH2 0xB3E JUMPI INVALID JUMPDEST MOD SWAP3 POP PUSH2 0xB4B DUP4 DUP8 PUSH2 0xEA8 JUMP JUMPDEST SWAP2 POP PUSH1 0xD DUP3 DUP2 SLOAD DUP2 LT ISZERO ISZERO PUSH2 0xB5C JUMPI INVALID JUMPDEST PUSH1 0x0 SWAP2 DUP3 MSTORE PUSH1 0x20 DUP1 DUP4 KECCAK256 SWAP2 SWAP1 SWAP2 ADD SLOAD PUSH1 0x10 DUP1 SLOAD PUSH21 0xFFFFFFFFFFFFFFFFFFFFFFFFFFFFFFFFFFFFFFFF00 NOT AND PUSH2 0x100 PUSH1 0x1 PUSH1 0xA0 PUSH1 0x2 EXP SUB SWAP4 DUP5 AND DUP2 MUL SWAP2 SWAP1 SWAP2 OR SWAP2 DUP3 SWAP1 SSTORE SWAP1 DIV AND DUP3 MSTORE PUSH1 0xC SWAP1 MSTORE PUSH1 0x40 SWAP1 DUP2 SWAP1 KECCAK256 SWAP1 DUP1 MLOAD SWAP1 DUP2 ADD PUSH1 0x40 MSTORE DUP2 SLOAD DUP2 MSTORE PUSH1 0x1 SWAP1 SWAP2 ADD SLOAD PUSH1 0x20 DUP3 ADD SWAP1 DUP2 MSTORE PUSH1 0x10 SLOAD SWAP2 SWAP3 POP PUSH32 0x7C195D9D8CA6F7AEDFCE85403A18BAD6DE0C1B5864A97FA635AE120B4EB4F8C3 SWAP2 PUSH2 0x100 SWAP1 DIV PUSH1 0x1 PUSH1 0xA0 PUSH1 0x2 EXP SUB AND SWAP1 MLOAD PUSH1 0xF SLOAD DUP11 PUSH1 0x40 MLOAD PUSH1 0x1 PUSH1 0xA0 PUSH1 0x2 EXP SUB SWAP1 SWAP5 AND DUP5 MSTORE PUSH1 0x20 DUP5 ADD SWAP3 SWAP1 SWAP3 MSTORE PUSH1 0x40 DUP1 DUP5 ADD SWAP2 SWAP1 SWAP2 MSTORE PUSH1 0x60 DUP4 ADD SWAP2 SWAP1 SWAP2 MSTORE PUSH1 0x80 SWAP1 SWAP2 ADD SWAP1 MLOAD DUP1 SWAP2 SUB SWAP1 LOG1 POP POP POP POP POP POP POP JUMP JUMPDEST PUSH1 0x0 SLOAD PUSH1 0x1 SLOAD PUSH1 0x2 SLOAD PUSH1 0x3 SLOAD PUSH1 0x4 SLOAD PUSH1 0x5 SLOAD PUSH1 0x6 SLOAD PUSH1 0x7 SLOAD PUSH1 0x8 SLOAD PUSH1 0x9 SLOAD PUSH1 0xA SLOAD PUSH1 0xB SLOAD PUSH1 0x1 PUSH1 0xA0 PUSH1 0x2 EXP SUB SWAP12 DUP13 AND SWAP12 SWAP1 SWAP9 AND SWAP8 DUP13 JUMP JUMPDEST PUSH1 0xE SLOAD PUSH1 0xF SLOAD PUSH1 0x10 SLOAD PUSH2 0x100 DUP1 DUP3 DIV PUSH1 0x1 PUSH1 0xA0 PUSH1 0x2 EXP SUB AND PUSH1 0x0 DUP2 DUP2 MSTORE PUSH1 0xC PUSH1 0x20 MSTORE PUSH1 0x40 SWAP1 KECCAK256 PUSH1 0x1 ADD SLOAD PUSH1 0x11 SLOAD PUSH1 0x12 SLOAD PUSH1 0xD SLOAD PUSH1 0x13 SLOAD SWAP9 SWAP10 SWAP8 SWAP9 PUSH1 0xFF DUP1 DUP10 AND SWAP10 SWAP7 SWAP9 SWAP6 SWAP8 PUSH22 0x1000000000000000000000000000000000000000000 SWAP1 SWAP7 DIV DUP2 AND SWAP7 SWAP5 SWAP6 DUP2 DUP6 AND SWAP6 SWAP5 DIV AND SWAP3 JUMP JUMPDEST PUSH1 0x12 SLOAD PUSH2 0x100 SWAP1 DIV PUSH1 0xFF AND ISZERO PUSH2 0xCFB JUMPI PUSH1 0x0 DUP1 REVERT JUMPDEST PUSH1 0x10 SLOAD PUSH2 0x100 SWAP1 DIV PUSH1 0x1 PUSH1 0xA0 PUSH1 0x2 EXP SUB AND ISZERO PUSH2 0xD16 JUMPI PUSH1 0x0 DUP1 REVERT JUMPDEST PUSH1 0x3 SLOAD CALLER PUSH1 0x1 PUSH1 0xA0 PUSH1 0x2 EXP SUB SWAP1 DUP2 AND SWAP2 AND EQ DUP1 ISZERO SWAP1 PUSH2 0xD44 JUMPI POP PUSH1 0x0 SLOAD CALLER PUSH1 0x1 PUSH1 0xA0 PUSH1 0x2 EXP SUB SWAP1 DUP2 AND SWAP2 AND EQ ISZERO JUMPDEST ISZERO PUSH2 0xD67 JUMPI PUSH1 0x9 SLOAD TIMESTAMP LT DUP1 ISZERO SWAP1 PUSH2 0xD5C JUMPI POP PUSH1 0xA SLOAD TIMESTAMP LT JUMPDEST ISZERO ISZERO PUSH2 0xD67 JUMPI PUSH1 0x0 DUP1 REVERT JUMPDEST PUSH1 0x12 DUP1 SLOAD PUSH2 0xFF00 NOT AND PUSH2 0x100 OR SWAP1 SSTORE PUSH32 0x4A19036F5B4D75256C1C24150A8254BD3C2BDB1EAEEEC4523E927F0AB1CDD054 PUSH1 0x40 MLOAD PUSH1 0x40 MLOAD DUP1 SWAP2 SUB SWAP1 LOG1 JUMP JUMPDEST PUSH1 0x0 DUP2 CALLER PUSH1 0x40 MLOAD SWAP2 DUP3 MSTORE PUSH1 0x1 PUSH1 0xA0 PUSH1 0x2 EXP SUB AND PUSH13 0x1000000000000000000000000 MUL PUSH1 0x20 DUP3 ADD MSTORE PUSH1 0x34 ADD PUSH1 0x40 MLOAD SWAP1 DUP2 SWAP1 SUB SWAP1 KECCAK256 DUP4 EQ SWAP1 POP SWAP3 SWAP2 POP POP JUMP JUMPDEST PUSH1 0x0 DUP1 PUSH1 0x0 DUP1 PUSH2 0xDEF PUSH2 0xF7B JUMP JUMPDEST PUSH1 0x0 SWAP3 POP DUP3 SWAP2 POP DUP2 JUMPDEST PUSH1 0xD SLOAD DUP2 LT ISZERO PUSH2 0xE9D JUMPI PUSH1 0xD DUP1 SLOAD DUP3 SWAP1 DUP2 LT PUSH2 0xE10 JUMPI INVALID JUMPDEST PUSH1 0x0 SWAP2 DUP3 MSTORE PUSH1 0x20 DUP1 DUP4 KECCAK256 SWAP1 SWAP2 ADD SLOAD PUSH1 0x1 PUSH1 0xA0 PUSH1 0x2 EXP SUB AND DUP1 DUP4 MSTORE PUSH1 0xC SWAP1 SWAP2 MSTORE PUSH1 0x40 SWAP2 DUP3 SWAP1 KECCAK256 SWAP1 SWAP7 POP SWAP1 DUP1 MLOAD SWAP1 DUP2 ADD PUSH1 0x40 MSTORE DUP2 SLOAD DUP2 MSTORE PUSH1 0x1 SWAP2 DUP3 ADD SLOAD PUSH1 0x20 DUP3 ADD MSTORE SWAP3 POP DUP3 MLOAD LT ISZERO PUSH2 0xE5F JUMPI PUSH1 0x0 DUP1 REVERT JUMPDEST DUP2 PUSH1 0x20 ADD MLOAD ISZERO ISZERO PUSH2 0xE6F JUMPI PUSH1 0x0 DUP1 REVERT JUMPDEST DUP4 DUP8 DUP3 DUP2 MLOAD DUP2 LT PUSH2 0xE7C JUMPI INVALID JUMPDEST PUSH1 0x20 SWAP1 DUP2 MUL SWAP1 SWAP2 ADD ADD MSTORE DUP2 MLOAD DUP5 ADD SWAP4 POP DUP2 PUSH1 0x20 ADD MLOAD SWAP1 SWAP3 XOR SWAP2 PUSH1 0x1 ADD PUSH2 0xDF8 JUMP JUMPDEST POP SWAP1 SWAP6 SWAP5 POP POP POP POP POP JUMP JUMPDEST PUSH1 0xD SLOAD PUSH1 0x0 SWAP1 DUP2 SWAP1 DUP2 SWAP1 DUP2 SWAP1 DUP2 SWAP1 DUP2 SWAP1 PUSH1 0x0 NOT ADD JUMPDEST DUP1 DUP3 EQ ISZERO PUSH2 0xECD JUMPI DUP2 SWAP7 POP PUSH2 0xF34 JUMP JUMPDEST PUSH1 0x2 DUP3 DUP3 SUB DIV DUP3 ADD SWAP4 POP DUP4 PUSH1 0x1 ADD SWAP3 POP DUP8 DUP5 DUP2 MLOAD DUP2 LT PUSH2 0xEE9 JUMPI INVALID JUMPDEST SWAP1 PUSH1 0x20 ADD SWAP1 PUSH1 0x20 MUL ADD MLOAD SWAP6 POP DUP8 DUP4 DUP2 MLOAD DUP2 LT PUSH2 0xF01 JUMPI INVALID JUMPDEST SWAP1 PUSH1 0x20 ADD SWAP1 PUSH1 0x20 MUL ADD MLOAD SWAP5 POP DUP6 DUP10 LT PUSH2 0xF2C JUMPI DUP5 DUP10 LT ISZERO PUSH2 0xF24 JUMPI DUP4 SWAP7 POP PUSH2 0xF34 JUMP JUMPDEST DUP3 SWAP2 POP PUSH2 0xF2F JUMP JUMPDEST POP DUP3 JUMPDEST PUSH2 0xEBD JUMP JUMPDEST POP POP POP POP POP POP SWAP3 SWAP2 POP POP JUMP JUMPDEST DUP2 SLOAD DUP2 DUP4 SSTORE DUP2 DUP2 ISZERO GT PUSH2 0xF64 JUMPI PUSH1 0x0 DUP4 DUP2 MSTORE PUSH1 0x20 SWAP1 KECCAK256 PUSH2 0xF64 SWAP2 DUP2 ADD SWAP1 DUP4 ADD PUSH2 0xF92 JUMP JUMPDEST POP POP POP JUMP JUMPDEST PUSH1 0x20 PUSH1 0x40 MLOAD SWAP1 DUP2 ADD PUSH1 0x40 MSTORE PUSH1 0x0 DUP2 MSTORE SWAP1 JUMP JUMPDEST PUSH1 0x40 DUP1 MLOAD SWAP1 DUP2 ADD PUSH1 0x40 MSTORE PUSH1 0x0 DUP1 DUP3 MSTORE PUSH1 0x20 DUP3 ADD MSTORE SWAP1 JUMP JUMPDEST PUSH2 0xFB0 SWAP2 SWAP1 JUMPDEST DUP1 DUP3 GT ISZERO PUSH2 0xFAC JUMPI PUSH1 0x0 DUP2 SSTORE PUSH1 0x1 ADD PUSH2 0xF98 JUMP JUMPDEST POP SWAP1 JUMP JUMPDEST SWAP1 JUMP STOP LOG1 PUSH6 0x627A7A723058 KECCAK256 SWAP6 0xae ORIGIN JUMP 0xcd 0xe7 0x21 JUMP 0xcf CREATE2 KECCAK256 0xd5 0x21 PUSH28 0x9AD6B1C03C1E0EE64185086FF1FA5738739400290000000000000000 "
        }
    },
    "methods": {
        "participants": [
            "_0"
        ],
        "participate": [
            "_message"
        ],
        "withdraw": [],
        "participantAddresses": [
            "_0"
        ],
        "seed": [
            "_secret"
        ],
        "reveal": [
            "_message"
        ],
        "destroy": [],
        "balance": [],
        "select": [
            "_message"
        ],
        "raiser": [],
        "state": [],
        "cancel": [],
        "fallback": []
    }
}