{
    "abi": [
        {
            "constant": false,
            "inputs": [
                {
                    "name": "_causeIndex",
                    "type": "uint256"
                },
                {
                    "name": "_score",
                    "type": "uint256"
                }
            ],
            "name": "voteIndex",
            "outputs": [],
            "payable": false,
            "stateMutability": "nonpayable",
            "type": "function"
        },
        {
            "constant": false,
            "inputs": [
                {
                    "name": "_causeName",
                    "type": "bytes32"
                },
                {
                    "name": "_score",
                    "type": "uint256"
                }
            ],
            "name": "voteName",
            "outputs": [],
            "payable": false,
            "stateMutability": "nonpayable",
            "type": "function"
        },
        {
            "constant": true,
            "inputs": [],
            "name": "maxVotes",
            "outputs": [
                {
                    "name": "",
                    "type": "uint256"
                }
            ],
            "payable": false,
            "stateMutability": "view",
            "type": "function"
        },
        {
            "constant": false,
            "inputs": [],
            "name": "destroy",
            "outputs": [],
            "payable": false,
            "stateMutability": "nonpayable",
            "type": "function"
        },
        {
            "constant": true,
            "inputs": [],
            "name": "caster",
            "outputs": [
                {
                    "name": "_maxScore",
                    "type": "uint256"
                },
                {
                    "name": "_maxVotes",
                    "type": "uint256"
                },
                {
                    "name": "_votes",
                    "type": "uint256"
                }
            ],
            "payable": false,
            "stateMutability": "view",
            "type": "function"
        },
        {
            "constant": true,
            "inputs": [],
            "name": "causes",
            "outputs": [
                {
                    "name": "_names",
                    "type": "bytes32[]"
                },
                {
                    "name": "_casters",
                    "type": "address[]"
                },
                {
                    "name": "_scores",
                    "type": "uint256[]"
                },
                {
                    "name": "_votes",
                    "type": "uint256[]"
                }
            ],
            "payable": false,
            "stateMutability": "view",
            "type": "function"
        },
        {
            "constant": true,
            "inputs": [],
            "name": "votes",
            "outputs": [
                {
                    "name": "_causeIndexes",
                    "type": "uint256[]"
                },
                {
                    "name": "_scores",
                    "type": "uint256[]"
                }
            ],
            "payable": false,
            "stateMutability": "view",
            "type": "function"
        },
        {
            "inputs": [
                {
                    "name": "_maxScore",
                    "type": "uint256"
                },
                {
                    "name": "_fundraiser",
                    "type": "address"
                }
            ],
            "payable": false,
            "stateMutability": "nonpayable",
            "type": "constructor"
        },
        {
            "anonymous": false,
            "inputs": [
                {
                    "indexed": true,
                    "name": "_caster",
                    "type": "address"
                },
                {
                    "indexed": false,
                    "name": "_score",
                    "type": "uint256"
                },
                {
                    "indexed": true,
                    "name": "_causeIndex",
                    "type": "uint256"
                },
                {
                    "indexed": false,
                    "name": "_causeName",
                    "type": "bytes32"
                }
            ],
            "name": "CastName",
            "type": "event"
        },
        {
            "anonymous": false,
            "inputs": [
                {
                    "indexed": true,
                    "name": "_caster",
                    "type": "address"
                },
                {
                    "indexed": false,
                    "name": "_score",
                    "type": "uint256"
                },
                {
                    "indexed": false,
                    "name": "_votes",
                    "type": "uint256"
                },
                {
                    "indexed": true,
                    "name": "_causeIndex",
                    "type": "uint256"
                },
                {
                    "indexed": false,
                    "name": "_causeScores",
                    "type": "uint256"
                },
                {
                    "indexed": false,
                    "name": "_causeVotes",
                    "type": "uint256"
                }
            ],
            "name": "CastIndex",
            "type": "event"
        }
    ],
    "evm": {
        "bytecode": {
            "linkReferences": {},
            "object": "6060604052341561000f57600080fd5b604051604080610f718339810160405280805191906020018051600093845560018054600160a060020a031916600160a060020a0390921691909117905550610f129182915061005f90396000f3006060604052600436106100825763ffffffff7c010000000000000000000000000000000000000000000000000000000060003504166318c90c67811461008757806350be1034146100a2578063777c3acf146100bb57806383197ef0146100e057806392ff1ad9146100f3578063c722cecc1461012a578063e168c3ec14610260575b600080fd5b341561009257600080fd5b6100a060043560243561030c565b005b34156100ad57600080fd5b6100a06004356024356105cd565b34156100c657600080fd5b6100ce6107c7565b60405190815260200160405180910390f35b34156100eb57600080fd5b6100a0610a33565b34156100fe57600080fd5b610106610b3f565b60405180848152602001838152602001828152602001935050505060405180910390f35b341561013557600080fd5b61013d610b70565b6040518080602001806020018060200180602001858103855289818151815260200191508051906020019060200280838360005b83811015610189578082015183820152602001610171565b50505050905001858103845288818151815260200191508051906020019060200280838360005b838110156101c85780820151838201526020016101b0565b50505050905001858103835287818151815260200191508051906020019060200280838360005b838110156102075780820151838201526020016101ef565b50505050905001858103825286818151815260200191508051906020019060200280838360005b8381101561024657808201518382015260200161022e565b505050509050019850505050505050505060405180910390f35b341561026b57600080fd5b610273610ce6565b604051808060200180602001838103835285818151815260200191508051906020019060200280838360005b838110156102b757808201518382015260200161029f565b50505050905001838103825284818151815260200191508051906020019060200280838360005b838110156102f65780820151838201526020016102de565b5050505090500194505050505060405180910390f35b60008060008061031a610dcc565b60005486111561032957600080fd5b60006103336107c7565b1161033d57600080fd5b600160a060020a033316600090815260036020526040902060028054919650908890811061036757fe5b90600052602060002090600402019350600092505b84548310156103bc5786858481548110151561039457fe5b90600052602060002090600202016000015414156103b1576103bc565b60019092019161037c565b845483146104075784838154811015156103d257fe5b906000526020600020906002020160010154915060008211156104075760028401805483900390556003840180546000190190555b8515156104c057600184015433600160a060020a0390811691161415610451576000858481548110151561043757fe5b9060005260206000209060020201600101819055506104bb565b845460019011156104a95784548590600019810190811061046e57fe5b9060005260206000209060020201858481548110151561048a57fe5b6000918252602090912082546002909202019081556001918201549101555b84546104b9866000198301610de3565b505b61055e565b845483146104f1578585848154811015156104d757fe5b906000526020600020906002020160010181905550610548565b8454156104fd57600080fd5b604080519081016040528781526020810187905285549091508590600181016105268382610de3565b6000928352602090922083916002020181518155602082015181600101555050505b6002840180548701905560038401805460010190555b8633600160a060020a03167fc3028fe8aecd8da0315f2ef61c59d3f99b902da5c7f678b92d250de04716e311888880549050886002015489600301546040518085815260200184815260200183815260200182815260200194505050505060405180910390a350505050505050565b60008060006105da610e14565b6105e2610dcc565b8615156105ee57600080fd5b6000548611156105fd57600080fd5b6106056107c7565b600160a060020a033316600090815260036020526040902054141561062957600080fd5b600094505b60025485101561067257600280548690811061064657fe5b60009182526020909120600490910201805490945087141561066757600080fd5b60019094019361062e565b600254925060806040519081016040908152888252600160a060020a0333166020830152810187905260016060820181905260028054929450919081016106b98382610e3b565b6000928352602090922084916004020181518155602082015160018201805473ffffffffffffffffffffffffffffffffffffffff1916600160a060020a039290921691909117905560408201518160020155606082015181600301555050506040805190810160409081528482526020808301899052600160a060020a0333166000908152600390915220805491925090600181016107588382610de3565b6000928352602090922083916002020181518155602082015181600101555050508233600160a060020a03167f0d321a755ebd66fb65003b7387241584daad002c5296961cfdb50d9022b291c3888a60405191825260208201526040908101905180910390a350505050505050565b600154600090819081908190600160a060020a0316632dde9aca8260405161018001526040518163ffffffff167c010000000000000000000000000000000000000000000000000000000002815260040161018060405180830381600087803b151561083257600080fd5b6102c65a03f1151561084357600080fd5b505050604051805190602001805190602001805190602001805190602001805190602001805190602001805190602001805190602001805190602001805190602001805190602001805190505050509a50505050505050505082421015156108ae5760009350610a2d565b600154600160a060020a031663c19d93fb600060405161016001526040518163ffffffff167c010000000000000000000000000000000000000000000000000000000002815260040161016060405180830381600087803b151561091157600080fd5b6102c65a03f1151561092257600080fd5b5050506040518051906020018051906020018051906020018051906020018051906020018051906020018051906020018051906020018051906020018051906020018051905050509950505050505050505081156109835760009350610a2d565b600154600160a060020a03166309e69ede336000604051604001526040517c010000000000000000000000000000000000000000000000000000000063ffffffff8416028152600160a060020a0390911660048201526024016040805180830381600087803b15156109f457600080fd5b6102c65a03f11515610a0557600080fd5b50505060405180519060200180515090915050801515610a285760009350610a2d565b600193505b50505090565b6001546000908190600160a060020a0316632dde9aca8260405161018001526040518163ffffffff167c010000000000000000000000000000000000000000000000000000000002815260040161018060405180830381600087803b1515610a9a57600080fd5b6102c65a03f11515610aab57600080fd5b50505060405180519060200180519060200180519060200180519060200180519060200180519060200180519060200180519060200180519060200180519060200180519060200180519050509a50505050505050945050505033600160a060020a031682600160a060020a0316141515610b2557600080fd5b4281901015610b3357600080fd5b33600160a060020a0316ff5b600080549080610b4d6107c7565b600160a060020a0333166000908152600360205260409020549394909392509050565b610b78610e67565b610b80610e67565b610b88610e67565b610b90610e67565b6002546000908190604051805910610ba55750595b9080825280602002602001820160405250600254909650604051805910610bc95750595b9080825280602002602001820160405250600254909550604051805910610bed5750595b9080825280602002602001820160405250600254909450604051805910610c115750595b90808252806020026020018201604052509250600091505b600254821015610cde576002805483908110610c4157fe5b906000526020600020906004020190508060000154868381518110610c6257fe5b602090810290910101526001810154600160a060020a0316858381518110610c8657fe5b600160a060020a039092166020928302909101909101526002810154848381518110610cae57fe5b602090810290910101526003810154838381518110610cc957fe5b60209081029091010152600190910190610c29565b505090919293565b610cee610e67565b610cf6610e67565b600160a060020a033316600090815260036020526040808220805490929182919051805910610d225750595b90808252806020026020018201604052508354909550604051805910610d455750595b90808252806020026020018201604052509350600091505b8254821015610dc5578282815481101515610d7457fe5b906000526020600020906002020190508060000154858381518110610d9557fe5b602090810290910101526001810154848381518110610db057fe5b60209081029091010152600190910190610d5d565b5050509091565b604080519081016040526000808252602082015290565b815481835581811511610e0f57600202816002028360005260206000209182019101610e0f9190610e79565b505050565b60806040519081016040908152600080835260208301819052908201819052606082015290565b815481835581811511610e0f57600402816004028360005260206000209182019101610e0f9190610ea0565b60206040519081016040526000815290565b610e9d91905b80821115610e995760008082556001820155600201610e7f565b5090565b90565b610e9d91905b80821115610e9957600080825560018201805473ffffffffffffffffffffffffffffffffffffffff19169055600282018190556003820155600401610ea65600a165627a7a72305820a23baaa810330ea175e649b9b5e2399eb116cc158c1e5699da92f4a3640e56050029",
            "opcodes": "PUSH1 0x60 PUSH1 0x40 MSTORE CALLVALUE ISZERO PUSH2 0xF JUMPI PUSH1 0x0 DUP1 REVERT JUMPDEST PUSH1 0x40 MLOAD PUSH1 0x40 DUP1 PUSH2 0xF71 DUP4 CODECOPY DUP2 ADD PUSH1 0x40 MSTORE DUP1 DUP1 MLOAD SWAP2 SWAP1 PUSH1 0x20 ADD DUP1 MLOAD PUSH1 0x0 SWAP4 DUP5 SSTORE PUSH1 0x1 DUP1 SLOAD PUSH1 0x1 PUSH1 0xA0 PUSH1 0x2 EXP SUB NOT AND PUSH1 0x1 PUSH1 0xA0 PUSH1 0x2 EXP SUB SWAP1 SWAP3 AND SWAP2 SWAP1 SWAP2 OR SWAP1 SSTORE POP PUSH2 0xF12 SWAP2 DUP3 SWAP2 POP PUSH2 0x5F SWAP1 CODECOPY PUSH1 0x0 RETURN STOP PUSH1 0x60 PUSH1 0x40 MSTORE PUSH1 0x4 CALLDATASIZE LT PUSH2 0x82 JUMPI PUSH4 0xFFFFFFFF PUSH29 0x100000000000000000000000000000000000000000000000000000000 PUSH1 0x0 CALLDATALOAD DIV AND PUSH4 0x18C90C67 DUP2 EQ PUSH2 0x87 JUMPI DUP1 PUSH4 0x50BE1034 EQ PUSH2 0xA2 JUMPI DUP1 PUSH4 0x777C3ACF EQ PUSH2 0xBB JUMPI DUP1 PUSH4 0x83197EF0 EQ PUSH2 0xE0 JUMPI DUP1 PUSH4 0x92FF1AD9 EQ PUSH2 0xF3 JUMPI DUP1 PUSH4 0xC722CECC EQ PUSH2 0x12A JUMPI DUP1 PUSH4 0xE168C3EC EQ PUSH2 0x260 JUMPI JUMPDEST PUSH1 0x0 DUP1 REVERT JUMPDEST CALLVALUE ISZERO PUSH2 0x92 JUMPI PUSH1 0x0 DUP1 REVERT JUMPDEST PUSH2 0xA0 PUSH1 0x4 CALLDATALOAD PUSH1 0x24 CALLDATALOAD PUSH2 0x30C JUMP JUMPDEST STOP JUMPDEST CALLVALUE ISZERO PUSH2 0xAD JUMPI PUSH1 0x0 DUP1 REVERT JUMPDEST PUSH2 0xA0 PUSH1 0x4 CALLDATALOAD PUSH1 0x24 CALLDATALOAD PUSH2 0x5CD JUMP JUMPDEST CALLVALUE ISZERO PUSH2 0xC6 JUMPI PUSH1 0x0 DUP1 REVERT JUMPDEST PUSH2 0xCE PUSH2 0x7C7 JUMP JUMPDEST PUSH1 0x40 MLOAD SWAP1 DUP2 MSTORE PUSH1 0x20 ADD PUSH1 0x40 MLOAD DUP1 SWAP2 SUB SWAP1 RETURN JUMPDEST CALLVALUE ISZERO PUSH2 0xEB JUMPI PUSH1 0x0 DUP1 REVERT JUMPDEST PUSH2 0xA0 PUSH2 0xA33 JUMP JUMPDEST CALLVALUE ISZERO PUSH2 0xFE JUMPI PUSH1 0x0 DUP1 REVERT JUMPDEST PUSH2 0x106 PUSH2 0xB3F JUMP JUMPDEST PUSH1 0x40 MLOAD DUP1 DUP5 DUP2 MSTORE PUSH1 0x20 ADD DUP4 DUP2 MSTORE PUSH1 0x20 ADD DUP3 DUP2 MSTORE PUSH1 0x20 ADD SWAP4 POP POP POP POP PUSH1 0x40 MLOAD DUP1 SWAP2 SUB SWAP1 RETURN JUMPDEST CALLVALUE ISZERO PUSH2 0x135 JUMPI PUSH1 0x0 DUP1 REVERT JUMPDEST PUSH2 0x13D PUSH2 0xB70 JUMP JUMPDEST PUSH1 0x40 MLOAD DUP1 DUP1 PUSH1 0x20 ADD DUP1 PUSH1 0x20 ADD DUP1 PUSH1 0x20 ADD DUP1 PUSH1 0x20 ADD DUP6 DUP2 SUB DUP6 MSTORE DUP10 DUP2 DUP2 MLOAD DUP2 MSTORE PUSH1 0x20 ADD SWAP2 POP DUP1 MLOAD SWAP1 PUSH1 0x20 ADD SWAP1 PUSH1 0x20 MUL DUP1 DUP4 DUP4 PUSH1 0x0 JUMPDEST DUP4 DUP2 LT ISZERO PUSH2 0x189 JUMPI DUP1 DUP3 ADD MLOAD DUP4 DUP3 ADD MSTORE PUSH1 0x20 ADD PUSH2 0x171 JUMP JUMPDEST POP POP POP POP SWAP1 POP ADD DUP6 DUP2 SUB DUP5 MSTORE DUP9 DUP2 DUP2 MLOAD DUP2 MSTORE PUSH1 0x20 ADD SWAP2 POP DUP1 MLOAD SWAP1 PUSH1 0x20 ADD SWAP1 PUSH1 0x20 MUL DUP1 DUP4 DUP4 PUSH1 0x0 JUMPDEST DUP4 DUP2 LT ISZERO PUSH2 0x1C8 JUMPI DUP1 DUP3 ADD MLOAD DUP4 DUP3 ADD MSTORE PUSH1 0x20 ADD PUSH2 0x1B0 JUMP JUMPDEST POP POP POP POP SWAP1 POP ADD DUP6 DUP2 SUB DUP4 MSTORE DUP8 DUP2 DUP2 MLOAD DUP2 MSTORE PUSH1 0x20 ADD SWAP2 POP DUP1 MLOAD SWAP1 PUSH1 0x20 ADD SWAP1 PUSH1 0x20 MUL DUP1 DUP4 DUP4 PUSH1 0x0 JUMPDEST DUP4 DUP2 LT ISZERO PUSH2 0x207 JUMPI DUP1 DUP3 ADD MLOAD DUP4 DUP3 ADD MSTORE PUSH1 0x20 ADD PUSH2 0x1EF JUMP JUMPDEST POP POP POP POP SWAP1 POP ADD DUP6 DUP2 SUB DUP3 MSTORE DUP7 DUP2 DUP2 MLOAD DUP2 MSTORE PUSH1 0x20 ADD SWAP2 POP DUP1 MLOAD SWAP1 PUSH1 0x20 ADD SWAP1 PUSH1 0x20 MUL DUP1 DUP4 DUP4 PUSH1 0x0 JUMPDEST DUP4 DUP2 LT ISZERO PUSH2 0x246 JUMPI DUP1 DUP3 ADD MLOAD DUP4 DUP3 ADD MSTORE PUSH1 0x20 ADD PUSH2 0x22E JUMP JUMPDEST POP POP POP POP SWAP1 POP ADD SWAP9 POP POP POP POP POP POP POP POP POP PUSH1 0x40 MLOAD DUP1 SWAP2 SUB SWAP1 RETURN JUMPDEST CALLVALUE ISZERO PUSH2 0x26B JUMPI PUSH1 0x0 DUP1 REVERT JUMPDEST PUSH2 0x273 PUSH2 0xCE6 JUMP JUMPDEST PUSH1 0x40 MLOAD DUP1 DUP1 PUSH1 0x20 ADD DUP1 PUSH1 0x20 ADD DUP4 DUP2 SUB DUP4 MSTORE DUP6 DUP2 DUP2 MLOAD DUP2 MSTORE PUSH1 0x20 ADD SWAP2 POP DUP1 MLOAD SWAP1 PUSH1 0x20 ADD SWAP1 PUSH1 0x20 MUL DUP1 DUP4 DUP4 PUSH1 0x0 JUMPDEST DUP4 DUP2 LT ISZERO PUSH2 0x2B7 JUMPI DUP1 DUP3 ADD MLOAD DUP4 DUP3 ADD MSTORE PUSH1 0x20 ADD PUSH2 0x29F JUMP JUMPDEST POP POP POP POP SWAP1 POP ADD DUP4 DUP2 SUB DUP3 MSTORE DUP5 DUP2 DUP2 MLOAD DUP2 MSTORE PUSH1 0x20 ADD SWAP2 POP DUP1 MLOAD SWAP1 PUSH1 0x20 ADD SWAP1 PUSH1 0x20 MUL DUP1 DUP4 DUP4 PUSH1 0x0 JUMPDEST DUP4 DUP2 LT ISZERO PUSH2 0x2F6 JUMPI DUP1 DUP3 ADD MLOAD DUP4 DUP3 ADD MSTORE PUSH1 0x20 ADD PUSH2 0x2DE JUMP JUMPDEST POP POP POP POP SWAP1 POP ADD SWAP5 POP POP POP POP POP PUSH1 0x40 MLOAD DUP1 SWAP2 SUB SWAP1 RETURN JUMPDEST PUSH1 0x0 DUP1 PUSH1 0x0 DUP1 PUSH2 0x31A PUSH2 0xDCC JUMP JUMPDEST PUSH1 0x0 SLOAD DUP7 GT ISZERO PUSH2 0x329 JUMPI PUSH1 0x0 DUP1 REVERT JUMPDEST PUSH1 0x0 PUSH2 0x333 PUSH2 0x7C7 JUMP JUMPDEST GT PUSH2 0x33D JUMPI PUSH1 0x0 DUP1 REVERT JUMPDEST PUSH1 0x1 PUSH1 0xA0 PUSH1 0x2 EXP SUB CALLER AND PUSH1 0x0 SWAP1 DUP2 MSTORE PUSH1 0x3 PUSH1 0x20 MSTORE PUSH1 0x40 SWAP1 KECCAK256 PUSH1 0x2 DUP1 SLOAD SWAP2 SWAP7 POP SWAP1 DUP9 SWAP1 DUP2 LT PUSH2 0x367 JUMPI INVALID JUMPDEST SWAP1 PUSH1 0x0 MSTORE PUSH1 0x20 PUSH1 0x0 KECCAK256 SWAP1 PUSH1 0x4 MUL ADD SWAP4 POP PUSH1 0x0 SWAP3 POP JUMPDEST DUP5 SLOAD DUP4 LT ISZERO PUSH2 0x3BC JUMPI DUP7 DUP6 DUP5 DUP2 SLOAD DUP2 LT ISZERO ISZERO PUSH2 0x394 JUMPI INVALID JUMPDEST SWAP1 PUSH1 0x0 MSTORE PUSH1 0x20 PUSH1 0x0 KECCAK256 SWAP1 PUSH1 0x2 MUL ADD PUSH1 0x0 ADD SLOAD EQ ISZERO PUSH2 0x3B1 JUMPI PUSH2 0x3BC JUMP JUMPDEST PUSH1 0x1 SWAP1 SWAP3 ADD SWAP2 PUSH2 0x37C JUMP JUMPDEST DUP5 SLOAD DUP4 EQ PUSH2 0x407 JUMPI DUP5 DUP4 DUP2 SLOAD DUP2 LT ISZERO ISZERO PUSH2 0x3D2 JUMPI INVALID JUMPDEST SWAP1 PUSH1 0x0 MSTORE PUSH1 0x20 PUSH1 0x0 KECCAK256 SWAP1 PUSH1 0x2 MUL ADD PUSH1 0x1 ADD SLOAD SWAP2 POP PUSH1 0x0 DUP3 GT ISZERO PUSH2 0x407 JUMPI PUSH1 0x2 DUP5 ADD DUP1 SLOAD DUP4 SWAP1 SUB SWAP1 SSTORE PUSH1 0x3 DUP5 ADD DUP1 SLOAD PUSH1 0x0 NOT ADD SWAP1 SSTORE JUMPDEST DUP6 ISZERO ISZERO PUSH2 0x4C0 JUMPI PUSH1 0x1 DUP5 ADD SLOAD CALLER PUSH1 0x1 PUSH1 0xA0 PUSH1 0x2 EXP SUB SWAP1 DUP2 AND SWAP2 AND EQ ISZERO PUSH2 0x451 JUMPI PUSH1 0x0 DUP6 DUP5 DUP2 SLOAD DUP2 LT ISZERO ISZERO PUSH2 0x437 JUMPI INVALID JUMPDEST SWAP1 PUSH1 0x0 MSTORE PUSH1 0x20 PUSH1 0x0 KECCAK256 SWAP1 PUSH1 0x2 MUL ADD PUSH1 0x1 ADD DUP2 SWAP1 SSTORE POP PUSH2 0x4BB JUMP JUMPDEST DUP5 SLOAD PUSH1 0x1 SWAP1 GT ISZERO PUSH2 0x4A9 JUMPI DUP5 SLOAD DUP6 SWAP1 PUSH1 0x0 NOT DUP2 ADD SWAP1 DUP2 LT PUSH2 0x46E JUMPI INVALID JUMPDEST SWAP1 PUSH1 0x0 MSTORE PUSH1 0x20 PUSH1 0x0 KECCAK256 SWAP1 PUSH1 0x2 MUL ADD DUP6 DUP5 DUP2 SLOAD DUP2 LT ISZERO ISZERO PUSH2 0x48A JUMPI INVALID JUMPDEST PUSH1 0x0 SWAP2 DUP3 MSTORE PUSH1 0x20 SWAP1 SWAP2 KECCAK256 DUP3 SLOAD PUSH1 0x2 SWAP1 SWAP3 MUL ADD SWAP1 DUP2 SSTORE PUSH1 0x1 SWAP2 DUP3 ADD SLOAD SWAP2 ADD SSTORE JUMPDEST DUP5 SLOAD PUSH2 0x4B9 DUP7 PUSH1 0x0 NOT DUP4 ADD PUSH2 0xDE3 JUMP JUMPDEST POP JUMPDEST PUSH2 0x55E JUMP JUMPDEST DUP5 SLOAD DUP4 EQ PUSH2 0x4F1 JUMPI DUP6 DUP6 DUP5 DUP2 SLOAD DUP2 LT ISZERO ISZERO PUSH2 0x4D7 JUMPI INVALID JUMPDEST SWAP1 PUSH1 0x0 MSTORE PUSH1 0x20 PUSH1 0x0 KECCAK256 SWAP1 PUSH1 0x2 MUL ADD PUSH1 0x1 ADD DUP2 SWAP1 SSTORE POP PUSH2 0x548 JUMP JUMPDEST DUP5 SLOAD ISZERO PUSH2 0x4FD JUMPI PUSH1 0x0 DUP1 REVERT JUMPDEST PUSH1 0x40 DUP1 MLOAD SWAP1 DUP2 ADD PUSH1 0x40 MSTORE DUP8 DUP2 MSTORE PUSH1 0x20 DUP2 ADD DUP8 SWAP1 MSTORE DUP6 SLOAD SWAP1 SWAP2 POP DUP6 SWAP1 PUSH1 0x1 DUP2 ADD PUSH2 0x526 DUP4 DUP3 PUSH2 0xDE3 JUMP JUMPDEST PUSH1 0x0 SWAP3 DUP4 MSTORE PUSH1 0x20 SWAP1 SWAP3 KECCAK256 DUP4 SWAP2 PUSH1 0x2 MUL ADD DUP2 MLOAD DUP2 SSTORE PUSH1 0x20 DUP3 ADD MLOAD DUP2 PUSH1 0x1 ADD SSTORE POP POP POP JUMPDEST PUSH1 0x2 DUP5 ADD DUP1 SLOAD DUP8 ADD SWAP1 SSTORE PUSH1 0x3 DUP5 ADD DUP1 SLOAD PUSH1 0x1 ADD SWAP1 SSTORE JUMPDEST DUP7 CALLER PUSH1 0x1 PUSH1 0xA0 PUSH1 0x2 EXP SUB AND PUSH32 0xC3028FE8AECD8DA0315F2EF61C59D3F99B902DA5C7F678B92D250DE04716E311 DUP9 DUP9 DUP1 SLOAD SWAP1 POP DUP9 PUSH1 0x2 ADD SLOAD DUP10 PUSH1 0x3 ADD SLOAD PUSH1 0x40 MLOAD DUP1 DUP6 DUP2 MSTORE PUSH1 0x20 ADD DUP5 DUP2 MSTORE PUSH1 0x20 ADD DUP4 DUP2 MSTORE PUSH1 0x20 ADD DUP3 DUP2 MSTORE PUSH1 0x20 ADD SWAP5 POP POP POP POP POP PUSH1 0x40 MLOAD DUP1 SWAP2 SUB SWAP1 LOG3 POP POP POP POP POP POP POP JUMP JUMPDEST PUSH1 0x0 DUP1 PUSH1 0x0 PUSH2 0x5DA PUSH2 0xE14 JUMP JUMPDEST PUSH2 0x5E2 PUSH2 0xDCC JUMP JUMPDEST DUP7 ISZERO ISZERO PUSH2 0x5EE JUMPI PUSH1 0x0 DUP1 REVERT JUMPDEST PUSH1 0x0 SLOAD DUP7 GT ISZERO PUSH2 0x5FD JUMPI PUSH1 0x0 DUP1 REVERT JUMPDEST PUSH2 0x605 PUSH2 0x7C7 JUMP JUMPDEST PUSH1 0x1 PUSH1 0xA0 PUSH1 0x2 EXP SUB CALLER AND PUSH1 0x0 SWAP1 DUP2 MSTORE PUSH1 0x3 PUSH1 0x20 MSTORE PUSH1 0x40 SWAP1 KECCAK256 SLOAD EQ ISZERO PUSH2 0x629 JUMPI PUSH1 0x0 DUP1 REVERT JUMPDEST PUSH1 0x0 SWAP5 POP JUMPDEST PUSH1 0x2 SLOAD DUP6 LT ISZERO PUSH2 0x672 JUMPI PUSH1 0x2 DUP1 SLOAD DUP7 SWAP1 DUP2 LT PUSH2 0x646 JUMPI INVALID JUMPDEST PUSH1 0x0 SWAP2 DUP3 MSTORE PUSH1 0x20 SWAP1 SWAP2 KECCAK256 PUSH1 0x4 SWAP1 SWAP2 MUL ADD DUP1 SLOAD SWAP1 SWAP5 POP DUP8 EQ ISZERO PUSH2 0x667 JUMPI PUSH1 0x0 DUP1 REVERT JUMPDEST PUSH1 0x1 SWAP1 SWAP5 ADD SWAP4 PUSH2 0x62E JUMP JUMPDEST PUSH1 0x2 SLOAD SWAP3 POP PUSH1 0x80 PUSH1 0x40 MLOAD SWAP1 DUP2 ADD PUSH1 0x40 SWAP1 DUP2 MSTORE DUP9 DUP3 MSTORE PUSH1 0x1 PUSH1 0xA0 PUSH1 0x2 EXP SUB CALLER AND PUSH1 0x20 DUP4 ADD MSTORE DUP2 ADD DUP8 SWAP1 MSTORE PUSH1 0x1 PUSH1 0x60 DUP3 ADD DUP2 SWAP1 MSTORE PUSH1 0x2 DUP1 SLOAD SWAP3 SWAP5 POP SWAP2 SWAP1 DUP2 ADD PUSH2 0x6B9 DUP4 DUP3 PUSH2 0xE3B JUMP JUMPDEST PUSH1 0x0 SWAP3 DUP4 MSTORE PUSH1 0x20 SWAP1 SWAP3 KECCAK256 DUP5 SWAP2 PUSH1 0x4 MUL ADD DUP2 MLOAD DUP2 SSTORE PUSH1 0x20 DUP3 ADD MLOAD PUSH1 0x1 DUP3 ADD DUP1 SLOAD PUSH20 0xFFFFFFFFFFFFFFFFFFFFFFFFFFFFFFFFFFFFFFFF NOT AND PUSH1 0x1 PUSH1 0xA0 PUSH1 0x2 EXP SUB SWAP3 SWAP1 SWAP3 AND SWAP2 SWAP1 SWAP2 OR SWAP1 SSTORE PUSH1 0x40 DUP3 ADD MLOAD DUP2 PUSH1 0x2 ADD SSTORE PUSH1 0x60 DUP3 ADD MLOAD DUP2 PUSH1 0x3 ADD SSTORE POP POP POP PUSH1 0x40 DUP1 MLOAD SWAP1 DUP2 ADD PUSH1 0x40 SWAP1 DUP2 MSTORE DUP5 DUP3 MSTORE PUSH1 0x20 DUP1 DUP4 ADD DUP10 SWAP1 MSTORE PUSH1 0x1 PUSH1 0xA0 PUSH1 0x2 EXP SUB CALLER AND PUSH1 0x0 SWAP1 DUP2 MSTORE PUSH1 0x3 SWAP1 SWAP2 MSTORE KECCAK256 DUP1 SLOAD SWAP2 SWAP3 POP SWAP1 PUSH1 0x1 DUP2 ADD PUSH2 0x758 DUP4 DUP3 PUSH2 0xDE3 JUMP JUMPDEST PUSH1 0x0 SWAP3 DUP4 MSTORE PUSH1 0x20 SWAP1 SWAP3 KECCAK256 DUP4 SWAP2 PUSH1 0x2 MUL ADD DUP2 MLOAD DUP2 SSTORE PUSH1 0x20 DUP3 ADD MLOAD DUP2 PUSH1 0x1 ADD SSTORE POP POP POP DUP3 CALLER PUSH1 0x1 PUSH1 0xA0 PUSH1 0x2 EXP SUB AND PUSH32 0xD321A755EBD66FB65003B7387241584DAAD002C5296961CFDB50D9022B291C3 DUP9 DUP11 PUSH1 0x40 MLOAD SWAP2 DUP3 MSTORE PUSH1 0x20 DUP3 ADD MSTORE PUSH1 0x40 SWAP1 DUP2 ADD SWAP1 MLOAD DUP1 SWAP2 SUB SWAP1 LOG3 POP POP POP POP POP POP POP JUMP JUMPDEST PUSH1 0x1 SLOAD PUSH1 0x0 SWAP1 DUP2 SWAP1 DUP2 SWAP1 DUP2 SWAP1 PUSH1 0x1 PUSH1 0xA0 PUSH1 0x2 EXP SUB AND PUSH4 0x2DDE9ACA DUP3 PUSH1 0x40 MLOAD PUSH2 0x180 ADD MSTORE PUSH1 0x40 MLOAD DUP2 PUSH4 0xFFFFFFFF AND PUSH29 0x100000000000000000000000000000000000000000000000000000000 MUL DUP2 MSTORE PUSH1 0x4 ADD PUSH2 0x180 PUSH1 0x40 MLOAD DUP1 DUP4 SUB DUP2 PUSH1 0x0 DUP8 DUP1 EXTCODESIZE ISZERO ISZERO PUSH2 0x832 JUMPI PUSH1 0x0 DUP1 REVERT JUMPDEST PUSH2 0x2C6 GAS SUB CALL ISZERO ISZERO PUSH2 0x843 JUMPI PUSH1 0x0 DUP1 REVERT JUMPDEST POP POP POP PUSH1 0x40 MLOAD DUP1 MLOAD SWAP1 PUSH1 0x20 ADD DUP1 MLOAD SWAP1 PUSH1 0x20 ADD DUP1 MLOAD SWAP1 PUSH1 0x20 ADD DUP1 MLOAD SWAP1 PUSH1 0x20 ADD DUP1 MLOAD SWAP1 PUSH1 0x20 ADD DUP1 MLOAD SWAP1 PUSH1 0x20 ADD DUP1 MLOAD SWAP1 PUSH1 0x20 ADD DUP1 MLOAD SWAP1 PUSH1 0x20 ADD DUP1 MLOAD SWAP1 PUSH1 0x20 ADD DUP1 MLOAD SWAP1 PUSH1 0x20 ADD DUP1 MLOAD SWAP1 PUSH1 0x20 ADD DUP1 MLOAD SWAP1 POP POP POP POP SWAP11 POP POP POP POP POP POP POP POP POP DUP3 TIMESTAMP LT ISZERO ISZERO PUSH2 0x8AE JUMPI PUSH1 0x0 SWAP4 POP PUSH2 0xA2D JUMP JUMPDEST PUSH1 0x1 SLOAD PUSH1 0x1 PUSH1 0xA0 PUSH1 0x2 EXP SUB AND PUSH4 0xC19D93FB PUSH1 0x0 PUSH1 0x40 MLOAD PUSH2 0x160 ADD MSTORE PUSH1 0x40 MLOAD DUP2 PUSH4 0xFFFFFFFF AND PUSH29 0x100000000000000000000000000000000000000000000000000000000 MUL DUP2 MSTORE PUSH1 0x4 ADD PUSH2 0x160 PUSH1 0x40 MLOAD DUP1 DUP4 SUB DUP2 PUSH1 0x0 DUP8 DUP1 EXTCODESIZE ISZERO ISZERO PUSH2 0x911 JUMPI PUSH1 0x0 DUP1 REVERT JUMPDEST PUSH2 0x2C6 GAS SUB CALL ISZERO ISZERO PUSH2 0x922 JUMPI PUSH1 0x0 DUP1 REVERT JUMPDEST POP POP POP PUSH1 0x40 MLOAD DUP1 MLOAD SWAP1 PUSH1 0x20 ADD DUP1 MLOAD SWAP1 PUSH1 0x20 ADD DUP1 MLOAD SWAP1 PUSH1 0x20 ADD DUP1 MLOAD SWAP1 PUSH1 0x20 ADD DUP1 MLOAD SWAP1 PUSH1 0x20 ADD DUP1 MLOAD SWAP1 PUSH1 0x20 ADD DUP1 MLOAD SWAP1 PUSH1 0x20 ADD DUP1 MLOAD SWAP1 PUSH1 0x20 ADD DUP1 MLOAD SWAP1 PUSH1 0x20 ADD DUP1 MLOAD SWAP1 PUSH1 0x20 ADD DUP1 MLOAD SWAP1 POP POP POP SWAP10 POP POP POP POP POP POP POP POP POP DUP2 ISZERO PUSH2 0x983 JUMPI PUSH1 0x0 SWAP4 POP PUSH2 0xA2D JUMP JUMPDEST PUSH1 0x1 SLOAD PUSH1 0x1 PUSH1 0xA0 PUSH1 0x2 EXP SUB AND PUSH4 0x9E69EDE CALLER PUSH1 0x0 PUSH1 0x40 MLOAD PUSH1 0x40 ADD MSTORE PUSH1 0x40 MLOAD PUSH29 0x100000000000000000000000000000000000000000000000000000000 PUSH4 0xFFFFFFFF DUP5 AND MUL DUP2 MSTORE PUSH1 0x1 PUSH1 0xA0 PUSH1 0x2 EXP SUB SWAP1 SWAP2 AND PUSH1 0x4 DUP3 ADD MSTORE PUSH1 0x24 ADD PUSH1 0x40 DUP1 MLOAD DUP1 DUP4 SUB DUP2 PUSH1 0x0 DUP8 DUP1 EXTCODESIZE ISZERO ISZERO PUSH2 0x9F4 JUMPI PUSH1 0x0 DUP1 REVERT JUMPDEST PUSH2 0x2C6 GAS SUB CALL ISZERO ISZERO PUSH2 0xA05 JUMPI PUSH1 0x0 DUP1 REVERT JUMPDEST POP POP POP PUSH1 0x40 MLOAD DUP1 MLOAD SWAP1 PUSH1 0x20 ADD DUP1 MLOAD POP SWAP1 SWAP2 POP POP DUP1 ISZERO ISZERO PUSH2 0xA28 JUMPI PUSH1 0x0 SWAP4 POP PUSH2 0xA2D JUMP JUMPDEST PUSH1 0x1 SWAP4 POP JUMPDEST POP POP POP SWAP1 JUMP JUMPDEST PUSH1 0x1 SLOAD PUSH1 0x0 SWAP1 DUP2 SWAP1 PUSH1 0x1 PUSH1 0xA0 PUSH1 0x2 EXP SUB AND PUSH4 0x2DDE9ACA DUP3 PUSH1 0x40 MLOAD PUSH2 0x180 ADD MSTORE PUSH1 0x40 MLOAD DUP2 PUSH4 0xFFFFFFFF AND PUSH29 0x100000000000000000000000000000000000000000000000000000000 MUL DUP2 MSTORE PUSH1 0x4 ADD PUSH2 0x180 PUSH1 0x40 MLOAD DUP1 DUP4 SUB DUP2 PUSH1 0x0 DUP8 DUP1 EXTCODESIZE ISZERO ISZERO PUSH2 0xA9A JUMPI PUSH1 0x0 DUP1 REVERT JUMPDEST PUSH2 0x2C6 GAS SUB CALL ISZERO ISZERO PUSH2 0xAAB JUMPI PUSH1 0x0 DUP1 REVERT JUMPDEST POP POP POP PUSH1 0x40 MLOAD DUP1 MLOAD SWAP1 PUSH1 0x20 ADD DUP1 MLOAD SWAP1 PUSH1 0x20 ADD DUP1 MLOAD SWAP1 PUSH1 0x20 ADD DUP1 MLOAD SWAP1 PUSH1 0x20 ADD DUP1 MLOAD SWAP1 PUSH1 0x20 ADD DUP1 MLOAD SWAP1 PUSH1 0x20 ADD DUP1 MLOAD SWAP1 PUSH1 0x20 ADD DUP1 MLOAD SWAP1 PUSH1 0x20 ADD DUP1 MLOAD SWAP1 PUSH1 0x20 ADD DUP1 MLOAD SWAP1 PUSH1 0x20 ADD DUP1 MLOAD SWAP1 PUSH1 0x20 ADD DUP1 MLOAD SWAP1 POP POP SWAP11 POP POP POP POP POP POP POP SWAP5 POP POP POP POP CALLER PUSH1 0x1 PUSH1 0xA0 PUSH1 0x2 EXP SUB AND DUP3 PUSH1 0x1 PUSH1 0xA0 PUSH1 0x2 EXP SUB AND EQ ISZERO ISZERO PUSH2 0xB25 JUMPI PUSH1 0x0 DUP1 REVERT JUMPDEST TIMESTAMP DUP2 SWAP1 LT ISZERO PUSH2 0xB33 JUMPI PUSH1 0x0 DUP1 REVERT JUMPDEST CALLER PUSH1 0x1 PUSH1 0xA0 PUSH1 0x2 EXP SUB AND SELFDESTRUCT JUMPDEST PUSH1 0x0 DUP1 SLOAD SWAP1 DUP1 PUSH2 0xB4D PUSH2 0x7C7 JUMP JUMPDEST PUSH1 0x1 PUSH1 0xA0 PUSH1 0x2 EXP SUB CALLER AND PUSH1 0x0 SWAP1 DUP2 MSTORE PUSH1 0x3 PUSH1 0x20 MSTORE PUSH1 0x40 SWAP1 KECCAK256 SLOAD SWAP4 SWAP5 SWAP1 SWAP4 SWAP3 POP SWAP1 POP JUMP JUMPDEST PUSH2 0xB78 PUSH2 0xE67 JUMP JUMPDEST PUSH2 0xB80 PUSH2 0xE67 JUMP JUMPDEST PUSH2 0xB88 PUSH2 0xE67 JUMP JUMPDEST PUSH2 0xB90 PUSH2 0xE67 JUMP JUMPDEST PUSH1 0x2 SLOAD PUSH1 0x0 SWAP1 DUP2 SWAP1 PUSH1 0x40 MLOAD DUP1 MSIZE LT PUSH2 0xBA5 JUMPI POP MSIZE JUMPDEST SWAP1 DUP1 DUP3 MSTORE DUP1 PUSH1 0x20 MUL PUSH1 0x20 ADD DUP3 ADD PUSH1 0x40 MSTORE POP PUSH1 0x2 SLOAD SWAP1 SWAP7 POP PUSH1 0x40 MLOAD DUP1 MSIZE LT PUSH2 0xBC9 JUMPI POP MSIZE JUMPDEST SWAP1 DUP1 DUP3 MSTORE DUP1 PUSH1 0x20 MUL PUSH1 0x20 ADD DUP3 ADD PUSH1 0x40 MSTORE POP PUSH1 0x2 SLOAD SWAP1 SWAP6 POP PUSH1 0x40 MLOAD DUP1 MSIZE LT PUSH2 0xBED JUMPI POP MSIZE JUMPDEST SWAP1 DUP1 DUP3 MSTORE DUP1 PUSH1 0x20 MUL PUSH1 0x20 ADD DUP3 ADD PUSH1 0x40 MSTORE POP PUSH1 0x2 SLOAD SWAP1 SWAP5 POP PUSH1 0x40 MLOAD DUP1 MSIZE LT PUSH2 0xC11 JUMPI POP MSIZE JUMPDEST SWAP1 DUP1 DUP3 MSTORE DUP1 PUSH1 0x20 MUL PUSH1 0x20 ADD DUP3 ADD PUSH1 0x40 MSTORE POP SWAP3 POP PUSH1 0x0 SWAP2 POP JUMPDEST PUSH1 0x2 SLOAD DUP3 LT ISZERO PUSH2 0xCDE JUMPI PUSH1 0x2 DUP1 SLOAD DUP4 SWAP1 DUP2 LT PUSH2 0xC41 JUMPI INVALID JUMPDEST SWAP1 PUSH1 0x0 MSTORE PUSH1 0x20 PUSH1 0x0 KECCAK256 SWAP1 PUSH1 0x4 MUL ADD SWAP1 POP DUP1 PUSH1 0x0 ADD SLOAD DUP7 DUP4 DUP2 MLOAD DUP2 LT PUSH2 0xC62 JUMPI INVALID JUMPDEST PUSH1 0x20 SWAP1 DUP2 MUL SWAP1 SWAP2 ADD ADD MSTORE PUSH1 0x1 DUP2 ADD SLOAD PUSH1 0x1 PUSH1 0xA0 PUSH1 0x2 EXP SUB AND DUP6 DUP4 DUP2 MLOAD DUP2 LT PUSH2 0xC86 JUMPI INVALID JUMPDEST PUSH1 0x1 PUSH1 0xA0 PUSH1 0x2 EXP SUB SWAP1 SWAP3 AND PUSH1 0x20 SWAP3 DUP4 MUL SWAP1 SWAP2 ADD SWAP1 SWAP2 ADD MSTORE PUSH1 0x2 DUP2 ADD SLOAD DUP5 DUP4 DUP2 MLOAD DUP2 LT PUSH2 0xCAE JUMPI INVALID JUMPDEST PUSH1 0x20 SWAP1 DUP2 MUL SWAP1 SWAP2 ADD ADD MSTORE PUSH1 0x3 DUP2 ADD SLOAD DUP4 DUP4 DUP2 MLOAD DUP2 LT PUSH2 0xCC9 JUMPI INVALID JUMPDEST PUSH1 0x20 SWAP1 DUP2 MUL SWAP1 SWAP2 ADD ADD MSTORE PUSH1 0x1 SWAP1 SWAP2 ADD SWAP1 PUSH2 0xC29 JUMP JUMPDEST POP POP SWAP1 SWAP2 SWAP3 SWAP4 JUMP JUMPDEST PUSH2 0xCEE PUSH2 0xE67 JUMP JUMPDEST PUSH2 0xCF6 PUSH2 0xE67 JUMP JUMPDEST PUSH1 0x1 PUSH1 0xA0 PUSH1 0x2 EXP SUB CALLER AND PUSH1 0x0 SWAP1 DUP2 MSTORE PUSH1 0x3 PUSH1 0x20 MSTORE PUSH1 0x40 DUP1 DUP3 KECCAK256 DUP1 SLOAD SWAP1 SWAP3 SWAP2 DUP3 SWAP2 SWAP1 MLOAD DUP1 MSIZE LT PUSH2 0xD22 JUMPI POP MSIZE JUMPDEST SWAP1 DUP1 DUP3 MSTORE DUP1 PUSH1 0x20 MUL PUSH1 0x20 ADD DUP3 ADD PUSH1 0x40 MSTORE POP DUP4 SLOAD SWAP1 SWAP6 POP PUSH1 0x40 MLOAD DUP1 MSIZE LT PUSH2 0xD45 JUMPI POP MSIZE JUMPDEST SWAP1 DUP1 DUP3 MSTORE DUP1 PUSH1 0x20 MUL PUSH1 0x20 ADD DUP3 ADD PUSH1 0x40 MSTORE POP SWAP4 POP PUSH1 0x0 SWAP2 POP JUMPDEST DUP3 SLOAD DUP3 LT ISZERO PUSH2 0xDC5 JUMPI DUP3 DUP3 DUP2 SLOAD DUP2 LT ISZERO ISZERO PUSH2 0xD74 JUMPI INVALID JUMPDEST SWAP1 PUSH1 0x0 MSTORE PUSH1 0x20 PUSH1 0x0 KECCAK256 SWAP1 PUSH1 0x2 MUL ADD SWAP1 POP DUP1 PUSH1 0x0 ADD SLOAD DUP6 DUP4 DUP2 MLOAD DUP2 LT PUSH2 0xD95 JUMPI INVALID JUMPDEST PUSH1 0x20 SWAP1 DUP2 MUL SWAP1 SWAP2 ADD ADD MSTORE PUSH1 0x1 DUP2 ADD SLOAD DUP5 DUP4 DUP2 MLOAD DUP2 LT PUSH2 0xDB0 JUMPI INVALID JUMPDEST PUSH1 0x20 SWAP1 DUP2 MUL SWAP1 SWAP2 ADD ADD MSTORE PUSH1 0x1 SWAP1 SWAP2 ADD SWAP1 PUSH2 0xD5D JUMP JUMPDEST POP POP POP SWAP1 SWAP2 JUMP JUMPDEST PUSH1 0x40 DUP1 MLOAD SWAP1 DUP2 ADD PUSH1 0x40 MSTORE PUSH1 0x0 DUP1 DUP3 MSTORE PUSH1 0x20 DUP3 ADD MSTORE SWAP1 JUMP JUMPDEST DUP2 SLOAD DUP2 DUP4 SSTORE DUP2 DUP2 ISZERO GT PUSH2 0xE0F JUMPI PUSH1 0x2 MUL DUP2 PUSH1 0x2 MUL DUP4 PUSH1 0x0 MSTORE PUSH1 0x20 PUSH1 0x0 KECCAK256 SWAP2 DUP3 ADD SWAP2 ADD PUSH2 0xE0F SWAP2 SWAP1 PUSH2 0xE79 JUMP JUMPDEST POP POP POP JUMP JUMPDEST PUSH1 0x80 PUSH1 0x40 MLOAD SWAP1 DUP2 ADD PUSH1 0x40 SWAP1 DUP2 MSTORE PUSH1 0x0 DUP1 DUP4 MSTORE PUSH1 0x20 DUP4 ADD DUP2 SWAP1 MSTORE SWAP1 DUP3 ADD DUP2 SWAP1 MSTORE PUSH1 0x60 DUP3 ADD MSTORE SWAP1 JUMP JUMPDEST DUP2 SLOAD DUP2 DUP4 SSTORE DUP2 DUP2 ISZERO GT PUSH2 0xE0F JUMPI PUSH1 0x4 MUL DUP2 PUSH1 0x4 MUL DUP4 PUSH1 0x0 MSTORE PUSH1 0x20 PUSH1 0x0 KECCAK256 SWAP2 DUP3 ADD SWAP2 ADD PUSH2 0xE0F SWAP2 SWAP1 PUSH2 0xEA0 JUMP JUMPDEST PUSH1 0x20 PUSH1 0x40 MLOAD SWAP1 DUP2 ADD PUSH1 0x40 MSTORE PUSH1 0x0 DUP2 MSTORE SWAP1 JUMP JUMPDEST PUSH2 0xE9D SWAP2 SWAP1 JUMPDEST DUP1 DUP3 GT ISZERO PUSH2 0xE99 JUMPI PUSH1 0x0 DUP1 DUP3 SSTORE PUSH1 0x1 DUP3 ADD SSTORE PUSH1 0x2 ADD PUSH2 0xE7F JUMP JUMPDEST POP SWAP1 JUMP JUMPDEST SWAP1 JUMP JUMPDEST PUSH2 0xE9D SWAP2 SWAP1 JUMPDEST DUP1 DUP3 GT ISZERO PUSH2 0xE99 JUMPI PUSH1 0x0 DUP1 DUP3 SSTORE PUSH1 0x1 DUP3 ADD DUP1 SLOAD PUSH20 0xFFFFFFFFFFFFFFFFFFFFFFFFFFFFFFFFFFFFFFFF NOT AND SWAP1 SSTORE PUSH1 0x2 DUP3 ADD DUP2 SWAP1 SSTORE PUSH1 0x3 DUP3 ADD SSTORE PUSH1 0x4 ADD PUSH2 0xEA6 JUMP STOP LOG1 PUSH6 0x627A7A723058 KECCAK256 LOG2 EXTCODESIZE 0xaa 0xa8 LT CALLER 0xe LOG1 PUSH22 0xE649B9B5E2399EB116CC158C1E5699DA92F4A3640E56 SDIV STOP 0x29 "
        }
    },
    "methods": {
        "voteIndex": [
            "_causeIndex",
            "_score"
        ],
        "voteName": [
            "_causeName",
            "_score"
        ],
        "maxVotes": [],
        "destroy": [],
        "caster": [],
        "causes": [],
        "votes": []
    }
}