{
    "abi": [
        {
            "constant": true,
            "inputs": [],
            "name": "getVotes",
            "outputs": [
                {
                    "name": "",
                    "type": "uint256[]"
                }
            ],
            "payable": false,
            "stateMutability": "view",
            "type": "function"
        },
        {
            "constant": true,
            "inputs": [],
            "name": "endTime",
            "outputs": [
                {
                    "name": "",
                    "type": "uint256"
                }
            ],
            "payable": false,
            "stateMutability": "view",
            "type": "function"
        },
        {
            "constant": true,
            "inputs": [],
            "name": "getCharities",
            "outputs": [
                {
                    "name": "",
                    "type": "bytes32[]"
                },
                {
                    "name": "",
                    "type": "uint256[]"
                },
                {
                    "name": "",
                    "type": "uint256[]"
                }
            ],
            "payable": false,
            "stateMutability": "view",
            "type": "function"
        },
        {
            "constant": false,
            "inputs": [
                {
                    "name": "_charityName",
                    "type": "bytes32"
                },
                {
                    "name": "_score",
                    "type": "uint256"
                }
            ],
            "name": "add",
            "outputs": [],
            "payable": false,
            "stateMutability": "nonpayable",
            "type": "function"
        },
        {
            "constant": false,
            "inputs": [
                {
                    "name": "_charityId",
                    "type": "uint256"
                },
                {
                    "name": "_score",
                    "type": "uint256"
                }
            ],
            "name": "vote",
            "outputs": [],
            "payable": false,
            "stateMutability": "nonpayable",
            "type": "function"
        },
        {
            "constant": true,
            "inputs": [],
            "name": "hasRight",
            "outputs": [
                {
                    "name": "",
                    "type": "bool"
                }
            ],
            "payable": false,
            "stateMutability": "view",
            "type": "function"
        },
        {
            "inputs": [
                {
                    "name": "_endTime",
                    "type": "uint256"
                },
                {
                    "name": "_seedomAddress",
                    "type": "address"
                }
            ],
            "payable": false,
            "stateMutability": "nonpayable",
            "type": "constructor"
        },
        {
            "anonymous": false,
            "inputs": [
                {
                    "indexed": true,
                    "name": "_address",
                    "type": "address"
                },
                {
                    "indexed": true,
                    "name": "_charityId",
                    "type": "uint256"
                },
                {
                    "indexed": false,
                    "name": "_score",
                    "type": "uint256"
                }
            ],
            "name": "Vote",
            "type": "event"
        }
    ],
    "evm": {
        "bytecode": {
            "linkReferences": {},
            "object": "6060604052341561000f57600080fd5b604051604080610899833981016040528080519190602001805191505042821161003857600080fd5b60008054600160a060020a03338116600160a060020a03199283161790925560019390935560038054929091169190921617905561081e8061007b6000396000f3006060604052600436106100775763ffffffff7c01000000000000000000000000000000000000000000000000000000006000350416630dc96015811461007c5780633197cbb6146100e257806348112c6f146101075780635ffa4bce146101f8578063b384abef14610213578063ff75307e1461022c575b600080fd5b341561008757600080fd5b61008f610253565b60405160208082528190810183818151815260200191508051906020019060200280838360005b838110156100ce5780820151838201526020016100b6565b505050509050019250505060405180910390f35b34156100ed57600080fd5b6100f561030c565b60405190815260200160405180910390f35b341561011257600080fd5b61011a610312565b60405180806020018060200180602001848103845287818151815260200191508051906020019060200280838360005b8381101561016257808201518382015260200161014a565b50505050905001848103835286818151815260200191508051906020019060200280838360005b838110156101a1578082015183820152602001610189565b50505050905001848103825285818151815260200191508051906020019060200280838360005b838110156101e05780820151838201526020016101c8565b50505050905001965050505050505060405180910390f35b341561020357600080fd5b610211600435602435610444565b005b341561021e57600080fd5b610211600435602435610584565b341561023757600080fd5b61023f610699565b604051901515815260200160405180910390f35b61025b610765565b6000610265610765565b60025491506000808360405180591061027b5750595b90808252806020026020018201604052509250600091505b838210156103035760028054839081106102a957fe5b6000918252602080832073ffffffffffffffffffffffffffffffffffffffff33168452600360049093020191820190526040909120549091508383815181106102ee57fe5b60209081029091010152600190910190610293565b50909392505050565b60015481565b61031a610765565b610322610765565b61032a610765565b6000610334610765565b61033c610765565b610344610765565b60025493506000808560405180591061035a5750595b908082528060200260200182016040525094508560405180591061037b5750595b908082528060200260200182016040525093508560405180591061039c5750595b90808252806020026020018201604052509250600091505b858210156104365760028054839081106103ca57fe5b9060005260206000209060040201905080600001548583815181106103eb57fe5b60209081029091010152600181015484838151811061040657fe5b60209081029091010152600281015483838151811061042157fe5b602090810290910101526001909101906103b4565b509297919650945092505050565b61044c610777565b6000610456610699565b151561046157600080fd5b6060604051908101604052808560001916815260200184815260200160018152509150600280548060010182816104989190610797565b600092835260209092208491600402018151815560208201518160010155604082015160029182015580549092506000198101915081106104d557fe5b90600052602060002090600402019050828160030160003373ffffffffffffffffffffffffffffffffffffffff1673ffffffffffffffffffffffffffffffffffffffff168152602001908152602001600020819055506001600280549050033373ffffffffffffffffffffffffffffffffffffffff167fafd3f234c1f8e944129b26b206d98e5752ad3336a4059938b4a3e990e95885308560405190815260200160405180910390a350505050565b6000806001544210151561059757600080fd5b61059f610699565b15156105aa57600080fd5b60028054859081106105b857fe5b6000918252602080832073ffffffffffffffffffffffffffffffffffffffff3316845260036004909302019182019052604082205490935091508111156106115760018201805482900390556002820180546000190190555b600083111561063157600180830180548501905560028301805490910190555b73ffffffffffffffffffffffffffffffffffffffff33166000818152600384016020526040908190208590558591907fafd3f234c1f8e944129b26b206d98e5752ad3336a4059938b4a3e990e95885309086905190815260200160405180910390a350505050565b600080600154421015156106ac57600080fd5b60035473ffffffffffffffffffffffffffffffffffffffff166309e69ede336000604051604001526040517c010000000000000000000000000000000000000000000000000000000063ffffffff841602815273ffffffffffffffffffffffffffffffffffffffff90911660048201526024016040805180830381600087803b151561073757600080fd5b6102c65a03f1151561074857600080fd5b5050506040518051906020018051505060008111925090505b5090565b60206040519081016040526000815290565b606060405190810160409081526000808352602083018190529082015290565b8154818355818115116107c3576004028160040283600052602060002091820191016107c391906107c8565b505050565b6107ef91905b808211156107615760008082556001820181905560028201556004016107ce565b905600a165627a7a72305820cb41b2b6d3ca7e444538d757ab196378c5fc9cd82e3cd990ce4e90bf2479b4150029",
            "opcodes": "PUSH1 0x60 PUSH1 0x40 MSTORE CALLVALUE ISZERO PUSH2 0xF JUMPI PUSH1 0x0 DUP1 REVERT JUMPDEST PUSH1 0x40 MLOAD PUSH1 0x40 DUP1 PUSH2 0x899 DUP4 CODECOPY DUP2 ADD PUSH1 0x40 MSTORE DUP1 DUP1 MLOAD SWAP2 SWAP1 PUSH1 0x20 ADD DUP1 MLOAD SWAP2 POP POP TIMESTAMP DUP3 GT PUSH2 0x38 JUMPI PUSH1 0x0 DUP1 REVERT JUMPDEST PUSH1 0x0 DUP1 SLOAD PUSH1 0x1 PUSH1 0xA0 PUSH1 0x2 EXP SUB CALLER DUP2 AND PUSH1 0x1 PUSH1 0xA0 PUSH1 0x2 EXP SUB NOT SWAP3 DUP4 AND OR SWAP1 SWAP3 SSTORE PUSH1 0x1 SWAP4 SWAP1 SWAP4 SSTORE PUSH1 0x3 DUP1 SLOAD SWAP3 SWAP1 SWAP2 AND SWAP2 SWAP1 SWAP3 AND OR SWAP1 SSTORE PUSH2 0x81E DUP1 PUSH2 0x7B PUSH1 0x0 CODECOPY PUSH1 0x0 RETURN STOP PUSH1 0x60 PUSH1 0x40 MSTORE PUSH1 0x4 CALLDATASIZE LT PUSH2 0x77 JUMPI PUSH4 0xFFFFFFFF PUSH29 0x100000000000000000000000000000000000000000000000000000000 PUSH1 0x0 CALLDATALOAD DIV AND PUSH4 0xDC96015 DUP2 EQ PUSH2 0x7C JUMPI DUP1 PUSH4 0x3197CBB6 EQ PUSH2 0xE2 JUMPI DUP1 PUSH4 0x48112C6F EQ PUSH2 0x107 JUMPI DUP1 PUSH4 0x5FFA4BCE EQ PUSH2 0x1F8 JUMPI DUP1 PUSH4 0xB384ABEF EQ PUSH2 0x213 JUMPI DUP1 PUSH4 0xFF75307E EQ PUSH2 0x22C JUMPI JUMPDEST PUSH1 0x0 DUP1 REVERT JUMPDEST CALLVALUE ISZERO PUSH2 0x87 JUMPI PUSH1 0x0 DUP1 REVERT JUMPDEST PUSH2 0x8F PUSH2 0x253 JUMP JUMPDEST PUSH1 0x40 MLOAD PUSH1 0x20 DUP1 DUP3 MSTORE DUP2 SWAP1 DUP2 ADD DUP4 DUP2 DUP2 MLOAD DUP2 MSTORE PUSH1 0x20 ADD SWAP2 POP DUP1 MLOAD SWAP1 PUSH1 0x20 ADD SWAP1 PUSH1 0x20 MUL DUP1 DUP4 DUP4 PUSH1 0x0 JUMPDEST DUP4 DUP2 LT ISZERO PUSH2 0xCE JUMPI DUP1 DUP3 ADD MLOAD DUP4 DUP3 ADD MSTORE PUSH1 0x20 ADD PUSH2 0xB6 JUMP JUMPDEST POP POP POP POP SWAP1 POP ADD SWAP3 POP POP POP PUSH1 0x40 MLOAD DUP1 SWAP2 SUB SWAP1 RETURN JUMPDEST CALLVALUE ISZERO PUSH2 0xED JUMPI PUSH1 0x0 DUP1 REVERT JUMPDEST PUSH2 0xF5 PUSH2 0x30C JUMP JUMPDEST PUSH1 0x40 MLOAD SWAP1 DUP2 MSTORE PUSH1 0x20 ADD PUSH1 0x40 MLOAD DUP1 SWAP2 SUB SWAP1 RETURN JUMPDEST CALLVALUE ISZERO PUSH2 0x112 JUMPI PUSH1 0x0 DUP1 REVERT JUMPDEST PUSH2 0x11A PUSH2 0x312 JUMP JUMPDEST PUSH1 0x40 MLOAD DUP1 DUP1 PUSH1 0x20 ADD DUP1 PUSH1 0x20 ADD DUP1 PUSH1 0x20 ADD DUP5 DUP2 SUB DUP5 MSTORE DUP8 DUP2 DUP2 MLOAD DUP2 MSTORE PUSH1 0x20 ADD SWAP2 POP DUP1 MLOAD SWAP1 PUSH1 0x20 ADD SWAP1 PUSH1 0x20 MUL DUP1 DUP4 DUP4 PUSH1 0x0 JUMPDEST DUP4 DUP2 LT ISZERO PUSH2 0x162 JUMPI DUP1 DUP3 ADD MLOAD DUP4 DUP3 ADD MSTORE PUSH1 0x20 ADD PUSH2 0x14A JUMP JUMPDEST POP POP POP POP SWAP1 POP ADD DUP5 DUP2 SUB DUP4 MSTORE DUP7 DUP2 DUP2 MLOAD DUP2 MSTORE PUSH1 0x20 ADD SWAP2 POP DUP1 MLOAD SWAP1 PUSH1 0x20 ADD SWAP1 PUSH1 0x20 MUL DUP1 DUP4 DUP4 PUSH1 0x0 JUMPDEST DUP4 DUP2 LT ISZERO PUSH2 0x1A1 JUMPI DUP1 DUP3 ADD MLOAD DUP4 DUP3 ADD MSTORE PUSH1 0x20 ADD PUSH2 0x189 JUMP JUMPDEST POP POP POP POP SWAP1 POP ADD DUP5 DUP2 SUB DUP3 MSTORE DUP6 DUP2 DUP2 MLOAD DUP2 MSTORE PUSH1 0x20 ADD SWAP2 POP DUP1 MLOAD SWAP1 PUSH1 0x20 ADD SWAP1 PUSH1 0x20 MUL DUP1 DUP4 DUP4 PUSH1 0x0 JUMPDEST DUP4 DUP2 LT ISZERO PUSH2 0x1E0 JUMPI DUP1 DUP3 ADD MLOAD DUP4 DUP3 ADD MSTORE PUSH1 0x20 ADD PUSH2 0x1C8 JUMP JUMPDEST POP POP POP POP SWAP1 POP ADD SWAP7 POP POP POP POP POP POP POP PUSH1 0x40 MLOAD DUP1 SWAP2 SUB SWAP1 RETURN JUMPDEST CALLVALUE ISZERO PUSH2 0x203 JUMPI PUSH1 0x0 DUP1 REVERT JUMPDEST PUSH2 0x211 PUSH1 0x4 CALLDATALOAD PUSH1 0x24 CALLDATALOAD PUSH2 0x444 JUMP JUMPDEST STOP JUMPDEST CALLVALUE ISZERO PUSH2 0x21E JUMPI PUSH1 0x0 DUP1 REVERT JUMPDEST PUSH2 0x211 PUSH1 0x4 CALLDATALOAD PUSH1 0x24 CALLDATALOAD PUSH2 0x584 JUMP JUMPDEST CALLVALUE ISZERO PUSH2 0x237 JUMPI PUSH1 0x0 DUP1 REVERT JUMPDEST PUSH2 0x23F PUSH2 0x699 JUMP JUMPDEST PUSH1 0x40 MLOAD SWAP1 ISZERO ISZERO DUP2 MSTORE PUSH1 0x20 ADD PUSH1 0x40 MLOAD DUP1 SWAP2 SUB SWAP1 RETURN JUMPDEST PUSH2 0x25B PUSH2 0x765 JUMP JUMPDEST PUSH1 0x0 PUSH2 0x265 PUSH2 0x765 JUMP JUMPDEST PUSH1 0x2 SLOAD SWAP2 POP PUSH1 0x0 DUP1 DUP4 PUSH1 0x40 MLOAD DUP1 MSIZE LT PUSH2 0x27B JUMPI POP MSIZE JUMPDEST SWAP1 DUP1 DUP3 MSTORE DUP1 PUSH1 0x20 MUL PUSH1 0x20 ADD DUP3 ADD PUSH1 0x40 MSTORE POP SWAP3 POP PUSH1 0x0 SWAP2 POP JUMPDEST DUP4 DUP3 LT ISZERO PUSH2 0x303 JUMPI PUSH1 0x2 DUP1 SLOAD DUP4 SWAP1 DUP2 LT PUSH2 0x2A9 JUMPI INVALID JUMPDEST PUSH1 0x0 SWAP2 DUP3 MSTORE PUSH1 0x20 DUP1 DUP4 KECCAK256 PUSH20 0xFFFFFFFFFFFFFFFFFFFFFFFFFFFFFFFFFFFFFFFF CALLER AND DUP5 MSTORE PUSH1 0x3 PUSH1 0x4 SWAP1 SWAP4 MUL ADD SWAP2 DUP3 ADD SWAP1 MSTORE PUSH1 0x40 SWAP1 SWAP2 KECCAK256 SLOAD SWAP1 SWAP2 POP DUP4 DUP4 DUP2 MLOAD DUP2 LT PUSH2 0x2EE JUMPI INVALID JUMPDEST PUSH1 0x20 SWAP1 DUP2 MUL SWAP1 SWAP2 ADD ADD MSTORE PUSH1 0x1 SWAP1 SWAP2 ADD SWAP1 PUSH2 0x293 JUMP JUMPDEST POP SWAP1 SWAP4 SWAP3 POP POP POP JUMP JUMPDEST PUSH1 0x1 SLOAD DUP2 JUMP JUMPDEST PUSH2 0x31A PUSH2 0x765 JUMP JUMPDEST PUSH2 0x322 PUSH2 0x765 JUMP JUMPDEST PUSH2 0x32A PUSH2 0x765 JUMP JUMPDEST PUSH1 0x0 PUSH2 0x334 PUSH2 0x765 JUMP JUMPDEST PUSH2 0x33C PUSH2 0x765 JUMP JUMPDEST PUSH2 0x344 PUSH2 0x765 JUMP JUMPDEST PUSH1 0x2 SLOAD SWAP4 POP PUSH1 0x0 DUP1 DUP6 PUSH1 0x40 MLOAD DUP1 MSIZE LT PUSH2 0x35A JUMPI POP MSIZE JUMPDEST SWAP1 DUP1 DUP3 MSTORE DUP1 PUSH1 0x20 MUL PUSH1 0x20 ADD DUP3 ADD PUSH1 0x40 MSTORE POP SWAP5 POP DUP6 PUSH1 0x40 MLOAD DUP1 MSIZE LT PUSH2 0x37B JUMPI POP MSIZE JUMPDEST SWAP1 DUP1 DUP3 MSTORE DUP1 PUSH1 0x20 MUL PUSH1 0x20 ADD DUP3 ADD PUSH1 0x40 MSTORE POP SWAP4 POP DUP6 PUSH1 0x40 MLOAD DUP1 MSIZE LT PUSH2 0x39C JUMPI POP MSIZE JUMPDEST SWAP1 DUP1 DUP3 MSTORE DUP1 PUSH1 0x20 MUL PUSH1 0x20 ADD DUP3 ADD PUSH1 0x40 MSTORE POP SWAP3 POP PUSH1 0x0 SWAP2 POP JUMPDEST DUP6 DUP3 LT ISZERO PUSH2 0x436 JUMPI PUSH1 0x2 DUP1 SLOAD DUP4 SWAP1 DUP2 LT PUSH2 0x3CA JUMPI INVALID JUMPDEST SWAP1 PUSH1 0x0 MSTORE PUSH1 0x20 PUSH1 0x0 KECCAK256 SWAP1 PUSH1 0x4 MUL ADD SWAP1 POP DUP1 PUSH1 0x0 ADD SLOAD DUP6 DUP4 DUP2 MLOAD DUP2 LT PUSH2 0x3EB JUMPI INVALID JUMPDEST PUSH1 0x20 SWAP1 DUP2 MUL SWAP1 SWAP2 ADD ADD MSTORE PUSH1 0x1 DUP2 ADD SLOAD DUP5 DUP4 DUP2 MLOAD DUP2 LT PUSH2 0x406 JUMPI INVALID JUMPDEST PUSH1 0x20 SWAP1 DUP2 MUL SWAP1 SWAP2 ADD ADD MSTORE PUSH1 0x2 DUP2 ADD SLOAD DUP4 DUP4 DUP2 MLOAD DUP2 LT PUSH2 0x421 JUMPI INVALID JUMPDEST PUSH1 0x20 SWAP1 DUP2 MUL SWAP1 SWAP2 ADD ADD MSTORE PUSH1 0x1 SWAP1 SWAP2 ADD SWAP1 PUSH2 0x3B4 JUMP JUMPDEST POP SWAP3 SWAP8 SWAP2 SWAP7 POP SWAP5 POP SWAP3 POP POP POP JUMP JUMPDEST PUSH2 0x44C PUSH2 0x777 JUMP JUMPDEST PUSH1 0x0 PUSH2 0x456 PUSH2 0x699 JUMP JUMPDEST ISZERO ISZERO PUSH2 0x461 JUMPI PUSH1 0x0 DUP1 REVERT JUMPDEST PUSH1 0x60 PUSH1 0x40 MLOAD SWAP1 DUP2 ADD PUSH1 0x40 MSTORE DUP1 DUP6 PUSH1 0x0 NOT AND DUP2 MSTORE PUSH1 0x20 ADD DUP5 DUP2 MSTORE PUSH1 0x20 ADD PUSH1 0x1 DUP2 MSTORE POP SWAP2 POP PUSH1 0x2 DUP1 SLOAD DUP1 PUSH1 0x1 ADD DUP3 DUP2 PUSH2 0x498 SWAP2 SWAP1 PUSH2 0x797 JUMP JUMPDEST PUSH1 0x0 SWAP3 DUP4 MSTORE PUSH1 0x20 SWAP1 SWAP3 KECCAK256 DUP5 SWAP2 PUSH1 0x4 MUL ADD DUP2 MLOAD DUP2 SSTORE PUSH1 0x20 DUP3 ADD MLOAD DUP2 PUSH1 0x1 ADD SSTORE PUSH1 0x40 DUP3 ADD MLOAD PUSH1 0x2 SWAP2 DUP3 ADD SSTORE DUP1 SLOAD SWAP1 SWAP3 POP PUSH1 0x0 NOT DUP2 ADD SWAP2 POP DUP2 LT PUSH2 0x4D5 JUMPI INVALID JUMPDEST SWAP1 PUSH1 0x0 MSTORE PUSH1 0x20 PUSH1 0x0 KECCAK256 SWAP1 PUSH1 0x4 MUL ADD SWAP1 POP DUP3 DUP2 PUSH1 0x3 ADD PUSH1 0x0 CALLER PUSH20 0xFFFFFFFFFFFFFFFFFFFFFFFFFFFFFFFFFFFFFFFF AND PUSH20 0xFFFFFFFFFFFFFFFFFFFFFFFFFFFFFFFFFFFFFFFF AND DUP2 MSTORE PUSH1 0x20 ADD SWAP1 DUP2 MSTORE PUSH1 0x20 ADD PUSH1 0x0 KECCAK256 DUP2 SWAP1 SSTORE POP PUSH1 0x1 PUSH1 0x2 DUP1 SLOAD SWAP1 POP SUB CALLER PUSH20 0xFFFFFFFFFFFFFFFFFFFFFFFFFFFFFFFFFFFFFFFF AND PUSH32 0xAFD3F234C1F8E944129B26B206D98E5752AD3336A4059938B4A3E990E9588530 DUP6 PUSH1 0x40 MLOAD SWAP1 DUP2 MSTORE PUSH1 0x20 ADD PUSH1 0x40 MLOAD DUP1 SWAP2 SUB SWAP1 LOG3 POP POP POP POP JUMP JUMPDEST PUSH1 0x0 DUP1 PUSH1 0x1 SLOAD TIMESTAMP LT ISZERO ISZERO PUSH2 0x597 JUMPI PUSH1 0x0 DUP1 REVERT JUMPDEST PUSH2 0x59F PUSH2 0x699 JUMP JUMPDEST ISZERO ISZERO PUSH2 0x5AA JUMPI PUSH1 0x0 DUP1 REVERT JUMPDEST PUSH1 0x2 DUP1 SLOAD DUP6 SWAP1 DUP2 LT PUSH2 0x5B8 JUMPI INVALID JUMPDEST PUSH1 0x0 SWAP2 DUP3 MSTORE PUSH1 0x20 DUP1 DUP4 KECCAK256 PUSH20 0xFFFFFFFFFFFFFFFFFFFFFFFFFFFFFFFFFFFFFFFF CALLER AND DUP5 MSTORE PUSH1 0x3 PUSH1 0x4 SWAP1 SWAP4 MUL ADD SWAP2 DUP3 ADD SWAP1 MSTORE PUSH1 0x40 DUP3 KECCAK256 SLOAD SWAP1 SWAP4 POP SWAP2 POP DUP2 GT ISZERO PUSH2 0x611 JUMPI PUSH1 0x1 DUP3 ADD DUP1 SLOAD DUP3 SWAP1 SUB SWAP1 SSTORE PUSH1 0x2 DUP3 ADD DUP1 SLOAD PUSH1 0x0 NOT ADD SWAP1 SSTORE JUMPDEST PUSH1 0x0 DUP4 GT ISZERO PUSH2 0x631 JUMPI PUSH1 0x1 DUP1 DUP4 ADD DUP1 SLOAD DUP6 ADD SWAP1 SSTORE PUSH1 0x2 DUP4 ADD DUP1 SLOAD SWAP1 SWAP2 ADD SWAP1 SSTORE JUMPDEST PUSH20 0xFFFFFFFFFFFFFFFFFFFFFFFFFFFFFFFFFFFFFFFF CALLER AND PUSH1 0x0 DUP2 DUP2 MSTORE PUSH1 0x3 DUP5 ADD PUSH1 0x20 MSTORE PUSH1 0x40 SWAP1 DUP2 SWAP1 KECCAK256 DUP6 SWAP1 SSTORE DUP6 SWAP2 SWAP1 PUSH32 0xAFD3F234C1F8E944129B26B206D98E5752AD3336A4059938B4A3E990E9588530 SWAP1 DUP7 SWAP1 MLOAD SWAP1 DUP2 MSTORE PUSH1 0x20 ADD PUSH1 0x40 MLOAD DUP1 SWAP2 SUB SWAP1 LOG3 POP POP POP POP JUMP JUMPDEST PUSH1 0x0 DUP1 PUSH1 0x1 SLOAD TIMESTAMP LT ISZERO ISZERO PUSH2 0x6AC JUMPI PUSH1 0x0 DUP1 REVERT JUMPDEST PUSH1 0x3 SLOAD PUSH20 0xFFFFFFFFFFFFFFFFFFFFFFFFFFFFFFFFFFFFFFFF AND PUSH4 0x9E69EDE CALLER PUSH1 0x0 PUSH1 0x40 MLOAD PUSH1 0x40 ADD MSTORE PUSH1 0x40 MLOAD PUSH29 0x100000000000000000000000000000000000000000000000000000000 PUSH4 0xFFFFFFFF DUP5 AND MUL DUP2 MSTORE PUSH20 0xFFFFFFFFFFFFFFFFFFFFFFFFFFFFFFFFFFFFFFFF SWAP1 SWAP2 AND PUSH1 0x4 DUP3 ADD MSTORE PUSH1 0x24 ADD PUSH1 0x40 DUP1 MLOAD DUP1 DUP4 SUB DUP2 PUSH1 0x0 DUP8 DUP1 EXTCODESIZE ISZERO ISZERO PUSH2 0x737 JUMPI PUSH1 0x0 DUP1 REVERT JUMPDEST PUSH2 0x2C6 GAS SUB CALL ISZERO ISZERO PUSH2 0x748 JUMPI PUSH1 0x0 DUP1 REVERT JUMPDEST POP POP POP PUSH1 0x40 MLOAD DUP1 MLOAD SWAP1 PUSH1 0x20 ADD DUP1 MLOAD POP POP PUSH1 0x0 DUP2 GT SWAP3 POP SWAP1 POP JUMPDEST POP SWAP1 JUMP JUMPDEST PUSH1 0x20 PUSH1 0x40 MLOAD SWAP1 DUP2 ADD PUSH1 0x40 MSTORE PUSH1 0x0 DUP2 MSTORE SWAP1 JUMP JUMPDEST PUSH1 0x60 PUSH1 0x40 MLOAD SWAP1 DUP2 ADD PUSH1 0x40 SWAP1 DUP2 MSTORE PUSH1 0x0 DUP1 DUP4 MSTORE PUSH1 0x20 DUP4 ADD DUP2 SWAP1 MSTORE SWAP1 DUP3 ADD MSTORE SWAP1 JUMP JUMPDEST DUP2 SLOAD DUP2 DUP4 SSTORE DUP2 DUP2 ISZERO GT PUSH2 0x7C3 JUMPI PUSH1 0x4 MUL DUP2 PUSH1 0x4 MUL DUP4 PUSH1 0x0 MSTORE PUSH1 0x20 PUSH1 0x0 KECCAK256 SWAP2 DUP3 ADD SWAP2 ADD PUSH2 0x7C3 SWAP2 SWAP1 PUSH2 0x7C8 JUMP JUMPDEST POP POP POP JUMP JUMPDEST PUSH2 0x7EF SWAP2 SWAP1 JUMPDEST DUP1 DUP3 GT ISZERO PUSH2 0x761 JUMPI PUSH1 0x0 DUP1 DUP3 SSTORE PUSH1 0x1 DUP3 ADD DUP2 SWAP1 SSTORE PUSH1 0x2 DUP3 ADD SSTORE PUSH1 0x4 ADD PUSH2 0x7CE JUMP JUMPDEST SWAP1 JUMP STOP LOG1 PUSH6 0x627A7A723058 KECCAK256 0xcb COINBASE 0xb2 0xb6 0xd3 0xca PUSH31 0x444538D757AB196378C5FC9CD82E3CD990CE4E90BF2479B415002900000000 "
        }
    },
    "methods": {
        "getVotes": [],
        "endTime": [],
        "getCharities": [],
        "add": [
            "_charityName",
            "_score"
        ],
        "vote": [
            "_charityId",
            "_score"
        ],
        "hasRight": []
    }
}