{
    "abi": [
        {
            "constant": true,
            "inputs": [],
            "name": "endTime",
            "outputs": [
                {
                    "name": "",
                    "type": "uint256"
                }
            ],
            "payable": false,
            "stateMutability": "view",
            "type": "function"
        },
        {
            "constant": true,
            "inputs": [],
            "name": "getCharities",
            "outputs": [
                {
                    "name": "",
                    "type": "bytes32[]"
                },
                {
                    "name": "",
                    "type": "address[]"
                }
            ],
            "payable": false,
            "stateMutability": "view",
            "type": "function"
        },
        {
            "constant": true,
            "inputs": [],
            "name": "passedCharityId",
            "outputs": [
                {
                    "name": "",
                    "type": "uint256"
                }
            ],
            "payable": false,
            "stateMutability": "view",
            "type": "function"
        },
        {
            "constant": false,
            "inputs": [],
            "name": "pass",
            "outputs": [],
            "payable": false,
            "stateMutability": "nonpayable",
            "type": "function"
        },
        {
            "constant": false,
            "inputs": [
                {
                    "name": "_charityId",
                    "type": "uint256"
                },
                {
                    "name": "_score",
                    "type": "uint256"
                }
            ],
            "name": "vote",
            "outputs": [],
            "payable": false,
            "stateMutability": "nonpayable",
            "type": "function"
        },
        {
            "constant": false,
            "inputs": [
                {
                    "name": "_name",
                    "type": "bytes32"
                },
                {
                    "name": "_address",
                    "type": "address"
                }
            ],
            "name": "addCharity",
            "outputs": [],
            "payable": false,
            "stateMutability": "nonpayable",
            "type": "function"
        },
        {
            "inputs": [
                {
                    "name": "_endTime",
                    "type": "uint256"
                }
            ],
            "payable": false,
            "stateMutability": "nonpayable",
            "type": "constructor"
        },
        {
            "anonymous": false,
            "inputs": [
                {
                    "indexed": true,
                    "name": "_charityId",
                    "type": "uint256"
                }
            ],
            "name": "CharityAdd",
            "type": "event"
        },
        {
            "anonymous": false,
            "inputs": [
                {
                    "indexed": true,
                    "name": "_address",
                    "type": "address"
                },
                {
                    "indexed": true,
                    "name": "_charityId",
                    "type": "uint256"
                },
                {
                    "indexed": false,
                    "name": "_score",
                    "type": "uint256"
                }
            ],
            "name": "VoterCast",
            "type": "event"
        },
        {
            "anonymous": false,
            "inputs": [
                {
                    "indexed": true,
                    "name": "_charityId",
                    "type": "uint256"
                }
            ],
            "name": "CharityPass",
            "type": "event"
        }
    ],
    "evm": {
        "bytecode": {
            "linkReferences": {},
            "object": "6060604052341561000f57600080fd5b6040516020806106ac8339810160405280805160008054600160a060020a033316600160a060020a03199091161790556001555050610659806100536000396000f3006060604052600436106100775763ffffffff7c01000000000000000000000000000000000000000000000000000000006000350416633197cbb6811461007c57806348112c6f146100a15780637a6be5cb1461014d578063a7a1ed7214610160578063b384abef14610175578063ca84fdcc1461018e575b600080fd5b341561008757600080fd5b61008f6101bd565b60405190815260200160405180910390f35b34156100ac57600080fd5b6100b46101c3565b604051808060200180602001838103835285818151815260200191508051906020019060200280838360005b838110156100f85780820151838201526020016100e0565b50505050905001838103825284818151815260200191508051906020019060200280838360005b8381101561013757808201518382015260200161011f565b5050505090500194505050505060405180910390f35b341561015857600080fd5b61008f6102d8565b341561016b57600080fd5b6101736102de565b005b341561018057600080fd5b61017360043560243561039a565b341561019957600080fd5b61017360043573ffffffffffffffffffffffffffffffffffffffff6024351661048f565b60015481565b6101cb61059d565b6101d361059d565b6101db61059d565b6101e361059d565b60035460009081906040518059106101f85750595b908082528060200260200182016040525060035490945060405180591061021c5750595b90808252806020026020018201604052509250600091505b6003548210156102cd57600380548390811061024c57fe5b90600052602060002090600502019050806000015484838151811061026d57fe5b60209081029091010152600181015473ffffffffffffffffffffffffffffffffffffffff1683838151811061029e57fe5b73ffffffffffffffffffffffffffffffffffffffff909216602092830290910190910152600190910190610234565b509194909350915050565b60025481565b600080600080600042600154111515156102f757600080fd5b600092505b60035483101561036157600380548490811061031457fe5b906000526020600020906005020191508160030154826002015481151561033757fe5b0490508381141561034757600080fd5b83811115610356578093508294505b6001909201916102fc565b6002859055847f48ef71dca64c6c7ee87ee199b96d23045d8d5b7475f1051320cd869cd0562d8860405160405180910390a25050505050565b60008060015442111580156103af5750600254155b15156103ba57600080fd5b60038054859081106103c857fe5b6000918252602080832073ffffffffffffffffffffffffffffffffffffffff33168452600460059093020191820190526040822054909350915083111561041b5760028201805482900384019055610427565b60028201805482900390555b73ffffffffffffffffffffffffffffffffffffffff33166000818152600484016020526040908190208590558591907f91669d47966be3c297fd50c28765b16e7d18429ae1955a65975cd2fbe05caf859086905190815260200160405180910390a350505050565b60015442111580156104a15750600254155b15156104ac57600080fd5b60038054600181016104be83826105af565b916000526020600020906005020160006080604051908101604090815286825273ffffffffffffffffffffffffffffffffffffffff861660208301526000908201819052606082015291905081518155602082015160018201805473ffffffffffffffffffffffffffffffffffffffff191673ffffffffffffffffffffffffffffffffffffffff92909216919091179055604082015181600201556060820151600391820155546000190191507f50608d226080e5756e76baa3b6150d060c58aa074432a7d1a5dc1533d9e0e2a9905060405160405180910390a25050565b60206040519081016040526000815290565b8154818355818115116105db576005028160050283600052602060002091820191016105db91906105e0565b505050565b61062a91905b8082111561062657600080825560018201805473ffffffffffffffffffffffffffffffffffffffff191690556002820181905560038201556005016105e6565b5090565b905600a165627a7a723058201c1f35a03cabb918a0f1c2ec22806dc2b268fcd3af4968a95dda5394a3b3d6230029",
            "opcodes": "PUSH1 0x60 PUSH1 0x40 MSTORE CALLVALUE ISZERO PUSH2 0xF JUMPI PUSH1 0x0 DUP1 REVERT JUMPDEST PUSH1 0x40 MLOAD PUSH1 0x20 DUP1 PUSH2 0x6AC DUP4 CODECOPY DUP2 ADD PUSH1 0x40 MSTORE DUP1 DUP1 MLOAD PUSH1 0x0 DUP1 SLOAD PUSH1 0x1 PUSH1 0xA0 PUSH1 0x2 EXP SUB CALLER AND PUSH1 0x1 PUSH1 0xA0 PUSH1 0x2 EXP SUB NOT SWAP1 SWAP2 AND OR SWAP1 SSTORE PUSH1 0x1 SSTORE POP POP PUSH2 0x659 DUP1 PUSH2 0x53 PUSH1 0x0 CODECOPY PUSH1 0x0 RETURN STOP PUSH1 0x60 PUSH1 0x40 MSTORE PUSH1 0x4 CALLDATASIZE LT PUSH2 0x77 JUMPI PUSH4 0xFFFFFFFF PUSH29 0x100000000000000000000000000000000000000000000000000000000 PUSH1 0x0 CALLDATALOAD DIV AND PUSH4 0x3197CBB6 DUP2 EQ PUSH2 0x7C JUMPI DUP1 PUSH4 0x48112C6F EQ PUSH2 0xA1 JUMPI DUP1 PUSH4 0x7A6BE5CB EQ PUSH2 0x14D JUMPI DUP1 PUSH4 0xA7A1ED72 EQ PUSH2 0x160 JUMPI DUP1 PUSH4 0xB384ABEF EQ PUSH2 0x175 JUMPI DUP1 PUSH4 0xCA84FDCC EQ PUSH2 0x18E JUMPI JUMPDEST PUSH1 0x0 DUP1 REVERT JUMPDEST CALLVALUE ISZERO PUSH2 0x87 JUMPI PUSH1 0x0 DUP1 REVERT JUMPDEST PUSH2 0x8F PUSH2 0x1BD JUMP JUMPDEST PUSH1 0x40 MLOAD SWAP1 DUP2 MSTORE PUSH1 0x20 ADD PUSH1 0x40 MLOAD DUP1 SWAP2 SUB SWAP1 RETURN JUMPDEST CALLVALUE ISZERO PUSH2 0xAC JUMPI PUSH1 0x0 DUP1 REVERT JUMPDEST PUSH2 0xB4 PUSH2 0x1C3 JUMP JUMPDEST PUSH1 0x40 MLOAD DUP1 DUP1 PUSH1 0x20 ADD DUP1 PUSH1 0x20 ADD DUP4 DUP2 SUB DUP4 MSTORE DUP6 DUP2 DUP2 MLOAD DUP2 MSTORE PUSH1 0x20 ADD SWAP2 POP DUP1 MLOAD SWAP1 PUSH1 0x20 ADD SWAP1 PUSH1 0x20 MUL DUP1 DUP4 DUP4 PUSH1 0x0 JUMPDEST DUP4 DUP2 LT ISZERO PUSH2 0xF8 JUMPI DUP1 DUP3 ADD MLOAD DUP4 DUP3 ADD MSTORE PUSH1 0x20 ADD PUSH2 0xE0 JUMP JUMPDEST POP POP POP POP SWAP1 POP ADD DUP4 DUP2 SUB DUP3 MSTORE DUP5 DUP2 DUP2 MLOAD DUP2 MSTORE PUSH1 0x20 ADD SWAP2 POP DUP1 MLOAD SWAP1 PUSH1 0x20 ADD SWAP1 PUSH1 0x20 MUL DUP1 DUP4 DUP4 PUSH1 0x0 JUMPDEST DUP4 DUP2 LT ISZERO PUSH2 0x137 JUMPI DUP1 DUP3 ADD MLOAD DUP4 DUP3 ADD MSTORE PUSH1 0x20 ADD PUSH2 0x11F JUMP JUMPDEST POP POP POP POP SWAP1 POP ADD SWAP5 POP POP POP POP POP PUSH1 0x40 MLOAD DUP1 SWAP2 SUB SWAP1 RETURN JUMPDEST CALLVALUE ISZERO PUSH2 0x158 JUMPI PUSH1 0x0 DUP1 REVERT JUMPDEST PUSH2 0x8F PUSH2 0x2D8 JUMP JUMPDEST CALLVALUE ISZERO PUSH2 0x16B JUMPI PUSH1 0x0 DUP1 REVERT JUMPDEST PUSH2 0x173 PUSH2 0x2DE JUMP JUMPDEST STOP JUMPDEST CALLVALUE ISZERO PUSH2 0x180 JUMPI PUSH1 0x0 DUP1 REVERT JUMPDEST PUSH2 0x173 PUSH1 0x4 CALLDATALOAD PUSH1 0x24 CALLDATALOAD PUSH2 0x39A JUMP JUMPDEST CALLVALUE ISZERO PUSH2 0x199 JUMPI PUSH1 0x0 DUP1 REVERT JUMPDEST PUSH2 0x173 PUSH1 0x4 CALLDATALOAD PUSH20 0xFFFFFFFFFFFFFFFFFFFFFFFFFFFFFFFFFFFFFFFF PUSH1 0x24 CALLDATALOAD AND PUSH2 0x48F JUMP JUMPDEST PUSH1 0x1 SLOAD DUP2 JUMP JUMPDEST PUSH2 0x1CB PUSH2 0x59D JUMP JUMPDEST PUSH2 0x1D3 PUSH2 0x59D JUMP JUMPDEST PUSH2 0x1DB PUSH2 0x59D JUMP JUMPDEST PUSH2 0x1E3 PUSH2 0x59D JUMP JUMPDEST PUSH1 0x3 SLOAD PUSH1 0x0 SWAP1 DUP2 SWAP1 PUSH1 0x40 MLOAD DUP1 MSIZE LT PUSH2 0x1F8 JUMPI POP MSIZE JUMPDEST SWAP1 DUP1 DUP3 MSTORE DUP1 PUSH1 0x20 MUL PUSH1 0x20 ADD DUP3 ADD PUSH1 0x40 MSTORE POP PUSH1 0x3 SLOAD SWAP1 SWAP5 POP PUSH1 0x40 MLOAD DUP1 MSIZE LT PUSH2 0x21C JUMPI POP MSIZE JUMPDEST SWAP1 DUP1 DUP3 MSTORE DUP1 PUSH1 0x20 MUL PUSH1 0x20 ADD DUP3 ADD PUSH1 0x40 MSTORE POP SWAP3 POP PUSH1 0x0 SWAP2 POP JUMPDEST PUSH1 0x3 SLOAD DUP3 LT ISZERO PUSH2 0x2CD JUMPI PUSH1 0x3 DUP1 SLOAD DUP4 SWAP1 DUP2 LT PUSH2 0x24C JUMPI INVALID JUMPDEST SWAP1 PUSH1 0x0 MSTORE PUSH1 0x20 PUSH1 0x0 KECCAK256 SWAP1 PUSH1 0x5 MUL ADD SWAP1 POP DUP1 PUSH1 0x0 ADD SLOAD DUP5 DUP4 DUP2 MLOAD DUP2 LT PUSH2 0x26D JUMPI INVALID JUMPDEST PUSH1 0x20 SWAP1 DUP2 MUL SWAP1 SWAP2 ADD ADD MSTORE PUSH1 0x1 DUP2 ADD SLOAD PUSH20 0xFFFFFFFFFFFFFFFFFFFFFFFFFFFFFFFFFFFFFFFF AND DUP4 DUP4 DUP2 MLOAD DUP2 LT PUSH2 0x29E JUMPI INVALID JUMPDEST PUSH20 0xFFFFFFFFFFFFFFFFFFFFFFFFFFFFFFFFFFFFFFFF SWAP1 SWAP3 AND PUSH1 0x20 SWAP3 DUP4 MUL SWAP1 SWAP2 ADD SWAP1 SWAP2 ADD MSTORE PUSH1 0x1 SWAP1 SWAP2 ADD SWAP1 PUSH2 0x234 JUMP JUMPDEST POP SWAP2 SWAP5 SWAP1 SWAP4 POP SWAP2 POP POP JUMP JUMPDEST PUSH1 0x2 SLOAD DUP2 JUMP JUMPDEST PUSH1 0x0 DUP1 PUSH1 0x0 DUP1 PUSH1 0x0 TIMESTAMP PUSH1 0x1 SLOAD GT ISZERO ISZERO ISZERO PUSH2 0x2F7 JUMPI PUSH1 0x0 DUP1 REVERT JUMPDEST PUSH1 0x0 SWAP3 POP JUMPDEST PUSH1 0x3 SLOAD DUP4 LT ISZERO PUSH2 0x361 JUMPI PUSH1 0x3 DUP1 SLOAD DUP5 SWAP1 DUP2 LT PUSH2 0x314 JUMPI INVALID JUMPDEST SWAP1 PUSH1 0x0 MSTORE PUSH1 0x20 PUSH1 0x0 KECCAK256 SWAP1 PUSH1 0x5 MUL ADD SWAP2 POP DUP2 PUSH1 0x3 ADD SLOAD DUP3 PUSH1 0x2 ADD SLOAD DUP2 ISZERO ISZERO PUSH2 0x337 JUMPI INVALID JUMPDEST DIV SWAP1 POP DUP4 DUP2 EQ ISZERO PUSH2 0x347 JUMPI PUSH1 0x0 DUP1 REVERT JUMPDEST DUP4 DUP2 GT ISZERO PUSH2 0x356 JUMPI DUP1 SWAP4 POP DUP3 SWAP5 POP JUMPDEST PUSH1 0x1 SWAP1 SWAP3 ADD SWAP2 PUSH2 0x2FC JUMP JUMPDEST PUSH1 0x2 DUP6 SWAP1 SSTORE DUP5 PUSH32 0x48EF71DCA64C6C7EE87EE199B96D23045D8D5B7475F1051320CD869CD0562D88 PUSH1 0x40 MLOAD PUSH1 0x40 MLOAD DUP1 SWAP2 SUB SWAP1 LOG2 POP POP POP POP POP JUMP JUMPDEST PUSH1 0x0 DUP1 PUSH1 0x1 SLOAD TIMESTAMP GT ISZERO DUP1 ISZERO PUSH2 0x3AF JUMPI POP PUSH1 0x2 SLOAD ISZERO JUMPDEST ISZERO ISZERO PUSH2 0x3BA JUMPI PUSH1 0x0 DUP1 REVERT JUMPDEST PUSH1 0x3 DUP1 SLOAD DUP6 SWAP1 DUP2 LT PUSH2 0x3C8 JUMPI INVALID JUMPDEST PUSH1 0x0 SWAP2 DUP3 MSTORE PUSH1 0x20 DUP1 DUP4 KECCAK256 PUSH20 0xFFFFFFFFFFFFFFFFFFFFFFFFFFFFFFFFFFFFFFFF CALLER AND DUP5 MSTORE PUSH1 0x4 PUSH1 0x5 SWAP1 SWAP4 MUL ADD SWAP2 DUP3 ADD SWAP1 MSTORE PUSH1 0x40 DUP3 KECCAK256 SLOAD SWAP1 SWAP4 POP SWAP2 POP DUP4 GT ISZERO PUSH2 0x41B JUMPI PUSH1 0x2 DUP3 ADD DUP1 SLOAD DUP3 SWAP1 SUB DUP5 ADD SWAP1 SSTORE PUSH2 0x427 JUMP JUMPDEST PUSH1 0x2 DUP3 ADD DUP1 SLOAD DUP3 SWAP1 SUB SWAP1 SSTORE JUMPDEST PUSH20 0xFFFFFFFFFFFFFFFFFFFFFFFFFFFFFFFFFFFFFFFF CALLER AND PUSH1 0x0 DUP2 DUP2 MSTORE PUSH1 0x4 DUP5 ADD PUSH1 0x20 MSTORE PUSH1 0x40 SWAP1 DUP2 SWAP1 KECCAK256 DUP6 SWAP1 SSTORE DUP6 SWAP2 SWAP1 PUSH32 0x91669D47966BE3C297FD50C28765B16E7D18429AE1955A65975CD2FBE05CAF85 SWAP1 DUP7 SWAP1 MLOAD SWAP1 DUP2 MSTORE PUSH1 0x20 ADD PUSH1 0x40 MLOAD DUP1 SWAP2 SUB SWAP1 LOG3 POP POP POP POP JUMP JUMPDEST PUSH1 0x1 SLOAD TIMESTAMP GT ISZERO DUP1 ISZERO PUSH2 0x4A1 JUMPI POP PUSH1 0x2 SLOAD ISZERO JUMPDEST ISZERO ISZERO PUSH2 0x4AC JUMPI PUSH1 0x0 DUP1 REVERT JUMPDEST PUSH1 0x3 DUP1 SLOAD PUSH1 0x1 DUP2 ADD PUSH2 0x4BE DUP4 DUP3 PUSH2 0x5AF JUMP JUMPDEST SWAP2 PUSH1 0x0 MSTORE PUSH1 0x20 PUSH1 0x0 KECCAK256 SWAP1 PUSH1 0x5 MUL ADD PUSH1 0x0 PUSH1 0x80 PUSH1 0x40 MLOAD SWAP1 DUP2 ADD PUSH1 0x40 SWAP1 DUP2 MSTORE DUP7 DUP3 MSTORE PUSH20 0xFFFFFFFFFFFFFFFFFFFFFFFFFFFFFFFFFFFFFFFF DUP7 AND PUSH1 0x20 DUP4 ADD MSTORE PUSH1 0x0 SWAP1 DUP3 ADD DUP2 SWAP1 MSTORE PUSH1 0x60 DUP3 ADD MSTORE SWAP2 SWAP1 POP DUP2 MLOAD DUP2 SSTORE PUSH1 0x20 DUP3 ADD MLOAD PUSH1 0x1 DUP3 ADD DUP1 SLOAD PUSH20 0xFFFFFFFFFFFFFFFFFFFFFFFFFFFFFFFFFFFFFFFF NOT AND PUSH20 0xFFFFFFFFFFFFFFFFFFFFFFFFFFFFFFFFFFFFFFFF SWAP3 SWAP1 SWAP3 AND SWAP2 SWAP1 SWAP2 OR SWAP1 SSTORE PUSH1 0x40 DUP3 ADD MLOAD DUP2 PUSH1 0x2 ADD SSTORE PUSH1 0x60 DUP3 ADD MLOAD PUSH1 0x3 SWAP2 DUP3 ADD SSTORE SLOAD PUSH1 0x0 NOT ADD SWAP2 POP PUSH32 0x50608D226080E5756E76BAA3B6150D060C58AA074432A7D1A5DC1533D9E0E2A9 SWAP1 POP PUSH1 0x40 MLOAD PUSH1 0x40 MLOAD DUP1 SWAP2 SUB SWAP1 LOG2 POP POP JUMP JUMPDEST PUSH1 0x20 PUSH1 0x40 MLOAD SWAP1 DUP2 ADD PUSH1 0x40 MSTORE PUSH1 0x0 DUP2 MSTORE SWAP1 JUMP JUMPDEST DUP2 SLOAD DUP2 DUP4 SSTORE DUP2 DUP2 ISZERO GT PUSH2 0x5DB JUMPI PUSH1 0x5 MUL DUP2 PUSH1 0x5 MUL DUP4 PUSH1 0x0 MSTORE PUSH1 0x20 PUSH1 0x0 KECCAK256 SWAP2 DUP3 ADD SWAP2 ADD PUSH2 0x5DB SWAP2 SWAP1 PUSH2 0x5E0 JUMP JUMPDEST POP POP POP JUMP JUMPDEST PUSH2 0x62A SWAP2 SWAP1 JUMPDEST DUP1 DUP3 GT ISZERO PUSH2 0x626 JUMPI PUSH1 0x0 DUP1 DUP3 SSTORE PUSH1 0x1 DUP3 ADD DUP1 SLOAD PUSH20 0xFFFFFFFFFFFFFFFFFFFFFFFFFFFFFFFFFFFFFFFF NOT AND SWAP1 SSTORE PUSH1 0x2 DUP3 ADD DUP2 SWAP1 SSTORE PUSH1 0x3 DUP3 ADD SSTORE PUSH1 0x5 ADD PUSH2 0x5E6 JUMP JUMPDEST POP SWAP1 JUMP JUMPDEST SWAP1 JUMP STOP LOG1 PUSH6 0x627A7A723058 KECCAK256 0x1c 0x1f CALLDATALOAD LOG0 EXTCODECOPY 0xab 0xb9 XOR LOG0 CALL 0xc2 0xec 0x22 DUP1 PUSH14 0xC2B268FCD3AF4968A95DDA5394A3 0xb3 0xd6 0x23 STOP 0x29 "
        }
    },
    "methods": {
        "endTime": [],
        "getCharities": [],
        "passedCharityId": [],
        "pass": [],
        "vote": [
            "_charityId",
            "_score"
        ],
        "addCharity": [
            "_name",
            "_address"
        ]
    }
}