{
    "abi": [
        {
            "constant": true,
            "inputs": [],
            "name": "getVotes",
            "outputs": [
                {
                    "name": "_charityIndexes",
                    "type": "uint256[]"
                },
                {
                    "name": "_scores",
                    "type": "uint256[]"
                }
            ],
            "payable": false,
            "stateMutability": "view",
            "type": "function"
        },
        {
            "constant": true,
            "inputs": [],
            "name": "canVote",
            "outputs": [
                {
                    "name": "",
                    "type": "bool"
                }
            ],
            "payable": false,
            "stateMutability": "view",
            "type": "function"
        },
        {
            "constant": true,
            "inputs": [],
            "name": "getCharities",
            "outputs": [
                {
                    "name": "_names",
                    "type": "bytes32[]"
                },
                {
                    "name": "_suggestors",
                    "type": "address[]"
                },
                {
                    "name": "_totalScores",
                    "type": "uint256[]"
                },
                {
                    "name": "_totalVotes",
                    "type": "uint256[]"
                }
            ],
            "payable": false,
            "stateMutability": "view",
            "type": "function"
        },
        {
            "constant": false,
            "inputs": [],
            "name": "destroy",
            "outputs": [],
            "payable": false,
            "stateMutability": "nonpayable",
            "type": "function"
        },
        {
            "constant": false,
            "inputs": [
                {
                    "name": "_charityName",
                    "type": "bytes32"
                },
                {
                    "name": "_score",
                    "type": "uint256"
                }
            ],
            "name": "voteSuggest",
            "outputs": [],
            "payable": false,
            "stateMutability": "nonpayable",
            "type": "function"
        },
        {
            "constant": false,
            "inputs": [
                {
                    "name": "_charityIndex",
                    "type": "uint256"
                },
                {
                    "name": "_score",
                    "type": "uint256"
                }
            ],
            "name": "voteCharity",
            "outputs": [],
            "payable": false,
            "stateMutability": "nonpayable",
            "type": "function"
        },
        {
            "constant": true,
            "inputs": [],
            "name": "hasRight",
            "outputs": [
                {
                    "name": "",
                    "type": "bool"
                }
            ],
            "payable": false,
            "stateMutability": "view",
            "type": "function"
        },
        {
            "inputs": [
                {
                    "name": "_maxScore",
                    "type": "uint256"
                },
                {
                    "name": "_seedomAddress",
                    "type": "address"
                }
            ],
            "payable": false,
            "stateMutability": "nonpayable",
            "type": "constructor"
        },
        {
            "anonymous": false,
            "inputs": [
                {
                    "indexed": true,
                    "name": "_address",
                    "type": "address"
                },
                {
                    "indexed": true,
                    "name": "_charityIndex",
                    "type": "uint256"
                },
                {
                    "indexed": false,
                    "name": "_score",
                    "type": "uint256"
                }
            ],
            "name": "Cast",
            "type": "event"
        }
    ],
    "evm": {
        "bytecode": {
            "linkReferences": {},
            "object": "6060604052341561000f57600080fd5b604051604080610ef48339810160405280805191906020018051600093845560018054600160a060020a031916600160a060020a0390921691909117905550610e959182915061005f90396000f3006060604052600436106100825763ffffffff7c01000000000000000000000000000000000000000000000000000000006000350416630dc960158114610087578063159e70641461013357806348112c6f1461015a57806383197ef014610290578063cd47bd12146102a5578063e5cef028146102be578063ff75307e146102d7575b600080fd5b341561009257600080fd5b61009a6102ea565b604051808060200180602001838103835285818151815260200191508051906020019060200280838360005b838110156100de5780820151838201526020016100c6565b50505050905001838103825284818151815260200191508051906020019060200280838360005b8381101561011d578082015183820152602001610105565b5050505090500194505050505060405180910390f35b341561013e57600080fd5b6101466103d0565b604051901515815260200160405180910390f35b341561016557600080fd5b61016d6103ee565b6040518080602001806020018060200180602001858103855289818151815260200191508051906020019060200280838360005b838110156101b95780820151838201526020016101a1565b50505050905001858103845288818151815260200191508051906020019060200280838360005b838110156101f85780820151838201526020016101e0565b50505050905001858103835287818151815260200191508051906020019060200280838360005b8381101561023757808201518382015260200161021f565b50505050905001858103825286818151815260200191508051906020019060200280838360005b8381101561027657808201518382015260200161025e565b505050509050019850505050505050505060405180910390f35b341561029b57600080fd5b6102a3610559565b005b34156102b057600080fd5b6102a3600435602435610665565b34156102c957600080fd5b6102a3600435602435610852565b34156102e257600080fd5b610146610a7e565b6102f2610d57565b6102fa610d57565b600160a060020a03331660009081526003602052604080822080549092909181908390518059106103285750595b90808252806020026020018201604052509550826040518059106103495750595b90808252806020026020018201604052509450600091505b828210156103c857838281548110151561037757fe5b90600052602060002090600202019050806000015486838151811061039857fe5b6020908102909101015260018101548583815181106103b357fe5b60209081029091010152600190910190610361565b505050509091565b600160a060020a033316600090815260036020526040902054155b90565b6103f6610d57565b6103fe610d57565b610406610d57565b61040e610d57565b600254600080826040518059106104225750595b90808252806020026020018201604052509650826040518059106104435750595b90808252806020026020018201604052509550826040518059106104645750595b90808252806020026020018201604052509450826040518059106104855750595b90808252806020026020018201604052509350600091505b828210156105505760028054839081106104b357fe5b9060005260206000209060040201905080600001548783815181106104d457fe5b602090810290910101526001810154600160a060020a03168683815181106104f857fe5b600160a060020a03909216602092830290910190910152600281015485838151811061052057fe5b60209081029091010152600381015484838151811061053b57fe5b6020908102909101015260019091019061049d565b50505090919293565b6001546000908190600160a060020a031663be4f3b0b8260405161018001526040518163ffffffff167c010000000000000000000000000000000000000000000000000000000002815260040161018060405180830381600087803b15156105c057600080fd5b6102c65a03f115156105d157600080fd5b50505060405180519060200180519060200180519060200180519060200180519060200180519060200180519060200180519060200180519060200180519060200180519060200180519050509a50505050505050945050505033600160a060020a031682600160a060020a031614151561064b57600080fd5b428190101561065957600080fd5b33600160a060020a0316ff5b6000806000610672610d69565b61067a610d90565b86151561068657600080fd5b60005486111561069557600080fd5b61069d610a7e565b15156106a857600080fd5b6106b06103d0565b15156106bb57600080fd5b600094505b6002548510156107045760028054869081106106d857fe5b6000918252602090912060049091020180549094508714156106f957600080fd5b6001909401936106c0565b600254925060806040519081016040908152888252600160a060020a03331660208301528101879052600160608201819052600280549294509190810161074b8382610da7565b6000928352602090922084916004020181518155602082015160018201805473ffffffffffffffffffffffffffffffffffffffff1916600160a060020a039290921691909117905560408201518160020155606082015181600301555050506040805190810160409081528482526020808301899052600160a060020a0333166000908152600390915220805491925090600181016107ea8382610dd3565b6000928352602090922083916002020181518155602082015181600101555050508233600160a060020a03167fdd7ec9e840598741554076b0a76b9c22b14cf1293853c67918ccf2379548b9a08860405190815260200160405180910390a350505050505050565b600080600061085f610d90565b60005485111561086e57600080fd5b610876610a7e565b151561088157600080fd5b600160a060020a03331660009081526003602052604090206002805491955090879081106108ab57fe5b90600052602060002090600402019250600091505b8354821015610900578584838154811015156108d857fe5b90600052602060002090600202016000015414156108f557610900565b6001909101906108c0565b8354821461094257838281548110151561091657fe5b600091825260209091206002918202016001015490840180549190910390556003830180546000190190555b84151561099b57600183015433600160a060020a039081169116141561098c576000848381548110151561097257fe5b906000526020600020906002020160010181905550610996565b6109968483610cea565b610a38565b8354156109a757600080fd5b600283018054860190556003830180546001019055835482146109ed578484838154811015156109d357fe5b906000526020600020906002020160010181905550610a38565b60408051908101604052868152602081018690528454909150849060018101610a168382610dd3565b6000928352602090922083916002020181518155602082015181600101555050505b8533600160a060020a03167fdd7ec9e840598741554076b0a76b9c22b14cf1293853c67918ccf2379548b9a08760405190815260200160405180910390a3505050505050565b600154600090819081908190600160a060020a031663be4f3b0b8260405161018001526040518163ffffffff167c010000000000000000000000000000000000000000000000000000000002815260040161018060405180830381600087803b1515610ae957600080fd5b6102c65a03f11515610afa57600080fd5b505050604051805190602001805190602001805190602001805190602001805190602001805190602001805190602001805190602001805190602001805190602001805190602001805190505050509a5050505050505050508242101515610b655760009350610ce4565b600154600160a060020a031663c19d93fb600060405161016001526040518163ffffffff167c010000000000000000000000000000000000000000000000000000000002815260040161016060405180830381600087803b1515610bc857600080fd5b6102c65a03f11515610bd957600080fd5b505050604051805190602001805190602001805190602001805190602001805190602001805190602001805190602001805190602001805190602001805190602001805190505050995050505050505050508115610c3a5760009350610ce4565b600154600160a060020a03166309e69ede336000604051604001526040517c010000000000000000000000000000000000000000000000000000000063ffffffff8416028152600160a060020a0390911660048201526024016040805180830381600087803b1515610cab57600080fd5b6102c65a03f11515610cbc57600080fd5b50505060405180519060200180515090915050801515610cdf5760009350610ce4565b600193505b50505090565b81546001901115610d4257815482906000198101908110610d0757fe5b90600052602060002090600202018282815481101515610d2357fe5b6000918252602090912082546002909202019081556001918201549101555b8154610d52836000198301610dd3565b505050565b60206040519081016040526000815290565b60806040519081016040908152600080835260208301819052908201819052606082015290565b604080519081016040526000808252602082015290565b815481835581811511610d5257600402816004028360005260206000209182019101610d529190610dff565b815481835581811511610d5257600202816002028360005260206000209182019101610d529190610e49565b6103eb91905b80821115610e4557600080825560018201805473ffffffffffffffffffffffffffffffffffffffff19169055600282018190556003820155600401610e05565b5090565b6103eb91905b80821115610e455760008082556001820155600201610e4f5600a165627a7a7230582028a4a86745531735eeab0cccb24c366acda21108c77b1c8b99629a16b536235c0029",
            "opcodes": "PUSH1 0x60 PUSH1 0x40 MSTORE CALLVALUE ISZERO PUSH2 0xF JUMPI PUSH1 0x0 DUP1 REVERT JUMPDEST PUSH1 0x40 MLOAD PUSH1 0x40 DUP1 PUSH2 0xEF4 DUP4 CODECOPY DUP2 ADD PUSH1 0x40 MSTORE DUP1 DUP1 MLOAD SWAP2 SWAP1 PUSH1 0x20 ADD DUP1 MLOAD PUSH1 0x0 SWAP4 DUP5 SSTORE PUSH1 0x1 DUP1 SLOAD PUSH1 0x1 PUSH1 0xA0 PUSH1 0x2 EXP SUB NOT AND PUSH1 0x1 PUSH1 0xA0 PUSH1 0x2 EXP SUB SWAP1 SWAP3 AND SWAP2 SWAP1 SWAP2 OR SWAP1 SSTORE POP PUSH2 0xE95 SWAP2 DUP3 SWAP2 POP PUSH2 0x5F SWAP1 CODECOPY PUSH1 0x0 RETURN STOP PUSH1 0x60 PUSH1 0x40 MSTORE PUSH1 0x4 CALLDATASIZE LT PUSH2 0x82 JUMPI PUSH4 0xFFFFFFFF PUSH29 0x100000000000000000000000000000000000000000000000000000000 PUSH1 0x0 CALLDATALOAD DIV AND PUSH4 0xDC96015 DUP2 EQ PUSH2 0x87 JUMPI DUP1 PUSH4 0x159E7064 EQ PUSH2 0x133 JUMPI DUP1 PUSH4 0x48112C6F EQ PUSH2 0x15A JUMPI DUP1 PUSH4 0x83197EF0 EQ PUSH2 0x290 JUMPI DUP1 PUSH4 0xCD47BD12 EQ PUSH2 0x2A5 JUMPI DUP1 PUSH4 0xE5CEF028 EQ PUSH2 0x2BE JUMPI DUP1 PUSH4 0xFF75307E EQ PUSH2 0x2D7 JUMPI JUMPDEST PUSH1 0x0 DUP1 REVERT JUMPDEST CALLVALUE ISZERO PUSH2 0x92 JUMPI PUSH1 0x0 DUP1 REVERT JUMPDEST PUSH2 0x9A PUSH2 0x2EA JUMP JUMPDEST PUSH1 0x40 MLOAD DUP1 DUP1 PUSH1 0x20 ADD DUP1 PUSH1 0x20 ADD DUP4 DUP2 SUB DUP4 MSTORE DUP6 DUP2 DUP2 MLOAD DUP2 MSTORE PUSH1 0x20 ADD SWAP2 POP DUP1 MLOAD SWAP1 PUSH1 0x20 ADD SWAP1 PUSH1 0x20 MUL DUP1 DUP4 DUP4 PUSH1 0x0 JUMPDEST DUP4 DUP2 LT ISZERO PUSH2 0xDE JUMPI DUP1 DUP3 ADD MLOAD DUP4 DUP3 ADD MSTORE PUSH1 0x20 ADD PUSH2 0xC6 JUMP JUMPDEST POP POP POP POP SWAP1 POP ADD DUP4 DUP2 SUB DUP3 MSTORE DUP5 DUP2 DUP2 MLOAD DUP2 MSTORE PUSH1 0x20 ADD SWAP2 POP DUP1 MLOAD SWAP1 PUSH1 0x20 ADD SWAP1 PUSH1 0x20 MUL DUP1 DUP4 DUP4 PUSH1 0x0 JUMPDEST DUP4 DUP2 LT ISZERO PUSH2 0x11D JUMPI DUP1 DUP3 ADD MLOAD DUP4 DUP3 ADD MSTORE PUSH1 0x20 ADD PUSH2 0x105 JUMP JUMPDEST POP POP POP POP SWAP1 POP ADD SWAP5 POP POP POP POP POP PUSH1 0x40 MLOAD DUP1 SWAP2 SUB SWAP1 RETURN JUMPDEST CALLVALUE ISZERO PUSH2 0x13E JUMPI PUSH1 0x0 DUP1 REVERT JUMPDEST PUSH2 0x146 PUSH2 0x3D0 JUMP JUMPDEST PUSH1 0x40 MLOAD SWAP1 ISZERO ISZERO DUP2 MSTORE PUSH1 0x20 ADD PUSH1 0x40 MLOAD DUP1 SWAP2 SUB SWAP1 RETURN JUMPDEST CALLVALUE ISZERO PUSH2 0x165 JUMPI PUSH1 0x0 DUP1 REVERT JUMPDEST PUSH2 0x16D PUSH2 0x3EE JUMP JUMPDEST PUSH1 0x40 MLOAD DUP1 DUP1 PUSH1 0x20 ADD DUP1 PUSH1 0x20 ADD DUP1 PUSH1 0x20 ADD DUP1 PUSH1 0x20 ADD DUP6 DUP2 SUB DUP6 MSTORE DUP10 DUP2 DUP2 MLOAD DUP2 MSTORE PUSH1 0x20 ADD SWAP2 POP DUP1 MLOAD SWAP1 PUSH1 0x20 ADD SWAP1 PUSH1 0x20 MUL DUP1 DUP4 DUP4 PUSH1 0x0 JUMPDEST DUP4 DUP2 LT ISZERO PUSH2 0x1B9 JUMPI DUP1 DUP3 ADD MLOAD DUP4 DUP3 ADD MSTORE PUSH1 0x20 ADD PUSH2 0x1A1 JUMP JUMPDEST POP POP POP POP SWAP1 POP ADD DUP6 DUP2 SUB DUP5 MSTORE DUP9 DUP2 DUP2 MLOAD DUP2 MSTORE PUSH1 0x20 ADD SWAP2 POP DUP1 MLOAD SWAP1 PUSH1 0x20 ADD SWAP1 PUSH1 0x20 MUL DUP1 DUP4 DUP4 PUSH1 0x0 JUMPDEST DUP4 DUP2 LT ISZERO PUSH2 0x1F8 JUMPI DUP1 DUP3 ADD MLOAD DUP4 DUP3 ADD MSTORE PUSH1 0x20 ADD PUSH2 0x1E0 JUMP JUMPDEST POP POP POP POP SWAP1 POP ADD DUP6 DUP2 SUB DUP4 MSTORE DUP8 DUP2 DUP2 MLOAD DUP2 MSTORE PUSH1 0x20 ADD SWAP2 POP DUP1 MLOAD SWAP1 PUSH1 0x20 ADD SWAP1 PUSH1 0x20 MUL DUP1 DUP4 DUP4 PUSH1 0x0 JUMPDEST DUP4 DUP2 LT ISZERO PUSH2 0x237 JUMPI DUP1 DUP3 ADD MLOAD DUP4 DUP3 ADD MSTORE PUSH1 0x20 ADD PUSH2 0x21F JUMP JUMPDEST POP POP POP POP SWAP1 POP ADD DUP6 DUP2 SUB DUP3 MSTORE DUP7 DUP2 DUP2 MLOAD DUP2 MSTORE PUSH1 0x20 ADD SWAP2 POP DUP1 MLOAD SWAP1 PUSH1 0x20 ADD SWAP1 PUSH1 0x20 MUL DUP1 DUP4 DUP4 PUSH1 0x0 JUMPDEST DUP4 DUP2 LT ISZERO PUSH2 0x276 JUMPI DUP1 DUP3 ADD MLOAD DUP4 DUP3 ADD MSTORE PUSH1 0x20 ADD PUSH2 0x25E JUMP JUMPDEST POP POP POP POP SWAP1 POP ADD SWAP9 POP POP POP POP POP POP POP POP POP PUSH1 0x40 MLOAD DUP1 SWAP2 SUB SWAP1 RETURN JUMPDEST CALLVALUE ISZERO PUSH2 0x29B JUMPI PUSH1 0x0 DUP1 REVERT JUMPDEST PUSH2 0x2A3 PUSH2 0x559 JUMP JUMPDEST STOP JUMPDEST CALLVALUE ISZERO PUSH2 0x2B0 JUMPI PUSH1 0x0 DUP1 REVERT JUMPDEST PUSH2 0x2A3 PUSH1 0x4 CALLDATALOAD PUSH1 0x24 CALLDATALOAD PUSH2 0x665 JUMP JUMPDEST CALLVALUE ISZERO PUSH2 0x2C9 JUMPI PUSH1 0x0 DUP1 REVERT JUMPDEST PUSH2 0x2A3 PUSH1 0x4 CALLDATALOAD PUSH1 0x24 CALLDATALOAD PUSH2 0x852 JUMP JUMPDEST CALLVALUE ISZERO PUSH2 0x2E2 JUMPI PUSH1 0x0 DUP1 REVERT JUMPDEST PUSH2 0x146 PUSH2 0xA7E JUMP JUMPDEST PUSH2 0x2F2 PUSH2 0xD57 JUMP JUMPDEST PUSH2 0x2FA PUSH2 0xD57 JUMP JUMPDEST PUSH1 0x1 PUSH1 0xA0 PUSH1 0x2 EXP SUB CALLER AND PUSH1 0x0 SWAP1 DUP2 MSTORE PUSH1 0x3 PUSH1 0x20 MSTORE PUSH1 0x40 DUP1 DUP3 KECCAK256 DUP1 SLOAD SWAP1 SWAP3 SWAP1 SWAP2 DUP2 SWAP1 DUP4 SWAP1 MLOAD DUP1 MSIZE LT PUSH2 0x328 JUMPI POP MSIZE JUMPDEST SWAP1 DUP1 DUP3 MSTORE DUP1 PUSH1 0x20 MUL PUSH1 0x20 ADD DUP3 ADD PUSH1 0x40 MSTORE POP SWAP6 POP DUP3 PUSH1 0x40 MLOAD DUP1 MSIZE LT PUSH2 0x349 JUMPI POP MSIZE JUMPDEST SWAP1 DUP1 DUP3 MSTORE DUP1 PUSH1 0x20 MUL PUSH1 0x20 ADD DUP3 ADD PUSH1 0x40 MSTORE POP SWAP5 POP PUSH1 0x0 SWAP2 POP JUMPDEST DUP3 DUP3 LT ISZERO PUSH2 0x3C8 JUMPI DUP4 DUP3 DUP2 SLOAD DUP2 LT ISZERO ISZERO PUSH2 0x377 JUMPI INVALID JUMPDEST SWAP1 PUSH1 0x0 MSTORE PUSH1 0x20 PUSH1 0x0 KECCAK256 SWAP1 PUSH1 0x2 MUL ADD SWAP1 POP DUP1 PUSH1 0x0 ADD SLOAD DUP7 DUP4 DUP2 MLOAD DUP2 LT PUSH2 0x398 JUMPI INVALID JUMPDEST PUSH1 0x20 SWAP1 DUP2 MUL SWAP1 SWAP2 ADD ADD MSTORE PUSH1 0x1 DUP2 ADD SLOAD DUP6 DUP4 DUP2 MLOAD DUP2 LT PUSH2 0x3B3 JUMPI INVALID JUMPDEST PUSH1 0x20 SWAP1 DUP2 MUL SWAP1 SWAP2 ADD ADD MSTORE PUSH1 0x1 SWAP1 SWAP2 ADD SWAP1 PUSH2 0x361 JUMP JUMPDEST POP POP POP POP SWAP1 SWAP2 JUMP JUMPDEST PUSH1 0x1 PUSH1 0xA0 PUSH1 0x2 EXP SUB CALLER AND PUSH1 0x0 SWAP1 DUP2 MSTORE PUSH1 0x3 PUSH1 0x20 MSTORE PUSH1 0x40 SWAP1 KECCAK256 SLOAD ISZERO JUMPDEST SWAP1 JUMP JUMPDEST PUSH2 0x3F6 PUSH2 0xD57 JUMP JUMPDEST PUSH2 0x3FE PUSH2 0xD57 JUMP JUMPDEST PUSH2 0x406 PUSH2 0xD57 JUMP JUMPDEST PUSH2 0x40E PUSH2 0xD57 JUMP JUMPDEST PUSH1 0x2 SLOAD PUSH1 0x0 DUP1 DUP3 PUSH1 0x40 MLOAD DUP1 MSIZE LT PUSH2 0x422 JUMPI POP MSIZE JUMPDEST SWAP1 DUP1 DUP3 MSTORE DUP1 PUSH1 0x20 MUL PUSH1 0x20 ADD DUP3 ADD PUSH1 0x40 MSTORE POP SWAP7 POP DUP3 PUSH1 0x40 MLOAD DUP1 MSIZE LT PUSH2 0x443 JUMPI POP MSIZE JUMPDEST SWAP1 DUP1 DUP3 MSTORE DUP1 PUSH1 0x20 MUL PUSH1 0x20 ADD DUP3 ADD PUSH1 0x40 MSTORE POP SWAP6 POP DUP3 PUSH1 0x40 MLOAD DUP1 MSIZE LT PUSH2 0x464 JUMPI POP MSIZE JUMPDEST SWAP1 DUP1 DUP3 MSTORE DUP1 PUSH1 0x20 MUL PUSH1 0x20 ADD DUP3 ADD PUSH1 0x40 MSTORE POP SWAP5 POP DUP3 PUSH1 0x40 MLOAD DUP1 MSIZE LT PUSH2 0x485 JUMPI POP MSIZE JUMPDEST SWAP1 DUP1 DUP3 MSTORE DUP1 PUSH1 0x20 MUL PUSH1 0x20 ADD DUP3 ADD PUSH1 0x40 MSTORE POP SWAP4 POP PUSH1 0x0 SWAP2 POP JUMPDEST DUP3 DUP3 LT ISZERO PUSH2 0x550 JUMPI PUSH1 0x2 DUP1 SLOAD DUP4 SWAP1 DUP2 LT PUSH2 0x4B3 JUMPI INVALID JUMPDEST SWAP1 PUSH1 0x0 MSTORE PUSH1 0x20 PUSH1 0x0 KECCAK256 SWAP1 PUSH1 0x4 MUL ADD SWAP1 POP DUP1 PUSH1 0x0 ADD SLOAD DUP8 DUP4 DUP2 MLOAD DUP2 LT PUSH2 0x4D4 JUMPI INVALID JUMPDEST PUSH1 0x20 SWAP1 DUP2 MUL SWAP1 SWAP2 ADD ADD MSTORE PUSH1 0x1 DUP2 ADD SLOAD PUSH1 0x1 PUSH1 0xA0 PUSH1 0x2 EXP SUB AND DUP7 DUP4 DUP2 MLOAD DUP2 LT PUSH2 0x4F8 JUMPI INVALID JUMPDEST PUSH1 0x1 PUSH1 0xA0 PUSH1 0x2 EXP SUB SWAP1 SWAP3 AND PUSH1 0x20 SWAP3 DUP4 MUL SWAP1 SWAP2 ADD SWAP1 SWAP2 ADD MSTORE PUSH1 0x2 DUP2 ADD SLOAD DUP6 DUP4 DUP2 MLOAD DUP2 LT PUSH2 0x520 JUMPI INVALID JUMPDEST PUSH1 0x20 SWAP1 DUP2 MUL SWAP1 SWAP2 ADD ADD MSTORE PUSH1 0x3 DUP2 ADD SLOAD DUP5 DUP4 DUP2 MLOAD DUP2 LT PUSH2 0x53B JUMPI INVALID JUMPDEST PUSH1 0x20 SWAP1 DUP2 MUL SWAP1 SWAP2 ADD ADD MSTORE PUSH1 0x1 SWAP1 SWAP2 ADD SWAP1 PUSH2 0x49D JUMP JUMPDEST POP POP POP SWAP1 SWAP2 SWAP3 SWAP4 JUMP JUMPDEST PUSH1 0x1 SLOAD PUSH1 0x0 SWAP1 DUP2 SWAP1 PUSH1 0x1 PUSH1 0xA0 PUSH1 0x2 EXP SUB AND PUSH4 0xBE4F3B0B DUP3 PUSH1 0x40 MLOAD PUSH2 0x180 ADD MSTORE PUSH1 0x40 MLOAD DUP2 PUSH4 0xFFFFFFFF AND PUSH29 0x100000000000000000000000000000000000000000000000000000000 MUL DUP2 MSTORE PUSH1 0x4 ADD PUSH2 0x180 PUSH1 0x40 MLOAD DUP1 DUP4 SUB DUP2 PUSH1 0x0 DUP8 DUP1 EXTCODESIZE ISZERO ISZERO PUSH2 0x5C0 JUMPI PUSH1 0x0 DUP1 REVERT JUMPDEST PUSH2 0x2C6 GAS SUB CALL ISZERO ISZERO PUSH2 0x5D1 JUMPI PUSH1 0x0 DUP1 REVERT JUMPDEST POP POP POP PUSH1 0x40 MLOAD DUP1 MLOAD SWAP1 PUSH1 0x20 ADD DUP1 MLOAD SWAP1 PUSH1 0x20 ADD DUP1 MLOAD SWAP1 PUSH1 0x20 ADD DUP1 MLOAD SWAP1 PUSH1 0x20 ADD DUP1 MLOAD SWAP1 PUSH1 0x20 ADD DUP1 MLOAD SWAP1 PUSH1 0x20 ADD DUP1 MLOAD SWAP1 PUSH1 0x20 ADD DUP1 MLOAD SWAP1 PUSH1 0x20 ADD DUP1 MLOAD SWAP1 PUSH1 0x20 ADD DUP1 MLOAD SWAP1 PUSH1 0x20 ADD DUP1 MLOAD SWAP1 PUSH1 0x20 ADD DUP1 MLOAD SWAP1 POP POP SWAP11 POP POP POP POP POP POP POP SWAP5 POP POP POP POP CALLER PUSH1 0x1 PUSH1 0xA0 PUSH1 0x2 EXP SUB AND DUP3 PUSH1 0x1 PUSH1 0xA0 PUSH1 0x2 EXP SUB AND EQ ISZERO ISZERO PUSH2 0x64B JUMPI PUSH1 0x0 DUP1 REVERT JUMPDEST TIMESTAMP DUP2 SWAP1 LT ISZERO PUSH2 0x659 JUMPI PUSH1 0x0 DUP1 REVERT JUMPDEST CALLER PUSH1 0x1 PUSH1 0xA0 PUSH1 0x2 EXP SUB AND SELFDESTRUCT JUMPDEST PUSH1 0x0 DUP1 PUSH1 0x0 PUSH2 0x672 PUSH2 0xD69 JUMP JUMPDEST PUSH2 0x67A PUSH2 0xD90 JUMP JUMPDEST DUP7 ISZERO ISZERO PUSH2 0x686 JUMPI PUSH1 0x0 DUP1 REVERT JUMPDEST PUSH1 0x0 SLOAD DUP7 GT ISZERO PUSH2 0x695 JUMPI PUSH1 0x0 DUP1 REVERT JUMPDEST PUSH2 0x69D PUSH2 0xA7E JUMP JUMPDEST ISZERO ISZERO PUSH2 0x6A8 JUMPI PUSH1 0x0 DUP1 REVERT JUMPDEST PUSH2 0x6B0 PUSH2 0x3D0 JUMP JUMPDEST ISZERO ISZERO PUSH2 0x6BB JUMPI PUSH1 0x0 DUP1 REVERT JUMPDEST PUSH1 0x0 SWAP5 POP JUMPDEST PUSH1 0x2 SLOAD DUP6 LT ISZERO PUSH2 0x704 JUMPI PUSH1 0x2 DUP1 SLOAD DUP7 SWAP1 DUP2 LT PUSH2 0x6D8 JUMPI INVALID JUMPDEST PUSH1 0x0 SWAP2 DUP3 MSTORE PUSH1 0x20 SWAP1 SWAP2 KECCAK256 PUSH1 0x4 SWAP1 SWAP2 MUL ADD DUP1 SLOAD SWAP1 SWAP5 POP DUP8 EQ ISZERO PUSH2 0x6F9 JUMPI PUSH1 0x0 DUP1 REVERT JUMPDEST PUSH1 0x1 SWAP1 SWAP5 ADD SWAP4 PUSH2 0x6C0 JUMP JUMPDEST PUSH1 0x2 SLOAD SWAP3 POP PUSH1 0x80 PUSH1 0x40 MLOAD SWAP1 DUP2 ADD PUSH1 0x40 SWAP1 DUP2 MSTORE DUP9 DUP3 MSTORE PUSH1 0x1 PUSH1 0xA0 PUSH1 0x2 EXP SUB CALLER AND PUSH1 0x20 DUP4 ADD MSTORE DUP2 ADD DUP8 SWAP1 MSTORE PUSH1 0x1 PUSH1 0x60 DUP3 ADD DUP2 SWAP1 MSTORE PUSH1 0x2 DUP1 SLOAD SWAP3 SWAP5 POP SWAP2 SWAP1 DUP2 ADD PUSH2 0x74B DUP4 DUP3 PUSH2 0xDA7 JUMP JUMPDEST PUSH1 0x0 SWAP3 DUP4 MSTORE PUSH1 0x20 SWAP1 SWAP3 KECCAK256 DUP5 SWAP2 PUSH1 0x4 MUL ADD DUP2 MLOAD DUP2 SSTORE PUSH1 0x20 DUP3 ADD MLOAD PUSH1 0x1 DUP3 ADD DUP1 SLOAD PUSH20 0xFFFFFFFFFFFFFFFFFFFFFFFFFFFFFFFFFFFFFFFF NOT AND PUSH1 0x1 PUSH1 0xA0 PUSH1 0x2 EXP SUB SWAP3 SWAP1 SWAP3 AND SWAP2 SWAP1 SWAP2 OR SWAP1 SSTORE PUSH1 0x40 DUP3 ADD MLOAD DUP2 PUSH1 0x2 ADD SSTORE PUSH1 0x60 DUP3 ADD MLOAD DUP2 PUSH1 0x3 ADD SSTORE POP POP POP PUSH1 0x40 DUP1 MLOAD SWAP1 DUP2 ADD PUSH1 0x40 SWAP1 DUP2 MSTORE DUP5 DUP3 MSTORE PUSH1 0x20 DUP1 DUP4 ADD DUP10 SWAP1 MSTORE PUSH1 0x1 PUSH1 0xA0 PUSH1 0x2 EXP SUB CALLER AND PUSH1 0x0 SWAP1 DUP2 MSTORE PUSH1 0x3 SWAP1 SWAP2 MSTORE KECCAK256 DUP1 SLOAD SWAP2 SWAP3 POP SWAP1 PUSH1 0x1 DUP2 ADD PUSH2 0x7EA DUP4 DUP3 PUSH2 0xDD3 JUMP JUMPDEST PUSH1 0x0 SWAP3 DUP4 MSTORE PUSH1 0x20 SWAP1 SWAP3 KECCAK256 DUP4 SWAP2 PUSH1 0x2 MUL ADD DUP2 MLOAD DUP2 SSTORE PUSH1 0x20 DUP3 ADD MLOAD DUP2 PUSH1 0x1 ADD SSTORE POP POP POP DUP3 CALLER PUSH1 0x1 PUSH1 0xA0 PUSH1 0x2 EXP SUB AND PUSH32 0xDD7EC9E840598741554076B0A76B9C22B14CF1293853C67918CCF2379548B9A0 DUP9 PUSH1 0x40 MLOAD SWAP1 DUP2 MSTORE PUSH1 0x20 ADD PUSH1 0x40 MLOAD DUP1 SWAP2 SUB SWAP1 LOG3 POP POP POP POP POP POP POP JUMP JUMPDEST PUSH1 0x0 DUP1 PUSH1 0x0 PUSH2 0x85F PUSH2 0xD90 JUMP JUMPDEST PUSH1 0x0 SLOAD DUP6 GT ISZERO PUSH2 0x86E JUMPI PUSH1 0x0 DUP1 REVERT JUMPDEST PUSH2 0x876 PUSH2 0xA7E JUMP JUMPDEST ISZERO ISZERO PUSH2 0x881 JUMPI PUSH1 0x0 DUP1 REVERT JUMPDEST PUSH1 0x1 PUSH1 0xA0 PUSH1 0x2 EXP SUB CALLER AND PUSH1 0x0 SWAP1 DUP2 MSTORE PUSH1 0x3 PUSH1 0x20 MSTORE PUSH1 0x40 SWAP1 KECCAK256 PUSH1 0x2 DUP1 SLOAD SWAP2 SWAP6 POP SWAP1 DUP8 SWAP1 DUP2 LT PUSH2 0x8AB JUMPI INVALID JUMPDEST SWAP1 PUSH1 0x0 MSTORE PUSH1 0x20 PUSH1 0x0 KECCAK256 SWAP1 PUSH1 0x4 MUL ADD SWAP3 POP PUSH1 0x0 SWAP2 POP JUMPDEST DUP4 SLOAD DUP3 LT ISZERO PUSH2 0x900 JUMPI DUP6 DUP5 DUP4 DUP2 SLOAD DUP2 LT ISZERO ISZERO PUSH2 0x8D8 JUMPI INVALID JUMPDEST SWAP1 PUSH1 0x0 MSTORE PUSH1 0x20 PUSH1 0x0 KECCAK256 SWAP1 PUSH1 0x2 MUL ADD PUSH1 0x0 ADD SLOAD EQ ISZERO PUSH2 0x8F5 JUMPI PUSH2 0x900 JUMP JUMPDEST PUSH1 0x1 SWAP1 SWAP2 ADD SWAP1 PUSH2 0x8C0 JUMP JUMPDEST DUP4 SLOAD DUP3 EQ PUSH2 0x942 JUMPI DUP4 DUP3 DUP2 SLOAD DUP2 LT ISZERO ISZERO PUSH2 0x916 JUMPI INVALID JUMPDEST PUSH1 0x0 SWAP2 DUP3 MSTORE PUSH1 0x20 SWAP1 SWAP2 KECCAK256 PUSH1 0x2 SWAP2 DUP3 MUL ADD PUSH1 0x1 ADD SLOAD SWAP1 DUP5 ADD DUP1 SLOAD SWAP2 SWAP1 SWAP2 SUB SWAP1 SSTORE PUSH1 0x3 DUP4 ADD DUP1 SLOAD PUSH1 0x0 NOT ADD SWAP1 SSTORE JUMPDEST DUP5 ISZERO ISZERO PUSH2 0x99B JUMPI PUSH1 0x1 DUP4 ADD SLOAD CALLER PUSH1 0x1 PUSH1 0xA0 PUSH1 0x2 EXP SUB SWAP1 DUP2 AND SWAP2 AND EQ ISZERO PUSH2 0x98C JUMPI PUSH1 0x0 DUP5 DUP4 DUP2 SLOAD DUP2 LT ISZERO ISZERO PUSH2 0x972 JUMPI INVALID JUMPDEST SWAP1 PUSH1 0x0 MSTORE PUSH1 0x20 PUSH1 0x0 KECCAK256 SWAP1 PUSH1 0x2 MUL ADD PUSH1 0x1 ADD DUP2 SWAP1 SSTORE POP PUSH2 0x996 JUMP JUMPDEST PUSH2 0x996 DUP5 DUP4 PUSH2 0xCEA JUMP JUMPDEST PUSH2 0xA38 JUMP JUMPDEST DUP4 SLOAD ISZERO PUSH2 0x9A7 JUMPI PUSH1 0x0 DUP1 REVERT JUMPDEST PUSH1 0x2 DUP4 ADD DUP1 SLOAD DUP7 ADD SWAP1 SSTORE PUSH1 0x3 DUP4 ADD DUP1 SLOAD PUSH1 0x1 ADD SWAP1 SSTORE DUP4 SLOAD DUP3 EQ PUSH2 0x9ED JUMPI DUP5 DUP5 DUP4 DUP2 SLOAD DUP2 LT ISZERO ISZERO PUSH2 0x9D3 JUMPI INVALID JUMPDEST SWAP1 PUSH1 0x0 MSTORE PUSH1 0x20 PUSH1 0x0 KECCAK256 SWAP1 PUSH1 0x2 MUL ADD PUSH1 0x1 ADD DUP2 SWAP1 SSTORE POP PUSH2 0xA38 JUMP JUMPDEST PUSH1 0x40 DUP1 MLOAD SWAP1 DUP2 ADD PUSH1 0x40 MSTORE DUP7 DUP2 MSTORE PUSH1 0x20 DUP2 ADD DUP7 SWAP1 MSTORE DUP5 SLOAD SWAP1 SWAP2 POP DUP5 SWAP1 PUSH1 0x1 DUP2 ADD PUSH2 0xA16 DUP4 DUP3 PUSH2 0xDD3 JUMP JUMPDEST PUSH1 0x0 SWAP3 DUP4 MSTORE PUSH1 0x20 SWAP1 SWAP3 KECCAK256 DUP4 SWAP2 PUSH1 0x2 MUL ADD DUP2 MLOAD DUP2 SSTORE PUSH1 0x20 DUP3 ADD MLOAD DUP2 PUSH1 0x1 ADD SSTORE POP POP POP JUMPDEST DUP6 CALLER PUSH1 0x1 PUSH1 0xA0 PUSH1 0x2 EXP SUB AND PUSH32 0xDD7EC9E840598741554076B0A76B9C22B14CF1293853C67918CCF2379548B9A0 DUP8 PUSH1 0x40 MLOAD SWAP1 DUP2 MSTORE PUSH1 0x20 ADD PUSH1 0x40 MLOAD DUP1 SWAP2 SUB SWAP1 LOG3 POP POP POP POP POP POP JUMP JUMPDEST PUSH1 0x1 SLOAD PUSH1 0x0 SWAP1 DUP2 SWAP1 DUP2 SWAP1 DUP2 SWAP1 PUSH1 0x1 PUSH1 0xA0 PUSH1 0x2 EXP SUB AND PUSH4 0xBE4F3B0B DUP3 PUSH1 0x40 MLOAD PUSH2 0x180 ADD MSTORE PUSH1 0x40 MLOAD DUP2 PUSH4 0xFFFFFFFF AND PUSH29 0x100000000000000000000000000000000000000000000000000000000 MUL DUP2 MSTORE PUSH1 0x4 ADD PUSH2 0x180 PUSH1 0x40 MLOAD DUP1 DUP4 SUB DUP2 PUSH1 0x0 DUP8 DUP1 EXTCODESIZE ISZERO ISZERO PUSH2 0xAE9 JUMPI PUSH1 0x0 DUP1 REVERT JUMPDEST PUSH2 0x2C6 GAS SUB CALL ISZERO ISZERO PUSH2 0xAFA JUMPI PUSH1 0x0 DUP1 REVERT JUMPDEST POP POP POP PUSH1 0x40 MLOAD DUP1 MLOAD SWAP1 PUSH1 0x20 ADD DUP1 MLOAD SWAP1 PUSH1 0x20 ADD DUP1 MLOAD SWAP1 PUSH1 0x20 ADD DUP1 MLOAD SWAP1 PUSH1 0x20 ADD DUP1 MLOAD SWAP1 PUSH1 0x20 ADD DUP1 MLOAD SWAP1 PUSH1 0x20 ADD DUP1 MLOAD SWAP1 PUSH1 0x20 ADD DUP1 MLOAD SWAP1 PUSH1 0x20 ADD DUP1 MLOAD SWAP1 PUSH1 0x20 ADD DUP1 MLOAD SWAP1 PUSH1 0x20 ADD DUP1 MLOAD SWAP1 PUSH1 0x20 ADD DUP1 MLOAD SWAP1 POP POP POP POP SWAP11 POP POP POP POP POP POP POP POP POP DUP3 TIMESTAMP LT ISZERO ISZERO PUSH2 0xB65 JUMPI PUSH1 0x0 SWAP4 POP PUSH2 0xCE4 JUMP JUMPDEST PUSH1 0x1 SLOAD PUSH1 0x1 PUSH1 0xA0 PUSH1 0x2 EXP SUB AND PUSH4 0xC19D93FB PUSH1 0x0 PUSH1 0x40 MLOAD PUSH2 0x160 ADD MSTORE PUSH1 0x40 MLOAD DUP2 PUSH4 0xFFFFFFFF AND PUSH29 0x100000000000000000000000000000000000000000000000000000000 MUL DUP2 MSTORE PUSH1 0x4 ADD PUSH2 0x160 PUSH1 0x40 MLOAD DUP1 DUP4 SUB DUP2 PUSH1 0x0 DUP8 DUP1 EXTCODESIZE ISZERO ISZERO PUSH2 0xBC8 JUMPI PUSH1 0x0 DUP1 REVERT JUMPDEST PUSH2 0x2C6 GAS SUB CALL ISZERO ISZERO PUSH2 0xBD9 JUMPI PUSH1 0x0 DUP1 REVERT JUMPDEST POP POP POP PUSH1 0x40 MLOAD DUP1 MLOAD SWAP1 PUSH1 0x20 ADD DUP1 MLOAD SWAP1 PUSH1 0x20 ADD DUP1 MLOAD SWAP1 PUSH1 0x20 ADD DUP1 MLOAD SWAP1 PUSH1 0x20 ADD DUP1 MLOAD SWAP1 PUSH1 0x20 ADD DUP1 MLOAD SWAP1 PUSH1 0x20 ADD DUP1 MLOAD SWAP1 PUSH1 0x20 ADD DUP1 MLOAD SWAP1 PUSH1 0x20 ADD DUP1 MLOAD SWAP1 PUSH1 0x20 ADD DUP1 MLOAD SWAP1 PUSH1 0x20 ADD DUP1 MLOAD SWAP1 POP POP POP SWAP10 POP POP POP POP POP POP POP POP POP DUP2 ISZERO PUSH2 0xC3A JUMPI PUSH1 0x0 SWAP4 POP PUSH2 0xCE4 JUMP JUMPDEST PUSH1 0x1 SLOAD PUSH1 0x1 PUSH1 0xA0 PUSH1 0x2 EXP SUB AND PUSH4 0x9E69EDE CALLER PUSH1 0x0 PUSH1 0x40 MLOAD PUSH1 0x40 ADD MSTORE PUSH1 0x40 MLOAD PUSH29 0x100000000000000000000000000000000000000000000000000000000 PUSH4 0xFFFFFFFF DUP5 AND MUL DUP2 MSTORE PUSH1 0x1 PUSH1 0xA0 PUSH1 0x2 EXP SUB SWAP1 SWAP2 AND PUSH1 0x4 DUP3 ADD MSTORE PUSH1 0x24 ADD PUSH1 0x40 DUP1 MLOAD DUP1 DUP4 SUB DUP2 PUSH1 0x0 DUP8 DUP1 EXTCODESIZE ISZERO ISZERO PUSH2 0xCAB JUMPI PUSH1 0x0 DUP1 REVERT JUMPDEST PUSH2 0x2C6 GAS SUB CALL ISZERO ISZERO PUSH2 0xCBC JUMPI PUSH1 0x0 DUP1 REVERT JUMPDEST POP POP POP PUSH1 0x40 MLOAD DUP1 MLOAD SWAP1 PUSH1 0x20 ADD DUP1 MLOAD POP SWAP1 SWAP2 POP POP DUP1 ISZERO ISZERO PUSH2 0xCDF JUMPI PUSH1 0x0 SWAP4 POP PUSH2 0xCE4 JUMP JUMPDEST PUSH1 0x1 SWAP4 POP JUMPDEST POP POP POP SWAP1 JUMP JUMPDEST DUP2 SLOAD PUSH1 0x1 SWAP1 GT ISZERO PUSH2 0xD42 JUMPI DUP2 SLOAD DUP3 SWAP1 PUSH1 0x0 NOT DUP2 ADD SWAP1 DUP2 LT PUSH2 0xD07 JUMPI INVALID JUMPDEST SWAP1 PUSH1 0x0 MSTORE PUSH1 0x20 PUSH1 0x0 KECCAK256 SWAP1 PUSH1 0x2 MUL ADD DUP3 DUP3 DUP2 SLOAD DUP2 LT ISZERO ISZERO PUSH2 0xD23 JUMPI INVALID JUMPDEST PUSH1 0x0 SWAP2 DUP3 MSTORE PUSH1 0x20 SWAP1 SWAP2 KECCAK256 DUP3 SLOAD PUSH1 0x2 SWAP1 SWAP3 MUL ADD SWAP1 DUP2 SSTORE PUSH1 0x1 SWAP2 DUP3 ADD SLOAD SWAP2 ADD SSTORE JUMPDEST DUP2 SLOAD PUSH2 0xD52 DUP4 PUSH1 0x0 NOT DUP4 ADD PUSH2 0xDD3 JUMP JUMPDEST POP POP POP JUMP JUMPDEST PUSH1 0x20 PUSH1 0x40 MLOAD SWAP1 DUP2 ADD PUSH1 0x40 MSTORE PUSH1 0x0 DUP2 MSTORE SWAP1 JUMP JUMPDEST PUSH1 0x80 PUSH1 0x40 MLOAD SWAP1 DUP2 ADD PUSH1 0x40 SWAP1 DUP2 MSTORE PUSH1 0x0 DUP1 DUP4 MSTORE PUSH1 0x20 DUP4 ADD DUP2 SWAP1 MSTORE SWAP1 DUP3 ADD DUP2 SWAP1 MSTORE PUSH1 0x60 DUP3 ADD MSTORE SWAP1 JUMP JUMPDEST PUSH1 0x40 DUP1 MLOAD SWAP1 DUP2 ADD PUSH1 0x40 MSTORE PUSH1 0x0 DUP1 DUP3 MSTORE PUSH1 0x20 DUP3 ADD MSTORE SWAP1 JUMP JUMPDEST DUP2 SLOAD DUP2 DUP4 SSTORE DUP2 DUP2 ISZERO GT PUSH2 0xD52 JUMPI PUSH1 0x4 MUL DUP2 PUSH1 0x4 MUL DUP4 PUSH1 0x0 MSTORE PUSH1 0x20 PUSH1 0x0 KECCAK256 SWAP2 DUP3 ADD SWAP2 ADD PUSH2 0xD52 SWAP2 SWAP1 PUSH2 0xDFF JUMP JUMPDEST DUP2 SLOAD DUP2 DUP4 SSTORE DUP2 DUP2 ISZERO GT PUSH2 0xD52 JUMPI PUSH1 0x2 MUL DUP2 PUSH1 0x2 MUL DUP4 PUSH1 0x0 MSTORE PUSH1 0x20 PUSH1 0x0 KECCAK256 SWAP2 DUP3 ADD SWAP2 ADD PUSH2 0xD52 SWAP2 SWAP1 PUSH2 0xE49 JUMP JUMPDEST PUSH2 0x3EB SWAP2 SWAP1 JUMPDEST DUP1 DUP3 GT ISZERO PUSH2 0xE45 JUMPI PUSH1 0x0 DUP1 DUP3 SSTORE PUSH1 0x1 DUP3 ADD DUP1 SLOAD PUSH20 0xFFFFFFFFFFFFFFFFFFFFFFFFFFFFFFFFFFFFFFFF NOT AND SWAP1 SSTORE PUSH1 0x2 DUP3 ADD DUP2 SWAP1 SSTORE PUSH1 0x3 DUP3 ADD SSTORE PUSH1 0x4 ADD PUSH2 0xE05 JUMP JUMPDEST POP SWAP1 JUMP JUMPDEST PUSH2 0x3EB SWAP2 SWAP1 JUMPDEST DUP1 DUP3 GT ISZERO PUSH2 0xE45 JUMPI PUSH1 0x0 DUP1 DUP3 SSTORE PUSH1 0x1 DUP3 ADD SSTORE PUSH1 0x2 ADD PUSH2 0xE4F JUMP STOP LOG1 PUSH6 0x627A7A723058 KECCAK256 0x28 LOG4 0xa8 PUSH8 0x45531735EEAB0CCC 0xb2 0x4c CALLDATASIZE PUSH11 0xCDA21108C77B1C8B99629A AND 0xb5 CALLDATASIZE 0x23 0x5c STOP 0x29 "
        }
    },
    "methods": {
        "getVotes": [],
        "canVote": [],
        "getCharities": [],
        "destroy": [],
        "voteSuggest": [
            "_charityName",
            "_score"
        ],
        "voteCharity": [
            "_charityIndex",
            "_score"
        ],
        "hasRight": []
    }
}