{
    "abi": [
        {
            "constant": false,
            "inputs": [
                {
                    "name": "_causeName",
                    "type": "bytes32"
                }
            ],
            "name": "voteName",
            "outputs": [],
            "payable": false,
            "stateMutability": "nonpayable",
            "type": "function"
        },
        {
            "constant": true,
            "inputs": [],
            "name": "maxVotes",
            "outputs": [
                {
                    "name": "",
                    "type": "uint256"
                }
            ],
            "payable": false,
            "stateMutability": "view",
            "type": "function"
        },
        {
            "constant": false,
            "inputs": [],
            "name": "destroy",
            "outputs": [],
            "payable": false,
            "stateMutability": "nonpayable",
            "type": "function"
        },
        {
            "constant": true,
            "inputs": [
                {
                    "name": "",
                    "type": "address"
                },
                {
                    "name": "",
                    "type": "uint256"
                }
            ],
            "name": "votes",
            "outputs": [
                {
                    "name": "",
                    "type": "uint256"
                }
            ],
            "payable": false,
            "stateMutability": "view",
            "type": "function"
        },
        {
            "constant": false,
            "inputs": [
                {
                    "name": "_causeIndex",
                    "type": "uint256"
                }
            ],
            "name": "voteIndex",
            "outputs": [],
            "payable": false,
            "stateMutability": "nonpayable",
            "type": "function"
        },
        {
            "constant": true,
            "inputs": [],
            "name": "causes",
            "outputs": [
                {
                    "name": "_names",
                    "type": "bytes32[]"
                },
                {
                    "name": "_casters",
                    "type": "address[]"
                },
                {
                    "name": "_votes",
                    "type": "uint256[]"
                }
            ],
            "payable": false,
            "stateMutability": "view",
            "type": "function"
        },
        {
            "inputs": [
                {
                    "name": "_fundraiser",
                    "type": "address"
                }
            ],
            "payable": false,
            "stateMutability": "nonpayable",
            "type": "constructor"
        },
        {
            "anonymous": false,
            "inputs": [
                {
                    "indexed": true,
                    "name": "_caster",
                    "type": "address"
                },
                {
                    "indexed": true,
                    "name": "_causeIndex",
                    "type": "uint256"
                },
                {
                    "indexed": false,
                    "name": "_causeName",
                    "type": "bytes32"
                }
            ],
            "name": "CastName",
            "type": "event"
        },
        {
            "anonymous": false,
            "inputs": [
                {
                    "indexed": true,
                    "name": "_caster",
                    "type": "address"
                },
                {
                    "indexed": true,
                    "name": "_causeIndex",
                    "type": "uint256"
                },
                {
                    "indexed": false,
                    "name": "_causeVotes",
                    "type": "uint256"
                }
            ],
            "name": "CastIndex",
            "type": "event"
        }
    ],
    "evm": {
        "bytecode": {
            "linkReferences": {},
            "object": "6060604052341561000f57600080fd5b604051602080610ad08339810160405280805160008054600160a060020a03909216600160a060020a03199092169190911790555050610a7c806100546000396000f3006060604052600436106100775763ffffffff7c010000000000000000000000000000000000000000000000000000000060003504166335885d94811461007c578063777c3acf1461009457806383197ef0146100b95780639f2524ee146100cc578063b435bbf6146100ee578063c722cecc14610104575b600080fd5b341561008757600080fd5b6100926004356101f5565b005b341561009f57600080fd5b6100a7610394565b60405190815260200160405180910390f35b34156100c457600080fd5b61009261060f565b34156100d757600080fd5b6100a7600160a060020a0360043516602435610727565b34156100f957600080fd5b610092600435610755565b341561010f57600080fd5b61011761083b565b60405180806020018060200180602001848103845287818151815260200191508051906020019060200280838360005b8381101561015f578082015183820152602001610147565b50505050905001848103835286818151815260200191508051906020019060200280838360005b8381101561019e578082015183820152602001610186565b50505050905001848103825285818151815260200191508051906020019060200280838360005b838110156101dd5780820151838201526020016101c5565b50505050905001965050505050505060405180910390f35b6000806000610202610969565b84151561020e57600080fd5b610216610394565b600160a060020a033316600090815260026020526040902054141561023a57600080fd5b600093505b60015484101561028357600180548590811061025757fe5b60009182526020909120600390910201805490935085141561027857600080fd5b60019093019261023f565b60018054600160a060020a033316600090815260026020526040902080549194509181016102b18382610989565b50600091825260209091200182905560606040519081016040908152868252600160a060020a033316602083015260019082018190528054919250908082016102fa83826109b2565b6000928352602090922083916003020181518155602082015160018201805473ffffffffffffffffffffffffffffffffffffffff1916600160a060020a0392909216919091179055604082015181600201555050508133600160a060020a03167f458c33a00bae984c4f30fd737b43bc4172fd04c49f7908cc1e2217cabb0b6ba88760405190815260200160405180910390a35050505050565b60008054819081908190600160a060020a0316632dde9aca826040516101c001526040518163ffffffff167c01000000000000000000000000000000000000000000000000000000000281526004016101c060405180830381600087803b15156103fd57600080fd5b6102c65a03f1151561040e57600080fd5b505050604051805190602001805190602001805190602001805190602001805190602001805190602001805190602001805190602001805190602001805190602001805190602001805190602001805190602001805190505050509c505050505050505050505082421015156104875760009350610609565b60008054600160a060020a03169063c19d93fb9060405161016001526040518163ffffffff167c010000000000000000000000000000000000000000000000000000000002815260040161016060405180830381600087803b15156104eb57600080fd5b6102c65a03f115156104fc57600080fd5b50505060405180519060200180519060200180519060200180519060200180519060200180519060200180519060200180519060200180519060200180519060200180519050505099505050505050505050811561055d5760009350610609565b60008054600160a060020a0316906309e69ede903390604051604001526040517c010000000000000000000000000000000000000000000000000000000063ffffffff8416028152600160a060020a0390911660048201526024016040805180830381600087803b15156105d057600080fd5b6102c65a03f115156105e157600080fd5b505050604051805190602001805150909150508015156106045760009350610609565b600193505b50505090565b600080548190600160a060020a0316632dde9aca826040516101c001526040518163ffffffff167c01000000000000000000000000000000000000000000000000000000000281526004016101c060405180830381600087803b151561067457600080fd5b6102c65a03f1151561068557600080fd5b50505060405180519060200180519060200180519060200180519060200180519060200180519060200180519060200180519060200180519060200180519060200180519060200180519060200180519060200180519050509c505050505050505095505050505033600160a060020a031682600160a060020a031614151561070d57600080fd5b428190101561071b57600080fd5b33600160a060020a0316ff5b60026020528160005260406000208181548110151561074257fe5b6000918252602090912001549150829050565b600154600090821061076657600080fd5b61076e610394565b600160a060020a033316600090815260026020526040902054141561079257600080fd5b600160a060020a03331660009081526002602052604090208054600181016107ba8382610989565b50600091825260209091200182905560018054839081106107d757fe5b6000918252602090912060039091020160028101805460010190819055909150829033600160a060020a0316907f5ebe585db19d8dc48277d77736f32f990438c57e3787b79d4df7b68fdca987569060405190815260200160405180910390a35050565b6108436109de565b61084b6109de565b6108536109de565b60015460009081906040518059106108685750595b908082528060200260200182016040525060015490955060405180591061088c5750595b90808252806020026020018201604052506001549094506040518059106108b05750595b90808252806020026020018201604052509250600091505b6001548210156109625760018054839081106108e057fe5b90600052602060002090600302019050806000015485838151811061090157fe5b602090810290910101526001810154600160a060020a031684838151811061092557fe5b600160a060020a03909216602092830290910190910152600281015483838151811061094d57fe5b602090810290910101526001909101906108c8565b5050909192565b606060405190810160409081526000808352602083018190529082015290565b8154818355818115116109ad576000838152602090206109ad9181019083016109f0565b505050565b8154818355818115116109ad576003028160030283600052602060002091820191016109ad9190610a11565b60206040519081016040526000815290565b610a0e91905b80821115610a0a57600081556001016109f6565b5090565b90565b610a0e91905b80821115610a0a57600080825560018201805473ffffffffffffffffffffffffffffffffffffffff191690556002820155600301610a175600a165627a7a72305820b44300a92f2ac0318099fd4d70d4956eeef3805ebf95f6e3c4a14cd89934f21b0029",
            "opcodes": "PUSH1 0x60 PUSH1 0x40 MSTORE CALLVALUE ISZERO PUSH2 0xF JUMPI PUSH1 0x0 DUP1 REVERT JUMPDEST PUSH1 0x40 MLOAD PUSH1 0x20 DUP1 PUSH2 0xAD0 DUP4 CODECOPY DUP2 ADD PUSH1 0x40 MSTORE DUP1 DUP1 MLOAD PUSH1 0x0 DUP1 SLOAD PUSH1 0x1 PUSH1 0xA0 PUSH1 0x2 EXP SUB SWAP1 SWAP3 AND PUSH1 0x1 PUSH1 0xA0 PUSH1 0x2 EXP SUB NOT SWAP1 SWAP3 AND SWAP2 SWAP1 SWAP2 OR SWAP1 SSTORE POP POP PUSH2 0xA7C DUP1 PUSH2 0x54 PUSH1 0x0 CODECOPY PUSH1 0x0 RETURN STOP PUSH1 0x60 PUSH1 0x40 MSTORE PUSH1 0x4 CALLDATASIZE LT PUSH2 0x77 JUMPI PUSH4 0xFFFFFFFF PUSH29 0x100000000000000000000000000000000000000000000000000000000 PUSH1 0x0 CALLDATALOAD DIV AND PUSH4 0x35885D94 DUP2 EQ PUSH2 0x7C JUMPI DUP1 PUSH4 0x777C3ACF EQ PUSH2 0x94 JUMPI DUP1 PUSH4 0x83197EF0 EQ PUSH2 0xB9 JUMPI DUP1 PUSH4 0x9F2524EE EQ PUSH2 0xCC JUMPI DUP1 PUSH4 0xB435BBF6 EQ PUSH2 0xEE JUMPI DUP1 PUSH4 0xC722CECC EQ PUSH2 0x104 JUMPI JUMPDEST PUSH1 0x0 DUP1 REVERT JUMPDEST CALLVALUE ISZERO PUSH2 0x87 JUMPI PUSH1 0x0 DUP1 REVERT JUMPDEST PUSH2 0x92 PUSH1 0x4 CALLDATALOAD PUSH2 0x1F5 JUMP JUMPDEST STOP JUMPDEST CALLVALUE ISZERO PUSH2 0x9F JUMPI PUSH1 0x0 DUP1 REVERT JUMPDEST PUSH2 0xA7 PUSH2 0x394 JUMP JUMPDEST PUSH1 0x40 MLOAD SWAP1 DUP2 MSTORE PUSH1 0x20 ADD PUSH1 0x40 MLOAD DUP1 SWAP2 SUB SWAP1 RETURN JUMPDEST CALLVALUE ISZERO PUSH2 0xC4 JUMPI PUSH1 0x0 DUP1 REVERT JUMPDEST PUSH2 0x92 PUSH2 0x60F JUMP JUMPDEST CALLVALUE ISZERO PUSH2 0xD7 JUMPI PUSH1 0x0 DUP1 REVERT JUMPDEST PUSH2 0xA7 PUSH1 0x1 PUSH1 0xA0 PUSH1 0x2 EXP SUB PUSH1 0x4 CALLDATALOAD AND PUSH1 0x24 CALLDATALOAD PUSH2 0x727 JUMP JUMPDEST CALLVALUE ISZERO PUSH2 0xF9 JUMPI PUSH1 0x0 DUP1 REVERT JUMPDEST PUSH2 0x92 PUSH1 0x4 CALLDATALOAD PUSH2 0x755 JUMP JUMPDEST CALLVALUE ISZERO PUSH2 0x10F JUMPI PUSH1 0x0 DUP1 REVERT JUMPDEST PUSH2 0x117 PUSH2 0x83B JUMP JUMPDEST PUSH1 0x40 MLOAD DUP1 DUP1 PUSH1 0x20 ADD DUP1 PUSH1 0x20 ADD DUP1 PUSH1 0x20 ADD DUP5 DUP2 SUB DUP5 MSTORE DUP8 DUP2 DUP2 MLOAD DUP2 MSTORE PUSH1 0x20 ADD SWAP2 POP DUP1 MLOAD SWAP1 PUSH1 0x20 ADD SWAP1 PUSH1 0x20 MUL DUP1 DUP4 DUP4 PUSH1 0x0 JUMPDEST DUP4 DUP2 LT ISZERO PUSH2 0x15F JUMPI DUP1 DUP3 ADD MLOAD DUP4 DUP3 ADD MSTORE PUSH1 0x20 ADD PUSH2 0x147 JUMP JUMPDEST POP POP POP POP SWAP1 POP ADD DUP5 DUP2 SUB DUP4 MSTORE DUP7 DUP2 DUP2 MLOAD DUP2 MSTORE PUSH1 0x20 ADD SWAP2 POP DUP1 MLOAD SWAP1 PUSH1 0x20 ADD SWAP1 PUSH1 0x20 MUL DUP1 DUP4 DUP4 PUSH1 0x0 JUMPDEST DUP4 DUP2 LT ISZERO PUSH2 0x19E JUMPI DUP1 DUP3 ADD MLOAD DUP4 DUP3 ADD MSTORE PUSH1 0x20 ADD PUSH2 0x186 JUMP JUMPDEST POP POP POP POP SWAP1 POP ADD DUP5 DUP2 SUB DUP3 MSTORE DUP6 DUP2 DUP2 MLOAD DUP2 MSTORE PUSH1 0x20 ADD SWAP2 POP DUP1 MLOAD SWAP1 PUSH1 0x20 ADD SWAP1 PUSH1 0x20 MUL DUP1 DUP4 DUP4 PUSH1 0x0 JUMPDEST DUP4 DUP2 LT ISZERO PUSH2 0x1DD JUMPI DUP1 DUP3 ADD MLOAD DUP4 DUP3 ADD MSTORE PUSH1 0x20 ADD PUSH2 0x1C5 JUMP JUMPDEST POP POP POP POP SWAP1 POP ADD SWAP7 POP POP POP POP POP POP POP PUSH1 0x40 MLOAD DUP1 SWAP2 SUB SWAP1 RETURN JUMPDEST PUSH1 0x0 DUP1 PUSH1 0x0 PUSH2 0x202 PUSH2 0x969 JUMP JUMPDEST DUP5 ISZERO ISZERO PUSH2 0x20E JUMPI PUSH1 0x0 DUP1 REVERT JUMPDEST PUSH2 0x216 PUSH2 0x394 JUMP JUMPDEST PUSH1 0x1 PUSH1 0xA0 PUSH1 0x2 EXP SUB CALLER AND PUSH1 0x0 SWAP1 DUP2 MSTORE PUSH1 0x2 PUSH1 0x20 MSTORE PUSH1 0x40 SWAP1 KECCAK256 SLOAD EQ ISZERO PUSH2 0x23A JUMPI PUSH1 0x0 DUP1 REVERT JUMPDEST PUSH1 0x0 SWAP4 POP JUMPDEST PUSH1 0x1 SLOAD DUP5 LT ISZERO PUSH2 0x283 JUMPI PUSH1 0x1 DUP1 SLOAD DUP6 SWAP1 DUP2 LT PUSH2 0x257 JUMPI INVALID JUMPDEST PUSH1 0x0 SWAP2 DUP3 MSTORE PUSH1 0x20 SWAP1 SWAP2 KECCAK256 PUSH1 0x3 SWAP1 SWAP2 MUL ADD DUP1 SLOAD SWAP1 SWAP4 POP DUP6 EQ ISZERO PUSH2 0x278 JUMPI PUSH1 0x0 DUP1 REVERT JUMPDEST PUSH1 0x1 SWAP1 SWAP4 ADD SWAP3 PUSH2 0x23F JUMP JUMPDEST PUSH1 0x1 DUP1 SLOAD PUSH1 0x1 PUSH1 0xA0 PUSH1 0x2 EXP SUB CALLER AND PUSH1 0x0 SWAP1 DUP2 MSTORE PUSH1 0x2 PUSH1 0x20 MSTORE PUSH1 0x40 SWAP1 KECCAK256 DUP1 SLOAD SWAP2 SWAP5 POP SWAP2 DUP2 ADD PUSH2 0x2B1 DUP4 DUP3 PUSH2 0x989 JUMP JUMPDEST POP PUSH1 0x0 SWAP2 DUP3 MSTORE PUSH1 0x20 SWAP1 SWAP2 KECCAK256 ADD DUP3 SWAP1 SSTORE PUSH1 0x60 PUSH1 0x40 MLOAD SWAP1 DUP2 ADD PUSH1 0x40 SWAP1 DUP2 MSTORE DUP7 DUP3 MSTORE PUSH1 0x1 PUSH1 0xA0 PUSH1 0x2 EXP SUB CALLER AND PUSH1 0x20 DUP4 ADD MSTORE PUSH1 0x1 SWAP1 DUP3 ADD DUP2 SWAP1 MSTORE DUP1 SLOAD SWAP2 SWAP3 POP SWAP1 DUP1 DUP3 ADD PUSH2 0x2FA DUP4 DUP3 PUSH2 0x9B2 JUMP JUMPDEST PUSH1 0x0 SWAP3 DUP4 MSTORE PUSH1 0x20 SWAP1 SWAP3 KECCAK256 DUP4 SWAP2 PUSH1 0x3 MUL ADD DUP2 MLOAD DUP2 SSTORE PUSH1 0x20 DUP3 ADD MLOAD PUSH1 0x1 DUP3 ADD DUP1 SLOAD PUSH20 0xFFFFFFFFFFFFFFFFFFFFFFFFFFFFFFFFFFFFFFFF NOT AND PUSH1 0x1 PUSH1 0xA0 PUSH1 0x2 EXP SUB SWAP3 SWAP1 SWAP3 AND SWAP2 SWAP1 SWAP2 OR SWAP1 SSTORE PUSH1 0x40 DUP3 ADD MLOAD DUP2 PUSH1 0x2 ADD SSTORE POP POP POP DUP2 CALLER PUSH1 0x1 PUSH1 0xA0 PUSH1 0x2 EXP SUB AND PUSH32 0x458C33A00BAE984C4F30FD737B43BC4172FD04C49F7908CC1E2217CABB0B6BA8 DUP8 PUSH1 0x40 MLOAD SWAP1 DUP2 MSTORE PUSH1 0x20 ADD PUSH1 0x40 MLOAD DUP1 SWAP2 SUB SWAP1 LOG3 POP POP POP POP POP JUMP JUMPDEST PUSH1 0x0 DUP1 SLOAD DUP2 SWAP1 DUP2 SWAP1 DUP2 SWAP1 PUSH1 0x1 PUSH1 0xA0 PUSH1 0x2 EXP SUB AND PUSH4 0x2DDE9ACA DUP3 PUSH1 0x40 MLOAD PUSH2 0x1C0 ADD MSTORE PUSH1 0x40 MLOAD DUP2 PUSH4 0xFFFFFFFF AND PUSH29 0x100000000000000000000000000000000000000000000000000000000 MUL DUP2 MSTORE PUSH1 0x4 ADD PUSH2 0x1C0 PUSH1 0x40 MLOAD DUP1 DUP4 SUB DUP2 PUSH1 0x0 DUP8 DUP1 EXTCODESIZE ISZERO ISZERO PUSH2 0x3FD JUMPI PUSH1 0x0 DUP1 REVERT JUMPDEST PUSH2 0x2C6 GAS SUB CALL ISZERO ISZERO PUSH2 0x40E JUMPI PUSH1 0x0 DUP1 REVERT JUMPDEST POP POP POP PUSH1 0x40 MLOAD DUP1 MLOAD SWAP1 PUSH1 0x20 ADD DUP1 MLOAD SWAP1 PUSH1 0x20 ADD DUP1 MLOAD SWAP1 PUSH1 0x20 ADD DUP1 MLOAD SWAP1 PUSH1 0x20 ADD DUP1 MLOAD SWAP1 PUSH1 0x20 ADD DUP1 MLOAD SWAP1 PUSH1 0x20 ADD DUP1 MLOAD SWAP1 PUSH1 0x20 ADD DUP1 MLOAD SWAP1 PUSH1 0x20 ADD DUP1 MLOAD SWAP1 PUSH1 0x20 ADD DUP1 MLOAD SWAP1 PUSH1 0x20 ADD DUP1 MLOAD SWAP1 PUSH1 0x20 ADD DUP1 MLOAD SWAP1 PUSH1 0x20 ADD DUP1 MLOAD SWAP1 PUSH1 0x20 ADD DUP1 MLOAD SWAP1 POP POP POP POP SWAP13 POP POP POP POP POP POP POP POP POP POP POP DUP3 TIMESTAMP LT ISZERO ISZERO PUSH2 0x487 JUMPI PUSH1 0x0 SWAP4 POP PUSH2 0x609 JUMP JUMPDEST PUSH1 0x0 DUP1 SLOAD PUSH1 0x1 PUSH1 0xA0 PUSH1 0x2 EXP SUB AND SWAP1 PUSH4 0xC19D93FB SWAP1 PUSH1 0x40 MLOAD PUSH2 0x160 ADD MSTORE PUSH1 0x40 MLOAD DUP2 PUSH4 0xFFFFFFFF AND PUSH29 0x100000000000000000000000000000000000000000000000000000000 MUL DUP2 MSTORE PUSH1 0x4 ADD PUSH2 0x160 PUSH1 0x40 MLOAD DUP1 DUP4 SUB DUP2 PUSH1 0x0 DUP8 DUP1 EXTCODESIZE ISZERO ISZERO PUSH2 0x4EB JUMPI PUSH1 0x0 DUP1 REVERT JUMPDEST PUSH2 0x2C6 GAS SUB CALL ISZERO ISZERO PUSH2 0x4FC JUMPI PUSH1 0x0 DUP1 REVERT JUMPDEST POP POP POP PUSH1 0x40 MLOAD DUP1 MLOAD SWAP1 PUSH1 0x20 ADD DUP1 MLOAD SWAP1 PUSH1 0x20 ADD DUP1 MLOAD SWAP1 PUSH1 0x20 ADD DUP1 MLOAD SWAP1 PUSH1 0x20 ADD DUP1 MLOAD SWAP1 PUSH1 0x20 ADD DUP1 MLOAD SWAP1 PUSH1 0x20 ADD DUP1 MLOAD SWAP1 PUSH1 0x20 ADD DUP1 MLOAD SWAP1 PUSH1 0x20 ADD DUP1 MLOAD SWAP1 PUSH1 0x20 ADD DUP1 MLOAD SWAP1 PUSH1 0x20 ADD DUP1 MLOAD SWAP1 POP POP POP SWAP10 POP POP POP POP POP POP POP POP POP DUP2 ISZERO PUSH2 0x55D JUMPI PUSH1 0x0 SWAP4 POP PUSH2 0x609 JUMP JUMPDEST PUSH1 0x0 DUP1 SLOAD PUSH1 0x1 PUSH1 0xA0 PUSH1 0x2 EXP SUB AND SWAP1 PUSH4 0x9E69EDE SWAP1 CALLER SWAP1 PUSH1 0x40 MLOAD PUSH1 0x40 ADD MSTORE PUSH1 0x40 MLOAD PUSH29 0x100000000000000000000000000000000000000000000000000000000 PUSH4 0xFFFFFFFF DUP5 AND MUL DUP2 MSTORE PUSH1 0x1 PUSH1 0xA0 PUSH1 0x2 EXP SUB SWAP1 SWAP2 AND PUSH1 0x4 DUP3 ADD MSTORE PUSH1 0x24 ADD PUSH1 0x40 DUP1 MLOAD DUP1 DUP4 SUB DUP2 PUSH1 0x0 DUP8 DUP1 EXTCODESIZE ISZERO ISZERO PUSH2 0x5D0 JUMPI PUSH1 0x0 DUP1 REVERT JUMPDEST PUSH2 0x2C6 GAS SUB CALL ISZERO ISZERO PUSH2 0x5E1 JUMPI PUSH1 0x0 DUP1 REVERT JUMPDEST POP POP POP PUSH1 0x40 MLOAD DUP1 MLOAD SWAP1 PUSH1 0x20 ADD DUP1 MLOAD POP SWAP1 SWAP2 POP POP DUP1 ISZERO ISZERO PUSH2 0x604 JUMPI PUSH1 0x0 SWAP4 POP PUSH2 0x609 JUMP JUMPDEST PUSH1 0x1 SWAP4 POP JUMPDEST POP POP POP SWAP1 JUMP JUMPDEST PUSH1 0x0 DUP1 SLOAD DUP2 SWAP1 PUSH1 0x1 PUSH1 0xA0 PUSH1 0x2 EXP SUB AND PUSH4 0x2DDE9ACA DUP3 PUSH1 0x40 MLOAD PUSH2 0x1C0 ADD MSTORE PUSH1 0x40 MLOAD DUP2 PUSH4 0xFFFFFFFF AND PUSH29 0x100000000000000000000000000000000000000000000000000000000 MUL DUP2 MSTORE PUSH1 0x4 ADD PUSH2 0x1C0 PUSH1 0x40 MLOAD DUP1 DUP4 SUB DUP2 PUSH1 0x0 DUP8 DUP1 EXTCODESIZE ISZERO ISZERO PUSH2 0x674 JUMPI PUSH1 0x0 DUP1 REVERT JUMPDEST PUSH2 0x2C6 GAS SUB CALL ISZERO ISZERO PUSH2 0x685 JUMPI PUSH1 0x0 DUP1 REVERT JUMPDEST POP POP POP PUSH1 0x40 MLOAD DUP1 MLOAD SWAP1 PUSH1 0x20 ADD DUP1 MLOAD SWAP1 PUSH1 0x20 ADD DUP1 MLOAD SWAP1 PUSH1 0x20 ADD DUP1 MLOAD SWAP1 PUSH1 0x20 ADD DUP1 MLOAD SWAP1 PUSH1 0x20 ADD DUP1 MLOAD SWAP1 PUSH1 0x20 ADD DUP1 MLOAD SWAP1 PUSH1 0x20 ADD DUP1 MLOAD SWAP1 PUSH1 0x20 ADD DUP1 MLOAD SWAP1 PUSH1 0x20 ADD DUP1 MLOAD SWAP1 PUSH1 0x20 ADD DUP1 MLOAD SWAP1 PUSH1 0x20 ADD DUP1 MLOAD SWAP1 PUSH1 0x20 ADD DUP1 MLOAD SWAP1 PUSH1 0x20 ADD DUP1 MLOAD SWAP1 POP POP SWAP13 POP POP POP POP POP POP POP POP SWAP6 POP POP POP POP POP CALLER PUSH1 0x1 PUSH1 0xA0 PUSH1 0x2 EXP SUB AND DUP3 PUSH1 0x1 PUSH1 0xA0 PUSH1 0x2 EXP SUB AND EQ ISZERO ISZERO PUSH2 0x70D JUMPI PUSH1 0x0 DUP1 REVERT JUMPDEST TIMESTAMP DUP2 SWAP1 LT ISZERO PUSH2 0x71B JUMPI PUSH1 0x0 DUP1 REVERT JUMPDEST CALLER PUSH1 0x1 PUSH1 0xA0 PUSH1 0x2 EXP SUB AND SELFDESTRUCT JUMPDEST PUSH1 0x2 PUSH1 0x20 MSTORE DUP2 PUSH1 0x0 MSTORE PUSH1 0x40 PUSH1 0x0 KECCAK256 DUP2 DUP2 SLOAD DUP2 LT ISZERO ISZERO PUSH2 0x742 JUMPI INVALID JUMPDEST PUSH1 0x0 SWAP2 DUP3 MSTORE PUSH1 0x20 SWAP1 SWAP2 KECCAK256 ADD SLOAD SWAP2 POP DUP3 SWAP1 POP JUMP JUMPDEST PUSH1 0x1 SLOAD PUSH1 0x0 SWAP1 DUP3 LT PUSH2 0x766 JUMPI PUSH1 0x0 DUP1 REVERT JUMPDEST PUSH2 0x76E PUSH2 0x394 JUMP JUMPDEST PUSH1 0x1 PUSH1 0xA0 PUSH1 0x2 EXP SUB CALLER AND PUSH1 0x0 SWAP1 DUP2 MSTORE PUSH1 0x2 PUSH1 0x20 MSTORE PUSH1 0x40 SWAP1 KECCAK256 SLOAD EQ ISZERO PUSH2 0x792 JUMPI PUSH1 0x0 DUP1 REVERT JUMPDEST PUSH1 0x1 PUSH1 0xA0 PUSH1 0x2 EXP SUB CALLER AND PUSH1 0x0 SWAP1 DUP2 MSTORE PUSH1 0x2 PUSH1 0x20 MSTORE PUSH1 0x40 SWAP1 KECCAK256 DUP1 SLOAD PUSH1 0x1 DUP2 ADD PUSH2 0x7BA DUP4 DUP3 PUSH2 0x989 JUMP JUMPDEST POP PUSH1 0x0 SWAP2 DUP3 MSTORE PUSH1 0x20 SWAP1 SWAP2 KECCAK256 ADD DUP3 SWAP1 SSTORE PUSH1 0x1 DUP1 SLOAD DUP4 SWAP1 DUP2 LT PUSH2 0x7D7 JUMPI INVALID JUMPDEST PUSH1 0x0 SWAP2 DUP3 MSTORE PUSH1 0x20 SWAP1 SWAP2 KECCAK256 PUSH1 0x3 SWAP1 SWAP2 MUL ADD PUSH1 0x2 DUP2 ADD DUP1 SLOAD PUSH1 0x1 ADD SWAP1 DUP2 SWAP1 SSTORE SWAP1 SWAP2 POP DUP3 SWAP1 CALLER PUSH1 0x1 PUSH1 0xA0 PUSH1 0x2 EXP SUB AND SWAP1 PUSH32 0x5EBE585DB19D8DC48277D77736F32F990438C57E3787B79D4DF7B68FDCA98756 SWAP1 PUSH1 0x40 MLOAD SWAP1 DUP2 MSTORE PUSH1 0x20 ADD PUSH1 0x40 MLOAD DUP1 SWAP2 SUB SWAP1 LOG3 POP POP JUMP JUMPDEST PUSH2 0x843 PUSH2 0x9DE JUMP JUMPDEST PUSH2 0x84B PUSH2 0x9DE JUMP JUMPDEST PUSH2 0x853 PUSH2 0x9DE JUMP JUMPDEST PUSH1 0x1 SLOAD PUSH1 0x0 SWAP1 DUP2 SWAP1 PUSH1 0x40 MLOAD DUP1 MSIZE LT PUSH2 0x868 JUMPI POP MSIZE JUMPDEST SWAP1 DUP1 DUP3 MSTORE DUP1 PUSH1 0x20 MUL PUSH1 0x20 ADD DUP3 ADD PUSH1 0x40 MSTORE POP PUSH1 0x1 SLOAD SWAP1 SWAP6 POP PUSH1 0x40 MLOAD DUP1 MSIZE LT PUSH2 0x88C JUMPI POP MSIZE JUMPDEST SWAP1 DUP1 DUP3 MSTORE DUP1 PUSH1 0x20 MUL PUSH1 0x20 ADD DUP3 ADD PUSH1 0x40 MSTORE POP PUSH1 0x1 SLOAD SWAP1 SWAP5 POP PUSH1 0x40 MLOAD DUP1 MSIZE LT PUSH2 0x8B0 JUMPI POP MSIZE JUMPDEST SWAP1 DUP1 DUP3 MSTORE DUP1 PUSH1 0x20 MUL PUSH1 0x20 ADD DUP3 ADD PUSH1 0x40 MSTORE POP SWAP3 POP PUSH1 0x0 SWAP2 POP JUMPDEST PUSH1 0x1 SLOAD DUP3 LT ISZERO PUSH2 0x962 JUMPI PUSH1 0x1 DUP1 SLOAD DUP4 SWAP1 DUP2 LT PUSH2 0x8E0 JUMPI INVALID JUMPDEST SWAP1 PUSH1 0x0 MSTORE PUSH1 0x20 PUSH1 0x0 KECCAK256 SWAP1 PUSH1 0x3 MUL ADD SWAP1 POP DUP1 PUSH1 0x0 ADD SLOAD DUP6 DUP4 DUP2 MLOAD DUP2 LT PUSH2 0x901 JUMPI INVALID JUMPDEST PUSH1 0x20 SWAP1 DUP2 MUL SWAP1 SWAP2 ADD ADD MSTORE PUSH1 0x1 DUP2 ADD SLOAD PUSH1 0x1 PUSH1 0xA0 PUSH1 0x2 EXP SUB AND DUP5 DUP4 DUP2 MLOAD DUP2 LT PUSH2 0x925 JUMPI INVALID JUMPDEST PUSH1 0x1 PUSH1 0xA0 PUSH1 0x2 EXP SUB SWAP1 SWAP3 AND PUSH1 0x20 SWAP3 DUP4 MUL SWAP1 SWAP2 ADD SWAP1 SWAP2 ADD MSTORE PUSH1 0x2 DUP2 ADD SLOAD DUP4 DUP4 DUP2 MLOAD DUP2 LT PUSH2 0x94D JUMPI INVALID JUMPDEST PUSH1 0x20 SWAP1 DUP2 MUL SWAP1 SWAP2 ADD ADD MSTORE PUSH1 0x1 SWAP1 SWAP2 ADD SWAP1 PUSH2 0x8C8 JUMP JUMPDEST POP POP SWAP1 SWAP2 SWAP3 JUMP JUMPDEST PUSH1 0x60 PUSH1 0x40 MLOAD SWAP1 DUP2 ADD PUSH1 0x40 SWAP1 DUP2 MSTORE PUSH1 0x0 DUP1 DUP4 MSTORE PUSH1 0x20 DUP4 ADD DUP2 SWAP1 MSTORE SWAP1 DUP3 ADD MSTORE SWAP1 JUMP JUMPDEST DUP2 SLOAD DUP2 DUP4 SSTORE DUP2 DUP2 ISZERO GT PUSH2 0x9AD JUMPI PUSH1 0x0 DUP4 DUP2 MSTORE PUSH1 0x20 SWAP1 KECCAK256 PUSH2 0x9AD SWAP2 DUP2 ADD SWAP1 DUP4 ADD PUSH2 0x9F0 JUMP JUMPDEST POP POP POP JUMP JUMPDEST DUP2 SLOAD DUP2 DUP4 SSTORE DUP2 DUP2 ISZERO GT PUSH2 0x9AD JUMPI PUSH1 0x3 MUL DUP2 PUSH1 0x3 MUL DUP4 PUSH1 0x0 MSTORE PUSH1 0x20 PUSH1 0x0 KECCAK256 SWAP2 DUP3 ADD SWAP2 ADD PUSH2 0x9AD SWAP2 SWAP1 PUSH2 0xA11 JUMP JUMPDEST PUSH1 0x20 PUSH1 0x40 MLOAD SWAP1 DUP2 ADD PUSH1 0x40 MSTORE PUSH1 0x0 DUP2 MSTORE SWAP1 JUMP JUMPDEST PUSH2 0xA0E SWAP2 SWAP1 JUMPDEST DUP1 DUP3 GT ISZERO PUSH2 0xA0A JUMPI PUSH1 0x0 DUP2 SSTORE PUSH1 0x1 ADD PUSH2 0x9F6 JUMP JUMPDEST POP SWAP1 JUMP JUMPDEST SWAP1 JUMP JUMPDEST PUSH2 0xA0E SWAP2 SWAP1 JUMPDEST DUP1 DUP3 GT ISZERO PUSH2 0xA0A JUMPI PUSH1 0x0 DUP1 DUP3 SSTORE PUSH1 0x1 DUP3 ADD DUP1 SLOAD PUSH20 0xFFFFFFFFFFFFFFFFFFFFFFFFFFFFFFFFFFFFFFFF NOT AND SWAP1 SSTORE PUSH1 0x2 DUP3 ADD SSTORE PUSH1 0x3 ADD PUSH2 0xA17 JUMP STOP LOG1 PUSH6 0x627A7A723058 KECCAK256 0xb4 NUMBER STOP 0xa9 0x2f 0x2a 0xc0 BALANCE DUP1 SWAP10 REVERT 0x4d PUSH17 0xD4956EEEF3805EBF95F6E3C4A14CD89934 CALLCODE 0x1b STOP 0x29 "
        }
    },
    "methods": {
        "voteName": [
            "_causeName"
        ],
        "maxVotes": [],
        "destroy": [],
        "votes": [
            "_0",
            "_1"
        ],
        "voteIndex": [
            "_causeIndex"
        ],
        "causes": []
    }
}