{
    "abi": [
        {
            "constant": true,
            "inputs": [],
            "name": "endTime",
            "outputs": [
                {
                    "name": "",
                    "type": "uint256"
                }
            ],
            "payable": false,
            "stateMutability": "view",
            "type": "function"
        },
        {
            "constant": true,
            "inputs": [],
            "name": "getCharities",
            "outputs": [
                {
                    "name": "",
                    "type": "bytes32[]"
                },
                {
                    "name": "",
                    "type": "address[]"
                }
            ],
            "payable": false,
            "stateMutability": "view",
            "type": "function"
        },
        {
            "constant": true,
            "inputs": [],
            "name": "startTime",
            "outputs": [
                {
                    "name": "",
                    "type": "uint256"
                }
            ],
            "payable": false,
            "stateMutability": "view",
            "type": "function"
        },
        {
            "constant": true,
            "inputs": [],
            "name": "passedCharityId",
            "outputs": [
                {
                    "name": "",
                    "type": "uint256"
                }
            ],
            "payable": false,
            "stateMutability": "view",
            "type": "function"
        },
        {
            "constant": false,
            "inputs": [],
            "name": "pass",
            "outputs": [],
            "payable": false,
            "stateMutability": "nonpayable",
            "type": "function"
        },
        {
            "constant": false,
            "inputs": [
                {
                    "name": "_charityId",
                    "type": "uint256"
                },
                {
                    "name": "_score",
                    "type": "uint256"
                }
            ],
            "name": "vote",
            "outputs": [],
            "payable": false,
            "stateMutability": "nonpayable",
            "type": "function"
        },
        {
            "constant": false,
            "inputs": [
                {
                    "name": "_name",
                    "type": "bytes32"
                },
                {
                    "name": "_address",
                    "type": "address"
                }
            ],
            "name": "addCharity",
            "outputs": [],
            "payable": false,
            "stateMutability": "nonpayable",
            "type": "function"
        },
        {
            "inputs": [
                {
                    "name": "_endTime",
                    "type": "uint256"
                }
            ],
            "payable": false,
            "stateMutability": "nonpayable",
            "type": "constructor"
        },
        {
            "anonymous": false,
            "inputs": [
                {
                    "indexed": true,
                    "name": "_charityId",
                    "type": "uint256"
                }
            ],
            "name": "CharityAdd",
            "type": "event"
        },
        {
            "anonymous": false,
            "inputs": [
                {
                    "indexed": true,
                    "name": "_address",
                    "type": "address"
                },
                {
                    "indexed": true,
                    "name": "_charityId",
                    "type": "uint256"
                },
                {
                    "indexed": false,
                    "name": "_score",
                    "type": "uint256"
                }
            ],
            "name": "VoterCast",
            "type": "event"
        },
        {
            "anonymous": false,
            "inputs": [
                {
                    "indexed": true,
                    "name": "_charityId",
                    "type": "uint256"
                }
            ],
            "name": "CharityPass",
            "type": "event"
        }
    ],
    "evm": {
        "bytecode": {
            "linkReferences": {},
            "object": "6060604052341561000f57600080fd5b6040516020806106f08339810160405280805160008054600160a060020a033316600160a060020a0319909116179055426001556002555050610699806100576000396000f3006060604052600436106100825763ffffffff7c01000000000000000000000000000000000000000000000000000000006000350416633197cbb6811461008757806348112c6f146100ac57806378e97925146101585780637a6be5cb1461016b578063a7a1ed721461017e578063b384abef14610193578063ca84fdcc146101ac575b600080fd5b341561009257600080fd5b61009a6101db565b60405190815260200160405180910390f35b34156100b757600080fd5b6100bf6101e1565b604051808060200180602001838103835285818151815260200191508051906020019060200280838360005b838110156101035780820151838201526020016100eb565b50505050905001838103825284818151815260200191508051906020019060200280838360005b8381101561014257808201518382015260200161012a565b5050505090500194505050505060405180910390f35b341561016357600080fd5b61009a6102f6565b341561017657600080fd5b61009a6102fc565b341561018957600080fd5b610191610302565b005b341561019e57600080fd5b6101916004356024356103be565b34156101b757600080fd5b61019160043573ffffffffffffffffffffffffffffffffffffffff602435166104c1565b60025481565b6101e96105dd565b6101f16105dd565b6101f96105dd565b6102016105dd565b60045460009081906040518059106102165750595b908082528060200260200182016040525060045490945060405180591061023a5750595b90808252806020026020018201604052509250600091505b6004548210156102eb57600480548390811061026a57fe5b90600052602060002090600502019050806000015484838151811061028b57fe5b60209081029091010152600181015473ffffffffffffffffffffffffffffffffffffffff168383815181106102bc57fe5b73ffffffffffffffffffffffffffffffffffffffff909216602092830290910190910152600190910190610252565b509194909350915050565b60015481565b60035481565b6000806000806000426002541115151561031b57600080fd5b600092505b60045483101561038557600480548490811061033857fe5b906000526020600020906005020191508160030154826002015481151561035b57fe5b0490508381141561036b57600080fd5b8381111561037a578093508294505b600190920191610320565b6003859055847f48ef71dca64c6c7ee87ee199b96d23045d8d5b7475f1051320cd869cd0562d8860405160405180910390a25050505050565b60008042600154101580156103d557506002544211155b80156103e15750600354155b15156103ec57600080fd5b60048054859081106103fa57fe5b6000918252602080832073ffffffffffffffffffffffffffffffffffffffff33168452600460059093020191820190526040822054909350915083111561044d5760028201805482900384019055610459565b60028201805482900390555b73ffffffffffffffffffffffffffffffffffffffff33166000818152600484016020526040908190208590558591907f91669d47966be3c297fd50c28765b16e7d18429ae1955a65975cd2fbe05caf859086905190815260200160405180910390a350505050565b42600154101580156104d557506002544211155b80156104e15750600354155b15156104ec57600080fd5b60048054600181016104fe83826105ef565b916000526020600020906005020160006080604051908101604090815286825273ffffffffffffffffffffffffffffffffffffffff861660208301526000908201819052606082015291905081518155602082015160018201805473ffffffffffffffffffffffffffffffffffffffff191673ffffffffffffffffffffffffffffffffffffffff929092169190911790556040820151816002015560608201516003909101555050600454600019017f50608d226080e5756e76baa3b6150d060c58aa074432a7d1a5dc1533d9e0e2a960405160405180910390a25050565b60206040519081016040526000815290565b81548183558181151161061b5760050281600502836000526020600020918201910161061b9190610620565b505050565b61066a91905b8082111561066657600080825560018201805473ffffffffffffffffffffffffffffffffffffffff19169055600282018190556003820155600501610626565b5090565b905600a165627a7a72305820486a198010bdfb44579bc5370b768c666e6eb52194c4e42d714caef3b5ad384a0029",
            "opcodes": "PUSH1 0x60 PUSH1 0x40 MSTORE CALLVALUE ISZERO PUSH2 0xF JUMPI PUSH1 0x0 DUP1 REVERT JUMPDEST PUSH1 0x40 MLOAD PUSH1 0x20 DUP1 PUSH2 0x6F0 DUP4 CODECOPY DUP2 ADD PUSH1 0x40 MSTORE DUP1 DUP1 MLOAD PUSH1 0x0 DUP1 SLOAD PUSH1 0x1 PUSH1 0xA0 PUSH1 0x2 EXP SUB CALLER AND PUSH1 0x1 PUSH1 0xA0 PUSH1 0x2 EXP SUB NOT SWAP1 SWAP2 AND OR SWAP1 SSTORE TIMESTAMP PUSH1 0x1 SSTORE PUSH1 0x2 SSTORE POP POP PUSH2 0x699 DUP1 PUSH2 0x57 PUSH1 0x0 CODECOPY PUSH1 0x0 RETURN STOP PUSH1 0x60 PUSH1 0x40 MSTORE PUSH1 0x4 CALLDATASIZE LT PUSH2 0x82 JUMPI PUSH4 0xFFFFFFFF PUSH29 0x100000000000000000000000000000000000000000000000000000000 PUSH1 0x0 CALLDATALOAD DIV AND PUSH4 0x3197CBB6 DUP2 EQ PUSH2 0x87 JUMPI DUP1 PUSH4 0x48112C6F EQ PUSH2 0xAC JUMPI DUP1 PUSH4 0x78E97925 EQ PUSH2 0x158 JUMPI DUP1 PUSH4 0x7A6BE5CB EQ PUSH2 0x16B JUMPI DUP1 PUSH4 0xA7A1ED72 EQ PUSH2 0x17E JUMPI DUP1 PUSH4 0xB384ABEF EQ PUSH2 0x193 JUMPI DUP1 PUSH4 0xCA84FDCC EQ PUSH2 0x1AC JUMPI JUMPDEST PUSH1 0x0 DUP1 REVERT JUMPDEST CALLVALUE ISZERO PUSH2 0x92 JUMPI PUSH1 0x0 DUP1 REVERT JUMPDEST PUSH2 0x9A PUSH2 0x1DB JUMP JUMPDEST PUSH1 0x40 MLOAD SWAP1 DUP2 MSTORE PUSH1 0x20 ADD PUSH1 0x40 MLOAD DUP1 SWAP2 SUB SWAP1 RETURN JUMPDEST CALLVALUE ISZERO PUSH2 0xB7 JUMPI PUSH1 0x0 DUP1 REVERT JUMPDEST PUSH2 0xBF PUSH2 0x1E1 JUMP JUMPDEST PUSH1 0x40 MLOAD DUP1 DUP1 PUSH1 0x20 ADD DUP1 PUSH1 0x20 ADD DUP4 DUP2 SUB DUP4 MSTORE DUP6 DUP2 DUP2 MLOAD DUP2 MSTORE PUSH1 0x20 ADD SWAP2 POP DUP1 MLOAD SWAP1 PUSH1 0x20 ADD SWAP1 PUSH1 0x20 MUL DUP1 DUP4 DUP4 PUSH1 0x0 JUMPDEST DUP4 DUP2 LT ISZERO PUSH2 0x103 JUMPI DUP1 DUP3 ADD MLOAD DUP4 DUP3 ADD MSTORE PUSH1 0x20 ADD PUSH2 0xEB JUMP JUMPDEST POP POP POP POP SWAP1 POP ADD DUP4 DUP2 SUB DUP3 MSTORE DUP5 DUP2 DUP2 MLOAD DUP2 MSTORE PUSH1 0x20 ADD SWAP2 POP DUP1 MLOAD SWAP1 PUSH1 0x20 ADD SWAP1 PUSH1 0x20 MUL DUP1 DUP4 DUP4 PUSH1 0x0 JUMPDEST DUP4 DUP2 LT ISZERO PUSH2 0x142 JUMPI DUP1 DUP3 ADD MLOAD DUP4 DUP3 ADD MSTORE PUSH1 0x20 ADD PUSH2 0x12A JUMP JUMPDEST POP POP POP POP SWAP1 POP ADD SWAP5 POP POP POP POP POP PUSH1 0x40 MLOAD DUP1 SWAP2 SUB SWAP1 RETURN JUMPDEST CALLVALUE ISZERO PUSH2 0x163 JUMPI PUSH1 0x0 DUP1 REVERT JUMPDEST PUSH2 0x9A PUSH2 0x2F6 JUMP JUMPDEST CALLVALUE ISZERO PUSH2 0x176 JUMPI PUSH1 0x0 DUP1 REVERT JUMPDEST PUSH2 0x9A PUSH2 0x2FC JUMP JUMPDEST CALLVALUE ISZERO PUSH2 0x189 JUMPI PUSH1 0x0 DUP1 REVERT JUMPDEST PUSH2 0x191 PUSH2 0x302 JUMP JUMPDEST STOP JUMPDEST CALLVALUE ISZERO PUSH2 0x19E JUMPI PUSH1 0x0 DUP1 REVERT JUMPDEST PUSH2 0x191 PUSH1 0x4 CALLDATALOAD PUSH1 0x24 CALLDATALOAD PUSH2 0x3BE JUMP JUMPDEST CALLVALUE ISZERO PUSH2 0x1B7 JUMPI PUSH1 0x0 DUP1 REVERT JUMPDEST PUSH2 0x191 PUSH1 0x4 CALLDATALOAD PUSH20 0xFFFFFFFFFFFFFFFFFFFFFFFFFFFFFFFFFFFFFFFF PUSH1 0x24 CALLDATALOAD AND PUSH2 0x4C1 JUMP JUMPDEST PUSH1 0x2 SLOAD DUP2 JUMP JUMPDEST PUSH2 0x1E9 PUSH2 0x5DD JUMP JUMPDEST PUSH2 0x1F1 PUSH2 0x5DD JUMP JUMPDEST PUSH2 0x1F9 PUSH2 0x5DD JUMP JUMPDEST PUSH2 0x201 PUSH2 0x5DD JUMP JUMPDEST PUSH1 0x4 SLOAD PUSH1 0x0 SWAP1 DUP2 SWAP1 PUSH1 0x40 MLOAD DUP1 MSIZE LT PUSH2 0x216 JUMPI POP MSIZE JUMPDEST SWAP1 DUP1 DUP3 MSTORE DUP1 PUSH1 0x20 MUL PUSH1 0x20 ADD DUP3 ADD PUSH1 0x40 MSTORE POP PUSH1 0x4 SLOAD SWAP1 SWAP5 POP PUSH1 0x40 MLOAD DUP1 MSIZE LT PUSH2 0x23A JUMPI POP MSIZE JUMPDEST SWAP1 DUP1 DUP3 MSTORE DUP1 PUSH1 0x20 MUL PUSH1 0x20 ADD DUP3 ADD PUSH1 0x40 MSTORE POP SWAP3 POP PUSH1 0x0 SWAP2 POP JUMPDEST PUSH1 0x4 SLOAD DUP3 LT ISZERO PUSH2 0x2EB JUMPI PUSH1 0x4 DUP1 SLOAD DUP4 SWAP1 DUP2 LT PUSH2 0x26A JUMPI INVALID JUMPDEST SWAP1 PUSH1 0x0 MSTORE PUSH1 0x20 PUSH1 0x0 KECCAK256 SWAP1 PUSH1 0x5 MUL ADD SWAP1 POP DUP1 PUSH1 0x0 ADD SLOAD DUP5 DUP4 DUP2 MLOAD DUP2 LT PUSH2 0x28B JUMPI INVALID JUMPDEST PUSH1 0x20 SWAP1 DUP2 MUL SWAP1 SWAP2 ADD ADD MSTORE PUSH1 0x1 DUP2 ADD SLOAD PUSH20 0xFFFFFFFFFFFFFFFFFFFFFFFFFFFFFFFFFFFFFFFF AND DUP4 DUP4 DUP2 MLOAD DUP2 LT PUSH2 0x2BC JUMPI INVALID JUMPDEST PUSH20 0xFFFFFFFFFFFFFFFFFFFFFFFFFFFFFFFFFFFFFFFF SWAP1 SWAP3 AND PUSH1 0x20 SWAP3 DUP4 MUL SWAP1 SWAP2 ADD SWAP1 SWAP2 ADD MSTORE PUSH1 0x1 SWAP1 SWAP2 ADD SWAP1 PUSH2 0x252 JUMP JUMPDEST POP SWAP2 SWAP5 SWAP1 SWAP4 POP SWAP2 POP POP JUMP JUMPDEST PUSH1 0x1 SLOAD DUP2 JUMP JUMPDEST PUSH1 0x3 SLOAD DUP2 JUMP JUMPDEST PUSH1 0x0 DUP1 PUSH1 0x0 DUP1 PUSH1 0x0 TIMESTAMP PUSH1 0x2 SLOAD GT ISZERO ISZERO ISZERO PUSH2 0x31B JUMPI PUSH1 0x0 DUP1 REVERT JUMPDEST PUSH1 0x0 SWAP3 POP JUMPDEST PUSH1 0x4 SLOAD DUP4 LT ISZERO PUSH2 0x385 JUMPI PUSH1 0x4 DUP1 SLOAD DUP5 SWAP1 DUP2 LT PUSH2 0x338 JUMPI INVALID JUMPDEST SWAP1 PUSH1 0x0 MSTORE PUSH1 0x20 PUSH1 0x0 KECCAK256 SWAP1 PUSH1 0x5 MUL ADD SWAP2 POP DUP2 PUSH1 0x3 ADD SLOAD DUP3 PUSH1 0x2 ADD SLOAD DUP2 ISZERO ISZERO PUSH2 0x35B JUMPI INVALID JUMPDEST DIV SWAP1 POP DUP4 DUP2 EQ ISZERO PUSH2 0x36B JUMPI PUSH1 0x0 DUP1 REVERT JUMPDEST DUP4 DUP2 GT ISZERO PUSH2 0x37A JUMPI DUP1 SWAP4 POP DUP3 SWAP5 POP JUMPDEST PUSH1 0x1 SWAP1 SWAP3 ADD SWAP2 PUSH2 0x320 JUMP JUMPDEST PUSH1 0x3 DUP6 SWAP1 SSTORE DUP5 PUSH32 0x48EF71DCA64C6C7EE87EE199B96D23045D8D5B7475F1051320CD869CD0562D88 PUSH1 0x40 MLOAD PUSH1 0x40 MLOAD DUP1 SWAP2 SUB SWAP1 LOG2 POP POP POP POP POP JUMP JUMPDEST PUSH1 0x0 DUP1 TIMESTAMP PUSH1 0x1 SLOAD LT ISZERO DUP1 ISZERO PUSH2 0x3D5 JUMPI POP PUSH1 0x2 SLOAD TIMESTAMP GT ISZERO JUMPDEST DUP1 ISZERO PUSH2 0x3E1 JUMPI POP PUSH1 0x3 SLOAD ISZERO JUMPDEST ISZERO ISZERO PUSH2 0x3EC JUMPI PUSH1 0x0 DUP1 REVERT JUMPDEST PUSH1 0x4 DUP1 SLOAD DUP6 SWAP1 DUP2 LT PUSH2 0x3FA JUMPI INVALID JUMPDEST PUSH1 0x0 SWAP2 DUP3 MSTORE PUSH1 0x20 DUP1 DUP4 KECCAK256 PUSH20 0xFFFFFFFFFFFFFFFFFFFFFFFFFFFFFFFFFFFFFFFF CALLER AND DUP5 MSTORE PUSH1 0x4 PUSH1 0x5 SWAP1 SWAP4 MUL ADD SWAP2 DUP3 ADD SWAP1 MSTORE PUSH1 0x40 DUP3 KECCAK256 SLOAD SWAP1 SWAP4 POP SWAP2 POP DUP4 GT ISZERO PUSH2 0x44D JUMPI PUSH1 0x2 DUP3 ADD DUP1 SLOAD DUP3 SWAP1 SUB DUP5 ADD SWAP1 SSTORE PUSH2 0x459 JUMP JUMPDEST PUSH1 0x2 DUP3 ADD DUP1 SLOAD DUP3 SWAP1 SUB SWAP1 SSTORE JUMPDEST PUSH20 0xFFFFFFFFFFFFFFFFFFFFFFFFFFFFFFFFFFFFFFFF CALLER AND PUSH1 0x0 DUP2 DUP2 MSTORE PUSH1 0x4 DUP5 ADD PUSH1 0x20 MSTORE PUSH1 0x40 SWAP1 DUP2 SWAP1 KECCAK256 DUP6 SWAP1 SSTORE DUP6 SWAP2 SWAP1 PUSH32 0x91669D47966BE3C297FD50C28765B16E7D18429AE1955A65975CD2FBE05CAF85 SWAP1 DUP7 SWAP1 MLOAD SWAP1 DUP2 MSTORE PUSH1 0x20 ADD PUSH1 0x40 MLOAD DUP1 SWAP2 SUB SWAP1 LOG3 POP POP POP POP JUMP JUMPDEST TIMESTAMP PUSH1 0x1 SLOAD LT ISZERO DUP1 ISZERO PUSH2 0x4D5 JUMPI POP PUSH1 0x2 SLOAD TIMESTAMP GT ISZERO JUMPDEST DUP1 ISZERO PUSH2 0x4E1 JUMPI POP PUSH1 0x3 SLOAD ISZERO JUMPDEST ISZERO ISZERO PUSH2 0x4EC JUMPI PUSH1 0x0 DUP1 REVERT JUMPDEST PUSH1 0x4 DUP1 SLOAD PUSH1 0x1 DUP2 ADD PUSH2 0x4FE DUP4 DUP3 PUSH2 0x5EF JUMP JUMPDEST SWAP2 PUSH1 0x0 MSTORE PUSH1 0x20 PUSH1 0x0 KECCAK256 SWAP1 PUSH1 0x5 MUL ADD PUSH1 0x0 PUSH1 0x80 PUSH1 0x40 MLOAD SWAP1 DUP2 ADD PUSH1 0x40 SWAP1 DUP2 MSTORE DUP7 DUP3 MSTORE PUSH20 0xFFFFFFFFFFFFFFFFFFFFFFFFFFFFFFFFFFFFFFFF DUP7 AND PUSH1 0x20 DUP4 ADD MSTORE PUSH1 0x0 SWAP1 DUP3 ADD DUP2 SWAP1 MSTORE PUSH1 0x60 DUP3 ADD MSTORE SWAP2 SWAP1 POP DUP2 MLOAD DUP2 SSTORE PUSH1 0x20 DUP3 ADD MLOAD PUSH1 0x1 DUP3 ADD DUP1 SLOAD PUSH20 0xFFFFFFFFFFFFFFFFFFFFFFFFFFFFFFFFFFFFFFFF NOT AND PUSH20 0xFFFFFFFFFFFFFFFFFFFFFFFFFFFFFFFFFFFFFFFF SWAP3 SWAP1 SWAP3 AND SWAP2 SWAP1 SWAP2 OR SWAP1 SSTORE PUSH1 0x40 DUP3 ADD MLOAD DUP2 PUSH1 0x2 ADD SSTORE PUSH1 0x60 DUP3 ADD MLOAD PUSH1 0x3 SWAP1 SWAP2 ADD SSTORE POP POP PUSH1 0x4 SLOAD PUSH1 0x0 NOT ADD PUSH32 0x50608D226080E5756E76BAA3B6150D060C58AA074432A7D1A5DC1533D9E0E2A9 PUSH1 0x40 MLOAD PUSH1 0x40 MLOAD DUP1 SWAP2 SUB SWAP1 LOG2 POP POP JUMP JUMPDEST PUSH1 0x20 PUSH1 0x40 MLOAD SWAP1 DUP2 ADD PUSH1 0x40 MSTORE PUSH1 0x0 DUP2 MSTORE SWAP1 JUMP JUMPDEST DUP2 SLOAD DUP2 DUP4 SSTORE DUP2 DUP2 ISZERO GT PUSH2 0x61B JUMPI PUSH1 0x5 MUL DUP2 PUSH1 0x5 MUL DUP4 PUSH1 0x0 MSTORE PUSH1 0x20 PUSH1 0x0 KECCAK256 SWAP2 DUP3 ADD SWAP2 ADD PUSH2 0x61B SWAP2 SWAP1 PUSH2 0x620 JUMP JUMPDEST POP POP POP JUMP JUMPDEST PUSH2 0x66A SWAP2 SWAP1 JUMPDEST DUP1 DUP3 GT ISZERO PUSH2 0x666 JUMPI PUSH1 0x0 DUP1 DUP3 SSTORE PUSH1 0x1 DUP3 ADD DUP1 SLOAD PUSH20 0xFFFFFFFFFFFFFFFFFFFFFFFFFFFFFFFFFFFFFFFF NOT AND SWAP1 SSTORE PUSH1 0x2 DUP3 ADD DUP2 SWAP1 SSTORE PUSH1 0x3 DUP3 ADD SSTORE PUSH1 0x5 ADD PUSH2 0x626 JUMP JUMPDEST POP SWAP1 JUMP JUMPDEST SWAP1 JUMP STOP LOG1 PUSH6 0x627A7A723058 KECCAK256 0x48 PUSH11 0x198010BDFB44579BC5370B PUSH23 0x8C666E6EB52194C4E42D714CAEF3B5AD384A0029000000 "
        }
    },
    "methods": {
        "endTime": [],
        "getCharities": [],
        "startTime": [],
        "passedCharityId": [],
        "pass": [],
        "vote": [
            "_charityId",
            "_score"
        ],
        "addCharity": [
            "_name",
            "_address"
        ]
    }
}