{
    "abi": [
        {
            "constant": true,
            "inputs": [
                {
                    "name": "",
                    "type": "uint256"
                }
            ],
            "name": "raisings",
            "outputs": [
                {
                    "name": "_participant",
                    "type": "address"
                },
                {
                    "name": "_entries",
                    "type": "uint256"
                }
            ],
            "payable": false,
            "stateMutability": "view",
            "type": "function"
        },
        {
            "constant": true,
            "inputs": [
                {
                    "name": "",
                    "type": "address"
                }
            ],
            "name": "participants",
            "outputs": [
                {
                    "name": "_message",
                    "type": "bytes32"
                },
                {
                    "name": "_entries",
                    "type": "uint256"
                }
            ],
            "payable": false,
            "stateMutability": "view",
            "type": "function"
        },
        {
            "constant": false,
            "inputs": [
                {
                    "name": "_message",
                    "type": "bytes32"
                }
            ],
            "name": "participate",
            "outputs": [],
            "payable": true,
            "stateMutability": "payable",
            "type": "function"
        },
        {
            "constant": true,
            "inputs": [],
            "name": "deployment",
            "outputs": [
                {
                    "name": "_cause",
                    "type": "address"
                },
                {
                    "name": "_causeSplit",
                    "type": "uint256"
                },
                {
                    "name": "_participantSplit",
                    "type": "uint256"
                },
                {
                    "name": "_owner",
                    "type": "address"
                },
                {
                    "name": "_ownerSplit",
                    "type": "uint256"
                },
                {
                    "name": "_ownerSecret",
                    "type": "bytes32"
                },
                {
                    "name": "_valuePerEntry",
                    "type": "uint256"
                },
                {
                    "name": "_deployTime",
                    "type": "uint256"
                },
                {
                    "name": "_endTime",
                    "type": "uint256"
                },
                {
                    "name": "_expireTime",
                    "type": "uint256"
                },
                {
                    "name": "_destructTime",
                    "type": "uint256"
                },
                {
                    "name": "_maxParticipants",
                    "type": "uint256"
                }
            ],
            "payable": false,
            "stateMutability": "view",
            "type": "function"
        },
        {
            "constant": false,
            "inputs": [],
            "name": "withdraw",
            "outputs": [],
            "payable": false,
            "stateMutability": "nonpayable",
            "type": "function"
        },
        {
            "constant": true,
            "inputs": [
                {
                    "name": "",
                    "type": "uint256"
                }
            ],
            "name": "participantAddresses",
            "outputs": [
                {
                    "name": "",
                    "type": "address"
                }
            ],
            "payable": false,
            "stateMutability": "view",
            "type": "function"
        },
        {
            "constant": false,
            "inputs": [
                {
                    "name": "_message",
                    "type": "bytes32"
                }
            ],
            "name": "end",
            "outputs": [],
            "payable": false,
            "stateMutability": "nonpayable",
            "type": "function"
        },
        {
            "constant": false,
            "inputs": [
                {
                    "name": "_message",
                    "type": "bytes32"
                }
            ],
            "name": "reveal",
            "outputs": [],
            "payable": false,
            "stateMutability": "nonpayable",
            "type": "function"
        },
        {
            "constant": false,
            "inputs": [
                {
                    "name": "_secret",
                    "type": "bytes32"
                }
            ],
            "name": "begin",
            "outputs": [],
            "payable": false,
            "stateMutability": "nonpayable",
            "type": "function"
        },
        {
            "constant": false,
            "inputs": [],
            "name": "destroy",
            "outputs": [],
            "payable": false,
            "stateMutability": "nonpayable",
            "type": "function"
        },
        {
            "constant": true,
            "inputs": [],
            "name": "balance",
            "outputs": [
                {
                    "name": "",
                    "type": "uint256"
                }
            ],
            "payable": false,
            "stateMutability": "view",
            "type": "function"
        },
        {
            "constant": true,
            "inputs": [],
            "name": "state",
            "outputs": [
                {
                    "name": "_causeSecret",
                    "type": "bytes32"
                },
                {
                    "name": "_causeMessage",
                    "type": "bytes32"
                },
                {
                    "name": "_causeWithdrawn",
                    "type": "bool"
                },
                {
                    "name": "_participant",
                    "type": "address"
                },
                {
                    "name": "_participantMessage",
                    "type": "bytes32"
                },
                {
                    "name": "_participantWithdrawn",
                    "type": "bool"
                },
                {
                    "name": "_ownerMessage",
                    "type": "bytes32"
                },
                {
                    "name": "_ownerWithdrawn",
                    "type": "bool"
                },
                {
                    "name": "_cancelled",
                    "type": "bool"
                },
                {
                    "name": "_totalParticipants",
                    "type": "uint256"
                },
                {
                    "name": "_entries",
                    "type": "uint256"
                }
            ],
            "payable": false,
            "stateMutability": "view",
            "type": "function"
        },
        {
            "constant": false,
            "inputs": [],
            "name": "cancel",
            "outputs": [],
            "payable": false,
            "stateMutability": "nonpayable",
            "type": "function"
        },
        {
            "inputs": [
                {
                    "name": "_cause",
                    "type": "address"
                },
                {
                    "name": "_causeSplit",
                    "type": "uint256"
                },
                {
                    "name": "_participantSplit",
                    "type": "uint256"
                },
                {
                    "name": "_ownerSplit",
                    "type": "uint256"
                },
                {
                    "name": "_ownerSecret",
                    "type": "bytes32"
                },
                {
                    "name": "_valuePerEntry",
                    "type": "uint256"
                },
                {
                    "name": "_endTime",
                    "type": "uint256"
                },
                {
                    "name": "_expireTime",
                    "type": "uint256"
                },
                {
                    "name": "_destructTime",
                    "type": "uint256"
                },
                {
                    "name": "_maxParticipants",
                    "type": "uint256"
                }
            ],
            "payable": false,
            "stateMutability": "nonpayable",
            "type": "constructor"
        },
        {
            "payable": true,
            "stateMutability": "payable",
            "type": "fallback"
        },
        {
            "anonymous": false,
            "inputs": [
                {
                    "indexed": false,
                    "name": "_causeSecret",
                    "type": "bytes32"
                }
            ],
            "name": "Beginning",
            "type": "event"
        },
        {
            "anonymous": false,
            "inputs": [
                {
                    "indexed": false,
                    "name": "_participant",
                    "type": "address"
                },
                {
                    "indexed": false,
                    "name": "_message",
                    "type": "bytes32"
                },
                {
                    "indexed": false,
                    "name": "_entries",
                    "type": "uint256"
                },
                {
                    "indexed": false,
                    "name": "_refund",
                    "type": "uint256"
                }
            ],
            "name": "Participation",
            "type": "event"
        },
        {
            "anonymous": false,
            "inputs": [
                {
                    "indexed": false,
                    "name": "_participant",
                    "type": "address"
                },
                {
                    "indexed": false,
                    "name": "_entries",
                    "type": "uint256"
                },
                {
                    "indexed": false,
                    "name": "_refund",
                    "type": "uint256"
                }
            ],
            "name": "Raising",
            "type": "event"
        },
        {
            "anonymous": false,
            "inputs": [
                {
                    "indexed": false,
                    "name": "_causeMessage",
                    "type": "bytes32"
                }
            ],
            "name": "Revelation",
            "type": "event"
        },
        {
            "anonymous": false,
            "inputs": [
                {
                    "indexed": false,
                    "name": "_participant",
                    "type": "address"
                },
                {
                    "indexed": false,
                    "name": "_participantMessage",
                    "type": "bytes32"
                },
                {
                    "indexed": false,
                    "name": "_causeMessage",
                    "type": "bytes32"
                },
                {
                    "indexed": false,
                    "name": "_ownerMessage",
                    "type": "bytes32"
                }
            ],
            "name": "Selection",
            "type": "event"
        },
        {
            "anonymous": false,
            "inputs": [],
            "name": "Cancellation",
            "type": "event"
        },
        {
            "anonymous": false,
            "inputs": [
                {
                    "indexed": false,
                    "name": "_address",
                    "type": "address"
                }
            ],
            "name": "Withdrawal",
            "type": "event"
        }
    ],
    "evm": {
        "bytecode": {
            "linkReferences": {},
            "object": "6060604052341561000f57600080fd5b6040516101408061125983398101604052808051919060200180519190602001805191906020018051919060200180519190602001805191906020018051919060200180519190602001805191906020018051915050600160a060020a038a16151561007a57600080fd5b88151561008657600080fd5b87151561009257600080fd5b6103e88989018801146100a457600080fd5b8515156100b057600080fd5b8415156100bc57600080fd5b4284116100c857600080fd5b8383116100d457600080fd5b8282116100e057600080fd5b610180604051908101604052808b600160a060020a031681526020018a815260200189815260200133600160a060020a0316815260200188815260200187600019168152602001868152602001428152602001858152602001848152602001838152602001828152506000808201518154600160a060020a031916600160a060020a039190911617815560208201518160010155604082015181600201556060820151600382018054600160a060020a031916600160a060020a03929092169190911790556080820151816004015560a0820151600582015560c0820151816006015560e082015181600701556101008201518160080155610120820151816009015561014082015181600a0155610160820151600b909101555050505050505050505050611045806102146000396000f3006060604052600436106100c45763ffffffff7c010000000000000000000000000000000000000000000000000000000060003504166308f04d8f81146101c757806309e69ede146101ff5780630a14504c146102365780632dde9aca146102435780633ccfd60b146102c757806354ffbddb146102da5780637015913c1461030c578063701fd0f11461032257806375aa87051461033857806383197ef01461034e578063b69ef8a814610361578063c19d93fb14610386578063ea8a1af014610407575b6008546000908190819042106100d957600080fd5b60005433600160a060020a03908116911614156100f557600080fd5b60035433600160a060020a039081169116141561011157600080fd5b601354610100900460ff161561012657600080fd5b600f54151561013457600080fd5b600160a060020a0333166000908152600c602052604090208054909350151561015c57600080fd5b6101658361041a565b915091507f0b3dad1672ed61824dff3e48423946d89b64519aceebdfb3af0d0e51cd984a7e3383836040518084600160a060020a0316600160a060020a03168152602001838152602001828152602001935050505060405180910390a1505050005b34156101d257600080fd5b6101dd60043561049f565b604051600160a060020a03909216825260208201526040908101905180910390f35b341561020a57600080fd5b61021e600160a060020a03600435166104d5565b60405191825260208201526040908101905180910390f35b6102416004356104ee565b005b341561024e57600080fd5b610256610679565b604051600160a060020a039c8d168152602081019b909b526040808c019a909a5297909a1660608a0152608089019590955260a088019390935260c087019190915260e086015261010085015261012084015261014083019390935261016082019290925261018001905180910390f35b34156102d257600080fd5b6102416106b0565b34156102e557600080fd5b6102f0600435610838565b604051600160a060020a03909116815260200160405180910390f35b341561031757600080fd5b610241600435610860565b341561032d57600080fd5b610241600435610a43565b341561034357600080fd5b610241600435610af1565b341561035957600080fd5b610241610b83565b341561036c57600080fd5b610374610bb9565b60405190815260200160405180910390f35b341561039157600080fd5b610399610cf4565b6040519a8b5260208b01999099529615156040808b0191909152600160a060020a0390961660608a0152608089019490945291151560a088015260c0870152151560e08601521515610100850152610120840191909152610140830191909152610160909101905180910390f35b341561041257600080fd5b610241610d5e565b6000806000600601543481151561042d57fe5b049150600182101561043e57600080fd5b6001830180548301905560148054830190556006543481151561045d57fe5b069050600081111561049a57600160a060020a03331681156108fc0282604051600060405180830381858888f19350505050151561049a57600080fd5b915091565b600e8054829081106104ad57fe5b600091825260209091206002909102018054600190910154600160a060020a03909116915082565b600c602052600090815260409020805460019091015482565b60085460009081908190421061050357600080fd5b60005433600160a060020a039081169116141561051f57600080fd5b60035433600160a060020a039081169116141561053b57600080fd5b601354610100900460ff161561055057600080fd5b600f54151561055e57600080fd5b83151561056a57600080fd5b600b54158061057c5750600b54600d54105b151561058757600080fd5b600160a060020a0333166000908152600c602052604090206001810154909350156105b157600080fd5b8254156105bd57600080fd5b6105c68361041a565b858555600d805492945090925090600181016105e28382610fa6565b506000918252602090912001805473ffffffffffffffffffffffffffffffffffffffff191633600160a060020a038116919091179091557f6f75810cfd16e411e8e12bc62c9265a590ce60215e3ccd143073b4e70213594590858484604051600160a060020a039094168452602084019290925260408084019190915260608301919091526080909101905180910390a150505050565b600054600154600254600354600454600554600654600754600854600954600a54600b54600160a060020a039b8c169b909816978c565b6000806106bb610bb9565b9150600082116106ca57600080fd5b6011546101009004600160a060020a0316156107945760005433600160a060020a0390811691161415610709576011805460ff1916600117905561078f565b60115433600160a060020a03908116610100909204161415610761576011805475ff0000000000000000000000000000000000000000001916750100000000000000000000000000000000000000000017905561078f565b60035433600160a060020a039081169116141561078a576013805460ff1916600117905561078f565b600080fd5b6107c6565b601354610100900460ff161561078a5750600160a060020a0333166000908152600c6020526040812060018101919091555b600160a060020a03331682156108fc0283604051600060405180830381858888f1935050505015156107f757600080fd5b7fe19ed71156e31b3c9e18ac7ad8d1b79f0a0feb3be18d23dae612e52040aada4b33604051600160a060020a03909116815260200160405180910390a15050565b600d80548290811061084657fe5b600091825260209091200154600160a060020a0316905081565b610868610fcf565b600080600080610876610fe1565b6008544210801590610889575060095442105b151561089457600080fd5b60035433600160a060020a039081169116146108af57600080fd5b601354610100900460ff16156108c457600080fd5b60105415156108d257600080fd5b601254156108df57600080fd5b6005546108ec9088610e1c565b15156108f757600080fd5b6012879055600d5460405180591061090c5750595b9080825280602002602001820160405250955061092886610e59565b6010546014549196508618881894508481151561094157fe5b06925061094e8387610f0e565b9150600d8281548110151561095f57fe5b6000918252602080832091909101546011805474ffffffffffffffffffffffffffffffffffffffff001916610100600160a060020a03938416810291909117918290559004168252600c90526040908190209080519081016040528154815260019091015460208201526011549091507f7c195d9d8ca6f7aedfce85403a18bad6de0c1b5864a97fa635ae120b4eb4f8c3906101009004600160a060020a031682516010548a604051600160a060020a039094168452602084019290925260408084019190915260608301919091526080909101905180910390a150505050505050565b6008544210801590610a56575060095442105b1515610a6157600080fd5b60005433600160a060020a03908116911614610a7c57600080fd5b601354610100900460ff1615610a9157600080fd5b60105415610a9e57600080fd5b600f54610aab9082610e1c565b1515610ab657600080fd5b60108190557f83985f84fec43f6c4b0b122be29b8625fc89e54a2fb6ba2b76a2751c1c7874d98160405190815260200160405180910390a150565b6008544210610aff57600080fd5b60005433600160a060020a03908116911614610b1a57600080fd5b601354610100900460ff1615610b2f57600080fd5b600f5415610b3c57600080fd5b801515610b4857600080fd5b600f8190557f451914e591226064706dfee5bbea9f69833323aa4ef98870f5ec98f5e3fdde968160405190815260200160405180910390a150565b600a54421015610b9257600080fd5b60035433600160a060020a03908116911614610bad57600080fd5b33600160a060020a0316ff5b601154600090819081906101009004600160a060020a031615610cb15760005433600160a060020a0390811691161415610c0b5760115460ff1615610c015760009250610cef565b6001549150610c9c565b60115433600160a060020a03908116610100909204161415610c5e576011547501000000000000000000000000000000000000000000900460ff1615610c545760009250610cef565b6002549150610c9c565b60035433600160a060020a0390811691161415610c935760135460ff1615610c895760009250610cef565b6004549150610c9c565b60009250610cef565b6006546014546103e891028302049250610cef565b601354610100900460ff1615610cea5750600160a060020a0333166000908152600c602052604090206006546001820154029250610cef565b600092505b505090565b600f54601054601154610100808204600160a060020a03166000818152600c6020526040902054601254601354600d546014549899979860ff8089169996989597750100000000000000000000000000000000000000000090960481169694958185169594041692565b601354610100900460ff1615610d7357600080fd5b6011546101009004600160a060020a031615610d8e57600080fd5b60035433600160a060020a03908116911614801590610dbc575060005433600160a060020a03908116911614155b15610ddf576009544210801590610dd45750600a5442105b1515610ddf57600080fd5b6013805461ff0019166101001790557f4a19036f5b4d75256c1c24150a8254bd3c2bdb1eaeeec4523e927f0ab1cdd05460405160405180910390a1565b60008133604051918252600160a060020a03166c010000000000000000000000000260208201526034016040519081900390208314905092915050565b6000806000806000610e69610fe1565b600094508493508392505b600d54831015610f0357600d805484908110610e8c57fe5b6000918252602080832090910154600160a060020a0316808352600c909152604091829020909350908051908101604052815481526001909101546020820152905084878481518110610edb57fe5b9060200190602002018181525050806020015190940193805190931892600190920191610e74565b509195945050505050565b600d5460009081908190819081908190600019015b80821415610f3357819650610f9a565b60028282030482019350836001019250878481518110610f4f57fe5b906020019060200201519550878381518110610f6757fe5b906020019060200201519450858910610f925784891015610f8a57839650610f9a565b829150610f95565b50825b610f23565b50505050505092915050565b815481835581811511610fca57600083815260209020610fca918101908301610ff8565b505050565b60206040519081016040526000815290565b604080519081016040526000808252602082015290565b61101691905b808211156110125760008155600101610ffe565b5090565b905600a165627a7a723058208c6e90e26861bc321eb63e770e28dc48e5ccd92c6999f580b85e3032bf3cebd10029",
            "opcodes": "PUSH1 0x60 PUSH1 0x40 MSTORE CALLVALUE ISZERO PUSH2 0xF JUMPI PUSH1 0x0 DUP1 REVERT JUMPDEST PUSH1 0x40 MLOAD PUSH2 0x140 DUP1 PUSH2 0x1259 DUP4 CODECOPY DUP2 ADD PUSH1 0x40 MSTORE DUP1 DUP1 MLOAD SWAP2 SWAP1 PUSH1 0x20 ADD DUP1 MLOAD SWAP2 SWAP1 PUSH1 0x20 ADD DUP1 MLOAD SWAP2 SWAP1 PUSH1 0x20 ADD DUP1 MLOAD SWAP2 SWAP1 PUSH1 0x20 ADD DUP1 MLOAD SWAP2 SWAP1 PUSH1 0x20 ADD DUP1 MLOAD SWAP2 SWAP1 PUSH1 0x20 ADD DUP1 MLOAD SWAP2 SWAP1 PUSH1 0x20 ADD DUP1 MLOAD SWAP2 SWAP1 PUSH1 0x20 ADD DUP1 MLOAD SWAP2 SWAP1 PUSH1 0x20 ADD DUP1 MLOAD SWAP2 POP POP PUSH1 0x1 PUSH1 0xA0 PUSH1 0x2 EXP SUB DUP11 AND ISZERO ISZERO PUSH2 0x7A JUMPI PUSH1 0x0 DUP1 REVERT JUMPDEST DUP9 ISZERO ISZERO PUSH2 0x86 JUMPI PUSH1 0x0 DUP1 REVERT JUMPDEST DUP8 ISZERO ISZERO PUSH2 0x92 JUMPI PUSH1 0x0 DUP1 REVERT JUMPDEST PUSH2 0x3E8 DUP10 DUP10 ADD DUP9 ADD EQ PUSH2 0xA4 JUMPI PUSH1 0x0 DUP1 REVERT JUMPDEST DUP6 ISZERO ISZERO PUSH2 0xB0 JUMPI PUSH1 0x0 DUP1 REVERT JUMPDEST DUP5 ISZERO ISZERO PUSH2 0xBC JUMPI PUSH1 0x0 DUP1 REVERT JUMPDEST TIMESTAMP DUP5 GT PUSH2 0xC8 JUMPI PUSH1 0x0 DUP1 REVERT JUMPDEST DUP4 DUP4 GT PUSH2 0xD4 JUMPI PUSH1 0x0 DUP1 REVERT JUMPDEST DUP3 DUP3 GT PUSH2 0xE0 JUMPI PUSH1 0x0 DUP1 REVERT JUMPDEST PUSH2 0x180 PUSH1 0x40 MLOAD SWAP1 DUP2 ADD PUSH1 0x40 MSTORE DUP1 DUP12 PUSH1 0x1 PUSH1 0xA0 PUSH1 0x2 EXP SUB AND DUP2 MSTORE PUSH1 0x20 ADD DUP11 DUP2 MSTORE PUSH1 0x20 ADD DUP10 DUP2 MSTORE PUSH1 0x20 ADD CALLER PUSH1 0x1 PUSH1 0xA0 PUSH1 0x2 EXP SUB AND DUP2 MSTORE PUSH1 0x20 ADD DUP9 DUP2 MSTORE PUSH1 0x20 ADD DUP8 PUSH1 0x0 NOT AND DUP2 MSTORE PUSH1 0x20 ADD DUP7 DUP2 MSTORE PUSH1 0x20 ADD TIMESTAMP DUP2 MSTORE PUSH1 0x20 ADD DUP6 DUP2 MSTORE PUSH1 0x20 ADD DUP5 DUP2 MSTORE PUSH1 0x20 ADD DUP4 DUP2 MSTORE PUSH1 0x20 ADD DUP3 DUP2 MSTORE POP PUSH1 0x0 DUP1 DUP3 ADD MLOAD DUP2 SLOAD PUSH1 0x1 PUSH1 0xA0 PUSH1 0x2 EXP SUB NOT AND PUSH1 0x1 PUSH1 0xA0 PUSH1 0x2 EXP SUB SWAP2 SWAP1 SWAP2 AND OR DUP2 SSTORE PUSH1 0x20 DUP3 ADD MLOAD DUP2 PUSH1 0x1 ADD SSTORE PUSH1 0x40 DUP3 ADD MLOAD DUP2 PUSH1 0x2 ADD SSTORE PUSH1 0x60 DUP3 ADD MLOAD PUSH1 0x3 DUP3 ADD DUP1 SLOAD PUSH1 0x1 PUSH1 0xA0 PUSH1 0x2 EXP SUB NOT AND PUSH1 0x1 PUSH1 0xA0 PUSH1 0x2 EXP SUB SWAP3 SWAP1 SWAP3 AND SWAP2 SWAP1 SWAP2 OR SWAP1 SSTORE PUSH1 0x80 DUP3 ADD MLOAD DUP2 PUSH1 0x4 ADD SSTORE PUSH1 0xA0 DUP3 ADD MLOAD PUSH1 0x5 DUP3 ADD SSTORE PUSH1 0xC0 DUP3 ADD MLOAD DUP2 PUSH1 0x6 ADD SSTORE PUSH1 0xE0 DUP3 ADD MLOAD DUP2 PUSH1 0x7 ADD SSTORE PUSH2 0x100 DUP3 ADD MLOAD DUP2 PUSH1 0x8 ADD SSTORE PUSH2 0x120 DUP3 ADD MLOAD DUP2 PUSH1 0x9 ADD SSTORE PUSH2 0x140 DUP3 ADD MLOAD DUP2 PUSH1 0xA ADD SSTORE PUSH2 0x160 DUP3 ADD MLOAD PUSH1 0xB SWAP1 SWAP2 ADD SSTORE POP POP POP POP POP POP POP POP POP POP POP PUSH2 0x1045 DUP1 PUSH2 0x214 PUSH1 0x0 CODECOPY PUSH1 0x0 RETURN STOP PUSH1 0x60 PUSH1 0x40 MSTORE PUSH1 0x4 CALLDATASIZE LT PUSH2 0xC4 JUMPI PUSH4 0xFFFFFFFF PUSH29 0x100000000000000000000000000000000000000000000000000000000 PUSH1 0x0 CALLDATALOAD DIV AND PUSH4 0x8F04D8F DUP2 EQ PUSH2 0x1C7 JUMPI DUP1 PUSH4 0x9E69EDE EQ PUSH2 0x1FF JUMPI DUP1 PUSH4 0xA14504C EQ PUSH2 0x236 JUMPI DUP1 PUSH4 0x2DDE9ACA EQ PUSH2 0x243 JUMPI DUP1 PUSH4 0x3CCFD60B EQ PUSH2 0x2C7 JUMPI DUP1 PUSH4 0x54FFBDDB EQ PUSH2 0x2DA JUMPI DUP1 PUSH4 0x7015913C EQ PUSH2 0x30C JUMPI DUP1 PUSH4 0x701FD0F1 EQ PUSH2 0x322 JUMPI DUP1 PUSH4 0x75AA8705 EQ PUSH2 0x338 JUMPI DUP1 PUSH4 0x83197EF0 EQ PUSH2 0x34E JUMPI DUP1 PUSH4 0xB69EF8A8 EQ PUSH2 0x361 JUMPI DUP1 PUSH4 0xC19D93FB EQ PUSH2 0x386 JUMPI DUP1 PUSH4 0xEA8A1AF0 EQ PUSH2 0x407 JUMPI JUMPDEST PUSH1 0x8 SLOAD PUSH1 0x0 SWAP1 DUP2 SWAP1 DUP2 SWAP1 TIMESTAMP LT PUSH2 0xD9 JUMPI PUSH1 0x0 DUP1 REVERT JUMPDEST PUSH1 0x0 SLOAD CALLER PUSH1 0x1 PUSH1 0xA0 PUSH1 0x2 EXP SUB SWAP1 DUP2 AND SWAP2 AND EQ ISZERO PUSH2 0xF5 JUMPI PUSH1 0x0 DUP1 REVERT JUMPDEST PUSH1 0x3 SLOAD CALLER PUSH1 0x1 PUSH1 0xA0 PUSH1 0x2 EXP SUB SWAP1 DUP2 AND SWAP2 AND EQ ISZERO PUSH2 0x111 JUMPI PUSH1 0x0 DUP1 REVERT JUMPDEST PUSH1 0x13 SLOAD PUSH2 0x100 SWAP1 DIV PUSH1 0xFF AND ISZERO PUSH2 0x126 JUMPI PUSH1 0x0 DUP1 REVERT JUMPDEST PUSH1 0xF SLOAD ISZERO ISZERO PUSH2 0x134 JUMPI PUSH1 0x0 DUP1 REVERT JUMPDEST PUSH1 0x1 PUSH1 0xA0 PUSH1 0x2 EXP SUB CALLER AND PUSH1 0x0 SWAP1 DUP2 MSTORE PUSH1 0xC PUSH1 0x20 MSTORE PUSH1 0x40 SWAP1 KECCAK256 DUP1 SLOAD SWAP1 SWAP4 POP ISZERO ISZERO PUSH2 0x15C JUMPI PUSH1 0x0 DUP1 REVERT JUMPDEST PUSH2 0x165 DUP4 PUSH2 0x41A JUMP JUMPDEST SWAP2 POP SWAP2 POP PUSH32 0xB3DAD1672ED61824DFF3E48423946D89B64519ACEEBDFB3AF0D0E51CD984A7E CALLER DUP4 DUP4 PUSH1 0x40 MLOAD DUP1 DUP5 PUSH1 0x1 PUSH1 0xA0 PUSH1 0x2 EXP SUB AND PUSH1 0x1 PUSH1 0xA0 PUSH1 0x2 EXP SUB AND DUP2 MSTORE PUSH1 0x20 ADD DUP4 DUP2 MSTORE PUSH1 0x20 ADD DUP3 DUP2 MSTORE PUSH1 0x20 ADD SWAP4 POP POP POP POP PUSH1 0x40 MLOAD DUP1 SWAP2 SUB SWAP1 LOG1 POP POP POP STOP JUMPDEST CALLVALUE ISZERO PUSH2 0x1D2 JUMPI PUSH1 0x0 DUP1 REVERT JUMPDEST PUSH2 0x1DD PUSH1 0x4 CALLDATALOAD PUSH2 0x49F JUMP JUMPDEST PUSH1 0x40 MLOAD PUSH1 0x1 PUSH1 0xA0 PUSH1 0x2 EXP SUB SWAP1 SWAP3 AND DUP3 MSTORE PUSH1 0x20 DUP3 ADD MSTORE PUSH1 0x40 SWAP1 DUP2 ADD SWAP1 MLOAD DUP1 SWAP2 SUB SWAP1 RETURN JUMPDEST CALLVALUE ISZERO PUSH2 0x20A JUMPI PUSH1 0x0 DUP1 REVERT JUMPDEST PUSH2 0x21E PUSH1 0x1 PUSH1 0xA0 PUSH1 0x2 EXP SUB PUSH1 0x4 CALLDATALOAD AND PUSH2 0x4D5 JUMP JUMPDEST PUSH1 0x40 MLOAD SWAP2 DUP3 MSTORE PUSH1 0x20 DUP3 ADD MSTORE PUSH1 0x40 SWAP1 DUP2 ADD SWAP1 MLOAD DUP1 SWAP2 SUB SWAP1 RETURN JUMPDEST PUSH2 0x241 PUSH1 0x4 CALLDATALOAD PUSH2 0x4EE JUMP JUMPDEST STOP JUMPDEST CALLVALUE ISZERO PUSH2 0x24E JUMPI PUSH1 0x0 DUP1 REVERT JUMPDEST PUSH2 0x256 PUSH2 0x679 JUMP JUMPDEST PUSH1 0x40 MLOAD PUSH1 0x1 PUSH1 0xA0 PUSH1 0x2 EXP SUB SWAP13 DUP14 AND DUP2 MSTORE PUSH1 0x20 DUP2 ADD SWAP12 SWAP1 SWAP12 MSTORE PUSH1 0x40 DUP1 DUP13 ADD SWAP11 SWAP1 SWAP11 MSTORE SWAP8 SWAP1 SWAP11 AND PUSH1 0x60 DUP11 ADD MSTORE PUSH1 0x80 DUP10 ADD SWAP6 SWAP1 SWAP6 MSTORE PUSH1 0xA0 DUP9 ADD SWAP4 SWAP1 SWAP4 MSTORE PUSH1 0xC0 DUP8 ADD SWAP2 SWAP1 SWAP2 MSTORE PUSH1 0xE0 DUP7 ADD MSTORE PUSH2 0x100 DUP6 ADD MSTORE PUSH2 0x120 DUP5 ADD MSTORE PUSH2 0x140 DUP4 ADD SWAP4 SWAP1 SWAP4 MSTORE PUSH2 0x160 DUP3 ADD SWAP3 SWAP1 SWAP3 MSTORE PUSH2 0x180 ADD SWAP1 MLOAD DUP1 SWAP2 SUB SWAP1 RETURN JUMPDEST CALLVALUE ISZERO PUSH2 0x2D2 JUMPI PUSH1 0x0 DUP1 REVERT JUMPDEST PUSH2 0x241 PUSH2 0x6B0 JUMP JUMPDEST CALLVALUE ISZERO PUSH2 0x2E5 JUMPI PUSH1 0x0 DUP1 REVERT JUMPDEST PUSH2 0x2F0 PUSH1 0x4 CALLDATALOAD PUSH2 0x838 JUMP JUMPDEST PUSH1 0x40 MLOAD PUSH1 0x1 PUSH1 0xA0 PUSH1 0x2 EXP SUB SWAP1 SWAP2 AND DUP2 MSTORE PUSH1 0x20 ADD PUSH1 0x40 MLOAD DUP1 SWAP2 SUB SWAP1 RETURN JUMPDEST CALLVALUE ISZERO PUSH2 0x317 JUMPI PUSH1 0x0 DUP1 REVERT JUMPDEST PUSH2 0x241 PUSH1 0x4 CALLDATALOAD PUSH2 0x860 JUMP JUMPDEST CALLVALUE ISZERO PUSH2 0x32D JUMPI PUSH1 0x0 DUP1 REVERT JUMPDEST PUSH2 0x241 PUSH1 0x4 CALLDATALOAD PUSH2 0xA43 JUMP JUMPDEST CALLVALUE ISZERO PUSH2 0x343 JUMPI PUSH1 0x0 DUP1 REVERT JUMPDEST PUSH2 0x241 PUSH1 0x4 CALLDATALOAD PUSH2 0xAF1 JUMP JUMPDEST CALLVALUE ISZERO PUSH2 0x359 JUMPI PUSH1 0x0 DUP1 REVERT JUMPDEST PUSH2 0x241 PUSH2 0xB83 JUMP JUMPDEST CALLVALUE ISZERO PUSH2 0x36C JUMPI PUSH1 0x0 DUP1 REVERT JUMPDEST PUSH2 0x374 PUSH2 0xBB9 JUMP JUMPDEST PUSH1 0x40 MLOAD SWAP1 DUP2 MSTORE PUSH1 0x20 ADD PUSH1 0x40 MLOAD DUP1 SWAP2 SUB SWAP1 RETURN JUMPDEST CALLVALUE ISZERO PUSH2 0x391 JUMPI PUSH1 0x0 DUP1 REVERT JUMPDEST PUSH2 0x399 PUSH2 0xCF4 JUMP JUMPDEST PUSH1 0x40 MLOAD SWAP11 DUP12 MSTORE PUSH1 0x20 DUP12 ADD SWAP10 SWAP1 SWAP10 MSTORE SWAP7 ISZERO ISZERO PUSH1 0x40 DUP1 DUP12 ADD SWAP2 SWAP1 SWAP2 MSTORE PUSH1 0x1 PUSH1 0xA0 PUSH1 0x2 EXP SUB SWAP1 SWAP7 AND PUSH1 0x60 DUP11 ADD MSTORE PUSH1 0x80 DUP10 ADD SWAP5 SWAP1 SWAP5 MSTORE SWAP2 ISZERO ISZERO PUSH1 0xA0 DUP9 ADD MSTORE PUSH1 0xC0 DUP8 ADD MSTORE ISZERO ISZERO PUSH1 0xE0 DUP7 ADD MSTORE ISZERO ISZERO PUSH2 0x100 DUP6 ADD MSTORE PUSH2 0x120 DUP5 ADD SWAP2 SWAP1 SWAP2 MSTORE PUSH2 0x140 DUP4 ADD SWAP2 SWAP1 SWAP2 MSTORE PUSH2 0x160 SWAP1 SWAP2 ADD SWAP1 MLOAD DUP1 SWAP2 SUB SWAP1 RETURN JUMPDEST CALLVALUE ISZERO PUSH2 0x412 JUMPI PUSH1 0x0 DUP1 REVERT JUMPDEST PUSH2 0x241 PUSH2 0xD5E JUMP JUMPDEST PUSH1 0x0 DUP1 PUSH1 0x0 PUSH1 0x6 ADD SLOAD CALLVALUE DUP2 ISZERO ISZERO PUSH2 0x42D JUMPI INVALID JUMPDEST DIV SWAP2 POP PUSH1 0x1 DUP3 LT ISZERO PUSH2 0x43E JUMPI PUSH1 0x0 DUP1 REVERT JUMPDEST PUSH1 0x1 DUP4 ADD DUP1 SLOAD DUP4 ADD SWAP1 SSTORE PUSH1 0x14 DUP1 SLOAD DUP4 ADD SWAP1 SSTORE PUSH1 0x6 SLOAD CALLVALUE DUP2 ISZERO ISZERO PUSH2 0x45D JUMPI INVALID JUMPDEST MOD SWAP1 POP PUSH1 0x0 DUP2 GT ISZERO PUSH2 0x49A JUMPI PUSH1 0x1 PUSH1 0xA0 PUSH1 0x2 EXP SUB CALLER AND DUP2 ISZERO PUSH2 0x8FC MUL DUP3 PUSH1 0x40 MLOAD PUSH1 0x0 PUSH1 0x40 MLOAD DUP1 DUP4 SUB DUP2 DUP6 DUP9 DUP9 CALL SWAP4 POP POP POP POP ISZERO ISZERO PUSH2 0x49A JUMPI PUSH1 0x0 DUP1 REVERT JUMPDEST SWAP2 POP SWAP2 JUMP JUMPDEST PUSH1 0xE DUP1 SLOAD DUP3 SWAP1 DUP2 LT PUSH2 0x4AD JUMPI INVALID JUMPDEST PUSH1 0x0 SWAP2 DUP3 MSTORE PUSH1 0x20 SWAP1 SWAP2 KECCAK256 PUSH1 0x2 SWAP1 SWAP2 MUL ADD DUP1 SLOAD PUSH1 0x1 SWAP1 SWAP2 ADD SLOAD PUSH1 0x1 PUSH1 0xA0 PUSH1 0x2 EXP SUB SWAP1 SWAP2 AND SWAP2 POP DUP3 JUMP JUMPDEST PUSH1 0xC PUSH1 0x20 MSTORE PUSH1 0x0 SWAP1 DUP2 MSTORE PUSH1 0x40 SWAP1 KECCAK256 DUP1 SLOAD PUSH1 0x1 SWAP1 SWAP2 ADD SLOAD DUP3 JUMP JUMPDEST PUSH1 0x8 SLOAD PUSH1 0x0 SWAP1 DUP2 SWAP1 DUP2 SWAP1 TIMESTAMP LT PUSH2 0x503 JUMPI PUSH1 0x0 DUP1 REVERT JUMPDEST PUSH1 0x0 SLOAD CALLER PUSH1 0x1 PUSH1 0xA0 PUSH1 0x2 EXP SUB SWAP1 DUP2 AND SWAP2 AND EQ ISZERO PUSH2 0x51F JUMPI PUSH1 0x0 DUP1 REVERT JUMPDEST PUSH1 0x3 SLOAD CALLER PUSH1 0x1 PUSH1 0xA0 PUSH1 0x2 EXP SUB SWAP1 DUP2 AND SWAP2 AND EQ ISZERO PUSH2 0x53B JUMPI PUSH1 0x0 DUP1 REVERT JUMPDEST PUSH1 0x13 SLOAD PUSH2 0x100 SWAP1 DIV PUSH1 0xFF AND ISZERO PUSH2 0x550 JUMPI PUSH1 0x0 DUP1 REVERT JUMPDEST PUSH1 0xF SLOAD ISZERO ISZERO PUSH2 0x55E JUMPI PUSH1 0x0 DUP1 REVERT JUMPDEST DUP4 ISZERO ISZERO PUSH2 0x56A JUMPI PUSH1 0x0 DUP1 REVERT JUMPDEST PUSH1 0xB SLOAD ISZERO DUP1 PUSH2 0x57C JUMPI POP PUSH1 0xB SLOAD PUSH1 0xD SLOAD LT JUMPDEST ISZERO ISZERO PUSH2 0x587 JUMPI PUSH1 0x0 DUP1 REVERT JUMPDEST PUSH1 0x1 PUSH1 0xA0 PUSH1 0x2 EXP SUB CALLER AND PUSH1 0x0 SWAP1 DUP2 MSTORE PUSH1 0xC PUSH1 0x20 MSTORE PUSH1 0x40 SWAP1 KECCAK256 PUSH1 0x1 DUP2 ADD SLOAD SWAP1 SWAP4 POP ISZERO PUSH2 0x5B1 JUMPI PUSH1 0x0 DUP1 REVERT JUMPDEST DUP3 SLOAD ISZERO PUSH2 0x5BD JUMPI PUSH1 0x0 DUP1 REVERT JUMPDEST PUSH2 0x5C6 DUP4 PUSH2 0x41A JUMP JUMPDEST DUP6 DUP6 SSTORE PUSH1 0xD DUP1 SLOAD SWAP3 SWAP5 POP SWAP1 SWAP3 POP SWAP1 PUSH1 0x1 DUP2 ADD PUSH2 0x5E2 DUP4 DUP3 PUSH2 0xFA6 JUMP JUMPDEST POP PUSH1 0x0 SWAP2 DUP3 MSTORE PUSH1 0x20 SWAP1 SWAP2 KECCAK256 ADD DUP1 SLOAD PUSH20 0xFFFFFFFFFFFFFFFFFFFFFFFFFFFFFFFFFFFFFFFF NOT AND CALLER PUSH1 0x1 PUSH1 0xA0 PUSH1 0x2 EXP SUB DUP2 AND SWAP2 SWAP1 SWAP2 OR SWAP1 SWAP2 SSTORE PUSH32 0x6F75810CFD16E411E8E12BC62C9265A590CE60215E3CCD143073B4E702135945 SWAP1 DUP6 DUP5 DUP5 PUSH1 0x40 MLOAD PUSH1 0x1 PUSH1 0xA0 PUSH1 0x2 EXP SUB SWAP1 SWAP5 AND DUP5 MSTORE PUSH1 0x20 DUP5 ADD SWAP3 SWAP1 SWAP3 MSTORE PUSH1 0x40 DUP1 DUP5 ADD SWAP2 SWAP1 SWAP2 MSTORE PUSH1 0x60 DUP4 ADD SWAP2 SWAP1 SWAP2 MSTORE PUSH1 0x80 SWAP1 SWAP2 ADD SWAP1 MLOAD DUP1 SWAP2 SUB SWAP1 LOG1 POP POP POP POP JUMP JUMPDEST PUSH1 0x0 SLOAD PUSH1 0x1 SLOAD PUSH1 0x2 SLOAD PUSH1 0x3 SLOAD PUSH1 0x4 SLOAD PUSH1 0x5 SLOAD PUSH1 0x6 SLOAD PUSH1 0x7 SLOAD PUSH1 0x8 SLOAD PUSH1 0x9 SLOAD PUSH1 0xA SLOAD PUSH1 0xB SLOAD PUSH1 0x1 PUSH1 0xA0 PUSH1 0x2 EXP SUB SWAP12 DUP13 AND SWAP12 SWAP1 SWAP9 AND SWAP8 DUP13 JUMP JUMPDEST PUSH1 0x0 DUP1 PUSH2 0x6BB PUSH2 0xBB9 JUMP JUMPDEST SWAP2 POP PUSH1 0x0 DUP3 GT PUSH2 0x6CA JUMPI PUSH1 0x0 DUP1 REVERT JUMPDEST PUSH1 0x11 SLOAD PUSH2 0x100 SWAP1 DIV PUSH1 0x1 PUSH1 0xA0 PUSH1 0x2 EXP SUB AND ISZERO PUSH2 0x794 JUMPI PUSH1 0x0 SLOAD CALLER PUSH1 0x1 PUSH1 0xA0 PUSH1 0x2 EXP SUB SWAP1 DUP2 AND SWAP2 AND EQ ISZERO PUSH2 0x709 JUMPI PUSH1 0x11 DUP1 SLOAD PUSH1 0xFF NOT AND PUSH1 0x1 OR SWAP1 SSTORE PUSH2 0x78F JUMP JUMPDEST PUSH1 0x11 SLOAD CALLER PUSH1 0x1 PUSH1 0xA0 PUSH1 0x2 EXP SUB SWAP1 DUP2 AND PUSH2 0x100 SWAP1 SWAP3 DIV AND EQ ISZERO PUSH2 0x761 JUMPI PUSH1 0x11 DUP1 SLOAD PUSH22 0xFF000000000000000000000000000000000000000000 NOT AND PUSH22 0x1000000000000000000000000000000000000000000 OR SWAP1 SSTORE PUSH2 0x78F JUMP JUMPDEST PUSH1 0x3 SLOAD CALLER PUSH1 0x1 PUSH1 0xA0 PUSH1 0x2 EXP SUB SWAP1 DUP2 AND SWAP2 AND EQ ISZERO PUSH2 0x78A JUMPI PUSH1 0x13 DUP1 SLOAD PUSH1 0xFF NOT AND PUSH1 0x1 OR SWAP1 SSTORE PUSH2 0x78F JUMP JUMPDEST PUSH1 0x0 DUP1 REVERT JUMPDEST PUSH2 0x7C6 JUMP JUMPDEST PUSH1 0x13 SLOAD PUSH2 0x100 SWAP1 DIV PUSH1 0xFF AND ISZERO PUSH2 0x78A JUMPI POP PUSH1 0x1 PUSH1 0xA0 PUSH1 0x2 EXP SUB CALLER AND PUSH1 0x0 SWAP1 DUP2 MSTORE PUSH1 0xC PUSH1 0x20 MSTORE PUSH1 0x40 DUP2 KECCAK256 PUSH1 0x1 DUP2 ADD SWAP2 SWAP1 SWAP2 SSTORE JUMPDEST PUSH1 0x1 PUSH1 0xA0 PUSH1 0x2 EXP SUB CALLER AND DUP3 ISZERO PUSH2 0x8FC MUL DUP4 PUSH1 0x40 MLOAD PUSH1 0x0 PUSH1 0x40 MLOAD DUP1 DUP4 SUB DUP2 DUP6 DUP9 DUP9 CALL SWAP4 POP POP POP POP ISZERO ISZERO PUSH2 0x7F7 JUMPI PUSH1 0x0 DUP1 REVERT JUMPDEST PUSH32 0xE19ED71156E31B3C9E18AC7AD8D1B79F0A0FEB3BE18D23DAE612E52040AADA4B CALLER PUSH1 0x40 MLOAD PUSH1 0x1 PUSH1 0xA0 PUSH1 0x2 EXP SUB SWAP1 SWAP2 AND DUP2 MSTORE PUSH1 0x20 ADD PUSH1 0x40 MLOAD DUP1 SWAP2 SUB SWAP1 LOG1 POP POP JUMP JUMPDEST PUSH1 0xD DUP1 SLOAD DUP3 SWAP1 DUP2 LT PUSH2 0x846 JUMPI INVALID JUMPDEST PUSH1 0x0 SWAP2 DUP3 MSTORE PUSH1 0x20 SWAP1 SWAP2 KECCAK256 ADD SLOAD PUSH1 0x1 PUSH1 0xA0 PUSH1 0x2 EXP SUB AND SWAP1 POP DUP2 JUMP JUMPDEST PUSH2 0x868 PUSH2 0xFCF JUMP JUMPDEST PUSH1 0x0 DUP1 PUSH1 0x0 DUP1 PUSH2 0x876 PUSH2 0xFE1 JUMP JUMPDEST PUSH1 0x8 SLOAD TIMESTAMP LT DUP1 ISZERO SWAP1 PUSH2 0x889 JUMPI POP PUSH1 0x9 SLOAD TIMESTAMP LT JUMPDEST ISZERO ISZERO PUSH2 0x894 JUMPI PUSH1 0x0 DUP1 REVERT JUMPDEST PUSH1 0x3 SLOAD CALLER PUSH1 0x1 PUSH1 0xA0 PUSH1 0x2 EXP SUB SWAP1 DUP2 AND SWAP2 AND EQ PUSH2 0x8AF JUMPI PUSH1 0x0 DUP1 REVERT JUMPDEST PUSH1 0x13 SLOAD PUSH2 0x100 SWAP1 DIV PUSH1 0xFF AND ISZERO PUSH2 0x8C4 JUMPI PUSH1 0x0 DUP1 REVERT JUMPDEST PUSH1 0x10 SLOAD ISZERO ISZERO PUSH2 0x8D2 JUMPI PUSH1 0x0 DUP1 REVERT JUMPDEST PUSH1 0x12 SLOAD ISZERO PUSH2 0x8DF JUMPI PUSH1 0x0 DUP1 REVERT JUMPDEST PUSH1 0x5 SLOAD PUSH2 0x8EC SWAP1 DUP9 PUSH2 0xE1C JUMP JUMPDEST ISZERO ISZERO PUSH2 0x8F7 JUMPI PUSH1 0x0 DUP1 REVERT JUMPDEST PUSH1 0x12 DUP8 SWAP1 SSTORE PUSH1 0xD SLOAD PUSH1 0x40 MLOAD DUP1 MSIZE LT PUSH2 0x90C JUMPI POP MSIZE JUMPDEST SWAP1 DUP1 DUP3 MSTORE DUP1 PUSH1 0x20 MUL PUSH1 0x20 ADD DUP3 ADD PUSH1 0x40 MSTORE POP SWAP6 POP PUSH2 0x928 DUP7 PUSH2 0xE59 JUMP JUMPDEST PUSH1 0x10 SLOAD PUSH1 0x14 SLOAD SWAP2 SWAP7 POP DUP7 XOR DUP9 XOR SWAP5 POP DUP5 DUP2 ISZERO ISZERO PUSH2 0x941 JUMPI INVALID JUMPDEST MOD SWAP3 POP PUSH2 0x94E DUP4 DUP8 PUSH2 0xF0E JUMP JUMPDEST SWAP2 POP PUSH1 0xD DUP3 DUP2 SLOAD DUP2 LT ISZERO ISZERO PUSH2 0x95F JUMPI INVALID JUMPDEST PUSH1 0x0 SWAP2 DUP3 MSTORE PUSH1 0x20 DUP1 DUP4 KECCAK256 SWAP2 SWAP1 SWAP2 ADD SLOAD PUSH1 0x11 DUP1 SLOAD PUSH21 0xFFFFFFFFFFFFFFFFFFFFFFFFFFFFFFFFFFFFFFFF00 NOT AND PUSH2 0x100 PUSH1 0x1 PUSH1 0xA0 PUSH1 0x2 EXP SUB SWAP4 DUP5 AND DUP2 MUL SWAP2 SWAP1 SWAP2 OR SWAP2 DUP3 SWAP1 SSTORE SWAP1 DIV AND DUP3 MSTORE PUSH1 0xC SWAP1 MSTORE PUSH1 0x40 SWAP1 DUP2 SWAP1 KECCAK256 SWAP1 DUP1 MLOAD SWAP1 DUP2 ADD PUSH1 0x40 MSTORE DUP2 SLOAD DUP2 MSTORE PUSH1 0x1 SWAP1 SWAP2 ADD SLOAD PUSH1 0x20 DUP3 ADD MSTORE PUSH1 0x11 SLOAD SWAP1 SWAP2 POP PUSH32 0x7C195D9D8CA6F7AEDFCE85403A18BAD6DE0C1B5864A97FA635AE120B4EB4F8C3 SWAP1 PUSH2 0x100 SWAP1 DIV PUSH1 0x1 PUSH1 0xA0 PUSH1 0x2 EXP SUB AND DUP3 MLOAD PUSH1 0x10 SLOAD DUP11 PUSH1 0x40 MLOAD PUSH1 0x1 PUSH1 0xA0 PUSH1 0x2 EXP SUB SWAP1 SWAP5 AND DUP5 MSTORE PUSH1 0x20 DUP5 ADD SWAP3 SWAP1 SWAP3 MSTORE PUSH1 0x40 DUP1 DUP5 ADD SWAP2 SWAP1 SWAP2 MSTORE PUSH1 0x60 DUP4 ADD SWAP2 SWAP1 SWAP2 MSTORE PUSH1 0x80 SWAP1 SWAP2 ADD SWAP1 MLOAD DUP1 SWAP2 SUB SWAP1 LOG1 POP POP POP POP POP POP POP JUMP JUMPDEST PUSH1 0x8 SLOAD TIMESTAMP LT DUP1 ISZERO SWAP1 PUSH2 0xA56 JUMPI POP PUSH1 0x9 SLOAD TIMESTAMP LT JUMPDEST ISZERO ISZERO PUSH2 0xA61 JUMPI PUSH1 0x0 DUP1 REVERT JUMPDEST PUSH1 0x0 SLOAD CALLER PUSH1 0x1 PUSH1 0xA0 PUSH1 0x2 EXP SUB SWAP1 DUP2 AND SWAP2 AND EQ PUSH2 0xA7C JUMPI PUSH1 0x0 DUP1 REVERT JUMPDEST PUSH1 0x13 SLOAD PUSH2 0x100 SWAP1 DIV PUSH1 0xFF AND ISZERO PUSH2 0xA91 JUMPI PUSH1 0x0 DUP1 REVERT JUMPDEST PUSH1 0x10 SLOAD ISZERO PUSH2 0xA9E JUMPI PUSH1 0x0 DUP1 REVERT JUMPDEST PUSH1 0xF SLOAD PUSH2 0xAAB SWAP1 DUP3 PUSH2 0xE1C JUMP JUMPDEST ISZERO ISZERO PUSH2 0xAB6 JUMPI PUSH1 0x0 DUP1 REVERT JUMPDEST PUSH1 0x10 DUP2 SWAP1 SSTORE PUSH32 0x83985F84FEC43F6C4B0B122BE29B8625FC89E54A2FB6BA2B76A2751C1C7874D9 DUP2 PUSH1 0x40 MLOAD SWAP1 DUP2 MSTORE PUSH1 0x20 ADD PUSH1 0x40 MLOAD DUP1 SWAP2 SUB SWAP1 LOG1 POP JUMP JUMPDEST PUSH1 0x8 SLOAD TIMESTAMP LT PUSH2 0xAFF JUMPI PUSH1 0x0 DUP1 REVERT JUMPDEST PUSH1 0x0 SLOAD CALLER PUSH1 0x1 PUSH1 0xA0 PUSH1 0x2 EXP SUB SWAP1 DUP2 AND SWAP2 AND EQ PUSH2 0xB1A JUMPI PUSH1 0x0 DUP1 REVERT JUMPDEST PUSH1 0x13 SLOAD PUSH2 0x100 SWAP1 DIV PUSH1 0xFF AND ISZERO PUSH2 0xB2F JUMPI PUSH1 0x0 DUP1 REVERT JUMPDEST PUSH1 0xF SLOAD ISZERO PUSH2 0xB3C JUMPI PUSH1 0x0 DUP1 REVERT JUMPDEST DUP1 ISZERO ISZERO PUSH2 0xB48 JUMPI PUSH1 0x0 DUP1 REVERT JUMPDEST PUSH1 0xF DUP2 SWAP1 SSTORE PUSH32 0x451914E591226064706DFEE5BBEA9F69833323AA4EF98870F5EC98F5E3FDDE96 DUP2 PUSH1 0x40 MLOAD SWAP1 DUP2 MSTORE PUSH1 0x20 ADD PUSH1 0x40 MLOAD DUP1 SWAP2 SUB SWAP1 LOG1 POP JUMP JUMPDEST PUSH1 0xA SLOAD TIMESTAMP LT ISZERO PUSH2 0xB92 JUMPI PUSH1 0x0 DUP1 REVERT JUMPDEST PUSH1 0x3 SLOAD CALLER PUSH1 0x1 PUSH1 0xA0 PUSH1 0x2 EXP SUB SWAP1 DUP2 AND SWAP2 AND EQ PUSH2 0xBAD JUMPI PUSH1 0x0 DUP1 REVERT JUMPDEST CALLER PUSH1 0x1 PUSH1 0xA0 PUSH1 0x2 EXP SUB AND SELFDESTRUCT JUMPDEST PUSH1 0x11 SLOAD PUSH1 0x0 SWAP1 DUP2 SWAP1 DUP2 SWAP1 PUSH2 0x100 SWAP1 DIV PUSH1 0x1 PUSH1 0xA0 PUSH1 0x2 EXP SUB AND ISZERO PUSH2 0xCB1 JUMPI PUSH1 0x0 SLOAD CALLER PUSH1 0x1 PUSH1 0xA0 PUSH1 0x2 EXP SUB SWAP1 DUP2 AND SWAP2 AND EQ ISZERO PUSH2 0xC0B JUMPI PUSH1 0x11 SLOAD PUSH1 0xFF AND ISZERO PUSH2 0xC01 JUMPI PUSH1 0x0 SWAP3 POP PUSH2 0xCEF JUMP JUMPDEST PUSH1 0x1 SLOAD SWAP2 POP PUSH2 0xC9C JUMP JUMPDEST PUSH1 0x11 SLOAD CALLER PUSH1 0x1 PUSH1 0xA0 PUSH1 0x2 EXP SUB SWAP1 DUP2 AND PUSH2 0x100 SWAP1 SWAP3 DIV AND EQ ISZERO PUSH2 0xC5E JUMPI PUSH1 0x11 SLOAD PUSH22 0x1000000000000000000000000000000000000000000 SWAP1 DIV PUSH1 0xFF AND ISZERO PUSH2 0xC54 JUMPI PUSH1 0x0 SWAP3 POP PUSH2 0xCEF JUMP JUMPDEST PUSH1 0x2 SLOAD SWAP2 POP PUSH2 0xC9C JUMP JUMPDEST PUSH1 0x3 SLOAD CALLER PUSH1 0x1 PUSH1 0xA0 PUSH1 0x2 EXP SUB SWAP1 DUP2 AND SWAP2 AND EQ ISZERO PUSH2 0xC93 JUMPI PUSH1 0x13 SLOAD PUSH1 0xFF AND ISZERO PUSH2 0xC89 JUMPI PUSH1 0x0 SWAP3 POP PUSH2 0xCEF JUMP JUMPDEST PUSH1 0x4 SLOAD SWAP2 POP PUSH2 0xC9C JUMP JUMPDEST PUSH1 0x0 SWAP3 POP PUSH2 0xCEF JUMP JUMPDEST PUSH1 0x6 SLOAD PUSH1 0x14 SLOAD PUSH2 0x3E8 SWAP2 MUL DUP4 MUL DIV SWAP3 POP PUSH2 0xCEF JUMP JUMPDEST PUSH1 0x13 SLOAD PUSH2 0x100 SWAP1 DIV PUSH1 0xFF AND ISZERO PUSH2 0xCEA JUMPI POP PUSH1 0x1 PUSH1 0xA0 PUSH1 0x2 EXP SUB CALLER AND PUSH1 0x0 SWAP1 DUP2 MSTORE PUSH1 0xC PUSH1 0x20 MSTORE PUSH1 0x40 SWAP1 KECCAK256 PUSH1 0x6 SLOAD PUSH1 0x1 DUP3 ADD SLOAD MUL SWAP3 POP PUSH2 0xCEF JUMP JUMPDEST PUSH1 0x0 SWAP3 POP JUMPDEST POP POP SWAP1 JUMP JUMPDEST PUSH1 0xF SLOAD PUSH1 0x10 SLOAD PUSH1 0x11 SLOAD PUSH2 0x100 DUP1 DUP3 DIV PUSH1 0x1 PUSH1 0xA0 PUSH1 0x2 EXP SUB AND PUSH1 0x0 DUP2 DUP2 MSTORE PUSH1 0xC PUSH1 0x20 MSTORE PUSH1 0x40 SWAP1 KECCAK256 SLOAD PUSH1 0x12 SLOAD PUSH1 0x13 SLOAD PUSH1 0xD SLOAD PUSH1 0x14 SLOAD SWAP9 SWAP10 SWAP8 SWAP9 PUSH1 0xFF DUP1 DUP10 AND SWAP10 SWAP7 SWAP9 SWAP6 SWAP8 PUSH22 0x1000000000000000000000000000000000000000000 SWAP1 SWAP7 DIV DUP2 AND SWAP7 SWAP5 SWAP6 DUP2 DUP6 AND SWAP6 SWAP5 DIV AND SWAP3 JUMP JUMPDEST PUSH1 0x13 SLOAD PUSH2 0x100 SWAP1 DIV PUSH1 0xFF AND ISZERO PUSH2 0xD73 JUMPI PUSH1 0x0 DUP1 REVERT JUMPDEST PUSH1 0x11 SLOAD PUSH2 0x100 SWAP1 DIV PUSH1 0x1 PUSH1 0xA0 PUSH1 0x2 EXP SUB AND ISZERO PUSH2 0xD8E JUMPI PUSH1 0x0 DUP1 REVERT JUMPDEST PUSH1 0x3 SLOAD CALLER PUSH1 0x1 PUSH1 0xA0 PUSH1 0x2 EXP SUB SWAP1 DUP2 AND SWAP2 AND EQ DUP1 ISZERO SWAP1 PUSH2 0xDBC JUMPI POP PUSH1 0x0 SLOAD CALLER PUSH1 0x1 PUSH1 0xA0 PUSH1 0x2 EXP SUB SWAP1 DUP2 AND SWAP2 AND EQ ISZERO JUMPDEST ISZERO PUSH2 0xDDF JUMPI PUSH1 0x9 SLOAD TIMESTAMP LT DUP1 ISZERO SWAP1 PUSH2 0xDD4 JUMPI POP PUSH1 0xA SLOAD TIMESTAMP LT JUMPDEST ISZERO ISZERO PUSH2 0xDDF JUMPI PUSH1 0x0 DUP1 REVERT JUMPDEST PUSH1 0x13 DUP1 SLOAD PUSH2 0xFF00 NOT AND PUSH2 0x100 OR SWAP1 SSTORE PUSH32 0x4A19036F5B4D75256C1C24150A8254BD3C2BDB1EAEEEC4523E927F0AB1CDD054 PUSH1 0x40 MLOAD PUSH1 0x40 MLOAD DUP1 SWAP2 SUB SWAP1 LOG1 JUMP JUMPDEST PUSH1 0x0 DUP2 CALLER PUSH1 0x40 MLOAD SWAP2 DUP3 MSTORE PUSH1 0x1 PUSH1 0xA0 PUSH1 0x2 EXP SUB AND PUSH13 0x1000000000000000000000000 MUL PUSH1 0x20 DUP3 ADD MSTORE PUSH1 0x34 ADD PUSH1 0x40 MLOAD SWAP1 DUP2 SWAP1 SUB SWAP1 KECCAK256 DUP4 EQ SWAP1 POP SWAP3 SWAP2 POP POP JUMP JUMPDEST PUSH1 0x0 DUP1 PUSH1 0x0 DUP1 PUSH1 0x0 PUSH2 0xE69 PUSH2 0xFE1 JUMP JUMPDEST PUSH1 0x0 SWAP5 POP DUP5 SWAP4 POP DUP4 SWAP3 POP JUMPDEST PUSH1 0xD SLOAD DUP4 LT ISZERO PUSH2 0xF03 JUMPI PUSH1 0xD DUP1 SLOAD DUP5 SWAP1 DUP2 LT PUSH2 0xE8C JUMPI INVALID JUMPDEST PUSH1 0x0 SWAP2 DUP3 MSTORE PUSH1 0x20 DUP1 DUP4 KECCAK256 SWAP1 SWAP2 ADD SLOAD PUSH1 0x1 PUSH1 0xA0 PUSH1 0x2 EXP SUB AND DUP1 DUP4 MSTORE PUSH1 0xC SWAP1 SWAP2 MSTORE PUSH1 0x40 SWAP2 DUP3 SWAP1 KECCAK256 SWAP1 SWAP4 POP SWAP1 DUP1 MLOAD SWAP1 DUP2 ADD PUSH1 0x40 MSTORE DUP2 SLOAD DUP2 MSTORE PUSH1 0x1 SWAP1 SWAP2 ADD SLOAD PUSH1 0x20 DUP3 ADD MSTORE SWAP1 POP DUP5 DUP8 DUP5 DUP2 MLOAD DUP2 LT PUSH2 0xEDB JUMPI INVALID JUMPDEST SWAP1 PUSH1 0x20 ADD SWAP1 PUSH1 0x20 MUL ADD DUP2 DUP2 MSTORE POP POP DUP1 PUSH1 0x20 ADD MLOAD SWAP1 SWAP5 ADD SWAP4 DUP1 MLOAD SWAP1 SWAP4 XOR SWAP3 PUSH1 0x1 SWAP1 SWAP3 ADD SWAP2 PUSH2 0xE74 JUMP JUMPDEST POP SWAP2 SWAP6 SWAP5 POP POP POP POP POP JUMP JUMPDEST PUSH1 0xD SLOAD PUSH1 0x0 SWAP1 DUP2 SWAP1 DUP2 SWAP1 DUP2 SWAP1 DUP2 SWAP1 DUP2 SWAP1 PUSH1 0x0 NOT ADD JUMPDEST DUP1 DUP3 EQ ISZERO PUSH2 0xF33 JUMPI DUP2 SWAP7 POP PUSH2 0xF9A JUMP JUMPDEST PUSH1 0x2 DUP3 DUP3 SUB DIV DUP3 ADD SWAP4 POP DUP4 PUSH1 0x1 ADD SWAP3 POP DUP8 DUP5 DUP2 MLOAD DUP2 LT PUSH2 0xF4F JUMPI INVALID JUMPDEST SWAP1 PUSH1 0x20 ADD SWAP1 PUSH1 0x20 MUL ADD MLOAD SWAP6 POP DUP8 DUP4 DUP2 MLOAD DUP2 LT PUSH2 0xF67 JUMPI INVALID JUMPDEST SWAP1 PUSH1 0x20 ADD SWAP1 PUSH1 0x20 MUL ADD MLOAD SWAP5 POP DUP6 DUP10 LT PUSH2 0xF92 JUMPI DUP5 DUP10 LT ISZERO PUSH2 0xF8A JUMPI DUP4 SWAP7 POP PUSH2 0xF9A JUMP JUMPDEST DUP3 SWAP2 POP PUSH2 0xF95 JUMP JUMPDEST POP DUP3 JUMPDEST PUSH2 0xF23 JUMP JUMPDEST POP POP POP POP POP POP SWAP3 SWAP2 POP POP JUMP JUMPDEST DUP2 SLOAD DUP2 DUP4 SSTORE DUP2 DUP2 ISZERO GT PUSH2 0xFCA JUMPI PUSH1 0x0 DUP4 DUP2 MSTORE PUSH1 0x20 SWAP1 KECCAK256 PUSH2 0xFCA SWAP2 DUP2 ADD SWAP1 DUP4 ADD PUSH2 0xFF8 JUMP JUMPDEST POP POP POP JUMP JUMPDEST PUSH1 0x20 PUSH1 0x40 MLOAD SWAP1 DUP2 ADD PUSH1 0x40 MSTORE PUSH1 0x0 DUP2 MSTORE SWAP1 JUMP JUMPDEST PUSH1 0x40 DUP1 MLOAD SWAP1 DUP2 ADD PUSH1 0x40 MSTORE PUSH1 0x0 DUP1 DUP3 MSTORE PUSH1 0x20 DUP3 ADD MSTORE SWAP1 JUMP JUMPDEST PUSH2 0x1016 SWAP2 SWAP1 JUMPDEST DUP1 DUP3 GT ISZERO PUSH2 0x1012 JUMPI PUSH1 0x0 DUP2 SSTORE PUSH1 0x1 ADD PUSH2 0xFFE JUMP JUMPDEST POP SWAP1 JUMP JUMPDEST SWAP1 JUMP STOP LOG1 PUSH6 0x627A7A723058 KECCAK256 DUP13 PUSH15 0x90E26861BC321EB63E770E28DC48E5 0xcc 0xd9 0x2c PUSH10 0x99F580B85E3032BF3CEB 0xd1 STOP 0x29 "
        }
    },
    "methods": {
        "raisings": [
            "_0"
        ],
        "participants": [
            "_0"
        ],
        "participate": [
            "_message"
        ],
        "deployment": [],
        "withdraw": [],
        "participantAddresses": [
            "_0"
        ],
        "end": [
            "_message"
        ],
        "reveal": [
            "_message"
        ],
        "begin": [
            "_secret"
        ],
        "destroy": [],
        "balance": [],
        "state": [],
        "cancel": [],
        "fallback": []
    }
}