{
    "abi": [
        {
            "constant": true,
            "inputs": [
                {
                    "name": "",
                    "type": "address"
                }
            ],
            "name": "participants",
            "outputs": [
                {
                    "name": "_message",
                    "type": "bytes32"
                },
                {
                    "name": "_entries",
                    "type": "uint256"
                }
            ],
            "payable": false,
            "stateMutability": "view",
            "type": "function"
        },
        {
            "constant": false,
            "inputs": [
                {
                    "name": "_message",
                    "type": "bytes32"
                }
            ],
            "name": "participate",
            "outputs": [],
            "payable": true,
            "stateMutability": "payable",
            "type": "function"
        },
        {
            "constant": false,
            "inputs": [
                {
                    "name": "_token",
                    "type": "address"
                }
            ],
            "name": "recover",
            "outputs": [],
            "payable": false,
            "stateMutability": "nonpayable",
            "type": "function"
        },
        {
            "constant": true,
            "inputs": [],
            "name": "deployment",
            "outputs": [
                {
                    "name": "_cause",
                    "type": "address"
                },
                {
                    "name": "_causeWallet",
                    "type": "address"
                },
                {
                    "name": "_causeSplit",
                    "type": "uint256"
                },
                {
                    "name": "_participantSplit",
                    "type": "uint256"
                },
                {
                    "name": "_owner",
                    "type": "address"
                },
                {
                    "name": "_ownerWallet",
                    "type": "address"
                },
                {
                    "name": "_ownerSplit",
                    "type": "uint256"
                },
                {
                    "name": "_ownerSecret",
                    "type": "bytes32"
                },
                {
                    "name": "_valuePerEntry",
                    "type": "uint256"
                },
                {
                    "name": "_deployTime",
                    "type": "uint256"
                },
                {
                    "name": "_endTime",
                    "type": "uint256"
                },
                {
                    "name": "_expireTime",
                    "type": "uint256"
                },
                {
                    "name": "_destructTime",
                    "type": "uint256"
                },
                {
                    "name": "_entropy",
                    "type": "uint256"
                }
            ],
            "payable": false,
            "stateMutability": "view",
            "type": "function"
        },
        {
            "constant": false,
            "inputs": [],
            "name": "withdraw",
            "outputs": [],
            "payable": false,
            "stateMutability": "nonpayable",
            "type": "function"
        },
        {
            "constant": false,
            "inputs": [
                {
                    "name": "_message",
                    "type": "bytes32"
                }
            ],
            "name": "end",
            "outputs": [],
            "payable": false,
            "stateMutability": "nonpayable",
            "type": "function"
        },
        {
            "constant": false,
            "inputs": [
                {
                    "name": "_message",
                    "type": "bytes32"
                }
            ],
            "name": "reveal",
            "outputs": [],
            "payable": false,
            "stateMutability": "nonpayable",
            "type": "function"
        },
        {
            "constant": false,
            "inputs": [
                {
                    "name": "_secret",
                    "type": "bytes32"
                }
            ],
            "name": "begin",
            "outputs": [],
            "payable": false,
            "stateMutability": "nonpayable",
            "type": "function"
        },
        {
            "constant": false,
            "inputs": [],
            "name": "destroy",
            "outputs": [],
            "payable": false,
            "stateMutability": "nonpayable",
            "type": "function"
        },
        {
            "constant": true,
            "inputs": [],
            "name": "balance",
            "outputs": [
                {
                    "name": "",
                    "type": "uint256"
                }
            ],
            "payable": false,
            "stateMutability": "view",
            "type": "function"
        },
        {
            "constant": true,
            "inputs": [],
            "name": "state",
            "outputs": [
                {
                    "name": "_causeSecret",
                    "type": "bytes32"
                },
                {
                    "name": "_causeMessage",
                    "type": "bytes32"
                },
                {
                    "name": "_causeWithdrawn",
                    "type": "bool"
                },
                {
                    "name": "_participant",
                    "type": "address"
                },
                {
                    "name": "_participantMessage",
                    "type": "bytes32"
                },
                {
                    "name": "_participantWithdrawn",
                    "type": "bool"
                },
                {
                    "name": "_ownerMessage",
                    "type": "bytes32"
                },
                {
                    "name": "_ownerWithdrawn",
                    "type": "bool"
                },
                {
                    "name": "_cancelled",
                    "type": "bool"
                },
                {
                    "name": "_participants",
                    "type": "uint256"
                },
                {
                    "name": "_entries",
                    "type": "uint256"
                },
                {
                    "name": "_revealBlockNumber",
                    "type": "uint256"
                },
                {
                    "name": "_revealBlockHash",
                    "type": "uint256"
                }
            ],
            "payable": false,
            "stateMutability": "view",
            "type": "function"
        },
        {
            "constant": false,
            "inputs": [],
            "name": "cancel",
            "outputs": [],
            "payable": false,
            "stateMutability": "nonpayable",
            "type": "function"
        },
        {
            "inputs": [
                {
                    "name": "_cause",
                    "type": "address"
                },
                {
                    "name": "_causeWallet",
                    "type": "address"
                },
                {
                    "name": "_causeSplit",
                    "type": "uint256"
                },
                {
                    "name": "_participantSplit",
                    "type": "uint256"
                },
                {
                    "name": "_ownerWallet",
                    "type": "address"
                },
                {
                    "name": "_ownerSplit",
                    "type": "uint256"
                },
                {
                    "name": "_ownerSecret",
                    "type": "bytes32"
                },
                {
                    "name": "_valuePerEntry",
                    "type": "uint256"
                },
                {
                    "name": "_endTime",
                    "type": "uint256"
                },
                {
                    "name": "_expireTime",
                    "type": "uint256"
                },
                {
                    "name": "_destructTime",
                    "type": "uint256"
                },
                {
                    "name": "_entropy",
                    "type": "uint256"
                }
            ],
            "payable": false,
            "stateMutability": "nonpayable",
            "type": "constructor"
        },
        {
            "payable": true,
            "stateMutability": "payable",
            "type": "fallback"
        },
        {
            "anonymous": false,
            "inputs": [
                {
                    "indexed": false,
                    "name": "_causeSecret",
                    "type": "bytes32"
                }
            ],
            "name": "Beginning",
            "type": "event"
        },
        {
            "anonymous": false,
            "inputs": [
                {
                    "indexed": false,
                    "name": "_participant",
                    "type": "address"
                },
                {
                    "indexed": false,
                    "name": "_message",
                    "type": "bytes32"
                },
                {
                    "indexed": false,
                    "name": "_entries",
                    "type": "uint256"
                },
                {
                    "indexed": false,
                    "name": "_refund",
                    "type": "uint256"
                }
            ],
            "name": "Participation",
            "type": "event"
        },
        {
            "anonymous": false,
            "inputs": [
                {
                    "indexed": false,
                    "name": "_participant",
                    "type": "address"
                },
                {
                    "indexed": false,
                    "name": "_entries",
                    "type": "uint256"
                },
                {
                    "indexed": false,
                    "name": "_refund",
                    "type": "uint256"
                }
            ],
            "name": "Raise",
            "type": "event"
        },
        {
            "anonymous": false,
            "inputs": [
                {
                    "indexed": false,
                    "name": "_ownerMessage",
                    "type": "bytes32"
                }
            ],
            "name": "Revelation",
            "type": "event"
        },
        {
            "anonymous": false,
            "inputs": [
                {
                    "indexed": false,
                    "name": "_participant",
                    "type": "address"
                },
                {
                    "indexed": false,
                    "name": "_participantMessage",
                    "type": "bytes32"
                },
                {
                    "indexed": false,
                    "name": "_causeMessage",
                    "type": "bytes32"
                },
                {
                    "indexed": false,
                    "name": "_ownerMessage",
                    "type": "bytes32"
                }
            ],
            "name": "Selection",
            "type": "event"
        },
        {
            "anonymous": false,
            "inputs": [],
            "name": "Cancellation",
            "type": "event"
        },
        {
            "anonymous": false,
            "inputs": [
                {
                    "indexed": false,
                    "name": "_address",
                    "type": "address"
                }
            ],
            "name": "Withdrawal",
            "type": "event"
        }
    ],
    "evm": {
        "bytecode": {
            "linkReferences": {},
            "object": "608060405234801561001057600080fd5b50604051610180806200144083398101604090815281516020830151918301516060840151608085015160a086015160c087015160e08801516101008901516101208a01516101408b0151610160909b0151989a9798969795969495939492939192909190600160a060020a038c16151561008a57600080fd5b600160a060020a038b16151561009f57600080fd5b8915156100ab57600080fd5b8815156100b757600080fd5b600160a060020a03881615156100cc57600080fd5b6103e88a8a018801146100de57600080fd5b8515156100ea57600080fd5b8415156100f657600080fd5b42841161010257600080fd5b83831161010e57600080fd5b82821161011a57600080fd5b6000811161012757600080fd5b604080516101c081018252600160a060020a039d8e168082529c8e16602082018190529181018c9052606081018b9052338e166080820181905299909d1660a08e0181905260c08e0189905260e08e018890526101008e01879052426101208f018190526101408f018790526101608f018690526101808f018590526101a0909e0183905260008054600160a060020a0319908116909e179055600180548e1690921790915560029a909a55600398909855600480548b1690971790965560058054909916909717909755600692909255600755600855600994909455600a92909255600b55600c91909155600d5561121a80620002266000396000f3006080604052600436106100b95763ffffffff7c010000000000000000000000000000000000000000000000000000000060003504166309e69ede81146101e75780630a14504c146102215780630cd865ec1461022e5780632dde9aca1461024f5780633ccfd60b146103255780637015913c1461033a578063701fd0f11461035257806375aa87051461036a57806383197ef014610382578063b69ef8a814610397578063c19d93fb146103be578063ea8a1af014610444575b600a546000908190819042106100ce57600080fd5b60005433600160a060020a03908116911614156100ea57600080fd5b60015433600160a060020a039081169116141561010657600080fd5b60045433600160a060020a039081169116141561012257600080fd5b60055433600160a060020a039081169116141561013e57600080fd5b601454610100900460ff161561015357600080fd5b601054151561016157600080fd5b600160a060020a0333166000908152600e602052604090208054909350151561018957600080fd5b61019283610459565b60408051600160a060020a03331681526020810184905280820183905290519294509092507f11df61431069ecb6bffb62f185491e4adc966b75b0648630ea30f60cfff8a9e5919081900360600190a1505050005b3480156101f357600080fd5b50610208600160a060020a03600435166105cd565b6040805192835260208301919091528051918290030190f35b61022c6004356105e6565b005b34801561023a57600080fd5b5061022c600160a060020a0360043516610742565b34801561025b57600080fd5b506102646108b4565b604051808f600160a060020a0316600160a060020a031681526020018e600160a060020a0316600160a060020a031681526020018d81526020018c81526020018b600160a060020a0316600160a060020a031681526020018a600160a060020a0316600160a060020a0316815260200189815260200188600019166000191681526020018781526020018681526020018581526020018481526020018381526020018281526020019e50505050505050505050505050505060405180910390f35b34801561033157600080fd5b5061022c6108f9565b34801561034657600080fd5b5061022c600435610abb565b34801561035e57600080fd5b5061022c600435610c89565b34801561037657600080fd5b5061022c600435610d48565b34801561038e57600080fd5b5061022c610dda565b3480156103a357600080fd5b506103ac610e10565b60408051918252519081900360200190f35b3480156103ca57600080fd5b506103d3610f4b565b604080519d8e5260208e019c909c529915158c8c0152600160a060020a0390981660608c015260808b019690965293151560a08a015260c0890192909252151560e0880152151561010087015261012086015261014085015261016084015261018083015251908190036101a00190f35b34801561045057600080fd5b5061022c610fbb565b60008060006104666111d7565b6008543481151561047357fe5b049350600184101561048457600080fd5b600185018054850190556016805485019055600f546000106104a75760006104cc565b600f805460001981019081106104b957fe5b9060005260206000209060020201600101545b6040805180820190915233600160a060020a03908116825282870160208301908152600f805460018101825560009190915283517f8d1108e10bcb7c27dddfc02ed9d693a074039d026cf4ea4240b40f7d581ac8026002909202918201805473ffffffffffffffffffffffffffffffffffffffff19169190941617909255517f8d1108e10bcb7c27dddfc02ed9d693a074039d026cf4ea4240b40f7d581ac8039091015560085491935091503481151561058257fe5b06925060008311156105c657604051600160a060020a0333169084156108fc029085906000818181858888f193505050501580156105c4573d6000803e3d6000fd5b505b5050915091565b600e602052600090815260409020805460019091015482565b600a546000908190819042106105fb57600080fd5b60005433600160a060020a039081169116141561061757600080fd5b60015433600160a060020a039081169116141561063357600080fd5b60045433600160a060020a039081169116141561064f57600080fd5b60055433600160a060020a039081169116141561066b57600080fd5b601454610100900460ff161561068057600080fd5b601054151561068e57600080fd5b83151561069a57600080fd5b600160a060020a0333166000908152600e602052604090208054909350156106c157600080fd5b6001830154156106d057600080fd5b6106d983610459565b85855560158054600101905560408051600160a060020a0333168152602081018890528082018490526060810183905290519294509092507f6f75810cfd16e411e8e12bc62c9265a590ce60215e3ccd143073b4e702135945919081900360800190a150505050565b600454600090819033600160a060020a0390811691161461076257600080fd5b82915081600160a060020a03166370a08231306040518263ffffffff167c01000000000000000000000000000000000000000000000000000000000281526004018082600160a060020a0316600160a060020a03168152602001915050602060405180830381600087803b1580156107d957600080fd5b505af11580156107ed573d6000803e3d6000fd5b505050506040513d602081101561080357600080fd5b505160048054604080517fa9059cbb000000000000000000000000000000000000000000000000000000008152600160a060020a0392831693810193909352602483018490525192935084169163a9059cbb916044808201926020929091908290030181600087803b15801561087857600080fd5b505af115801561088c573d6000803e3d6000fd5b505050506040513d60208110156108a257600080fd5b505115156108af57600080fd5b505050565b600054600154600254600354600454600554600654600754600854600954600a54600b54600c54600d54600160a060020a039d8e169d9c8d169c998a1699909816978e565b6000806000610906610e10565b92506000831161091557600080fd5b6012546101009004600160a060020a031615610a0f5760005433600160a060020a0390811691161415610963576012805460ff1916600190811790915554600160a060020a03169150610a0a565b60125433600160a060020a039081166101009092041614156109ce576012805475ff000000000000000000000000000000000000000000191675010000000000000000000000000000000000000000001790819055600160a060020a03610100909104169150610a0a565b60045433600160a060020a0390811691161415610a05576014805460ff19166001179055600554600160a060020a03169150610a0a565b600080fd5b610a43565b601454610100900460ff1615610a0557505033600160a060020a0381166000908152600e6020526040812060018101919091555b604051600160a060020a0383169084156108fc029085906000818181858888f19350505050158015610a79573d6000803e3d6000fd5b5060408051600160a060020a033316815290517fe19ed71156e31b3c9e18ac7ad8d1b79f0a0feb3be18d23dae612e52040aada4b9181900360200190a1505050565b600080600080600080600a01544210158015610ad85750600b5442105b1515610ae357600080fd5b60005433600160a060020a03908116911614610afe57600080fd5b601454610100900460ff1615610b1357600080fd5b6013541515610b2157600080fd5b6017541515610b2f57600080fd5b60115415610b3c57600080fd5b601054610b499087611076565b1515610b5457600080fd5b6017544311610b6257600080fd5b6017544060188190551515610b7657600080fd5b6011869055600091505b600d54821015610bfc5760135460185460408051898152602081019390935282810191909152606082018590525190819003608001902060165490955085811515610bc757fe5b069050610bd3816110a9565b600160a060020a0381166000908152600e60205260409020549094509250600190910190610b80565b60128054600160a060020a0380871661010090810274ffffffffffffffffffffffffffffffffffffffff001990931692909217928390556013546040805193909404909116825260208201869052818301899052606082015290517f7c195d9d8ca6f7aedfce85403a18bad6de0c1b5864a97fa635ae120b4eb4f8c39181900360800190a1505050505050565b600a544210801590610c9c5750600b5442105b1515610ca757600080fd5b60045433600160a060020a03908116911614610cc257600080fd5b601454610100900460ff1615610cd757600080fd5b60135415610ce457600080fd5b60175415610cf157600080fd5b600754610cfe9082611076565b1515610d0957600080fd5b6013819055436017556040805182815290517f83985f84fec43f6c4b0b122be29b8625fc89e54a2fb6ba2b76a2751c1c7874d99181900360200190a150565b600a544210610d5657600080fd5b60005433600160a060020a03908116911614610d7157600080fd5b601454610100900460ff1615610d8657600080fd5b60105415610d9357600080fd5b801515610d9f57600080fd5b60108190556040805182815290517f451914e591226064706dfee5bbea9f69833323aa4ef98870f5ec98f5e3fdde969181900360200190a150565b600c54421015610de957600080fd5b60045433600160a060020a03908116911614610e0457600080fd5b33600160a060020a0316ff5b601254600090819081906101009004600160a060020a031615610f085760005433600160a060020a0390811691161415610e625760125460ff1615610e585760009250610f46565b6002549150610ef3565b60125433600160a060020a03908116610100909204161415610eb5576012547501000000000000000000000000000000000000000000900460ff1615610eab5760009250610f46565b6003549150610ef3565b60045433600160a060020a0390811691161415610eea5760145460ff1615610ee05760009250610f46565b6006549150610ef3565b60009250610f46565b6008546016546103e891028302049250610f46565b601454610100900460ff1615610f415750600160a060020a0333166000908152600e602052604090206008546001820154029250610f46565b600092505b505090565b601054601154601254610100808204600160a060020a03166000818152600e60205260409020546013546014546015546016546017546018549a9b999a60ff808b169b989a9799750100000000000000000000000000000000000000000090980481169896978187169796041694565b601454610100900460ff1615610fd057600080fd5b6012546101009004600160a060020a031615610feb57600080fd5b60045433600160a060020a03908116911614801590611019575060005433600160a060020a03908116911614155b1561103c57600b5442108015906110315750600c5442105b151561103c57600080fd5b6014805461ff0019166101001790556040517f4a19036f5b4d75256c1c24150a8254bd3c2bdb1eaeeec4523e927f0ab1cdd05490600090a1565b604080519182526c01000000000000000000000000600160a060020a033316026020830152519081900360340190201490565b60008060008060006110b96111d7565b6110c16111d7565b600f54600096506000190194505b8486141561110657600f8054879081106110e557fe5b6000918252602090912060029091020154600160a060020a031696506111cc565b600f8054600288880304880195506001860194508590811061112457fe5b6000918252602091829020604080518082019091526002909202018054600160a060020a031682526001015491810191909152600f8054919350908490811061116957fe5b6000918252602091829020604080518082019091526002909202018054600160a060020a0316825260010154818301529083015190915088106111c35780602001518810156111bb57805196506111cc565b8295506111c7565b8394505b6110cf565b505050505050919050565b6040805180820190915260008082526020820152905600a165627a7a723058205531be24899b7a59ae59373896a1ef78e37112e93d2c930d614d711d41276f280029",
            "opcodes": "PUSH1 0x80 PUSH1 0x40 MSTORE CALLVALUE DUP1 ISZERO PUSH2 0x10 JUMPI PUSH1 0x0 DUP1 REVERT JUMPDEST POP PUSH1 0x40 MLOAD PUSH2 0x180 DUP1 PUSH3 0x1440 DUP4 CODECOPY DUP2 ADD PUSH1 0x40 SWAP1 DUP2 MSTORE DUP2 MLOAD PUSH1 0x20 DUP4 ADD MLOAD SWAP2 DUP4 ADD MLOAD PUSH1 0x60 DUP5 ADD MLOAD PUSH1 0x80 DUP6 ADD MLOAD PUSH1 0xA0 DUP7 ADD MLOAD PUSH1 0xC0 DUP8 ADD MLOAD PUSH1 0xE0 DUP9 ADD MLOAD PUSH2 0x100 DUP10 ADD MLOAD PUSH2 0x120 DUP11 ADD MLOAD PUSH2 0x140 DUP12 ADD MLOAD PUSH2 0x160 SWAP1 SWAP12 ADD MLOAD SWAP9 SWAP11 SWAP8 SWAP9 SWAP7 SWAP8 SWAP6 SWAP7 SWAP5 SWAP6 SWAP4 SWAP5 SWAP3 SWAP4 SWAP2 SWAP3 SWAP1 SWAP2 SWAP1 PUSH1 0x1 PUSH1 0xA0 PUSH1 0x2 EXP SUB DUP13 AND ISZERO ISZERO PUSH2 0x8A JUMPI PUSH1 0x0 DUP1 REVERT JUMPDEST PUSH1 0x1 PUSH1 0xA0 PUSH1 0x2 EXP SUB DUP12 AND ISZERO ISZERO PUSH2 0x9F JUMPI PUSH1 0x0 DUP1 REVERT JUMPDEST DUP10 ISZERO ISZERO PUSH2 0xAB JUMPI PUSH1 0x0 DUP1 REVERT JUMPDEST DUP9 ISZERO ISZERO PUSH2 0xB7 JUMPI PUSH1 0x0 DUP1 REVERT JUMPDEST PUSH1 0x1 PUSH1 0xA0 PUSH1 0x2 EXP SUB DUP9 AND ISZERO ISZERO PUSH2 0xCC JUMPI PUSH1 0x0 DUP1 REVERT JUMPDEST PUSH2 0x3E8 DUP11 DUP11 ADD DUP9 ADD EQ PUSH2 0xDE JUMPI PUSH1 0x0 DUP1 REVERT JUMPDEST DUP6 ISZERO ISZERO PUSH2 0xEA JUMPI PUSH1 0x0 DUP1 REVERT JUMPDEST DUP5 ISZERO ISZERO PUSH2 0xF6 JUMPI PUSH1 0x0 DUP1 REVERT JUMPDEST TIMESTAMP DUP5 GT PUSH2 0x102 JUMPI PUSH1 0x0 DUP1 REVERT JUMPDEST DUP4 DUP4 GT PUSH2 0x10E JUMPI PUSH1 0x0 DUP1 REVERT JUMPDEST DUP3 DUP3 GT PUSH2 0x11A JUMPI PUSH1 0x0 DUP1 REVERT JUMPDEST PUSH1 0x0 DUP2 GT PUSH2 0x127 JUMPI PUSH1 0x0 DUP1 REVERT JUMPDEST PUSH1 0x40 DUP1 MLOAD PUSH2 0x1C0 DUP2 ADD DUP3 MSTORE PUSH1 0x1 PUSH1 0xA0 PUSH1 0x2 EXP SUB SWAP14 DUP15 AND DUP1 DUP3 MSTORE SWAP13 DUP15 AND PUSH1 0x20 DUP3 ADD DUP2 SWAP1 MSTORE SWAP2 DUP2 ADD DUP13 SWAP1 MSTORE PUSH1 0x60 DUP2 ADD DUP12 SWAP1 MSTORE CALLER DUP15 AND PUSH1 0x80 DUP3 ADD DUP2 SWAP1 MSTORE SWAP10 SWAP1 SWAP14 AND PUSH1 0xA0 DUP15 ADD DUP2 SWAP1 MSTORE PUSH1 0xC0 DUP15 ADD DUP10 SWAP1 MSTORE PUSH1 0xE0 DUP15 ADD DUP9 SWAP1 MSTORE PUSH2 0x100 DUP15 ADD DUP8 SWAP1 MSTORE TIMESTAMP PUSH2 0x120 DUP16 ADD DUP2 SWAP1 MSTORE PUSH2 0x140 DUP16 ADD DUP8 SWAP1 MSTORE PUSH2 0x160 DUP16 ADD DUP7 SWAP1 MSTORE PUSH2 0x180 DUP16 ADD DUP6 SWAP1 MSTORE PUSH2 0x1A0 SWAP1 SWAP15 ADD DUP4 SWAP1 MSTORE PUSH1 0x0 DUP1 SLOAD PUSH1 0x1 PUSH1 0xA0 PUSH1 0x2 EXP SUB NOT SWAP1 DUP2 AND SWAP1 SWAP15 OR SWAP1 SSTORE PUSH1 0x1 DUP1 SLOAD DUP15 AND SWAP1 SWAP3 OR SWAP1 SWAP2 SSTORE PUSH1 0x2 SWAP11 SWAP1 SWAP11 SSTORE PUSH1 0x3 SWAP9 SWAP1 SWAP9 SSTORE PUSH1 0x4 DUP1 SLOAD DUP12 AND SWAP1 SWAP8 OR SWAP1 SWAP7 SSTORE PUSH1 0x5 DUP1 SLOAD SWAP1 SWAP10 AND SWAP1 SWAP8 OR SWAP1 SWAP8 SSTORE PUSH1 0x6 SWAP3 SWAP1 SWAP3 SSTORE PUSH1 0x7 SSTORE PUSH1 0x8 SSTORE PUSH1 0x9 SWAP5 SWAP1 SWAP5 SSTORE PUSH1 0xA SWAP3 SWAP1 SWAP3 SSTORE PUSH1 0xB SSTORE PUSH1 0xC SWAP2 SWAP1 SWAP2 SSTORE PUSH1 0xD SSTORE PUSH2 0x121A DUP1 PUSH3 0x226 PUSH1 0x0 CODECOPY PUSH1 0x0 RETURN STOP PUSH1 0x80 PUSH1 0x40 MSTORE PUSH1 0x4 CALLDATASIZE LT PUSH2 0xB9 JUMPI PUSH4 0xFFFFFFFF PUSH29 0x100000000000000000000000000000000000000000000000000000000 PUSH1 0x0 CALLDATALOAD DIV AND PUSH4 0x9E69EDE DUP2 EQ PUSH2 0x1E7 JUMPI DUP1 PUSH4 0xA14504C EQ PUSH2 0x221 JUMPI DUP1 PUSH4 0xCD865EC EQ PUSH2 0x22E JUMPI DUP1 PUSH4 0x2DDE9ACA EQ PUSH2 0x24F JUMPI DUP1 PUSH4 0x3CCFD60B EQ PUSH2 0x325 JUMPI DUP1 PUSH4 0x7015913C EQ PUSH2 0x33A JUMPI DUP1 PUSH4 0x701FD0F1 EQ PUSH2 0x352 JUMPI DUP1 PUSH4 0x75AA8705 EQ PUSH2 0x36A JUMPI DUP1 PUSH4 0x83197EF0 EQ PUSH2 0x382 JUMPI DUP1 PUSH4 0xB69EF8A8 EQ PUSH2 0x397 JUMPI DUP1 PUSH4 0xC19D93FB EQ PUSH2 0x3BE JUMPI DUP1 PUSH4 0xEA8A1AF0 EQ PUSH2 0x444 JUMPI JUMPDEST PUSH1 0xA SLOAD PUSH1 0x0 SWAP1 DUP2 SWAP1 DUP2 SWAP1 TIMESTAMP LT PUSH2 0xCE JUMPI PUSH1 0x0 DUP1 REVERT JUMPDEST PUSH1 0x0 SLOAD CALLER PUSH1 0x1 PUSH1 0xA0 PUSH1 0x2 EXP SUB SWAP1 DUP2 AND SWAP2 AND EQ ISZERO PUSH2 0xEA JUMPI PUSH1 0x0 DUP1 REVERT JUMPDEST PUSH1 0x1 SLOAD CALLER PUSH1 0x1 PUSH1 0xA0 PUSH1 0x2 EXP SUB SWAP1 DUP2 AND SWAP2 AND EQ ISZERO PUSH2 0x106 JUMPI PUSH1 0x0 DUP1 REVERT JUMPDEST PUSH1 0x4 SLOAD CALLER PUSH1 0x1 PUSH1 0xA0 PUSH1 0x2 EXP SUB SWAP1 DUP2 AND SWAP2 AND EQ ISZERO PUSH2 0x122 JUMPI PUSH1 0x0 DUP1 REVERT JUMPDEST PUSH1 0x5 SLOAD CALLER PUSH1 0x1 PUSH1 0xA0 PUSH1 0x2 EXP SUB SWAP1 DUP2 AND SWAP2 AND EQ ISZERO PUSH2 0x13E JUMPI PUSH1 0x0 DUP1 REVERT JUMPDEST PUSH1 0x14 SLOAD PUSH2 0x100 SWAP1 DIV PUSH1 0xFF AND ISZERO PUSH2 0x153 JUMPI PUSH1 0x0 DUP1 REVERT JUMPDEST PUSH1 0x10 SLOAD ISZERO ISZERO PUSH2 0x161 JUMPI PUSH1 0x0 DUP1 REVERT JUMPDEST PUSH1 0x1 PUSH1 0xA0 PUSH1 0x2 EXP SUB CALLER AND PUSH1 0x0 SWAP1 DUP2 MSTORE PUSH1 0xE PUSH1 0x20 MSTORE PUSH1 0x40 SWAP1 KECCAK256 DUP1 SLOAD SWAP1 SWAP4 POP ISZERO ISZERO PUSH2 0x189 JUMPI PUSH1 0x0 DUP1 REVERT JUMPDEST PUSH2 0x192 DUP4 PUSH2 0x459 JUMP JUMPDEST PUSH1 0x40 DUP1 MLOAD PUSH1 0x1 PUSH1 0xA0 PUSH1 0x2 EXP SUB CALLER AND DUP2 MSTORE PUSH1 0x20 DUP2 ADD DUP5 SWAP1 MSTORE DUP1 DUP3 ADD DUP4 SWAP1 MSTORE SWAP1 MLOAD SWAP3 SWAP5 POP SWAP1 SWAP3 POP PUSH32 0x11DF61431069ECB6BFFB62F185491E4ADC966B75B0648630EA30F60CFFF8A9E5 SWAP2 SWAP1 DUP2 SWAP1 SUB PUSH1 0x60 ADD SWAP1 LOG1 POP POP POP STOP JUMPDEST CALLVALUE DUP1 ISZERO PUSH2 0x1F3 JUMPI PUSH1 0x0 DUP1 REVERT JUMPDEST POP PUSH2 0x208 PUSH1 0x1 PUSH1 0xA0 PUSH1 0x2 EXP SUB PUSH1 0x4 CALLDATALOAD AND PUSH2 0x5CD JUMP JUMPDEST PUSH1 0x40 DUP1 MLOAD SWAP3 DUP4 MSTORE PUSH1 0x20 DUP4 ADD SWAP2 SWAP1 SWAP2 MSTORE DUP1 MLOAD SWAP2 DUP3 SWAP1 SUB ADD SWAP1 RETURN JUMPDEST PUSH2 0x22C PUSH1 0x4 CALLDATALOAD PUSH2 0x5E6 JUMP JUMPDEST STOP JUMPDEST CALLVALUE DUP1 ISZERO PUSH2 0x23A JUMPI PUSH1 0x0 DUP1 REVERT JUMPDEST POP PUSH2 0x22C PUSH1 0x1 PUSH1 0xA0 PUSH1 0x2 EXP SUB PUSH1 0x4 CALLDATALOAD AND PUSH2 0x742 JUMP JUMPDEST CALLVALUE DUP1 ISZERO PUSH2 0x25B JUMPI PUSH1 0x0 DUP1 REVERT JUMPDEST POP PUSH2 0x264 PUSH2 0x8B4 JUMP JUMPDEST PUSH1 0x40 MLOAD DUP1 DUP16 PUSH1 0x1 PUSH1 0xA0 PUSH1 0x2 EXP SUB AND PUSH1 0x1 PUSH1 0xA0 PUSH1 0x2 EXP SUB AND DUP2 MSTORE PUSH1 0x20 ADD DUP15 PUSH1 0x1 PUSH1 0xA0 PUSH1 0x2 EXP SUB AND PUSH1 0x1 PUSH1 0xA0 PUSH1 0x2 EXP SUB AND DUP2 MSTORE PUSH1 0x20 ADD DUP14 DUP2 MSTORE PUSH1 0x20 ADD DUP13 DUP2 MSTORE PUSH1 0x20 ADD DUP12 PUSH1 0x1 PUSH1 0xA0 PUSH1 0x2 EXP SUB AND PUSH1 0x1 PUSH1 0xA0 PUSH1 0x2 EXP SUB AND DUP2 MSTORE PUSH1 0x20 ADD DUP11 PUSH1 0x1 PUSH1 0xA0 PUSH1 0x2 EXP SUB AND PUSH1 0x1 PUSH1 0xA0 PUSH1 0x2 EXP SUB AND DUP2 MSTORE PUSH1 0x20 ADD DUP10 DUP2 MSTORE PUSH1 0x20 ADD DUP9 PUSH1 0x0 NOT AND PUSH1 0x0 NOT AND DUP2 MSTORE PUSH1 0x20 ADD DUP8 DUP2 MSTORE PUSH1 0x20 ADD DUP7 DUP2 MSTORE PUSH1 0x20 ADD DUP6 DUP2 MSTORE PUSH1 0x20 ADD DUP5 DUP2 MSTORE PUSH1 0x20 ADD DUP4 DUP2 MSTORE PUSH1 0x20 ADD DUP3 DUP2 MSTORE PUSH1 0x20 ADD SWAP15 POP POP POP POP POP POP POP POP POP POP POP POP POP POP POP PUSH1 0x40 MLOAD DUP1 SWAP2 SUB SWAP1 RETURN JUMPDEST CALLVALUE DUP1 ISZERO PUSH2 0x331 JUMPI PUSH1 0x0 DUP1 REVERT JUMPDEST POP PUSH2 0x22C PUSH2 0x8F9 JUMP JUMPDEST CALLVALUE DUP1 ISZERO PUSH2 0x346 JUMPI PUSH1 0x0 DUP1 REVERT JUMPDEST POP PUSH2 0x22C PUSH1 0x4 CALLDATALOAD PUSH2 0xABB JUMP JUMPDEST CALLVALUE DUP1 ISZERO PUSH2 0x35E JUMPI PUSH1 0x0 DUP1 REVERT JUMPDEST POP PUSH2 0x22C PUSH1 0x4 CALLDATALOAD PUSH2 0xC89 JUMP JUMPDEST CALLVALUE DUP1 ISZERO PUSH2 0x376 JUMPI PUSH1 0x0 DUP1 REVERT JUMPDEST POP PUSH2 0x22C PUSH1 0x4 CALLDATALOAD PUSH2 0xD48 JUMP JUMPDEST CALLVALUE DUP1 ISZERO PUSH2 0x38E JUMPI PUSH1 0x0 DUP1 REVERT JUMPDEST POP PUSH2 0x22C PUSH2 0xDDA JUMP JUMPDEST CALLVALUE DUP1 ISZERO PUSH2 0x3A3 JUMPI PUSH1 0x0 DUP1 REVERT JUMPDEST POP PUSH2 0x3AC PUSH2 0xE10 JUMP JUMPDEST PUSH1 0x40 DUP1 MLOAD SWAP2 DUP3 MSTORE MLOAD SWAP1 DUP2 SWAP1 SUB PUSH1 0x20 ADD SWAP1 RETURN JUMPDEST CALLVALUE DUP1 ISZERO PUSH2 0x3CA JUMPI PUSH1 0x0 DUP1 REVERT JUMPDEST POP PUSH2 0x3D3 PUSH2 0xF4B JUMP JUMPDEST PUSH1 0x40 DUP1 MLOAD SWAP14 DUP15 MSTORE PUSH1 0x20 DUP15 ADD SWAP13 SWAP1 SWAP13 MSTORE SWAP10 ISZERO ISZERO DUP13 DUP13 ADD MSTORE PUSH1 0x1 PUSH1 0xA0 PUSH1 0x2 EXP SUB SWAP1 SWAP9 AND PUSH1 0x60 DUP13 ADD MSTORE PUSH1 0x80 DUP12 ADD SWAP7 SWAP1 SWAP7 MSTORE SWAP4 ISZERO ISZERO PUSH1 0xA0 DUP11 ADD MSTORE PUSH1 0xC0 DUP10 ADD SWAP3 SWAP1 SWAP3 MSTORE ISZERO ISZERO PUSH1 0xE0 DUP9 ADD MSTORE ISZERO ISZERO PUSH2 0x100 DUP8 ADD MSTORE PUSH2 0x120 DUP7 ADD MSTORE PUSH2 0x140 DUP6 ADD MSTORE PUSH2 0x160 DUP5 ADD MSTORE PUSH2 0x180 DUP4 ADD MSTORE MLOAD SWAP1 DUP2 SWAP1 SUB PUSH2 0x1A0 ADD SWAP1 RETURN JUMPDEST CALLVALUE DUP1 ISZERO PUSH2 0x450 JUMPI PUSH1 0x0 DUP1 REVERT JUMPDEST POP PUSH2 0x22C PUSH2 0xFBB JUMP JUMPDEST PUSH1 0x0 DUP1 PUSH1 0x0 PUSH2 0x466 PUSH2 0x11D7 JUMP JUMPDEST PUSH1 0x8 SLOAD CALLVALUE DUP2 ISZERO ISZERO PUSH2 0x473 JUMPI INVALID JUMPDEST DIV SWAP4 POP PUSH1 0x1 DUP5 LT ISZERO PUSH2 0x484 JUMPI PUSH1 0x0 DUP1 REVERT JUMPDEST PUSH1 0x1 DUP6 ADD DUP1 SLOAD DUP6 ADD SWAP1 SSTORE PUSH1 0x16 DUP1 SLOAD DUP6 ADD SWAP1 SSTORE PUSH1 0xF SLOAD PUSH1 0x0 LT PUSH2 0x4A7 JUMPI PUSH1 0x0 PUSH2 0x4CC JUMP JUMPDEST PUSH1 0xF DUP1 SLOAD PUSH1 0x0 NOT DUP2 ADD SWAP1 DUP2 LT PUSH2 0x4B9 JUMPI INVALID JUMPDEST SWAP1 PUSH1 0x0 MSTORE PUSH1 0x20 PUSH1 0x0 KECCAK256 SWAP1 PUSH1 0x2 MUL ADD PUSH1 0x1 ADD SLOAD JUMPDEST PUSH1 0x40 DUP1 MLOAD DUP1 DUP3 ADD SWAP1 SWAP2 MSTORE CALLER PUSH1 0x1 PUSH1 0xA0 PUSH1 0x2 EXP SUB SWAP1 DUP2 AND DUP3 MSTORE DUP3 DUP8 ADD PUSH1 0x20 DUP4 ADD SWAP1 DUP2 MSTORE PUSH1 0xF DUP1 SLOAD PUSH1 0x1 DUP2 ADD DUP3 SSTORE PUSH1 0x0 SWAP2 SWAP1 SWAP2 MSTORE DUP4 MLOAD PUSH32 0x8D1108E10BCB7C27DDDFC02ED9D693A074039D026CF4EA4240B40F7D581AC802 PUSH1 0x2 SWAP1 SWAP3 MUL SWAP2 DUP3 ADD DUP1 SLOAD PUSH20 0xFFFFFFFFFFFFFFFFFFFFFFFFFFFFFFFFFFFFFFFF NOT AND SWAP2 SWAP1 SWAP5 AND OR SWAP1 SWAP3 SSTORE MLOAD PUSH32 0x8D1108E10BCB7C27DDDFC02ED9D693A074039D026CF4EA4240B40F7D581AC803 SWAP1 SWAP2 ADD SSTORE PUSH1 0x8 SLOAD SWAP2 SWAP4 POP SWAP2 POP CALLVALUE DUP2 ISZERO ISZERO PUSH2 0x582 JUMPI INVALID JUMPDEST MOD SWAP3 POP PUSH1 0x0 DUP4 GT ISZERO PUSH2 0x5C6 JUMPI PUSH1 0x40 MLOAD PUSH1 0x1 PUSH1 0xA0 PUSH1 0x2 EXP SUB CALLER AND SWAP1 DUP5 ISZERO PUSH2 0x8FC MUL SWAP1 DUP6 SWAP1 PUSH1 0x0 DUP2 DUP2 DUP2 DUP6 DUP9 DUP9 CALL SWAP4 POP POP POP POP ISZERO DUP1 ISZERO PUSH2 0x5C4 JUMPI RETURNDATASIZE PUSH1 0x0 DUP1 RETURNDATACOPY RETURNDATASIZE PUSH1 0x0 REVERT JUMPDEST POP JUMPDEST POP POP SWAP2 POP SWAP2 JUMP JUMPDEST PUSH1 0xE PUSH1 0x20 MSTORE PUSH1 0x0 SWAP1 DUP2 MSTORE PUSH1 0x40 SWAP1 KECCAK256 DUP1 SLOAD PUSH1 0x1 SWAP1 SWAP2 ADD SLOAD DUP3 JUMP JUMPDEST PUSH1 0xA SLOAD PUSH1 0x0 SWAP1 DUP2 SWAP1 DUP2 SWAP1 TIMESTAMP LT PUSH2 0x5FB JUMPI PUSH1 0x0 DUP1 REVERT JUMPDEST PUSH1 0x0 SLOAD CALLER PUSH1 0x1 PUSH1 0xA0 PUSH1 0x2 EXP SUB SWAP1 DUP2 AND SWAP2 AND EQ ISZERO PUSH2 0x617 JUMPI PUSH1 0x0 DUP1 REVERT JUMPDEST PUSH1 0x1 SLOAD CALLER PUSH1 0x1 PUSH1 0xA0 PUSH1 0x2 EXP SUB SWAP1 DUP2 AND SWAP2 AND EQ ISZERO PUSH2 0x633 JUMPI PUSH1 0x0 DUP1 REVERT JUMPDEST PUSH1 0x4 SLOAD CALLER PUSH1 0x1 PUSH1 0xA0 PUSH1 0x2 EXP SUB SWAP1 DUP2 AND SWAP2 AND EQ ISZERO PUSH2 0x64F JUMPI PUSH1 0x0 DUP1 REVERT JUMPDEST PUSH1 0x5 SLOAD CALLER PUSH1 0x1 PUSH1 0xA0 PUSH1 0x2 EXP SUB SWAP1 DUP2 AND SWAP2 AND EQ ISZERO PUSH2 0x66B JUMPI PUSH1 0x0 DUP1 REVERT JUMPDEST PUSH1 0x14 SLOAD PUSH2 0x100 SWAP1 DIV PUSH1 0xFF AND ISZERO PUSH2 0x680 JUMPI PUSH1 0x0 DUP1 REVERT JUMPDEST PUSH1 0x10 SLOAD ISZERO ISZERO PUSH2 0x68E JUMPI PUSH1 0x0 DUP1 REVERT JUMPDEST DUP4 ISZERO ISZERO PUSH2 0x69A JUMPI PUSH1 0x0 DUP1 REVERT JUMPDEST PUSH1 0x1 PUSH1 0xA0 PUSH1 0x2 EXP SUB CALLER AND PUSH1 0x0 SWAP1 DUP2 MSTORE PUSH1 0xE PUSH1 0x20 MSTORE PUSH1 0x40 SWAP1 KECCAK256 DUP1 SLOAD SWAP1 SWAP4 POP ISZERO PUSH2 0x6C1 JUMPI PUSH1 0x0 DUP1 REVERT JUMPDEST PUSH1 0x1 DUP4 ADD SLOAD ISZERO PUSH2 0x6D0 JUMPI PUSH1 0x0 DUP1 REVERT JUMPDEST PUSH2 0x6D9 DUP4 PUSH2 0x459 JUMP JUMPDEST DUP6 DUP6 SSTORE PUSH1 0x15 DUP1 SLOAD PUSH1 0x1 ADD SWAP1 SSTORE PUSH1 0x40 DUP1 MLOAD PUSH1 0x1 PUSH1 0xA0 PUSH1 0x2 EXP SUB CALLER AND DUP2 MSTORE PUSH1 0x20 DUP2 ADD DUP9 SWAP1 MSTORE DUP1 DUP3 ADD DUP5 SWAP1 MSTORE PUSH1 0x60 DUP2 ADD DUP4 SWAP1 MSTORE SWAP1 MLOAD SWAP3 SWAP5 POP SWAP1 SWAP3 POP PUSH32 0x6F75810CFD16E411E8E12BC62C9265A590CE60215E3CCD143073B4E702135945 SWAP2 SWAP1 DUP2 SWAP1 SUB PUSH1 0x80 ADD SWAP1 LOG1 POP POP POP POP JUMP JUMPDEST PUSH1 0x4 SLOAD PUSH1 0x0 SWAP1 DUP2 SWAP1 CALLER PUSH1 0x1 PUSH1 0xA0 PUSH1 0x2 EXP SUB SWAP1 DUP2 AND SWAP2 AND EQ PUSH2 0x762 JUMPI PUSH1 0x0 DUP1 REVERT JUMPDEST DUP3 SWAP2 POP DUP2 PUSH1 0x1 PUSH1 0xA0 PUSH1 0x2 EXP SUB AND PUSH4 0x70A08231 ADDRESS PUSH1 0x40 MLOAD DUP3 PUSH4 0xFFFFFFFF AND PUSH29 0x100000000000000000000000000000000000000000000000000000000 MUL DUP2 MSTORE PUSH1 0x4 ADD DUP1 DUP3 PUSH1 0x1 PUSH1 0xA0 PUSH1 0x2 EXP SUB AND PUSH1 0x1 PUSH1 0xA0 PUSH1 0x2 EXP SUB AND DUP2 MSTORE PUSH1 0x20 ADD SWAP2 POP POP PUSH1 0x20 PUSH1 0x40 MLOAD DUP1 DUP4 SUB DUP2 PUSH1 0x0 DUP8 DUP1 EXTCODESIZE ISZERO DUP1 ISZERO PUSH2 0x7D9 JUMPI PUSH1 0x0 DUP1 REVERT JUMPDEST POP GAS CALL ISZERO DUP1 ISZERO PUSH2 0x7ED JUMPI RETURNDATASIZE PUSH1 0x0 DUP1 RETURNDATACOPY RETURNDATASIZE PUSH1 0x0 REVERT JUMPDEST POP POP POP POP PUSH1 0x40 MLOAD RETURNDATASIZE PUSH1 0x20 DUP2 LT ISZERO PUSH2 0x803 JUMPI PUSH1 0x0 DUP1 REVERT JUMPDEST POP MLOAD PUSH1 0x4 DUP1 SLOAD PUSH1 0x40 DUP1 MLOAD PUSH32 0xA9059CBB00000000000000000000000000000000000000000000000000000000 DUP2 MSTORE PUSH1 0x1 PUSH1 0xA0 PUSH1 0x2 EXP SUB SWAP3 DUP4 AND SWAP4 DUP2 ADD SWAP4 SWAP1 SWAP4 MSTORE PUSH1 0x24 DUP4 ADD DUP5 SWAP1 MSTORE MLOAD SWAP3 SWAP4 POP DUP5 AND SWAP2 PUSH4 0xA9059CBB SWAP2 PUSH1 0x44 DUP1 DUP3 ADD SWAP3 PUSH1 0x20 SWAP3 SWAP1 SWAP2 SWAP1 DUP3 SWAP1 SUB ADD DUP2 PUSH1 0x0 DUP8 DUP1 EXTCODESIZE ISZERO DUP1 ISZERO PUSH2 0x878 JUMPI PUSH1 0x0 DUP1 REVERT JUMPDEST POP GAS CALL ISZERO DUP1 ISZERO PUSH2 0x88C JUMPI RETURNDATASIZE PUSH1 0x0 DUP1 RETURNDATACOPY RETURNDATASIZE PUSH1 0x0 REVERT JUMPDEST POP POP POP POP PUSH1 0x40 MLOAD RETURNDATASIZE PUSH1 0x20 DUP2 LT ISZERO PUSH2 0x8A2 JUMPI PUSH1 0x0 DUP1 REVERT JUMPDEST POP MLOAD ISZERO ISZERO PUSH2 0x8AF JUMPI PUSH1 0x0 DUP1 REVERT JUMPDEST POP POP POP JUMP JUMPDEST PUSH1 0x0 SLOAD PUSH1 0x1 SLOAD PUSH1 0x2 SLOAD PUSH1 0x3 SLOAD PUSH1 0x4 SLOAD PUSH1 0x5 SLOAD PUSH1 0x6 SLOAD PUSH1 0x7 SLOAD PUSH1 0x8 SLOAD PUSH1 0x9 SLOAD PUSH1 0xA SLOAD PUSH1 0xB SLOAD PUSH1 0xC SLOAD PUSH1 0xD SLOAD PUSH1 0x1 PUSH1 0xA0 PUSH1 0x2 EXP SUB SWAP14 DUP15 AND SWAP14 SWAP13 DUP14 AND SWAP13 SWAP10 DUP11 AND SWAP10 SWAP1 SWAP9 AND SWAP8 DUP15 JUMP JUMPDEST PUSH1 0x0 DUP1 PUSH1 0x0 PUSH2 0x906 PUSH2 0xE10 JUMP JUMPDEST SWAP3 POP PUSH1 0x0 DUP4 GT PUSH2 0x915 JUMPI PUSH1 0x0 DUP1 REVERT JUMPDEST PUSH1 0x12 SLOAD PUSH2 0x100 SWAP1 DIV PUSH1 0x1 PUSH1 0xA0 PUSH1 0x2 EXP SUB AND ISZERO PUSH2 0xA0F JUMPI PUSH1 0x0 SLOAD CALLER PUSH1 0x1 PUSH1 0xA0 PUSH1 0x2 EXP SUB SWAP1 DUP2 AND SWAP2 AND EQ ISZERO PUSH2 0x963 JUMPI PUSH1 0x12 DUP1 SLOAD PUSH1 0xFF NOT AND PUSH1 0x1 SWAP1 DUP2 OR SWAP1 SWAP2 SSTORE SLOAD PUSH1 0x1 PUSH1 0xA0 PUSH1 0x2 EXP SUB AND SWAP2 POP PUSH2 0xA0A JUMP JUMPDEST PUSH1 0x12 SLOAD CALLER PUSH1 0x1 PUSH1 0xA0 PUSH1 0x2 EXP SUB SWAP1 DUP2 AND PUSH2 0x100 SWAP1 SWAP3 DIV AND EQ ISZERO PUSH2 0x9CE JUMPI PUSH1 0x12 DUP1 SLOAD PUSH22 0xFF000000000000000000000000000000000000000000 NOT AND PUSH22 0x1000000000000000000000000000000000000000000 OR SWAP1 DUP2 SWAP1 SSTORE PUSH1 0x1 PUSH1 0xA0 PUSH1 0x2 EXP SUB PUSH2 0x100 SWAP1 SWAP2 DIV AND SWAP2 POP PUSH2 0xA0A JUMP JUMPDEST PUSH1 0x4 SLOAD CALLER PUSH1 0x1 PUSH1 0xA0 PUSH1 0x2 EXP SUB SWAP1 DUP2 AND SWAP2 AND EQ ISZERO PUSH2 0xA05 JUMPI PUSH1 0x14 DUP1 SLOAD PUSH1 0xFF NOT AND PUSH1 0x1 OR SWAP1 SSTORE PUSH1 0x5 SLOAD PUSH1 0x1 PUSH1 0xA0 PUSH1 0x2 EXP SUB AND SWAP2 POP PUSH2 0xA0A JUMP JUMPDEST PUSH1 0x0 DUP1 REVERT JUMPDEST PUSH2 0xA43 JUMP JUMPDEST PUSH1 0x14 SLOAD PUSH2 0x100 SWAP1 DIV PUSH1 0xFF AND ISZERO PUSH2 0xA05 JUMPI POP POP CALLER PUSH1 0x1 PUSH1 0xA0 PUSH1 0x2 EXP SUB DUP2 AND PUSH1 0x0 SWAP1 DUP2 MSTORE PUSH1 0xE PUSH1 0x20 MSTORE PUSH1 0x40 DUP2 KECCAK256 PUSH1 0x1 DUP2 ADD SWAP2 SWAP1 SWAP2 SSTORE JUMPDEST PUSH1 0x40 MLOAD PUSH1 0x1 PUSH1 0xA0 PUSH1 0x2 EXP SUB DUP4 AND SWAP1 DUP5 ISZERO PUSH2 0x8FC MUL SWAP1 DUP6 SWAP1 PUSH1 0x0 DUP2 DUP2 DUP2 DUP6 DUP9 DUP9 CALL SWAP4 POP POP POP POP ISZERO DUP1 ISZERO PUSH2 0xA79 JUMPI RETURNDATASIZE PUSH1 0x0 DUP1 RETURNDATACOPY RETURNDATASIZE PUSH1 0x0 REVERT JUMPDEST POP PUSH1 0x40 DUP1 MLOAD PUSH1 0x1 PUSH1 0xA0 PUSH1 0x2 EXP SUB CALLER AND DUP2 MSTORE SWAP1 MLOAD PUSH32 0xE19ED71156E31B3C9E18AC7AD8D1B79F0A0FEB3BE18D23DAE612E52040AADA4B SWAP2 DUP2 SWAP1 SUB PUSH1 0x20 ADD SWAP1 LOG1 POP POP POP JUMP JUMPDEST PUSH1 0x0 DUP1 PUSH1 0x0 DUP1 PUSH1 0x0 DUP1 PUSH1 0xA ADD SLOAD TIMESTAMP LT ISZERO DUP1 ISZERO PUSH2 0xAD8 JUMPI POP PUSH1 0xB SLOAD TIMESTAMP LT JUMPDEST ISZERO ISZERO PUSH2 0xAE3 JUMPI PUSH1 0x0 DUP1 REVERT JUMPDEST PUSH1 0x0 SLOAD CALLER PUSH1 0x1 PUSH1 0xA0 PUSH1 0x2 EXP SUB SWAP1 DUP2 AND SWAP2 AND EQ PUSH2 0xAFE JUMPI PUSH1 0x0 DUP1 REVERT JUMPDEST PUSH1 0x14 SLOAD PUSH2 0x100 SWAP1 DIV PUSH1 0xFF AND ISZERO PUSH2 0xB13 JUMPI PUSH1 0x0 DUP1 REVERT JUMPDEST PUSH1 0x13 SLOAD ISZERO ISZERO PUSH2 0xB21 JUMPI PUSH1 0x0 DUP1 REVERT JUMPDEST PUSH1 0x17 SLOAD ISZERO ISZERO PUSH2 0xB2F JUMPI PUSH1 0x0 DUP1 REVERT JUMPDEST PUSH1 0x11 SLOAD ISZERO PUSH2 0xB3C JUMPI PUSH1 0x0 DUP1 REVERT JUMPDEST PUSH1 0x10 SLOAD PUSH2 0xB49 SWAP1 DUP8 PUSH2 0x1076 JUMP JUMPDEST ISZERO ISZERO PUSH2 0xB54 JUMPI PUSH1 0x0 DUP1 REVERT JUMPDEST PUSH1 0x17 SLOAD NUMBER GT PUSH2 0xB62 JUMPI PUSH1 0x0 DUP1 REVERT JUMPDEST PUSH1 0x17 SLOAD BLOCKHASH PUSH1 0x18 DUP2 SWAP1 SSTORE ISZERO ISZERO PUSH2 0xB76 JUMPI PUSH1 0x0 DUP1 REVERT JUMPDEST PUSH1 0x11 DUP7 SWAP1 SSTORE PUSH1 0x0 SWAP2 POP JUMPDEST PUSH1 0xD SLOAD DUP3 LT ISZERO PUSH2 0xBFC JUMPI PUSH1 0x13 SLOAD PUSH1 0x18 SLOAD PUSH1 0x40 DUP1 MLOAD DUP10 DUP2 MSTORE PUSH1 0x20 DUP2 ADD SWAP4 SWAP1 SWAP4 MSTORE DUP3 DUP2 ADD SWAP2 SWAP1 SWAP2 MSTORE PUSH1 0x60 DUP3 ADD DUP6 SWAP1 MSTORE MLOAD SWAP1 DUP2 SWAP1 SUB PUSH1 0x80 ADD SWAP1 KECCAK256 PUSH1 0x16 SLOAD SWAP1 SWAP6 POP DUP6 DUP2 ISZERO ISZERO PUSH2 0xBC7 JUMPI INVALID JUMPDEST MOD SWAP1 POP PUSH2 0xBD3 DUP2 PUSH2 0x10A9 JUMP JUMPDEST PUSH1 0x1 PUSH1 0xA0 PUSH1 0x2 EXP SUB DUP2 AND PUSH1 0x0 SWAP1 DUP2 MSTORE PUSH1 0xE PUSH1 0x20 MSTORE PUSH1 0x40 SWAP1 KECCAK256 SLOAD SWAP1 SWAP5 POP SWAP3 POP PUSH1 0x1 SWAP1 SWAP2 ADD SWAP1 PUSH2 0xB80 JUMP JUMPDEST PUSH1 0x12 DUP1 SLOAD PUSH1 0x1 PUSH1 0xA0 PUSH1 0x2 EXP SUB DUP1 DUP8 AND PUSH2 0x100 SWAP1 DUP2 MUL PUSH21 0xFFFFFFFFFFFFFFFFFFFFFFFFFFFFFFFFFFFFFFFF00 NOT SWAP1 SWAP4 AND SWAP3 SWAP1 SWAP3 OR SWAP3 DUP4 SWAP1 SSTORE PUSH1 0x13 SLOAD PUSH1 0x40 DUP1 MLOAD SWAP4 SWAP1 SWAP5 DIV SWAP1 SWAP2 AND DUP3 MSTORE PUSH1 0x20 DUP3 ADD DUP7 SWAP1 MSTORE DUP2 DUP4 ADD DUP10 SWAP1 MSTORE PUSH1 0x60 DUP3 ADD MSTORE SWAP1 MLOAD PUSH32 0x7C195D9D8CA6F7AEDFCE85403A18BAD6DE0C1B5864A97FA635AE120B4EB4F8C3 SWAP2 DUP2 SWAP1 SUB PUSH1 0x80 ADD SWAP1 LOG1 POP POP POP POP POP POP JUMP JUMPDEST PUSH1 0xA SLOAD TIMESTAMP LT DUP1 ISZERO SWAP1 PUSH2 0xC9C JUMPI POP PUSH1 0xB SLOAD TIMESTAMP LT JUMPDEST ISZERO ISZERO PUSH2 0xCA7 JUMPI PUSH1 0x0 DUP1 REVERT JUMPDEST PUSH1 0x4 SLOAD CALLER PUSH1 0x1 PUSH1 0xA0 PUSH1 0x2 EXP SUB SWAP1 DUP2 AND SWAP2 AND EQ PUSH2 0xCC2 JUMPI PUSH1 0x0 DUP1 REVERT JUMPDEST PUSH1 0x14 SLOAD PUSH2 0x100 SWAP1 DIV PUSH1 0xFF AND ISZERO PUSH2 0xCD7 JUMPI PUSH1 0x0 DUP1 REVERT JUMPDEST PUSH1 0x13 SLOAD ISZERO PUSH2 0xCE4 JUMPI PUSH1 0x0 DUP1 REVERT JUMPDEST PUSH1 0x17 SLOAD ISZERO PUSH2 0xCF1 JUMPI PUSH1 0x0 DUP1 REVERT JUMPDEST PUSH1 0x7 SLOAD PUSH2 0xCFE SWAP1 DUP3 PUSH2 0x1076 JUMP JUMPDEST ISZERO ISZERO PUSH2 0xD09 JUMPI PUSH1 0x0 DUP1 REVERT JUMPDEST PUSH1 0x13 DUP2 SWAP1 SSTORE NUMBER PUSH1 0x17 SSTORE PUSH1 0x40 DUP1 MLOAD DUP3 DUP2 MSTORE SWAP1 MLOAD PUSH32 0x83985F84FEC43F6C4B0B122BE29B8625FC89E54A2FB6BA2B76A2751C1C7874D9 SWAP2 DUP2 SWAP1 SUB PUSH1 0x20 ADD SWAP1 LOG1 POP JUMP JUMPDEST PUSH1 0xA SLOAD TIMESTAMP LT PUSH2 0xD56 JUMPI PUSH1 0x0 DUP1 REVERT JUMPDEST PUSH1 0x0 SLOAD CALLER PUSH1 0x1 PUSH1 0xA0 PUSH1 0x2 EXP SUB SWAP1 DUP2 AND SWAP2 AND EQ PUSH2 0xD71 JUMPI PUSH1 0x0 DUP1 REVERT JUMPDEST PUSH1 0x14 SLOAD PUSH2 0x100 SWAP1 DIV PUSH1 0xFF AND ISZERO PUSH2 0xD86 JUMPI PUSH1 0x0 DUP1 REVERT JUMPDEST PUSH1 0x10 SLOAD ISZERO PUSH2 0xD93 JUMPI PUSH1 0x0 DUP1 REVERT JUMPDEST DUP1 ISZERO ISZERO PUSH2 0xD9F JUMPI PUSH1 0x0 DUP1 REVERT JUMPDEST PUSH1 0x10 DUP2 SWAP1 SSTORE PUSH1 0x40 DUP1 MLOAD DUP3 DUP2 MSTORE SWAP1 MLOAD PUSH32 0x451914E591226064706DFEE5BBEA9F69833323AA4EF98870F5EC98F5E3FDDE96 SWAP2 DUP2 SWAP1 SUB PUSH1 0x20 ADD SWAP1 LOG1 POP JUMP JUMPDEST PUSH1 0xC SLOAD TIMESTAMP LT ISZERO PUSH2 0xDE9 JUMPI PUSH1 0x0 DUP1 REVERT JUMPDEST PUSH1 0x4 SLOAD CALLER PUSH1 0x1 PUSH1 0xA0 PUSH1 0x2 EXP SUB SWAP1 DUP2 AND SWAP2 AND EQ PUSH2 0xE04 JUMPI PUSH1 0x0 DUP1 REVERT JUMPDEST CALLER PUSH1 0x1 PUSH1 0xA0 PUSH1 0x2 EXP SUB AND SELFDESTRUCT JUMPDEST PUSH1 0x12 SLOAD PUSH1 0x0 SWAP1 DUP2 SWAP1 DUP2 SWAP1 PUSH2 0x100 SWAP1 DIV PUSH1 0x1 PUSH1 0xA0 PUSH1 0x2 EXP SUB AND ISZERO PUSH2 0xF08 JUMPI PUSH1 0x0 SLOAD CALLER PUSH1 0x1 PUSH1 0xA0 PUSH1 0x2 EXP SUB SWAP1 DUP2 AND SWAP2 AND EQ ISZERO PUSH2 0xE62 JUMPI PUSH1 0x12 SLOAD PUSH1 0xFF AND ISZERO PUSH2 0xE58 JUMPI PUSH1 0x0 SWAP3 POP PUSH2 0xF46 JUMP JUMPDEST PUSH1 0x2 SLOAD SWAP2 POP PUSH2 0xEF3 JUMP JUMPDEST PUSH1 0x12 SLOAD CALLER PUSH1 0x1 PUSH1 0xA0 PUSH1 0x2 EXP SUB SWAP1 DUP2 AND PUSH2 0x100 SWAP1 SWAP3 DIV AND EQ ISZERO PUSH2 0xEB5 JUMPI PUSH1 0x12 SLOAD PUSH22 0x1000000000000000000000000000000000000000000 SWAP1 DIV PUSH1 0xFF AND ISZERO PUSH2 0xEAB JUMPI PUSH1 0x0 SWAP3 POP PUSH2 0xF46 JUMP JUMPDEST PUSH1 0x3 SLOAD SWAP2 POP PUSH2 0xEF3 JUMP JUMPDEST PUSH1 0x4 SLOAD CALLER PUSH1 0x1 PUSH1 0xA0 PUSH1 0x2 EXP SUB SWAP1 DUP2 AND SWAP2 AND EQ ISZERO PUSH2 0xEEA JUMPI PUSH1 0x14 SLOAD PUSH1 0xFF AND ISZERO PUSH2 0xEE0 JUMPI PUSH1 0x0 SWAP3 POP PUSH2 0xF46 JUMP JUMPDEST PUSH1 0x6 SLOAD SWAP2 POP PUSH2 0xEF3 JUMP JUMPDEST PUSH1 0x0 SWAP3 POP PUSH2 0xF46 JUMP JUMPDEST PUSH1 0x8 SLOAD PUSH1 0x16 SLOAD PUSH2 0x3E8 SWAP2 MUL DUP4 MUL DIV SWAP3 POP PUSH2 0xF46 JUMP JUMPDEST PUSH1 0x14 SLOAD PUSH2 0x100 SWAP1 DIV PUSH1 0xFF AND ISZERO PUSH2 0xF41 JUMPI POP PUSH1 0x1 PUSH1 0xA0 PUSH1 0x2 EXP SUB CALLER AND PUSH1 0x0 SWAP1 DUP2 MSTORE PUSH1 0xE PUSH1 0x20 MSTORE PUSH1 0x40 SWAP1 KECCAK256 PUSH1 0x8 SLOAD PUSH1 0x1 DUP3 ADD SLOAD MUL SWAP3 POP PUSH2 0xF46 JUMP JUMPDEST PUSH1 0x0 SWAP3 POP JUMPDEST POP POP SWAP1 JUMP JUMPDEST PUSH1 0x10 SLOAD PUSH1 0x11 SLOAD PUSH1 0x12 SLOAD PUSH2 0x100 DUP1 DUP3 DIV PUSH1 0x1 PUSH1 0xA0 PUSH1 0x2 EXP SUB AND PUSH1 0x0 DUP2 DUP2 MSTORE PUSH1 0xE PUSH1 0x20 MSTORE PUSH1 0x40 SWAP1 KECCAK256 SLOAD PUSH1 0x13 SLOAD PUSH1 0x14 SLOAD PUSH1 0x15 SLOAD PUSH1 0x16 SLOAD PUSH1 0x17 SLOAD PUSH1 0x18 SLOAD SWAP11 SWAP12 SWAP10 SWAP11 PUSH1 0xFF DUP1 DUP12 AND SWAP12 SWAP9 SWAP11 SWAP8 SWAP10 PUSH22 0x1000000000000000000000000000000000000000000 SWAP1 SWAP9 DIV DUP2 AND SWAP9 SWAP7 SWAP8 DUP2 DUP8 AND SWAP8 SWAP7 DIV AND SWAP5 JUMP JUMPDEST PUSH1 0x14 SLOAD PUSH2 0x100 SWAP1 DIV PUSH1 0xFF AND ISZERO PUSH2 0xFD0 JUMPI PUSH1 0x0 DUP1 REVERT JUMPDEST PUSH1 0x12 SLOAD PUSH2 0x100 SWAP1 DIV PUSH1 0x1 PUSH1 0xA0 PUSH1 0x2 EXP SUB AND ISZERO PUSH2 0xFEB JUMPI PUSH1 0x0 DUP1 REVERT JUMPDEST PUSH1 0x4 SLOAD CALLER PUSH1 0x1 PUSH1 0xA0 PUSH1 0x2 EXP SUB SWAP1 DUP2 AND SWAP2 AND EQ DUP1 ISZERO SWAP1 PUSH2 0x1019 JUMPI POP PUSH1 0x0 SLOAD CALLER PUSH1 0x1 PUSH1 0xA0 PUSH1 0x2 EXP SUB SWAP1 DUP2 AND SWAP2 AND EQ ISZERO JUMPDEST ISZERO PUSH2 0x103C JUMPI PUSH1 0xB SLOAD TIMESTAMP LT DUP1 ISZERO SWAP1 PUSH2 0x1031 JUMPI POP PUSH1 0xC SLOAD TIMESTAMP LT JUMPDEST ISZERO ISZERO PUSH2 0x103C JUMPI PUSH1 0x0 DUP1 REVERT JUMPDEST PUSH1 0x14 DUP1 SLOAD PUSH2 0xFF00 NOT AND PUSH2 0x100 OR SWAP1 SSTORE PUSH1 0x40 MLOAD PUSH32 0x4A19036F5B4D75256C1C24150A8254BD3C2BDB1EAEEEC4523E927F0AB1CDD054 SWAP1 PUSH1 0x0 SWAP1 LOG1 JUMP JUMPDEST PUSH1 0x40 DUP1 MLOAD SWAP2 DUP3 MSTORE PUSH13 0x1000000000000000000000000 PUSH1 0x1 PUSH1 0xA0 PUSH1 0x2 EXP SUB CALLER AND MUL PUSH1 0x20 DUP4 ADD MSTORE MLOAD SWAP1 DUP2 SWAP1 SUB PUSH1 0x34 ADD SWAP1 KECCAK256 EQ SWAP1 JUMP JUMPDEST PUSH1 0x0 DUP1 PUSH1 0x0 DUP1 PUSH1 0x0 PUSH2 0x10B9 PUSH2 0x11D7 JUMP JUMPDEST PUSH2 0x10C1 PUSH2 0x11D7 JUMP JUMPDEST PUSH1 0xF SLOAD PUSH1 0x0 SWAP7 POP PUSH1 0x0 NOT ADD SWAP5 POP JUMPDEST DUP5 DUP7 EQ ISZERO PUSH2 0x1106 JUMPI PUSH1 0xF DUP1 SLOAD DUP8 SWAP1 DUP2 LT PUSH2 0x10E5 JUMPI INVALID JUMPDEST PUSH1 0x0 SWAP2 DUP3 MSTORE PUSH1 0x20 SWAP1 SWAP2 KECCAK256 PUSH1 0x2 SWAP1 SWAP2 MUL ADD SLOAD PUSH1 0x1 PUSH1 0xA0 PUSH1 0x2 EXP SUB AND SWAP7 POP PUSH2 0x11CC JUMP JUMPDEST PUSH1 0xF DUP1 SLOAD PUSH1 0x2 DUP9 DUP9 SUB DIV DUP9 ADD SWAP6 POP PUSH1 0x1 DUP7 ADD SWAP5 POP DUP6 SWAP1 DUP2 LT PUSH2 0x1124 JUMPI INVALID JUMPDEST PUSH1 0x0 SWAP2 DUP3 MSTORE PUSH1 0x20 SWAP2 DUP3 SWAP1 KECCAK256 PUSH1 0x40 DUP1 MLOAD DUP1 DUP3 ADD SWAP1 SWAP2 MSTORE PUSH1 0x2 SWAP1 SWAP3 MUL ADD DUP1 SLOAD PUSH1 0x1 PUSH1 0xA0 PUSH1 0x2 EXP SUB AND DUP3 MSTORE PUSH1 0x1 ADD SLOAD SWAP2 DUP2 ADD SWAP2 SWAP1 SWAP2 MSTORE PUSH1 0xF DUP1 SLOAD SWAP2 SWAP4 POP SWAP1 DUP5 SWAP1 DUP2 LT PUSH2 0x1169 JUMPI INVALID JUMPDEST PUSH1 0x0 SWAP2 DUP3 MSTORE PUSH1 0x20 SWAP2 DUP3 SWAP1 KECCAK256 PUSH1 0x40 DUP1 MLOAD DUP1 DUP3 ADD SWAP1 SWAP2 MSTORE PUSH1 0x2 SWAP1 SWAP3 MUL ADD DUP1 SLOAD PUSH1 0x1 PUSH1 0xA0 PUSH1 0x2 EXP SUB AND DUP3 MSTORE PUSH1 0x1 ADD SLOAD DUP2 DUP4 ADD MSTORE SWAP1 DUP4 ADD MLOAD SWAP1 SWAP2 POP DUP9 LT PUSH2 0x11C3 JUMPI DUP1 PUSH1 0x20 ADD MLOAD DUP9 LT ISZERO PUSH2 0x11BB JUMPI DUP1 MLOAD SWAP7 POP PUSH2 0x11CC JUMP JUMPDEST DUP3 SWAP6 POP PUSH2 0x11C7 JUMP JUMPDEST DUP4 SWAP5 POP JUMPDEST PUSH2 0x10CF JUMP JUMPDEST POP POP POP POP POP POP SWAP2 SWAP1 POP JUMP JUMPDEST PUSH1 0x40 DUP1 MLOAD DUP1 DUP3 ADD SWAP1 SWAP2 MSTORE PUSH1 0x0 DUP1 DUP3 MSTORE PUSH1 0x20 DUP3 ADD MSTORE SWAP1 JUMP STOP LOG1 PUSH6 0x627A7A723058 KECCAK256 SSTORE BALANCE 0xbe 0x24 DUP10 SWAP12 PUSH27 0x59AE59373896A1EF78E37112E93D2C930D614D711D41276F280029 "
        }
    },
    "methods": {
        "participants": [
            "_0"
        ],
        "participate": [
            "_message"
        ],
        "recover": [
            "_token"
        ],
        "deployment": [],
        "withdraw": [],
        "end": [
            "_message"
        ],
        "reveal": [
            "_message"
        ],
        "begin": [
            "_secret"
        ],
        "destroy": [],
        "balance": [],
        "state": [],
        "cancel": [],
        "fallback": []
    }
}