{
    "abi": [
        {
            "constant": false,
            "inputs": [
                {
                    "name": "_causeIndex",
                    "type": "uint256"
                },
                {
                    "name": "_count",
                    "type": "uint256"
                }
            ],
            "name": "voteIndex",
            "outputs": [],
            "payable": false,
            "stateMutability": "nonpayable",
            "type": "function"
        },
        {
            "constant": false,
            "inputs": [
                {
                    "name": "_causeIndex",
                    "type": "uint256"
                },
                {
                    "name": "_count",
                    "type": "uint256"
                }
            ],
            "name": "_voteIndex",
            "outputs": [],
            "payable": false,
            "stateMutability": "nonpayable",
            "type": "function"
        },
        {
            "constant": false,
            "inputs": [
                {
                    "name": "_causeName",
                    "type": "bytes32"
                },
                {
                    "name": "_count",
                    "type": "uint256"
                }
            ],
            "name": "voteName",
            "outputs": [],
            "payable": false,
            "stateMutability": "nonpayable",
            "type": "function"
        },
        {
            "constant": true,
            "inputs": [
                {
                    "name": "",
                    "type": "address"
                },
                {
                    "name": "",
                    "type": "uint256"
                }
            ],
            "name": "_participants",
            "outputs": [
                {
                    "name": "_causeIndex",
                    "type": "uint256"
                },
                {
                    "name": "_count",
                    "type": "uint256"
                }
            ],
            "payable": false,
            "stateMutability": "view",
            "type": "function"
        },
        {
            "constant": false,
            "inputs": [],
            "name": "destroy",
            "outputs": [],
            "payable": false,
            "stateMutability": "nonpayable",
            "type": "function"
        },
        {
            "constant": true,
            "inputs": [],
            "name": "maxVoteCount",
            "outputs": [
                {
                    "name": "",
                    "type": "uint256"
                }
            ],
            "payable": false,
            "stateMutability": "view",
            "type": "function"
        },
        {
            "constant": true,
            "inputs": [],
            "name": "causes",
            "outputs": [
                {
                    "name": "_names",
                    "type": "bytes32[]"
                },
                {
                    "name": "_casters",
                    "type": "address[]"
                },
                {
                    "name": "_voteCounts",
                    "type": "uint256[]"
                }
            ],
            "payable": false,
            "stateMutability": "view",
            "type": "function"
        },
        {
            "constant": true,
            "inputs": [],
            "name": "votes",
            "outputs": [
                {
                    "name": "_causeIndexes",
                    "type": "uint256[]"
                },
                {
                    "name": "_counts",
                    "type": "uint256[]"
                }
            ],
            "payable": false,
            "stateMutability": "view",
            "type": "function"
        },
        {
            "inputs": [
                {
                    "name": "_fundraiser",
                    "type": "address"
                }
            ],
            "payable": false,
            "stateMutability": "nonpayable",
            "type": "constructor"
        },
        {
            "anonymous": false,
            "inputs": [
                {
                    "indexed": true,
                    "name": "_caster",
                    "type": "address"
                },
                {
                    "indexed": true,
                    "name": "_causeIndex",
                    "type": "uint256"
                },
                {
                    "indexed": false,
                    "name": "_causeName",
                    "type": "bytes32"
                },
                {
                    "indexed": false,
                    "name": "_voteCount",
                    "type": "uint256"
                }
            ],
            "name": "CastName",
            "type": "event"
        },
        {
            "anonymous": false,
            "inputs": [
                {
                    "indexed": true,
                    "name": "_caster",
                    "type": "address"
                },
                {
                    "indexed": true,
                    "name": "_causeIndex",
                    "type": "uint256"
                },
                {
                    "indexed": false,
                    "name": "_voteCount",
                    "type": "uint256"
                }
            ],
            "name": "CastIndex",
            "type": "event"
        }
    ],
    "evm": {
        "bytecode": {
            "linkReferences": {},
            "object": "6060604052341561000f57600080fd5b604051602080610d3e8339810160405280805160018054600160a060020a03909216600160a060020a03199092169190911790555050610cea806100546000396000f30060606040526004361061008d5763ffffffff7c010000000000000000000000000000000000000000000000000000000060003504166318c90c6781146100925780632bf80c17146100ad57806350be1034146100c65780635fdfdfb7146100df57806383197ef0146101195780639f62568d1461012c578063c722cecc14610151578063e168c3ec14610242575b600080fd5b341561009d57600080fd5b6100ab6004356024356102ee565b005b34156100b857600080fd5b6100ab600435602435610379565b34156100d157600080fd5b6100ab600435602435610402565b34156100ea57600080fd5b610101600160a060020a036004351660243561057e565b60405191825260208201526040908101905180910390f35b341561012457600080fd5b6100ab6105b9565b341561013757600080fd5b61013f6106d3565b60405190815260200160405180910390f35b341561015c57600080fd5b61016461094d565b60405180806020018060200180602001848103845287818151815260200191508051906020019060200280838360005b838110156101ac578082015183820152602001610194565b50505050905001848103835286818151815260200191508051906020019060200280838360005b838110156101eb5780820151838201526020016101d3565b50505050905001848103825285818151815260200191508051906020019060200280838360005b8381101561022a578082015183820152602001610212565b50505050905001965050505050505060405180910390f35b341561024d57600080fd5b610255610a79565b604051808060200180602001838103835285818151815260200191508051906020019060200280838360005b83811015610299578082015183820152602001610281565b50505050905001838103825284818151815260200191508051906020019060200280838360005b838110156102d85780820151838201526020016102c0565b5050505090500194505050505060405180910390f35b6000805483106102fd57600080fd5b6103078383610379565b600080548490811061031557fe5b60009182526020909120600390910201600281018054840190819055909150839033600160a060020a0316907f5ebe585db19d8dc48277d77736f32f990438c57e3787b79d4df7b68fdca987569060405190815260200160405180910390a3505050565b6000610383610bb2565b600160a060020a033316600090815260026020526040902091506103a78284610b5f565b15156103b257600080fd5b604080519081016040528481526020810184905282549091508290600181016103db8382610bc9565b60009283526020909220839160020201815181556020820151816001015550505050505050565b600080600061040f610bfa565b85151561041b57600080fd5b600160a060020a0333166000908152600260205260409020935061043f8486610b5f565b151561044a57600080fd5b600092505b60005483101561049357600080548490811061046757fe5b60009182526020909120600390910201805490925086141561048857600080fd5b60019092019161044f565b60005492506104a28386610379565b60606040519081016040908152878252600160a060020a033316602083015281018690526000805491925090600181016104dc8382610c1a565b6000928352602090922083916003020181518155602082015160018201805473ffffffffffffffffffffffffffffffffffffffff1916600160a060020a0392909216919091179055604082015181600201555050508233600160a060020a03167f0ed5f243b8af488bd238b7ad4c53502afe8eeab5aca9cd8968a24071bd516186888860405191825260208201526040908101905180910390a3505050505050565b60026020528160005260406000208181548110151561059957fe5b600091825260209091206002909102018054600190910154909250905082565b6001546000908190600160a060020a0316632dde9aca826040516101c001526040518163ffffffff167c01000000000000000000000000000000000000000000000000000000000281526004016101c060405180830381600087803b151561062057600080fd5b6102c65a03f1151561063157600080fd5b50505060405180519060200180519060200180519060200180519060200180519060200180519060200180519060200180519060200180519060200180519060200180519060200180519060200180519060200180519050509c505050505050505095505050505033600160a060020a031682600160a060020a03161415156106b957600080fd5b42819010156106c757600080fd5b33600160a060020a0316ff5b600154600090819081908190600160a060020a0316632dde9aca826040516101c001526040518163ffffffff167c01000000000000000000000000000000000000000000000000000000000281526004016101c060405180830381600087803b151561073e57600080fd5b6102c65a03f1151561074f57600080fd5b505050604051805190602001805190602001805190602001805190602001805190602001805190602001805190602001805190602001805190602001805190602001805190602001805190602001805190602001805190505050509c505050505050505050505082421015156107c85760009350610947565b600154600160a060020a031663c19d93fb600060405161016001526040518163ffffffff167c010000000000000000000000000000000000000000000000000000000002815260040161016060405180830381600087803b151561082b57600080fd5b6102c65a03f1151561083c57600080fd5b50505060405180519060200180519060200180519060200180519060200180519060200180519060200180519060200180519060200180519060200180519060200180519050505099505050505050505050811561089d5760009350610947565b600154600160a060020a03166309e69ede336000604051604001526040517c010000000000000000000000000000000000000000000000000000000063ffffffff8416028152600160a060020a0390911660048201526024016040805180830381600087803b151561090e57600080fd5b6102c65a03f1151561091f57600080fd5b505050604051805190602001805150909150508015156109425760009350610947565b600193505b50505090565b610955610c46565b61095d610c46565b610965610c46565b6000805481906040518059106109785750595b908082528060200260200182016040525060005490955060405180591061099c5750595b90808252806020026020018201604052506000549094506040518059106109c05750595b90808252806020026020018201604052509250600091505b600054821015610a725760008054839081106109f057fe5b906000526020600020906003020190508060000154858381518110610a1157fe5b602090810290910101526001810154600160a060020a0316848381518110610a3557fe5b600160a060020a039092166020928302909101909101526002810154838381518110610a5d57fe5b602090810290910101526001909101906109d8565b5050909192565b610a81610c46565b610a89610c46565b600160a060020a033316600090815260026020526040808220805490929182919051805910610ab55750595b90808252806020026020018201604052508354909550604051805910610ad85750595b90808252806020026020018201604052509350600091505b8254821015610b58578282815481101515610b0757fe5b906000526020600020906002020190508060000154858381518110610b2857fe5b602090810290910101526001810154848381518110610b4357fe5b60209081029091010152600190910190610af0565b5050509091565b60008080805b8554821015610b9a578582815481101515610b7c57fe5b90600052602060002090600202019050806001015483019250610b65565b610ba26106d3565b8584011115935050505092915050565b604080519081016040526000808252602082015290565b815481835581811511610bf557600202816002028360005260206000209182019101610bf59190610c58565b505050565b606060405190810160409081526000808352602083018190529082015290565b815481835581811511610bf557600302816003028360005260206000209182019101610bf59190610c7f565b60206040519081016040526000815290565b610c7c91905b80821115610c785760008082556001820155600201610c5e565b5090565b90565b610c7c91905b80821115610c7857600080825560018201805473ffffffffffffffffffffffffffffffffffffffff191690556002820155600301610c855600a165627a7a7230582014141f8787aacc78a8ad103a19132bf0769b2e8d282e738abfd0c9bdf12b76040029",
            "opcodes": "PUSH1 0x60 PUSH1 0x40 MSTORE CALLVALUE ISZERO PUSH2 0xF JUMPI PUSH1 0x0 DUP1 REVERT JUMPDEST PUSH1 0x40 MLOAD PUSH1 0x20 DUP1 PUSH2 0xD3E DUP4 CODECOPY DUP2 ADD PUSH1 0x40 MSTORE DUP1 DUP1 MLOAD PUSH1 0x1 DUP1 SLOAD PUSH1 0x1 PUSH1 0xA0 PUSH1 0x2 EXP SUB SWAP1 SWAP3 AND PUSH1 0x1 PUSH1 0xA0 PUSH1 0x2 EXP SUB NOT SWAP1 SWAP3 AND SWAP2 SWAP1 SWAP2 OR SWAP1 SSTORE POP POP PUSH2 0xCEA DUP1 PUSH2 0x54 PUSH1 0x0 CODECOPY PUSH1 0x0 RETURN STOP PUSH1 0x60 PUSH1 0x40 MSTORE PUSH1 0x4 CALLDATASIZE LT PUSH2 0x8D JUMPI PUSH4 0xFFFFFFFF PUSH29 0x100000000000000000000000000000000000000000000000000000000 PUSH1 0x0 CALLDATALOAD DIV AND PUSH4 0x18C90C67 DUP2 EQ PUSH2 0x92 JUMPI DUP1 PUSH4 0x2BF80C17 EQ PUSH2 0xAD JUMPI DUP1 PUSH4 0x50BE1034 EQ PUSH2 0xC6 JUMPI DUP1 PUSH4 0x5FDFDFB7 EQ PUSH2 0xDF JUMPI DUP1 PUSH4 0x83197EF0 EQ PUSH2 0x119 JUMPI DUP1 PUSH4 0x9F62568D EQ PUSH2 0x12C JUMPI DUP1 PUSH4 0xC722CECC EQ PUSH2 0x151 JUMPI DUP1 PUSH4 0xE168C3EC EQ PUSH2 0x242 JUMPI JUMPDEST PUSH1 0x0 DUP1 REVERT JUMPDEST CALLVALUE ISZERO PUSH2 0x9D JUMPI PUSH1 0x0 DUP1 REVERT JUMPDEST PUSH2 0xAB PUSH1 0x4 CALLDATALOAD PUSH1 0x24 CALLDATALOAD PUSH2 0x2EE JUMP JUMPDEST STOP JUMPDEST CALLVALUE ISZERO PUSH2 0xB8 JUMPI PUSH1 0x0 DUP1 REVERT JUMPDEST PUSH2 0xAB PUSH1 0x4 CALLDATALOAD PUSH1 0x24 CALLDATALOAD PUSH2 0x379 JUMP JUMPDEST CALLVALUE ISZERO PUSH2 0xD1 JUMPI PUSH1 0x0 DUP1 REVERT JUMPDEST PUSH2 0xAB PUSH1 0x4 CALLDATALOAD PUSH1 0x24 CALLDATALOAD PUSH2 0x402 JUMP JUMPDEST CALLVALUE ISZERO PUSH2 0xEA JUMPI PUSH1 0x0 DUP1 REVERT JUMPDEST PUSH2 0x101 PUSH1 0x1 PUSH1 0xA0 PUSH1 0x2 EXP SUB PUSH1 0x4 CALLDATALOAD AND PUSH1 0x24 CALLDATALOAD PUSH2 0x57E JUMP JUMPDEST PUSH1 0x40 MLOAD SWAP2 DUP3 MSTORE PUSH1 0x20 DUP3 ADD MSTORE PUSH1 0x40 SWAP1 DUP2 ADD SWAP1 MLOAD DUP1 SWAP2 SUB SWAP1 RETURN JUMPDEST CALLVALUE ISZERO PUSH2 0x124 JUMPI PUSH1 0x0 DUP1 REVERT JUMPDEST PUSH2 0xAB PUSH2 0x5B9 JUMP JUMPDEST CALLVALUE ISZERO PUSH2 0x137 JUMPI PUSH1 0x0 DUP1 REVERT JUMPDEST PUSH2 0x13F PUSH2 0x6D3 JUMP JUMPDEST PUSH1 0x40 MLOAD SWAP1 DUP2 MSTORE PUSH1 0x20 ADD PUSH1 0x40 MLOAD DUP1 SWAP2 SUB SWAP1 RETURN JUMPDEST CALLVALUE ISZERO PUSH2 0x15C JUMPI PUSH1 0x0 DUP1 REVERT JUMPDEST PUSH2 0x164 PUSH2 0x94D JUMP JUMPDEST PUSH1 0x40 MLOAD DUP1 DUP1 PUSH1 0x20 ADD DUP1 PUSH1 0x20 ADD DUP1 PUSH1 0x20 ADD DUP5 DUP2 SUB DUP5 MSTORE DUP8 DUP2 DUP2 MLOAD DUP2 MSTORE PUSH1 0x20 ADD SWAP2 POP DUP1 MLOAD SWAP1 PUSH1 0x20 ADD SWAP1 PUSH1 0x20 MUL DUP1 DUP4 DUP4 PUSH1 0x0 JUMPDEST DUP4 DUP2 LT ISZERO PUSH2 0x1AC JUMPI DUP1 DUP3 ADD MLOAD DUP4 DUP3 ADD MSTORE PUSH1 0x20 ADD PUSH2 0x194 JUMP JUMPDEST POP POP POP POP SWAP1 POP ADD DUP5 DUP2 SUB DUP4 MSTORE DUP7 DUP2 DUP2 MLOAD DUP2 MSTORE PUSH1 0x20 ADD SWAP2 POP DUP1 MLOAD SWAP1 PUSH1 0x20 ADD SWAP1 PUSH1 0x20 MUL DUP1 DUP4 DUP4 PUSH1 0x0 JUMPDEST DUP4 DUP2 LT ISZERO PUSH2 0x1EB JUMPI DUP1 DUP3 ADD MLOAD DUP4 DUP3 ADD MSTORE PUSH1 0x20 ADD PUSH2 0x1D3 JUMP JUMPDEST POP POP POP POP SWAP1 POP ADD DUP5 DUP2 SUB DUP3 MSTORE DUP6 DUP2 DUP2 MLOAD DUP2 MSTORE PUSH1 0x20 ADD SWAP2 POP DUP1 MLOAD SWAP1 PUSH1 0x20 ADD SWAP1 PUSH1 0x20 MUL DUP1 DUP4 DUP4 PUSH1 0x0 JUMPDEST DUP4 DUP2 LT ISZERO PUSH2 0x22A JUMPI DUP1 DUP3 ADD MLOAD DUP4 DUP3 ADD MSTORE PUSH1 0x20 ADD PUSH2 0x212 JUMP JUMPDEST POP POP POP POP SWAP1 POP ADD SWAP7 POP POP POP POP POP POP POP PUSH1 0x40 MLOAD DUP1 SWAP2 SUB SWAP1 RETURN JUMPDEST CALLVALUE ISZERO PUSH2 0x24D JUMPI PUSH1 0x0 DUP1 REVERT JUMPDEST PUSH2 0x255 PUSH2 0xA79 JUMP JUMPDEST PUSH1 0x40 MLOAD DUP1 DUP1 PUSH1 0x20 ADD DUP1 PUSH1 0x20 ADD DUP4 DUP2 SUB DUP4 MSTORE DUP6 DUP2 DUP2 MLOAD DUP2 MSTORE PUSH1 0x20 ADD SWAP2 POP DUP1 MLOAD SWAP1 PUSH1 0x20 ADD SWAP1 PUSH1 0x20 MUL DUP1 DUP4 DUP4 PUSH1 0x0 JUMPDEST DUP4 DUP2 LT ISZERO PUSH2 0x299 JUMPI DUP1 DUP3 ADD MLOAD DUP4 DUP3 ADD MSTORE PUSH1 0x20 ADD PUSH2 0x281 JUMP JUMPDEST POP POP POP POP SWAP1 POP ADD DUP4 DUP2 SUB DUP3 MSTORE DUP5 DUP2 DUP2 MLOAD DUP2 MSTORE PUSH1 0x20 ADD SWAP2 POP DUP1 MLOAD SWAP1 PUSH1 0x20 ADD SWAP1 PUSH1 0x20 MUL DUP1 DUP4 DUP4 PUSH1 0x0 JUMPDEST DUP4 DUP2 LT ISZERO PUSH2 0x2D8 JUMPI DUP1 DUP3 ADD MLOAD DUP4 DUP3 ADD MSTORE PUSH1 0x20 ADD PUSH2 0x2C0 JUMP JUMPDEST POP POP POP POP SWAP1 POP ADD SWAP5 POP POP POP POP POP PUSH1 0x40 MLOAD DUP1 SWAP2 SUB SWAP1 RETURN JUMPDEST PUSH1 0x0 DUP1 SLOAD DUP4 LT PUSH2 0x2FD JUMPI PUSH1 0x0 DUP1 REVERT JUMPDEST PUSH2 0x307 DUP4 DUP4 PUSH2 0x379 JUMP JUMPDEST PUSH1 0x0 DUP1 SLOAD DUP5 SWAP1 DUP2 LT PUSH2 0x315 JUMPI INVALID JUMPDEST PUSH1 0x0 SWAP2 DUP3 MSTORE PUSH1 0x20 SWAP1 SWAP2 KECCAK256 PUSH1 0x3 SWAP1 SWAP2 MUL ADD PUSH1 0x2 DUP2 ADD DUP1 SLOAD DUP5 ADD SWAP1 DUP2 SWAP1 SSTORE SWAP1 SWAP2 POP DUP4 SWAP1 CALLER PUSH1 0x1 PUSH1 0xA0 PUSH1 0x2 EXP SUB AND SWAP1 PUSH32 0x5EBE585DB19D8DC48277D77736F32F990438C57E3787B79D4DF7B68FDCA98756 SWAP1 PUSH1 0x40 MLOAD SWAP1 DUP2 MSTORE PUSH1 0x20 ADD PUSH1 0x40 MLOAD DUP1 SWAP2 SUB SWAP1 LOG3 POP POP POP JUMP JUMPDEST PUSH1 0x0 PUSH2 0x383 PUSH2 0xBB2 JUMP JUMPDEST PUSH1 0x1 PUSH1 0xA0 PUSH1 0x2 EXP SUB CALLER AND PUSH1 0x0 SWAP1 DUP2 MSTORE PUSH1 0x2 PUSH1 0x20 MSTORE PUSH1 0x40 SWAP1 KECCAK256 SWAP2 POP PUSH2 0x3A7 DUP3 DUP5 PUSH2 0xB5F JUMP JUMPDEST ISZERO ISZERO PUSH2 0x3B2 JUMPI PUSH1 0x0 DUP1 REVERT JUMPDEST PUSH1 0x40 DUP1 MLOAD SWAP1 DUP2 ADD PUSH1 0x40 MSTORE DUP5 DUP2 MSTORE PUSH1 0x20 DUP2 ADD DUP5 SWAP1 MSTORE DUP3 SLOAD SWAP1 SWAP2 POP DUP3 SWAP1 PUSH1 0x1 DUP2 ADD PUSH2 0x3DB DUP4 DUP3 PUSH2 0xBC9 JUMP JUMPDEST PUSH1 0x0 SWAP3 DUP4 MSTORE PUSH1 0x20 SWAP1 SWAP3 KECCAK256 DUP4 SWAP2 PUSH1 0x2 MUL ADD DUP2 MLOAD DUP2 SSTORE PUSH1 0x20 DUP3 ADD MLOAD DUP2 PUSH1 0x1 ADD SSTORE POP POP POP POP POP POP POP JUMP JUMPDEST PUSH1 0x0 DUP1 PUSH1 0x0 PUSH2 0x40F PUSH2 0xBFA JUMP JUMPDEST DUP6 ISZERO ISZERO PUSH2 0x41B JUMPI PUSH1 0x0 DUP1 REVERT JUMPDEST PUSH1 0x1 PUSH1 0xA0 PUSH1 0x2 EXP SUB CALLER AND PUSH1 0x0 SWAP1 DUP2 MSTORE PUSH1 0x2 PUSH1 0x20 MSTORE PUSH1 0x40 SWAP1 KECCAK256 SWAP4 POP PUSH2 0x43F DUP5 DUP7 PUSH2 0xB5F JUMP JUMPDEST ISZERO ISZERO PUSH2 0x44A JUMPI PUSH1 0x0 DUP1 REVERT JUMPDEST PUSH1 0x0 SWAP3 POP JUMPDEST PUSH1 0x0 SLOAD DUP4 LT ISZERO PUSH2 0x493 JUMPI PUSH1 0x0 DUP1 SLOAD DUP5 SWAP1 DUP2 LT PUSH2 0x467 JUMPI INVALID JUMPDEST PUSH1 0x0 SWAP2 DUP3 MSTORE PUSH1 0x20 SWAP1 SWAP2 KECCAK256 PUSH1 0x3 SWAP1 SWAP2 MUL ADD DUP1 SLOAD SWAP1 SWAP3 POP DUP7 EQ ISZERO PUSH2 0x488 JUMPI PUSH1 0x0 DUP1 REVERT JUMPDEST PUSH1 0x1 SWAP1 SWAP3 ADD SWAP2 PUSH2 0x44F JUMP JUMPDEST PUSH1 0x0 SLOAD SWAP3 POP PUSH2 0x4A2 DUP4 DUP7 PUSH2 0x379 JUMP JUMPDEST PUSH1 0x60 PUSH1 0x40 MLOAD SWAP1 DUP2 ADD PUSH1 0x40 SWAP1 DUP2 MSTORE DUP8 DUP3 MSTORE PUSH1 0x1 PUSH1 0xA0 PUSH1 0x2 EXP SUB CALLER AND PUSH1 0x20 DUP4 ADD MSTORE DUP2 ADD DUP7 SWAP1 MSTORE PUSH1 0x0 DUP1 SLOAD SWAP2 SWAP3 POP SWAP1 PUSH1 0x1 DUP2 ADD PUSH2 0x4DC DUP4 DUP3 PUSH2 0xC1A JUMP JUMPDEST PUSH1 0x0 SWAP3 DUP4 MSTORE PUSH1 0x20 SWAP1 SWAP3 KECCAK256 DUP4 SWAP2 PUSH1 0x3 MUL ADD DUP2 MLOAD DUP2 SSTORE PUSH1 0x20 DUP3 ADD MLOAD PUSH1 0x1 DUP3 ADD DUP1 SLOAD PUSH20 0xFFFFFFFFFFFFFFFFFFFFFFFFFFFFFFFFFFFFFFFF NOT AND PUSH1 0x1 PUSH1 0xA0 PUSH1 0x2 EXP SUB SWAP3 SWAP1 SWAP3 AND SWAP2 SWAP1 SWAP2 OR SWAP1 SSTORE PUSH1 0x40 DUP3 ADD MLOAD DUP2 PUSH1 0x2 ADD SSTORE POP POP POP DUP3 CALLER PUSH1 0x1 PUSH1 0xA0 PUSH1 0x2 EXP SUB AND PUSH32 0xED5F243B8AF488BD238B7AD4C53502AFE8EEAB5ACA9CD8968A24071BD516186 DUP9 DUP9 PUSH1 0x40 MLOAD SWAP2 DUP3 MSTORE PUSH1 0x20 DUP3 ADD MSTORE PUSH1 0x40 SWAP1 DUP2 ADD SWAP1 MLOAD DUP1 SWAP2 SUB SWAP1 LOG3 POP POP POP POP POP POP JUMP JUMPDEST PUSH1 0x2 PUSH1 0x20 MSTORE DUP2 PUSH1 0x0 MSTORE PUSH1 0x40 PUSH1 0x0 KECCAK256 DUP2 DUP2 SLOAD DUP2 LT ISZERO ISZERO PUSH2 0x599 JUMPI INVALID JUMPDEST PUSH1 0x0 SWAP2 DUP3 MSTORE PUSH1 0x20 SWAP1 SWAP2 KECCAK256 PUSH1 0x2 SWAP1 SWAP2 MUL ADD DUP1 SLOAD PUSH1 0x1 SWAP1 SWAP2 ADD SLOAD SWAP1 SWAP3 POP SWAP1 POP DUP3 JUMP JUMPDEST PUSH1 0x1 SLOAD PUSH1 0x0 SWAP1 DUP2 SWAP1 PUSH1 0x1 PUSH1 0xA0 PUSH1 0x2 EXP SUB AND PUSH4 0x2DDE9ACA DUP3 PUSH1 0x40 MLOAD PUSH2 0x1C0 ADD MSTORE PUSH1 0x40 MLOAD DUP2 PUSH4 0xFFFFFFFF AND PUSH29 0x100000000000000000000000000000000000000000000000000000000 MUL DUP2 MSTORE PUSH1 0x4 ADD PUSH2 0x1C0 PUSH1 0x40 MLOAD DUP1 DUP4 SUB DUP2 PUSH1 0x0 DUP8 DUP1 EXTCODESIZE ISZERO ISZERO PUSH2 0x620 JUMPI PUSH1 0x0 DUP1 REVERT JUMPDEST PUSH2 0x2C6 GAS SUB CALL ISZERO ISZERO PUSH2 0x631 JUMPI PUSH1 0x0 DUP1 REVERT JUMPDEST POP POP POP PUSH1 0x40 MLOAD DUP1 MLOAD SWAP1 PUSH1 0x20 ADD DUP1 MLOAD SWAP1 PUSH1 0x20 ADD DUP1 MLOAD SWAP1 PUSH1 0x20 ADD DUP1 MLOAD SWAP1 PUSH1 0x20 ADD DUP1 MLOAD SWAP1 PUSH1 0x20 ADD DUP1 MLOAD SWAP1 PUSH1 0x20 ADD DUP1 MLOAD SWAP1 PUSH1 0x20 ADD DUP1 MLOAD SWAP1 PUSH1 0x20 ADD DUP1 MLOAD SWAP1 PUSH1 0x20 ADD DUP1 MLOAD SWAP1 PUSH1 0x20 ADD DUP1 MLOAD SWAP1 PUSH1 0x20 ADD DUP1 MLOAD SWAP1 PUSH1 0x20 ADD DUP1 MLOAD SWAP1 PUSH1 0x20 ADD DUP1 MLOAD SWAP1 POP POP SWAP13 POP POP POP POP POP POP POP POP SWAP6 POP POP POP POP POP CALLER PUSH1 0x1 PUSH1 0xA0 PUSH1 0x2 EXP SUB AND DUP3 PUSH1 0x1 PUSH1 0xA0 PUSH1 0x2 EXP SUB AND EQ ISZERO ISZERO PUSH2 0x6B9 JUMPI PUSH1 0x0 DUP1 REVERT JUMPDEST TIMESTAMP DUP2 SWAP1 LT ISZERO PUSH2 0x6C7 JUMPI PUSH1 0x0 DUP1 REVERT JUMPDEST CALLER PUSH1 0x1 PUSH1 0xA0 PUSH1 0x2 EXP SUB AND SELFDESTRUCT JUMPDEST PUSH1 0x1 SLOAD PUSH1 0x0 SWAP1 DUP2 SWAP1 DUP2 SWAP1 DUP2 SWAP1 PUSH1 0x1 PUSH1 0xA0 PUSH1 0x2 EXP SUB AND PUSH4 0x2DDE9ACA DUP3 PUSH1 0x40 MLOAD PUSH2 0x1C0 ADD MSTORE PUSH1 0x40 MLOAD DUP2 PUSH4 0xFFFFFFFF AND PUSH29 0x100000000000000000000000000000000000000000000000000000000 MUL DUP2 MSTORE PUSH1 0x4 ADD PUSH2 0x1C0 PUSH1 0x40 MLOAD DUP1 DUP4 SUB DUP2 PUSH1 0x0 DUP8 DUP1 EXTCODESIZE ISZERO ISZERO PUSH2 0x73E JUMPI PUSH1 0x0 DUP1 REVERT JUMPDEST PUSH2 0x2C6 GAS SUB CALL ISZERO ISZERO PUSH2 0x74F JUMPI PUSH1 0x0 DUP1 REVERT JUMPDEST POP POP POP PUSH1 0x40 MLOAD DUP1 MLOAD SWAP1 PUSH1 0x20 ADD DUP1 MLOAD SWAP1 PUSH1 0x20 ADD DUP1 MLOAD SWAP1 PUSH1 0x20 ADD DUP1 MLOAD SWAP1 PUSH1 0x20 ADD DUP1 MLOAD SWAP1 PUSH1 0x20 ADD DUP1 MLOAD SWAP1 PUSH1 0x20 ADD DUP1 MLOAD SWAP1 PUSH1 0x20 ADD DUP1 MLOAD SWAP1 PUSH1 0x20 ADD DUP1 MLOAD SWAP1 PUSH1 0x20 ADD DUP1 MLOAD SWAP1 PUSH1 0x20 ADD DUP1 MLOAD SWAP1 PUSH1 0x20 ADD DUP1 MLOAD SWAP1 PUSH1 0x20 ADD DUP1 MLOAD SWAP1 PUSH1 0x20 ADD DUP1 MLOAD SWAP1 POP POP POP POP SWAP13 POP POP POP POP POP POP POP POP POP POP POP DUP3 TIMESTAMP LT ISZERO ISZERO PUSH2 0x7C8 JUMPI PUSH1 0x0 SWAP4 POP PUSH2 0x947 JUMP JUMPDEST PUSH1 0x1 SLOAD PUSH1 0x1 PUSH1 0xA0 PUSH1 0x2 EXP SUB AND PUSH4 0xC19D93FB PUSH1 0x0 PUSH1 0x40 MLOAD PUSH2 0x160 ADD MSTORE PUSH1 0x40 MLOAD DUP2 PUSH4 0xFFFFFFFF AND PUSH29 0x100000000000000000000000000000000000000000000000000000000 MUL DUP2 MSTORE PUSH1 0x4 ADD PUSH2 0x160 PUSH1 0x40 MLOAD DUP1 DUP4 SUB DUP2 PUSH1 0x0 DUP8 DUP1 EXTCODESIZE ISZERO ISZERO PUSH2 0x82B JUMPI PUSH1 0x0 DUP1 REVERT JUMPDEST PUSH2 0x2C6 GAS SUB CALL ISZERO ISZERO PUSH2 0x83C JUMPI PUSH1 0x0 DUP1 REVERT JUMPDEST POP POP POP PUSH1 0x40 MLOAD DUP1 MLOAD SWAP1 PUSH1 0x20 ADD DUP1 MLOAD SWAP1 PUSH1 0x20 ADD DUP1 MLOAD SWAP1 PUSH1 0x20 ADD DUP1 MLOAD SWAP1 PUSH1 0x20 ADD DUP1 MLOAD SWAP1 PUSH1 0x20 ADD DUP1 MLOAD SWAP1 PUSH1 0x20 ADD DUP1 MLOAD SWAP1 PUSH1 0x20 ADD DUP1 MLOAD SWAP1 PUSH1 0x20 ADD DUP1 MLOAD SWAP1 PUSH1 0x20 ADD DUP1 MLOAD SWAP1 PUSH1 0x20 ADD DUP1 MLOAD SWAP1 POP POP POP SWAP10 POP POP POP POP POP POP POP POP POP DUP2 ISZERO PUSH2 0x89D JUMPI PUSH1 0x0 SWAP4 POP PUSH2 0x947 JUMP JUMPDEST PUSH1 0x1 SLOAD PUSH1 0x1 PUSH1 0xA0 PUSH1 0x2 EXP SUB AND PUSH4 0x9E69EDE CALLER PUSH1 0x0 PUSH1 0x40 MLOAD PUSH1 0x40 ADD MSTORE PUSH1 0x40 MLOAD PUSH29 0x100000000000000000000000000000000000000000000000000000000 PUSH4 0xFFFFFFFF DUP5 AND MUL DUP2 MSTORE PUSH1 0x1 PUSH1 0xA0 PUSH1 0x2 EXP SUB SWAP1 SWAP2 AND PUSH1 0x4 DUP3 ADD MSTORE PUSH1 0x24 ADD PUSH1 0x40 DUP1 MLOAD DUP1 DUP4 SUB DUP2 PUSH1 0x0 DUP8 DUP1 EXTCODESIZE ISZERO ISZERO PUSH2 0x90E JUMPI PUSH1 0x0 DUP1 REVERT JUMPDEST PUSH2 0x2C6 GAS SUB CALL ISZERO ISZERO PUSH2 0x91F JUMPI PUSH1 0x0 DUP1 REVERT JUMPDEST POP POP POP PUSH1 0x40 MLOAD DUP1 MLOAD SWAP1 PUSH1 0x20 ADD DUP1 MLOAD POP SWAP1 SWAP2 POP POP DUP1 ISZERO ISZERO PUSH2 0x942 JUMPI PUSH1 0x0 SWAP4 POP PUSH2 0x947 JUMP JUMPDEST PUSH1 0x1 SWAP4 POP JUMPDEST POP POP POP SWAP1 JUMP JUMPDEST PUSH2 0x955 PUSH2 0xC46 JUMP JUMPDEST PUSH2 0x95D PUSH2 0xC46 JUMP JUMPDEST PUSH2 0x965 PUSH2 0xC46 JUMP JUMPDEST PUSH1 0x0 DUP1 SLOAD DUP2 SWAP1 PUSH1 0x40 MLOAD DUP1 MSIZE LT PUSH2 0x978 JUMPI POP MSIZE JUMPDEST SWAP1 DUP1 DUP3 MSTORE DUP1 PUSH1 0x20 MUL PUSH1 0x20 ADD DUP3 ADD PUSH1 0x40 MSTORE POP PUSH1 0x0 SLOAD SWAP1 SWAP6 POP PUSH1 0x40 MLOAD DUP1 MSIZE LT PUSH2 0x99C JUMPI POP MSIZE JUMPDEST SWAP1 DUP1 DUP3 MSTORE DUP1 PUSH1 0x20 MUL PUSH1 0x20 ADD DUP3 ADD PUSH1 0x40 MSTORE POP PUSH1 0x0 SLOAD SWAP1 SWAP5 POP PUSH1 0x40 MLOAD DUP1 MSIZE LT PUSH2 0x9C0 JUMPI POP MSIZE JUMPDEST SWAP1 DUP1 DUP3 MSTORE DUP1 PUSH1 0x20 MUL PUSH1 0x20 ADD DUP3 ADD PUSH1 0x40 MSTORE POP SWAP3 POP PUSH1 0x0 SWAP2 POP JUMPDEST PUSH1 0x0 SLOAD DUP3 LT ISZERO PUSH2 0xA72 JUMPI PUSH1 0x0 DUP1 SLOAD DUP4 SWAP1 DUP2 LT PUSH2 0x9F0 JUMPI INVALID JUMPDEST SWAP1 PUSH1 0x0 MSTORE PUSH1 0x20 PUSH1 0x0 KECCAK256 SWAP1 PUSH1 0x3 MUL ADD SWAP1 POP DUP1 PUSH1 0x0 ADD SLOAD DUP6 DUP4 DUP2 MLOAD DUP2 LT PUSH2 0xA11 JUMPI INVALID JUMPDEST PUSH1 0x20 SWAP1 DUP2 MUL SWAP1 SWAP2 ADD ADD MSTORE PUSH1 0x1 DUP2 ADD SLOAD PUSH1 0x1 PUSH1 0xA0 PUSH1 0x2 EXP SUB AND DUP5 DUP4 DUP2 MLOAD DUP2 LT PUSH2 0xA35 JUMPI INVALID JUMPDEST PUSH1 0x1 PUSH1 0xA0 PUSH1 0x2 EXP SUB SWAP1 SWAP3 AND PUSH1 0x20 SWAP3 DUP4 MUL SWAP1 SWAP2 ADD SWAP1 SWAP2 ADD MSTORE PUSH1 0x2 DUP2 ADD SLOAD DUP4 DUP4 DUP2 MLOAD DUP2 LT PUSH2 0xA5D JUMPI INVALID JUMPDEST PUSH1 0x20 SWAP1 DUP2 MUL SWAP1 SWAP2 ADD ADD MSTORE PUSH1 0x1 SWAP1 SWAP2 ADD SWAP1 PUSH2 0x9D8 JUMP JUMPDEST POP POP SWAP1 SWAP2 SWAP3 JUMP JUMPDEST PUSH2 0xA81 PUSH2 0xC46 JUMP JUMPDEST PUSH2 0xA89 PUSH2 0xC46 JUMP JUMPDEST PUSH1 0x1 PUSH1 0xA0 PUSH1 0x2 EXP SUB CALLER AND PUSH1 0x0 SWAP1 DUP2 MSTORE PUSH1 0x2 PUSH1 0x20 MSTORE PUSH1 0x40 DUP1 DUP3 KECCAK256 DUP1 SLOAD SWAP1 SWAP3 SWAP2 DUP3 SWAP2 SWAP1 MLOAD DUP1 MSIZE LT PUSH2 0xAB5 JUMPI POP MSIZE JUMPDEST SWAP1 DUP1 DUP3 MSTORE DUP1 PUSH1 0x20 MUL PUSH1 0x20 ADD DUP3 ADD PUSH1 0x40 MSTORE POP DUP4 SLOAD SWAP1 SWAP6 POP PUSH1 0x40 MLOAD DUP1 MSIZE LT PUSH2 0xAD8 JUMPI POP MSIZE JUMPDEST SWAP1 DUP1 DUP3 MSTORE DUP1 PUSH1 0x20 MUL PUSH1 0x20 ADD DUP3 ADD PUSH1 0x40 MSTORE POP SWAP4 POP PUSH1 0x0 SWAP2 POP JUMPDEST DUP3 SLOAD DUP3 LT ISZERO PUSH2 0xB58 JUMPI DUP3 DUP3 DUP2 SLOAD DUP2 LT ISZERO ISZERO PUSH2 0xB07 JUMPI INVALID JUMPDEST SWAP1 PUSH1 0x0 MSTORE PUSH1 0x20 PUSH1 0x0 KECCAK256 SWAP1 PUSH1 0x2 MUL ADD SWAP1 POP DUP1 PUSH1 0x0 ADD SLOAD DUP6 DUP4 DUP2 MLOAD DUP2 LT PUSH2 0xB28 JUMPI INVALID JUMPDEST PUSH1 0x20 SWAP1 DUP2 MUL SWAP1 SWAP2 ADD ADD MSTORE PUSH1 0x1 DUP2 ADD SLOAD DUP5 DUP4 DUP2 MLOAD DUP2 LT PUSH2 0xB43 JUMPI INVALID JUMPDEST PUSH1 0x20 SWAP1 DUP2 MUL SWAP1 SWAP2 ADD ADD MSTORE PUSH1 0x1 SWAP1 SWAP2 ADD SWAP1 PUSH2 0xAF0 JUMP JUMPDEST POP POP POP SWAP1 SWAP2 JUMP JUMPDEST PUSH1 0x0 DUP1 DUP1 DUP1 JUMPDEST DUP6 SLOAD DUP3 LT ISZERO PUSH2 0xB9A JUMPI DUP6 DUP3 DUP2 SLOAD DUP2 LT ISZERO ISZERO PUSH2 0xB7C JUMPI INVALID JUMPDEST SWAP1 PUSH1 0x0 MSTORE PUSH1 0x20 PUSH1 0x0 KECCAK256 SWAP1 PUSH1 0x2 MUL ADD SWAP1 POP DUP1 PUSH1 0x1 ADD SLOAD DUP4 ADD SWAP3 POP PUSH2 0xB65 JUMP JUMPDEST PUSH2 0xBA2 PUSH2 0x6D3 JUMP JUMPDEST DUP6 DUP5 ADD GT ISZERO SWAP4 POP POP POP POP SWAP3 SWAP2 POP POP JUMP JUMPDEST PUSH1 0x40 DUP1 MLOAD SWAP1 DUP2 ADD PUSH1 0x40 MSTORE PUSH1 0x0 DUP1 DUP3 MSTORE PUSH1 0x20 DUP3 ADD MSTORE SWAP1 JUMP JUMPDEST DUP2 SLOAD DUP2 DUP4 SSTORE DUP2 DUP2 ISZERO GT PUSH2 0xBF5 JUMPI PUSH1 0x2 MUL DUP2 PUSH1 0x2 MUL DUP4 PUSH1 0x0 MSTORE PUSH1 0x20 PUSH1 0x0 KECCAK256 SWAP2 DUP3 ADD SWAP2 ADD PUSH2 0xBF5 SWAP2 SWAP1 PUSH2 0xC58 JUMP JUMPDEST POP POP POP JUMP JUMPDEST PUSH1 0x60 PUSH1 0x40 MLOAD SWAP1 DUP2 ADD PUSH1 0x40 SWAP1 DUP2 MSTORE PUSH1 0x0 DUP1 DUP4 MSTORE PUSH1 0x20 DUP4 ADD DUP2 SWAP1 MSTORE SWAP1 DUP3 ADD MSTORE SWAP1 JUMP JUMPDEST DUP2 SLOAD DUP2 DUP4 SSTORE DUP2 DUP2 ISZERO GT PUSH2 0xBF5 JUMPI PUSH1 0x3 MUL DUP2 PUSH1 0x3 MUL DUP4 PUSH1 0x0 MSTORE PUSH1 0x20 PUSH1 0x0 KECCAK256 SWAP2 DUP3 ADD SWAP2 ADD PUSH2 0xBF5 SWAP2 SWAP1 PUSH2 0xC7F JUMP JUMPDEST PUSH1 0x20 PUSH1 0x40 MLOAD SWAP1 DUP2 ADD PUSH1 0x40 MSTORE PUSH1 0x0 DUP2 MSTORE SWAP1 JUMP JUMPDEST PUSH2 0xC7C SWAP2 SWAP1 JUMPDEST DUP1 DUP3 GT ISZERO PUSH2 0xC78 JUMPI PUSH1 0x0 DUP1 DUP3 SSTORE PUSH1 0x1 DUP3 ADD SSTORE PUSH1 0x2 ADD PUSH2 0xC5E JUMP JUMPDEST POP SWAP1 JUMP JUMPDEST SWAP1 JUMP JUMPDEST PUSH2 0xC7C SWAP2 SWAP1 JUMPDEST DUP1 DUP3 GT ISZERO PUSH2 0xC78 JUMPI PUSH1 0x0 DUP1 DUP3 SSTORE PUSH1 0x1 DUP3 ADD DUP1 SLOAD PUSH20 0xFFFFFFFFFFFFFFFFFFFFFFFFFFFFFFFFFFFFFFFF NOT AND SWAP1 SSTORE PUSH1 0x2 DUP3 ADD SSTORE PUSH1 0x3 ADD PUSH2 0xC85 JUMP STOP LOG1 PUSH6 0x627A7A723058 KECCAK256 EQ EQ 0x1f DUP8 DUP8 0xaa 0xcc PUSH25 0xA8AD103A19132BF0769B2E8D282E738ABFD0C9BDF12B760400 0x29 "
        }
    },
    "methods": {
        "voteIndex": [
            "_causeIndex",
            "_count"
        ],
        "_voteIndex": [
            "_causeIndex",
            "_count"
        ],
        "voteName": [
            "_causeName",
            "_count"
        ],
        "_participants": [
            "_0",
            "_1"
        ],
        "destroy": [],
        "maxVoteCount": [],
        "causes": [],
        "votes": []
    }
}