{
    "abi": [
        {
            "constant": true,
            "inputs": [],
            "name": "getVotes",
            "outputs": [
                {
                    "name": "",
                    "type": "uint256[]"
                }
            ],
            "payable": false,
            "stateMutability": "view",
            "type": "function"
        },
        {
            "constant": true,
            "inputs": [],
            "name": "canVote",
            "outputs": [
                {
                    "name": "",
                    "type": "bool"
                }
            ],
            "payable": false,
            "stateMutability": "view",
            "type": "function"
        },
        {
            "constant": true,
            "inputs": [],
            "name": "endTime",
            "outputs": [
                {
                    "name": "",
                    "type": "uint256"
                }
            ],
            "payable": false,
            "stateMutability": "view",
            "type": "function"
        },
        {
            "constant": true,
            "inputs": [],
            "name": "getCharities",
            "outputs": [
                {
                    "name": "",
                    "type": "bytes32[]"
                },
                {
                    "name": "",
                    "type": "address[]"
                },
                {
                    "name": "",
                    "type": "uint256[]"
                },
                {
                    "name": "",
                    "type": "uint256[]"
                }
            ],
            "payable": false,
            "stateMutability": "view",
            "type": "function"
        },
        {
            "constant": true,
            "inputs": [],
            "name": "passedCharityId",
            "outputs": [
                {
                    "name": "",
                    "type": "uint256"
                }
            ],
            "payable": false,
            "stateMutability": "view",
            "type": "function"
        },
        {
            "constant": false,
            "inputs": [],
            "name": "pass",
            "outputs": [],
            "payable": false,
            "stateMutability": "nonpayable",
            "type": "function"
        },
        {
            "constant": false,
            "inputs": [
                {
                    "name": "_charityId",
                    "type": "uint256"
                },
                {
                    "name": "_score",
                    "type": "uint256"
                }
            ],
            "name": "vote",
            "outputs": [],
            "payable": false,
            "stateMutability": "nonpayable",
            "type": "function"
        },
        {
            "inputs": [
                {
                    "name": "_charityNames",
                    "type": "bytes32[]"
                },
                {
                    "name": "_charityAddresses",
                    "type": "address[]"
                },
                {
                    "name": "_seedomAddress",
                    "type": "address"
                },
                {
                    "name": "_endTime",
                    "type": "uint256"
                }
            ],
            "payable": false,
            "stateMutability": "nonpayable",
            "type": "constructor"
        },
        {
            "anonymous": false,
            "inputs": [
                {
                    "indexed": true,
                    "name": "_address",
                    "type": "address"
                },
                {
                    "indexed": true,
                    "name": "_charityId",
                    "type": "uint256"
                },
                {
                    "indexed": false,
                    "name": "_score",
                    "type": "uint256"
                }
            ],
            "name": "VoterCast",
            "type": "event"
        },
        {
            "anonymous": false,
            "inputs": [
                {
                    "indexed": true,
                    "name": "_charityId",
                    "type": "uint256"
                }
            ],
            "name": "CharityPass",
            "type": "event"
        }
    ],
    "evm": {
        "bytecode": {
            "linkReferences": {},
            "object": "6060604052341561000f57600080fd5b604051610a04380380610a0483398101604052808051820191906020018051820191906020018051919060200180519150600090508080855187511461005457600080fd5b60008054600160a060020a03338116600160a060020a03199283161783556001879055600480549189169190921617905592505b86518310156101615786838151811061009d57fe5b9060200190602002015191508583815181106100b557fe5b906020019060200201519050600380548060010182816100d5919061016d565b9160005260206000209060050201600060806040519081016040908152868252600160a060020a038616602083015260009082018190526060820152919050815181556020820151600182018054600160a060020a031916600160a060020a03929092169190911790556040820151816002015560608201516003909101555050600190920191610088565b505050505050506101de565b81548183558181151161019957600502816005028360005260206000209182019101610199919061019e565b505050565b6101db91905b808211156101d7576000808255600182018054600160a060020a03191690556002820181905560038201556005016101a4565b5090565b90565b610817806101ed6000396000f3006060604052600436106100825763ffffffff7c01000000000000000000000000000000000000000000000000000000006000350416630dc960158114610087578063159e7064146100ed5780633197cbb61461011457806348112c6f146101395780637a6be5cb1461026f578063a7a1ed7214610282578063b384abef14610297575b600080fd5b341561009257600080fd5b61009a6102b0565b60405160208082528190810183818151815260200191508051906020019060200280838360005b838110156100d95780820151838201526020016100c1565b505050509050019250505060405180910390f35b34156100f857600080fd5b610100610369565b604051901515815260200160405180910390f35b341561011f57600080fd5b61012761043f565b60405190815260200160405180910390f35b341561014457600080fd5b61014c610445565b6040518080602001806020018060200180602001858103855289818151815260200191508051906020019060200280838360005b83811015610198578082015183820152602001610180565b50505050905001858103845288818151815260200191508051906020019060200280838360005b838110156101d75780820151838201526020016101bf565b50505050905001858103835287818151815260200191508051906020019060200280838360005b838110156102165780820151838201526020016101fe565b50505050905001858103825286818151815260200191508051906020019060200280838360005b8381101561025557808201518382015260200161023d565b505050509050019850505050505050505060405180910390f35b341561027a57600080fd5b6101276105f6565b341561028d57600080fd5b6102956105fc565b005b34156102a257600080fd5b6102956004356024356106b8565b6102b86107d9565b60006102c26107d9565b6003549150600080836040518059106102d85750595b90808252806020026020018201604052509250600091505b8382101561036057600380548390811061030657fe5b6000918252602080832073ffffffffffffffffffffffffffffffffffffffff331684526004600590930201918201905260409091205490915083838151811061034b57fe5b602090810290910101526001909101906102f0565b50909392505050565b600080600154421115801561037e5750600254155b151561038957600080fd5b60045473ffffffffffffffffffffffffffffffffffffffff166309e69ede336000604051604001526040517c010000000000000000000000000000000000000000000000000000000063ffffffff841602815273ffffffffffffffffffffffffffffffffffffffff90911660048201526024016040805180830381600087803b151561041457600080fd5b6102c65a03f1151561042557600080fd5b505050604051805190602001805150506000901192915050565b60015481565b61044d6107d9565b6104556107d9565b61045d6107d9565b6104656107d9565b600061046f6107d9565b6104776107d9565b61047f6107d9565b6104876107d9565b60035494506000808660405180591061049d5750595b90808252806020026020018201604052509550866040518059106104be5750595b90808252806020026020018201604052509450866040518059106104df5750595b90808252806020026020018201604052509350866040518059106105005750595b90808252806020026020018201604052509250600091505b868210156105e557600380548390811061052e57fe5b90600052602060002090600502019050806000015486838151811061054f57fe5b60209081029091010152600181015473ffffffffffffffffffffffffffffffffffffffff1685838151811061058057fe5b73ffffffffffffffffffffffffffffffffffffffff90921660209283029091019091015260028101548483815181106105b557fe5b6020908102909101015260038101548383815181106105d057fe5b60209081029091010152600190910190610518565b509399929850909650945092505050565b60025481565b6000806000806000426001541115151561061557600080fd5b600092505b60035483101561067f57600380548490811061063257fe5b906000526020600020906005020191508160030154826002015481151561065557fe5b0490508381141561066557600080fd5b83811115610674578093508294505b60019092019161061a565b6002859055847f48ef71dca64c6c7ee87ee199b96d23045d8d5b7475f1051320cd869cd0562d8860405160405180910390a25050505050565b60008060015442111580156106cd5750600254155b15156106d857600080fd5b6106e0610369565b15156106eb57600080fd5b60038054859081106106f957fe5b6000918252602080832073ffffffffffffffffffffffffffffffffffffffff3316845260046005909302019182019052604082205490935091508111156107525760028201805482900390556003820180546000190190555b6000831115610771576002820180548401905560038201805460010190555b73ffffffffffffffffffffffffffffffffffffffff33166000818152600484016020526040908190208590558591907f91669d47966be3c297fd50c28765b16e7d18429ae1955a65975cd2fbe05caf859086905190815260200160405180910390a350505050565b602060405190810160405260008152905600a165627a7a7230582047dea1a1d577464bb16bd73c49fcd11ff60750008ec38353df9432e283a1b0a30029",
            "opcodes": "PUSH1 0x60 PUSH1 0x40 MSTORE CALLVALUE ISZERO PUSH2 0xF JUMPI PUSH1 0x0 DUP1 REVERT JUMPDEST PUSH1 0x40 MLOAD PUSH2 0xA04 CODESIZE SUB DUP1 PUSH2 0xA04 DUP4 CODECOPY DUP2 ADD PUSH1 0x40 MSTORE DUP1 DUP1 MLOAD DUP3 ADD SWAP2 SWAP1 PUSH1 0x20 ADD DUP1 MLOAD DUP3 ADD SWAP2 SWAP1 PUSH1 0x20 ADD DUP1 MLOAD SWAP2 SWAP1 PUSH1 0x20 ADD DUP1 MLOAD SWAP2 POP PUSH1 0x0 SWAP1 POP DUP1 DUP1 DUP6 MLOAD DUP8 MLOAD EQ PUSH2 0x54 JUMPI PUSH1 0x0 DUP1 REVERT JUMPDEST PUSH1 0x0 DUP1 SLOAD PUSH1 0x1 PUSH1 0xA0 PUSH1 0x2 EXP SUB CALLER DUP2 AND PUSH1 0x1 PUSH1 0xA0 PUSH1 0x2 EXP SUB NOT SWAP3 DUP4 AND OR DUP4 SSTORE PUSH1 0x1 DUP8 SWAP1 SSTORE PUSH1 0x4 DUP1 SLOAD SWAP2 DUP10 AND SWAP2 SWAP1 SWAP3 AND OR SWAP1 SSTORE SWAP3 POP JUMPDEST DUP7 MLOAD DUP4 LT ISZERO PUSH2 0x161 JUMPI DUP7 DUP4 DUP2 MLOAD DUP2 LT PUSH2 0x9D JUMPI INVALID JUMPDEST SWAP1 PUSH1 0x20 ADD SWAP1 PUSH1 0x20 MUL ADD MLOAD SWAP2 POP DUP6 DUP4 DUP2 MLOAD DUP2 LT PUSH2 0xB5 JUMPI INVALID JUMPDEST SWAP1 PUSH1 0x20 ADD SWAP1 PUSH1 0x20 MUL ADD MLOAD SWAP1 POP PUSH1 0x3 DUP1 SLOAD DUP1 PUSH1 0x1 ADD DUP3 DUP2 PUSH2 0xD5 SWAP2 SWAP1 PUSH2 0x16D JUMP JUMPDEST SWAP2 PUSH1 0x0 MSTORE PUSH1 0x20 PUSH1 0x0 KECCAK256 SWAP1 PUSH1 0x5 MUL ADD PUSH1 0x0 PUSH1 0x80 PUSH1 0x40 MLOAD SWAP1 DUP2 ADD PUSH1 0x40 SWAP1 DUP2 MSTORE DUP7 DUP3 MSTORE PUSH1 0x1 PUSH1 0xA0 PUSH1 0x2 EXP SUB DUP7 AND PUSH1 0x20 DUP4 ADD MSTORE PUSH1 0x0 SWAP1 DUP3 ADD DUP2 SWAP1 MSTORE PUSH1 0x60 DUP3 ADD MSTORE SWAP2 SWAP1 POP DUP2 MLOAD DUP2 SSTORE PUSH1 0x20 DUP3 ADD MLOAD PUSH1 0x1 DUP3 ADD DUP1 SLOAD PUSH1 0x1 PUSH1 0xA0 PUSH1 0x2 EXP SUB NOT AND PUSH1 0x1 PUSH1 0xA0 PUSH1 0x2 EXP SUB SWAP3 SWAP1 SWAP3 AND SWAP2 SWAP1 SWAP2 OR SWAP1 SSTORE PUSH1 0x40 DUP3 ADD MLOAD DUP2 PUSH1 0x2 ADD SSTORE PUSH1 0x60 DUP3 ADD MLOAD PUSH1 0x3 SWAP1 SWAP2 ADD SSTORE POP POP PUSH1 0x1 SWAP1 SWAP3 ADD SWAP2 PUSH2 0x88 JUMP JUMPDEST POP POP POP POP POP POP POP PUSH2 0x1DE JUMP JUMPDEST DUP2 SLOAD DUP2 DUP4 SSTORE DUP2 DUP2 ISZERO GT PUSH2 0x199 JUMPI PUSH1 0x5 MUL DUP2 PUSH1 0x5 MUL DUP4 PUSH1 0x0 MSTORE PUSH1 0x20 PUSH1 0x0 KECCAK256 SWAP2 DUP3 ADD SWAP2 ADD PUSH2 0x199 SWAP2 SWAP1 PUSH2 0x19E JUMP JUMPDEST POP POP POP JUMP JUMPDEST PUSH2 0x1DB SWAP2 SWAP1 JUMPDEST DUP1 DUP3 GT ISZERO PUSH2 0x1D7 JUMPI PUSH1 0x0 DUP1 DUP3 SSTORE PUSH1 0x1 DUP3 ADD DUP1 SLOAD PUSH1 0x1 PUSH1 0xA0 PUSH1 0x2 EXP SUB NOT AND SWAP1 SSTORE PUSH1 0x2 DUP3 ADD DUP2 SWAP1 SSTORE PUSH1 0x3 DUP3 ADD SSTORE PUSH1 0x5 ADD PUSH2 0x1A4 JUMP JUMPDEST POP SWAP1 JUMP JUMPDEST SWAP1 JUMP JUMPDEST PUSH2 0x817 DUP1 PUSH2 0x1ED PUSH1 0x0 CODECOPY PUSH1 0x0 RETURN STOP PUSH1 0x60 PUSH1 0x40 MSTORE PUSH1 0x4 CALLDATASIZE LT PUSH2 0x82 JUMPI PUSH4 0xFFFFFFFF PUSH29 0x100000000000000000000000000000000000000000000000000000000 PUSH1 0x0 CALLDATALOAD DIV AND PUSH4 0xDC96015 DUP2 EQ PUSH2 0x87 JUMPI DUP1 PUSH4 0x159E7064 EQ PUSH2 0xED JUMPI DUP1 PUSH4 0x3197CBB6 EQ PUSH2 0x114 JUMPI DUP1 PUSH4 0x48112C6F EQ PUSH2 0x139 JUMPI DUP1 PUSH4 0x7A6BE5CB EQ PUSH2 0x26F JUMPI DUP1 PUSH4 0xA7A1ED72 EQ PUSH2 0x282 JUMPI DUP1 PUSH4 0xB384ABEF EQ PUSH2 0x297 JUMPI JUMPDEST PUSH1 0x0 DUP1 REVERT JUMPDEST CALLVALUE ISZERO PUSH2 0x92 JUMPI PUSH1 0x0 DUP1 REVERT JUMPDEST PUSH2 0x9A PUSH2 0x2B0 JUMP JUMPDEST PUSH1 0x40 MLOAD PUSH1 0x20 DUP1 DUP3 MSTORE DUP2 SWAP1 DUP2 ADD DUP4 DUP2 DUP2 MLOAD DUP2 MSTORE PUSH1 0x20 ADD SWAP2 POP DUP1 MLOAD SWAP1 PUSH1 0x20 ADD SWAP1 PUSH1 0x20 MUL DUP1 DUP4 DUP4 PUSH1 0x0 JUMPDEST DUP4 DUP2 LT ISZERO PUSH2 0xD9 JUMPI DUP1 DUP3 ADD MLOAD DUP4 DUP3 ADD MSTORE PUSH1 0x20 ADD PUSH2 0xC1 JUMP JUMPDEST POP POP POP POP SWAP1 POP ADD SWAP3 POP POP POP PUSH1 0x40 MLOAD DUP1 SWAP2 SUB SWAP1 RETURN JUMPDEST CALLVALUE ISZERO PUSH2 0xF8 JUMPI PUSH1 0x0 DUP1 REVERT JUMPDEST PUSH2 0x100 PUSH2 0x369 JUMP JUMPDEST PUSH1 0x40 MLOAD SWAP1 ISZERO ISZERO DUP2 MSTORE PUSH1 0x20 ADD PUSH1 0x40 MLOAD DUP1 SWAP2 SUB SWAP1 RETURN JUMPDEST CALLVALUE ISZERO PUSH2 0x11F JUMPI PUSH1 0x0 DUP1 REVERT JUMPDEST PUSH2 0x127 PUSH2 0x43F JUMP JUMPDEST PUSH1 0x40 MLOAD SWAP1 DUP2 MSTORE PUSH1 0x20 ADD PUSH1 0x40 MLOAD DUP1 SWAP2 SUB SWAP1 RETURN JUMPDEST CALLVALUE ISZERO PUSH2 0x144 JUMPI PUSH1 0x0 DUP1 REVERT JUMPDEST PUSH2 0x14C PUSH2 0x445 JUMP JUMPDEST PUSH1 0x40 MLOAD DUP1 DUP1 PUSH1 0x20 ADD DUP1 PUSH1 0x20 ADD DUP1 PUSH1 0x20 ADD DUP1 PUSH1 0x20 ADD DUP6 DUP2 SUB DUP6 MSTORE DUP10 DUP2 DUP2 MLOAD DUP2 MSTORE PUSH1 0x20 ADD SWAP2 POP DUP1 MLOAD SWAP1 PUSH1 0x20 ADD SWAP1 PUSH1 0x20 MUL DUP1 DUP4 DUP4 PUSH1 0x0 JUMPDEST DUP4 DUP2 LT ISZERO PUSH2 0x198 JUMPI DUP1 DUP3 ADD MLOAD DUP4 DUP3 ADD MSTORE PUSH1 0x20 ADD PUSH2 0x180 JUMP JUMPDEST POP POP POP POP SWAP1 POP ADD DUP6 DUP2 SUB DUP5 MSTORE DUP9 DUP2 DUP2 MLOAD DUP2 MSTORE PUSH1 0x20 ADD SWAP2 POP DUP1 MLOAD SWAP1 PUSH1 0x20 ADD SWAP1 PUSH1 0x20 MUL DUP1 DUP4 DUP4 PUSH1 0x0 JUMPDEST DUP4 DUP2 LT ISZERO PUSH2 0x1D7 JUMPI DUP1 DUP3 ADD MLOAD DUP4 DUP3 ADD MSTORE PUSH1 0x20 ADD PUSH2 0x1BF JUMP JUMPDEST POP POP POP POP SWAP1 POP ADD DUP6 DUP2 SUB DUP4 MSTORE DUP8 DUP2 DUP2 MLOAD DUP2 MSTORE PUSH1 0x20 ADD SWAP2 POP DUP1 MLOAD SWAP1 PUSH1 0x20 ADD SWAP1 PUSH1 0x20 MUL DUP1 DUP4 DUP4 PUSH1 0x0 JUMPDEST DUP4 DUP2 LT ISZERO PUSH2 0x216 JUMPI DUP1 DUP3 ADD MLOAD DUP4 DUP3 ADD MSTORE PUSH1 0x20 ADD PUSH2 0x1FE JUMP JUMPDEST POP POP POP POP SWAP1 POP ADD DUP6 DUP2 SUB DUP3 MSTORE DUP7 DUP2 DUP2 MLOAD DUP2 MSTORE PUSH1 0x20 ADD SWAP2 POP DUP1 MLOAD SWAP1 PUSH1 0x20 ADD SWAP1 PUSH1 0x20 MUL DUP1 DUP4 DUP4 PUSH1 0x0 JUMPDEST DUP4 DUP2 LT ISZERO PUSH2 0x255 JUMPI DUP1 DUP3 ADD MLOAD DUP4 DUP3 ADD MSTORE PUSH1 0x20 ADD PUSH2 0x23D JUMP JUMPDEST POP POP POP POP SWAP1 POP ADD SWAP9 POP POP POP POP POP POP POP POP POP PUSH1 0x40 MLOAD DUP1 SWAP2 SUB SWAP1 RETURN JUMPDEST CALLVALUE ISZERO PUSH2 0x27A JUMPI PUSH1 0x0 DUP1 REVERT JUMPDEST PUSH2 0x127 PUSH2 0x5F6 JUMP JUMPDEST CALLVALUE ISZERO PUSH2 0x28D JUMPI PUSH1 0x0 DUP1 REVERT JUMPDEST PUSH2 0x295 PUSH2 0x5FC JUMP JUMPDEST STOP JUMPDEST CALLVALUE ISZERO PUSH2 0x2A2 JUMPI PUSH1 0x0 DUP1 REVERT JUMPDEST PUSH2 0x295 PUSH1 0x4 CALLDATALOAD PUSH1 0x24 CALLDATALOAD PUSH2 0x6B8 JUMP JUMPDEST PUSH2 0x2B8 PUSH2 0x7D9 JUMP JUMPDEST PUSH1 0x0 PUSH2 0x2C2 PUSH2 0x7D9 JUMP JUMPDEST PUSH1 0x3 SLOAD SWAP2 POP PUSH1 0x0 DUP1 DUP4 PUSH1 0x40 MLOAD DUP1 MSIZE LT PUSH2 0x2D8 JUMPI POP MSIZE JUMPDEST SWAP1 DUP1 DUP3 MSTORE DUP1 PUSH1 0x20 MUL PUSH1 0x20 ADD DUP3 ADD PUSH1 0x40 MSTORE POP SWAP3 POP PUSH1 0x0 SWAP2 POP JUMPDEST DUP4 DUP3 LT ISZERO PUSH2 0x360 JUMPI PUSH1 0x3 DUP1 SLOAD DUP4 SWAP1 DUP2 LT PUSH2 0x306 JUMPI INVALID JUMPDEST PUSH1 0x0 SWAP2 DUP3 MSTORE PUSH1 0x20 DUP1 DUP4 KECCAK256 PUSH20 0xFFFFFFFFFFFFFFFFFFFFFFFFFFFFFFFFFFFFFFFF CALLER AND DUP5 MSTORE PUSH1 0x4 PUSH1 0x5 SWAP1 SWAP4 MUL ADD SWAP2 DUP3 ADD SWAP1 MSTORE PUSH1 0x40 SWAP1 SWAP2 KECCAK256 SLOAD SWAP1 SWAP2 POP DUP4 DUP4 DUP2 MLOAD DUP2 LT PUSH2 0x34B JUMPI INVALID JUMPDEST PUSH1 0x20 SWAP1 DUP2 MUL SWAP1 SWAP2 ADD ADD MSTORE PUSH1 0x1 SWAP1 SWAP2 ADD SWAP1 PUSH2 0x2F0 JUMP JUMPDEST POP SWAP1 SWAP4 SWAP3 POP POP POP JUMP JUMPDEST PUSH1 0x0 DUP1 PUSH1 0x1 SLOAD TIMESTAMP GT ISZERO DUP1 ISZERO PUSH2 0x37E JUMPI POP PUSH1 0x2 SLOAD ISZERO JUMPDEST ISZERO ISZERO PUSH2 0x389 JUMPI PUSH1 0x0 DUP1 REVERT JUMPDEST PUSH1 0x4 SLOAD PUSH20 0xFFFFFFFFFFFFFFFFFFFFFFFFFFFFFFFFFFFFFFFF AND PUSH4 0x9E69EDE CALLER PUSH1 0x0 PUSH1 0x40 MLOAD PUSH1 0x40 ADD MSTORE PUSH1 0x40 MLOAD PUSH29 0x100000000000000000000000000000000000000000000000000000000 PUSH4 0xFFFFFFFF DUP5 AND MUL DUP2 MSTORE PUSH20 0xFFFFFFFFFFFFFFFFFFFFFFFFFFFFFFFFFFFFFFFF SWAP1 SWAP2 AND PUSH1 0x4 DUP3 ADD MSTORE PUSH1 0x24 ADD PUSH1 0x40 DUP1 MLOAD DUP1 DUP4 SUB DUP2 PUSH1 0x0 DUP8 DUP1 EXTCODESIZE ISZERO ISZERO PUSH2 0x414 JUMPI PUSH1 0x0 DUP1 REVERT JUMPDEST PUSH2 0x2C6 GAS SUB CALL ISZERO ISZERO PUSH2 0x425 JUMPI PUSH1 0x0 DUP1 REVERT JUMPDEST POP POP POP PUSH1 0x40 MLOAD DUP1 MLOAD SWAP1 PUSH1 0x20 ADD DUP1 MLOAD POP POP PUSH1 0x0 SWAP1 GT SWAP3 SWAP2 POP POP JUMP JUMPDEST PUSH1 0x1 SLOAD DUP2 JUMP JUMPDEST PUSH2 0x44D PUSH2 0x7D9 JUMP JUMPDEST PUSH2 0x455 PUSH2 0x7D9 JUMP JUMPDEST PUSH2 0x45D PUSH2 0x7D9 JUMP JUMPDEST PUSH2 0x465 PUSH2 0x7D9 JUMP JUMPDEST PUSH1 0x0 PUSH2 0x46F PUSH2 0x7D9 JUMP JUMPDEST PUSH2 0x477 PUSH2 0x7D9 JUMP JUMPDEST PUSH2 0x47F PUSH2 0x7D9 JUMP JUMPDEST PUSH2 0x487 PUSH2 0x7D9 JUMP JUMPDEST PUSH1 0x3 SLOAD SWAP5 POP PUSH1 0x0 DUP1 DUP7 PUSH1 0x40 MLOAD DUP1 MSIZE LT PUSH2 0x49D JUMPI POP MSIZE JUMPDEST SWAP1 DUP1 DUP3 MSTORE DUP1 PUSH1 0x20 MUL PUSH1 0x20 ADD DUP3 ADD PUSH1 0x40 MSTORE POP SWAP6 POP DUP7 PUSH1 0x40 MLOAD DUP1 MSIZE LT PUSH2 0x4BE JUMPI POP MSIZE JUMPDEST SWAP1 DUP1 DUP3 MSTORE DUP1 PUSH1 0x20 MUL PUSH1 0x20 ADD DUP3 ADD PUSH1 0x40 MSTORE POP SWAP5 POP DUP7 PUSH1 0x40 MLOAD DUP1 MSIZE LT PUSH2 0x4DF JUMPI POP MSIZE JUMPDEST SWAP1 DUP1 DUP3 MSTORE DUP1 PUSH1 0x20 MUL PUSH1 0x20 ADD DUP3 ADD PUSH1 0x40 MSTORE POP SWAP4 POP DUP7 PUSH1 0x40 MLOAD DUP1 MSIZE LT PUSH2 0x500 JUMPI POP MSIZE JUMPDEST SWAP1 DUP1 DUP3 MSTORE DUP1 PUSH1 0x20 MUL PUSH1 0x20 ADD DUP3 ADD PUSH1 0x40 MSTORE POP SWAP3 POP PUSH1 0x0 SWAP2 POP JUMPDEST DUP7 DUP3 LT ISZERO PUSH2 0x5E5 JUMPI PUSH1 0x3 DUP1 SLOAD DUP4 SWAP1 DUP2 LT PUSH2 0x52E JUMPI INVALID JUMPDEST SWAP1 PUSH1 0x0 MSTORE PUSH1 0x20 PUSH1 0x0 KECCAK256 SWAP1 PUSH1 0x5 MUL ADD SWAP1 POP DUP1 PUSH1 0x0 ADD SLOAD DUP7 DUP4 DUP2 MLOAD DUP2 LT PUSH2 0x54F JUMPI INVALID JUMPDEST PUSH1 0x20 SWAP1 DUP2 MUL SWAP1 SWAP2 ADD ADD MSTORE PUSH1 0x1 DUP2 ADD SLOAD PUSH20 0xFFFFFFFFFFFFFFFFFFFFFFFFFFFFFFFFFFFFFFFF AND DUP6 DUP4 DUP2 MLOAD DUP2 LT PUSH2 0x580 JUMPI INVALID JUMPDEST PUSH20 0xFFFFFFFFFFFFFFFFFFFFFFFFFFFFFFFFFFFFFFFF SWAP1 SWAP3 AND PUSH1 0x20 SWAP3 DUP4 MUL SWAP1 SWAP2 ADD SWAP1 SWAP2 ADD MSTORE PUSH1 0x2 DUP2 ADD SLOAD DUP5 DUP4 DUP2 MLOAD DUP2 LT PUSH2 0x5B5 JUMPI INVALID JUMPDEST PUSH1 0x20 SWAP1 DUP2 MUL SWAP1 SWAP2 ADD ADD MSTORE PUSH1 0x3 DUP2 ADD SLOAD DUP4 DUP4 DUP2 MLOAD DUP2 LT PUSH2 0x5D0 JUMPI INVALID JUMPDEST PUSH1 0x20 SWAP1 DUP2 MUL SWAP1 SWAP2 ADD ADD MSTORE PUSH1 0x1 SWAP1 SWAP2 ADD SWAP1 PUSH2 0x518 JUMP JUMPDEST POP SWAP4 SWAP10 SWAP3 SWAP9 POP SWAP1 SWAP7 POP SWAP5 POP SWAP3 POP POP POP JUMP JUMPDEST PUSH1 0x2 SLOAD DUP2 JUMP JUMPDEST PUSH1 0x0 DUP1 PUSH1 0x0 DUP1 PUSH1 0x0 TIMESTAMP PUSH1 0x1 SLOAD GT ISZERO ISZERO ISZERO PUSH2 0x615 JUMPI PUSH1 0x0 DUP1 REVERT JUMPDEST PUSH1 0x0 SWAP3 POP JUMPDEST PUSH1 0x3 SLOAD DUP4 LT ISZERO PUSH2 0x67F JUMPI PUSH1 0x3 DUP1 SLOAD DUP5 SWAP1 DUP2 LT PUSH2 0x632 JUMPI INVALID JUMPDEST SWAP1 PUSH1 0x0 MSTORE PUSH1 0x20 PUSH1 0x0 KECCAK256 SWAP1 PUSH1 0x5 MUL ADD SWAP2 POP DUP2 PUSH1 0x3 ADD SLOAD DUP3 PUSH1 0x2 ADD SLOAD DUP2 ISZERO ISZERO PUSH2 0x655 JUMPI INVALID JUMPDEST DIV SWAP1 POP DUP4 DUP2 EQ ISZERO PUSH2 0x665 JUMPI PUSH1 0x0 DUP1 REVERT JUMPDEST DUP4 DUP2 GT ISZERO PUSH2 0x674 JUMPI DUP1 SWAP4 POP DUP3 SWAP5 POP JUMPDEST PUSH1 0x1 SWAP1 SWAP3 ADD SWAP2 PUSH2 0x61A JUMP JUMPDEST PUSH1 0x2 DUP6 SWAP1 SSTORE DUP5 PUSH32 0x48EF71DCA64C6C7EE87EE199B96D23045D8D5B7475F1051320CD869CD0562D88 PUSH1 0x40 MLOAD PUSH1 0x40 MLOAD DUP1 SWAP2 SUB SWAP1 LOG2 POP POP POP POP POP JUMP JUMPDEST PUSH1 0x0 DUP1 PUSH1 0x1 SLOAD TIMESTAMP GT ISZERO DUP1 ISZERO PUSH2 0x6CD JUMPI POP PUSH1 0x2 SLOAD ISZERO JUMPDEST ISZERO ISZERO PUSH2 0x6D8 JUMPI PUSH1 0x0 DUP1 REVERT JUMPDEST PUSH2 0x6E0 PUSH2 0x369 JUMP JUMPDEST ISZERO ISZERO PUSH2 0x6EB JUMPI PUSH1 0x0 DUP1 REVERT JUMPDEST PUSH1 0x3 DUP1 SLOAD DUP6 SWAP1 DUP2 LT PUSH2 0x6F9 JUMPI INVALID JUMPDEST PUSH1 0x0 SWAP2 DUP3 MSTORE PUSH1 0x20 DUP1 DUP4 KECCAK256 PUSH20 0xFFFFFFFFFFFFFFFFFFFFFFFFFFFFFFFFFFFFFFFF CALLER AND DUP5 MSTORE PUSH1 0x4 PUSH1 0x5 SWAP1 SWAP4 MUL ADD SWAP2 DUP3 ADD SWAP1 MSTORE PUSH1 0x40 DUP3 KECCAK256 SLOAD SWAP1 SWAP4 POP SWAP2 POP DUP2 GT ISZERO PUSH2 0x752 JUMPI PUSH1 0x2 DUP3 ADD DUP1 SLOAD DUP3 SWAP1 SUB SWAP1 SSTORE PUSH1 0x3 DUP3 ADD DUP1 SLOAD PUSH1 0x0 NOT ADD SWAP1 SSTORE JUMPDEST PUSH1 0x0 DUP4 GT ISZERO PUSH2 0x771 JUMPI PUSH1 0x2 DUP3 ADD DUP1 SLOAD DUP5 ADD SWAP1 SSTORE PUSH1 0x3 DUP3 ADD DUP1 SLOAD PUSH1 0x1 ADD SWAP1 SSTORE JUMPDEST PUSH20 0xFFFFFFFFFFFFFFFFFFFFFFFFFFFFFFFFFFFFFFFF CALLER AND PUSH1 0x0 DUP2 DUP2 MSTORE PUSH1 0x4 DUP5 ADD PUSH1 0x20 MSTORE PUSH1 0x40 SWAP1 DUP2 SWAP1 KECCAK256 DUP6 SWAP1 SSTORE DUP6 SWAP2 SWAP1 PUSH32 0x91669D47966BE3C297FD50C28765B16E7D18429AE1955A65975CD2FBE05CAF85 SWAP1 DUP7 SWAP1 MLOAD SWAP1 DUP2 MSTORE PUSH1 0x20 ADD PUSH1 0x40 MLOAD DUP1 SWAP2 SUB SWAP1 LOG3 POP POP POP POP JUMP JUMPDEST PUSH1 0x20 PUSH1 0x40 MLOAD SWAP1 DUP2 ADD PUSH1 0x40 MSTORE PUSH1 0x0 DUP2 MSTORE SWAP1 JUMP STOP LOG1 PUSH6 0x627A7A723058 KECCAK256 0x47 0xde LOG1 LOG1 0xd5 PUSH24 0x464BB16BD73C49FCD11FF60750008EC38353DF9432E283A1 0xb0 LOG3 STOP 0x29 "
        }
    },
    "methods": {
        "getVotes": [],
        "canVote": [],
        "endTime": [],
        "getCharities": [],
        "passedCharityId": [],
        "pass": [],
        "vote": [
            "_charityId",
            "_score"
        ]
    }
}