{
    "abi": [
        {
            "constant": true,
            "inputs": [
                {
                    "name": "",
                    "type": "address"
                }
            ],
            "name": "participants",
            "outputs": [
                {
                    "name": "_message",
                    "type": "bytes32"
                },
                {
                    "name": "_entries",
                    "type": "uint256"
                }
            ],
            "payable": false,
            "stateMutability": "view",
            "type": "function"
        },
        {
            "constant": false,
            "inputs": [
                {
                    "name": "_message",
                    "type": "bytes32"
                }
            ],
            "name": "participate",
            "outputs": [],
            "payable": true,
            "stateMutability": "payable",
            "type": "function"
        },
        {
            "constant": true,
            "inputs": [],
            "name": "deployment",
            "outputs": [
                {
                    "name": "_cause",
                    "type": "address"
                },
                {
                    "name": "_causeSplit",
                    "type": "uint256"
                },
                {
                    "name": "_participantSplit",
                    "type": "uint256"
                },
                {
                    "name": "_owner",
                    "type": "address"
                },
                {
                    "name": "_ownerSplit",
                    "type": "uint256"
                },
                {
                    "name": "_ownerSecret",
                    "type": "bytes32"
                },
                {
                    "name": "_valuePerEntry",
                    "type": "uint256"
                },
                {
                    "name": "_deployTime",
                    "type": "uint256"
                },
                {
                    "name": "_endTime",
                    "type": "uint256"
                },
                {
                    "name": "_expireTime",
                    "type": "uint256"
                },
                {
                    "name": "_destructTime",
                    "type": "uint256"
                }
            ],
            "payable": false,
            "stateMutability": "view",
            "type": "function"
        },
        {
            "constant": false,
            "inputs": [],
            "name": "withdraw",
            "outputs": [],
            "payable": false,
            "stateMutability": "nonpayable",
            "type": "function"
        },
        {
            "constant": false,
            "inputs": [
                {
                    "name": "_message",
                    "type": "bytes32"
                }
            ],
            "name": "end",
            "outputs": [],
            "payable": false,
            "stateMutability": "nonpayable",
            "type": "function"
        },
        {
            "constant": false,
            "inputs": [
                {
                    "name": "_message",
                    "type": "bytes32"
                }
            ],
            "name": "reveal",
            "outputs": [],
            "payable": false,
            "stateMutability": "nonpayable",
            "type": "function"
        },
        {
            "constant": false,
            "inputs": [
                {
                    "name": "_secret",
                    "type": "bytes32"
                }
            ],
            "name": "begin",
            "outputs": [],
            "payable": false,
            "stateMutability": "nonpayable",
            "type": "function"
        },
        {
            "constant": false,
            "inputs": [],
            "name": "destroy",
            "outputs": [],
            "payable": false,
            "stateMutability": "nonpayable",
            "type": "function"
        },
        {
            "constant": true,
            "inputs": [],
            "name": "balance",
            "outputs": [
                {
                    "name": "",
                    "type": "uint256"
                }
            ],
            "payable": false,
            "stateMutability": "view",
            "type": "function"
        },
        {
            "constant": true,
            "inputs": [],
            "name": "state",
            "outputs": [
                {
                    "name": "_causeSecret",
                    "type": "bytes32"
                },
                {
                    "name": "_causeMessage",
                    "type": "bytes32"
                },
                {
                    "name": "_causeWithdrawn",
                    "type": "bool"
                },
                {
                    "name": "_participant",
                    "type": "address"
                },
                {
                    "name": "_participantMessage",
                    "type": "bytes32"
                },
                {
                    "name": "_participantWithdrawn",
                    "type": "bool"
                },
                {
                    "name": "_ownerMessage",
                    "type": "bytes32"
                },
                {
                    "name": "_ownerWithdrawn",
                    "type": "bool"
                },
                {
                    "name": "_cancelled",
                    "type": "bool"
                },
                {
                    "name": "_participants",
                    "type": "uint256"
                },
                {
                    "name": "_entries",
                    "type": "uint256"
                }
            ],
            "payable": false,
            "stateMutability": "view",
            "type": "function"
        },
        {
            "constant": false,
            "inputs": [],
            "name": "cancel",
            "outputs": [],
            "payable": false,
            "stateMutability": "nonpayable",
            "type": "function"
        },
        {
            "inputs": [
                {
                    "name": "_cause",
                    "type": "address"
                },
                {
                    "name": "_causeSplit",
                    "type": "uint256"
                },
                {
                    "name": "_participantSplit",
                    "type": "uint256"
                },
                {
                    "name": "_ownerSplit",
                    "type": "uint256"
                },
                {
                    "name": "_ownerSecret",
                    "type": "bytes32"
                },
                {
                    "name": "_valuePerEntry",
                    "type": "uint256"
                },
                {
                    "name": "_endTime",
                    "type": "uint256"
                },
                {
                    "name": "_expireTime",
                    "type": "uint256"
                },
                {
                    "name": "_destructTime",
                    "type": "uint256"
                }
            ],
            "payable": false,
            "stateMutability": "nonpayable",
            "type": "constructor"
        },
        {
            "payable": true,
            "stateMutability": "payable",
            "type": "fallback"
        },
        {
            "anonymous": false,
            "inputs": [
                {
                    "indexed": false,
                    "name": "_causeSecret",
                    "type": "bytes32"
                }
            ],
            "name": "Beginning",
            "type": "event"
        },
        {
            "anonymous": false,
            "inputs": [
                {
                    "indexed": false,
                    "name": "_participant",
                    "type": "address"
                },
                {
                    "indexed": false,
                    "name": "_message",
                    "type": "bytes32"
                },
                {
                    "indexed": false,
                    "name": "_entries",
                    "type": "uint256"
                },
                {
                    "indexed": false,
                    "name": "_refund",
                    "type": "uint256"
                }
            ],
            "name": "Participation",
            "type": "event"
        },
        {
            "anonymous": false,
            "inputs": [
                {
                    "indexed": false,
                    "name": "_participant",
                    "type": "address"
                },
                {
                    "indexed": false,
                    "name": "_entries",
                    "type": "uint256"
                },
                {
                    "indexed": false,
                    "name": "_refund",
                    "type": "uint256"
                }
            ],
            "name": "Raise",
            "type": "event"
        },
        {
            "anonymous": false,
            "inputs": [
                {
                    "indexed": false,
                    "name": "_causeMessage",
                    "type": "bytes32"
                }
            ],
            "name": "Revelation",
            "type": "event"
        },
        {
            "anonymous": false,
            "inputs": [
                {
                    "indexed": false,
                    "name": "_participant",
                    "type": "address"
                },
                {
                    "indexed": false,
                    "name": "_participantMessage",
                    "type": "bytes32"
                },
                {
                    "indexed": false,
                    "name": "_causeMessage",
                    "type": "bytes32"
                },
                {
                    "indexed": false,
                    "name": "_ownerMessage",
                    "type": "bytes32"
                }
            ],
            "name": "Selection",
            "type": "event"
        },
        {
            "anonymous": false,
            "inputs": [],
            "name": "Cancellation",
            "type": "event"
        },
        {
            "anonymous": false,
            "inputs": [
                {
                    "indexed": false,
                    "name": "_address",
                    "type": "address"
                }
            ],
            "name": "Withdrawal",
            "type": "event"
        }
    ],
    "evm": {
        "bytecode": {
            "linkReferences": {},
            "object": "6060604052341561000f57600080fd5b6040516101208061126f833981016040528080519190602001805191906020018051919060200180519190602001805191906020018051919060200180519190602001805191906020018051915050600160a060020a038916151561007357600080fd5b87151561007f57600080fd5b86151561008b57600080fd5b6103e888880187011461009d57600080fd5b8415156100a957600080fd5b8315156100b557600080fd5b4283116100c157600080fd5b8282116100cd57600080fd5b8181116100d957600080fd5b610160604051908101604052808a600160a060020a0316815260200189815260200188815260200133600160a060020a0316815260200187815260200186600019168152602001858152602001428152602001848152602001838152602001828152506000808201518154600160a060020a031916600160a060020a039190911617815560208201518160010155604082015181600201556060820151600382018054600160a060020a031916600160a060020a03929092169190911790556080820151816004015560a0820151600582015560c0820151816006015560e0820151816007015561010082015181600801556101208201518160090155610140820151600a9091015550505050505050505050611074806101fb6000396000f3006060604052600436106100ae5763ffffffff7c010000000000000000000000000000000000000000000000000000000060003504166309e69ede81146101b15780630a14504c146101e85780632dde9aca146101f55780633ccfd60b146102705780637015913c14610283578063701fd0f11461029957806375aa8705146102af57806383197ef0146102c5578063b69ef8a8146102d8578063c19d93fb146102fd578063ea8a1af01461037e575b6008546000908190819042106100c357600080fd5b60005433600160a060020a03908116911614156100df57600080fd5b60035433600160a060020a03908116911614156100fb57600080fd5b601154610100900460ff161561011057600080fd5b600d54151561011e57600080fd5b600160a060020a0333166000908152600b602052604090208054909350151561014657600080fd5b61014f83610391565b915091507f11df61431069ecb6bffb62f185491e4adc966b75b0648630ea30f60cfff8a9e53383836040518084600160a060020a0316600160a060020a03168152602001838152602001828152602001935050505060405180910390a1505050005b34156101bc57600080fd5b6101d0600160a060020a0360043516610515565b60405191825260208201526040908101905180910390f35b6101f360043561052e565b005b341561020057600080fd5b61020861065a565b604051600160a060020a039b8c168152602081019a909a526040808b0199909952969099166060890152608088019490945260a087019290925260c086015260e085015261010084015261012083019390935261014082019290925261016001905180910390f35b341561027b57600080fd5b6101f361068e565b341561028e57600080fd5b6101f3600435610816565b34156102a457600080fd5b6101f3600435610a6c565b34156102ba57600080fd5b6101f3600435610b2b565b34156102d057600080fd5b6101f3610bbd565b34156102e357600080fd5b6102eb610bf3565b60405190815260200160405180910390f35b341561030857600080fd5b610310610d2e565b6040519a8b5260208b01999099529615156040808b0191909152600160a060020a0390961660608a0152608089019490945291151560a088015260c0870152151560e08601521515610100850152610120840191909152610140830191909152610160909101905180910390f35b341561038957600080fd5b6101f3610d98565b60008061039c610fc1565b6103a4610fc1565b600654348115156103b157fe5b04935060018410156103c257600080fd5b600185018054850190556013805485019055600c5415156104015760408051908101604052600160a060020a033316815260006020820152915061046b565b600c8054600019810190811061041357fe5b90600052602060002090600202016040805190810160409081528254600160a060020a031682526001909201546020820152915080519081016040528033600160a060020a0316815260200185836020015101905291505b600c80546001810161047d8382610fd8565b600092835260209092208491600202018151815473ffffffffffffffffffffffffffffffffffffffff1916600160a060020a039190911617815560208201516001909101555050600654348115156104d157fe5b069250600083111561050e57600160a060020a03331683156108fc0284604051600060405180830381858888f19350505050151561050e57600080fd5b5050915091565b600b602052600090815260409020805460019091015482565b60085460009081908190421061054357600080fd5b60005433600160a060020a039081169116141561055f57600080fd5b60035433600160a060020a039081169116141561057b57600080fd5b601154610100900460ff161561059057600080fd5b600d54151561059e57600080fd5b8315156105aa57600080fd5b600160a060020a0333166000908152600b602052604090208054909350156105d157600080fd5b6001830154156105e057600080fd5b6105e983610391565b85855560128054600101905590925090507f6f75810cfd16e411e8e12bc62c9265a590ce60215e3ccd143073b4e70213594533858484604051600160a060020a039094168452602084019290925260408084019190915260608301919091526080909101905180910390a150505050565b600054600154600254600354600454600554600654600754600854600954600a54600160a060020a039a8b169a909716968b565b600080610699610bf3565b9150600082116106a857600080fd5b600f546101009004600160a060020a0316156107725760005433600160a060020a03908116911614156106e757600f805460ff1916600117905561076d565b600f5433600160a060020a0390811661010090920416141561073f57600f805475ff0000000000000000000000000000000000000000001916750100000000000000000000000000000000000000000017905561076d565b60035433600160a060020a0390811691161415610768576011805460ff1916600117905561076d565b600080fd5b6107a4565b601154610100900460ff16156107685750600160a060020a0333166000908152600b6020526040812060018101919091555b600160a060020a03331682156108fc0283604051600060405180830381858888f1935050505015156107d557600080fd5b7fe19ed71156e31b3c9e18ac7ad8d1b79f0a0feb3be18d23dae612e52040aada4b33604051600160a060020a03909116815260200160405180910390a15050565b600080610821610fc1565b60008061082c610fc1565b600854421080159061083f575060095442105b151561084a57600080fd5b60035433600160a060020a0390811691161461086557600080fd5b601154610100900460ff161561087a57600080fd5b600e54151561088857600080fd5b601454151561089657600080fd5b601054156108a357600080fd5b6005546108b09088610e56565b15156108bb57600080fd5b60145440601581905515156108cf57600080fd5b6010879055600e546015548891906040519283526020830191909152604080830191909152606090910190519081900390206013549096508681151561091157fe5b069450600b600061092187610e93565b600160a060020a0316600160a060020a031681526020019081526020016000206040805190810160405281548152600190910154602082015293508584516040519182526020820152604090810190519081900390206013549093508381151561098757fe5b06915061099382610e93565b600f805474ffffffffffffffffffffffffffffffffffffffff001916610100600160a060020a03938416810291909117918290559004166000908152600b602052604090819020908051908101604052815481526001909101546020820152600f549091507f7c195d9d8ca6f7aedfce85403a18bad6de0c1b5864a97fa635ae120b4eb4f8c3906101009004600160a060020a03168251600e548a604051600160a060020a039094168452602084019290925260408084019190915260608301919091526080909101905180910390a150505050505050565b6008544210801590610a7f575060095442105b1515610a8a57600080fd5b60005433600160a060020a03908116911614610aa557600080fd5b601154610100900460ff1615610aba57600080fd5b600e5415610ac757600080fd5b60145415610ad457600080fd5b600d54610ae19082610e56565b1515610aec57600080fd5b600e819055436014557f83985f84fec43f6c4b0b122be29b8625fc89e54a2fb6ba2b76a2751c1c7874d98160405190815260200160405180910390a150565b6008544210610b3957600080fd5b60005433600160a060020a03908116911614610b5457600080fd5b601154610100900460ff1615610b6957600080fd5b600d5415610b7657600080fd5b801515610b8257600080fd5b600d8190557f451914e591226064706dfee5bbea9f69833323aa4ef98870f5ec98f5e3fdde968160405190815260200160405180910390a150565b600a54421015610bcc57600080fd5b60035433600160a060020a03908116911614610be757600080fd5b33600160a060020a0316ff5b600f54600090819081906101009004600160a060020a031615610ceb5760005433600160a060020a0390811691161415610c4557600f5460ff1615610c3b5760009250610d29565b6001549150610cd6565b600f5433600160a060020a03908116610100909204161415610c9857600f547501000000000000000000000000000000000000000000900460ff1615610c8e5760009250610d29565b6002549150610cd6565b60035433600160a060020a0390811691161415610ccd5760115460ff1615610cc35760009250610d29565b6004549150610cd6565b60009250610d29565b6006546013546103e891028302049250610d29565b601154610100900460ff1615610d245750600160a060020a0333166000908152600b602052604090206006546001820154029250610d29565b600092505b505090565b600d54600e54600f54610100808204600160a060020a03166000818152600b60205260409020546010546011546012546013549899979860ff8089169996989597750100000000000000000000000000000000000000000090960481169694958185169594041692565b601154610100900460ff1615610dad57600080fd5b600f546101009004600160a060020a031615610dc857600080fd5b60035433600160a060020a03908116911614801590610df6575060005433600160a060020a03908116911614155b15610e19576009544210801590610e0e5750600a5442105b1515610e1957600080fd5b6011805461ff0019166101001790557f4a19036f5b4d75256c1c24150a8254bd3c2bdb1eaeeec4523e927f0ab1cdd05460405160405180910390a1565b60008133604051918252600160a060020a03166c010000000000000000000000000260208201526034016040519081900390208314905092915050565b6000806000806000610ea3610fc1565b610eab610fc1565b600c54600094506000190192505b82841415610ef057600c805485908110610ecf57fe5b6000918252602090912060029091020154600160a060020a03169650610fb6565b600c80546002868603048601975060018801965087908110610f0e57fe5b9060005260206000209060020201604080519081016040528154600160a060020a031681526001909101546020820152600c80549193509086908110610f5057fe5b9060005260206000209060020201604080519081016040528154600160a060020a031681526001909101546020808301919091529091508201518810610fad578060200151881015610fa55781519650610fb6565b849350610fb1565b8592505b610eb9565b505050505050919050565b604080519081016040526000808252602082015290565b815481835581811511611004576002028160020283600052602060002091820191016110049190611009565b505050565b61104591905b8082111561104157805473ffffffffffffffffffffffffffffffffffffffff191681556000600182015560020161100f565b5090565b905600a165627a7a72305820b5fe9324b9e297b9ba3667470bcae1b5ee0b6372e81cea2736270fc89b5b268d0029",
            "opcodes": "PUSH1 0x60 PUSH1 0x40 MSTORE CALLVALUE ISZERO PUSH2 0xF JUMPI PUSH1 0x0 DUP1 REVERT JUMPDEST PUSH1 0x40 MLOAD PUSH2 0x120 DUP1 PUSH2 0x126F DUP4 CODECOPY DUP2 ADD PUSH1 0x40 MSTORE DUP1 DUP1 MLOAD SWAP2 SWAP1 PUSH1 0x20 ADD DUP1 MLOAD SWAP2 SWAP1 PUSH1 0x20 ADD DUP1 MLOAD SWAP2 SWAP1 PUSH1 0x20 ADD DUP1 MLOAD SWAP2 SWAP1 PUSH1 0x20 ADD DUP1 MLOAD SWAP2 SWAP1 PUSH1 0x20 ADD DUP1 MLOAD SWAP2 SWAP1 PUSH1 0x20 ADD DUP1 MLOAD SWAP2 SWAP1 PUSH1 0x20 ADD DUP1 MLOAD SWAP2 SWAP1 PUSH1 0x20 ADD DUP1 MLOAD SWAP2 POP POP PUSH1 0x1 PUSH1 0xA0 PUSH1 0x2 EXP SUB DUP10 AND ISZERO ISZERO PUSH2 0x73 JUMPI PUSH1 0x0 DUP1 REVERT JUMPDEST DUP8 ISZERO ISZERO PUSH2 0x7F JUMPI PUSH1 0x0 DUP1 REVERT JUMPDEST DUP7 ISZERO ISZERO PUSH2 0x8B JUMPI PUSH1 0x0 DUP1 REVERT JUMPDEST PUSH2 0x3E8 DUP9 DUP9 ADD DUP8 ADD EQ PUSH2 0x9D JUMPI PUSH1 0x0 DUP1 REVERT JUMPDEST DUP5 ISZERO ISZERO PUSH2 0xA9 JUMPI PUSH1 0x0 DUP1 REVERT JUMPDEST DUP4 ISZERO ISZERO PUSH2 0xB5 JUMPI PUSH1 0x0 DUP1 REVERT JUMPDEST TIMESTAMP DUP4 GT PUSH2 0xC1 JUMPI PUSH1 0x0 DUP1 REVERT JUMPDEST DUP3 DUP3 GT PUSH2 0xCD JUMPI PUSH1 0x0 DUP1 REVERT JUMPDEST DUP2 DUP2 GT PUSH2 0xD9 JUMPI PUSH1 0x0 DUP1 REVERT JUMPDEST PUSH2 0x160 PUSH1 0x40 MLOAD SWAP1 DUP2 ADD PUSH1 0x40 MSTORE DUP1 DUP11 PUSH1 0x1 PUSH1 0xA0 PUSH1 0x2 EXP SUB AND DUP2 MSTORE PUSH1 0x20 ADD DUP10 DUP2 MSTORE PUSH1 0x20 ADD DUP9 DUP2 MSTORE PUSH1 0x20 ADD CALLER PUSH1 0x1 PUSH1 0xA0 PUSH1 0x2 EXP SUB AND DUP2 MSTORE PUSH1 0x20 ADD DUP8 DUP2 MSTORE PUSH1 0x20 ADD DUP7 PUSH1 0x0 NOT AND DUP2 MSTORE PUSH1 0x20 ADD DUP6 DUP2 MSTORE PUSH1 0x20 ADD TIMESTAMP DUP2 MSTORE PUSH1 0x20 ADD DUP5 DUP2 MSTORE PUSH1 0x20 ADD DUP4 DUP2 MSTORE PUSH1 0x20 ADD DUP3 DUP2 MSTORE POP PUSH1 0x0 DUP1 DUP3 ADD MLOAD DUP2 SLOAD PUSH1 0x1 PUSH1 0xA0 PUSH1 0x2 EXP SUB NOT AND PUSH1 0x1 PUSH1 0xA0 PUSH1 0x2 EXP SUB SWAP2 SWAP1 SWAP2 AND OR DUP2 SSTORE PUSH1 0x20 DUP3 ADD MLOAD DUP2 PUSH1 0x1 ADD SSTORE PUSH1 0x40 DUP3 ADD MLOAD DUP2 PUSH1 0x2 ADD SSTORE PUSH1 0x60 DUP3 ADD MLOAD PUSH1 0x3 DUP3 ADD DUP1 SLOAD PUSH1 0x1 PUSH1 0xA0 PUSH1 0x2 EXP SUB NOT AND PUSH1 0x1 PUSH1 0xA0 PUSH1 0x2 EXP SUB SWAP3 SWAP1 SWAP3 AND SWAP2 SWAP1 SWAP2 OR SWAP1 SSTORE PUSH1 0x80 DUP3 ADD MLOAD DUP2 PUSH1 0x4 ADD SSTORE PUSH1 0xA0 DUP3 ADD MLOAD PUSH1 0x5 DUP3 ADD SSTORE PUSH1 0xC0 DUP3 ADD MLOAD DUP2 PUSH1 0x6 ADD SSTORE PUSH1 0xE0 DUP3 ADD MLOAD DUP2 PUSH1 0x7 ADD SSTORE PUSH2 0x100 DUP3 ADD MLOAD DUP2 PUSH1 0x8 ADD SSTORE PUSH2 0x120 DUP3 ADD MLOAD DUP2 PUSH1 0x9 ADD SSTORE PUSH2 0x140 DUP3 ADD MLOAD PUSH1 0xA SWAP1 SWAP2 ADD SSTORE POP POP POP POP POP POP POP POP POP POP PUSH2 0x1074 DUP1 PUSH2 0x1FB PUSH1 0x0 CODECOPY PUSH1 0x0 RETURN STOP PUSH1 0x60 PUSH1 0x40 MSTORE PUSH1 0x4 CALLDATASIZE LT PUSH2 0xAE JUMPI PUSH4 0xFFFFFFFF PUSH29 0x100000000000000000000000000000000000000000000000000000000 PUSH1 0x0 CALLDATALOAD DIV AND PUSH4 0x9E69EDE DUP2 EQ PUSH2 0x1B1 JUMPI DUP1 PUSH4 0xA14504C EQ PUSH2 0x1E8 JUMPI DUP1 PUSH4 0x2DDE9ACA EQ PUSH2 0x1F5 JUMPI DUP1 PUSH4 0x3CCFD60B EQ PUSH2 0x270 JUMPI DUP1 PUSH4 0x7015913C EQ PUSH2 0x283 JUMPI DUP1 PUSH4 0x701FD0F1 EQ PUSH2 0x299 JUMPI DUP1 PUSH4 0x75AA8705 EQ PUSH2 0x2AF JUMPI DUP1 PUSH4 0x83197EF0 EQ PUSH2 0x2C5 JUMPI DUP1 PUSH4 0xB69EF8A8 EQ PUSH2 0x2D8 JUMPI DUP1 PUSH4 0xC19D93FB EQ PUSH2 0x2FD JUMPI DUP1 PUSH4 0xEA8A1AF0 EQ PUSH2 0x37E JUMPI JUMPDEST PUSH1 0x8 SLOAD PUSH1 0x0 SWAP1 DUP2 SWAP1 DUP2 SWAP1 TIMESTAMP LT PUSH2 0xC3 JUMPI PUSH1 0x0 DUP1 REVERT JUMPDEST PUSH1 0x0 SLOAD CALLER PUSH1 0x1 PUSH1 0xA0 PUSH1 0x2 EXP SUB SWAP1 DUP2 AND SWAP2 AND EQ ISZERO PUSH2 0xDF JUMPI PUSH1 0x0 DUP1 REVERT JUMPDEST PUSH1 0x3 SLOAD CALLER PUSH1 0x1 PUSH1 0xA0 PUSH1 0x2 EXP SUB SWAP1 DUP2 AND SWAP2 AND EQ ISZERO PUSH2 0xFB JUMPI PUSH1 0x0 DUP1 REVERT JUMPDEST PUSH1 0x11 SLOAD PUSH2 0x100 SWAP1 DIV PUSH1 0xFF AND ISZERO PUSH2 0x110 JUMPI PUSH1 0x0 DUP1 REVERT JUMPDEST PUSH1 0xD SLOAD ISZERO ISZERO PUSH2 0x11E JUMPI PUSH1 0x0 DUP1 REVERT JUMPDEST PUSH1 0x1 PUSH1 0xA0 PUSH1 0x2 EXP SUB CALLER AND PUSH1 0x0 SWAP1 DUP2 MSTORE PUSH1 0xB PUSH1 0x20 MSTORE PUSH1 0x40 SWAP1 KECCAK256 DUP1 SLOAD SWAP1 SWAP4 POP ISZERO ISZERO PUSH2 0x146 JUMPI PUSH1 0x0 DUP1 REVERT JUMPDEST PUSH2 0x14F DUP4 PUSH2 0x391 JUMP JUMPDEST SWAP2 POP SWAP2 POP PUSH32 0x11DF61431069ECB6BFFB62F185491E4ADC966B75B0648630EA30F60CFFF8A9E5 CALLER DUP4 DUP4 PUSH1 0x40 MLOAD DUP1 DUP5 PUSH1 0x1 PUSH1 0xA0 PUSH1 0x2 EXP SUB AND PUSH1 0x1 PUSH1 0xA0 PUSH1 0x2 EXP SUB AND DUP2 MSTORE PUSH1 0x20 ADD DUP4 DUP2 MSTORE PUSH1 0x20 ADD DUP3 DUP2 MSTORE PUSH1 0x20 ADD SWAP4 POP POP POP POP PUSH1 0x40 MLOAD DUP1 SWAP2 SUB SWAP1 LOG1 POP POP POP STOP JUMPDEST CALLVALUE ISZERO PUSH2 0x1BC JUMPI PUSH1 0x0 DUP1 REVERT JUMPDEST PUSH2 0x1D0 PUSH1 0x1 PUSH1 0xA0 PUSH1 0x2 EXP SUB PUSH1 0x4 CALLDATALOAD AND PUSH2 0x515 JUMP JUMPDEST PUSH1 0x40 MLOAD SWAP2 DUP3 MSTORE PUSH1 0x20 DUP3 ADD MSTORE PUSH1 0x40 SWAP1 DUP2 ADD SWAP1 MLOAD DUP1 SWAP2 SUB SWAP1 RETURN JUMPDEST PUSH2 0x1F3 PUSH1 0x4 CALLDATALOAD PUSH2 0x52E JUMP JUMPDEST STOP JUMPDEST CALLVALUE ISZERO PUSH2 0x200 JUMPI PUSH1 0x0 DUP1 REVERT JUMPDEST PUSH2 0x208 PUSH2 0x65A JUMP JUMPDEST PUSH1 0x40 MLOAD PUSH1 0x1 PUSH1 0xA0 PUSH1 0x2 EXP SUB SWAP12 DUP13 AND DUP2 MSTORE PUSH1 0x20 DUP2 ADD SWAP11 SWAP1 SWAP11 MSTORE PUSH1 0x40 DUP1 DUP12 ADD SWAP10 SWAP1 SWAP10 MSTORE SWAP7 SWAP1 SWAP10 AND PUSH1 0x60 DUP10 ADD MSTORE PUSH1 0x80 DUP9 ADD SWAP5 SWAP1 SWAP5 MSTORE PUSH1 0xA0 DUP8 ADD SWAP3 SWAP1 SWAP3 MSTORE PUSH1 0xC0 DUP7 ADD MSTORE PUSH1 0xE0 DUP6 ADD MSTORE PUSH2 0x100 DUP5 ADD MSTORE PUSH2 0x120 DUP4 ADD SWAP4 SWAP1 SWAP4 MSTORE PUSH2 0x140 DUP3 ADD SWAP3 SWAP1 SWAP3 MSTORE PUSH2 0x160 ADD SWAP1 MLOAD DUP1 SWAP2 SUB SWAP1 RETURN JUMPDEST CALLVALUE ISZERO PUSH2 0x27B JUMPI PUSH1 0x0 DUP1 REVERT JUMPDEST PUSH2 0x1F3 PUSH2 0x68E JUMP JUMPDEST CALLVALUE ISZERO PUSH2 0x28E JUMPI PUSH1 0x0 DUP1 REVERT JUMPDEST PUSH2 0x1F3 PUSH1 0x4 CALLDATALOAD PUSH2 0x816 JUMP JUMPDEST CALLVALUE ISZERO PUSH2 0x2A4 JUMPI PUSH1 0x0 DUP1 REVERT JUMPDEST PUSH2 0x1F3 PUSH1 0x4 CALLDATALOAD PUSH2 0xA6C JUMP JUMPDEST CALLVALUE ISZERO PUSH2 0x2BA JUMPI PUSH1 0x0 DUP1 REVERT JUMPDEST PUSH2 0x1F3 PUSH1 0x4 CALLDATALOAD PUSH2 0xB2B JUMP JUMPDEST CALLVALUE ISZERO PUSH2 0x2D0 JUMPI PUSH1 0x0 DUP1 REVERT JUMPDEST PUSH2 0x1F3 PUSH2 0xBBD JUMP JUMPDEST CALLVALUE ISZERO PUSH2 0x2E3 JUMPI PUSH1 0x0 DUP1 REVERT JUMPDEST PUSH2 0x2EB PUSH2 0xBF3 JUMP JUMPDEST PUSH1 0x40 MLOAD SWAP1 DUP2 MSTORE PUSH1 0x20 ADD PUSH1 0x40 MLOAD DUP1 SWAP2 SUB SWAP1 RETURN JUMPDEST CALLVALUE ISZERO PUSH2 0x308 JUMPI PUSH1 0x0 DUP1 REVERT JUMPDEST PUSH2 0x310 PUSH2 0xD2E JUMP JUMPDEST PUSH1 0x40 MLOAD SWAP11 DUP12 MSTORE PUSH1 0x20 DUP12 ADD SWAP10 SWAP1 SWAP10 MSTORE SWAP7 ISZERO ISZERO PUSH1 0x40 DUP1 DUP12 ADD SWAP2 SWAP1 SWAP2 MSTORE PUSH1 0x1 PUSH1 0xA0 PUSH1 0x2 EXP SUB SWAP1 SWAP7 AND PUSH1 0x60 DUP11 ADD MSTORE PUSH1 0x80 DUP10 ADD SWAP5 SWAP1 SWAP5 MSTORE SWAP2 ISZERO ISZERO PUSH1 0xA0 DUP9 ADD MSTORE PUSH1 0xC0 DUP8 ADD MSTORE ISZERO ISZERO PUSH1 0xE0 DUP7 ADD MSTORE ISZERO ISZERO PUSH2 0x100 DUP6 ADD MSTORE PUSH2 0x120 DUP5 ADD SWAP2 SWAP1 SWAP2 MSTORE PUSH2 0x140 DUP4 ADD SWAP2 SWAP1 SWAP2 MSTORE PUSH2 0x160 SWAP1 SWAP2 ADD SWAP1 MLOAD DUP1 SWAP2 SUB SWAP1 RETURN JUMPDEST CALLVALUE ISZERO PUSH2 0x389 JUMPI PUSH1 0x0 DUP1 REVERT JUMPDEST PUSH2 0x1F3 PUSH2 0xD98 JUMP JUMPDEST PUSH1 0x0 DUP1 PUSH2 0x39C PUSH2 0xFC1 JUMP JUMPDEST PUSH2 0x3A4 PUSH2 0xFC1 JUMP JUMPDEST PUSH1 0x6 SLOAD CALLVALUE DUP2 ISZERO ISZERO PUSH2 0x3B1 JUMPI INVALID JUMPDEST DIV SWAP4 POP PUSH1 0x1 DUP5 LT ISZERO PUSH2 0x3C2 JUMPI PUSH1 0x0 DUP1 REVERT JUMPDEST PUSH1 0x1 DUP6 ADD DUP1 SLOAD DUP6 ADD SWAP1 SSTORE PUSH1 0x13 DUP1 SLOAD DUP6 ADD SWAP1 SSTORE PUSH1 0xC SLOAD ISZERO ISZERO PUSH2 0x401 JUMPI PUSH1 0x40 DUP1 MLOAD SWAP1 DUP2 ADD PUSH1 0x40 MSTORE PUSH1 0x1 PUSH1 0xA0 PUSH1 0x2 EXP SUB CALLER AND DUP2 MSTORE PUSH1 0x0 PUSH1 0x20 DUP3 ADD MSTORE SWAP2 POP PUSH2 0x46B JUMP JUMPDEST PUSH1 0xC DUP1 SLOAD PUSH1 0x0 NOT DUP2 ADD SWAP1 DUP2 LT PUSH2 0x413 JUMPI INVALID JUMPDEST SWAP1 PUSH1 0x0 MSTORE PUSH1 0x20 PUSH1 0x0 KECCAK256 SWAP1 PUSH1 0x2 MUL ADD PUSH1 0x40 DUP1 MLOAD SWAP1 DUP2 ADD PUSH1 0x40 SWAP1 DUP2 MSTORE DUP3 SLOAD PUSH1 0x1 PUSH1 0xA0 PUSH1 0x2 EXP SUB AND DUP3 MSTORE PUSH1 0x1 SWAP1 SWAP3 ADD SLOAD PUSH1 0x20 DUP3 ADD MSTORE SWAP2 POP DUP1 MLOAD SWAP1 DUP2 ADD PUSH1 0x40 MSTORE DUP1 CALLER PUSH1 0x1 PUSH1 0xA0 PUSH1 0x2 EXP SUB AND DUP2 MSTORE PUSH1 0x20 ADD DUP6 DUP4 PUSH1 0x20 ADD MLOAD ADD SWAP1 MSTORE SWAP2 POP JUMPDEST PUSH1 0xC DUP1 SLOAD PUSH1 0x1 DUP2 ADD PUSH2 0x47D DUP4 DUP3 PUSH2 0xFD8 JUMP JUMPDEST PUSH1 0x0 SWAP3 DUP4 MSTORE PUSH1 0x20 SWAP1 SWAP3 KECCAK256 DUP5 SWAP2 PUSH1 0x2 MUL ADD DUP2 MLOAD DUP2 SLOAD PUSH20 0xFFFFFFFFFFFFFFFFFFFFFFFFFFFFFFFFFFFFFFFF NOT AND PUSH1 0x1 PUSH1 0xA0 PUSH1 0x2 EXP SUB SWAP2 SWAP1 SWAP2 AND OR DUP2 SSTORE PUSH1 0x20 DUP3 ADD MLOAD PUSH1 0x1 SWAP1 SWAP2 ADD SSTORE POP POP PUSH1 0x6 SLOAD CALLVALUE DUP2 ISZERO ISZERO PUSH2 0x4D1 JUMPI INVALID JUMPDEST MOD SWAP3 POP PUSH1 0x0 DUP4 GT ISZERO PUSH2 0x50E JUMPI PUSH1 0x1 PUSH1 0xA0 PUSH1 0x2 EXP SUB CALLER AND DUP4 ISZERO PUSH2 0x8FC MUL DUP5 PUSH1 0x40 MLOAD PUSH1 0x0 PUSH1 0x40 MLOAD DUP1 DUP4 SUB DUP2 DUP6 DUP9 DUP9 CALL SWAP4 POP POP POP POP ISZERO ISZERO PUSH2 0x50E JUMPI PUSH1 0x0 DUP1 REVERT JUMPDEST POP POP SWAP2 POP SWAP2 JUMP JUMPDEST PUSH1 0xB PUSH1 0x20 MSTORE PUSH1 0x0 SWAP1 DUP2 MSTORE PUSH1 0x40 SWAP1 KECCAK256 DUP1 SLOAD PUSH1 0x1 SWAP1 SWAP2 ADD SLOAD DUP3 JUMP JUMPDEST PUSH1 0x8 SLOAD PUSH1 0x0 SWAP1 DUP2 SWAP1 DUP2 SWAP1 TIMESTAMP LT PUSH2 0x543 JUMPI PUSH1 0x0 DUP1 REVERT JUMPDEST PUSH1 0x0 SLOAD CALLER PUSH1 0x1 PUSH1 0xA0 PUSH1 0x2 EXP SUB SWAP1 DUP2 AND SWAP2 AND EQ ISZERO PUSH2 0x55F JUMPI PUSH1 0x0 DUP1 REVERT JUMPDEST PUSH1 0x3 SLOAD CALLER PUSH1 0x1 PUSH1 0xA0 PUSH1 0x2 EXP SUB SWAP1 DUP2 AND SWAP2 AND EQ ISZERO PUSH2 0x57B JUMPI PUSH1 0x0 DUP1 REVERT JUMPDEST PUSH1 0x11 SLOAD PUSH2 0x100 SWAP1 DIV PUSH1 0xFF AND ISZERO PUSH2 0x590 JUMPI PUSH1 0x0 DUP1 REVERT JUMPDEST PUSH1 0xD SLOAD ISZERO ISZERO PUSH2 0x59E JUMPI PUSH1 0x0 DUP1 REVERT JUMPDEST DUP4 ISZERO ISZERO PUSH2 0x5AA JUMPI PUSH1 0x0 DUP1 REVERT JUMPDEST PUSH1 0x1 PUSH1 0xA0 PUSH1 0x2 EXP SUB CALLER AND PUSH1 0x0 SWAP1 DUP2 MSTORE PUSH1 0xB PUSH1 0x20 MSTORE PUSH1 0x40 SWAP1 KECCAK256 DUP1 SLOAD SWAP1 SWAP4 POP ISZERO PUSH2 0x5D1 JUMPI PUSH1 0x0 DUP1 REVERT JUMPDEST PUSH1 0x1 DUP4 ADD SLOAD ISZERO PUSH2 0x5E0 JUMPI PUSH1 0x0 DUP1 REVERT JUMPDEST PUSH2 0x5E9 DUP4 PUSH2 0x391 JUMP JUMPDEST DUP6 DUP6 SSTORE PUSH1 0x12 DUP1 SLOAD PUSH1 0x1 ADD SWAP1 SSTORE SWAP1 SWAP3 POP SWAP1 POP PUSH32 0x6F75810CFD16E411E8E12BC62C9265A590CE60215E3CCD143073B4E702135945 CALLER DUP6 DUP5 DUP5 PUSH1 0x40 MLOAD PUSH1 0x1 PUSH1 0xA0 PUSH1 0x2 EXP SUB SWAP1 SWAP5 AND DUP5 MSTORE PUSH1 0x20 DUP5 ADD SWAP3 SWAP1 SWAP3 MSTORE PUSH1 0x40 DUP1 DUP5 ADD SWAP2 SWAP1 SWAP2 MSTORE PUSH1 0x60 DUP4 ADD SWAP2 SWAP1 SWAP2 MSTORE PUSH1 0x80 SWAP1 SWAP2 ADD SWAP1 MLOAD DUP1 SWAP2 SUB SWAP1 LOG1 POP POP POP POP JUMP JUMPDEST PUSH1 0x0 SLOAD PUSH1 0x1 SLOAD PUSH1 0x2 SLOAD PUSH1 0x3 SLOAD PUSH1 0x4 SLOAD PUSH1 0x5 SLOAD PUSH1 0x6 SLOAD PUSH1 0x7 SLOAD PUSH1 0x8 SLOAD PUSH1 0x9 SLOAD PUSH1 0xA SLOAD PUSH1 0x1 PUSH1 0xA0 PUSH1 0x2 EXP SUB SWAP11 DUP12 AND SWAP11 SWAP1 SWAP8 AND SWAP7 DUP12 JUMP JUMPDEST PUSH1 0x0 DUP1 PUSH2 0x699 PUSH2 0xBF3 JUMP JUMPDEST SWAP2 POP PUSH1 0x0 DUP3 GT PUSH2 0x6A8 JUMPI PUSH1 0x0 DUP1 REVERT JUMPDEST PUSH1 0xF SLOAD PUSH2 0x100 SWAP1 DIV PUSH1 0x1 PUSH1 0xA0 PUSH1 0x2 EXP SUB AND ISZERO PUSH2 0x772 JUMPI PUSH1 0x0 SLOAD CALLER PUSH1 0x1 PUSH1 0xA0 PUSH1 0x2 EXP SUB SWAP1 DUP2 AND SWAP2 AND EQ ISZERO PUSH2 0x6E7 JUMPI PUSH1 0xF DUP1 SLOAD PUSH1 0xFF NOT AND PUSH1 0x1 OR SWAP1 SSTORE PUSH2 0x76D JUMP JUMPDEST PUSH1 0xF SLOAD CALLER PUSH1 0x1 PUSH1 0xA0 PUSH1 0x2 EXP SUB SWAP1 DUP2 AND PUSH2 0x100 SWAP1 SWAP3 DIV AND EQ ISZERO PUSH2 0x73F JUMPI PUSH1 0xF DUP1 SLOAD PUSH22 0xFF000000000000000000000000000000000000000000 NOT AND PUSH22 0x1000000000000000000000000000000000000000000 OR SWAP1 SSTORE PUSH2 0x76D JUMP JUMPDEST PUSH1 0x3 SLOAD CALLER PUSH1 0x1 PUSH1 0xA0 PUSH1 0x2 EXP SUB SWAP1 DUP2 AND SWAP2 AND EQ ISZERO PUSH2 0x768 JUMPI PUSH1 0x11 DUP1 SLOAD PUSH1 0xFF NOT AND PUSH1 0x1 OR SWAP1 SSTORE PUSH2 0x76D JUMP JUMPDEST PUSH1 0x0 DUP1 REVERT JUMPDEST PUSH2 0x7A4 JUMP JUMPDEST PUSH1 0x11 SLOAD PUSH2 0x100 SWAP1 DIV PUSH1 0xFF AND ISZERO PUSH2 0x768 JUMPI POP PUSH1 0x1 PUSH1 0xA0 PUSH1 0x2 EXP SUB CALLER AND PUSH1 0x0 SWAP1 DUP2 MSTORE PUSH1 0xB PUSH1 0x20 MSTORE PUSH1 0x40 DUP2 KECCAK256 PUSH1 0x1 DUP2 ADD SWAP2 SWAP1 SWAP2 SSTORE JUMPDEST PUSH1 0x1 PUSH1 0xA0 PUSH1 0x2 EXP SUB CALLER AND DUP3 ISZERO PUSH2 0x8FC MUL DUP4 PUSH1 0x40 MLOAD PUSH1 0x0 PUSH1 0x40 MLOAD DUP1 DUP4 SUB DUP2 DUP6 DUP9 DUP9 CALL SWAP4 POP POP POP POP ISZERO ISZERO PUSH2 0x7D5 JUMPI PUSH1 0x0 DUP1 REVERT JUMPDEST PUSH32 0xE19ED71156E31B3C9E18AC7AD8D1B79F0A0FEB3BE18D23DAE612E52040AADA4B CALLER PUSH1 0x40 MLOAD PUSH1 0x1 PUSH1 0xA0 PUSH1 0x2 EXP SUB SWAP1 SWAP2 AND DUP2 MSTORE PUSH1 0x20 ADD PUSH1 0x40 MLOAD DUP1 SWAP2 SUB SWAP1 LOG1 POP POP JUMP JUMPDEST PUSH1 0x0 DUP1 PUSH2 0x821 PUSH2 0xFC1 JUMP JUMPDEST PUSH1 0x0 DUP1 PUSH2 0x82C PUSH2 0xFC1 JUMP JUMPDEST PUSH1 0x8 SLOAD TIMESTAMP LT DUP1 ISZERO SWAP1 PUSH2 0x83F JUMPI POP PUSH1 0x9 SLOAD TIMESTAMP LT JUMPDEST ISZERO ISZERO PUSH2 0x84A JUMPI PUSH1 0x0 DUP1 REVERT JUMPDEST PUSH1 0x3 SLOAD CALLER PUSH1 0x1 PUSH1 0xA0 PUSH1 0x2 EXP SUB SWAP1 DUP2 AND SWAP2 AND EQ PUSH2 0x865 JUMPI PUSH1 0x0 DUP1 REVERT JUMPDEST PUSH1 0x11 SLOAD PUSH2 0x100 SWAP1 DIV PUSH1 0xFF AND ISZERO PUSH2 0x87A JUMPI PUSH1 0x0 DUP1 REVERT JUMPDEST PUSH1 0xE SLOAD ISZERO ISZERO PUSH2 0x888 JUMPI PUSH1 0x0 DUP1 REVERT JUMPDEST PUSH1 0x14 SLOAD ISZERO ISZERO PUSH2 0x896 JUMPI PUSH1 0x0 DUP1 REVERT JUMPDEST PUSH1 0x10 SLOAD ISZERO PUSH2 0x8A3 JUMPI PUSH1 0x0 DUP1 REVERT JUMPDEST PUSH1 0x5 SLOAD PUSH2 0x8B0 SWAP1 DUP9 PUSH2 0xE56 JUMP JUMPDEST ISZERO ISZERO PUSH2 0x8BB JUMPI PUSH1 0x0 DUP1 REVERT JUMPDEST PUSH1 0x14 SLOAD BLOCKHASH PUSH1 0x15 DUP2 SWAP1 SSTORE ISZERO ISZERO PUSH2 0x8CF JUMPI PUSH1 0x0 DUP1 REVERT JUMPDEST PUSH1 0x10 DUP8 SWAP1 SSTORE PUSH1 0xE SLOAD PUSH1 0x15 SLOAD DUP9 SWAP2 SWAP1 PUSH1 0x40 MLOAD SWAP3 DUP4 MSTORE PUSH1 0x20 DUP4 ADD SWAP2 SWAP1 SWAP2 MSTORE PUSH1 0x40 DUP1 DUP4 ADD SWAP2 SWAP1 SWAP2 MSTORE PUSH1 0x60 SWAP1 SWAP2 ADD SWAP1 MLOAD SWAP1 DUP2 SWAP1 SUB SWAP1 KECCAK256 PUSH1 0x13 SLOAD SWAP1 SWAP7 POP DUP7 DUP2 ISZERO ISZERO PUSH2 0x911 JUMPI INVALID JUMPDEST MOD SWAP5 POP PUSH1 0xB PUSH1 0x0 PUSH2 0x921 DUP8 PUSH2 0xE93 JUMP JUMPDEST PUSH1 0x1 PUSH1 0xA0 PUSH1 0x2 EXP SUB AND PUSH1 0x1 PUSH1 0xA0 PUSH1 0x2 EXP SUB AND DUP2 MSTORE PUSH1 0x20 ADD SWAP1 DUP2 MSTORE PUSH1 0x20 ADD PUSH1 0x0 KECCAK256 PUSH1 0x40 DUP1 MLOAD SWAP1 DUP2 ADD PUSH1 0x40 MSTORE DUP2 SLOAD DUP2 MSTORE PUSH1 0x1 SWAP1 SWAP2 ADD SLOAD PUSH1 0x20 DUP3 ADD MSTORE SWAP4 POP DUP6 DUP5 MLOAD PUSH1 0x40 MLOAD SWAP2 DUP3 MSTORE PUSH1 0x20 DUP3 ADD MSTORE PUSH1 0x40 SWAP1 DUP2 ADD SWAP1 MLOAD SWAP1 DUP2 SWAP1 SUB SWAP1 KECCAK256 PUSH1 0x13 SLOAD SWAP1 SWAP4 POP DUP4 DUP2 ISZERO ISZERO PUSH2 0x987 JUMPI INVALID JUMPDEST MOD SWAP2 POP PUSH2 0x993 DUP3 PUSH2 0xE93 JUMP JUMPDEST PUSH1 0xF DUP1 SLOAD PUSH21 0xFFFFFFFFFFFFFFFFFFFFFFFFFFFFFFFFFFFFFFFF00 NOT AND PUSH2 0x100 PUSH1 0x1 PUSH1 0xA0 PUSH1 0x2 EXP SUB SWAP4 DUP5 AND DUP2 MUL SWAP2 SWAP1 SWAP2 OR SWAP2 DUP3 SWAP1 SSTORE SWAP1 DIV AND PUSH1 0x0 SWAP1 DUP2 MSTORE PUSH1 0xB PUSH1 0x20 MSTORE PUSH1 0x40 SWAP1 DUP2 SWAP1 KECCAK256 SWAP1 DUP1 MLOAD SWAP1 DUP2 ADD PUSH1 0x40 MSTORE DUP2 SLOAD DUP2 MSTORE PUSH1 0x1 SWAP1 SWAP2 ADD SLOAD PUSH1 0x20 DUP3 ADD MSTORE PUSH1 0xF SLOAD SWAP1 SWAP2 POP PUSH32 0x7C195D9D8CA6F7AEDFCE85403A18BAD6DE0C1B5864A97FA635AE120B4EB4F8C3 SWAP1 PUSH2 0x100 SWAP1 DIV PUSH1 0x1 PUSH1 0xA0 PUSH1 0x2 EXP SUB AND DUP3 MLOAD PUSH1 0xE SLOAD DUP11 PUSH1 0x40 MLOAD PUSH1 0x1 PUSH1 0xA0 PUSH1 0x2 EXP SUB SWAP1 SWAP5 AND DUP5 MSTORE PUSH1 0x20 DUP5 ADD SWAP3 SWAP1 SWAP3 MSTORE PUSH1 0x40 DUP1 DUP5 ADD SWAP2 SWAP1 SWAP2 MSTORE PUSH1 0x60 DUP4 ADD SWAP2 SWAP1 SWAP2 MSTORE PUSH1 0x80 SWAP1 SWAP2 ADD SWAP1 MLOAD DUP1 SWAP2 SUB SWAP1 LOG1 POP POP POP POP POP POP POP JUMP JUMPDEST PUSH1 0x8 SLOAD TIMESTAMP LT DUP1 ISZERO SWAP1 PUSH2 0xA7F JUMPI POP PUSH1 0x9 SLOAD TIMESTAMP LT JUMPDEST ISZERO ISZERO PUSH2 0xA8A JUMPI PUSH1 0x0 DUP1 REVERT JUMPDEST PUSH1 0x0 SLOAD CALLER PUSH1 0x1 PUSH1 0xA0 PUSH1 0x2 EXP SUB SWAP1 DUP2 AND SWAP2 AND EQ PUSH2 0xAA5 JUMPI PUSH1 0x0 DUP1 REVERT JUMPDEST PUSH1 0x11 SLOAD PUSH2 0x100 SWAP1 DIV PUSH1 0xFF AND ISZERO PUSH2 0xABA JUMPI PUSH1 0x0 DUP1 REVERT JUMPDEST PUSH1 0xE SLOAD ISZERO PUSH2 0xAC7 JUMPI PUSH1 0x0 DUP1 REVERT JUMPDEST PUSH1 0x14 SLOAD ISZERO PUSH2 0xAD4 JUMPI PUSH1 0x0 DUP1 REVERT JUMPDEST PUSH1 0xD SLOAD PUSH2 0xAE1 SWAP1 DUP3 PUSH2 0xE56 JUMP JUMPDEST ISZERO ISZERO PUSH2 0xAEC JUMPI PUSH1 0x0 DUP1 REVERT JUMPDEST PUSH1 0xE DUP2 SWAP1 SSTORE NUMBER PUSH1 0x14 SSTORE PUSH32 0x83985F84FEC43F6C4B0B122BE29B8625FC89E54A2FB6BA2B76A2751C1C7874D9 DUP2 PUSH1 0x40 MLOAD SWAP1 DUP2 MSTORE PUSH1 0x20 ADD PUSH1 0x40 MLOAD DUP1 SWAP2 SUB SWAP1 LOG1 POP JUMP JUMPDEST PUSH1 0x8 SLOAD TIMESTAMP LT PUSH2 0xB39 JUMPI PUSH1 0x0 DUP1 REVERT JUMPDEST PUSH1 0x0 SLOAD CALLER PUSH1 0x1 PUSH1 0xA0 PUSH1 0x2 EXP SUB SWAP1 DUP2 AND SWAP2 AND EQ PUSH2 0xB54 JUMPI PUSH1 0x0 DUP1 REVERT JUMPDEST PUSH1 0x11 SLOAD PUSH2 0x100 SWAP1 DIV PUSH1 0xFF AND ISZERO PUSH2 0xB69 JUMPI PUSH1 0x0 DUP1 REVERT JUMPDEST PUSH1 0xD SLOAD ISZERO PUSH2 0xB76 JUMPI PUSH1 0x0 DUP1 REVERT JUMPDEST DUP1 ISZERO ISZERO PUSH2 0xB82 JUMPI PUSH1 0x0 DUP1 REVERT JUMPDEST PUSH1 0xD DUP2 SWAP1 SSTORE PUSH32 0x451914E591226064706DFEE5BBEA9F69833323AA4EF98870F5EC98F5E3FDDE96 DUP2 PUSH1 0x40 MLOAD SWAP1 DUP2 MSTORE PUSH1 0x20 ADD PUSH1 0x40 MLOAD DUP1 SWAP2 SUB SWAP1 LOG1 POP JUMP JUMPDEST PUSH1 0xA SLOAD TIMESTAMP LT ISZERO PUSH2 0xBCC JUMPI PUSH1 0x0 DUP1 REVERT JUMPDEST PUSH1 0x3 SLOAD CALLER PUSH1 0x1 PUSH1 0xA0 PUSH1 0x2 EXP SUB SWAP1 DUP2 AND SWAP2 AND EQ PUSH2 0xBE7 JUMPI PUSH1 0x0 DUP1 REVERT JUMPDEST CALLER PUSH1 0x1 PUSH1 0xA0 PUSH1 0x2 EXP SUB AND SELFDESTRUCT JUMPDEST PUSH1 0xF SLOAD PUSH1 0x0 SWAP1 DUP2 SWAP1 DUP2 SWAP1 PUSH2 0x100 SWAP1 DIV PUSH1 0x1 PUSH1 0xA0 PUSH1 0x2 EXP SUB AND ISZERO PUSH2 0xCEB JUMPI PUSH1 0x0 SLOAD CALLER PUSH1 0x1 PUSH1 0xA0 PUSH1 0x2 EXP SUB SWAP1 DUP2 AND SWAP2 AND EQ ISZERO PUSH2 0xC45 JUMPI PUSH1 0xF SLOAD PUSH1 0xFF AND ISZERO PUSH2 0xC3B JUMPI PUSH1 0x0 SWAP3 POP PUSH2 0xD29 JUMP JUMPDEST PUSH1 0x1 SLOAD SWAP2 POP PUSH2 0xCD6 JUMP JUMPDEST PUSH1 0xF SLOAD CALLER PUSH1 0x1 PUSH1 0xA0 PUSH1 0x2 EXP SUB SWAP1 DUP2 AND PUSH2 0x100 SWAP1 SWAP3 DIV AND EQ ISZERO PUSH2 0xC98 JUMPI PUSH1 0xF SLOAD PUSH22 0x1000000000000000000000000000000000000000000 SWAP1 DIV PUSH1 0xFF AND ISZERO PUSH2 0xC8E JUMPI PUSH1 0x0 SWAP3 POP PUSH2 0xD29 JUMP JUMPDEST PUSH1 0x2 SLOAD SWAP2 POP PUSH2 0xCD6 JUMP JUMPDEST PUSH1 0x3 SLOAD CALLER PUSH1 0x1 PUSH1 0xA0 PUSH1 0x2 EXP SUB SWAP1 DUP2 AND SWAP2 AND EQ ISZERO PUSH2 0xCCD JUMPI PUSH1 0x11 SLOAD PUSH1 0xFF AND ISZERO PUSH2 0xCC3 JUMPI PUSH1 0x0 SWAP3 POP PUSH2 0xD29 JUMP JUMPDEST PUSH1 0x4 SLOAD SWAP2 POP PUSH2 0xCD6 JUMP JUMPDEST PUSH1 0x0 SWAP3 POP PUSH2 0xD29 JUMP JUMPDEST PUSH1 0x6 SLOAD PUSH1 0x13 SLOAD PUSH2 0x3E8 SWAP2 MUL DUP4 MUL DIV SWAP3 POP PUSH2 0xD29 JUMP JUMPDEST PUSH1 0x11 SLOAD PUSH2 0x100 SWAP1 DIV PUSH1 0xFF AND ISZERO PUSH2 0xD24 JUMPI POP PUSH1 0x1 PUSH1 0xA0 PUSH1 0x2 EXP SUB CALLER AND PUSH1 0x0 SWAP1 DUP2 MSTORE PUSH1 0xB PUSH1 0x20 MSTORE PUSH1 0x40 SWAP1 KECCAK256 PUSH1 0x6 SLOAD PUSH1 0x1 DUP3 ADD SLOAD MUL SWAP3 POP PUSH2 0xD29 JUMP JUMPDEST PUSH1 0x0 SWAP3 POP JUMPDEST POP POP SWAP1 JUMP JUMPDEST PUSH1 0xD SLOAD PUSH1 0xE SLOAD PUSH1 0xF SLOAD PUSH2 0x100 DUP1 DUP3 DIV PUSH1 0x1 PUSH1 0xA0 PUSH1 0x2 EXP SUB AND PUSH1 0x0 DUP2 DUP2 MSTORE PUSH1 0xB PUSH1 0x20 MSTORE PUSH1 0x40 SWAP1 KECCAK256 SLOAD PUSH1 0x10 SLOAD PUSH1 0x11 SLOAD PUSH1 0x12 SLOAD PUSH1 0x13 SLOAD SWAP9 SWAP10 SWAP8 SWAP9 PUSH1 0xFF DUP1 DUP10 AND SWAP10 SWAP7 SWAP9 SWAP6 SWAP8 PUSH22 0x1000000000000000000000000000000000000000000 SWAP1 SWAP7 DIV DUP2 AND SWAP7 SWAP5 SWAP6 DUP2 DUP6 AND SWAP6 SWAP5 DIV AND SWAP3 JUMP JUMPDEST PUSH1 0x11 SLOAD PUSH2 0x100 SWAP1 DIV PUSH1 0xFF AND ISZERO PUSH2 0xDAD JUMPI PUSH1 0x0 DUP1 REVERT JUMPDEST PUSH1 0xF SLOAD PUSH2 0x100 SWAP1 DIV PUSH1 0x1 PUSH1 0xA0 PUSH1 0x2 EXP SUB AND ISZERO PUSH2 0xDC8 JUMPI PUSH1 0x0 DUP1 REVERT JUMPDEST PUSH1 0x3 SLOAD CALLER PUSH1 0x1 PUSH1 0xA0 PUSH1 0x2 EXP SUB SWAP1 DUP2 AND SWAP2 AND EQ DUP1 ISZERO SWAP1 PUSH2 0xDF6 JUMPI POP PUSH1 0x0 SLOAD CALLER PUSH1 0x1 PUSH1 0xA0 PUSH1 0x2 EXP SUB SWAP1 DUP2 AND SWAP2 AND EQ ISZERO JUMPDEST ISZERO PUSH2 0xE19 JUMPI PUSH1 0x9 SLOAD TIMESTAMP LT DUP1 ISZERO SWAP1 PUSH2 0xE0E JUMPI POP PUSH1 0xA SLOAD TIMESTAMP LT JUMPDEST ISZERO ISZERO PUSH2 0xE19 JUMPI PUSH1 0x0 DUP1 REVERT JUMPDEST PUSH1 0x11 DUP1 SLOAD PUSH2 0xFF00 NOT AND PUSH2 0x100 OR SWAP1 SSTORE PUSH32 0x4A19036F5B4D75256C1C24150A8254BD3C2BDB1EAEEEC4523E927F0AB1CDD054 PUSH1 0x40 MLOAD PUSH1 0x40 MLOAD DUP1 SWAP2 SUB SWAP1 LOG1 JUMP JUMPDEST PUSH1 0x0 DUP2 CALLER PUSH1 0x40 MLOAD SWAP2 DUP3 MSTORE PUSH1 0x1 PUSH1 0xA0 PUSH1 0x2 EXP SUB AND PUSH13 0x1000000000000000000000000 MUL PUSH1 0x20 DUP3 ADD MSTORE PUSH1 0x34 ADD PUSH1 0x40 MLOAD SWAP1 DUP2 SWAP1 SUB SWAP1 KECCAK256 DUP4 EQ SWAP1 POP SWAP3 SWAP2 POP POP JUMP JUMPDEST PUSH1 0x0 DUP1 PUSH1 0x0 DUP1 PUSH1 0x0 PUSH2 0xEA3 PUSH2 0xFC1 JUMP JUMPDEST PUSH2 0xEAB PUSH2 0xFC1 JUMP JUMPDEST PUSH1 0xC SLOAD PUSH1 0x0 SWAP5 POP PUSH1 0x0 NOT ADD SWAP3 POP JUMPDEST DUP3 DUP5 EQ ISZERO PUSH2 0xEF0 JUMPI PUSH1 0xC DUP1 SLOAD DUP6 SWAP1 DUP2 LT PUSH2 0xECF JUMPI INVALID JUMPDEST PUSH1 0x0 SWAP2 DUP3 MSTORE PUSH1 0x20 SWAP1 SWAP2 KECCAK256 PUSH1 0x2 SWAP1 SWAP2 MUL ADD SLOAD PUSH1 0x1 PUSH1 0xA0 PUSH1 0x2 EXP SUB AND SWAP7 POP PUSH2 0xFB6 JUMP JUMPDEST PUSH1 0xC DUP1 SLOAD PUSH1 0x2 DUP7 DUP7 SUB DIV DUP7 ADD SWAP8 POP PUSH1 0x1 DUP9 ADD SWAP7 POP DUP8 SWAP1 DUP2 LT PUSH2 0xF0E JUMPI INVALID JUMPDEST SWAP1 PUSH1 0x0 MSTORE PUSH1 0x20 PUSH1 0x0 KECCAK256 SWAP1 PUSH1 0x2 MUL ADD PUSH1 0x40 DUP1 MLOAD SWAP1 DUP2 ADD PUSH1 0x40 MSTORE DUP2 SLOAD PUSH1 0x1 PUSH1 0xA0 PUSH1 0x2 EXP SUB AND DUP2 MSTORE PUSH1 0x1 SWAP1 SWAP2 ADD SLOAD PUSH1 0x20 DUP3 ADD MSTORE PUSH1 0xC DUP1 SLOAD SWAP2 SWAP4 POP SWAP1 DUP7 SWAP1 DUP2 LT PUSH2 0xF50 JUMPI INVALID JUMPDEST SWAP1 PUSH1 0x0 MSTORE PUSH1 0x20 PUSH1 0x0 KECCAK256 SWAP1 PUSH1 0x2 MUL ADD PUSH1 0x40 DUP1 MLOAD SWAP1 DUP2 ADD PUSH1 0x40 MSTORE DUP2 SLOAD PUSH1 0x1 PUSH1 0xA0 PUSH1 0x2 EXP SUB AND DUP2 MSTORE PUSH1 0x1 SWAP1 SWAP2 ADD SLOAD PUSH1 0x20 DUP1 DUP4 ADD SWAP2 SWAP1 SWAP2 MSTORE SWAP1 SWAP2 POP DUP3 ADD MLOAD DUP9 LT PUSH2 0xFAD JUMPI DUP1 PUSH1 0x20 ADD MLOAD DUP9 LT ISZERO PUSH2 0xFA5 JUMPI DUP2 MLOAD SWAP7 POP PUSH2 0xFB6 JUMP JUMPDEST DUP5 SWAP4 POP PUSH2 0xFB1 JUMP JUMPDEST DUP6 SWAP3 POP JUMPDEST PUSH2 0xEB9 JUMP JUMPDEST POP POP POP POP POP POP SWAP2 SWAP1 POP JUMP JUMPDEST PUSH1 0x40 DUP1 MLOAD SWAP1 DUP2 ADD PUSH1 0x40 MSTORE PUSH1 0x0 DUP1 DUP3 MSTORE PUSH1 0x20 DUP3 ADD MSTORE SWAP1 JUMP JUMPDEST DUP2 SLOAD DUP2 DUP4 SSTORE DUP2 DUP2 ISZERO GT PUSH2 0x1004 JUMPI PUSH1 0x2 MUL DUP2 PUSH1 0x2 MUL DUP4 PUSH1 0x0 MSTORE PUSH1 0x20 PUSH1 0x0 KECCAK256 SWAP2 DUP3 ADD SWAP2 ADD PUSH2 0x1004 SWAP2 SWAP1 PUSH2 0x1009 JUMP JUMPDEST POP POP POP JUMP JUMPDEST PUSH2 0x1045 SWAP2 SWAP1 JUMPDEST DUP1 DUP3 GT ISZERO PUSH2 0x1041 JUMPI DUP1 SLOAD PUSH20 0xFFFFFFFFFFFFFFFFFFFFFFFFFFFFFFFFFFFFFFFF NOT AND DUP2 SSTORE PUSH1 0x0 PUSH1 0x1 DUP3 ADD SSTORE PUSH1 0x2 ADD PUSH2 0x100F JUMP JUMPDEST POP SWAP1 JUMP JUMPDEST SWAP1 JUMP STOP LOG1 PUSH6 0x627A7A723058 KECCAK256 0xb5 INVALID SWAP4 0x24 0xb9 0xe2 SWAP8 0xb9 0xba CALLDATASIZE PUSH8 0x470BCAE1B5EE0B63 PUSH19 0xE81CEA2736270FC89B5B268D00290000000000 "
        }
    },
    "methods": {
        "participants": [
            "_0"
        ],
        "participate": [
            "_message"
        ],
        "deployment": [],
        "withdraw": [],
        "end": [
            "_message"
        ],
        "reveal": [
            "_message"
        ],
        "begin": [
            "_secret"
        ],
        "destroy": [],
        "balance": [],
        "state": [],
        "cancel": [],
        "fallback": []
    }
}