{
  "contractName": "Charity",
  "abi": [
    {
      "constant": true,
      "inputs": [],
      "name": "charitySplit",
      "outputs": [
        {
          "name": "",
          "type": "uint256"
        }
      ],
      "payable": false,
      "stateMutability": "view",
      "type": "function"
    },
    {
      "constant": false,
      "inputs": [
        {
          "name": "_hashedRandom",
          "type": "bytes32"
        }
      ],
      "name": "participate",
      "outputs": [],
      "payable": false,
      "stateMutability": "nonpayable",
      "type": "function"
    },
    {
      "constant": false,
      "inputs": [
        {
          "name": "_finalRandom",
          "type": "uint256"
        }
      ],
      "name": "end",
      "outputs": [],
      "payable": false,
      "stateMutability": "nonpayable",
      "type": "function"
    },
    {
      "constant": true,
      "inputs": [],
      "name": "ownerSplit",
      "outputs": [
        {
          "name": "",
          "type": "uint256"
        }
      ],
      "payable": false,
      "stateMutability": "view",
      "type": "function"
    },
    {
      "constant": false,
      "inputs": [
        {
          "name": "_address",
          "type": "address"
        }
      ],
      "name": "participant",
      "outputs": [
        {
          "name": "_entries",
          "type": "uint256"
        },
        {
          "name": "_hashedRandom",
          "type": "bytes32"
        },
        {
          "name": "_random",
          "type": "uint256"
        }
      ],
      "payable": false,
      "stateMutability": "nonpayable",
      "type": "function"
    },
    {
      "constant": true,
      "inputs": [],
      "name": "endTime",
      "outputs": [
        {
          "name": "",
          "type": "uint256"
        }
      ],
      "payable": false,
      "stateMutability": "view",
      "type": "function"
    },
    {
      "constant": true,
      "inputs": [
        {
          "name": "",
          "type": "uint256"
        }
      ],
      "name": "participants",
      "outputs": [
        {
          "name": "",
          "type": "address"
        }
      ],
      "payable": false,
      "stateMutability": "view",
      "type": "function"
    },
    {
      "constant": false,
      "inputs": [],
      "name": "withdraw",
      "outputs": [],
      "payable": false,
      "stateMutability": "nonpayable",
      "type": "function"
    },
    {
      "constant": true,
      "inputs": [],
      "name": "constructTime",
      "outputs": [
        {
          "name": "",
          "type": "uint256"
        }
      ],
      "payable": false,
      "stateMutability": "view",
      "type": "function"
    },
    {
      "constant": true,
      "inputs": [],
      "name": "charityHashedRandom",
      "outputs": [
        {
          "name": "",
          "type": "bytes32"
        }
      ],
      "payable": false,
      "stateMutability": "view",
      "type": "function"
    },
    {
      "constant": false,
      "inputs": [
        {
          "name": "_hashedRandom",
          "type": "bytes32"
        }
      ],
      "name": "seed",
      "outputs": [],
      "payable": false,
      "stateMutability": "nonpayable",
      "type": "function"
    },
    {
      "constant": false,
      "inputs": [],
      "name": "totalRevealers",
      "outputs": [
        {
          "name": "",
          "type": "uint256"
        }
      ],
      "payable": false,
      "stateMutability": "nonpayable",
      "type": "function"
    },
    {
      "constant": true,
      "inputs": [],
      "name": "startTime",
      "outputs": [
        {
          "name": "",
          "type": "uint256"
        }
      ],
      "payable": false,
      "stateMutability": "view",
      "type": "function"
    },
    {
      "constant": true,
      "inputs": [
        {
          "name": "",
          "type": "uint256"
        }
      ],
      "name": "revealers",
      "outputs": [
        {
          "name": "",
          "type": "address"
        }
      ],
      "payable": false,
      "stateMutability": "view",
      "type": "function"
    },
    {
      "constant": true,
      "inputs": [],
      "name": "totalEntries",
      "outputs": [
        {
          "name": "",
          "type": "uint256"
        }
      ],
      "payable": false,
      "stateMutability": "view",
      "type": "function"
    },
    {
      "constant": true,
      "inputs": [],
      "name": "owner",
      "outputs": [
        {
          "name": "",
          "type": "address"
        }
      ],
      "payable": false,
      "stateMutability": "view",
      "type": "function"
    },
    {
      "constant": true,
      "inputs": [],
      "name": "charity",
      "outputs": [
        {
          "name": "",
          "type": "address"
        }
      ],
      "payable": false,
      "stateMutability": "view",
      "type": "function"
    },
    {
      "constant": true,
      "inputs": [],
      "name": "cancelled",
      "outputs": [
        {
          "name": "",
          "type": "bool"
        }
      ],
      "payable": false,
      "stateMutability": "view",
      "type": "function"
    },
    {
      "constant": false,
      "inputs": [],
      "name": "totalParticipants",
      "outputs": [
        {
          "name": "",
          "type": "uint256"
        }
      ],
      "payable": false,
      "stateMutability": "nonpayable",
      "type": "function"
    },
    {
      "constant": true,
      "inputs": [],
      "name": "valuePerEntry",
      "outputs": [
        {
          "name": "",
          "type": "uint256"
        }
      ],
      "payable": false,
      "stateMutability": "view",
      "type": "function"
    },
    {
      "constant": true,
      "inputs": [],
      "name": "revealTime",
      "outputs": [
        {
          "name": "",
          "type": "uint256"
        }
      ],
      "payable": false,
      "stateMutability": "view",
      "type": "function"
    },
    {
      "constant": false,
      "inputs": [
        {
          "name": "_random",
          "type": "uint256"
        }
      ],
      "name": "reveal",
      "outputs": [],
      "payable": false,
      "stateMutability": "nonpayable",
      "type": "function"
    },
    {
      "constant": false,
      "inputs": [
        {
          "name": "_charity",
          "type": "address"
        },
        {
          "name": "_charitySplit",
          "type": "uint256"
        },
        {
          "name": "_winnerSplit",
          "type": "uint256"
        },
        {
          "name": "_ownerSplit",
          "type": "uint256"
        },
        {
          "name": "_valuePerEntry",
          "type": "uint256"
        },
        {
          "name": "_startTime",
          "type": "uint256"
        },
        {
          "name": "_revealTime",
          "type": "uint256"
        },
        {
          "name": "_endTime",
          "type": "uint256"
        }
      ],
      "name": "construct",
      "outputs": [],
      "payable": false,
      "stateMutability": "nonpayable",
      "type": "function"
    },
    {
      "constant": true,
      "inputs": [],
      "name": "winnerSplit",
      "outputs": [
        {
          "name": "",
          "type": "uint256"
        }
      ],
      "payable": false,
      "stateMutability": "view",
      "type": "function"
    },
    {
      "constant": true,
      "inputs": [],
      "name": "winner",
      "outputs": [
        {
          "name": "",
          "type": "address"
        }
      ],
      "payable": false,
      "stateMutability": "view",
      "type": "function"
    },
    {
      "constant": false,
      "inputs": [
        {
          "name": "_address",
          "type": "address"
        }
      ],
      "name": "balance",
      "outputs": [
        {
          "name": "",
          "type": "uint256"
        }
      ],
      "payable": false,
      "stateMutability": "nonpayable",
      "type": "function"
    },
    {
      "constant": false,
      "inputs": [],
      "name": "cancel",
      "outputs": [],
      "payable": false,
      "stateMutability": "nonpayable",
      "type": "function"
    },
    {
      "constant": false,
      "inputs": [
        {
          "name": "newOwner",
          "type": "address"
        }
      ],
      "name": "transferOwnership",
      "outputs": [],
      "payable": false,
      "stateMutability": "nonpayable",
      "type": "function"
    },
    {
      "constant": true,
      "inputs": [],
      "name": "totalRevealed",
      "outputs": [
        {
          "name": "",
          "type": "uint256"
        }
      ],
      "payable": false,
      "stateMutability": "view",
      "type": "function"
    },
    {
      "inputs": [],
      "payable": false,
      "stateMutability": "nonpayable",
      "type": "constructor"
    },
    {
      "payable": true,
      "stateMutability": "payable",
      "type": "fallback"
    },
    {
      "anonymous": false,
      "inputs": [
        {
          "indexed": true,
          "name": "participant",
          "type": "address"
        },
        {
          "indexed": false,
          "name": "hashedRandom",
          "type": "bytes32"
        }
      ],
      "name": "Participation",
      "type": "event"
    },
    {
      "anonymous": false,
      "inputs": [
        {
          "indexed": true,
          "name": "revealer",
          "type": "address"
        },
        {
          "indexed": false,
          "name": "newRevealedEntries",
          "type": "uint256"
        },
        {
          "indexed": false,
          "name": "totalRevealed",
          "type": "uint256"
        },
        {
          "indexed": false,
          "name": "totalRevealers",
          "type": "uint256"
        }
      ],
      "name": "Revelation",
      "type": "event"
    },
    {
      "anonymous": false,
      "inputs": [
        {
          "indexed": true,
          "name": "winner",
          "type": "address"
        },
        {
          "indexed": false,
          "name": "charityRefund",
          "type": "uint256"
        },
        {
          "indexed": false,
          "name": "winnerRefund",
          "type": "uint256"
        },
        {
          "indexed": false,
          "name": "ownerRefund",
          "type": "uint256"
        }
      ],
      "name": "Win",
      "type": "event"
    },
    {
      "anonymous": false,
      "inputs": [
        {
          "indexed": true,
          "name": "participant",
          "type": "address"
        },
        {
          "indexed": false,
          "name": "refund",
          "type": "uint256"
        }
      ],
      "name": "Cancellation",
      "type": "event"
    },
    {
      "anonymous": false,
      "inputs": [
        {
          "indexed": true,
          "name": "wallet",
          "type": "address"
        },
        {
          "indexed": false,
          "name": "balance",
          "type": "uint256"
        }
      ],
      "name": "Withdrawal",
      "type": "event"
    },
    {
      "anonymous": false,
      "inputs": [
        {
          "indexed": false,
          "name": "param",
          "type": "string"
        },
        {
          "indexed": false,
          "name": "value",
          "type": "uint256"
        }
      ],
      "name": "DebugInt",
      "type": "event"
    },
    {
      "anonymous": false,
      "inputs": [
        {
          "indexed": false,
          "name": "param",
          "type": "string"
        },
        {
          "indexed": false,
          "name": "value",
          "type": "string"
        }
      ],
      "name": "DebugString",
      "type": "event"
    },
    {
      "anonymous": false,
      "inputs": [
        {
          "indexed": false,
          "name": "param",
          "type": "string"
        },
        {
          "indexed": false,
          "name": "value",
          "type": "address"
        }
      ],
      "name": "DebugAddress",
      "type": "event"
    },
    {
      "anonymous": false,
      "inputs": [
        {
          "indexed": true,
          "name": "previousOwner",
          "type": "address"
        },
        {
          "indexed": true,
          "name": "newOwner",
          "type": "address"
        }
      ],
      "name": "OwnershipTransferred",
      "type": "event"
    }
  ],
  "bytecode": "0x6060604052341561000f57600080fd5b60008054600160a060020a033316600160a060020a0319909116179055600b805460ff1916600117905561144e806100486000396000f300606060405236156101725763ffffffff7c010000000000000000000000000000000000000000000000000000000060003504166308d5d44881146102925780630a14504c146102b75780630ad24528146102cf5780631e6d5a4b146102e55780632605b3c7146102f85780633197cbb61461033b57806335c1d3491461034e5780633ccfd60b1461038057806340c1eeae146103935780635a9950ae146103a657806365bf5035146103b95780637238c1c9146103cf57806378e97925146103e25780637988dfa0146103f55780637fef036e1461040b5780638da5cb5b1461041e578063934aa023146104315780639a82a09a14610444578063a26dbf261461046b578063aa73b5ac1461047e578063ba829d7114610491578063c2ca0ac5146104a4578063c6a30677146104ba578063cff9ea08146104ee578063dfbf53ae14610501578063e3d670d714610514578063ea8a1af014610533578063f2fde38b14610546578063f373856914610565575b600c546000908190819081908190151561018b57600080fd5b600254600160a060020a0316156101a157600080fd5b600b5460ff16156101b157600080fd5b60005433600160a060020a03908116911614156101cd57600080fd5b6008544210156101dc57600080fd5b60095442106101ea57600080fd5b600034116101f757600080fd5b33600160a060020a038116600090815260116020526040902060018101549196509450151561022557600080fd5b3492506006548381151561023557fe5b0491506000821161024557600080fd5b835482018455600d8054830190556006548381151561026057fe5b069050600081111561028b57600160a060020a03851660009081526012602052604090208054820190555b5050505050005b341561029d57600080fd5b6102a5610578565b60405190815260200160405180910390f35b34156102c257600080fd5b6102cd60043561057e565b005b34156102da57600080fd5b6102cd6004356106bb565b34156102f057600080fd5b6102a56109db565b341561030357600080fd5b610317600160a060020a03600435166109e1565b60405192835260208301919091526040808301919091526060909101905180910390f35b341561034657600080fd5b6102a5610a09565b341561035957600080fd5b610364600435610a0f565b604051600160a060020a03909116815260200160405180910390f35b341561038b57600080fd5b6102cd610a37565b341561039e57600080fd5b6102a5610acc565b34156103b157600080fd5b6102a5610ad2565b34156103c457600080fd5b6102cd600435610ad8565b34156103da57600080fd5b6102a5610b54565b34156103ed57600080fd5b6102a5610b5b565b341561040057600080fd5b610364600435610b61565b341561041657600080fd5b6102a5610b6f565b341561042957600080fd5b610364610b75565b341561043c57600080fd5b610364610b84565b341561044f57600080fd5b610457610b93565b604051901515815260200160405180910390f35b341561047657600080fd5b6102a5610b9c565b341561048957600080fd5b6102a5610ba2565b341561049c57600080fd5b6102a5610ba8565b34156104af57600080fd5b6102cd600435610bae565b34156104c557600080fd5b6102cd600160a060020a036004351660243560443560643560843560a43560c43560e435610dab565b34156104f957600080fd5b6102a5610eaa565b341561050c57600080fd5b610364610eb0565b341561051f57600080fd5b6102a5600160a060020a0360043516610ebf565b341561053e57600080fd5b6102cd610eda565b341561055157600080fd5b6102cd600160a060020a036004351661103b565b341561057057600080fd5b6102a56110c9565b60035481565b600c546000908190151561059157600080fd5b600254600160a060020a0316156105a757600080fd5b600b5460ff16156105b757600080fd5b60005433600160a060020a03908116911614156105d357600080fd5b6008544210156105e257600080fd5b60095442106105f057600080fd5b8215156105fc57600080fd5b505033600160a060020a038116600090815260116020526040902080541561062357600080fd5b60018101541561063257600080fd5b60028101541561064157600080fd5b6001808201849055600f80549091810161065b8382611394565b5060009182526020909120018054600160a060020a031916600160a060020a0384169081179091557fc197ebf15e8fe977ad5029df6077570283fa75a10103efc82970e4962d21eb308460405190815260200160405180910390a2505050565b6106c36113b8565b600c54600090819081908190819015156106dc57600080fd5b600254600160a060020a0316156106f257600080fd5b600b5460ff161561070257600080fd5b60015433600160a060020a0390811691161461071d57600080fd5b600a5442101561072c57600080fd5b8633604051918252600160a060020a03166c01000000000000000000000000026020820152603401604051908190039020600c541461076a57600080fd5b60105460405180591061077a5750595b9080825280602002602001820160405250955061079787876110cf565b9450600e54858115156107a657fe5b0693506107be600060016010805490500386896111c2565b60028054600160a060020a031916600160a060020a03929092169190911790557ffe21d906fe8f9cb518acfb8fea459e46c0a002420b1bc546b1d53a2424020c3e8560405160208101919091526040808252600e818301527f5f77696e6e696e6752616e646f6d00000000000000000000000000000000000060608301526080909101905180910390a17ffe21d906fe8f9cb518acfb8fea459e46c0a002420b1bc546b1d53a2424020c3e8460405160208101919091526040808252600c818301527f5f77696e6e6572496e646578000000000000000000000000000000000000000060608301526080909101905180910390a16002547fb3f7d6c63a62ab0e6ae5263ef1deb9c5a64f4689288c380db949c116314a554090600160a060020a0316604051600160a060020a03909116602082015260408082526006818301527f77696e6e6572000000000000000000000000000000000000000000000000000060608301526080909101905180910390a16109386112a0565b600154600160a060020a03908116600090815260126020526040808220805487019055600280548416835281832080548701905582548416835291819020805485019055905492975093955091935016907fbb60707fdc8534f54545ae4fc12fde1cc2549a9a39f8f382e1411f7492aa792f908490849087905180848152602001838152602001828152602001935050505060405180910390a250505050505050565b60055481565b600160a060020a03166000908152601160205260409020805460018201546002909201549092565b600a5481565b600f805482908110610a1d57fe5b600091825260209091200154600160a060020a0316905081565b33600160a060020a03811660009081526012602052604081205490811115610ac857600160a060020a03821681156108fc0282604051600060405180830381858888f193505050501515610a8a57600080fd5b81600160a060020a03167f7fcf532c15f0a6db0bd6d0e038bea71d30d808c7d98cb3bf7268a95bf5081b658260405190815260200160405180910390a25b5050565b60075481565b600c5481565b60015433600160a060020a03908116911614610af357600080fd5b600754421015610b0257600080fd5b6008544210610b1057600080fd5b600254600160a060020a031615610b2657600080fd5b600b5460ff1615610b3657600080fd5b600c5415610b4357600080fd5b801515610b4f57600080fd5b600c55565b6010545b90565b60085481565b6010805482908110610a1d57fe5b600d5481565b600054600160a060020a031681565b600154600160a060020a031681565b600b5460ff1681565b600f5490565b60065481565b60095481565b600c5460009081901515610bc157600080fd5b600254600160a060020a031615610bd757600080fd5b600b5460ff1615610be757600080fd5b60005433600160a060020a0390811691161415610c0357600080fd5b600954421015610c1257600080fd5b600a544210610c2057600080fd5b7f08000000000000000000000000000000000000000000000000000000000000007fff000000000000000000000000000000000000000000000000000000000000007f0100000000000000000000000000000000000000000000000000000000000000600086901a021611610c9457600080fd5b505033600160a060020a0381166000908152601160205260408120805490919011610cbe57600080fd5b8282604051918252600160a060020a03166c01000000000000000000000000026020820152603401604051908190039020600182015414610cfe57600080fd5b600281015415610d0d57600080fd5b600281018390556010805460018101610d268382611394565b5060009182526020909120018054600160a060020a031916600160a060020a0384169081179091558154600e80549091019081905582546010547f411d30835a335294bac6518eea416e8f07d0aedefda9fa1278e4ae21dec7f6fe929060405180848152602001838152602001828152602001935050505060405180910390a2505050565b60005433600160a060020a03908116911614610dc657600080fd5b600160a060020a0388161515610ddb57600080fd5b861515610de757600080fd5b851515610df357600080fd5b841515610dff57600080fd5b831515610e0b57600080fd5b42831015610e1857600080fd5b828211610e2457600080fd5b818111610e3057600080fd5b600254600160a060020a0316151580610e4b5750600b5460ff165b1515610e5657600080fd5b60018054600160a060020a031916600160a060020a038a1617905560038790556004869055600585905560068490554260075560088390556009829055600a819055610ea06112f7565b5050505050505050565b60045481565b600254600160a060020a031681565b600160a060020a031660009081526012602052604090205490565b600080610ee56113ca565b60005433600160a060020a0390811691161480610f10575060015433600160a060020a039081169116145b1515610f1b57600080fd5b600854421015610f2a57600080fd5b600254600160a060020a031615610f4057600080fd5b600b5460ff1615610f5057600080fd5b600b805460ff19166001179055600092505b600f5483101561103657600f805484908110610f7a57fe5b6000918252602080832090910154600160a060020a03168083526011909152604091829020909350906060905190810160409081528254825260018301546020830152600290920154918101919091526006549091508151600160a060020a0384166000818152601260205260409081902080549390940290920192839055917fa2eeb2d8f4efaac84aa44a078c068e08a7c3d70309d3e7bd52481d4a3153b715915190815260200160405180910390a2600190920191610f62565b505050565b60005433600160a060020a0390811691161461105657600080fd5b600160a060020a038116151561106b57600080fd5b600054600160a060020a0380831691167f8be0079c531659141344cd1fd0a4f28419497f9722a3daafe3b4186f6b6457e060405160405180910390a360008054600160a060020a031916600160a060020a0392909216919091179055565b600e5481565b60008060008060006110df6113ca565b6000945060009350600092505b6010548310156111b557601080548490811061110457fe5b6000918252602080832090910154600160a060020a03168083526011909152604091829020909350906060905190810160409081528254825260018301546020830152600290920154918101919091529050600081511161116457600080fd5b8060200151151561117457600080fd5b8060400151151561118457600080fd5b8051850194508487848151811061119757fe5b602090810290910101526040810151909318926001909201916110ec565b5050509093189392505050565b60008080808080808060028c8c03048c0196506010878154811015156111e457fe5b600091825260209091200154601054600160a060020a039091169650600188019550851061121457859750611291565b88878151811061122057fe5b90602001906020020151935088858151811061123857fe5b906020019060200201519250838a10159150828a1090508180156112595750805b1561126657859750611291565b811561127f57611278858c8c8c6111c2565b9750611291565b61128e8c600189038c8c6111c2565b97505b50505050505050949350505050565b600080600080600654600d548115156112b557fe5b049050606460035482028115156112c857fe5b049350606460045482028115156112db57fe5b049250606460055482028115156112ee57fe5b04915050909192565b60028054600160a060020a0319169055600b805460ff191690556000600d819055600e8190555b600f548110156113795760116000600f8381548110151561133b57fe5b6000918252602080832090910154600160a060020a03168352820192909252604001812081815560018181018390556002909101919091550161131e565b611385601060006113ea565b611391600f60006113ea565b50565b81548183558181151161103657600083815260209020611036918101908301611404565b60206040519081016040526000815290565b606060405190810160409081526000808352602083018190529082015290565b508054600082559060005260206000209081019061139191905b610b5891905b8082111561141e576000815560010161140a565b50905600a165627a7a7230582062e7403e642fc812367b519de68644e03d3c59f65ce6d44151cae3dc3f72312b0029",
  "source": "pragma solidity ^0.4.4;\n\nimport 'zeppelin-solidity/contracts/ownership/Ownable.sol';\nimport 'zeppelin-solidity/contracts/math/SafeMath.sol';\n\ncontract Charity is Ownable {\n    using SafeMath for uint256;\n\n    event Participation(\n        address indexed participant,\n        bytes32 hashedRandom\n    );\n\n    event Revelation(\n        address indexed revealer,\n        uint256 newRevealedEntries,\n        uint256 totalRevealed,\n        uint256 totalRevealers\n    );\n\n    event Win(\n        address indexed winner,\n        uint256 charityRefund,\n        uint256 winnerRefund,\n        uint256 ownerRefund\n    );\n\n    event Cancellation(\n        address indexed participant,\n        uint256 refund\n    );\n\n    event Withdrawal(\n        address indexed wallet,\n        uint256 balance\n    );\n\n    struct Participant {\n        uint256 entries;\n        bytes32 hashedRandom;\n        uint256 random;\n    }\n\n    modifier neverOwner() {\n        require(msg.sender != owner);\n        _;\n    }\n\n    modifier onlyCharity() {\n        require(msg.sender == charity);\n        _;\n    }\n\n    modifier onlyOwnerOrCharity() {\n        require((msg.sender == owner) || (msg.sender == charity));\n        _;\n    }\n\n    modifier openParticipation() {\n        require(charityHashedRandom != 0x0); // safety check\n        require(winner == address(0)); // safety check\n        require(!cancelled); // we can't participate in a cancelled charity\n        _;\n    }\n\n    address public charity;\n    address public winner;\n    uint256 public charitySplit;\n    uint256 public winnerSplit;\n    uint256 public ownerSplit;\n    uint256 public valuePerEntry;\n    uint256 public constructTime;\n    uint256 public startTime;\n    uint256 public revealTime;\n    uint256 public endTime;\n\n    bool public cancelled;\n    bytes32 public charityHashedRandom;\n    uint256 public totalEntries;\n    uint256 public totalRevealed;\n    address[] public participants;\n    address[] public revealers;\n    mapping(address => Participant) participantsMapping;\n    mapping(address => uint256) balancesMapping;\n\n    function Charity() public {\n        // initiall set this charity cancelled\n        cancelled = true;\n    }\n\n    function totalParticipants() public returns (uint256) {\n        return participants.length;\n    }\n\n    function totalRevealers() public returns (uint256) {\n        return revealers.length;\n    }\n\n    function participant(address _address) public returns (\n        uint256 _entries,\n        bytes32 _hashedRandom,\n        uint256 _random)\n    {\n        Participant storage _participant = participantsMapping[_address];\n        _entries = _participant.entries;\n        _hashedRandom = _participant.hashedRandom;\n        _random = _participant.random;\n    }\n\n    function balance(address _address) public returns (uint256) {\n        return balancesMapping[_address];\n    }\n\n    /**\n     * Constructs a new charity. Here we set the charity ethereum wallet address,\n     * the percentage cuts for the charity, winner, and owner, the wei of each\n     * entry, and the start, reveal, and end times. A new charity can only be\n     * started if a winner is chosen from the last charity or the last charity\n     * was cancelled.\n     */\n    function construct(\n        address _charity,\n        uint256 _charitySplit,\n        uint256 _winnerSplit,\n        uint256 _ownerSplit,\n        uint256 _valuePerEntry,\n        uint256 _startTime,\n        uint256 _revealTime,\n        uint256 _endTime) public onlyOwner\n    {\n        require(_charity != 0x0);\n        require(_charitySplit != 0);\n        require(_winnerSplit != 0);\n        require(_ownerSplit != 0);\n        require(_valuePerEntry != 0);\n        require(_startTime >= now);\n        require(_revealTime > _startTime);\n        require(_endTime > _revealTime);\n        // we can only start a new charity if a winner has been chosen or the last\n        // charity was cancelled\n        require(winner != address(0) || cancelled);\n\n        charity = _charity;\n        charitySplit = _charitySplit;\n        winnerSplit = _winnerSplit;\n        ownerSplit = _ownerSplit;\n        valuePerEntry = _valuePerEntry;\n        constructTime = now;\n        startTime = _startTime;\n        revealTime = _revealTime;\n        endTime = _endTime;\n\n        // clear out any pre-existing state\n        clear();\n\n    }\n\n    /**\n     * Clears blockchain storage elements to prepare for a new charity.\n     */\n    function clear() internal {\n\n        // set no winner\n        winner = address(0);\n        // set not cancelled\n        cancelled = false;\n        // clear out stats\n        totalEntries = 0;\n        totalRevealed = 0;\n\n        // delete all participants in mapping\n        for (uint256 participantsIndex = 0; participantsIndex < participants.length; participantsIndex++) {\n            delete participantsMapping[participants[participantsIndex]];\n        }\n\n        // delete revealer addresses\n        delete revealers;\n        // delete participant addresses\n        delete participants;\n\n    }\n\n    function seed(bytes32 _hashedRandom) public onlyCharity {\n        require(now >= constructTime); // ensure we are after construct\n        require(now < startTime); // but before the start\n        require(winner == address(0)); // safety check\n        require(!cancelled); // we can't participate in a cancelled charity\n        require(charityHashedRandom == 0x0); // safety check\n        require(_hashedRandom != 0x0); // hashed random cannot be zero\n\n        // set the charity's hashed random; this is the final revealed\n        // random number used to generate the winning random globally\n        charityHashedRandom = _hashedRandom;\n\n    }\n\n    /**\n     * Participate in the current charity by contributing randomness to the global\n     * selection of a winner. Send a hashed random number N using the following\n     * formula: sha3(N, address). This being the SHA3 hash of the random number\n     * prepended to the sender's address. Do not forget your random number\n     * contribution as this will be required during the random revealation phase\n     * to confirm your entries. After participation, send wei to the callback\n     * function to receive entries and thereby increase your chances of winning.\n     * Participation is only permitted between the start and reaveal times.\n     */\n    function participate(bytes32 _hashedRandom) public openParticipation neverOwner {\n        require(now >= startTime); // ensure we are after the start\n        require(now < revealTime); // but before the reveal\n        require(_hashedRandom != 0x0); // hashed random cannot be zero\n\n        address _sender = msg.sender;\n        // find existing participant\n        Participant storage _participant = participantsMapping[_sender];\n        require(_participant.entries == 0); // safety check\n        require(_participant.hashedRandom == 0x0); // make sure they have not participated\n        require(_participant.random == 0); // safety check\n        // save hashed random, add to tracked\n        _participant.hashedRandom = _hashedRandom;\n        participants.push(_sender);\n\n        // send out participation update\n        Participation(_sender, _hashedRandom);\n    \n    }\n\n    /**\n     * Fallback function that accepts wei for entries. This will always\n     * fail if participate() is not called once first with a hashed random.\n     */\n    function () public openParticipation neverOwner payable {\n        require(now >= startTime); // ensure we are after the start\n        require(now < revealTime); // but before the reveal\n        require(msg.value > 0); // some money needs to be sent\n\n        address _sender = msg.sender;\n        // find existing participant\n        Participant storage _participant = participantsMapping[_sender];\n        require(_participant.hashedRandom != 0x0); // make sure they participated\n\n        uint256 _value = msg.value;\n        // calculate the number of entries from the wei sent\n        uint256 _newEntries = _value / valuePerEntry;\n        require(_newEntries > 0); // ensure at least one\n\n        // add new entries to participant and total\n        _participant.entries += _newEntries;\n        totalEntries += _newEntries;\n\n        uint256 _refund = _value % valuePerEntry;\n        // refund any excess wei\n        if (_refund > 0) {\n            balancesMapping[_sender] += _refund;\n        }\n\n    }\n\n    /**\n     * Reveal your hashed random to the world. This contract will verify that\n     * the random number submitted during the participation phase matches\n     * this number, confirming all of your entries at once. This procedure\n     * can only be completed once. After the revelation period ends, all\n     * of these revealed random numbers will be used to deterministically\n     * generate a global random number, which will determine the winner.\n     */\n    function reveal(uint256 _random) public openParticipation neverOwner {\n        require(now >= revealTime); // ensure we are after the reveal\n        require(now < endTime); // but before the end\n        require(bytes32(_random)[0] > 0x8); // random avoids bit-flipping and padding\n\n        // find the original participant\n        address _sender = msg.sender;\n        Participant storage _participant = participantsMapping[_sender];\n        require(_participant.entries > 0); // make sure they entered\n        require(_participant.hashedRandom == keccak256(_random, _sender)); // verify random against hashed random\n        require(_participant.random == 0); // make sure no random set already\n\n        // set random, track revealer, update stats\n        _participant.random = _random;\n        revealers.push(_sender);\n        totalRevealed += _participant.entries;\n        // send out revelation update\n        Revelation(_sender, _participant.entries, totalRevealed, revealers.length);\n\n    }\n\n    event DebugInt(string param, uint256 value);\n    event DebugString(string param, string value);\n    event DebugAddress(string param, address value);\n\n    /**\n     * End this charity, choose a winner and disseminate wei according to\n     * the split percentages. All of the revealed random numbers will be\n     * used to deterministically generate a global random number. A binary\n     * search is performed with this random number to find the actual\n     * winner with the weight of their entries used in random selection.\n     * Anyone can perform this operation to ensure that winnings can\n     * always be distributed without requiring the owner.\n     */\n    function end(uint256 _finalRandom) public openParticipation onlyCharity {\n        require(now >= endTime); // a charity can only be ended after the reveal period is over\n        require(charityHashedRandom == keccak256(_finalRandom, msg.sender)); // verify charity's hashed random\n\n        uint256[] memory _cumulatives = new uint256[](revealers.length);\n        // calculate social random & index from this random, set winner\n        uint256 _winningRandom = calculateWinningRandom(_finalRandom, _cumulatives);\n        uint256 _winnerIndex = _winningRandom % totalRevealed;\n        winner = findWinningRevealerAddress(0, revealers.length - 1, _winnerIndex, _cumulatives);\n\n        DebugInt(\"_winningRandom\", _winningRandom);\n        DebugInt(\"_winnerIndex\", _winnerIndex);\n        DebugAddress(\"winner\", winner);\n\n        uint256 _ownerReward;\n        uint256 _charityReward;\n        uint256 _winnerReward;\n        // get owner, winner, and charity refunds\n        (_charityReward, _winnerReward, _ownerReward) = calculateRewards();\n        // add rewards to existing balances\n        balancesMapping[charity] += _charityReward;\n        balancesMapping[winner] += _winnerReward;\n        balancesMapping[owner] += _ownerReward;\n\n        // send out win event\n        Win(winner, _charityReward, _winnerReward, _ownerReward);\n\n    }\n\n    /**\n     * Using all of the revealed random numbers, deterministically generate\n     * a global winning random by XORing them together. This procedure will\n     * also set up a discrete cumulative density function (CDF) using the\n     * number of entries for each participant as the random selection weight.\n     */\n    function calculateWinningRandom(\n        uint256 _finalRandom,\n        uint256[] _cumulatives) internal returns (uint256)\n    {\n\n        uint256 _cumulative = 0;\n        uint256 _winningRandom = 0;\n        // generate winning random from all revealed randoms\n        for (uint256 revealerIndex = 0; revealerIndex < revealers.length; revealerIndex++) {\n\n            address _revealerAddress = revealers[revealerIndex];\n            // get the participant for this revealer\n            Participant memory _participant = participantsMapping[_revealerAddress];\n            require(_participant.entries > 0); // safety check\n            require(_participant.hashedRandom != 0x0); // safety check\n            require(_participant.random != 0); // safety check\n\n            // keep track of the sum of revealed entries as we loop\n            _cumulative += _participant.entries;\n            _cumulatives[revealerIndex] = _cumulative;\n            // xor all randoms together\n            _winningRandom = _winningRandom ^ _participant.random;\n\n        }\n\n        // the charity's initial random has the ultimate randomization effect\n        return _winningRandom ^ _finalRandom;\n\n    }\n\n    /**\n     * Finds the winning revealer address amongst the participants who\n     * revealed their random number to us. The winner index is a random\n     * number that was chosen between 0 and the sum of the weights\n     * (total entries). A binary search is then performed amongst the\n     * revealers to find a revealer that falls in an interval of the\n     * following:\n     * revealer cumulative entries\n     * <= winner index\n     * < next revealer cumulative entries\n     */\n    function findWinningRevealerAddress(\n        uint256 _leftIndex,\n        uint256 _rightIndex,\n        uint256 _winnerIndex,\n        uint256[] _cumulatives) internal returns (address)\n    {\n\n        // calculate the mid index  for binary search, find the mid revealer, get next sequential index\n        uint256 _midIndex = _leftIndex + ((_rightIndex - _leftIndex) / 2);\n        address _midRevealerAddress = revealers[_midIndex];\n        uint256 _nextIndex = _midIndex + 1;\n\n        // we are at the end of the array, the winner is the last revealer\n        if (_nextIndex >= revealers.length) {\n            return _midRevealerAddress;\n        }\n\n        // find the mid and very next revealers\n        uint256 _midRevealerCumulative = _cumulatives[_midIndex];\n        uint256 _nextRevealerCumulative = _cumulatives[_nextIndex];\n\n        bool _winnerGTEMid = _winnerIndex >= _midRevealerCumulative;\n        bool _winnerLTNext = _winnerIndex < _nextRevealerCumulative;          \n        // we are in range and found the winner!                                                                                                                                                                                                                                                                                                                                                                                                                                                                                                                                                                                                                                                                                                                                                                                                                                                                                                                                                                                                                                                                                                                                                                                                                                                                                                                                                                                                                                                                                             \n        if (_winnerGTEMid && _winnerLTNext) {\n            return _midRevealerAddress;\n        }\n\n        // winner index is greater, move right\n        if (_winnerGTEMid) {\n            return findWinningRevealerAddress(_nextIndex, _rightIndex, _winnerIndex, _cumulatives);\n        }\n\n        // winner index is less, move left\n        return findWinningRevealerAddress(_leftIndex, _midIndex - 1, _winnerIndex, _cumulatives);\n\n    }\n\n    /**\n     * Calculate refund amounts to the charity, winner, and owner\n     * given the percentage splits specified at charity start.\n     */\n    function calculateRewards() internal returns (\n        uint256 _charityReward,\n        uint256 _winnerReward,\n        uint256 _ownerReward)\n    {\n        // calculate total wei received\n        uint256 _totalValue = totalEntries / valuePerEntry;\n        // divide it up amongst all entities (non-revealed winnings are forfeited)\n        _charityReward = _totalValue * charitySplit / 100;\n        _winnerReward = _totalValue * winnerSplit / 100;\n        _ownerReward = _totalValue * ownerSplit / 100;\n    }\n\n    /**\n     * Cancels a charity early, before a winner is chosen, and distribute\n     * all received wei back to the original participants. This procedure\n     * must exist in case of catostropic failure to return wei.\n     */\n    function cancel() public onlyOwnerOrCharity {\n        require(now >= startTime); // we can cancel at any time\n        require(winner == address(0)); // if someone won, we've already sent the money out\n        require(!cancelled); // we can't cancel more than once\n\n        // immediately set us to cancelled\n        cancelled = true;\n\n        // loop through all participants to refund them\n        for (uint256 participantsIndex = 0; participantsIndex < participants.length; participantsIndex++) {\n            address _participantAddress = participants[participantsIndex];\n            // get the participant & refund\n            Participant memory _participant = participantsMapping[_participantAddress];\n            balancesMapping[_participantAddress] += _participant.entries * valuePerEntry;\n            // send out cancellation event\n            Cancellation(_participantAddress, balancesMapping[_participantAddress]);\n        }\n\n    }\n\n    /**\n     * This is the only method for getting funds out of the contract. All\n     * winnings and refunds are transferred in this way.\n     */\n    function withdraw() public {\n\n        address _sender = msg.sender;\n        // determine where to find the refund amount\n        uint256 _balance = balancesMapping[_sender];\n        // execute the refund if we have one\n        if (_balance > 0) {\n            _sender.transfer(_balance);\n            // send withdrawal event\n            Withdrawal(_sender, _balance);\n        }\n\n    }\n\n}",
  "sourcePath": "/Users/agroleau/Repositories/charity-solidity/contracts/Charity.sol",
  "schemaVersion": "1.0.0",
  "updatedAt": "2017-10-12T14:36:25.284Z"
}