{
  "contractName": "Charity",
  "abi": [
    {
      "constant": false,
      "inputs": [
        {
          "name": "_hashedRandom",
          "type": "bytes32"
        }
      ],
      "name": "participate",
      "outputs": [],
      "payable": false,
      "stateMutability": "nonpayable",
      "type": "function"
    },
    {
      "constant": false,
      "inputs": [
        {
          "name": "_charityRandom",
          "type": "uint256"
        }
      ],
      "name": "end",
      "outputs": [],
      "payable": false,
      "stateMutability": "nonpayable",
      "type": "function"
    },
    {
      "constant": true,
      "inputs": [],
      "name": "currentKick",
      "outputs": [
        {
          "name": "_charity",
          "type": "address"
        },
        {
          "name": "_charitySplit",
          "type": "uint256"
        },
        {
          "name": "_winnerSplit",
          "type": "uint256"
        },
        {
          "name": "_ownerSplit",
          "type": "uint256"
        },
        {
          "name": "_valuePerEntry",
          "type": "uint256"
        },
        {
          "name": "_kickTime",
          "type": "uint256"
        },
        {
          "name": "_startTime",
          "type": "uint256"
        },
        {
          "name": "_revealTime",
          "type": "uint256"
        },
        {
          "name": "_endTime",
          "type": "uint256"
        }
      ],
      "payable": false,
      "stateMutability": "view",
      "type": "function"
    },
    {
      "constant": true,
      "inputs": [
        {
          "name": "_address",
          "type": "address"
        }
      ],
      "name": "participant",
      "outputs": [
        {
          "name": "_entries",
          "type": "uint256"
        },
        {
          "name": "_hashedRandom",
          "type": "bytes32"
        },
        {
          "name": "_random",
          "type": "uint256"
        }
      ],
      "payable": false,
      "stateMutability": "view",
      "type": "function"
    },
    {
      "constant": false,
      "inputs": [
        {
          "name": "_charity",
          "type": "address"
        },
        {
          "name": "_charitySplit",
          "type": "uint256"
        },
        {
          "name": "_winnerSplit",
          "type": "uint256"
        },
        {
          "name": "_ownerSplit",
          "type": "uint256"
        },
        {
          "name": "_valuePerEntry",
          "type": "uint256"
        },
        {
          "name": "_startTime",
          "type": "uint256"
        },
        {
          "name": "_revealTime",
          "type": "uint256"
        },
        {
          "name": "_endTime",
          "type": "uint256"
        }
      ],
      "name": "kickoff",
      "outputs": [],
      "payable": false,
      "stateMutability": "nonpayable",
      "type": "function"
    },
    {
      "constant": true,
      "inputs": [
        {
          "name": "",
          "type": "uint256"
        }
      ],
      "name": "participants",
      "outputs": [
        {
          "name": "",
          "type": "address"
        }
      ],
      "payable": false,
      "stateMutability": "view",
      "type": "function"
    },
    {
      "constant": false,
      "inputs": [],
      "name": "withdraw",
      "outputs": [],
      "payable": false,
      "stateMutability": "nonpayable",
      "type": "function"
    },
    {
      "constant": true,
      "inputs": [],
      "name": "charityHashedRandom",
      "outputs": [
        {
          "name": "",
          "type": "bytes32"
        }
      ],
      "payable": false,
      "stateMutability": "view",
      "type": "function"
    },
    {
      "constant": false,
      "inputs": [
        {
          "name": "_hashedRandom",
          "type": "bytes32"
        }
      ],
      "name": "seed",
      "outputs": [],
      "payable": false,
      "stateMutability": "nonpayable",
      "type": "function"
    },
    {
      "constant": true,
      "inputs": [],
      "name": "totalRevealers",
      "outputs": [
        {
          "name": "",
          "type": "uint256"
        }
      ],
      "payable": false,
      "stateMutability": "view",
      "type": "function"
    },
    {
      "constant": true,
      "inputs": [
        {
          "name": "",
          "type": "uint256"
        }
      ],
      "name": "revealers",
      "outputs": [
        {
          "name": "",
          "type": "address"
        }
      ],
      "payable": false,
      "stateMutability": "view",
      "type": "function"
    },
    {
      "constant": true,
      "inputs": [],
      "name": "totalEntries",
      "outputs": [
        {
          "name": "",
          "type": "uint256"
        }
      ],
      "payable": false,
      "stateMutability": "view",
      "type": "function"
    },
    {
      "constant": true,
      "inputs": [],
      "name": "owner",
      "outputs": [
        {
          "name": "",
          "type": "address"
        }
      ],
      "payable": false,
      "stateMutability": "view",
      "type": "function"
    },
    {
      "constant": true,
      "inputs": [],
      "name": "cancelled",
      "outputs": [
        {
          "name": "",
          "type": "bool"
        }
      ],
      "payable": false,
      "stateMutability": "view",
      "type": "function"
    },
    {
      "constant": true,
      "inputs": [],
      "name": "totalParticipants",
      "outputs": [
        {
          "name": "",
          "type": "uint256"
        }
      ],
      "payable": false,
      "stateMutability": "view",
      "type": "function"
    },
    {
      "constant": false,
      "inputs": [
        {
          "name": "_random",
          "type": "uint256"
        }
      ],
      "name": "reveal",
      "outputs": [],
      "payable": false,
      "stateMutability": "nonpayable",
      "type": "function"
    },
    {
      "constant": true,
      "inputs": [],
      "name": "winner",
      "outputs": [
        {
          "name": "",
          "type": "address"
        }
      ],
      "payable": false,
      "stateMutability": "view",
      "type": "function"
    },
    {
      "constant": true,
      "inputs": [
        {
          "name": "_address",
          "type": "address"
        }
      ],
      "name": "balance",
      "outputs": [
        {
          "name": "",
          "type": "uint256"
        }
      ],
      "payable": false,
      "stateMutability": "view",
      "type": "function"
    },
    {
      "constant": false,
      "inputs": [],
      "name": "cancel",
      "outputs": [],
      "payable": false,
      "stateMutability": "nonpayable",
      "type": "function"
    },
    {
      "constant": true,
      "inputs": [],
      "name": "totalRevealed",
      "outputs": [
        {
          "name": "",
          "type": "uint256"
        }
      ],
      "payable": false,
      "stateMutability": "view",
      "type": "function"
    },
    {
      "inputs": [],
      "payable": false,
      "stateMutability": "nonpayable",
      "type": "constructor"
    },
    {
      "payable": true,
      "stateMutability": "payable",
      "type": "fallback"
    },
    {
      "anonymous": false,
      "inputs": [
        {
          "indexed": true,
          "name": "participant",
          "type": "address"
        },
        {
          "indexed": false,
          "name": "hashedRandom",
          "type": "bytes32"
        }
      ],
      "name": "Participation",
      "type": "event"
    },
    {
      "anonymous": false,
      "inputs": [
        {
          "indexed": true,
          "name": "participant",
          "type": "address"
        },
        {
          "indexed": false,
          "name": "value",
          "type": "uint256"
        },
        {
          "indexed": false,
          "name": "refund",
          "type": "uint256"
        },
        {
          "indexed": false,
          "name": "newEntries",
          "type": "uint256"
        },
        {
          "indexed": false,
          "name": "totalEntries",
          "type": "uint256"
        }
      ],
      "name": "Fund",
      "type": "event"
    },
    {
      "anonymous": false,
      "inputs": [
        {
          "indexed": true,
          "name": "revealer",
          "type": "address"
        },
        {
          "indexed": false,
          "name": "newRevealedEntries",
          "type": "uint256"
        },
        {
          "indexed": false,
          "name": "totalRevealed",
          "type": "uint256"
        },
        {
          "indexed": false,
          "name": "totalRevealers",
          "type": "uint256"
        }
      ],
      "name": "Revelation",
      "type": "event"
    },
    {
      "anonymous": false,
      "inputs": [
        {
          "indexed": true,
          "name": "winner",
          "type": "address"
        },
        {
          "indexed": false,
          "name": "charityReward",
          "type": "uint256"
        },
        {
          "indexed": false,
          "name": "winnerReward",
          "type": "uint256"
        },
        {
          "indexed": false,
          "name": "ownerReward",
          "type": "uint256"
        }
      ],
      "name": "Win",
      "type": "event"
    },
    {
      "anonymous": false,
      "inputs": [
        {
          "indexed": true,
          "name": "participant",
          "type": "address"
        },
        {
          "indexed": false,
          "name": "refund",
          "type": "uint256"
        }
      ],
      "name": "Cancellation",
      "type": "event"
    },
    {
      "anonymous": false,
      "inputs": [
        {
          "indexed": true,
          "name": "wallet",
          "type": "address"
        },
        {
          "indexed": false,
          "name": "balance",
          "type": "uint256"
        }
      ],
      "name": "Withdrawal",
      "type": "event"
    }
  ],
  "bytecode": "0x6060604052341561000f57600080fd5b60008054600160a060020a033316600160a060020a0319909116179055600a805460a060020a60ff021916740100000000000000000000000000000000000000001790556112c1806100626000396000f3006060604052361561010f5763ffffffff7c01000000000000000000000000000000000000000000000000000000006000350416630a14504c81146102915780630ad24528146102a9578063172ccc14146102bf5780632605b3c7146103295780633521afaa1461036c57806335c1d349146103a05780633ccfd60b146103d25780635a9950ae146103e557806365bf50351461040a5780637238c1c9146104205780637988dfa0146104335780637fef036e146104495780638da5cb5b1461045c5780639a82a09a1461046f578063a26dbf2614610496578063c2ca0ac5146104a9578063dfbf53ae146104bf578063e3d670d7146104d2578063ea8a1af0146104f1578063f373856914610504575b600b546000908190819081908190151561012857600080fd5b600a54600160a060020a03161561013e57600080fd5b600a5460a060020a900460ff161561015557600080fd5b60005433600160a060020a039081169116141561017157600080fd5b60075442101561018057600080fd5b600854421061018e57600080fd5b6000341161019b57600080fd5b33600160a060020a03811660009081526010602052604090206001810154919650945015156101c957600080fd5b600554349350838115156101d957fe5b049150600082116101e957600080fd5b835482018455600c8054830190556005548381151561020457fe5b069050600081111561022f57600160a060020a03851660009081526011602052604090208054820190555b84600160a060020a03167faf4084103541a7ba68c05f39ef8199d7efeb4aee3c255acaff1f3bfc02e61b82848385600c546040518085815260200184815260200183815260200182815260200194505050505060405180910390a25050505050005b341561029c57600080fd5b6102a7600435610517565b005b34156102b457600080fd5b6102a7600435610668565b34156102ca57600080fd5b6102d261084a565b604051600160a060020a03909916895260208901979097526040808901969096526060880194909452608087019290925260a086015260c085015260e0840152610100830191909152610120909101905180910390f35b341561033457600080fd5b610348600160a060020a0360043516610882565b60405192835260208301919091526040808301919091526060909101905180910390f35b341561037757600080fd5b6102a7600160a060020a036004351660243560443560643560843560a43560c43560e4356108aa565b34156103ab57600080fd5b6103b6600435610a3a565b604051600160a060020a03909116815260200160405180910390f35b34156103dd57600080fd5b6102a7610a62565b34156103f057600080fd5b6103f8610af7565b60405190815260200160405180910390f35b341561041557600080fd5b6102a7600435610afd565b341561042b57600080fd5b6103f8610b80565b341561043e57600080fd5b6103b6600435610b87565b341561045457600080fd5b6103f8610b95565b341561046757600080fd5b6103b6610b9b565b341561047a57600080fd5b610482610baa565b604051901515815260200160405180910390f35b34156104a157600080fd5b6103f8610bba565b34156104b457600080fd5b6102a7600435610bc0565b34156104ca57600080fd5b6103b6610dd1565b34156104dd57600080fd5b6103f8600160a060020a0360043516610de0565b34156104fc57600080fd5b6102a7610dfb565b341561050f57600080fd5b6103f8610f67565b600b546000908190151561052a57600080fd5b600a54600160a060020a03161561054057600080fd5b600a5460a060020a900460ff161561055757600080fd5b60005433600160a060020a039081169116141561057357600080fd5b60075442101561058257600080fd5b600854421061059057600080fd5b82151561059c57600080fd5b505033600160a060020a03811660009081526010602052604090208054156105c357600080fd5b6001810154156105d257600080fd5b6002810154156105e157600080fd5b6001808201849055600e8054909181016105fb8382611207565b506000918252602090912001805473ffffffffffffffffffffffffffffffffffffffff1916600160a060020a0384169081179091557fc197ebf15e8fe977ad5029df6077570283fa75a10103efc82970e4962d21eb308460405190815260200160405180910390a2505050565b61067061122b565b600b546000908190819081908190151561068957600080fd5b600a54600160a060020a03161561069f57600080fd5b600a5460a060020a900460ff16156106b657600080fd5b60015433600160a060020a039081169116146106d157600080fd5b6009544210156106e057600080fd5b8633604051918252600160a060020a03166c01000000000000000000000000026020820152603401604051908190039020600b541461071e57600080fd5b600f5460405180591061072e5750595b9080825280602002602001820160405250955061074b8787610f6d565b9450600d548581151561075a57fe5b06935061077260006001600f80549050038689611057565b600a805473ffffffffffffffffffffffffffffffffffffffff1916600160a060020a03929092169190911790556107a7611134565b600154600160a060020a03908116600090815260116020526040808220805487019055600a80548416835281832080548701905582548416835291819020805485019055905492975093955091935016907fbb60707fdc8534f54545ae4fc12fde1cc2549a9a39f8f382e1411f7492aa792f908490849087905180848152602001838152602001828152602001935050505060405180910390a250505050505050565b600154600254600354600454600554600654600754600854600954600160a060020a0390981698969795969495939492939192909190565b600160a060020a03166000908152601060205260409020805460018201546002909201549092565b60005433600160a060020a039081169116146108c557600080fd5b600160a060020a03881615156108da57600080fd5b8615156108e657600080fd5b8515156108f257600080fd5b8415156108fe57600080fd5b83151561090a57600080fd5b4283101561091757600080fd5b82821161092357600080fd5b81811161092f57600080fd5b600a54600160a060020a03161515806109515750600a5460a060020a900460ff165b151561095c57600080fd5b6101206040519081016040528089600160a060020a031681526020018881526020018781526020018681526020018581526020014281526020018481526020018381526020018281525060016000820151815473ffffffffffffffffffffffffffffffffffffffff1916600160a060020a03919091161781556020820151816001015560408201518160020155606082015181600301556080820151816004015560a0820151816005015560c0820151816006015560e0820151816007015561010082015160089091015550610a30611161565b5050505050505050565b600e805482908110610a4857fe5b600091825260209091200154600160a060020a0316905081565b33600160a060020a03811660009081526011602052604081205490811115610af357600160a060020a03821681156108fc0282604051600060405180830381858888f193505050501515610ab557600080fd5b81600160a060020a03167f7fcf532c15f0a6db0bd6d0e038bea71d30d808c7d98cb3bf7268a95bf5081b658260405190815260200160405180910390a25b5050565b600b5481565b60015433600160a060020a03908116911614610b1857600080fd5b600654421015610b2757600080fd5b6007544210610b3557600080fd5b600a54600160a060020a031615610b4b57600080fd5b600a5460a060020a900460ff1615610b6257600080fd5b600b5415610b6f57600080fd5b801515610b7b57600080fd5b600b55565b600f545b90565b600f805482908110610a4857fe5b600c5481565b600054600160a060020a031681565b600a5460a060020a900460ff1681565b600e5490565b600b5460009081901515610bd357600080fd5b600a54600160a060020a031615610be957600080fd5b600a5460a060020a900460ff1615610c0057600080fd5b60005433600160a060020a0390811691161415610c1c57600080fd5b600854421015610c2b57600080fd5b6009544210610c3957600080fd5b7f08000000000000000000000000000000000000000000000000000000000000007fff000000000000000000000000000000000000000000000000000000000000007f0100000000000000000000000000000000000000000000000000000000000000600086901a021611610cad57600080fd5b505033600160a060020a0381166000908152601060205260408120805490919011610cd757600080fd5b8282604051918252600160a060020a03166c01000000000000000000000000026020820152603401604051908190039020600182015414610d1757600080fd5b600281015415610d2657600080fd5b60028101839055600f805460018101610d3f8382611207565b506000918252602090912001805473ffffffffffffffffffffffffffffffffffffffff1916600160a060020a0384169081179091558154600d8054909101908190558254600f547f411d30835a335294bac6518eea416e8f07d0aedefda9fa1278e4ae21dec7f6fe929060405180848152602001838152602001828152602001935050505060405180910390a2505050565b600a54600160a060020a031681565b600160a060020a031660009081526011602052604090205490565b6000610e0561123d565b6000805433600160a060020a0390811691161480610e31575060015433600160a060020a039081169116145b1515610e3c57600080fd5b600a54600160a060020a031615610e5257600080fd5b600a5460a060020a900460ff1615610e6957600080fd5b50600a805474ff0000000000000000000000000000000000000000191660a060020a17905560005b600e54811015610f6257600e805482908110610ea957fe5b6000918252602080832090910154600160a060020a03168083526010909152604091829020909450906060905190810160409081528254825260018301546020830152600290920154918101919091526005549092508251600160a060020a0385166000818152601160205260409081902080549390940290920192839055917fa2eeb2d8f4efaac84aa44a078c068e08a7c3d70309d3e7bd52481d4a3153b715915190815260200160405180910390a2600101610e91565b505050565b600d5481565b600080600080610f7b61123d565b60009350839250825b600f5481101561104a57600f805482908110610f9c57fe5b6000918252602080832090910154600160a060020a031680835260109091526040918290209094509060609051908101604090815282548252600183015460208301526002909201549181019190915291506000825111610ffc57600080fd5b8160200151151561100c57600080fd5b8160400151151561101c57600080fd5b8487828151811061102957fe5b60209081029091010152815185019450816040015190931892600101610f84565b5050509093189392505050565b6000806000806000806000805b8a8c141561109657600f80548d90811061107a57fe5b600091825260209091200154600160a060020a03169750611125565b600f805460028e8e03048e019850889081106110ae57fe5b600091825260209091200154600160a060020a031695506001870194508887815181106110d757fe5b9060200190602002015193508885815181106110ef57fe5b9060200190602002015192505050818810801590828a109061111d57801561111957859750611125565b849b505b869a50611064565b50505050505050949350505050565b600554600c5460025460035460045460649390940291820283900494908202839004939091029190910490565b6000600b819055600a805474ffffffffffffffffffffffffffffffffffffffffff19169055600c819055600d8190555b600e548110156111ec5760106000600e838154811015156111ae57fe5b6000918252602080832090910154600160a060020a031683528201929092526040018120818155600181810183905560029091019190915501611191565b6111f8600f600061125d565b611204600e600061125d565b50565b815481835581811511610f6257600083815260209020610f62918101908301611277565b60206040519081016040526000815290565b606060405190810160409081526000808352602083018190529082015290565b508054600082559060005260206000209081019061120491905b610b8491905b80821115611291576000815560010161127d565b50905600a165627a7a723058209a610fc4b635fd089de6e41d462980ee4dcc4213334616b44bb9e515bdbaa3b30029",
  "source": "pragma solidity ^0.4.4;\n\ncontract Charity {\n\n    event Participation(\n        address indexed participant,\n        bytes32 hashedRandom\n    );\n\n    event Fund(\n        address indexed participant,\n        uint256 value,\n        uint256 refund,\n        uint256 newEntries,\n        uint256 totalEntries\n    );\n\n    event Revelation(\n        address indexed revealer,\n        uint256 newRevealedEntries,\n        uint256 totalRevealed,\n        uint256 totalRevealers\n    );\n\n    event Win(\n        address indexed winner,\n        uint256 charityReward,\n        uint256 winnerReward,\n        uint256 ownerReward\n    );\n\n    event Cancellation(\n        address indexed participant,\n        uint256 refund\n    );\n\n    event Withdrawal(\n        address indexed wallet,\n        uint256 balance\n    );\n\n    struct Kick {\n        address charity;\n        uint256 charitySplit;\n        uint256 winnerSplit;\n        uint256 ownerSplit;\n        uint256 valuePerEntry;\n        uint256 kickTime;\n        uint256 startTime;\n        uint256 revealTime;\n        uint256 endTime;\n    }\n\n    struct Participant {\n        uint256 entries;\n        bytes32 hashedRandom;\n        uint256 random;\n    }\n\n    modifier onlyOwner() {\n        require(msg.sender == owner);\n        _;\n    }\n\n    modifier neverOwner() {\n        require(msg.sender != owner);\n        _;\n    }\n\n    modifier onlyCharity() {\n        require(msg.sender == kick.charity);\n        _;\n    }\n\n    modifier onlyOwnerOrCharity() {\n        require((msg.sender == owner) || (msg.sender == kick.charity));\n        _;\n    }\n\n    modifier openParticipation() {\n        require(charityHashedRandom != 0x0); // safety check\n        require(winner == address(0)); // safety check\n        require(!cancelled); // we can't participate in a cancelled charity\n        _;\n    }\n\n    address public owner;\n    Kick kick;\n    address public winner;\n    bool public cancelled;\n    bytes32 public charityHashedRandom;\n    uint256 public totalEntries;\n    uint256 public totalRevealed;\n    address[] public participants;\n    address[] public revealers;\n    mapping(address => Participant) participantsMapping;\n    mapping(address => uint256) balancesMapping;\n\n    function Charity() public {\n        // set owner\n        owner = msg.sender;\n        // initiall set this charity cancelled\n        cancelled = true;\n    }\n\n    function currentKick() public view returns (\n        address _charity,\n        uint256 _charitySplit,\n        uint256 _winnerSplit,\n        uint256 _ownerSplit,\n        uint256 _valuePerEntry,\n        uint256 _kickTime,\n        uint256 _startTime,\n        uint256 _revealTime,\n        uint256 _endTime\n    ) {\n        _charity = kick.charity;\n        _charitySplit = kick.charitySplit;\n        _winnerSplit = kick.winnerSplit;\n        _ownerSplit = kick.ownerSplit;\n        _valuePerEntry = kick.valuePerEntry;\n        _kickTime = kick.kickTime;\n        _startTime = kick.startTime;\n        _revealTime = kick.revealTime;\n        _endTime = kick.endTime;\n    }\n\n    function totalParticipants() public view returns (uint256) {\n        return participants.length;\n    }\n\n    function totalRevealers() public view returns (uint256) {\n        return revealers.length;\n    }\n\n    function participant(address _address) public view returns (\n        uint256 _entries,\n        bytes32 _hashedRandom,\n        uint256 _random)\n    {\n        Participant storage _participant = participantsMapping[_address];\n        _entries = _participant.entries;\n        _hashedRandom = _participant.hashedRandom;\n        _random = _participant.random;\n    }\n\n    function balance(address _address) public view returns (uint256) {\n        return balancesMapping[_address];\n    }\n\n    /**\n     * Constructs a new charity. Here we set the charity ethereum wallet address,\n     * the percentage cuts for the charity, winner, and owner, the wei of each\n     * entry, and the start, reveal, and end times. A new charity can only be\n     * started if a winner is chosen from the last charity or the last charity\n     * was cancelled.\n     */\n    function kickoff(\n        address _charity,\n        uint256 _charitySplit,\n        uint256 _winnerSplit,\n        uint256 _ownerSplit,\n        uint256 _valuePerEntry,\n        uint256 _startTime,\n        uint256 _revealTime,\n        uint256 _endTime) public onlyOwner\n    {\n        require(_charity != 0x0);\n        require(_charitySplit != 0);\n        require(_winnerSplit != 0);\n        require(_ownerSplit != 0);\n        require(_valuePerEntry != 0);\n        require(_startTime >= now);\n        require(_revealTime > _startTime);\n        require(_endTime > _revealTime);\n        // we can only start a new charity if a winner has been chosen or the last\n        // charity was cancelled\n        require(winner != address(0) || cancelled);\n\n        kick = Kick(\n            _charity,\n            _charitySplit,\n            _winnerSplit,\n            _ownerSplit,\n            _valuePerEntry,\n            now,\n            _startTime,\n            _revealTime,\n            _endTime\n        );\n\n        // clear out any pre-existing state\n        clear();\n\n    }\n\n    /**\n     * Clears blockchain storage elements to prepare for a new charity.\n     */\n    function clear() internal {\n\n        // clear out charity hashed random\n        charityHashedRandom = 0x0;\n        // set no winner\n        winner = address(0);\n        // set not cancelled\n        cancelled = false;\n        // clear out stats\n        totalEntries = 0;\n        totalRevealed = 0;\n\n        // delete all participants in mapping\n        for (uint256 participantsIndex = 0; participantsIndex < participants.length; participantsIndex++) {\n            delete participantsMapping[participants[participantsIndex]];\n        }\n\n        // delete revealer addresses\n        delete revealers;\n        // delete participant addresses\n        delete participants;\n\n    }\n\n    function seed(bytes32 _hashedRandom) public onlyCharity {\n        require(now >= kick.kickTime); // ensure we are after construct\n        require(now < kick.startTime); // but before the start\n        require(winner == address(0)); // safety check\n        require(!cancelled); // we can't participate in a cancelled charity\n        require(charityHashedRandom == 0x0); // safety check\n        require(_hashedRandom != 0x0); // hashed random cannot be zero\n\n        // set the charity's hashed random; this is the final revealed\n        // random number used to generate the winning random globally\n        charityHashedRandom = _hashedRandom;\n\n    }\n\n    /**\n     * Participate in the current charity by contributing randomness to the global\n     * selection of a winner. Send a hashed random number N using the following\n     * formula: sha3(N, address). This being the SHA3 hash of the random number\n     * prepended to the sender's address. Do not forget your random number\n     * contribution as this will be required during the random revealation phase\n     * to confirm your entries. After participation, send wei to the callback\n     * function to receive entries and thereby increase your chances of winning.\n     * Participation is only permitted between the start and reaveal times.\n     */\n    function participate(bytes32 _hashedRandom) public openParticipation neverOwner {\n        require(now >= kick.startTime); // ensure we are after the start\n        require(now < kick.revealTime); // but before the reveal\n        require(_hashedRandom != 0x0); // hashed random cannot be zero\n\n        address _sender = msg.sender;\n        // find existing participant\n        Participant storage _participant = participantsMapping[_sender];\n        require(_participant.entries == 0); // safety check\n        require(_participant.hashedRandom == 0x0); // make sure they have not participated\n        require(_participant.random == 0); // safety check\n        // save hashed random, add to tracked\n        _participant.hashedRandom = _hashedRandom;\n        participants.push(_sender);\n\n        // send out participation update\n        Participation(_sender, _hashedRandom);\n    \n    }\n\n    /**\n     * Fallback function that accepts wei for entries. This will always\n     * fail if participate() is not called once first with a hashed random.\n     */\n    function () public openParticipation neverOwner payable {\n        require(now >= kick.startTime); // ensure we are after the start\n        require(now < kick.revealTime); // but before the reveal\n        require(msg.value > 0); // some money needs to be sent\n\n        address _sender = msg.sender;\n        // find existing participant\n        Participant storage _participant = participantsMapping[_sender];\n        require(_participant.hashedRandom != 0x0); // make sure they participated\n\n        uint256 _value = msg.value;\n        // calculate the number of entries from the wei sent\n        uint256 _newEntries = _value / kick.valuePerEntry;\n        require(_newEntries > 0); // ensure at least one\n\n        // add new entries to participant and total\n        _participant.entries += _newEntries;\n        totalEntries += _newEntries;\n\n        uint256 _refund = _value % kick.valuePerEntry;\n        // refund any excess wei\n        if (_refund > 0) {\n            balancesMapping[_sender] += _refund;\n        }\n\n        // send fund event\n        Fund(_sender, _value, _refund, _newEntries, totalEntries);\n\n    }\n\n    /**\n     * Reveal your hashed random to the world. This contract will verify that\n     * the random number submitted during the participation phase matches\n     * this number, confirming all of your entries at once. This procedure\n     * can only be completed once. After the revelation period ends, all\n     * of these revealed random numbers will be used to deterministically\n     * generate a global random number, which will determine the winner.\n     */\n    function reveal(uint256 _random) public openParticipation neverOwner {\n        require(now >= kick.revealTime); // ensure we are after the reveal\n        require(now < kick.endTime); // but before the end\n        require(bytes32(_random)[0] > 0x8); // random avoids bit-flipping and padding\n\n        // find the original participant\n        address _sender = msg.sender;\n        Participant storage _participant = participantsMapping[_sender];\n        require(_participant.entries > 0); // make sure they entered\n        require(_participant.hashedRandom == keccak256(_random, _sender)); // verify random against hashed random\n        require(_participant.random == 0); // make sure no random set already\n\n        // set random, track revealer, update stats\n        _participant.random = _random;\n        revealers.push(_sender);\n        totalRevealed += _participant.entries;\n        // send out revelation update\n        Revelation(_sender, _participant.entries, totalRevealed, revealers.length);\n\n    }\n\n    /**\n     * End this charity, choose a winner and disseminate wei according to\n     * the split percentages. All of the revealed random numbers will be\n     * used to deterministically generate a global random number. A binary\n     * search is performed with this random number to find the actual\n     * winner with the weight of their entries used in random selection.\n     * Anyone can perform this operation to ensure that winnings can\n     * always be distributed without requiring the owner.\n     */\n    function end(uint256 _charityRandom) public openParticipation onlyCharity {\n        require(now >= kick.endTime); // a charity can only be ended after the reveal period is over\n        require(charityHashedRandom == keccak256(_charityRandom, msg.sender)); // verify charity's hashed random\n\n        uint256[] memory _cumulatives = new uint256[](revealers.length);\n        // calculate social random & index from this random, set winner\n        uint256 _winningRandom = calculateWinningRandom(_charityRandom, _cumulatives);\n        uint256 _winnerIndex = _winningRandom % totalRevealed;\n        winner = findWinnerAddress(0, revealers.length - 1, _winnerIndex, _cumulatives);\n\n        uint256 _ownerReward;\n        uint256 _charityReward;\n        uint256 _winnerReward;\n        // get owner, winner, and charity refunds\n        (_charityReward, _winnerReward, _ownerReward) = calculateRewards();\n        // add rewards to existing balances\n        balancesMapping[kick.charity] += _charityReward;\n        balancesMapping[winner] += _winnerReward;\n        balancesMapping[owner] += _ownerReward;\n\n        // send out win event\n        Win(winner, _charityReward, _winnerReward, _ownerReward);\n\n    }\n\n    /**\n     * Using all of the revealed random numbers, deterministically generate\n     * a global winning random by XORing them together. This procedure will\n     * also set up a discrete cumulative density function (CDF) using the\n     * number of entries for each participant as the random selection weight.\n     */\n    function calculateWinningRandom(\n        uint256 _charityRandom,\n        uint256[] _cumulatives) internal view returns (uint256)\n    {\n\n        uint256 _cumulative = 0;\n        uint256 _winningRandom = 0;\n        address _revealerAddress;\n        Participant memory _participant;\n        // generate winning random from all revealed randoms\n        for (uint256 revealerIndex = 0; revealerIndex < revealers.length; revealerIndex++) {\n\n            _revealerAddress = revealers[revealerIndex];\n            // get the participant for this revealer\n            _participant = participantsMapping[_revealerAddress];\n            require(_participant.entries > 0); // safety check\n            require(_participant.hashedRandom != 0x0); // safety check\n            require(_participant.random != 0); // safety check\n\n            // set lower cumulative bound\n            _cumulatives[revealerIndex] = _cumulative;\n            _cumulative += _participant.entries;\n            // xor all randoms together\n            _winningRandom = _winningRandom ^ _participant.random;\n\n        }\n\n        // the charity's initial random has the ultimate randomization effect\n        return _winningRandom ^ _charityRandom;\n\n    }\n\n    /**\n     * Finds the winning revealer address amongst the participants who\n     * revealed their random number to us. The winner index is a random\n     * number that was chosen between 0 and the sum of the weights\n     * (total entries). A binary search is then performed amongst the\n     * revealers to find a revealer that falls in an interval of the\n     * following:\n     * revealer cumulative entries\n     * <= winner index\n     * < next revealer cumulative entries\n     */\n    function findWinnerAddress(\n        uint256 _leftIndex,\n        uint256 _rightIndex,\n        uint256 _winnerIndex,\n        uint256[] _cumulatives) internal view returns (address)\n    {\n\n        uint256 _midIndex;\n        address _midRevealerAddress;\n        uint256 _nextIndex;\n        uint256 _midRevealerCumulative;\n        uint256 _nextRevealerCumulative;\n        bool _winnerGTEMid;\n        bool _winnerLTNext;\n        // loop until revealer found\n        while (true) {\n\n            // the winner is the last revealer!\n            if (_leftIndex == _rightIndex) {\n                return revealers[_leftIndex];\n            }\n\n            // calculate the mid index  for binary search, find the mid revealer, get next sequential index\n            _midIndex = _leftIndex + ((_rightIndex - _leftIndex) / 2);\n            _midRevealerAddress = revealers[_midIndex];\n            _nextIndex = _midIndex + 1;\n            // find the mid and very next revealer cumulatives\n            _midRevealerCumulative = _cumulatives[_midIndex];\n            _nextRevealerCumulative = _cumulatives[_nextIndex];\n            // see if we are in range of winner index\n            _winnerGTEMid = _winnerIndex >= _midRevealerCumulative;\n            _winnerLTNext = _winnerIndex < _nextRevealerCumulative;\n\n            if (_winnerGTEMid) {\n                if (_winnerLTNext) {\n                    // we are in range, winner found!\n                    return _midRevealerAddress;\n                }\n                // winner is greater, move right\n                _leftIndex = _nextIndex;\n            }\n            // winner is less, move left\n            _rightIndex = _midIndex;\n\n        }\n\n    }\n\n    /**\n     * Calculate refund amounts to the charity, winner, and owner\n     * given the percentage splits specified at charity start.\n     */\n    function calculateRewards() internal view returns (\n        uint256 _charityReward,\n        uint256 _winnerReward,\n        uint256 _ownerReward)\n    {\n        // calculate total wei received\n        uint256 _totalValue = totalEntries * kick.valuePerEntry;\n        // divide it up amongst all entities (non-revealed winnings are forfeited)\n        _charityReward = _totalValue * kick.charitySplit / 100;\n        _winnerReward = _totalValue * kick.winnerSplit / 100;\n        _ownerReward = _totalValue * kick.ownerSplit / 100;\n    }\n\n    /**\n     * Cancels a charity early, before a winner is chosen, and distribute\n     * all received wei back to the original participants. This procedure\n     * must exist in case of catostropic failure to return wei.\n     */\n    function cancel() public onlyOwnerOrCharity {\n        require(winner == address(0)); // if someone won, we've already sent the money out\n        require(!cancelled); // we can't cancel more than once\n\n        // immediately set us to cancelled\n        cancelled = true;\n\n        address _participantAddress;\n        Participant memory _participant;\n        // loop through all participants to refund them\n        for (uint256 participantsIndex = 0; participantsIndex < participants.length; participantsIndex++) {\n            // get the participant & refund\n            _participantAddress = participants[participantsIndex];\n            _participant = participantsMapping[_participantAddress];\n            balancesMapping[_participantAddress] += _participant.entries * kick.valuePerEntry;\n            // send out cancellation event\n            Cancellation(_participantAddress, balancesMapping[_participantAddress]);\n        }\n\n    }\n\n    /**\n     * This is the only method for getting funds out of the contract. All\n     * winnings and refunds are transferred in this way.\n     */\n    function withdraw() public {\n\n        address _sender = msg.sender;\n        // determine where to find the refund amount\n        uint256 _balance = balancesMapping[_sender];\n        // execute the refund if we have one\n        if (_balance > 0) {\n            _sender.transfer(_balance);\n            // send withdrawal event\n            Withdrawal(_sender, _balance);\n        }\n\n    }\n\n}",
  "sourcePath": "/Users/agroleau/Repositories/charity-solidity/contracts/Charity.sol",
  "schemaVersion": "1.0.0",
  "updatedAt": "2017-10-12T21:52:16.726Z"
}