{
  "contractName": "Charity",
  "abi": [
    {
      "constant": true,
      "inputs": [],
      "name": "charitySplit",
      "outputs": [
        {
          "name": "",
          "type": "uint256"
        }
      ],
      "payable": false,
      "stateMutability": "view",
      "type": "function"
    },
    {
      "constant": false,
      "inputs": [
        {
          "name": "_hashedRandom",
          "type": "bytes32"
        }
      ],
      "name": "participate",
      "outputs": [],
      "payable": false,
      "stateMutability": "nonpayable",
      "type": "function"
    },
    {
      "constant": false,
      "inputs": [
        {
          "name": "_charity",
          "type": "address"
        },
        {
          "name": "_charitySplit",
          "type": "uint256"
        },
        {
          "name": "_winnerSplit",
          "type": "uint256"
        },
        {
          "name": "_ownerSplit",
          "type": "uint256"
        },
        {
          "name": "_valuePerEntry",
          "type": "uint256"
        },
        {
          "name": "_startTime",
          "type": "uint256"
        },
        {
          "name": "_revealTime",
          "type": "uint256"
        },
        {
          "name": "_endTime",
          "type": "uint256"
        }
      ],
      "name": "start",
      "outputs": [],
      "payable": false,
      "stateMutability": "nonpayable",
      "type": "function"
    },
    {
      "constant": true,
      "inputs": [],
      "name": "ownerSplit",
      "outputs": [
        {
          "name": "",
          "type": "uint256"
        }
      ],
      "payable": false,
      "stateMutability": "view",
      "type": "function"
    },
    {
      "constant": false,
      "inputs": [
        {
          "name": "_address",
          "type": "address"
        }
      ],
      "name": "participant",
      "outputs": [
        {
          "name": "_entries",
          "type": "uint256"
        },
        {
          "name": "_hashedRandom",
          "type": "bytes32"
        },
        {
          "name": "_refund",
          "type": "uint256"
        }
      ],
      "payable": false,
      "stateMutability": "nonpayable",
      "type": "function"
    },
    {
      "constant": true,
      "inputs": [],
      "name": "endTime",
      "outputs": [
        {
          "name": "",
          "type": "uint256"
        }
      ],
      "payable": false,
      "stateMutability": "view",
      "type": "function"
    },
    {
      "constant": true,
      "inputs": [
        {
          "name": "",
          "type": "uint256"
        }
      ],
      "name": "participants",
      "outputs": [
        {
          "name": "",
          "type": "address"
        }
      ],
      "payable": false,
      "stateMutability": "view",
      "type": "function"
    },
    {
      "constant": false,
      "inputs": [],
      "name": "withdraw",
      "outputs": [],
      "payable": false,
      "stateMutability": "nonpayable",
      "type": "function"
    },
    {
      "constant": false,
      "inputs": [],
      "name": "totalRevealers",
      "outputs": [
        {
          "name": "",
          "type": "uint256"
        }
      ],
      "payable": false,
      "stateMutability": "nonpayable",
      "type": "function"
    },
    {
      "constant": true,
      "inputs": [],
      "name": "startTime",
      "outputs": [
        {
          "name": "",
          "type": "uint256"
        }
      ],
      "payable": false,
      "stateMutability": "view",
      "type": "function"
    },
    {
      "constant": true,
      "inputs": [
        {
          "name": "",
          "type": "uint256"
        }
      ],
      "name": "revealers",
      "outputs": [
        {
          "name": "",
          "type": "address"
        }
      ],
      "payable": false,
      "stateMutability": "view",
      "type": "function"
    },
    {
      "constant": true,
      "inputs": [],
      "name": "totalEntries",
      "outputs": [
        {
          "name": "",
          "type": "uint256"
        }
      ],
      "payable": false,
      "stateMutability": "view",
      "type": "function"
    },
    {
      "constant": true,
      "inputs": [],
      "name": "owner",
      "outputs": [
        {
          "name": "",
          "type": "address"
        }
      ],
      "payable": false,
      "stateMutability": "view",
      "type": "function"
    },
    {
      "constant": true,
      "inputs": [],
      "name": "charity",
      "outputs": [
        {
          "name": "",
          "type": "address"
        }
      ],
      "payable": false,
      "stateMutability": "view",
      "type": "function"
    },
    {
      "constant": true,
      "inputs": [],
      "name": "cancelled",
      "outputs": [
        {
          "name": "",
          "type": "bool"
        }
      ],
      "payable": false,
      "stateMutability": "view",
      "type": "function"
    },
    {
      "constant": false,
      "inputs": [],
      "name": "totalParticipants",
      "outputs": [
        {
          "name": "",
          "type": "uint256"
        }
      ],
      "payable": false,
      "stateMutability": "nonpayable",
      "type": "function"
    },
    {
      "constant": true,
      "inputs": [],
      "name": "valuePerEntry",
      "outputs": [
        {
          "name": "",
          "type": "uint256"
        }
      ],
      "payable": false,
      "stateMutability": "view",
      "type": "function"
    },
    {
      "constant": true,
      "inputs": [],
      "name": "revealTime",
      "outputs": [
        {
          "name": "",
          "type": "uint256"
        }
      ],
      "payable": false,
      "stateMutability": "view",
      "type": "function"
    },
    {
      "constant": false,
      "inputs": [
        {
          "name": "_random",
          "type": "uint256"
        }
      ],
      "name": "reveal",
      "outputs": [],
      "payable": false,
      "stateMutability": "nonpayable",
      "type": "function"
    },
    {
      "constant": true,
      "inputs": [],
      "name": "winnerSplit",
      "outputs": [
        {
          "name": "",
          "type": "uint256"
        }
      ],
      "payable": false,
      "stateMutability": "view",
      "type": "function"
    },
    {
      "constant": false,
      "inputs": [
        {
          "name": "_address",
          "type": "address"
        }
      ],
      "name": "revealer",
      "outputs": [
        {
          "name": "_random",
          "type": "uint256"
        }
      ],
      "payable": false,
      "stateMutability": "nonpayable",
      "type": "function"
    },
    {
      "constant": true,
      "inputs": [],
      "name": "winner",
      "outputs": [
        {
          "name": "",
          "type": "address"
        }
      ],
      "payable": false,
      "stateMutability": "view",
      "type": "function"
    },
    {
      "constant": false,
      "inputs": [],
      "name": "cancel",
      "outputs": [],
      "payable": false,
      "stateMutability": "nonpayable",
      "type": "function"
    },
    {
      "constant": false,
      "inputs": [],
      "name": "end",
      "outputs": [],
      "payable": false,
      "stateMutability": "nonpayable",
      "type": "function"
    },
    {
      "constant": false,
      "inputs": [
        {
          "name": "newOwner",
          "type": "address"
        }
      ],
      "name": "transferOwnership",
      "outputs": [],
      "payable": false,
      "stateMutability": "nonpayable",
      "type": "function"
    },
    {
      "constant": true,
      "inputs": [],
      "name": "totalRevealed",
      "outputs": [
        {
          "name": "",
          "type": "uint256"
        }
      ],
      "payable": false,
      "stateMutability": "view",
      "type": "function"
    },
    {
      "inputs": [],
      "payable": false,
      "stateMutability": "nonpayable",
      "type": "constructor"
    },
    {
      "payable": true,
      "stateMutability": "payable",
      "type": "fallback"
    },
    {
      "anonymous": false,
      "inputs": [
        {
          "indexed": true,
          "name": "participant",
          "type": "address"
        },
        {
          "indexed": false,
          "name": "hashedRandom",
          "type": "bytes32"
        }
      ],
      "name": "Participation",
      "type": "event"
    },
    {
      "anonymous": false,
      "inputs": [
        {
          "indexed": true,
          "name": "revealer",
          "type": "address"
        },
        {
          "indexed": false,
          "name": "newRevealedEntries",
          "type": "uint256"
        },
        {
          "indexed": false,
          "name": "totalRevealed",
          "type": "uint256"
        },
        {
          "indexed": false,
          "name": "totalRevealers",
          "type": "uint256"
        }
      ],
      "name": "Revelation",
      "type": "event"
    },
    {
      "anonymous": false,
      "inputs": [
        {
          "indexed": true,
          "name": "winner",
          "type": "address"
        },
        {
          "indexed": false,
          "name": "charityRefund",
          "type": "uint256"
        },
        {
          "indexed": false,
          "name": "winnerRefund",
          "type": "uint256"
        },
        {
          "indexed": false,
          "name": "ownerRefund",
          "type": "uint256"
        }
      ],
      "name": "Win",
      "type": "event"
    },
    {
      "anonymous": false,
      "inputs": [
        {
          "indexed": true,
          "name": "participant",
          "type": "address"
        },
        {
          "indexed": false,
          "name": "refund",
          "type": "uint256"
        }
      ],
      "name": "Cancellation",
      "type": "event"
    },
    {
      "anonymous": false,
      "inputs": [
        {
          "indexed": true,
          "name": "wallet",
          "type": "address"
        },
        {
          "indexed": false,
          "name": "amount",
          "type": "uint256"
        }
      ],
      "name": "Withdrawal",
      "type": "event"
    },
    {
      "anonymous": false,
      "inputs": [
        {
          "indexed": true,
          "name": "previousOwner",
          "type": "address"
        },
        {
          "indexed": true,
          "name": "newOwner",
          "type": "address"
        }
      ],
      "name": "OwnershipTransferred",
      "type": "event"
    }
  ],
  "bytecode": "0x6060604052341561000f57600080fd5b60008054600160a060020a033316600160a060020a0319909116179055600c805460ff19166001179055611345806100486000396000f300606060405236156101515763ffffffff7c010000000000000000000000000000000000000000000000000000000060003504166308d5d448811461027f5780630a14504c146102a45780630e4174fd146102bc5780631e6d5a4b146102f05780632605b3c7146103035780633197cbb61461034657806335c1d349146103595780633ccfd60b1461038b5780637238c1c91461039e57806378e97925146103b15780637988dfa0146103c45780637fef036e146103da5780638da5cb5b146103ed578063934aa023146104005780639a82a09a14610413578063a26dbf261461043a578063aa73b5ac1461044d578063ba829d7114610460578063c2ca0ac514610473578063cff9ea0814610489578063da126c521461049c578063dfbf53ae146104bb578063ea8a1af0146104ce578063efbe1c1c146104e1578063f2fde38b146104f4578063f373856914610513575b60008054819081908190819033600160a060020a039081169116141561017657600080fd5b6000341161018357600080fd5b60075442101561019257600080fd5b60085442106101a057600080fd5b600254600160a060020a0316156101b657600080fd5b600c5460ff16156101c657600080fd5b33600160a060020a0381166000908152600f602052604090206001810154919650945015156101f457600080fd5b60065434935061020b90849063ffffffff61052616565b91506000821161021a57600080fd5b835461022c908363ffffffff61053d16565b8455600d54610241908363ffffffff61053d16565b600d556006548381151561025157fe5b0690506000811115610278576002840154610272908263ffffffff61053d16565b60028501555b5050505050005b341561028a57600080fd5b610292610553565b60405190815260200160405180910390f35b34156102af57600080fd5b6102ba600435610559565b005b34156102c757600080fd5b6102ba600160a060020a036004351660243560443560643560843560a43560c43560e435610684565b34156102fb57600080fd5b61029261078c565b341561030e57600080fd5b610322600160a060020a0360043516610792565b60405192835260208301919091526040808301919091526060909101905180910390f35b341561035157600080fd5b6102926107fc565b341561036457600080fd5b61036f600435610802565b604051600160a060020a03909116815260200160405180910390f35b341561039657600080fd5b6102ba61082a565b34156103a957600080fd5b610292610940565b34156103bc57600080fd5b610292610947565b34156103cf57600080fd5b61036f60043561094d565b34156103e557600080fd5b61029261095b565b34156103f857600080fd5b61036f610961565b341561040b57600080fd5b61036f610970565b341561041e57600080fd5b61042661097f565b604051901515815260200160405180910390f35b341561044557600080fd5b610292610988565b341561045857600080fd5b61029261098e565b341561046b57600080fd5b610292610994565b341561047e57600080fd5b6102ba60043561099a565b341561049457600080fd5b610292610aa5565b34156104a757600080fd5b610292600160a060020a0360043516610aab565b34156104c657600080fd5b61036f610af2565b34156104d957600080fd5b6102ba610b01565b34156104ec57600080fd5b6102ba610c3f565b34156104ff57600080fd5b6102ba600160a060020a0360043516610dab565b341561051e57600080fd5b610292610e46565b600080828481151561053457fe5b04949350505050565b60008282018381101561054c57fe5b9392505050565b60035481565b60008054819033600160a060020a039081169116141561057857600080fd5b60075442101561058757600080fd5b600854421061059557600080fd5b600254600160a060020a0316156105ab57600080fd5b600c5460ff16156105bb57600080fd5b8215156105c757600080fd5b505033600160a060020a0381166000908152600f602052604090206001810154156105f157600080fd5b8054156105fd57600080fd5b6001808201849055600e805490918101610617838261127f565b506000918252602090912001805473ffffffffffffffffffffffffffffffffffffffff1916600160a060020a0384169081179091557fc197ebf15e8fe977ad5029df6077570283fa75a10103efc82970e4962d21eb308460405190815260200160405180910390a2505050565b60005433600160a060020a0390811691161461069f57600080fd5b600160a060020a03881615156106b457600080fd5b8615156106c057600080fd5b8515156106cc57600080fd5b8415156106d857600080fd5b8315156106e457600080fd5b428310156106f157600080fd5b8282116106fd57600080fd5b81811161070957600080fd5b600254600160a060020a03161515806107245750600c5460ff165b151561072f57600080fd5b6001805473ffffffffffffffffffffffffffffffffffffffff1916600160a060020a038a161790556003879055600486905560058590556006849055600783905560088290556009819055610782610e4c565b5050505050505050565b60055481565b600080600061079f6112a3565b600160a060020a0385166000908152600f6020526040908190209060609051908101604090815282548252600183015460208301526002909201549181019190915290508051935080602001519250806040015193959294505050565b60095481565b600e80548290811061081057fe5b600091825260209091200154600160a060020a0316905081565b6000806108356112a3565b60015433935060009250600160a060020a038085169116141561085c57600a5491506108c3565b600054600160a060020a038481169116141561087c57600b5491506108c3565b600160a060020a0383166000908152600f60205260409081902090606090519081016040908152825482526001830154602083015260029092015491810191825291505191505b600082111561093b57600160a060020a03831682156108fc0283604051600060405180830381858888f1935050505015156108fd57600080fd5b82600160a060020a03167f7fcf532c15f0a6db0bd6d0e038bea71d30d808c7d98cb3bf7268a95bf5081b658360405190815260200160405180910390a25b505050565b6011545b90565b60075481565b601180548290811061081057fe5b600d5481565b600054600160a060020a031681565b600154600160a060020a031681565b600c5460ff1681565b600e5490565b60065481565b60085481565b60006109a46112a3565b60005433600160a060020a03908116911614156109c057600080fd5b60085442101580156109d3575060095442105b15156109de57600080fd5b8215156109ea57600080fd5b600254600160a060020a031615610a0057600080fd5b600c5460ff1615610a1057600080fd5b33600160a060020a0381166000908152600f60205260409081902091935060609051908101604090815282548252600183015460208301526002909201549181019190915290506000815111610a6557600080fd5b8282604051918252600160a060020a03166c0100000000000000000000000002602082015260340160405190819003902060208201511461093b57600080fd5b60045481565b6000610ab56112c3565b600160a060020a03831660009081526012602052604090819020908051908101604052815481526001909101546020820152905080519392505050565b600254600160a060020a031681565b600080610b0c6112a3565b60005433600160a060020a03908116911614610b2757600080fd5b600754421015610b3657600080fd5b600254600160a060020a031615610b4c57600080fd5b600c5460ff1615610b5c57600080fd5b600c805460ff19166001179055600092505b600e5483101561093b57600e805484908110610b8657fe5b6000918252602080832090910154600160a060020a0316808352600f90915260409182902090935090606090519081016040908152825482526001830154602083015260029092015491810191909152600654909150610bee9082519063ffffffff610f5316565b60408201908152600160a060020a038316907fa2eeb2d8f4efaac84aa44a078c068e08a7c3d70309d3e7bd52481d4a3153b715905160405190815260200160405180910390a2600190920191610b6e565b6000806000610c4c6112a3565b60005433600160a060020a03908116911614610c6757600080fd5b600954421015610c7657600080fd5b600254600160a060020a031615610c8c57600080fd5b600c5460ff1615610c9c57600080fd5b610ca4610f77565b935060105484811515610cb357fe5b069250610cca6000600160118054905003856110ab565b6002805473ffffffffffffffffffffffffffffffffffffffff1916600160a060020a0392909216919091179055610cff6111fa565b600b55600a91909155600254600160a060020a03166000908152600f602052604090819020919350606090519081016040908152825482526001909201546020820152818101849052600254600a54600b54929450600160a060020a03909116927fbb60707fdc8534f54545ae4fc12fde1cc2549a9a39f8f382e1411f7492aa792f9286915180848152602001838152602001828152602001935050505060405180910390a250505050565b60005433600160a060020a03908116911614610dc657600080fd5b600160a060020a0381161515610ddb57600080fd5b600054600160a060020a0380831691167f8be0079c531659141344cd1fd0a4f28419497f9722a3daafe3b4186f6b6457e060405160405180910390a36000805473ffffffffffffffffffffffffffffffffffffffff1916600160a060020a0392909216919091179055565b60105481565b6002805473ffffffffffffffffffffffffffffffffffffffff19169055600c805460ff191690556000600d8190556010819055805b600e54821015610ee057600f6000600e84815481101515610e9e57fe5b6000918252602080832090910154600160a060020a03168352820192909252604001812081815560018181018390556002909101919091559190910190610e81565b5060005b601154811015610f375760126000601183815481101515610f0157fe5b6000918252602080832090910154600160a060020a03168352820192909252604001812081815560019081019190915501610ee4565b610f43601160006112da565b610f4f600e60006112da565b5050565b6000828202831580610f6f5750828482811515610f6c57fe5b04145b151561054c57fe5b6000806000806000610f876112a3565b610f8f6112c3565b6000955060009450600093505b6011548410156110a0576011805485908110610fb457fe5b6000918252602080832090910154600160a060020a0316808352600f909152604091829020909450906060905190810160409081528254825260018301546020830152600290920154918101919091529150600082511161101457600080fd5b8160200151151561102457600080fd5b600160a060020a0383166000908152601260205260409081902090805190810160405281548152600190910154602082015290508051151561106557600080fd5b80602001511561107457600080fd5b6110868251879063ffffffff61053d16565b602082018190529550805190941893600190930192610f9c565b509295945050505050565b6000806000806110b96112c3565b60006110c36112c3565b60008060028c8c03048c0197506011888154811015156110df57fe5b600091825260209091200154601154600160a060020a039091169750600189019650861061110f578698506111eb565b600160a060020a0387166000908152601260205260409081902090805190810160405281548152600190910154602082015260118054919650908790811061115357fe5b6000918252602080832090910154600160a060020a03168083526012909152604091829020909550908051908101604052815481526001909101546020808301919091529093508501518a1015915082602001518a1090508180156111b55750805b156111c2578698506111eb565b81156111da576111d3868c8c6110ab565b98506111eb565b6111e88c60018a038c6110ab565b98505b50505050505050509392505050565b600080600080611217600654600d5461052690919063ffffffff16565b905061123f606461123360035484610f5390919063ffffffff16565b9063ffffffff61052616565b935061125b606461123360045484610f5390919063ffffffff16565b9250611277606461123360055484610f5390919063ffffffff16565b915050909192565b81548183558181151161093b5760008381526020902061093b9181019083016112fb565b606060405190810160409081526000808352602083018190529082015290565b604080519081016040526000808252602082015290565b50805460008255906000526020600020908101906112f891906112fb565b50565b61094491905b808211156113155760008155600101611301565b50905600a165627a7a72305820e8360d3156f128a4d84c930c4b917ce0b441a3f24f19b75e8669bf3ab19dda220029",
  "source": "pragma solidity ^0.4.4;\n\nimport 'zeppelin-solidity/contracts/ownership/Ownable.sol';\nimport 'zeppelin-solidity/contracts/math/SafeMath.sol';\n\ncontract Charity is Ownable {\n    using SafeMath for uint256;\n\n    event Participation(\n        address indexed participant,\n        bytes32 hashedRandom\n    );\n\n    event Revelation(\n        address indexed revealer,\n        uint256 newRevealedEntries,\n        uint256 totalRevealed,\n        uint256 totalRevealers\n    );\n\n    event Win(\n        address indexed winner,\n        uint256 charityRefund,\n        uint256 winnerRefund,\n        uint256 ownerRefund\n    );\n\n    event Cancellation(\n        address indexed participant,\n        uint256 refund\n    );\n\n    event Withdrawal(\n        address indexed wallet,\n        uint256 amount\n    );\n\n    struct Participant {\n        uint256 entries;\n        bytes32 hashedRandom;\n        uint256 refund;\n    }\n\n    struct Revealer {\n        uint256 random;\n        uint256 cumulativeEntries;\n    }\n\n    address public charity;\n    address public winner;\n    uint256 public charitySplit;\n    uint256 public winnerSplit;\n    uint256 public ownerSplit;\n    uint256 public valuePerEntry;\n    uint256 public startTime;\n    uint256 public revealTime;\n    uint256 public endTime;\n\n    uint256 charityRefund;\n    uint256 ownerRefund;\n    bool public cancelled;\n\n    uint256 public totalEntries;\n    address[] public participants;\n    mapping(address => Participant) participantsMapping;\n\n    uint256 public totalRevealed;\n    address[] public revealers;\n    mapping(address => Revealer) revealersMapping;\n\n    function Charity() {\n        // initiall set this charity cancelled\n        cancelled = true;\n    }\n\n    function totalParticipants() public returns (uint256) {\n        return participants.length;\n    }\n\n    function totalRevealers() public returns (uint256) {\n        return revealers.length;\n    }\n\n    function participant(address _address) public returns (\n        uint256 _entries,\n        bytes32 _hashedRandom,\n        uint256 _refund)\n    {\n        Participant memory _participant = participantsMapping[_address];\n        _entries = _participant.entries;\n        _hashedRandom = _participant.hashedRandom;\n        _refund = _participant.refund;\n    }\n\n    function revealer(address _address) public returns (uint256 _random) {\n        Revealer memory _revealer = revealersMapping[_address];\n        _random = _revealer.random;\n    }\n\n    /**\n     * Starts a new charity. Here we set the charity ethereum wallet address,\n     * the percentage cuts for the charity, winner, and owner, the wei of each\n     * entry, and the start, reveal, and end times. A new charity can only be\n     * started if a winner is chosen from the last charity or the last charity\n     * was cancelled.\n     */\n    function start(\n        address _charity,\n        uint256 _charitySplit,\n        uint256 _winnerSplit,\n        uint256 _ownerSplit,\n        uint256 _valuePerEntry,\n        uint256 _startTime,\n        uint256 _revealTime,\n        uint256 _endTime) public onlyOwner\n    {\n        require(_charity != 0x0);\n        require(_charitySplit != 0);\n        require(_winnerSplit != 0);\n        require(_ownerSplit != 0);\n        require(_valuePerEntry != 0);\n        require(_startTime >= now);\n        require(_revealTime > _startTime);\n        require(_endTime > _revealTime);\n        // we can only start a new charity if a winner has been chosen or the last\n        // charity was cancelled\n        require(winner != address(0) || cancelled);\n\n        charity = _charity;\n        charitySplit = _charitySplit;\n        winnerSplit = _winnerSplit;\n        ownerSplit = _ownerSplit;\n        valuePerEntry = _valuePerEntry;\n        startTime = _startTime;\n        revealTime = _revealTime;\n        endTime = _endTime;\n\n        // clear out any pre-existing state\n        clear();\n\n    }\n\n    /**\n     * Clears blockchain storage elements to prepare for a new charity.\n     */\n    function clear() internal {\n\n        // set no winner\n        winner = address(0);\n        // set not cancelled\n        cancelled = false;\n        // clear out stats\n        totalEntries = 0;\n        totalRevealed = 0;\n\n        // delete all participants in mapping\n        for (uint256 participantsIndex = 0; participantsIndex < participants.length; participantsIndex++) {\n            delete participantsMapping[participants[participantsIndex]];\n        }\n\n        // delete all revealers in mapping\n        for (uint256 revealersIndex = 0; revealersIndex < revealers.length; revealersIndex++) {\n            delete revealersMapping[revealers[revealersIndex]];\n        }\n\n        // delete revealer addresses\n        delete revealers;\n        // delete participant addresses\n        delete participants;\n\n    }\n\n    /**\n     * Participate in the current charity by contributing randomness to the global\n     * selection of a winner. Send a hashed random number N using the following\n     * formula: sha3(N, address). This being the SHA3 hash of the random number\n     * prepended to the sender's address. Do not forget your random number\n     * contribution as this will be required during the random revealation phase\n     * to confirm your entries. After participation, send wei to the callback\n     * function to receive entries and thereby increase your chances of winning.\n     * Participation is only permitted between the start and reaveal times.\n     */\n    function participate(bytes32 _hashedRandom) public {\n        require(msg.sender != owner); // owner cannot participate\n        require(now >= startTime); // ensure we are after the start\n        require(now < revealTime); // but before the reveal\n        require(winner == address(0)); // safety check\n        require(!cancelled); // we can't participate in a cancelled charity\n        require(_hashedRandom != 0x0); // hashed random cannot be zero\n\n        address _sender = msg.sender;\n        // find existing participant\n        Participant storage _participant = participantsMapping[_sender];\n        require(_participant.hashedRandom == 0x0); // make sure they have not participated\n        require(_participant.entries == 0); // safety check\n        // save hashed random, add to tracked\n        _participant.hashedRandom = _hashedRandom;\n        participants.push(_sender);\n\n        // send out participation update\n        Participation(_sender, _hashedRandom);\n    \n    }\n\n    /**\n     * Fallback function that accepts wei for entries. This will always\n     * fail if participate() is not called once first with a hashed random.\n     */\n    function () public payable {\n        require(msg.sender != owner); // owner cannot fund\n        require(msg.value > 0); // some money needs to be sent\n        require(now >= startTime); // ensure we are after the start\n        require(now < revealTime); // but before the reveal\n        require(winner == address(0)); // safety check\n        require(!cancelled); // we can't fund a cancelled charity\n\n        address _sender = msg.sender;\n        // find existing participant\n        Participant storage _participant = participantsMapping[_sender];\n        require(_participant.hashedRandom != 0x0); // make sure they participated\n\n        uint256 _value = msg.value;\n        // calculate the number of entries from the wei sent\n        uint256 _newEntries = _value.div(valuePerEntry);\n        require(_newEntries > 0); // ensure at least one\n\n        // add new entries to participant and total\n        _participant.entries = _participant.entries.add(_newEntries);\n        totalEntries = totalEntries.add(_newEntries);\n\n        uint256 _refund = _value % valuePerEntry;\n        // refund any excess wei\n        if (_refund > 0) {\n            _participant.refund = _participant.refund.add(_refund);\n        }\n\n    }\n\n    /**\n     * Reveal your hashed random to the world. This contract will verify that\n     * the random number submitted during the participation phase matches\n     * this number, confirming all of your entries at once. This procedure\n     * can only be completed once. After the revelation period ends, all\n     * of these revealed random numbers will be used to deterministically\n     * generate a global random number, which will determine the winner.\n     */\n    function reveal(uint256 _random) public {\n        require(msg.sender != owner); // owner cannot reveal\n        require(now >= revealTime && now < endTime); // ensure we are after the reveal but before the end\n        require(_random != 0); // random non-zero\n        require(winner == address(0)); // safety check\n        require(!cancelled); // we can't reveal in a cancelled charity\n\n        // find the original participant\n        address _sender = msg.sender;\n        Participant memory _participant = participantsMapping[_sender];\n        require(_participant.entries > 0); // make sure they entered\n        require(_participant.hashedRandom == sha3(_random, _sender)); // verify random against hashed random\n\n        // create a revealer for this participant\n        /*Revealer memory _revealer = revealersMapping[_sender];\n        require(_revealer.random == 0); // make sure no random set already\n        require(_revealer.cumulativeEntries == 0); // safety check\n\n        // track revealers & set random on revealer to consider them revealed\n        revealers.push(_sender);\n        _revealer.random = _random;\n        // update revealed entries count\n        totalRevealed = totalRevealed.add(_participant.entries);\n        // send out revelation update\n        Revelation(_sender, _participant.entries, totalRevealed, revealers.length);*/\n\n    }\n\n    /**\n     * End this charity, choose a winner and disseminate wei according to\n     * the split percentages. All of the revealed random numbers will be\n     * used to deterministically generate a global random number. A binary\n     * search is performed with this random number to find the actual\n     * winner with the weight of their entries used in random selection.\n     * Anyone can perform this operation to ensure that winnings can\n     * always be distributed without requiring the owner.\n     */\n    function end() public onlyOwner {\n        require(now >= endTime); // a charity can only be ended after the reveal period is over\n        require(winner == address(0)); // make sure someone hasn't already won\n        require(!cancelled); // we can't end a cancelled charity\n\n        // randomly determine winner address and set in storage\n        uint256 _winningRandom = calculateWinningRandom();\n        // calculate winning index from this random\n        uint256 _winnerIndex = _winningRandom % totalRevealed;\n        // set winner\n        winner = findWinningRevealerAddress(0, revealers.length - 1, _winnerIndex);\n\n        uint256 _winnerRefund;\n        // get winner refund and set charity & owner refunds\n        (charityRefund, _winnerRefund, ownerRefund) = calculateRefundAmounts();\n        // set participant refund\n        Participant memory _winnerParticipant = participantsMapping[winner];\n        _winnerParticipant.refund = _winnerRefund;\n\n        // send out win event\n        Win(winner, charityRefund, _winnerRefund, ownerRefund);\n\n    }\n\n    /**\n     * Using all of the revealed random numbers, deterministically generate\n     * a global winning random by XORing them together. This procedure will\n     * also set up a discrete cumulative density function (CDF) using the\n     * number of entries for each participant as the random selection weight.\n     */\n    function calculateWinningRandom() internal returns (uint256) {\n\n        uint256 _cumulativeEntries = 0;\n        uint256 _winningRandom = 0;\n        // generate winning random from all revealed randoms\n        for (uint256 revealerIndex = 0; revealerIndex < revealers.length; revealerIndex++) {\n\n            address _revealerAddress = revealers[revealerIndex];\n            // get the participant for this revealer\n            Participant memory _participant = participantsMapping[_revealerAddress];\n            require(_participant.entries > 0); // safety check\n            require(_participant.hashedRandom != 0x0); // safety check\n\n            // get the revealer\n            Revealer memory _revealer = revealersMapping[_revealerAddress];\n            require(_revealer.random != 0); // safety check\n            require(_revealer.cumulativeEntries == 0); // safety check\n\n            // keep track of the sum of revealed entries as we loop\n            _cumulativeEntries = _cumulativeEntries.add(_participant.entries);\n            _revealer.cumulativeEntries = _cumulativeEntries;\n            // xor all randoms together\n            _winningRandom = _winningRandom ^ _revealer.random;\n\n        }\n\n        return _winningRandom;\n\n    }\n\n    /**\n     * Finds the winning revealer address amongst the participants who\n     * revealed their random number to us. The winner index is a random\n     * number that was chosen between 0 and the sum of the weights\n     * (total entries). A binary search is then performed amongst the\n     * revealers to find a revealer that falls in an interval of the\n     * following:\n     * revealer cumulative entries\n     * <= winner index\n     * < next revealer cumulative entries\n     */\n    function findWinningRevealerAddress(\n        uint256 _leftIndex,\n        uint256 _rightIndex,\n        uint256 _winnerIndex) internal returns (address)\n    {\n\n        // calculate the mid index  for binary search, find the mid revealer, get next sequential index\n        uint256 _midIndex = _leftIndex + ((_rightIndex - _leftIndex) / 2);\n        address _midRevealerAddress = revealers[_midIndex];\n        uint256 _nextIndex = _midIndex + 1;\n\n        // we are at the end of the array, the winner is the last revealer\n        if (_nextIndex >= revealers.length) {\n            return _midRevealerAddress;\n        }\n\n        // find the mid and very next revealers\n        Revealer memory _midRevealer = revealersMapping[_midRevealerAddress];\n        address _nextRevealerAddress = revealers[_nextIndex];\n        Revealer memory _nextRevealer = revealersMapping[_nextRevealerAddress];\n\n        bool _winnerGTEMid = _winnerIndex >= _midRevealer.cumulativeEntries;\n        bool _winnerLTNext = _winnerIndex < _nextRevealer.cumulativeEntries;          \n        // we are in range and found the winner!                                                                                                                                                                                                                                                                                                                                                                                                                                                                                                                                                                                                                                                                                                                                                                                                                                                                                                                                                                                                                                                                                                                                                                                                                                                                                                                                                                                                                                                                                             \n        if (_winnerGTEMid && _winnerLTNext) {\n            return _midRevealerAddress;\n        }\n\n        // winner index is greater, move right\n        if (_winnerGTEMid) {\n            return findWinningRevealerAddress(_nextIndex, _rightIndex, _winnerIndex);\n        }\n\n        // winner index is less, move left\n        return findWinningRevealerAddress(_leftIndex, _midIndex - 1, _winnerIndex);\n\n    }\n\n    /**\n     * Calculate refund amounts to the charity, winner, and owner\n     * given the percentage splits specified at charity start.\n     */\n    function calculateRefundAmounts() internal returns (\n        uint256 _charityAmount,\n        uint256 _winnerAmount,\n        uint256 _ownerAmount)\n    {\n\n        // calculate total wei received\n        uint256 _totalValue = totalEntries.div(valuePerEntry);\n        // divide it up amongst all entities (non-revealed winnings are forfeited)\n        _charityAmount = _totalValue.mul(charitySplit).div(100);\n        _winnerAmount = _totalValue.mul(winnerSplit).div(100);\n        _ownerAmount = _totalValue.mul(ownerSplit).div(100);\n\n    }\n\n    /**\n     * Cancels a charity early, before a winner is chosen, and distribute\n     * all received wei back to the original participants. This procedure\n     * must exist in case of catostropic failure to return wei.\n     */\n    function cancel() public onlyOwner {\n        require(now >= startTime); // we can cancel at any time\n        require(winner == address(0)); // if someone won, we've already sent the money out\n        require(!cancelled); // we can't cancel more than once\n\n        // immediately set us to cancelled\n        cancelled = true;\n\n        // loop through all participants to refund them\n        for (uint256 participantsIndex = 0; participantsIndex < participants.length; participantsIndex++) {\n            address _participantAddress = participants[participantsIndex];\n            // get the participant for refund and set it\n            Participant memory _participant = participantsMapping[_participantAddress];\n            _participant.refund = _participant.entries.mul(valuePerEntry);\n            // send out cancellation event\n            Cancellation(_participantAddress, _participant.refund);\n        }\n\n    }\n\n    /**\n     * This is the only method for getting funds out of the contract. All\n     * winnings and refunds are transferred in this way.\n     */\n    function withdraw() public {\n\n        address _sender = msg.sender;\n\n        uint256 _refund = 0;\n        // determine where to find the refund amount\n        if (_sender == charity) {\n            _refund = charityRefund;\n        } else if (_sender == owner) {\n            _refund = ownerRefund;\n        } else {\n            // we have a participant\n            Participant memory _participant = participantsMapping[_sender];\n            _refund = _participant.refund;\n        }\n\n        // execute the refund if we have one\n        if (_refund > 0) {\n            _sender.transfer(_refund);\n            // send withdrawal event\n            Withdrawal(_sender, _refund);\n        }\n\n    }\n\n}",
  "sourcePath": "/Users/agroleau/Repositories/charity-solidity/contracts/Charity.sol",
  "schemaVersion": "1.0.0",
  "updatedAt": "2017-10-10T06:36:45.746Z"
}